{
	"data": {
		"bytecode": {
			"linkReferences": {},
			"object": "60806040523480156200001157600080fd5b50604051620009e6380380620009e68339818101604052810190620000379190620001f8565b60405180608001604052808581526020018481526020018381526020018281525060009060046200006a92919062000170565b507e979215608f44c313439566a7f8f134c68bbdac754a55c37aa912c0640b8d9e60008081548110620000a257620000a1620002b2565b5b90600052602060002001546000600181548110620000c557620000c4620002b2565b5b9060005260206000200154604051620000e09291906200027b565b60405180910390a17e979215608f44c313439566a7f8f134c68bbdac754a55c37aa912c0640b8d9e600060028154811062000120576200011f620002b2565b5b90600052602060002001546000600381548110620001435762000142620002b2565b5b90600052602060002001546040516200015e9291906200027b565b60405180910390a15050505062000300565b828054828255906000526020600020908101928215620001af579160200282015b82811115620001ae57825182559160200191906001019062000191565b5b509050620001be9190620001c2565b5090565b5b80821115620001dd576000816000905550600101620001c3565b5090565b600081519050620001f281620002e6565b92915050565b60008060008060808587031215620002155762000214620002e1565b5b60006200022587828801620001e1565b94505060206200023887828801620001e1565b93505060406200024b87828801620001e1565b92505060606200025e87828801620001e1565b91505092959194509250565b6200027581620002a8565b82525050565b60006040820190506200029260008301856200026a565b620002a160208301846200026a565b9392505050565b6000819050919050565b7f4e487b7100000000000000000000000000000000000000000000000000000000600052603260045260246000fd5b600080fd5b620002f181620002a8565b8114620002fd57600080fd5b50565b6106d680620003106000396000f3fe608060405234801561001057600080fd5b506004361061002b5760003560e01c8063080c669e14610030575b600080fd5b61004a60048036038101906100459190610429565b610060565b60405161005791906104d3565b60405180910390f35b600061006e60008484610076565b905092915050565b6000610080610332565b610088610354565b610090610354565b600080600190506000604051806020016040528061013e61011a6100f68e6002815481106100c1576100c06105b7565b5b906000526020600020015460001b8f6003815481106100e3576100e26105b7565b5b906000526020600020015460001b610282565b8c60018151811061010a576101096105b7565b5b602002602001015160001b610282565b8c60008151811061012e5761012d6105b7565b5b602002602001015160001b610282565b81525090506107d05a038a8752602087209350600284015487526003840154602088015260608a015160408801526040866060896000600786f192506040890151875260608901516020880152815160408801526040876060896000600786f18316925060208a0151604088015260408a015160608801526040856080896000600686f183169250848614831692506080890151865260a089015160208701528354875260018401546020880152602089015160408801526040876060896000600786f18316925060408901516040880152606089015160608801526040856080896000600686f183169250848614831692505081610272576040517f08c379a0000000000000000000000000000000000000000000000000000000008152600401610269906104ee565b60405180910390fd5b8196505050505050509392505050565b60007f30644e72e131a029b85045b68181585d2833e84879b9709143e1f593f000000180838508818182098282848386858609090991507faed26d6a3f5e0ea662411ddfcde3527479de9cee7a56c656ff5f61df13a3940160005260005b605a81121561031957602060002080600052848786838708089350848485099250848486858887880909099350506001810190506102e0565b5082858308915082858488850808935050505092915050565b6040518060800160405280600490602082028036833780820191505090505090565b6040518060400160405280600290602082028036833780820191505090505090565b600061038961038484610533565b61050e565b905080838252602082019050828560208602820111156103ac576103ab61061a565b5b60005b858110156103dc57816103c28882610414565b8452602084019350602083019250506001810190506103af565b5050509392505050565b600082601f8301126103fb576103fa610615565b5b813561040b848260208601610376565b91505092915050565b60008135905061042381610689565b92915050565b600080604083850312156104405761043f610624565b5b600083013567ffffffffffffffff81111561045e5761045d61061f565b5b61046a858286016103e6565b925050602083013567ffffffffffffffff81111561048b5761048a61061f565b5b610497858286016103e6565b9150509250929050565b6104aa81610570565b82525050565b60006104bd60398361055f565b91506104c88261063a565b604082019050919050565b60006020820190506104e860008301846104a1565b92915050565b60006020820190508181036000830152610507816104b0565b9050919050565b6000610518610529565b90506105248282610586565b919050565b6000604051905090565b600067ffffffffffffffff82111561054e5761054d6105e6565b5b602082029050602081019050919050565b600082825260208201905092915050565b60008115159050919050565b6000819050919050565b61058f82610629565b810181811067ffffffffffffffff821117156105ae576105ad6105e6565b5b80604052505050565b7f4e487b7100000000000000000000000000000000000000000000000000000000600052603260045260246000fd5b7f4e487b7100000000000000000000000000000000000000000000000000000000600052604160045260246000fd5b600080fd5b600080fd5b600080fd5b600080fd5b6000601f19601f8301169050919050565b7f52656a6563743a204572726f72206f636375726564206f7220736f6d6574686960008201527f6e672077726f6e6728652e672e206f7574206f66206761732900000000000000602082015250565b6106928161057c565b811461069d57600080fd5b5056fea2646970667358221220a04739bbcaff0e8e1302b2b42810b3c515a71e31e50f6d28a72b7522806309bf64736f6c63430008070033",
			"opcodes": "PUSH1 0x80 PUSH1 0x40 MSTORE CALLVALUE DUP1 ISZERO PUSH3 0x11 JUMPI PUSH1 0x0 DUP1 REVERT JUMPDEST POP PUSH1 0x40 MLOAD PUSH3 0x9E6 CODESIZE SUB DUP1 PUSH3 0x9E6 DUP4 CODECOPY DUP2 DUP2 ADD PUSH1 0x40 MSTORE DUP2 ADD SWAP1 PUSH3 0x37 SWAP2 SWAP1 PUSH3 0x1F8 JUMP JUMPDEST PUSH1 0x40 MLOAD DUP1 PUSH1 0x80 ADD PUSH1 0x40 MSTORE DUP1 DUP6 DUP2 MSTORE PUSH1 0x20 ADD DUP5 DUP2 MSTORE PUSH1 0x20 ADD DUP4 DUP2 MSTORE PUSH1 0x20 ADD DUP3 DUP2 MSTORE POP PUSH1 0x0 SWAP1 PUSH1 0x4 PUSH3 0x6A SWAP3 SWAP2 SWAP1 PUSH3 0x170 JUMP JUMPDEST POP PUSH31 0x979215608F44C313439566A7F8F134C68BBDAC754A55C37AA912C0640B8D9E PUSH1 0x0 DUP1 DUP2 SLOAD DUP2 LT PUSH3 0xA2 JUMPI PUSH3 0xA1 PUSH3 0x2B2 JUMP JUMPDEST JUMPDEST SWAP1 PUSH1 0x0 MSTORE PUSH1 0x20 PUSH1 0x0 KECCAK256 ADD SLOAD PUSH1 0x0 PUSH1 0x1 DUP2 SLOAD DUP2 LT PUSH3 0xC5 JUMPI PUSH3 0xC4 PUSH3 0x2B2 JUMP JUMPDEST JUMPDEST SWAP1 PUSH1 0x0 MSTORE PUSH1 0x20 PUSH1 0x0 KECCAK256 ADD SLOAD PUSH1 0x40 MLOAD PUSH3 0xE0 SWAP3 SWAP2 SWAP1 PUSH3 0x27B JUMP JUMPDEST PUSH1 0x40 MLOAD DUP1 SWAP2 SUB SWAP1 LOG1 PUSH31 0x979215608F44C313439566A7F8F134C68BBDAC754A55C37AA912C0640B8D9E PUSH1 0x0 PUSH1 0x2 DUP2 SLOAD DUP2 LT PUSH3 0x120 JUMPI PUSH3 0x11F PUSH3 0x2B2 JUMP JUMPDEST JUMPDEST SWAP1 PUSH1 0x0 MSTORE PUSH1 0x20 PUSH1 0x0 KECCAK256 ADD SLOAD PUSH1 0x0 PUSH1 0x3 DUP2 SLOAD DUP2 LT PUSH3 0x143 JUMPI PUSH3 0x142 PUSH3 0x2B2 JUMP JUMPDEST JUMPDEST SWAP1 PUSH1 0x0 MSTORE PUSH1 0x20 PUSH1 0x0 KECCAK256 ADD SLOAD PUSH1 0x40 MLOAD PUSH3 0x15E SWAP3 SWAP2 SWAP1 PUSH3 0x27B JUMP JUMPDEST PUSH1 0x40 MLOAD DUP1 SWAP2 SUB SWAP1 LOG1 POP POP POP POP PUSH3 0x300 JUMP JUMPDEST DUP3 DUP1 SLOAD DUP3 DUP3 SSTORE SWAP1 PUSH1 0x0 MSTORE PUSH1 0x20 PUSH1 0x0 KECCAK256 SWAP1 DUP2 ADD SWAP3 DUP3 ISZERO PUSH3 0x1AF JUMPI SWAP2 PUSH1 0x20 MUL DUP3 ADD JUMPDEST DUP3 DUP2 GT ISZERO PUSH3 0x1AE JUMPI DUP3 MLOAD DUP3 SSTORE SWAP2 PUSH1 0x20 ADD SWAP2 SWAP1 PUSH1 0x1 ADD SWAP1 PUSH3 0x191 JUMP JUMPDEST JUMPDEST POP SWAP1 POP PUSH3 0x1BE SWAP2 SWAP1 PUSH3 0x1C2 JUMP JUMPDEST POP SWAP1 JUMP JUMPDEST JUMPDEST DUP1 DUP3 GT ISZERO PUSH3 0x1DD JUMPI PUSH1 0x0 DUP2 PUSH1 0x0 SWAP1 SSTORE POP PUSH1 0x1 ADD PUSH3 0x1C3 JUMP JUMPDEST POP SWAP1 JUMP JUMPDEST PUSH1 0x0 DUP2 MLOAD SWAP1 POP PUSH3 0x1F2 DUP2 PUSH3 0x2E6 JUMP JUMPDEST SWAP3 SWAP2 POP POP JUMP JUMPDEST PUSH1 0x0 DUP1 PUSH1 0x0 DUP1 PUSH1 0x80 DUP6 DUP8 SUB SLT ISZERO PUSH3 0x215 JUMPI PUSH3 0x214 PUSH3 0x2E1 JUMP JUMPDEST JUMPDEST PUSH1 0x0 PUSH3 0x225 DUP8 DUP3 DUP9 ADD PUSH3 0x1E1 JUMP JUMPDEST SWAP5 POP POP PUSH1 0x20 PUSH3 0x238 DUP8 DUP3 DUP9 ADD PUSH3 0x1E1 JUMP JUMPDEST SWAP4 POP POP PUSH1 0x40 PUSH3 0x24B DUP8 DUP3 DUP9 ADD PUSH3 0x1E1 JUMP JUMPDEST SWAP3 POP POP PUSH1 0x60 PUSH3 0x25E DUP8 DUP3 DUP9 ADD PUSH3 0x1E1 JUMP JUMPDEST SWAP2 POP POP SWAP3 SWAP6 SWAP2 SWAP5 POP SWAP3 POP JUMP JUMPDEST PUSH3 0x275 DUP2 PUSH3 0x2A8 JUMP JUMPDEST DUP3 MSTORE POP POP JUMP JUMPDEST PUSH1 0x0 PUSH1 0x40 DUP3 ADD SWAP1 POP PUSH3 0x292 PUSH1 0x0 DUP4 ADD DUP6 PUSH3 0x26A JUMP JUMPDEST PUSH3 0x2A1 PUSH1 0x20 DUP4 ADD DUP5 PUSH3 0x26A JUMP JUMPDEST SWAP4 SWAP3 POP POP POP JUMP JUMPDEST PUSH1 0x0 DUP2 SWAP1 POP SWAP2 SWAP1 POP JUMP JUMPDEST PUSH32 0x4E487B7100000000000000000000000000000000000000000000000000000000 PUSH1 0x0 MSTORE PUSH1 0x32 PUSH1 0x4 MSTORE PUSH1 0x24 PUSH1 0x0 REVERT JUMPDEST PUSH1 0x0 DUP1 REVERT JUMPDEST PUSH3 0x2F1 DUP2 PUSH3 0x2A8 JUMP JUMPDEST DUP2 EQ PUSH3 0x2FD JUMPI PUSH1 0x0 DUP1 REVERT JUMPDEST POP JUMP JUMPDEST PUSH2 0x6D6 DUP1 PUSH3 0x310 PUSH1 0x0 CODECOPY PUSH1 0x0 RETURN INVALID PUSH1 0x80 PUSH1 0x40 MSTORE CALLVALUE DUP1 ISZERO PUSH2 0x10 JUMPI PUSH1 0x0 DUP1 REVERT JUMPDEST POP PUSH1 0x4 CALLDATASIZE LT PUSH2 0x2B JUMPI PUSH1 0x0 CALLDATALOAD PUSH1 0xE0 SHR DUP1 PUSH4 0x80C669E EQ PUSH2 0x30 JUMPI JUMPDEST PUSH1 0x0 DUP1 REVERT JUMPDEST PUSH2 0x4A PUSH1 0x4 DUP1 CALLDATASIZE SUB DUP2 ADD SWAP1 PUSH2 0x45 SWAP2 SWAP1 PUSH2 0x429 JUMP JUMPDEST PUSH2 0x60 JUMP JUMPDEST PUSH1 0x40 MLOAD PUSH2 0x57 SWAP2 SWAP1 PUSH2 0x4D3 JUMP JUMPDEST PUSH1 0x40 MLOAD DUP1 SWAP2 SUB SWAP1 RETURN JUMPDEST PUSH1 0x0 PUSH2 0x6E PUSH1 0x0 DUP5 DUP5 PUSH2 0x76 JUMP JUMPDEST SWAP1 POP SWAP3 SWAP2 POP POP JUMP JUMPDEST PUSH1 0x0 PUSH2 0x80 PUSH2 0x332 JUMP JUMPDEST PUSH2 0x88 PUSH2 0x354 JUMP JUMPDEST PUSH2 0x90 PUSH2 0x354 JUMP JUMPDEST PUSH1 0x0 DUP1 PUSH1 0x1 SWAP1 POP PUSH1 0x0 PUSH1 0x40 MLOAD DUP1 PUSH1 0x20 ADD PUSH1 0x40 MSTORE DUP1 PUSH2 0x13E PUSH2 0x11A PUSH2 0xF6 DUP15 PUSH1 0x2 DUP2 SLOAD DUP2 LT PUSH2 0xC1 JUMPI PUSH2 0xC0 PUSH2 0x5B7 JUMP JUMPDEST JUMPDEST SWAP1 PUSH1 0x0 MSTORE PUSH1 0x20 PUSH1 0x0 KECCAK256 ADD SLOAD PUSH1 0x0 SHL DUP16 PUSH1 0x3 DUP2 SLOAD DUP2 LT PUSH2 0xE3 JUMPI PUSH2 0xE2 PUSH2 0x5B7 JUMP JUMPDEST JUMPDEST SWAP1 PUSH1 0x0 MSTORE PUSH1 0x20 PUSH1 0x0 KECCAK256 ADD SLOAD PUSH1 0x0 SHL PUSH2 0x282 JUMP JUMPDEST DUP13 PUSH1 0x1 DUP2 MLOAD DUP2 LT PUSH2 0x10A JUMPI PUSH2 0x109 PUSH2 0x5B7 JUMP JUMPDEST JUMPDEST PUSH1 0x20 MUL PUSH1 0x20 ADD ADD MLOAD PUSH1 0x0 SHL PUSH2 0x282 JUMP JUMPDEST DUP13 PUSH1 0x0 DUP2 MLOAD DUP2 LT PUSH2 0x12E JUMPI PUSH2 0x12D PUSH2 0x5B7 JUMP JUMPDEST JUMPDEST PUSH1 0x20 MUL PUSH1 0x20 ADD ADD MLOAD PUSH1 0x0 SHL PUSH2 0x282 JUMP JUMPDEST DUP2 MSTORE POP SWAP1 POP PUSH2 0x7D0 GAS SUB DUP11 DUP8 MSTORE PUSH1 0x20 DUP8 KECCAK256 SWAP4 POP PUSH1 0x2 DUP5 ADD SLOAD DUP8 MSTORE PUSH1 0x3 DUP5 ADD SLOAD PUSH1 0x20 DUP9 ADD MSTORE PUSH1 0x60 DUP11 ADD MLOAD PUSH1 0x40 DUP9 ADD MSTORE PUSH1 0x40 DUP7 PUSH1 0x60 DUP10 PUSH1 0x0 PUSH1 0x7 DUP7 CALL SWAP3 POP PUSH1 0x40 DUP10 ADD MLOAD DUP8 MSTORE PUSH1 0x60 DUP10 ADD MLOAD PUSH1 0x20 DUP9 ADD MSTORE DUP2 MLOAD PUSH1 0x40 DUP9 ADD MSTORE PUSH1 0x40 DUP8 PUSH1 0x60 DUP10 PUSH1 0x0 PUSH1 0x7 DUP7 CALL DUP4 AND SWAP3 POP PUSH1 0x20 DUP11 ADD MLOAD PUSH1 0x40 DUP9 ADD MSTORE PUSH1 0x40 DUP11 ADD MLOAD PUSH1 0x60 DUP9 ADD MSTORE PUSH1 0x40 DUP6 PUSH1 0x80 DUP10 PUSH1 0x0 PUSH1 0x6 DUP7 CALL DUP4 AND SWAP3 POP DUP5 DUP7 EQ DUP4 AND SWAP3 POP PUSH1 0x80 DUP10 ADD MLOAD DUP7 MSTORE PUSH1 0xA0 DUP10 ADD MLOAD PUSH1 0x20 DUP8 ADD MSTORE DUP4 SLOAD DUP8 MSTORE PUSH1 0x1 DUP5 ADD SLOAD PUSH1 0x20 DUP9 ADD MSTORE PUSH1 0x20 DUP10 ADD MLOAD PUSH1 0x40 DUP9 ADD MSTORE PUSH1 0x40 DUP8 PUSH1 0x60 DUP10 PUSH1 0x0 PUSH1 0x7 DUP7 CALL DUP4 AND SWAP3 POP PUSH1 0x40 DUP10 ADD MLOAD PUSH1 0x40 DUP9 ADD MSTORE PUSH1 0x60 DUP10 ADD MLOAD PUSH1 0x60 DUP9 ADD MSTORE PUSH1 0x40 DUP6 PUSH1 0x80 DUP10 PUSH1 0x0 PUSH1 0x6 DUP7 CALL DUP4 AND SWAP3 POP DUP5 DUP7 EQ DUP4 AND SWAP3 POP POP DUP2 PUSH2 0x272 JUMPI PUSH1 0x40 MLOAD PUSH32 0x8C379A000000000000000000000000000000000000000000000000000000000 DUP2 MSTORE PUSH1 0x4 ADD PUSH2 0x269 SWAP1 PUSH2 0x4EE JUMP JUMPDEST PUSH1 0x40 MLOAD DUP1 SWAP2 SUB SWAP1 REVERT JUMPDEST DUP2 SWAP7 POP POP POP POP POP POP POP SWAP4 SWAP3 POP POP POP JUMP JUMPDEST PUSH1 0x0 PUSH32 0x30644E72E131A029B85045B68181585D2833E84879B9709143E1F593F0000001 DUP1 DUP4 DUP6 ADDMOD DUP2 DUP2 DUP3 MULMOD DUP3 DUP3 DUP5 DUP4 DUP7 DUP6 DUP7 MULMOD MULMOD MULMOD SWAP2 POP PUSH32 0xAED26D6A3F5E0EA662411DDFCDE3527479DE9CEE7A56C656FF5F61DF13A39401 PUSH1 0x0 MSTORE PUSH1 0x0 JUMPDEST PUSH1 0x5A DUP2 SLT ISZERO PUSH2 0x319 JUMPI PUSH1 0x20 PUSH1 0x0 KECCAK256 DUP1 PUSH1 0x0 MSTORE DUP5 DUP8 DUP7 DUP4 DUP8 ADDMOD ADDMOD SWAP4 POP DUP5 DUP5 DUP6 MULMOD SWAP3 POP DUP5 DUP5 DUP7 DUP6 DUP9 DUP8 DUP9 MULMOD MULMOD MULMOD SWAP4 POP POP PUSH1 0x1 DUP2 ADD SWAP1 POP PUSH2 0x2E0 JUMP JUMPDEST POP DUP3 DUP6 DUP4 ADDMOD SWAP2 POP DUP3 DUP6 DUP5 DUP9 DUP6 ADDMOD ADDMOD SWAP4 POP POP POP POP SWAP3 SWAP2 POP POP JUMP JUMPDEST PUSH1 0x40 MLOAD DUP1 PUSH1 0x80 ADD PUSH1 0x40 MSTORE DUP1 PUSH1 0x4 SWAP1 PUSH1 0x20 DUP3 MUL DUP1 CALLDATASIZE DUP4 CALLDATACOPY DUP1 DUP3 ADD SWAP2 POP POP SWAP1 POP POP SWAP1 JUMP JUMPDEST PUSH1 0x40 MLOAD DUP1 PUSH1 0x40 ADD PUSH1 0x40 MSTORE DUP1 PUSH1 0x2 SWAP1 PUSH1 0x20 DUP3 MUL DUP1 CALLDATASIZE DUP4 CALLDATACOPY DUP1 DUP3 ADD SWAP2 POP POP SWAP1 POP POP SWAP1 JUMP JUMPDEST PUSH1 0x0 PUSH2 0x389 PUSH2 0x384 DUP5 PUSH2 0x533 JUMP JUMPDEST PUSH2 0x50E JUMP JUMPDEST SWAP1 POP DUP1 DUP4 DUP3 MSTORE PUSH1 0x20 DUP3 ADD SWAP1 POP DUP3 DUP6 PUSH1 0x20 DUP7 MUL DUP3 ADD GT ISZERO PUSH2 0x3AC JUMPI PUSH2 0x3AB PUSH2 0x61A JUMP JUMPDEST JUMPDEST PUSH1 0x0 JUMPDEST DUP6 DUP2 LT ISZERO PUSH2 0x3DC JUMPI DUP2 PUSH2 0x3C2 DUP9 DUP3 PUSH2 0x414 JUMP JUMPDEST DUP5 MSTORE PUSH1 0x20 DUP5 ADD SWAP4 POP PUSH1 0x20 DUP4 ADD SWAP3 POP POP PUSH1 0x1 DUP2 ADD SWAP1 POP PUSH2 0x3AF JUMP JUMPDEST POP POP POP SWAP4 SWAP3 POP POP POP JUMP JUMPDEST PUSH1 0x0 DUP3 PUSH1 0x1F DUP4 ADD SLT PUSH2 0x3FB JUMPI PUSH2 0x3FA PUSH2 0x615 JUMP JUMPDEST JUMPDEST DUP2 CALLDATALOAD PUSH2 0x40B DUP5 DUP3 PUSH1 0x20 DUP7 ADD PUSH2 0x376 JUMP JUMPDEST SWAP2 POP POP SWAP3 SWAP2 POP POP JUMP JUMPDEST PUSH1 0x0 DUP2 CALLDATALOAD SWAP1 POP PUSH2 0x423 DUP2 PUSH2 0x689 JUMP JUMPDEST SWAP3 SWAP2 POP POP JUMP JUMPDEST PUSH1 0x0 DUP1 PUSH1 0x40 DUP4 DUP6 SUB SLT ISZERO PUSH2 0x440 JUMPI PUSH2 0x43F PUSH2 0x624 JUMP JUMPDEST JUMPDEST PUSH1 0x0 DUP4 ADD CALLDATALOAD PUSH8 0xFFFFFFFFFFFFFFFF DUP2 GT ISZERO PUSH2 0x45E JUMPI PUSH2 0x45D PUSH2 0x61F JUMP JUMPDEST JUMPDEST PUSH2 0x46A DUP6 DUP3 DUP7 ADD PUSH2 0x3E6 JUMP JUMPDEST SWAP3 POP POP PUSH1 0x20 DUP4 ADD CALLDATALOAD PUSH8 0xFFFFFFFFFFFFFFFF DUP2 GT ISZERO PUSH2 0x48B JUMPI PUSH2 0x48A PUSH2 0x61F JUMP JUMPDEST JUMPDEST PUSH2 0x497 DUP6 DUP3 DUP7 ADD PUSH2 0x3E6 JUMP JUMPDEST SWAP2 POP POP SWAP3 POP SWAP3 SWAP1 POP JUMP JUMPDEST PUSH2 0x4AA DUP2 PUSH2 0x570 JUMP JUMPDEST DUP3 MSTORE POP POP JUMP JUMPDEST PUSH1 0x0 PUSH2 0x4BD PUSH1 0x39 DUP4 PUSH2 0x55F JUMP JUMPDEST SWAP2 POP PUSH2 0x4C8 DUP3 PUSH2 0x63A JUMP JUMPDEST PUSH1 0x40 DUP3 ADD SWAP1 POP SWAP2 SWAP1 POP JUMP JUMPDEST PUSH1 0x0 PUSH1 0x20 DUP3 ADD SWAP1 POP PUSH2 0x4E8 PUSH1 0x0 DUP4 ADD DUP5 PUSH2 0x4A1 JUMP JUMPDEST SWAP3 SWAP2 POP POP JUMP JUMPDEST PUSH1 0x0 PUSH1 0x20 DUP3 ADD SWAP1 POP DUP2 DUP2 SUB PUSH1 0x0 DUP4 ADD MSTORE PUSH2 0x507 DUP2 PUSH2 0x4B0 JUMP JUMPDEST SWAP1 POP SWAP2 SWAP1 POP JUMP JUMPDEST PUSH1 0x0 PUSH2 0x518 PUSH2 0x529 JUMP JUMPDEST SWAP1 POP PUSH2 0x524 DUP3 DUP3 PUSH2 0x586 JUMP JUMPDEST SWAP2 SWAP1 POP JUMP JUMPDEST PUSH1 0x0 PUSH1 0x40 MLOAD SWAP1 POP SWAP1 JUMP JUMPDEST PUSH1 0x0 PUSH8 0xFFFFFFFFFFFFFFFF DUP3 GT ISZERO PUSH2 0x54E JUMPI PUSH2 0x54D PUSH2 0x5E6 JUMP JUMPDEST JUMPDEST PUSH1 0x20 DUP3 MUL SWAP1 POP PUSH1 0x20 DUP2 ADD SWAP1 POP SWAP2 SWAP1 POP JUMP JUMPDEST PUSH1 0x0 DUP3 DUP3 MSTORE PUSH1 0x20 DUP3 ADD SWAP1 POP SWAP3 SWAP2 POP POP JUMP JUMPDEST PUSH1 0x0 DUP2 ISZERO ISZERO SWAP1 POP SWAP2 SWAP1 POP JUMP JUMPDEST PUSH1 0x0 DUP2 SWAP1 POP SWAP2 SWAP1 POP JUMP JUMPDEST PUSH2 0x58F DUP3 PUSH2 0x629 JUMP JUMPDEST DUP2 ADD DUP2 DUP2 LT PUSH8 0xFFFFFFFFFFFFFFFF DUP3 GT OR ISZERO PUSH2 0x5AE JUMPI PUSH2 0x5AD PUSH2 0x5E6 JUMP JUMPDEST JUMPDEST DUP1 PUSH1 0x40 MSTORE POP POP POP JUMP JUMPDEST PUSH32 0x4E487B7100000000000000000000000000000000000000000000000000000000 PUSH1 0x0 MSTORE PUSH1 0x32 PUSH1 0x4 MSTORE PUSH1 0x24 PUSH1 0x0 REVERT JUMPDEST PUSH32 0x4E487B7100000000000000000000000000000000000000000000000000000000 PUSH1 0x0 MSTORE PUSH1 0x41 PUSH1 0x4 MSTORE PUSH1 0x24 PUSH1 0x0 REVERT JUMPDEST PUSH1 0x0 DUP1 REVERT JUMPDEST PUSH1 0x0 DUP1 REVERT JUMPDEST PUSH1 0x0 DUP1 REVERT JUMPDEST PUSH1 0x0 DUP1 REVERT JUMPDEST PUSH1 0x0 PUSH1 0x1F NOT PUSH1 0x1F DUP4 ADD AND SWAP1 POP SWAP2 SWAP1 POP JUMP JUMPDEST PUSH32 0x52656A6563743A204572726F72206F636375726564206F7220736F6D65746869 PUSH1 0x0 DUP3 ADD MSTORE PUSH32 0x6E672077726F6E6728652E672E206F7574206F66206761732900000000000000 PUSH1 0x20 DUP3 ADD MSTORE POP JUMP JUMPDEST PUSH2 0x692 DUP2 PUSH2 0x57C JUMP JUMPDEST DUP2 EQ PUSH2 0x69D JUMPI PUSH1 0x0 DUP1 REVERT JUMPDEST POP JUMP INVALID LOG2 PUSH5 0x6970667358 0x22 SLT KECCAK256 LOG0 SELFBALANCE CODECOPY 0xBB 0xCA SELFDESTRUCT 0xE DUP15 SGT MUL 0xB2 0xB4 0x28 LT 0xB3 0xC5 ISZERO 0xA7 0x1E BALANCE 0xE5 0xF PUSH14 0x28A72B7522806309BF64736F6C63 NUMBER STOP ADDMOD SMOD STOP CALLER "
		},
		"gasEstimates": {
			"creation": {
				"codeDepositCost": "350000",
				"executionCost": "infinite",
				"totalCost": "infinite"
			},
			"external": {
				"verifyBN256(uint256[],uint256[])": "infinite"
			}
		},
		"methodIdentifiers": {
			"verifyBN256(uint256[],uint256[])": "080c669e"
		}
	},
	"abi": [
		{
			"inputs": [
				{
					"internalType": "uint256",
					"name": "gX",
					"type": "uint256"
				},
				{
					"internalType": "uint256",
					"name": "gY",
					"type": "uint256"
				},
				{
					"internalType": "uint256",
					"name": "hX",
					"type": "uint256"
				},
				{
					"internalType": "uint256",
					"name": "hY",
					"type": "uint256"
				}
			],
			"stateMutability": "nonpayable",
			"type": "constructor"
		},
		{
			"anonymous": false,
			"inputs": [
				{
					"indexed": false,
					"internalType": "uint256",
					"name": "X",
					"type": "uint256"
				},
				{
					"indexed": false,
					"internalType": "uint256",
					"name": "Y",
					"type": "uint256"
				}
			],
			"name": "LogGenerator",
			"type": "event"
		},
		{
			"inputs": [
				{
					"internalType": "uint256[]",
					"name": "proof",
					"type": "uint256[]"
				},
				{
					"internalType": "uint256[]",
					"name": "inputs",
					"type": "uint256[]"
				}
			],
			"name": "verifyBN256",
			"outputs": [
				{
					"internalType": "bool",
					"name": "",
					"type": "bool"
				}
			],
			"stateMutability": "nonpayable",
			"type": "function"
		}
	]
}