{
	"data": {
		"bytecode": {
			"linkReferences": {},
			"object": "60806040523480156200001157600080fd5b5060405162001444380380620014448339818101604052810190620000379190620001e4565b826000600281106200004e576200004d62000306565b5b602002015160008001819055508260016002811062000072576200007162000306565b5b60200201516000600101819055508160006002811062000097576200009662000306565b5b602002015160026000018190555081600160028110620000bc57620000bb62000306565b5b602002015160026001018190555080600460006101000a81548173ffffffffffffffffffffffffffffffffffffffff021916908373ffffffffffffffffffffffffffffffffffffffff160217905550505050620003b8565b60006200012b620001258462000269565b62000240565b9050808285602086028201111562000148576200014762000369565b5b60005b858110156200017c5781620001618882620001cd565b8452602084019350602083019250506001810190506200014b565b5050509392505050565b600081519050620001978162000384565b92915050565b600082601f830112620001b557620001b462000364565b5b6002620001c484828562000114565b91505092915050565b600081519050620001de816200039e565b92915050565b600080600060a084860312156200020057620001ff6200036e565b5b600062000210868287016200019d565b935050604062000223868287016200019d565b9250506080620002368682870162000186565b9150509250925092565b60006200024c6200025f565b90506200025a8282620002d0565b919050565b6000604051905090565b600067ffffffffffffffff82111562000287576200028662000335565b5b602082029050919050565b60006200029f82620002a6565b9050919050565b600073ffffffffffffffffffffffffffffffffffffffff82169050919050565b6000819050919050565b620002db8262000373565b810181811067ffffffffffffffff82111715620002fd57620002fc62000335565b5b80604052505050565b7f4e487b7100000000000000000000000000000000000000000000000000000000600052603260045260246000fd5b7f4e487b7100000000000000000000000000000000000000000000000000000000600052604160045260246000fd5b600080fd5b600080fd5b600080fd5b6000601f19601f8301169050919050565b6200038f8162000292565b81146200039b57600080fd5b50565b620003a981620002c6565b8114620003b557600080fd5b50565b61107c80620003c86000396000f3fe6080604052600436106100555760003560e01c80630651a1241461005a5780634efe3da21461007857806367307e00146100a8578063aad4f5ec146100d8578063b8c9d36514610108578063e2179b8e14610134575b600080fd5b610062610160565b60405161006f9190610cc2565b60405180910390f35b610092600480360381019061008d9190610a4b565b61020c565b60405161009f9190610cc2565b60405180910390f35b6100c260048036038101906100bd9190610a78565b610269565b6040516100cf9190610c2c565b60405180910390f35b6100f260048036038101906100ed9190610ab8565b61032a565b6040516100ff9190610c47565b60405180910390f35b34801561011457600080fd5b5061011d6104c5565b60405161012b929190610cdd565b60405180910390f35b34801561014057600080fd5b506101496104d7565b604051610157929190610cdd565b60405180910390f35b610168610800565b600460009054906101000a900473ffffffffffffffffffffffffffffffffffffffff1673ffffffffffffffffffffffffffffffffffffffff16630651a1246040518163ffffffff1660e01b8152600401604080518083038186803b1580156101cf57600080fd5b505afa1580156101e3573d6000803e3d6000fd5b505050506040513d601f19601f820116820180604052508101906102079190610a1e565b905090565b610214610800565b600061021e610160565b9050600061025d82610258610253600060405180604001604052908160008201548152602001600182015481525050886104e9565b6105b7565b61065c565b90508092505050919050565b61027161081a565b61027961081a565b60006102848561020c565b905061029f60026000015460001b826000015160001b610750565b60001c826000600281106102b6576102b5610ebf565b5b6020020181815250506102ff826000600281106102d6576102d5610ebf565b5b602002015160001b856000600281106102f2576102f1610ebf565b5b602002015160001b610750565b60001c8260016002811061031657610315610ebf565b5b602002018181525050819250505092915050565b600080610335610160565b905060006103748261036f61036a600060405180604001604052908160008201548152602001600182015481525050896104e9565b6105b7565b61065c565b9050600060405180604001604052808660006003811061039757610396610ebf565b5b60200201518152602001866001600381106103b5576103b4610ebf565b5b602002015181525090506000856002600381106103d5576103d4610ebf565b5b6020020151905060006104076103fa60026000015460001b866000015160001b610750565b846000015160001b610750565b90506000610435600260405180604001604052908160008201548152602001600182015481525050846104e9565b90506000610446868460001c6104e9565b90506000610454868361065c565b905080600001518360000151148015610474575080602001518360200151145b6104b3576040517f08c379a00000000000000000000000000000000000000000000000000000000081526004016104aa90610c82565b60405180910390fd5b60019850505050505050505092915050565b60028060000154908060010154905082565b60008060000154908060010154905082565b6104f1610800565b6104f961083c565b83600001518160006003811061051257610511610ebf565b5b60200201818152505083602001518160016003811061053457610533610ebf565b5b602002018181525050828160026003811061055257610551610ebf565b5b6020020181815250506000604083606084600060076107d05a03f19050806105af576040517f08c379a00000000000000000000000000000000000000000000000000000000081526004016105a690610ca2565b60405180910390fd5b505092915050565b6105bf610800565b60007f30644e72e131a029b85045b68181585d97816a916871ca8d3c208c16d87cfd479050600083600001511480156105fc575060008360200151145b15610620576040518060400160405280600081526020016000815250915050610657565b6040518060400160405280846000015181526020018285602001516106459190610e30565b836106509190610db5565b8152509150505b919050565b610664610800565b61066c61085e565b83600001518160006004811061068557610684610ebf565b5b6020020181815250508360200151816001600481106106a7576106a6610ebf565b5b6020020181815250508260000151816002600481106106c9576106c8610ebf565b5b6020020181815250508260200151816003600481106106eb576106ea610ebf565b5b6020020181815250506000604083608084600060066107d05a03f1905080610748576040517f08c379a000000000000000000000000000000000000000000000000000000000815260040161073f90610c62565b60405180910390fd5b505092915050565b60007f30644e72e131a029b85045b68181585d2833e84879b9709143e1f593f000000180838508818182098282848386858609090991507faed26d6a3f5e0ea662411ddfcde3527479de9cee7a56c656ff5f61df13a3940160005260005b605a8112156107e757602060002080600052848786838708089350848485099250848486858887880909099350506001810190506107ae565b5082858308915082858488850808935050505092915050565b604051806040016040528060008152602001600081525090565b6040518060400160405280600290602082028036833780820191505090505090565b6040518060600160405280600390602082028036833780820191505090505090565b6040518060800160405280600490602082028036833780820191505090505090565b600061089361088e84610d2b565b610d06565b905080828560208602820111156108ad576108ac610f27565b5b60005b858110156108dd57816108c388826109f4565b8452602084019350602083019250506001810190506108b0565b5050509392505050565b60006108fa6108f584610d51565b610d06565b9050808285602086028201111561091457610913610f27565b5b60005b85811015610944578161092a88826109f4565b845260208401935060208301925050600181019050610917565b5050509392505050565b600082601f83011261096357610962610f1d565b5b6002610970848285610880565b91505092915050565b600082601f83011261098e5761098d610f1d565b5b600361099b8482856108e7565b91505092915050565b6000604082840312156109ba576109b9610f22565b5b6109c46040610d06565b905060006109d484828501610a09565b60008301525060206109e884828501610a09565b60208301525092915050565b600081359050610a038161102f565b92915050565b600081519050610a188161102f565b92915050565b600060408284031215610a3457610a33610f2c565b5b6000610a42848285016109a4565b91505092915050565b600060208284031215610a6157610a60610f2c565b5b6000610a6f848285016109f4565b91505092915050565b60008060608385031215610a8f57610a8e610f2c565b5b6000610a9d858286016109f4565b9250506020610aae8582860161094e565b9150509250929050565b60008060808385031215610acf57610ace610f2c565b5b6000610add858286016109f4565b9250506020610aee85828601610979565b9150509250929050565b6000610b048383610c0e565b60208301905092915050565b610b1981610d81565b610b238184610d99565b9250610b2e82610d77565b8060005b83811015610b5f578151610b468782610af8565b9650610b5183610d8c565b925050600181019050610b32565b505050505050565b610b7081610de9565b82525050565b6000610b83604783610da4565b9150610b8e82610f42565b606082019050919050565b6000610ba6600b83610da4565b9150610bb182610fb7565b602082019050919050565b6000610bc9603d83610da4565b9150610bd482610fe0565b604082019050919050565b604082016000820151610bf56000850182610c0e565b506020820151610c086020850182610c0e565b50505050565b610c1781610df5565b82525050565b610c2681610df5565b82525050565b6000604082019050610c416000830184610b10565b92915050565b6000602082019050610c5c6000830184610b67565b92915050565b60006020820190508181036000830152610c7b81610b76565b9050919050565b60006020820190508181036000830152610c9b81610b99565b9050919050565b60006020820190508181036000830152610cbb81610bbc565b9050919050565b6000604082019050610cd76000830184610bdf565b92915050565b6000604082019050610cf26000830185610c1d565b610cff6020830184610c1d565b9392505050565b6000610d10610d21565b9050610d1c8282610dff565b919050565b6000604051905090565b600067ffffffffffffffff821115610d4657610d45610eee565b5b602082029050919050565b600067ffffffffffffffff821115610d6c57610d6b610eee565b5b602082029050919050565b6000819050919050565b600060029050919050565b6000602082019050919050565b600081905092915050565b600082825260208201905092915050565b6000610dc082610df5565b9150610dcb83610df5565b925082821015610dde57610ddd610e61565b5b828203905092915050565b60008115159050919050565b6000819050919050565b610e0882610f31565b810181811067ffffffffffffffff82111715610e2757610e26610eee565b5b80604052505050565b6000610e3b82610df5565b9150610e4683610df5565b925082610e5657610e55610e90565b5b828206905092915050565b7f4e487b7100000000000000000000000000000000000000000000000000000000600052601160045260246000fd5b7f4e487b7100000000000000000000000000000000000000000000000000000000600052601260045260246000fd5b7f4e487b7100000000000000000000000000000000000000000000000000000000600052603260045260246000fd5b7f4e487b7100000000000000000000000000000000000000000000000000000000600052604160045260246000fd5b600080fd5b600080fd5b600080fd5b600080fd5b6000601f19601f8301169050919050565b7f43616c6c20746f2074686520626e32353641646420707265636f6d70696c656460008201527f206661696c6564202870726f6261626c7920616e206f7574206f66206761732060208201527f6572726f723f2900000000000000000000000000000000000000000000000000604082015250565b7f766572696679206661696c000000000000000000000000000000000000000000600082015250565b7f43616c6c20746f20626e3235365363616c61724d756c206661696c656420287060008201527f726f6261626c7920616e206f7574206f6620676173206572726f723f29000000602082015250565b61103881610df5565b811461104357600080fd5b5056fea2646970667358221220aec14eda1114d76318b2e76b8fd028a2fdfe294c6f28512a88b91e5cfe80c0b064736f6c63430008070033",
			"opcodes": "PUSH1 0x80 PUSH1 0x40 MSTORE CALLVALUE DUP1 ISZERO PUSH3 0x11 JUMPI PUSH1 0x0 DUP1 REVERT JUMPDEST POP PUSH1 0x40 MLOAD PUSH3 0x1444 CODESIZE SUB DUP1 PUSH3 0x1444 DUP4 CODECOPY DUP2 DUP2 ADD PUSH1 0x40 MSTORE DUP2 ADD SWAP1 PUSH3 0x37 SWAP2 SWAP1 PUSH3 0x1E4 JUMP JUMPDEST DUP3 PUSH1 0x0 PUSH1 0x2 DUP2 LT PUSH3 0x4E JUMPI PUSH3 0x4D PUSH3 0x306 JUMP JUMPDEST JUMPDEST PUSH1 0x20 MUL ADD MLOAD PUSH1 0x0 DUP1 ADD DUP2 SWAP1 SSTORE POP DUP3 PUSH1 0x1 PUSH1 0x2 DUP2 LT PUSH3 0x72 JUMPI PUSH3 0x71 PUSH3 0x306 JUMP JUMPDEST JUMPDEST PUSH1 0x20 MUL ADD MLOAD PUSH1 0x0 PUSH1 0x1 ADD DUP2 SWAP1 SSTORE POP DUP2 PUSH1 0x0 PUSH1 0x2 DUP2 LT PUSH3 0x97 JUMPI PUSH3 0x96 PUSH3 0x306 JUMP JUMPDEST JUMPDEST PUSH1 0x20 MUL ADD MLOAD PUSH1 0x2 PUSH1 0x0 ADD DUP2 SWAP1 SSTORE POP DUP2 PUSH1 0x1 PUSH1 0x2 DUP2 LT PUSH3 0xBC JUMPI PUSH3 0xBB PUSH3 0x306 JUMP JUMPDEST JUMPDEST PUSH1 0x20 MUL ADD MLOAD PUSH1 0x2 PUSH1 0x1 ADD DUP2 SWAP1 SSTORE POP DUP1 PUSH1 0x4 PUSH1 0x0 PUSH2 0x100 EXP DUP2 SLOAD DUP2 PUSH20 0xFFFFFFFFFFFFFFFFFFFFFFFFFFFFFFFFFFFFFFFF MUL NOT AND SWAP1 DUP4 PUSH20 0xFFFFFFFFFFFFFFFFFFFFFFFFFFFFFFFFFFFFFFFF AND MUL OR SWAP1 SSTORE POP POP POP POP PUSH3 0x3B8 JUMP JUMPDEST PUSH1 0x0 PUSH3 0x12B PUSH3 0x125 DUP5 PUSH3 0x269 JUMP JUMPDEST PUSH3 0x240 JUMP JUMPDEST SWAP1 POP DUP1 DUP3 DUP6 PUSH1 0x20 DUP7 MUL DUP3 ADD GT ISZERO PUSH3 0x148 JUMPI PUSH3 0x147 PUSH3 0x369 JUMP JUMPDEST JUMPDEST PUSH1 0x0 JUMPDEST DUP6 DUP2 LT ISZERO PUSH3 0x17C JUMPI DUP2 PUSH3 0x161 DUP9 DUP3 PUSH3 0x1CD JUMP JUMPDEST DUP5 MSTORE PUSH1 0x20 DUP5 ADD SWAP4 POP PUSH1 0x20 DUP4 ADD SWAP3 POP POP PUSH1 0x1 DUP2 ADD SWAP1 POP PUSH3 0x14B JUMP JUMPDEST POP POP POP SWAP4 SWAP3 POP POP POP JUMP JUMPDEST PUSH1 0x0 DUP2 MLOAD SWAP1 POP PUSH3 0x197 DUP2 PUSH3 0x384 JUMP JUMPDEST SWAP3 SWAP2 POP POP JUMP JUMPDEST PUSH1 0x0 DUP3 PUSH1 0x1F DUP4 ADD SLT PUSH3 0x1B5 JUMPI PUSH3 0x1B4 PUSH3 0x364 JUMP JUMPDEST JUMPDEST PUSH1 0x2 PUSH3 0x1C4 DUP5 DUP3 DUP6 PUSH3 0x114 JUMP JUMPDEST SWAP2 POP POP SWAP3 SWAP2 POP POP JUMP JUMPDEST PUSH1 0x0 DUP2 MLOAD SWAP1 POP PUSH3 0x1DE DUP2 PUSH3 0x39E JUMP JUMPDEST SWAP3 SWAP2 POP POP JUMP JUMPDEST PUSH1 0x0 DUP1 PUSH1 0x0 PUSH1 0xA0 DUP5 DUP7 SUB SLT ISZERO PUSH3 0x200 JUMPI PUSH3 0x1FF PUSH3 0x36E JUMP JUMPDEST JUMPDEST PUSH1 0x0 PUSH3 0x210 DUP7 DUP3 DUP8 ADD PUSH3 0x19D JUMP JUMPDEST SWAP4 POP POP PUSH1 0x40 PUSH3 0x223 DUP7 DUP3 DUP8 ADD PUSH3 0x19D JUMP JUMPDEST SWAP3 POP POP PUSH1 0x80 PUSH3 0x236 DUP7 DUP3 DUP8 ADD PUSH3 0x186 JUMP JUMPDEST SWAP2 POP POP SWAP3 POP SWAP3 POP SWAP3 JUMP JUMPDEST PUSH1 0x0 PUSH3 0x24C PUSH3 0x25F JUMP JUMPDEST SWAP1 POP PUSH3 0x25A DUP3 DUP3 PUSH3 0x2D0 JUMP JUMPDEST SWAP2 SWAP1 POP JUMP JUMPDEST PUSH1 0x0 PUSH1 0x40 MLOAD SWAP1 POP SWAP1 JUMP JUMPDEST PUSH1 0x0 PUSH8 0xFFFFFFFFFFFFFFFF DUP3 GT ISZERO PUSH3 0x287 JUMPI PUSH3 0x286 PUSH3 0x335 JUMP JUMPDEST JUMPDEST PUSH1 0x20 DUP3 MUL SWAP1 POP SWAP2 SWAP1 POP JUMP JUMPDEST PUSH1 0x0 PUSH3 0x29F DUP3 PUSH3 0x2A6 JUMP JUMPDEST SWAP1 POP SWAP2 SWAP1 POP JUMP JUMPDEST PUSH1 0x0 PUSH20 0xFFFFFFFFFFFFFFFFFFFFFFFFFFFFFFFFFFFFFFFF DUP3 AND SWAP1 POP SWAP2 SWAP1 POP JUMP JUMPDEST PUSH1 0x0 DUP2 SWAP1 POP SWAP2 SWAP1 POP JUMP JUMPDEST PUSH3 0x2DB DUP3 PUSH3 0x373 JUMP JUMPDEST DUP2 ADD DUP2 DUP2 LT PUSH8 0xFFFFFFFFFFFFFFFF DUP3 GT OR ISZERO PUSH3 0x2FD JUMPI PUSH3 0x2FC PUSH3 0x335 JUMP JUMPDEST JUMPDEST DUP1 PUSH1 0x40 MSTORE POP POP POP JUMP JUMPDEST PUSH32 0x4E487B7100000000000000000000000000000000000000000000000000000000 PUSH1 0x0 MSTORE PUSH1 0x32 PUSH1 0x4 MSTORE PUSH1 0x24 PUSH1 0x0 REVERT JUMPDEST PUSH32 0x4E487B7100000000000000000000000000000000000000000000000000000000 PUSH1 0x0 MSTORE PUSH1 0x41 PUSH1 0x4 MSTORE PUSH1 0x24 PUSH1 0x0 REVERT JUMPDEST PUSH1 0x0 DUP1 REVERT JUMPDEST PUSH1 0x0 DUP1 REVERT JUMPDEST PUSH1 0x0 DUP1 REVERT JUMPDEST PUSH1 0x0 PUSH1 0x1F NOT PUSH1 0x1F DUP4 ADD AND SWAP1 POP SWAP2 SWAP1 POP JUMP JUMPDEST PUSH3 0x38F DUP2 PUSH3 0x292 JUMP JUMPDEST DUP2 EQ PUSH3 0x39B JUMPI PUSH1 0x0 DUP1 REVERT JUMPDEST POP JUMP JUMPDEST PUSH3 0x3A9 DUP2 PUSH3 0x2C6 JUMP JUMPDEST DUP2 EQ PUSH3 0x3B5 JUMPI PUSH1 0x0 DUP1 REVERT JUMPDEST POP JUMP JUMPDEST PUSH2 0x107C DUP1 PUSH3 0x3C8 PUSH1 0x0 CODECOPY PUSH1 0x0 RETURN INVALID PUSH1 0x80 PUSH1 0x40 MSTORE PUSH1 0x4 CALLDATASIZE LT PUSH2 0x55 JUMPI PUSH1 0x0 CALLDATALOAD PUSH1 0xE0 SHR DUP1 PUSH4 0x651A124 EQ PUSH2 0x5A JUMPI DUP1 PUSH4 0x4EFE3DA2 EQ PUSH2 0x78 JUMPI DUP1 PUSH4 0x67307E00 EQ PUSH2 0xA8 JUMPI DUP1 PUSH4 0xAAD4F5EC EQ PUSH2 0xD8 JUMPI DUP1 PUSH4 0xB8C9D365 EQ PUSH2 0x108 JUMPI DUP1 PUSH4 0xE2179B8E EQ PUSH2 0x134 JUMPI JUMPDEST PUSH1 0x0 DUP1 REVERT JUMPDEST PUSH2 0x62 PUSH2 0x160 JUMP JUMPDEST PUSH1 0x40 MLOAD PUSH2 0x6F SWAP2 SWAP1 PUSH2 0xCC2 JUMP JUMPDEST PUSH1 0x40 MLOAD DUP1 SWAP2 SUB SWAP1 RETURN JUMPDEST PUSH2 0x92 PUSH1 0x4 DUP1 CALLDATASIZE SUB DUP2 ADD SWAP1 PUSH2 0x8D SWAP2 SWAP1 PUSH2 0xA4B JUMP JUMPDEST PUSH2 0x20C JUMP JUMPDEST PUSH1 0x40 MLOAD PUSH2 0x9F SWAP2 SWAP1 PUSH2 0xCC2 JUMP JUMPDEST PUSH1 0x40 MLOAD DUP1 SWAP2 SUB SWAP1 RETURN JUMPDEST PUSH2 0xC2 PUSH1 0x4 DUP1 CALLDATASIZE SUB DUP2 ADD SWAP1 PUSH2 0xBD SWAP2 SWAP1 PUSH2 0xA78 JUMP JUMPDEST PUSH2 0x269 JUMP JUMPDEST PUSH1 0x40 MLOAD PUSH2 0xCF SWAP2 SWAP1 PUSH2 0xC2C JUMP JUMPDEST PUSH1 0x40 MLOAD DUP1 SWAP2 SUB SWAP1 RETURN JUMPDEST PUSH2 0xF2 PUSH1 0x4 DUP1 CALLDATASIZE SUB DUP2 ADD SWAP1 PUSH2 0xED SWAP2 SWAP1 PUSH2 0xAB8 JUMP JUMPDEST PUSH2 0x32A JUMP JUMPDEST PUSH1 0x40 MLOAD PUSH2 0xFF SWAP2 SWAP1 PUSH2 0xC47 JUMP JUMPDEST PUSH1 0x40 MLOAD DUP1 SWAP2 SUB SWAP1 RETURN JUMPDEST CALLVALUE DUP1 ISZERO PUSH2 0x114 JUMPI PUSH1 0x0 DUP1 REVERT JUMPDEST POP PUSH2 0x11D PUSH2 0x4C5 JUMP JUMPDEST PUSH1 0x40 MLOAD PUSH2 0x12B SWAP3 SWAP2 SWAP1 PUSH2 0xCDD JUMP JUMPDEST PUSH1 0x40 MLOAD DUP1 SWAP2 SUB SWAP1 RETURN JUMPDEST CALLVALUE DUP1 ISZERO PUSH2 0x140 JUMPI PUSH1 0x0 DUP1 REVERT JUMPDEST POP PUSH2 0x149 PUSH2 0x4D7 JUMP JUMPDEST PUSH1 0x40 MLOAD PUSH2 0x157 SWAP3 SWAP2 SWAP1 PUSH2 0xCDD JUMP JUMPDEST PUSH1 0x40 MLOAD DUP1 SWAP2 SUB SWAP1 RETURN JUMPDEST PUSH2 0x168 PUSH2 0x800 JUMP JUMPDEST PUSH1 0x4 PUSH1 0x0 SWAP1 SLOAD SWAP1 PUSH2 0x100 EXP SWAP1 DIV PUSH20 0xFFFFFFFFFFFFFFFFFFFFFFFFFFFFFFFFFFFFFFFF AND PUSH20 0xFFFFFFFFFFFFFFFFFFFFFFFFFFFFFFFFFFFFFFFF AND PUSH4 0x651A124 PUSH1 0x40 MLOAD DUP2 PUSH4 0xFFFFFFFF AND PUSH1 0xE0 SHL DUP2 MSTORE PUSH1 0x4 ADD PUSH1 0x40 DUP1 MLOAD DUP1 DUP4 SUB DUP2 DUP7 DUP1 EXTCODESIZE ISZERO DUP1 ISZERO PUSH2 0x1CF JUMPI PUSH1 0x0 DUP1 REVERT JUMPDEST POP GAS STATICCALL ISZERO DUP1 ISZERO PUSH2 0x1E3 JUMPI RETURNDATASIZE PUSH1 0x0 DUP1 RETURNDATACOPY RETURNDATASIZE PUSH1 0x0 REVERT JUMPDEST POP POP POP POP PUSH1 0x40 MLOAD RETURNDATASIZE PUSH1 0x1F NOT PUSH1 0x1F DUP3 ADD AND DUP3 ADD DUP1 PUSH1 0x40 MSTORE POP DUP2 ADD SWAP1 PUSH2 0x207 SWAP2 SWAP1 PUSH2 0xA1E JUMP JUMPDEST SWAP1 POP SWAP1 JUMP JUMPDEST PUSH2 0x214 PUSH2 0x800 JUMP JUMPDEST PUSH1 0x0 PUSH2 0x21E PUSH2 0x160 JUMP JUMPDEST SWAP1 POP PUSH1 0x0 PUSH2 0x25D DUP3 PUSH2 0x258 PUSH2 0x253 PUSH1 0x0 PUSH1 0x40 MLOAD DUP1 PUSH1 0x40 ADD PUSH1 0x40 MSTORE SWAP1 DUP2 PUSH1 0x0 DUP3 ADD SLOAD DUP2 MSTORE PUSH1 0x20 ADD PUSH1 0x1 DUP3 ADD SLOAD DUP2 MSTORE POP POP DUP9 PUSH2 0x4E9 JUMP JUMPDEST PUSH2 0x5B7 JUMP JUMPDEST PUSH2 0x65C JUMP JUMPDEST SWAP1 POP DUP1 SWAP3 POP POP POP SWAP2 SWAP1 POP JUMP JUMPDEST PUSH2 0x271 PUSH2 0x81A JUMP JUMPDEST PUSH2 0x279 PUSH2 0x81A JUMP JUMPDEST PUSH1 0x0 PUSH2 0x284 DUP6 PUSH2 0x20C JUMP JUMPDEST SWAP1 POP PUSH2 0x29F PUSH1 0x2 PUSH1 0x0 ADD SLOAD PUSH1 0x0 SHL DUP3 PUSH1 0x0 ADD MLOAD PUSH1 0x0 SHL PUSH2 0x750 JUMP JUMPDEST PUSH1 0x0 SHR DUP3 PUSH1 0x0 PUSH1 0x2 DUP2 LT PUSH2 0x2B6 JUMPI PUSH2 0x2B5 PUSH2 0xEBF JUMP JUMPDEST JUMPDEST PUSH1 0x20 MUL ADD DUP2 DUP2 MSTORE POP POP PUSH2 0x2FF DUP3 PUSH1 0x0 PUSH1 0x2 DUP2 LT PUSH2 0x2D6 JUMPI PUSH2 0x2D5 PUSH2 0xEBF JUMP JUMPDEST JUMPDEST PUSH1 0x20 MUL ADD MLOAD PUSH1 0x0 SHL DUP6 PUSH1 0x0 PUSH1 0x2 DUP2 LT PUSH2 0x2F2 JUMPI PUSH2 0x2F1 PUSH2 0xEBF JUMP JUMPDEST JUMPDEST PUSH1 0x20 MUL ADD MLOAD PUSH1 0x0 SHL PUSH2 0x750 JUMP JUMPDEST PUSH1 0x0 SHR DUP3 PUSH1 0x1 PUSH1 0x2 DUP2 LT PUSH2 0x316 JUMPI PUSH2 0x315 PUSH2 0xEBF JUMP JUMPDEST JUMPDEST PUSH1 0x20 MUL ADD DUP2 DUP2 MSTORE POP POP DUP2 SWAP3 POP POP POP SWAP3 SWAP2 POP POP JUMP JUMPDEST PUSH1 0x0 DUP1 PUSH2 0x335 PUSH2 0x160 JUMP JUMPDEST SWAP1 POP PUSH1 0x0 PUSH2 0x374 DUP3 PUSH2 0x36F PUSH2 0x36A PUSH1 0x0 PUSH1 0x40 MLOAD DUP1 PUSH1 0x40 ADD PUSH1 0x40 MSTORE SWAP1 DUP2 PUSH1 0x0 DUP3 ADD SLOAD DUP2 MSTORE PUSH1 0x20 ADD PUSH1 0x1 DUP3 ADD SLOAD DUP2 MSTORE POP POP DUP10 PUSH2 0x4E9 JUMP JUMPDEST PUSH2 0x5B7 JUMP JUMPDEST PUSH2 0x65C JUMP JUMPDEST SWAP1 POP PUSH1 0x0 PUSH1 0x40 MLOAD DUP1 PUSH1 0x40 ADD PUSH1 0x40 MSTORE DUP1 DUP7 PUSH1 0x0 PUSH1 0x3 DUP2 LT PUSH2 0x397 JUMPI PUSH2 0x396 PUSH2 0xEBF JUMP JUMPDEST JUMPDEST PUSH1 0x20 MUL ADD MLOAD DUP2 MSTORE PUSH1 0x20 ADD DUP7 PUSH1 0x1 PUSH1 0x3 DUP2 LT PUSH2 0x3B5 JUMPI PUSH2 0x3B4 PUSH2 0xEBF JUMP JUMPDEST JUMPDEST PUSH1 0x20 MUL ADD MLOAD DUP2 MSTORE POP SWAP1 POP PUSH1 0x0 DUP6 PUSH1 0x2 PUSH1 0x3 DUP2 LT PUSH2 0x3D5 JUMPI PUSH2 0x3D4 PUSH2 0xEBF JUMP JUMPDEST JUMPDEST PUSH1 0x20 MUL ADD MLOAD SWAP1 POP PUSH1 0x0 PUSH2 0x407 PUSH2 0x3FA PUSH1 0x2 PUSH1 0x0 ADD SLOAD PUSH1 0x0 SHL DUP7 PUSH1 0x0 ADD MLOAD PUSH1 0x0 SHL PUSH2 0x750 JUMP JUMPDEST DUP5 PUSH1 0x0 ADD MLOAD PUSH1 0x0 SHL PUSH2 0x750 JUMP JUMPDEST SWAP1 POP PUSH1 0x0 PUSH2 0x435 PUSH1 0x2 PUSH1 0x40 MLOAD DUP1 PUSH1 0x40 ADD PUSH1 0x40 MSTORE SWAP1 DUP2 PUSH1 0x0 DUP3 ADD SLOAD DUP2 MSTORE PUSH1 0x20 ADD PUSH1 0x1 DUP3 ADD SLOAD DUP2 MSTORE POP POP DUP5 PUSH2 0x4E9 JUMP JUMPDEST SWAP1 POP PUSH1 0x0 PUSH2 0x446 DUP7 DUP5 PUSH1 0x0 SHR PUSH2 0x4E9 JUMP JUMPDEST SWAP1 POP PUSH1 0x0 PUSH2 0x454 DUP7 DUP4 PUSH2 0x65C JUMP JUMPDEST SWAP1 POP DUP1 PUSH1 0x0 ADD MLOAD DUP4 PUSH1 0x0 ADD MLOAD EQ DUP1 ISZERO PUSH2 0x474 JUMPI POP DUP1 PUSH1 0x20 ADD MLOAD DUP4 PUSH1 0x20 ADD MLOAD EQ JUMPDEST PUSH2 0x4B3 JUMPI PUSH1 0x40 MLOAD PUSH32 0x8C379A000000000000000000000000000000000000000000000000000000000 DUP2 MSTORE PUSH1 0x4 ADD PUSH2 0x4AA SWAP1 PUSH2 0xC82 JUMP JUMPDEST PUSH1 0x40 MLOAD DUP1 SWAP2 SUB SWAP1 REVERT JUMPDEST PUSH1 0x1 SWAP9 POP POP POP POP POP POP POP POP POP SWAP3 SWAP2 POP POP JUMP JUMPDEST PUSH1 0x2 DUP1 PUSH1 0x0 ADD SLOAD SWAP1 DUP1 PUSH1 0x1 ADD SLOAD SWAP1 POP DUP3 JUMP JUMPDEST PUSH1 0x0 DUP1 PUSH1 0x0 ADD SLOAD SWAP1 DUP1 PUSH1 0x1 ADD SLOAD SWAP1 POP DUP3 JUMP JUMPDEST PUSH2 0x4F1 PUSH2 0x800 JUMP JUMPDEST PUSH2 0x4F9 PUSH2 0x83C JUMP JUMPDEST DUP4 PUSH1 0x0 ADD MLOAD DUP2 PUSH1 0x0 PUSH1 0x3 DUP2 LT PUSH2 0x512 JUMPI PUSH2 0x511 PUSH2 0xEBF JUMP JUMPDEST JUMPDEST PUSH1 0x20 MUL ADD DUP2 DUP2 MSTORE POP POP DUP4 PUSH1 0x20 ADD MLOAD DUP2 PUSH1 0x1 PUSH1 0x3 DUP2 LT PUSH2 0x534 JUMPI PUSH2 0x533 PUSH2 0xEBF JUMP JUMPDEST JUMPDEST PUSH1 0x20 MUL ADD DUP2 DUP2 MSTORE POP POP DUP3 DUP2 PUSH1 0x2 PUSH1 0x3 DUP2 LT PUSH2 0x552 JUMPI PUSH2 0x551 PUSH2 0xEBF JUMP JUMPDEST JUMPDEST PUSH1 0x20 MUL ADD DUP2 DUP2 MSTORE POP POP PUSH1 0x0 PUSH1 0x40 DUP4 PUSH1 0x60 DUP5 PUSH1 0x0 PUSH1 0x7 PUSH2 0x7D0 GAS SUB CALL SWAP1 POP DUP1 PUSH2 0x5AF JUMPI PUSH1 0x40 MLOAD PUSH32 0x8C379A000000000000000000000000000000000000000000000000000000000 DUP2 MSTORE PUSH1 0x4 ADD PUSH2 0x5A6 SWAP1 PUSH2 0xCA2 JUMP JUMPDEST PUSH1 0x40 MLOAD DUP1 SWAP2 SUB SWAP1 REVERT JUMPDEST POP POP SWAP3 SWAP2 POP POP JUMP JUMPDEST PUSH2 0x5BF PUSH2 0x800 JUMP JUMPDEST PUSH1 0x0 PUSH32 0x30644E72E131A029B85045B68181585D97816A916871CA8D3C208C16D87CFD47 SWAP1 POP PUSH1 0x0 DUP4 PUSH1 0x0 ADD MLOAD EQ DUP1 ISZERO PUSH2 0x5FC JUMPI POP PUSH1 0x0 DUP4 PUSH1 0x20 ADD MLOAD EQ JUMPDEST ISZERO PUSH2 0x620 JUMPI PUSH1 0x40 MLOAD DUP1 PUSH1 0x40 ADD PUSH1 0x40 MSTORE DUP1 PUSH1 0x0 DUP2 MSTORE PUSH1 0x20 ADD PUSH1 0x0 DUP2 MSTORE POP SWAP2 POP POP PUSH2 0x657 JUMP JUMPDEST PUSH1 0x40 MLOAD DUP1 PUSH1 0x40 ADD PUSH1 0x40 MSTORE DUP1 DUP5 PUSH1 0x0 ADD MLOAD DUP2 MSTORE PUSH1 0x20 ADD DUP3 DUP6 PUSH1 0x20 ADD MLOAD PUSH2 0x645 SWAP2 SWAP1 PUSH2 0xE30 JUMP JUMPDEST DUP4 PUSH2 0x650 SWAP2 SWAP1 PUSH2 0xDB5 JUMP JUMPDEST DUP2 MSTORE POP SWAP2 POP POP JUMPDEST SWAP2 SWAP1 POP JUMP JUMPDEST PUSH2 0x664 PUSH2 0x800 JUMP JUMPDEST PUSH2 0x66C PUSH2 0x85E JUMP JUMPDEST DUP4 PUSH1 0x0 ADD MLOAD DUP2 PUSH1 0x0 PUSH1 0x4 DUP2 LT PUSH2 0x685 JUMPI PUSH2 0x684 PUSH2 0xEBF JUMP JUMPDEST JUMPDEST PUSH1 0x20 MUL ADD DUP2 DUP2 MSTORE POP POP DUP4 PUSH1 0x20 ADD MLOAD DUP2 PUSH1 0x1 PUSH1 0x4 DUP2 LT PUSH2 0x6A7 JUMPI PUSH2 0x6A6 PUSH2 0xEBF JUMP JUMPDEST JUMPDEST PUSH1 0x20 MUL ADD DUP2 DUP2 MSTORE POP POP DUP3 PUSH1 0x0 ADD MLOAD DUP2 PUSH1 0x2 PUSH1 0x4 DUP2 LT PUSH2 0x6C9 JUMPI PUSH2 0x6C8 PUSH2 0xEBF JUMP JUMPDEST JUMPDEST PUSH1 0x20 MUL ADD DUP2 DUP2 MSTORE POP POP DUP3 PUSH1 0x20 ADD MLOAD DUP2 PUSH1 0x3 PUSH1 0x4 DUP2 LT PUSH2 0x6EB JUMPI PUSH2 0x6EA PUSH2 0xEBF JUMP JUMPDEST JUMPDEST PUSH1 0x20 MUL ADD DUP2 DUP2 MSTORE POP POP PUSH1 0x0 PUSH1 0x40 DUP4 PUSH1 0x80 DUP5 PUSH1 0x0 PUSH1 0x6 PUSH2 0x7D0 GAS SUB CALL SWAP1 POP DUP1 PUSH2 0x748 JUMPI PUSH1 0x40 MLOAD PUSH32 0x8C379A000000000000000000000000000000000000000000000000000000000 DUP2 MSTORE PUSH1 0x4 ADD PUSH2 0x73F SWAP1 PUSH2 0xC62 JUMP JUMPDEST PUSH1 0x40 MLOAD DUP1 SWAP2 SUB SWAP1 REVERT JUMPDEST POP POP SWAP3 SWAP2 POP POP JUMP JUMPDEST PUSH1 0x0 PUSH32 0x30644E72E131A029B85045B68181585D2833E84879B9709143E1F593F0000001 DUP1 DUP4 DUP6 ADDMOD DUP2 DUP2 DUP3 MULMOD DUP3 DUP3 DUP5 DUP4 DUP7 DUP6 DUP7 MULMOD MULMOD MULMOD SWAP2 POP PUSH32 0xAED26D6A3F5E0EA662411DDFCDE3527479DE9CEE7A56C656FF5F61DF13A39401 PUSH1 0x0 MSTORE PUSH1 0x0 JUMPDEST PUSH1 0x5A DUP2 SLT ISZERO PUSH2 0x7E7 JUMPI PUSH1 0x20 PUSH1 0x0 KECCAK256 DUP1 PUSH1 0x0 MSTORE DUP5 DUP8 DUP7 DUP4 DUP8 ADDMOD ADDMOD SWAP4 POP DUP5 DUP5 DUP6 MULMOD SWAP3 POP DUP5 DUP5 DUP7 DUP6 DUP9 DUP8 DUP9 MULMOD MULMOD MULMOD SWAP4 POP POP PUSH1 0x1 DUP2 ADD SWAP1 POP PUSH2 0x7AE JUMP JUMPDEST POP DUP3 DUP6 DUP4 ADDMOD SWAP2 POP DUP3 DUP6 DUP5 DUP9 DUP6 ADDMOD ADDMOD SWAP4 POP POP POP POP SWAP3 SWAP2 POP POP JUMP JUMPDEST PUSH1 0x40 MLOAD DUP1 PUSH1 0x40 ADD PUSH1 0x40 MSTORE DUP1 PUSH1 0x0 DUP2 MSTORE PUSH1 0x20 ADD PUSH1 0x0 DUP2 MSTORE POP SWAP1 JUMP JUMPDEST PUSH1 0x40 MLOAD DUP1 PUSH1 0x40 ADD PUSH1 0x40 MSTORE DUP1 PUSH1 0x2 SWAP1 PUSH1 0x20 DUP3 MUL DUP1 CALLDATASIZE DUP4 CALLDATACOPY DUP1 DUP3 ADD SWAP2 POP POP SWAP1 POP POP SWAP1 JUMP JUMPDEST PUSH1 0x40 MLOAD DUP1 PUSH1 0x60 ADD PUSH1 0x40 MSTORE DUP1 PUSH1 0x3 SWAP1 PUSH1 0x20 DUP3 MUL DUP1 CALLDATASIZE DUP4 CALLDATACOPY DUP1 DUP3 ADD SWAP2 POP POP SWAP1 POP POP SWAP1 JUMP JUMPDEST PUSH1 0x40 MLOAD DUP1 PUSH1 0x80 ADD PUSH1 0x40 MSTORE DUP1 PUSH1 0x4 SWAP1 PUSH1 0x20 DUP3 MUL DUP1 CALLDATASIZE DUP4 CALLDATACOPY DUP1 DUP3 ADD SWAP2 POP POP SWAP1 POP POP SWAP1 JUMP JUMPDEST PUSH1 0x0 PUSH2 0x893 PUSH2 0x88E DUP5 PUSH2 0xD2B JUMP JUMPDEST PUSH2 0xD06 JUMP JUMPDEST SWAP1 POP DUP1 DUP3 DUP6 PUSH1 0x20 DUP7 MUL DUP3 ADD GT ISZERO PUSH2 0x8AD JUMPI PUSH2 0x8AC PUSH2 0xF27 JUMP JUMPDEST JUMPDEST PUSH1 0x0 JUMPDEST DUP6 DUP2 LT ISZERO PUSH2 0x8DD JUMPI DUP2 PUSH2 0x8C3 DUP9 DUP3 PUSH2 0x9F4 JUMP JUMPDEST DUP5 MSTORE PUSH1 0x20 DUP5 ADD SWAP4 POP PUSH1 0x20 DUP4 ADD SWAP3 POP POP PUSH1 0x1 DUP2 ADD SWAP1 POP PUSH2 0x8B0 JUMP JUMPDEST POP POP POP SWAP4 SWAP3 POP POP POP JUMP JUMPDEST PUSH1 0x0 PUSH2 0x8FA PUSH2 0x8F5 DUP5 PUSH2 0xD51 JUMP JUMPDEST PUSH2 0xD06 JUMP JUMPDEST SWAP1 POP DUP1 DUP3 DUP6 PUSH1 0x20 DUP7 MUL DUP3 ADD GT ISZERO PUSH2 0x914 JUMPI PUSH2 0x913 PUSH2 0xF27 JUMP JUMPDEST JUMPDEST PUSH1 0x0 JUMPDEST DUP6 DUP2 LT ISZERO PUSH2 0x944 JUMPI DUP2 PUSH2 0x92A DUP9 DUP3 PUSH2 0x9F4 JUMP JUMPDEST DUP5 MSTORE PUSH1 0x20 DUP5 ADD SWAP4 POP PUSH1 0x20 DUP4 ADD SWAP3 POP POP PUSH1 0x1 DUP2 ADD SWAP1 POP PUSH2 0x917 JUMP JUMPDEST POP POP POP SWAP4 SWAP3 POP POP POP JUMP JUMPDEST PUSH1 0x0 DUP3 PUSH1 0x1F DUP4 ADD SLT PUSH2 0x963 JUMPI PUSH2 0x962 PUSH2 0xF1D JUMP JUMPDEST JUMPDEST PUSH1 0x2 PUSH2 0x970 DUP5 DUP3 DUP6 PUSH2 0x880 JUMP JUMPDEST SWAP2 POP POP SWAP3 SWAP2 POP POP JUMP JUMPDEST PUSH1 0x0 DUP3 PUSH1 0x1F DUP4 ADD SLT PUSH2 0x98E JUMPI PUSH2 0x98D PUSH2 0xF1D JUMP JUMPDEST JUMPDEST PUSH1 0x3 PUSH2 0x99B DUP5 DUP3 DUP6 PUSH2 0x8E7 JUMP JUMPDEST SWAP2 POP POP SWAP3 SWAP2 POP POP JUMP JUMPDEST PUSH1 0x0 PUSH1 0x40 DUP3 DUP5 SUB SLT ISZERO PUSH2 0x9BA JUMPI PUSH2 0x9B9 PUSH2 0xF22 JUMP JUMPDEST JUMPDEST PUSH2 0x9C4 PUSH1 0x40 PUSH2 0xD06 JUMP JUMPDEST SWAP1 POP PUSH1 0x0 PUSH2 0x9D4 DUP5 DUP3 DUP6 ADD PUSH2 0xA09 JUMP JUMPDEST PUSH1 0x0 DUP4 ADD MSTORE POP PUSH1 0x20 PUSH2 0x9E8 DUP5 DUP3 DUP6 ADD PUSH2 0xA09 JUMP JUMPDEST PUSH1 0x20 DUP4 ADD MSTORE POP SWAP3 SWAP2 POP POP JUMP JUMPDEST PUSH1 0x0 DUP2 CALLDATALOAD SWAP1 POP PUSH2 0xA03 DUP2 PUSH2 0x102F JUMP JUMPDEST SWAP3 SWAP2 POP POP JUMP JUMPDEST PUSH1 0x0 DUP2 MLOAD SWAP1 POP PUSH2 0xA18 DUP2 PUSH2 0x102F JUMP JUMPDEST SWAP3 SWAP2 POP POP JUMP JUMPDEST PUSH1 0x0 PUSH1 0x40 DUP3 DUP5 SUB SLT ISZERO PUSH2 0xA34 JUMPI PUSH2 0xA33 PUSH2 0xF2C JUMP JUMPDEST JUMPDEST PUSH1 0x0 PUSH2 0xA42 DUP5 DUP3 DUP6 ADD PUSH2 0x9A4 JUMP JUMPDEST SWAP2 POP POP SWAP3 SWAP2 POP POP JUMP JUMPDEST PUSH1 0x0 PUSH1 0x20 DUP3 DUP5 SUB SLT ISZERO PUSH2 0xA61 JUMPI PUSH2 0xA60 PUSH2 0xF2C JUMP JUMPDEST JUMPDEST PUSH1 0x0 PUSH2 0xA6F DUP5 DUP3 DUP6 ADD PUSH2 0x9F4 JUMP JUMPDEST SWAP2 POP POP SWAP3 SWAP2 POP POP JUMP JUMPDEST PUSH1 0x0 DUP1 PUSH1 0x60 DUP4 DUP6 SUB SLT ISZERO PUSH2 0xA8F JUMPI PUSH2 0xA8E PUSH2 0xF2C JUMP JUMPDEST JUMPDEST PUSH1 0x0 PUSH2 0xA9D DUP6 DUP3 DUP7 ADD PUSH2 0x9F4 JUMP JUMPDEST SWAP3 POP POP PUSH1 0x20 PUSH2 0xAAE DUP6 DUP3 DUP7 ADD PUSH2 0x94E JUMP JUMPDEST SWAP2 POP POP SWAP3 POP SWAP3 SWAP1 POP JUMP JUMPDEST PUSH1 0x0 DUP1 PUSH1 0x80 DUP4 DUP6 SUB SLT ISZERO PUSH2 0xACF JUMPI PUSH2 0xACE PUSH2 0xF2C JUMP JUMPDEST JUMPDEST PUSH1 0x0 PUSH2 0xADD DUP6 DUP3 DUP7 ADD PUSH2 0x9F4 JUMP JUMPDEST SWAP3 POP POP PUSH1 0x20 PUSH2 0xAEE DUP6 DUP3 DUP7 ADD PUSH2 0x979 JUMP JUMPDEST SWAP2 POP POP SWAP3 POP SWAP3 SWAP1 POP JUMP JUMPDEST PUSH1 0x0 PUSH2 0xB04 DUP4 DUP4 PUSH2 0xC0E JUMP JUMPDEST PUSH1 0x20 DUP4 ADD SWAP1 POP SWAP3 SWAP2 POP POP JUMP JUMPDEST PUSH2 0xB19 DUP2 PUSH2 0xD81 JUMP JUMPDEST PUSH2 0xB23 DUP2 DUP5 PUSH2 0xD99 JUMP JUMPDEST SWAP3 POP PUSH2 0xB2E DUP3 PUSH2 0xD77 JUMP JUMPDEST DUP1 PUSH1 0x0 JUMPDEST DUP4 DUP2 LT ISZERO PUSH2 0xB5F JUMPI DUP2 MLOAD PUSH2 0xB46 DUP8 DUP3 PUSH2 0xAF8 JUMP JUMPDEST SWAP7 POP PUSH2 0xB51 DUP4 PUSH2 0xD8C JUMP JUMPDEST SWAP3 POP POP PUSH1 0x1 DUP2 ADD SWAP1 POP PUSH2 0xB32 JUMP JUMPDEST POP POP POP POP POP POP JUMP JUMPDEST PUSH2 0xB70 DUP2 PUSH2 0xDE9 JUMP JUMPDEST DUP3 MSTORE POP POP JUMP JUMPDEST PUSH1 0x0 PUSH2 0xB83 PUSH1 0x47 DUP4 PUSH2 0xDA4 JUMP JUMPDEST SWAP2 POP PUSH2 0xB8E DUP3 PUSH2 0xF42 JUMP JUMPDEST PUSH1 0x60 DUP3 ADD SWAP1 POP SWAP2 SWAP1 POP JUMP JUMPDEST PUSH1 0x0 PUSH2 0xBA6 PUSH1 0xB DUP4 PUSH2 0xDA4 JUMP JUMPDEST SWAP2 POP PUSH2 0xBB1 DUP3 PUSH2 0xFB7 JUMP JUMPDEST PUSH1 0x20 DUP3 ADD SWAP1 POP SWAP2 SWAP1 POP JUMP JUMPDEST PUSH1 0x0 PUSH2 0xBC9 PUSH1 0x3D DUP4 PUSH2 0xDA4 JUMP JUMPDEST SWAP2 POP PUSH2 0xBD4 DUP3 PUSH2 0xFE0 JUMP JUMPDEST PUSH1 0x40 DUP3 ADD SWAP1 POP SWAP2 SWAP1 POP JUMP JUMPDEST PUSH1 0x40 DUP3 ADD PUSH1 0x0 DUP3 ADD MLOAD PUSH2 0xBF5 PUSH1 0x0 DUP6 ADD DUP3 PUSH2 0xC0E JUMP JUMPDEST POP PUSH1 0x20 DUP3 ADD MLOAD PUSH2 0xC08 PUSH1 0x20 DUP6 ADD DUP3 PUSH2 0xC0E JUMP JUMPDEST POP POP POP POP JUMP JUMPDEST PUSH2 0xC17 DUP2 PUSH2 0xDF5 JUMP JUMPDEST DUP3 MSTORE POP POP JUMP JUMPDEST PUSH2 0xC26 DUP2 PUSH2 0xDF5 JUMP JUMPDEST DUP3 MSTORE POP POP JUMP JUMPDEST PUSH1 0x0 PUSH1 0x40 DUP3 ADD SWAP1 POP PUSH2 0xC41 PUSH1 0x0 DUP4 ADD DUP5 PUSH2 0xB10 JUMP JUMPDEST SWAP3 SWAP2 POP POP JUMP JUMPDEST PUSH1 0x0 PUSH1 0x20 DUP3 ADD SWAP1 POP PUSH2 0xC5C PUSH1 0x0 DUP4 ADD DUP5 PUSH2 0xB67 JUMP JUMPDEST SWAP3 SWAP2 POP POP JUMP JUMPDEST PUSH1 0x0 PUSH1 0x20 DUP3 ADD SWAP1 POP DUP2 DUP2 SUB PUSH1 0x0 DUP4 ADD MSTORE PUSH2 0xC7B DUP2 PUSH2 0xB76 JUMP JUMPDEST SWAP1 POP SWAP2 SWAP1 POP JUMP JUMPDEST PUSH1 0x0 PUSH1 0x20 DUP3 ADD SWAP1 POP DUP2 DUP2 SUB PUSH1 0x0 DUP4 ADD MSTORE PUSH2 0xC9B DUP2 PUSH2 0xB99 JUMP JUMPDEST SWAP1 POP SWAP2 SWAP1 POP JUMP JUMPDEST PUSH1 0x0 PUSH1 0x20 DUP3 ADD SWAP1 POP DUP2 DUP2 SUB PUSH1 0x0 DUP4 ADD MSTORE PUSH2 0xCBB DUP2 PUSH2 0xBBC JUMP JUMPDEST SWAP1 POP SWAP2 SWAP1 POP JUMP JUMPDEST PUSH1 0x0 PUSH1 0x40 DUP3 ADD SWAP1 POP PUSH2 0xCD7 PUSH1 0x0 DUP4 ADD DUP5 PUSH2 0xBDF JUMP JUMPDEST SWAP3 SWAP2 POP POP JUMP JUMPDEST PUSH1 0x0 PUSH1 0x40 DUP3 ADD SWAP1 POP PUSH2 0xCF2 PUSH1 0x0 DUP4 ADD DUP6 PUSH2 0xC1D JUMP JUMPDEST PUSH2 0xCFF PUSH1 0x20 DUP4 ADD DUP5 PUSH2 0xC1D JUMP JUMPDEST SWAP4 SWAP3 POP POP POP JUMP JUMPDEST PUSH1 0x0 PUSH2 0xD10 PUSH2 0xD21 JUMP JUMPDEST SWAP1 POP PUSH2 0xD1C DUP3 DUP3 PUSH2 0xDFF JUMP JUMPDEST SWAP2 SWAP1 POP JUMP JUMPDEST PUSH1 0x0 PUSH1 0x40 MLOAD SWAP1 POP SWAP1 JUMP JUMPDEST PUSH1 0x0 PUSH8 0xFFFFFFFFFFFFFFFF DUP3 GT ISZERO PUSH2 0xD46 JUMPI PUSH2 0xD45 PUSH2 0xEEE JUMP JUMPDEST JUMPDEST PUSH1 0x20 DUP3 MUL SWAP1 POP SWAP2 SWAP1 POP JUMP JUMPDEST PUSH1 0x0 PUSH8 0xFFFFFFFFFFFFFFFF DUP3 GT ISZERO PUSH2 0xD6C JUMPI PUSH2 0xD6B PUSH2 0xEEE JUMP JUMPDEST JUMPDEST PUSH1 0x20 DUP3 MUL SWAP1 POP SWAP2 SWAP1 POP JUMP JUMPDEST PUSH1 0x0 DUP2 SWAP1 POP SWAP2 SWAP1 POP JUMP JUMPDEST PUSH1 0x0 PUSH1 0x2 SWAP1 POP SWAP2 SWAP1 POP JUMP JUMPDEST PUSH1 0x0 PUSH1 0x20 DUP3 ADD SWAP1 POP SWAP2 SWAP1 POP JUMP JUMPDEST PUSH1 0x0 DUP2 SWAP1 POP SWAP3 SWAP2 POP POP JUMP JUMPDEST PUSH1 0x0 DUP3 DUP3 MSTORE PUSH1 0x20 DUP3 ADD SWAP1 POP SWAP3 SWAP2 POP POP JUMP JUMPDEST PUSH1 0x0 PUSH2 0xDC0 DUP3 PUSH2 0xDF5 JUMP JUMPDEST SWAP2 POP PUSH2 0xDCB DUP4 PUSH2 0xDF5 JUMP JUMPDEST SWAP3 POP DUP3 DUP3 LT ISZERO PUSH2 0xDDE JUMPI PUSH2 0xDDD PUSH2 0xE61 JUMP JUMPDEST JUMPDEST DUP3 DUP3 SUB SWAP1 POP SWAP3 SWAP2 POP POP JUMP JUMPDEST PUSH1 0x0 DUP2 ISZERO ISZERO SWAP1 POP SWAP2 SWAP1 POP JUMP JUMPDEST PUSH1 0x0 DUP2 SWAP1 POP SWAP2 SWAP1 POP JUMP JUMPDEST PUSH2 0xE08 DUP3 PUSH2 0xF31 JUMP JUMPDEST DUP2 ADD DUP2 DUP2 LT PUSH8 0xFFFFFFFFFFFFFFFF DUP3 GT OR ISZERO PUSH2 0xE27 JUMPI PUSH2 0xE26 PUSH2 0xEEE JUMP JUMPDEST JUMPDEST DUP1 PUSH1 0x40 MSTORE POP POP POP JUMP JUMPDEST PUSH1 0x0 PUSH2 0xE3B DUP3 PUSH2 0xDF5 JUMP JUMPDEST SWAP2 POP PUSH2 0xE46 DUP4 PUSH2 0xDF5 JUMP JUMPDEST SWAP3 POP DUP3 PUSH2 0xE56 JUMPI PUSH2 0xE55 PUSH2 0xE90 JUMP JUMPDEST JUMPDEST DUP3 DUP3 MOD SWAP1 POP SWAP3 SWAP2 POP POP JUMP JUMPDEST PUSH32 0x4E487B7100000000000000000000000000000000000000000000000000000000 PUSH1 0x0 MSTORE PUSH1 0x11 PUSH1 0x4 MSTORE PUSH1 0x24 PUSH1 0x0 REVERT JUMPDEST PUSH32 0x4E487B7100000000000000000000000000000000000000000000000000000000 PUSH1 0x0 MSTORE PUSH1 0x12 PUSH1 0x4 MSTORE PUSH1 0x24 PUSH1 0x0 REVERT JUMPDEST PUSH32 0x4E487B7100000000000000000000000000000000000000000000000000000000 PUSH1 0x0 MSTORE PUSH1 0x32 PUSH1 0x4 MSTORE PUSH1 0x24 PUSH1 0x0 REVERT JUMPDEST PUSH32 0x4E487B7100000000000000000000000000000000000000000000000000000000 PUSH1 0x0 MSTORE PUSH1 0x41 PUSH1 0x4 MSTORE PUSH1 0x24 PUSH1 0x0 REVERT JUMPDEST PUSH1 0x0 DUP1 REVERT JUMPDEST PUSH1 0x0 DUP1 REVERT JUMPDEST PUSH1 0x0 DUP1 REVERT JUMPDEST PUSH1 0x0 DUP1 REVERT JUMPDEST PUSH1 0x0 PUSH1 0x1F NOT PUSH1 0x1F DUP4 ADD AND SWAP1 POP SWAP2 SWAP1 POP JUMP JUMPDEST PUSH32 0x43616C6C20746F2074686520626E32353641646420707265636F6D70696C6564 PUSH1 0x0 DUP3 ADD MSTORE PUSH32 0x206661696C6564202870726F6261626C7920616E206F7574206F662067617320 PUSH1 0x20 DUP3 ADD MSTORE PUSH32 0x6572726F723F2900000000000000000000000000000000000000000000000000 PUSH1 0x40 DUP3 ADD MSTORE POP JUMP JUMPDEST PUSH32 0x766572696679206661696C000000000000000000000000000000000000000000 PUSH1 0x0 DUP3 ADD MSTORE POP JUMP JUMPDEST PUSH32 0x43616C6C20746F20626E3235365363616C61724D756C206661696C6564202870 PUSH1 0x0 DUP3 ADD MSTORE PUSH32 0x726F6261626C7920616E206F7574206F6620676173206572726F723F29000000 PUSH1 0x20 DUP3 ADD MSTORE POP JUMP JUMPDEST PUSH2 0x1038 DUP2 PUSH2 0xDF5 JUMP JUMPDEST DUP2 EQ PUSH2 0x1043 JUMPI PUSH1 0x0 DUP1 REVERT JUMPDEST POP JUMP INVALID LOG2 PUSH5 0x6970667358 0x22 SLT KECCAK256 0xAE 0xC1 0x4E 0xDA GT EQ 0xD7 PUSH4 0x18B2E76B DUP16 0xD0 0x28 LOG2 REVERT INVALID 0x29 0x4C PUSH16 0x28512A88B91E5CFE80C0B064736F6C63 NUMBER STOP ADDMOD SMOD STOP CALLER "
		},
		"gasEstimates": {
			"creation": {
				"codeDepositCost": "844000",
				"executionCost": "infinite",
				"totalCost": "infinite"
			},
			"external": {
				"calc_y(uint256)": "infinite",
				"clac_c(uint256,uint256[2])": "infinite",
				"g()": "infinite",
				"get_sum_of_commitments()": "infinite",
				"h()": "infinite",
				"verify(uint256,uint256[3])": "infinite"
			}
		},
		"methodIdentifiers": {
			"calc_y(uint256)": "4efe3da2",
			"clac_c(uint256,uint256[2])": "67307e00",
			"g()": "e2179b8e",
			"get_sum_of_commitments()": "0651a124",
			"h()": "b8c9d365",
			"verify(uint256,uint256[3])": "aad4f5ec"
		}
	},
	"abi": [
		{
			"inputs": [
				{
					"internalType": "uint256[2]",
					"name": "_g",
					"type": "uint256[2]"
				},
				{
					"internalType": "uint256[2]",
					"name": "_h",
					"type": "uint256[2]"
				},
				{
					"internalType": "address",
					"name": "_proofOfReserversAddr",
					"type": "address"
				}
			],
			"stateMutability": "nonpayable",
			"type": "constructor"
		},
		{
			"inputs": [
				{
					"internalType": "uint256",
					"name": "value",
					"type": "uint256"
				}
			],
			"name": "calc_y",
			"outputs": [
				{
					"components": [
						{
							"internalType": "uint256",
							"name": "X",
							"type": "uint256"
						},
						{
							"internalType": "uint256",
							"name": "Y",
							"type": "uint256"
						}
					],
					"internalType": "struct Pairing.G1Point",
					"name": "",
					"type": "tuple"
				}
			],
			"stateMutability": "payable",
			"type": "function"
		},
		{
			"inputs": [
				{
					"internalType": "uint256",
					"name": "value",
					"type": "uint256"
				},
				{
					"internalType": "uint256[2]",
					"name": "t",
					"type": "uint256[2]"
				}
			],
			"name": "clac_c",
			"outputs": [
				{
					"internalType": "uint256[2]",
					"name": "",
					"type": "uint256[2]"
				}
			],
			"stateMutability": "payable",
			"type": "function"
		},
		{
			"inputs": [],
			"name": "g",
			"outputs": [
				{
					"internalType": "uint256",
					"name": "X",
					"type": "uint256"
				},
				{
					"internalType": "uint256",
					"name": "Y",
					"type": "uint256"
				}
			],
			"stateMutability": "view",
			"type": "function"
		},
		{
			"inputs": [],
			"name": "get_sum_of_commitments",
			"outputs": [
				{
					"components": [
						{
							"internalType": "uint256",
							"name": "X",
							"type": "uint256"
						},
						{
							"internalType": "uint256",
							"name": "Y",
							"type": "uint256"
						}
					],
					"internalType": "struct Pairing.G1Point",
					"name": "",
					"type": "tuple"
				}
			],
			"stateMutability": "payable",
			"type": "function"
		},
		{
			"inputs": [],
			"name": "h",
			"outputs": [
				{
					"internalType": "uint256",
					"name": "X",
					"type": "uint256"
				},
				{
					"internalType": "uint256",
					"name": "Y",
					"type": "uint256"
				}
			],
			"stateMutability": "view",
			"type": "function"
		},
		{
			"inputs": [
				{
					"internalType": "uint256",
					"name": "value",
					"type": "uint256"
				},
				{
					"internalType": "uint256[3]",
					"name": "_proof",
					"type": "uint256[3]"
				}
			],
			"name": "verify",
			"outputs": [
				{
					"internalType": "bool",
					"name": "",
					"type": "bool"
				}
			],
			"stateMutability": "payable",
			"type": "function"
		}
	]
}