{
	"data": {
		"bytecode": {
			"linkReferences": {},
			"object": "60806040523480156200001157600080fd5b5060405162000930380380620009308339818101604052810190620000379190620001e4565b826000600281106200004e576200004d62000306565b5b602002015160008001819055508260016002811062000072576200007162000306565b5b60200201516000600101819055508160006002811062000097576200009662000306565b5b602002015160026000018190555081600160028110620000bc57620000bb62000306565b5b602002015160026001018190555080600460006101000a81548173ffffffffffffffffffffffffffffffffffffffff021916908373ffffffffffffffffffffffffffffffffffffffff160217905550505050620003b8565b60006200012b620001258462000269565b62000240565b9050808285602086028201111562000148576200014762000369565b5b60005b858110156200017c5781620001618882620001cd565b8452602084019350602083019250506001810190506200014b565b5050509392505050565b600081519050620001978162000384565b92915050565b600082601f830112620001b557620001b462000364565b5b6002620001c484828562000114565b91505092915050565b600081519050620001de816200039e565b92915050565b600080600060a084860312156200020057620001ff6200036e565b5b600062000210868287016200019d565b935050604062000223868287016200019d565b9250506080620002368682870162000186565b9150509250925092565b60006200024c6200025f565b90506200025a8282620002d0565b919050565b6000604051905090565b600067ffffffffffffffff82111562000287576200028662000335565b5b602082029050919050565b60006200029f82620002a6565b9050919050565b600073ffffffffffffffffffffffffffffffffffffffff82169050919050565b6000819050919050565b620002db8262000373565b810181811067ffffffffffffffff82111715620002fd57620002fc62000335565b5b80604052505050565b7f4e487b7100000000000000000000000000000000000000000000000000000000600052603260045260246000fd5b7f4e487b7100000000000000000000000000000000000000000000000000000000600052604160045260246000fd5b600080fd5b600080fd5b600080fd5b6000601f19601f8301169050919050565b6200038f8162000292565b81146200039b57600080fd5b50565b620003a981620002c6565b8114620003b557600080fd5b50565b61056880620003c86000396000f3fe60806040526004361061003f5760003560e01c80630651a12414610044578063081680961461006f578063b8c9d3651461009f578063e2179b8e146100cb575b600080fd5b34801561005057600080fd5b506100596100f7565b60405161006691906103f1565b60405180910390f35b610089600480360381019061008491906102fa565b6101a3565b60405161009691906103d6565b60405180910390f35b3480156100ab57600080fd5b506100b46101b0565b6040516100c292919061040c565b60405180910390f35b3480156100d757600080fd5b506100e06101c2565b6040516100ee92919061040c565b60405180910390f35b6100ff6101d4565b600460009054906101000a900473ffffffffffffffffffffffffffffffffffffffff1673ffffffffffffffffffffffffffffffffffffffff16630651a1246040518163ffffffff1660e01b8152600401604080518083038186803b15801561016657600080fd5b505afa15801561017a573d6000803e3d6000fd5b505050506040513d601f19601f8201168201806040525081019061019e919061034d565b905090565b6000600190509392505050565b60028060000154908060010154905082565b60008060000154908060010154905082565b604051806040016040528060008152602001600081525090565b60006102016101fc8461045a565b610435565b9050808285602086028201111561021b5761021a610500565b5b60005b8581101561024b578161023188826102d0565b84526020840193506020830192505060018101905061021e565b5050509392505050565b600082601f83011261026a576102696104f6565b5b60026102778482856101ee565b91505092915050565b600060408284031215610296576102956104fb565b5b6102a06040610435565b905060006102b0848285016102e5565b60008301525060206102c4848285016102e5565b60208301525092915050565b6000813590506102df8161051b565b92915050565b6000815190506102f48161051b565b92915050565b600080600060a0848603121561031357610312610505565b5b600061032186828701610255565b9350506040610332868287016102d0565b925050606061034386828701610255565b9150509250925092565b60006040828403121561036357610362610505565b5b600061037184828501610280565b91505092915050565b61038381610480565b82525050565b60408201600082015161039f60008501826103b8565b5060208201516103b260208501826103b8565b50505050565b6103c18161048c565b82525050565b6103d08161048c565b82525050565b60006020820190506103eb600083018461037a565b92915050565b60006040820190506104066000830184610389565b92915050565b600060408201905061042160008301856103c7565b61042e60208301846103c7565b9392505050565b600061043f610450565b905061044b8282610496565b919050565b6000604051905090565b600067ffffffffffffffff821115610475576104746104c7565b5b602082029050919050565b60008115159050919050565b6000819050919050565b61049f8261050a565b810181811067ffffffffffffffff821117156104be576104bd6104c7565b5b80604052505050565b7f4e487b7100000000000000000000000000000000000000000000000000000000600052604160045260246000fd5b600080fd5b600080fd5b600080fd5b600080fd5b6000601f19601f8301169050919050565b6105248161048c565b811461052f57600080fd5b5056fea26469706673582212200927237003b6d3b4d6f07e53c0b4f823e0994de77b0840eeb6ce9201c348e8cc64736f6c63430008070033",
			"opcodes": "PUSH1 0x80 PUSH1 0x40 MSTORE CALLVALUE DUP1 ISZERO PUSH3 0x11 JUMPI PUSH1 0x0 DUP1 REVERT JUMPDEST POP PUSH1 0x40 MLOAD PUSH3 0x930 CODESIZE SUB DUP1 PUSH3 0x930 DUP4 CODECOPY DUP2 DUP2 ADD PUSH1 0x40 MSTORE DUP2 ADD SWAP1 PUSH3 0x37 SWAP2 SWAP1 PUSH3 0x1E4 JUMP JUMPDEST DUP3 PUSH1 0x0 PUSH1 0x2 DUP2 LT PUSH3 0x4E JUMPI PUSH3 0x4D PUSH3 0x306 JUMP JUMPDEST JUMPDEST PUSH1 0x20 MUL ADD MLOAD PUSH1 0x0 DUP1 ADD DUP2 SWAP1 SSTORE POP DUP3 PUSH1 0x1 PUSH1 0x2 DUP2 LT PUSH3 0x72 JUMPI PUSH3 0x71 PUSH3 0x306 JUMP JUMPDEST JUMPDEST PUSH1 0x20 MUL ADD MLOAD PUSH1 0x0 PUSH1 0x1 ADD DUP2 SWAP1 SSTORE POP DUP2 PUSH1 0x0 PUSH1 0x2 DUP2 LT PUSH3 0x97 JUMPI PUSH3 0x96 PUSH3 0x306 JUMP JUMPDEST JUMPDEST PUSH1 0x20 MUL ADD MLOAD PUSH1 0x2 PUSH1 0x0 ADD DUP2 SWAP1 SSTORE POP DUP2 PUSH1 0x1 PUSH1 0x2 DUP2 LT PUSH3 0xBC JUMPI PUSH3 0xBB PUSH3 0x306 JUMP JUMPDEST JUMPDEST PUSH1 0x20 MUL ADD MLOAD PUSH1 0x2 PUSH1 0x1 ADD DUP2 SWAP1 SSTORE POP DUP1 PUSH1 0x4 PUSH1 0x0 PUSH2 0x100 EXP DUP2 SLOAD DUP2 PUSH20 0xFFFFFFFFFFFFFFFFFFFFFFFFFFFFFFFFFFFFFFFF MUL NOT AND SWAP1 DUP4 PUSH20 0xFFFFFFFFFFFFFFFFFFFFFFFFFFFFFFFFFFFFFFFF AND MUL OR SWAP1 SSTORE POP POP POP POP PUSH3 0x3B8 JUMP JUMPDEST PUSH1 0x0 PUSH3 0x12B PUSH3 0x125 DUP5 PUSH3 0x269 JUMP JUMPDEST PUSH3 0x240 JUMP JUMPDEST SWAP1 POP DUP1 DUP3 DUP6 PUSH1 0x20 DUP7 MUL DUP3 ADD GT ISZERO PUSH3 0x148 JUMPI PUSH3 0x147 PUSH3 0x369 JUMP JUMPDEST JUMPDEST PUSH1 0x0 JUMPDEST DUP6 DUP2 LT ISZERO PUSH3 0x17C JUMPI DUP2 PUSH3 0x161 DUP9 DUP3 PUSH3 0x1CD JUMP JUMPDEST DUP5 MSTORE PUSH1 0x20 DUP5 ADD SWAP4 POP PUSH1 0x20 DUP4 ADD SWAP3 POP POP PUSH1 0x1 DUP2 ADD SWAP1 POP PUSH3 0x14B JUMP JUMPDEST POP POP POP SWAP4 SWAP3 POP POP POP JUMP JUMPDEST PUSH1 0x0 DUP2 MLOAD SWAP1 POP PUSH3 0x197 DUP2 PUSH3 0x384 JUMP JUMPDEST SWAP3 SWAP2 POP POP JUMP JUMPDEST PUSH1 0x0 DUP3 PUSH1 0x1F DUP4 ADD SLT PUSH3 0x1B5 JUMPI PUSH3 0x1B4 PUSH3 0x364 JUMP JUMPDEST JUMPDEST PUSH1 0x2 PUSH3 0x1C4 DUP5 DUP3 DUP6 PUSH3 0x114 JUMP JUMPDEST SWAP2 POP POP SWAP3 SWAP2 POP POP JUMP JUMPDEST PUSH1 0x0 DUP2 MLOAD SWAP1 POP PUSH3 0x1DE DUP2 PUSH3 0x39E JUMP JUMPDEST SWAP3 SWAP2 POP POP JUMP JUMPDEST PUSH1 0x0 DUP1 PUSH1 0x0 PUSH1 0xA0 DUP5 DUP7 SUB SLT ISZERO PUSH3 0x200 JUMPI PUSH3 0x1FF PUSH3 0x36E JUMP JUMPDEST JUMPDEST PUSH1 0x0 PUSH3 0x210 DUP7 DUP3 DUP8 ADD PUSH3 0x19D JUMP JUMPDEST SWAP4 POP POP PUSH1 0x40 PUSH3 0x223 DUP7 DUP3 DUP8 ADD PUSH3 0x19D JUMP JUMPDEST SWAP3 POP POP PUSH1 0x80 PUSH3 0x236 DUP7 DUP3 DUP8 ADD PUSH3 0x186 JUMP JUMPDEST SWAP2 POP POP SWAP3 POP SWAP3 POP SWAP3 JUMP JUMPDEST PUSH1 0x0 PUSH3 0x24C PUSH3 0x25F JUMP JUMPDEST SWAP1 POP PUSH3 0x25A DUP3 DUP3 PUSH3 0x2D0 JUMP JUMPDEST SWAP2 SWAP1 POP JUMP JUMPDEST PUSH1 0x0 PUSH1 0x40 MLOAD SWAP1 POP SWAP1 JUMP JUMPDEST PUSH1 0x0 PUSH8 0xFFFFFFFFFFFFFFFF DUP3 GT ISZERO PUSH3 0x287 JUMPI PUSH3 0x286 PUSH3 0x335 JUMP JUMPDEST JUMPDEST PUSH1 0x20 DUP3 MUL SWAP1 POP SWAP2 SWAP1 POP JUMP JUMPDEST PUSH1 0x0 PUSH3 0x29F DUP3 PUSH3 0x2A6 JUMP JUMPDEST SWAP1 POP SWAP2 SWAP1 POP JUMP JUMPDEST PUSH1 0x0 PUSH20 0xFFFFFFFFFFFFFFFFFFFFFFFFFFFFFFFFFFFFFFFF DUP3 AND SWAP1 POP SWAP2 SWAP1 POP JUMP JUMPDEST PUSH1 0x0 DUP2 SWAP1 POP SWAP2 SWAP1 POP JUMP JUMPDEST PUSH3 0x2DB DUP3 PUSH3 0x373 JUMP JUMPDEST DUP2 ADD DUP2 DUP2 LT PUSH8 0xFFFFFFFFFFFFFFFF DUP3 GT OR ISZERO PUSH3 0x2FD JUMPI PUSH3 0x2FC PUSH3 0x335 JUMP JUMPDEST JUMPDEST DUP1 PUSH1 0x40 MSTORE POP POP POP JUMP JUMPDEST PUSH32 0x4E487B7100000000000000000000000000000000000000000000000000000000 PUSH1 0x0 MSTORE PUSH1 0x32 PUSH1 0x4 MSTORE PUSH1 0x24 PUSH1 0x0 REVERT JUMPDEST PUSH32 0x4E487B7100000000000000000000000000000000000000000000000000000000 PUSH1 0x0 MSTORE PUSH1 0x41 PUSH1 0x4 MSTORE PUSH1 0x24 PUSH1 0x0 REVERT JUMPDEST PUSH1 0x0 DUP1 REVERT JUMPDEST PUSH1 0x0 DUP1 REVERT JUMPDEST PUSH1 0x0 DUP1 REVERT JUMPDEST PUSH1 0x0 PUSH1 0x1F NOT PUSH1 0x1F DUP4 ADD AND SWAP1 POP SWAP2 SWAP1 POP JUMP JUMPDEST PUSH3 0x38F DUP2 PUSH3 0x292 JUMP JUMPDEST DUP2 EQ PUSH3 0x39B JUMPI PUSH1 0x0 DUP1 REVERT JUMPDEST POP JUMP JUMPDEST PUSH3 0x3A9 DUP2 PUSH3 0x2C6 JUMP JUMPDEST DUP2 EQ PUSH3 0x3B5 JUMPI PUSH1 0x0 DUP1 REVERT JUMPDEST POP JUMP JUMPDEST PUSH2 0x568 DUP1 PUSH3 0x3C8 PUSH1 0x0 CODECOPY PUSH1 0x0 RETURN INVALID PUSH1 0x80 PUSH1 0x40 MSTORE PUSH1 0x4 CALLDATASIZE LT PUSH2 0x3F JUMPI PUSH1 0x0 CALLDATALOAD PUSH1 0xE0 SHR DUP1 PUSH4 0x651A124 EQ PUSH2 0x44 JUMPI DUP1 PUSH4 0x8168096 EQ PUSH2 0x6F JUMPI DUP1 PUSH4 0xB8C9D365 EQ PUSH2 0x9F JUMPI DUP1 PUSH4 0xE2179B8E EQ PUSH2 0xCB JUMPI JUMPDEST PUSH1 0x0 DUP1 REVERT JUMPDEST CALLVALUE DUP1 ISZERO PUSH2 0x50 JUMPI PUSH1 0x0 DUP1 REVERT JUMPDEST POP PUSH2 0x59 PUSH2 0xF7 JUMP JUMPDEST PUSH1 0x40 MLOAD PUSH2 0x66 SWAP2 SWAP1 PUSH2 0x3F1 JUMP JUMPDEST PUSH1 0x40 MLOAD DUP1 SWAP2 SUB SWAP1 RETURN JUMPDEST PUSH2 0x89 PUSH1 0x4 DUP1 CALLDATASIZE SUB DUP2 ADD SWAP1 PUSH2 0x84 SWAP2 SWAP1 PUSH2 0x2FA JUMP JUMPDEST PUSH2 0x1A3 JUMP JUMPDEST PUSH1 0x40 MLOAD PUSH2 0x96 SWAP2 SWAP1 PUSH2 0x3D6 JUMP JUMPDEST PUSH1 0x40 MLOAD DUP1 SWAP2 SUB SWAP1 RETURN JUMPDEST CALLVALUE DUP1 ISZERO PUSH2 0xAB JUMPI PUSH1 0x0 DUP1 REVERT JUMPDEST POP PUSH2 0xB4 PUSH2 0x1B0 JUMP JUMPDEST PUSH1 0x40 MLOAD PUSH2 0xC2 SWAP3 SWAP2 SWAP1 PUSH2 0x40C JUMP JUMPDEST PUSH1 0x40 MLOAD DUP1 SWAP2 SUB SWAP1 RETURN JUMPDEST CALLVALUE DUP1 ISZERO PUSH2 0xD7 JUMPI PUSH1 0x0 DUP1 REVERT JUMPDEST POP PUSH2 0xE0 PUSH2 0x1C2 JUMP JUMPDEST PUSH1 0x40 MLOAD PUSH2 0xEE SWAP3 SWAP2 SWAP1 PUSH2 0x40C JUMP JUMPDEST PUSH1 0x40 MLOAD DUP1 SWAP2 SUB SWAP1 RETURN JUMPDEST PUSH2 0xFF PUSH2 0x1D4 JUMP JUMPDEST PUSH1 0x4 PUSH1 0x0 SWAP1 SLOAD SWAP1 PUSH2 0x100 EXP SWAP1 DIV PUSH20 0xFFFFFFFFFFFFFFFFFFFFFFFFFFFFFFFFFFFFFFFF AND PUSH20 0xFFFFFFFFFFFFFFFFFFFFFFFFFFFFFFFFFFFFFFFF AND PUSH4 0x651A124 PUSH1 0x40 MLOAD DUP2 PUSH4 0xFFFFFFFF AND PUSH1 0xE0 SHL DUP2 MSTORE PUSH1 0x4 ADD PUSH1 0x40 DUP1 MLOAD DUP1 DUP4 SUB DUP2 DUP7 DUP1 EXTCODESIZE ISZERO DUP1 ISZERO PUSH2 0x166 JUMPI PUSH1 0x0 DUP1 REVERT JUMPDEST POP GAS STATICCALL ISZERO DUP1 ISZERO PUSH2 0x17A JUMPI RETURNDATASIZE PUSH1 0x0 DUP1 RETURNDATACOPY RETURNDATASIZE PUSH1 0x0 REVERT JUMPDEST POP POP POP POP PUSH1 0x40 MLOAD RETURNDATASIZE PUSH1 0x1F NOT PUSH1 0x1F DUP3 ADD AND DUP3 ADD DUP1 PUSH1 0x40 MSTORE POP DUP2 ADD SWAP1 PUSH2 0x19E SWAP2 SWAP1 PUSH2 0x34D JUMP JUMPDEST SWAP1 POP SWAP1 JUMP JUMPDEST PUSH1 0x0 PUSH1 0x1 SWAP1 POP SWAP4 SWAP3 POP POP POP JUMP JUMPDEST PUSH1 0x2 DUP1 PUSH1 0x0 ADD SLOAD SWAP1 DUP1 PUSH1 0x1 ADD SLOAD SWAP1 POP DUP3 JUMP JUMPDEST PUSH1 0x0 DUP1 PUSH1 0x0 ADD SLOAD SWAP1 DUP1 PUSH1 0x1 ADD SLOAD SWAP1 POP DUP3 JUMP JUMPDEST PUSH1 0x40 MLOAD DUP1 PUSH1 0x40 ADD PUSH1 0x40 MSTORE DUP1 PUSH1 0x0 DUP2 MSTORE PUSH1 0x20 ADD PUSH1 0x0 DUP2 MSTORE POP SWAP1 JUMP JUMPDEST PUSH1 0x0 PUSH2 0x201 PUSH2 0x1FC DUP5 PUSH2 0x45A JUMP JUMPDEST PUSH2 0x435 JUMP JUMPDEST SWAP1 POP DUP1 DUP3 DUP6 PUSH1 0x20 DUP7 MUL DUP3 ADD GT ISZERO PUSH2 0x21B JUMPI PUSH2 0x21A PUSH2 0x500 JUMP JUMPDEST JUMPDEST PUSH1 0x0 JUMPDEST DUP6 DUP2 LT ISZERO PUSH2 0x24B JUMPI DUP2 PUSH2 0x231 DUP9 DUP3 PUSH2 0x2D0 JUMP JUMPDEST DUP5 MSTORE PUSH1 0x20 DUP5 ADD SWAP4 POP PUSH1 0x20 DUP4 ADD SWAP3 POP POP PUSH1 0x1 DUP2 ADD SWAP1 POP PUSH2 0x21E JUMP JUMPDEST POP POP POP SWAP4 SWAP3 POP POP POP JUMP JUMPDEST PUSH1 0x0 DUP3 PUSH1 0x1F DUP4 ADD SLT PUSH2 0x26A JUMPI PUSH2 0x269 PUSH2 0x4F6 JUMP JUMPDEST JUMPDEST PUSH1 0x2 PUSH2 0x277 DUP5 DUP3 DUP6 PUSH2 0x1EE JUMP JUMPDEST SWAP2 POP POP SWAP3 SWAP2 POP POP JUMP JUMPDEST PUSH1 0x0 PUSH1 0x40 DUP3 DUP5 SUB SLT ISZERO PUSH2 0x296 JUMPI PUSH2 0x295 PUSH2 0x4FB JUMP JUMPDEST JUMPDEST PUSH2 0x2A0 PUSH1 0x40 PUSH2 0x435 JUMP JUMPDEST SWAP1 POP PUSH1 0x0 PUSH2 0x2B0 DUP5 DUP3 DUP6 ADD PUSH2 0x2E5 JUMP JUMPDEST PUSH1 0x0 DUP4 ADD MSTORE POP PUSH1 0x20 PUSH2 0x2C4 DUP5 DUP3 DUP6 ADD PUSH2 0x2E5 JUMP JUMPDEST PUSH1 0x20 DUP4 ADD MSTORE POP SWAP3 SWAP2 POP POP JUMP JUMPDEST PUSH1 0x0 DUP2 CALLDATALOAD SWAP1 POP PUSH2 0x2DF DUP2 PUSH2 0x51B JUMP JUMPDEST SWAP3 SWAP2 POP POP JUMP JUMPDEST PUSH1 0x0 DUP2 MLOAD SWAP1 POP PUSH2 0x2F4 DUP2 PUSH2 0x51B JUMP JUMPDEST SWAP3 SWAP2 POP POP JUMP JUMPDEST PUSH1 0x0 DUP1 PUSH1 0x0 PUSH1 0xA0 DUP5 DUP7 SUB SLT ISZERO PUSH2 0x313 JUMPI PUSH2 0x312 PUSH2 0x505 JUMP JUMPDEST JUMPDEST PUSH1 0x0 PUSH2 0x321 DUP7 DUP3 DUP8 ADD PUSH2 0x255 JUMP JUMPDEST SWAP4 POP POP PUSH1 0x40 PUSH2 0x332 DUP7 DUP3 DUP8 ADD PUSH2 0x2D0 JUMP JUMPDEST SWAP3 POP POP PUSH1 0x60 PUSH2 0x343 DUP7 DUP3 DUP8 ADD PUSH2 0x255 JUMP JUMPDEST SWAP2 POP POP SWAP3 POP SWAP3 POP SWAP3 JUMP JUMPDEST PUSH1 0x0 PUSH1 0x40 DUP3 DUP5 SUB SLT ISZERO PUSH2 0x363 JUMPI PUSH2 0x362 PUSH2 0x505 JUMP JUMPDEST JUMPDEST PUSH1 0x0 PUSH2 0x371 DUP5 DUP3 DUP6 ADD PUSH2 0x280 JUMP JUMPDEST SWAP2 POP POP SWAP3 SWAP2 POP POP JUMP JUMPDEST PUSH2 0x383 DUP2 PUSH2 0x480 JUMP JUMPDEST DUP3 MSTORE POP POP JUMP JUMPDEST PUSH1 0x40 DUP3 ADD PUSH1 0x0 DUP3 ADD MLOAD PUSH2 0x39F PUSH1 0x0 DUP6 ADD DUP3 PUSH2 0x3B8 JUMP JUMPDEST POP PUSH1 0x20 DUP3 ADD MLOAD PUSH2 0x3B2 PUSH1 0x20 DUP6 ADD DUP3 PUSH2 0x3B8 JUMP JUMPDEST POP POP POP POP JUMP JUMPDEST PUSH2 0x3C1 DUP2 PUSH2 0x48C JUMP JUMPDEST DUP3 MSTORE POP POP JUMP JUMPDEST PUSH2 0x3D0 DUP2 PUSH2 0x48C JUMP JUMPDEST DUP3 MSTORE POP POP JUMP JUMPDEST PUSH1 0x0 PUSH1 0x20 DUP3 ADD SWAP1 POP PUSH2 0x3EB PUSH1 0x0 DUP4 ADD DUP5 PUSH2 0x37A JUMP JUMPDEST SWAP3 SWAP2 POP POP JUMP JUMPDEST PUSH1 0x0 PUSH1 0x40 DUP3 ADD SWAP1 POP PUSH2 0x406 PUSH1 0x0 DUP4 ADD DUP5 PUSH2 0x389 JUMP JUMPDEST SWAP3 SWAP2 POP POP JUMP JUMPDEST PUSH1 0x0 PUSH1 0x40 DUP3 ADD SWAP1 POP PUSH2 0x421 PUSH1 0x0 DUP4 ADD DUP6 PUSH2 0x3C7 JUMP JUMPDEST PUSH2 0x42E PUSH1 0x20 DUP4 ADD DUP5 PUSH2 0x3C7 JUMP JUMPDEST SWAP4 SWAP3 POP POP POP JUMP JUMPDEST PUSH1 0x0 PUSH2 0x43F PUSH2 0x450 JUMP JUMPDEST SWAP1 POP PUSH2 0x44B DUP3 DUP3 PUSH2 0x496 JUMP JUMPDEST SWAP2 SWAP1 POP JUMP JUMPDEST PUSH1 0x0 PUSH1 0x40 MLOAD SWAP1 POP SWAP1 JUMP JUMPDEST PUSH1 0x0 PUSH8 0xFFFFFFFFFFFFFFFF DUP3 GT ISZERO PUSH2 0x475 JUMPI PUSH2 0x474 PUSH2 0x4C7 JUMP JUMPDEST JUMPDEST PUSH1 0x20 DUP3 MUL SWAP1 POP SWAP2 SWAP1 POP JUMP JUMPDEST PUSH1 0x0 DUP2 ISZERO ISZERO SWAP1 POP SWAP2 SWAP1 POP JUMP JUMPDEST PUSH1 0x0 DUP2 SWAP1 POP SWAP2 SWAP1 POP JUMP JUMPDEST PUSH2 0x49F DUP3 PUSH2 0x50A JUMP JUMPDEST DUP2 ADD DUP2 DUP2 LT PUSH8 0xFFFFFFFFFFFFFFFF DUP3 GT OR ISZERO PUSH2 0x4BE JUMPI PUSH2 0x4BD PUSH2 0x4C7 JUMP JUMPDEST JUMPDEST DUP1 PUSH1 0x40 MSTORE POP POP POP JUMP JUMPDEST PUSH32 0x4E487B7100000000000000000000000000000000000000000000000000000000 PUSH1 0x0 MSTORE PUSH1 0x41 PUSH1 0x4 MSTORE PUSH1 0x24 PUSH1 0x0 REVERT JUMPDEST PUSH1 0x0 DUP1 REVERT JUMPDEST PUSH1 0x0 DUP1 REVERT JUMPDEST PUSH1 0x0 DUP1 REVERT JUMPDEST PUSH1 0x0 DUP1 REVERT JUMPDEST PUSH1 0x0 PUSH1 0x1F NOT PUSH1 0x1F DUP4 ADD AND SWAP1 POP SWAP2 SWAP1 POP JUMP JUMPDEST PUSH2 0x524 DUP2 PUSH2 0x48C JUMP JUMPDEST DUP2 EQ PUSH2 0x52F JUMPI PUSH1 0x0 DUP1 REVERT JUMPDEST POP JUMP INVALID LOG2 PUSH5 0x6970667358 0x22 SLT KECCAK256 MULMOD 0x27 0x23 PUSH17 0x3B6D3B4D6F07E53C0B4F823E0994DE77B ADDMOD BLOCKHASH 0xEE 0xB6 0xCE SWAP3 ADD 0xC3 BASEFEE 0xE8 0xCC PUSH5 0x736F6C6343 STOP ADDMOD SMOD STOP CALLER "
		},
		"gasEstimates": {
			"creation": {
				"codeDepositCost": "276800",
				"executionCost": "infinite",
				"totalCost": "infinite"
			},
			"external": {
				"g()": "infinite",
				"get_sum_of_commitments()": "infinite",
				"h()": "infinite",
				"verify(uint256[2],uint256,uint256[2])": "infinite"
			}
		},
		"methodIdentifiers": {
			"g()": "e2179b8e",
			"get_sum_of_commitments()": "0651a124",
			"h()": "b8c9d365",
			"verify(uint256[2],uint256,uint256[2])": "08168096"
		}
	},
	"abi": [
		{
			"inputs": [
				{
					"internalType": "uint256[2]",
					"name": "_g",
					"type": "uint256[2]"
				},
				{
					"internalType": "uint256[2]",
					"name": "_h",
					"type": "uint256[2]"
				},
				{
					"internalType": "address",
					"name": "_proofOfReserversAddr",
					"type": "address"
				}
			],
			"stateMutability": "nonpayable",
			"type": "constructor"
		},
		{
			"inputs": [],
			"name": "g",
			"outputs": [
				{
					"internalType": "uint256",
					"name": "X",
					"type": "uint256"
				},
				{
					"internalType": "uint256",
					"name": "Y",
					"type": "uint256"
				}
			],
			"stateMutability": "view",
			"type": "function"
		},
		{
			"inputs": [],
			"name": "get_sum_of_commitments",
			"outputs": [
				{
					"components": [
						{
							"internalType": "uint256",
							"name": "X",
							"type": "uint256"
						},
						{
							"internalType": "uint256",
							"name": "Y",
							"type": "uint256"
						}
					],
					"internalType": "struct Pairing.G1Point",
					"name": "",
					"type": "tuple"
				}
			],
			"stateMutability": "nonpayable",
			"type": "function"
		},
		{
			"inputs": [],
			"name": "h",
			"outputs": [
				{
					"internalType": "uint256",
					"name": "X",
					"type": "uint256"
				},
				{
					"internalType": "uint256",
					"name": "Y",
					"type": "uint256"
				}
			],
			"stateMutability": "view",
			"type": "function"
		},
		{
			"inputs": [
				{
					"internalType": "uint256[2]",
					"name": "_cm",
					"type": "uint256[2]"
				},
				{
					"internalType": "uint256",
					"name": "value",
					"type": "uint256"
				},
				{
					"internalType": "uint256[2]",
					"name": "_proof",
					"type": "uint256[2]"
				}
			],
			"name": "verify",
			"outputs": [
				{
					"internalType": "bool",
					"name": "",
					"type": "bool"
				}
			],
			"stateMutability": "payable",
			"type": "function"
		}
	]
}