{
  "contractName": "PoExpBn256",
  "abi": [
    {
      "inputs": [
        {
          "internalType": "uint256",
          "name": "gX",
          "type": "uint256"
        },
        {
          "internalType": "uint256",
          "name": "gY",
          "type": "uint256"
        },
        {
          "internalType": "uint256",
          "name": "hX",
          "type": "uint256"
        },
        {
          "internalType": "uint256",
          "name": "hY",
          "type": "uint256"
        }
      ],
      "stateMutability": "nonpayable",
      "type": "constructor"
    },
    {
      "anonymous": false,
      "inputs": [
        {
          "indexed": false,
          "internalType": "uint256",
          "name": "X",
          "type": "uint256"
        },
        {
          "indexed": false,
          "internalType": "uint256",
          "name": "Y",
          "type": "uint256"
        }
      ],
      "name": "LogGenerator",
      "type": "event"
    },
    {
      "inputs": [
        {
          "internalType": "uint256[]",
          "name": "proof",
          "type": "uint256[]"
        },
        {
          "internalType": "uint256[]",
          "name": "inputs",
          "type": "uint256[]"
        }
      ],
      "name": "verifyBN256",
      "outputs": [
        {
          "internalType": "bool",
          "name": "",
          "type": "bool"
        }
      ],
      "stateMutability": "nonpayable",
      "type": "function"
    }
  ],
  "bytecode": "0x608060405234801561001057600080fd5b5060405161072b38038061072b83398101604081905261002f916101e9565b6040518060800160405280858152602001848152602001838152602001828152506000906004610060929190610189565b507e979215608f44c313439566a7f8f134c68bbdac754a55c37aa912c0640b8d9e600080815481106100a257634e487b7160e01b600052603260045260246000fd5b906000526020600020015460006001815481106100cf57634e487b7160e01b600052603260045260246000fd5b6000918252602091829020015460408051938452918301520160405180910390a17e979215608f44c313439566a7f8f134c68bbdac754a55c37aa912c0640b8d9e600060028154811061013257634e487b7160e01b600052603260045260246000fd5b9060005260206000200154600060038154811061015f57634e487b7160e01b600052603260045260246000fd5b6000918252602091829020015460408051938452918301520160405180910390a15050505061021e565b8280548282559060005260206000209081019282156101c4579160200282015b828111156101c45782518255916020019190600101906101a9565b506101d09291506101d4565b5090565b5b808211156101d057600081556001016101d5565b600080600080608085870312156101fe578384fd5b505082516020840151604085015160609095015191969095509092509050565b6104fe8061022d6000396000f3fe608060405234801561001057600080fd5b506004361061002b5760003560e01c8063080c669e14610030575b600080fd5b61004361003e366004610451565b610057565b604051901515815260200160405180910390f35b60006100656000848461006c565b9392505050565b6000610076610378565b61007e610396565b610086610396565b60008060019050600060405180602001604052806101586101376101068e6002815481106100c457634e487b7160e01b600052603260045260246000fd5b906000526020600020015460001b8f6003815481106100f357634e487b7160e01b600052603260045260246000fd5b906000526020600020015460001b6102cc565b8c60018151811061012757634e487b7160e01b600052603260045260246000fd5b602002602001015160001b6102cc565b8c60008151811061012757634e487b7160e01b600052603260045260246000fd5b905290506107d05a038a8752602087209350600284015487526003840154602088015260608a015160408801526040866060896000600786f192506040890151875260608901516020880152815160408801526040876060896000600786f18316925060208a0151604088015260408a015160608801526040856080896000600686f183169250848614831692506080890151865260a089015160208701528354875260018401546020880152602089015160408801526040876060896000600786f18316925060408901516040880152606089015160608801526040856080896000600686f1909216848614169150816102bf5760405162461bcd60e51b815260206004820152603960248201527f52656a6563743a204572726f72206f636375726564206f7220736f6d6574686960448201527f6e672077726f6e6728652e672e206f7574206f66206761732900000000000000606482015260840160405180910390fd5b5098975050505050505050565b60007f30644e72e131a029b85045b68181585d2833e84879b9709143e1f593f000000180838508818182098282848386858609090991507faed26d6a3f5e0ea662411ddfcde3527479de9cee7a56c656ff5f61df13a3940160005260005b605a811215610360576020600020806000528487868387080893505083838409915083838584878687090909925060010161032a565b50508184820890508184838784080895945050505050565b60405180608001604052806004906020820280368337509192915050565b60405180604001604052806002906020820280368337509192915050565b600082601f8301126103c4578081fd5b8135602067ffffffffffffffff808311156103e1576103e16104b2565b818302604051601f19603f83011681018181108482111715610405576104056104b2565b60405284815283810192508684018288018501891015610423578687fd5b8692505b85831015610445578035845292840192600192909201918401610427565b50979650505050505050565b60008060408385031215610463578182fd5b823567ffffffffffffffff8082111561047a578384fd5b610486868387016103b4565b9350602085013591508082111561049b578283fd5b506104a8858286016103b4565b9150509250929050565b634e487b7160e01b600052604160045260246000fdfea26469706673582212201fa8c20d65a7e30be703049d72d443e8d0f3ad216a54c61c0bff7f085a99e83064736f6c63430008020033",
  "immutableReferences": {},
  "source": "// SPDX-License-Identifier: LGPL-3.0+\n\npragma solidity ^0.8.0;\n\n// solhint-disable-next-line max-line-length\n\nimport \"./PoExp.sol\";\n\ncontract PoExpBn256 {\n    uint256[] generator;\n\n    event LogGenerator(uint256 X, uint256 Y);\n\n    constructor(uint256 gX, uint256 gY, uint256 hX, uint256 hY) {\n        generator = [uint256(gX), uint256(gY), uint256(hX), uint256(hY)];\n\n        emit LogGenerator(generator[0], generator[1]);\n        emit LogGenerator(generator[2], generator[3]);\n    }\n\n    function verifyBN256(\n        uint256[] memory proof, // [tX, tY, s]\n        uint256[] memory inputs // [v, yX, yY, cmX, cmY]\n    ) public returns (bool) {\n        return PoExp._verify(generator, proof, inputs);\n    }\n}\n\n//[123, 8827710784402843497074752127110870416328048196504692375055403536558672029161,14100469679187876586471551400972345236109757246043953425821261877730884909556, 19263621320589790163778005780641931887909784061468896229411056951840424581655, 5737925828628455676908345223629317529932256734396490992797776017260879820684] \n",
  "sourcePath": "/Users/kim/Proof-of-Reserves/contract/contracts/PoExpBn256.sol",
  "compiler": {
    "name": "solc",
    "version": "0.8.2+commit.661d1103.Emscripten.clang"
  },
  "schemaVersion": "3.4.14",
  "updatedAt": "2023-08-21T02:08:37.375Z",
  "devdoc": {
    "kind": "dev",
    "methods": {},
    "version": 1
  },
  "userdoc": {
    "kind": "user",
    "methods": {},
    "version": 1
  }
}