{
  "contractName": "PoKESigmaProtocol",
  "abi": [
    {
      "inputs": [
        {
          "internalType": "uint256[2]",
          "name": "_g",
          "type": "uint256[2]"
        },
        {
          "internalType": "uint256[2]",
          "name": "_h",
          "type": "uint256[2]"
        },
        {
          "internalType": "address",
          "name": "_proofOfReserversAddr",
          "type": "address"
        }
      ],
      "stateMutability": "nonpayable",
      "type": "constructor"
    },
    {
      "inputs": [],
      "name": "g",
      "outputs": [
        {
          "internalType": "uint256",
          "name": "X",
          "type": "uint256"
        },
        {
          "internalType": "uint256",
          "name": "Y",
          "type": "uint256"
        }
      ],
      "stateMutability": "view",
      "type": "function"
    },
    {
      "inputs": [],
      "name": "h",
      "outputs": [
        {
          "internalType": "uint256",
          "name": "X",
          "type": "uint256"
        },
        {
          "internalType": "uint256",
          "name": "Y",
          "type": "uint256"
        }
      ],
      "stateMutability": "view",
      "type": "function"
    },
    {
      "inputs": [
        {
          "internalType": "uint256",
          "name": "value",
          "type": "uint256"
        },
        {
          "internalType": "uint256[3]",
          "name": "_proof",
          "type": "uint256[3]"
        }
      ],
      "name": "verify",
      "outputs": [
        {
          "internalType": "bool",
          "name": "",
          "type": "bool"
        }
      ],
      "stateMutability": "payable",
      "type": "function"
    }
  ],
  "bytecode": "0x608060405234801561001057600080fd5b5060405161087b38038061087b83398101604081905261002f916100ec565b82516000556020928301516001558151600255910151600355600480546001600160a01b0319166001600160a01b03909216919091179055610140565b600082601f83011261007c578081fd5b604080519081016001600160401b03811182821017156100aa57634e487b7160e01b83526041600452602483fd5b80604052508083856040860111156100c0578384fd5b835b60028110156100e15781518352602092830192909101906001016100c2565b509195945050505050565b600080600060a08486031215610100578283fd5b61010a858561006c565b9250610119856040860161006c565b60808501519092506001600160a01b0381168114610135578182fd5b809150509250925092565b61072c8061014f6000396000f3fe6080604052600436106100345760003560e01c8063aad4f5ec14610039578063b8c9d36514610061578063e2179b8e14610091575b600080fd5b61004c610047366004610604565b6100ac565b60405190151581526020015b60405180910390f35b34801561006d57600080fd5b5060025460035461007c919082565b60408051928352602083019190915201610058565b34801561009d57600080fd5b5060005460015461007c919082565b6000806100b7610227565b6040805180820190915260008054825260015460208301529192506100f09083906100eb906100e690896102b6565b610375565b610416565b9050600060405180604001604052808660006003811061012057634e487b7160e01b600052603260045260246000fd5b602002015181526020018660016003811061014b57634e487b7160e01b600052603260045260246000fd5b602002015190526040860151600254845192935090916000916101799161017291906104e9565b84516104e9565b60408051808201909152600254815260035460208201529091506000906101a090846102b6565b905060006101ae86846102b6565b905060006101bc8683610416565b805184519192501480156101d7575080602001518360200151145b6102165760405162461bcd60e51b815260206004820152600b60248201526a1d995c9a599e4819985a5b60aa1b60448201526064015b60405180910390fd5b5060019a9950505050505050505050565b60408051808201825260008082526020820152600480548351630194684960e21b8152845193946001600160a01b0390921693630651a124938281019392829003018186803b15801561027957600080fd5b505afa15801561028d573d6000803e3d6000fd5b505050506040513d601f19601f820116820180604052508101906102b191906105d1565b905090565b60408051808201909152600080825260208201526102d2610595565b83518152602080850151908201526040808201849052600090836060848460076107d05a03f190508061036d5760405162461bcd60e51b815260206004820152603d60248201527f43616c6c20746f20626e3235365363616c61724d756c206661696c656420287060448201527f726f6261626c7920616e206f7574206f6620676173206572726f723f29000000606482015260840161020d565b505092915050565b604080518082019091526000808252602082015281517f30644e72e131a029b85045b68181585d97816a916871ca8d3c208c16d87cfd47901580156103bc57506020830151155b156103dc5750506040805180820190915260008082526020820152610411565b60405180604001604052808460000151815260200182856020015161040191906106d6565b61040b90846106b3565b90529150505b919050565b60408051808201909152600080825260208201526104326105b3565b83518152602080850151818301528351604080840191909152908401516060830152600090836080848460066107d05a03f190508061036d5760405162461bcd60e51b815260206004820152604760248201527f43616c6c20746f2074686520626e32353641646420707265636f6d70696c656460448201527f206661696c6564202870726f6261626c7920616e206f7574206f6620676173206064820152666572726f723f2960c81b608482015260a40161020d565b60007f30644e72e131a029b85045b68181585d2833e84879b9709143e1f593f000000180838508818182098282848386858609090991507faed26d6a3f5e0ea662411ddfcde3527479de9cee7a56c656ff5f61df13a3940160005260005b605a81121561057d5760206000208060005284878683870808935050838384099150838385848786870909099250600101610547565b50508184820890508184838784080895945050505050565b60405180606001604052806003906020820280368337509192915050565b60405180608001604052806004906020820280368337509192915050565b6000604082840312156105e2578081fd5b6105ec6040610674565b82518152602083015160208201528091505092915050565b60008060808385031215610616578081fd5b82359150602084603f85011261062a578182fd5b6106346060610674565b8082860187608088011115610647578485fd5b845b600381101561066657813584529284019290840190600101610649565b509497909650945050505050565b604051601f8201601f1916810167ffffffffffffffff811182821017156106ab57634e487b7160e01b600052604160045260246000fd5b604052919050565b6000828210156106d157634e487b7160e01b81526011600452602481fd5b500390565b6000826106f157634e487b7160e01b81526012600452602481fd5b50069056fea2646970667358221220d4bb746dc1db3971c24247d118e104fd94afb9856fd186b6f8bad04b35174fa864736f6c63430008020033",
  "immutableReferences": {},
  "source": "// SPDX-License-Identifier: LGPL-3.0+\npragma solidity >=0.8.0;\n\nimport \"./MiMC7.sol\";\nimport \"./PairingBn128.sol\";\nimport \"./proofOfReserves.sol\";\n\n/*\n    we use ALT_BN128 curve\n */\ncontract PoKESigmaProtocol {\n\n    // public parameter of Pedersen Commitment \n    // cm = g^v * h^r\n    Pairing.G1Point public g;\n    Pairing.G1Point public h;\n\n    address proofOfReserversAddr; \n\n    constructor(\n        uint256[2] memory _g,\n        uint256[2] memory _h,\n        address _proofOfReserversAddr\n    ) {\n        g.X = _g[0];\n        g.Y = _g[1];\n        h.X = _h[0];\n        h.Y = _h[1];\n\n        proofOfReserversAddr = _proofOfReserversAddr;\n    }\n\n    function get_sum_of_commitments() \n        private returns(Pairing.G1Point memory)\n    {\n        return ProofOfReservesContract(proofOfReserversAddr).get_sum_of_commitments();\n    }\n\n    // Proof :\n    //    Proof[0] : t.x\n    //    Proof[1] : t.y where t = h^r'\n    //    Proof[2] : s   where s = r' + cr\n    //    h^s == t * y^c\n    //    h^(r'+ cr) == h^r' * h^(cr)\n    function verify (\n        uint256    value,\n        uint256[3] memory _proof\n    ) public payable returns (bool) {\n        \n        // y = cm/g^v = h^r\n        Pairing.G1Point memory cm = get_sum_of_commitments();\n        Pairing.G1Point memory y =  Pairing.add(cm, Pairing.negate(Pairing.mul(g, value)));\n\n        Pairing.G1Point memory t = Pairing.G1Point(_proof[0], _proof[1]);\n        uint256 s = _proof[2];\n\n        bytes32 c_bytes = MiMC7._hash(\n            MiMC7._hash(bytes32(h.X), bytes32(y.X)),  \n            bytes32(t.X)\n        );\n\n        Pairing.G1Point memory hs = Pairing.mul(h, s);\n        Pairing.G1Point memory yc = Pairing.mul(y, uint256(c_bytes));\n        Pairing.G1Point memory tyc = Pairing.add(t, yc);\n\n        require(hs.X == tyc.X && hs.Y == tyc.Y, \"verify fail\");\n        return true;\n    }\n}",
  "sourcePath": "/Users/kim/Proof-of-Reserves/contract/contracts/PoKE.sol",
  "compiler": {
    "name": "solc",
    "version": "0.8.2+commit.661d1103.Emscripten.clang"
  },
  "schemaVersion": "3.4.11",
  "updatedAt": "2023-06-01T00:17:24.314Z",
  "devdoc": {
    "kind": "dev",
    "methods": {},
    "version": 1
  },
  "userdoc": {
    "kind": "user",
    "methods": {},
    "version": 1
  }
}