{
  "contractName": "ProofOfReservesContractL1",
  "abi": [
    {
      "inputs": [
        {
          "internalType": "uint256[2]",
          "name": "_g",
          "type": "uint256[2]"
        },
        {
          "internalType": "uint256[2]",
          "name": "_h",
          "type": "uint256[2]"
        },
        {
          "internalType": "address",
          "name": "_proofOfReserversAddr",
          "type": "address"
        }
      ],
      "stateMutability": "nonpayable",
      "type": "constructor"
    },
    {
      "anonymous": false,
      "inputs": [
        {
          "indexed": true,
          "internalType": "address",
          "name": "previousOwner",
          "type": "address"
        },
        {
          "indexed": true,
          "internalType": "address",
          "name": "newOwner",
          "type": "address"
        }
      ],
      "name": "OwnershipTransferred",
      "type": "event"
    },
    {
      "inputs": [],
      "name": "g",
      "outputs": [
        {
          "internalType": "uint256",
          "name": "X",
          "type": "uint256"
        },
        {
          "internalType": "uint256",
          "name": "Y",
          "type": "uint256"
        }
      ],
      "stateMutability": "view",
      "type": "function"
    },
    {
      "inputs": [],
      "name": "h",
      "outputs": [
        {
          "internalType": "uint256",
          "name": "X",
          "type": "uint256"
        },
        {
          "internalType": "uint256",
          "name": "Y",
          "type": "uint256"
        }
      ],
      "stateMutability": "view",
      "type": "function"
    },
    {
      "inputs": [],
      "name": "owner",
      "outputs": [
        {
          "internalType": "address",
          "name": "",
          "type": "address"
        }
      ],
      "stateMutability": "view",
      "type": "function"
    },
    {
      "inputs": [],
      "name": "renounceOwnership",
      "outputs": [],
      "stateMutability": "nonpayable",
      "type": "function"
    },
    {
      "inputs": [
        {
          "internalType": "address",
          "name": "newOwner",
          "type": "address"
        }
      ],
      "name": "transferOwnership",
      "outputs": [],
      "stateMutability": "nonpayable",
      "type": "function"
    },
    {
      "inputs": [
        {
          "internalType": "uint256",
          "name": "value",
          "type": "uint256"
        },
        {
          "internalType": "uint256[3]",
          "name": "proof",
          "type": "uint256[3]"
        }
      ],
      "name": "update_total_value",
      "outputs": [],
      "stateMutability": "nonpayable",
      "type": "function"
    },
    {
      "inputs": [],
      "name": "get_total_value",
      "outputs": [
        {
          "internalType": "uint256",
          "name": "",
          "type": "uint256"
        }
      ],
      "stateMutability": "view",
      "type": "function"
    }
  ],
  "bytecode": "0x608060405234801561001057600080fd5b50604051610afa380380610afa83398101604081905261002f9161014a565b6100383361007a565b82516001556020928301516002558151600355910151600455600580546001600160a01b0319166001600160a01b03909216919091179055600060065561019e565b600080546001600160a01b038381166001600160a01b0319831681178455604051919092169283917f8be0079c531659141344cd1fd0a4f28419497f9722a3daafe3b4186f6b6457e09190a35050565b600082601f8301126100da578081fd5b604080519081016001600160401b038111828210171561010857634e487b7160e01b83526041600452602483fd5b806040525080838560408601111561011e578384fd5b835b600281101561013f578151835260209283019290910190600101610120565b509195945050505050565b600080600060a0848603121561015e578283fd5b61016885856100ca565b925061017785604086016100ca565b60808501519092506001600160a01b0381168114610193578182fd5b809150509250925092565b61094d806101ad6000396000f3fe608060405234801561001057600080fd5b506004361061007d5760003560e01c80639e7c84e11161005b5780639e7c84e1146100bf578063b8c9d365146100d0578063e2179b8e146100f3578063f2fde38b146101015761007d565b8063715018a6146100825780638da5cb5b1461008c57806397a53a91146100ac575b600080fd5b61008a610114565b005b6000546040516001600160a01b0390911681526020015b60405180910390f35b61008a6100ba366004610825565b610128565b6006546040519081526020016100a3565b6003546004546100de919082565b604080519283526020830191909152016100a3565b6001546002546100de919082565b61008a61010f3660046107c4565b610196565b61011c61020f565b6101266000610269565b565b61013061020f565b60008061013d84846102b9565b91509150816101835760405162461bcd60e51b815260206004820152600d60248201526c34b73b30b634b210383937b7b360991b60448201526064015b60405180910390fd5b8051600755602001516008555050600655565b61019e61020f565b6001600160a01b0381166102035760405162461bcd60e51b815260206004820152602660248201527f4f776e61626c653a206e6577206f776e657220697320746865207a65726f206160448201526564647265737360d01b606482015260840161017a565b61020c81610269565b50565b6000546001600160a01b031633146101265760405162461bcd60e51b815260206004820181905260248201527f4f776e61626c653a2063616c6c6572206973206e6f7420746865206f776e6572604482015260640161017a565b600080546001600160a01b038381166001600160a01b0319831681178455604051919092169283917f8be0079c531659141344cd1fd0a4f28419497f9722a3daafe3b4186f6b6457e09190a35050565b60006102d8604051806040016040528060008152602001600081525090565b60006102e2610416565b604080518082019091526001548152600254602082015290915060009061031d90839061031890610313908a6104a9565b610568565b610609565b9050600060405180604001604052808760006003811061034d57634e487b7160e01b600052603260045260246000fd5b602002015181526020018760016003811061037857634e487b7160e01b600052603260045260246000fd5b602002015190526040870151600354845192935090916000916103a69161039f91906106dc565b84516106dc565b60408051808201909152600354815260045460208201529091506000906103cd90846104a9565b905060006103db86846104a9565b905060006103e98683610609565b80518451919250148015610404575080602001518360200151145b9c979b50969950505050505050505050565b604080518082019091526000808252602082015260055460408051630194684960e21b815281516001600160a01b0390931692630651a12492600480840193919291829003018186803b15801561046c57600080fd5b505afa158015610480573d6000803e3d6000fd5b505050506040513d601f19601f820116820180604052508101906104a491906107f2565b905090565b60408051808201909152600080825260208201526104c5610788565b83518152602080850151908201526040808201849052600090836060848460076107d05a03f19050806105605760405162461bcd60e51b815260206004820152603d60248201527f43616c6c20746f20626e3235365363616c61724d756c206661696c656420287060448201527f726f6261626c7920616e206f7574206f6620676173206572726f723f29000000606482015260840161017a565b505092915050565b604080518082019091526000808252602082015281517f30644e72e131a029b85045b68181585d97816a916871ca8d3c208c16d87cfd47901580156105af57506020830151155b156105cf5750506040805180820190915260008082526020820152610604565b6040518060400160405280846000015181526020018285602001516105f491906108f7565b6105fe90846108d4565b90529150505b919050565b60408051808201909152600080825260208201526106256107a6565b83518152602080850151818301528351604080840191909152908401516060830152600090836080848460066107d05a03f19050806105605760405162461bcd60e51b815260206004820152604760248201527f43616c6c20746f2074686520626e32353641646420707265636f6d70696c656460448201527f206661696c6564202870726f6261626c7920616e206f7574206f6620676173206064820152666572726f723f2960c81b608482015260a40161017a565b60007f30644e72e131a029b85045b68181585d2833e84879b9709143e1f593f000000180838508818182098282848386858609090991507faed26d6a3f5e0ea662411ddfcde3527479de9cee7a56c656ff5f61df13a3940160005260005b605a811215610770576020600020806000528487868387080893505083838409915083838584878687090909925060010161073a565b50508184820890508184838784080895945050505050565b60405180606001604052806003906020820280368337509192915050565b60405180608001604052806004906020820280368337509192915050565b6000602082840312156107d5578081fd5b81356001600160a01b03811681146107eb578182fd5b9392505050565b600060408284031215610803578081fd5b61080d6040610895565b82518152602083015160208201528091505092915050565b60008060808385031215610837578081fd5b82359150602084603f85011261084b578182fd5b6108556060610895565b8082860187608088011115610868578485fd5b845b60038110156108875781358452928401929084019060010161086a565b509497909650945050505050565b604051601f8201601f1916810167ffffffffffffffff811182821017156108cc57634e487b7160e01b600052604160045260246000fd5b604052919050565b6000828210156108f257634e487b7160e01b81526011600452602481fd5b500390565b60008261091257634e487b7160e01b81526012600452602481fd5b50069056fea26469706673582212200547e0640ce454fcfaf8988733c751d334d63cd6390233b950430142bebec2b364736f6c63430008020033",
  "immutableReferences": {},
  "source": "// SPDX-License-Identifier: LGPL-3.0+\npragma solidity >=0.8.0;\n\nimport \"./MiMC7.sol\";\nimport \"./PairingBn128.sol\";\nimport \"./proofOfReserves.sol\";\nimport \"@openzeppelin/contracts/access/Ownable.sol\";\n\n\n/*\n    we use ALT_BN128 curve\n */\ncontract ProofOfReservesContractL1 is Ownable {\n\n    // public parameter of Pedersen Commitment \n    // cm = g^v * h^r\n    Pairing.G1Point public g;\n    Pairing.G1Point public h;\n\n    // L2 contract address\n    address proofOfReserversAddr; \n\n    // total CEX balance\n    uint256 totalValue;\n\n    // total CEX commitment\n    Pairing.G1Point totalCommitment;\n\n    constructor(\n        uint256[2] memory _g,\n        uint256[2] memory _h,\n        address _proofOfReserversAddr\n    ) {\n        g.X = _g[0];\n        g.Y = _g[1];\n        h.X = _h[0];\n        h.Y = _h[1];\n\n        proofOfReserversAddr = _proofOfReserversAddr;\n        totalValue = 0;\n    }\n\n    function update_total_value(\n        uint256 value,\n        uint256[3] memory proof\n    )  \n        public  \n        onlyOwner\n    {   \n        (bool result, Pairing.G1Point memory _totalCommitment) = PoKE_sigma_protocol_verify(value, proof);\n        require(result, \"invalid proof\");\n        \n        totalCommitment = _totalCommitment;\n        totalValue = value;\n    }\n\n    // Proof :\n    //    Proof[0] : t.x\n    //    Proof[1] : t.y where t = h^r'\n    //    Proof[2] : s   where s = r' + cr\n    //    h^s == t * y^c\n    //    h^(r'+ cr) == h^r' * h^(cr)\n    function PoKE_sigma_protocol_verify (\n        uint256    value,\n        uint256[3] memory _proof\n    ) private returns (bool, Pairing.G1Point memory) {\n        \n        // y = cm/g^v = h^r\n        Pairing.G1Point memory cm = get_sum_of_commitments();\n        Pairing.G1Point memory y =  Pairing.add(cm, Pairing.negate(Pairing.mul(g, value)));\n\n        Pairing.G1Point memory t = Pairing.G1Point(_proof[0], _proof[1]);\n        uint256 s = _proof[2];\n\n        // c = Hash( h.X || y.X || t.X )\n        bytes32 c_bytes = MiMC7._hash(\n            bytes32(MiMC7._hash(bytes32(h.X), bytes32(y.X))),  \n            bytes32(t.X)\n        );\n\n        Pairing.G1Point memory hs = Pairing.mul(h, s);\n        Pairing.G1Point memory yc = Pairing.mul(y, uint256(c_bytes));\n        Pairing.G1Point memory tyc = Pairing.add(t, yc);\n\n        return (hs.X == tyc.X && hs.Y == tyc.Y, cm);\n    }\n\n    function get_sum_of_commitments() \n        private view returns(Pairing.G1Point memory)\n    {\n        return ProofOfReservesContractL2(proofOfReserversAddr).get_sum_of_commitments();\n    }\n\n    function get_total_value()\n        public view returns (uint256) \n    {\n        return totalValue;\n    }\n\n\n    // ========= to Debug =========\n\n    // // y = h^r\n    // function calc_y(\n    //     uint256 value\n    // )\n    //     public\n    //     payable\n    //     returns (Pairing.G1Point memory)\n    // {\n    //     Pairing.G1Point memory cm = get_sum_of_commitments();\n    //     Pairing.G1Point memory y =  Pairing.add(cm, Pairing.negate(Pairing.mul(g, value)));\n    //     return y;\n    // }\n\n    // // c = Hash( h.x || y.x || t.x )\n    // function clac_c(\n    //     uint256 value,\n    //     uint256[2] memory t\n    // )\n    //     public\n    //     payable \n    //     returns (uint256[2] memory)\n    // {\n    //     uint256[2] memory ret;\n    //     Pairing.G1Point memory y = calc_y(value);\n\n    //     ret[0] = uint256(MiMC7._hash(bytes32(h.X), bytes32(y.X)));\n    //     ret[1] = uint256(MiMC7._hash(\n    //         bytes32(ret[0]),  \n    //         bytes32(t[0])\n    //     ));\n    //     return ret;\n    // }\n\n    // function calc_hs(\n    //     uint256 value,\n    //     uint256[3] memory proof\n    // )\n    //     public \n    //     payable \n    //     returns (Pairing.G1Point memory)\n    // {   \n\n    //     Pairing.G1Point memory hs = Pairing.mul(h, proof[2]);\n    //     return hs;\n    // }\n\n    // function calc_yc(\n    //     uint256 value,\n    //     uint256[3] memory proof\n    // )\n    //     public \n    //     payable \n    //     returns (Pairing.G1Point memory, bytes32)\n    // {   \n    //     Pairing.G1Point memory y = calc_y(value);\n    //     Pairing.G1Point memory t = Pairing.G1Point(proof[0], proof[1]);\n\n    //     bytes32 c_bytes = MiMC7._hash(\n    //         bytes32(MiMC7._hash(bytes32(h.X), bytes32(y.X))),  \n    //         bytes32(t.X)\n    //     );\n\n    //     Pairing.G1Point memory yc = Pairing.mul(y, uint256(c_bytes));\n    //     return (yc, c_bytes);\n    // }\n\n    // function calc_tyc(\n    //     uint256 value,\n    //     uint256[3] memory proof\n    // )\n    //     public \n    //     payable \n    //     returns (Pairing.G1Point memory, bytes32)\n    // {   \n    //     Pairing.G1Point memory y = calc_y(value);\n    //     Pairing.G1Point memory t = Pairing.G1Point(proof[0], proof[1]);\n\n    //     bytes32 c_bytes = MiMC7._hash(\n    //         bytes32(MiMC7._hash(bytes32(h.X), bytes32(y.X))),  \n    //         bytes32(t.X)\n    //     );\n\n    //     Pairing.G1Point memory yc = Pairing.mul(y, uint256(c_bytes));\n    //     Pairing.G1Point memory tyc= Pairing.add(t, yc);\n    //     return (tyc, c_bytes);\n    // }\n}\n\n/*\ng,h\n[\n    3180562012416913690925935386190007036479226111083987956960601792026358686114,\n    17519154828104037515817392931973887796962669181002901086993947786934567488870\n]\n[ \n    4048032311302464926298094030158754074633619725258845665812735681205540954289,\n    757310962534471265451611502350520868277877209646502467151549808202870646207\n]\n\nsigma PROOF\n[\n    239314435508027700476173748584025363358233456528297948113586176334700373411,\n    4938961443782603145429073850479257948842394679856911215618086793243139919601,\n    4194976159525599510130147974991281495984698748557958470180572732615368495519\n]\n*/",
  "sourcePath": "/Users/kim/Proof-of-Reserves/contract/contracts/PoKE.sol",
  "compiler": {
    "name": "solc",
    "version": "0.8.2+commit.661d1103.Emscripten.clang"
  },
  "schemaVersion": "3.4.14",
  "updatedAt": "2023-06-05T08:14:11.264Z",
  "devdoc": {
    "kind": "dev",
    "methods": {
      "owner()": {
        "details": "Returns the address of the current owner."
      },
      "renounceOwnership()": {
        "details": "Leaves the contract without owner. It will not be possible to call `onlyOwner` functions. Can only be called by the current owner. NOTE: Renouncing ownership will leave the contract without an owner, thereby disabling any functionality that is only available to the owner."
      },
      "transferOwnership(address)": {
        "details": "Transfers ownership of the contract to a new account (`newOwner`). Can only be called by the current owner."
      }
    },
    "version": 1
  },
  "userdoc": {
    "kind": "user",
    "methods": {},
    "version": 1
  }
}