{
  "contractName": "ProofOfReservesContractL2",
  "abi": [
    {
      "inputs": [
        {
          "internalType": "uint256[]",
          "name": "_vk",
          "type": "uint256[]"
        }
      ],
      "stateMutability": "nonpayable",
      "type": "constructor"
    },
    {
      "anonymous": false,
      "inputs": [
        {
          "indexed": true,
          "internalType": "address",
          "name": "previousOwner",
          "type": "address"
        },
        {
          "indexed": true,
          "internalType": "address",
          "name": "newOwner",
          "type": "address"
        }
      ],
      "name": "OwnershipTransferred",
      "type": "event"
    },
    {
      "inputs": [],
      "name": "owner",
      "outputs": [
        {
          "internalType": "address",
          "name": "",
          "type": "address"
        }
      ],
      "stateMutability": "view",
      "type": "function"
    },
    {
      "inputs": [],
      "name": "renounceOwnership",
      "outputs": [],
      "stateMutability": "nonpayable",
      "type": "function"
    },
    {
      "inputs": [
        {
          "internalType": "address",
          "name": "newOwner",
          "type": "address"
        }
      ],
      "name": "transferOwnership",
      "outputs": [],
      "stateMutability": "nonpayable",
      "type": "function"
    },
    {
      "inputs": [
        {
          "internalType": "uint256[]",
          "name": "proof",
          "type": "uint256[]"
        }
      ],
      "name": "upload_commitment",
      "outputs": [
        {
          "internalType": "uint256",
          "name": "",
          "type": "uint256"
        }
      ],
      "stateMutability": "nonpayable",
      "type": "function"
    },
    {
      "inputs": [
        {
          "internalType": "uint256",
          "name": "idx",
          "type": "uint256"
        },
        {
          "internalType": "uint256[]",
          "name": "proof",
          "type": "uint256[]"
        }
      ],
      "name": "update_commitment",
      "outputs": [
        {
          "internalType": "bool",
          "name": "",
          "type": "bool"
        }
      ],
      "stateMutability": "nonpayable",
      "type": "function"
    },
    {
      "inputs": [],
      "name": "get_vk",
      "outputs": [
        {
          "internalType": "uint256[]",
          "name": "",
          "type": "uint256[]"
        }
      ],
      "stateMutability": "view",
      "type": "function"
    },
    {
      "inputs": [],
      "name": "get_all_commitments",
      "outputs": [
        {
          "components": [
            {
              "internalType": "uint256",
              "name": "X",
              "type": "uint256"
            },
            {
              "internalType": "uint256",
              "name": "Y",
              "type": "uint256"
            }
          ],
          "internalType": "struct Pairing.G1Point[]",
          "name": "",
          "type": "tuple[]"
        }
      ],
      "stateMutability": "view",
      "type": "function"
    },
    {
      "inputs": [],
      "name": "get_commitment_cnt",
      "outputs": [
        {
          "internalType": "uint256",
          "name": "",
          "type": "uint256"
        }
      ],
      "stateMutability": "view",
      "type": "function"
    },
    {
      "inputs": [],
      "name": "get_sum_of_commitments",
      "outputs": [
        {
          "components": [
            {
              "internalType": "uint256",
              "name": "X",
              "type": "uint256"
            },
            {
              "internalType": "uint256",
              "name": "Y",
              "type": "uint256"
            }
          ],
          "internalType": "struct Pairing.G1Point",
          "name": "",
          "type": "tuple"
        }
      ],
      "stateMutability": "view",
      "type": "function"
    },
    {
      "inputs": [
        {
          "internalType": "uint256",
          "name": "_x",
          "type": "uint256"
        }
      ],
      "name": "is_appeared_sum_of_commitments",
      "outputs": [
        {
          "internalType": "bool",
          "name": "",
          "type": "bool"
        }
      ],
      "stateMutability": "view",
      "type": "function"
    }
  ],
  "bytecode": "0x60c06040526000608081905260a0819052600381905560048190556005553480156200002a57600080fd5b50604051620010d7380380620010d78339810160408190526200004d916200012c565b620000583362000075565b80516200006d906001906020840190620000c5565b50506200020c565b600080546001600160a01b038381166001600160a01b0319831681178455604051919092169283917f8be0079c531659141344cd1fd0a4f28419497f9722a3daafe3b4186f6b6457e09190a35050565b82805482825590600052602060002090810192821562000103579160200282015b8281111562000103578251825591602001919060010190620000e6565b506200011192915062000115565b5090565b5b8082111562000111576000815560010162000116565b600060208083850312156200013f578182fd5b82516001600160401b038082111562000156578384fd5b818501915085601f8301126200016a578384fd5b8151818111156200017f576200017f620001f6565b838102604051601f19603f83011681018181108582111715620001a657620001a6620001f6565b604052828152858101935084860182860187018a1015620001c5578788fd5b8795505b83861015620001e9578051855260019590950194938601938601620001c9565b5098975050505050505050565b634e487b7160e01b600052604160045260246000fd5b610ebb806200021c6000396000f3fe608060405234801561001057600080fd5b506004361061009e5760003560e01c80638e0f0c5f116100665780638e0f0c5f1461012d578063def596ef14610150578063f123b45a14610165578063f2fde38b14610178578063f5c135931461018b5761009e565b80630651a124146100a3578063068a2253146100e1578063621a9326146100f6578063715018a6146101085780638da5cb5b14610112575b600080fd5b604080518082018252600080825260209182015281518083019092526003548252600454908201526040516100d89190610df0565b60405180910390f35b6100e961019e565b6040516100d89190610d55565b6005545b6040519081526020016100d8565b610110610211565b005b6000546040516001600160a01b0390911681526020016100d8565b61014061013b366004610cf8565b610225565b60405190151581526020016100d8565b61015861023d565b6040516100d89190610dac565b610140610173366004610d10565b610295565b610110610186366004610c8f565b610504565b6100fa610199366004610cbd565b61057d565b60606002805480602002602001604051908101604052809291908181526020016000905b82821015610208578382906000526020600020906002020160405180604001604052908160008201548152602001600182015481525050815260200190600101906101c2565b50505050905090565b610219610728565b6102236000610782565b565b60008181526006602052604090205460ff165b919050565b6060600180548060200260200160405190810160405280929190818152602001828054801561028b57602002820191906000526020600020905b815481526020019060010190808311610277575b5050505050905090565b600061029f610728565b60055483106102e55760405162461bcd60e51b815260206004820152600d60248201526c092dcecc2d8d2c840d2dcc8caf609b1b60448201526064015b60405180910390fd5b6102f06001836107d2565b61032a5760405162461bcd60e51b815260206004820152600b60248201526a1d995c9a599e4819985a5b60aa1b60448201526064016102dc565b60408051808201909152600080825260208201526040805180820190915260035481526004546020820152600280546103b792916103b2918890811061038057634e487b7160e01b600052603260045260246000fd5b906000526020600020906002020160405180604001604052908160008201548152602001600182015481525050610a3b565b610ada565b9050826008815181106103da57634e487b7160e01b600052603260045260246000fd5b60200260200101516002858154811061040357634e487b7160e01b600052603260045260246000fd5b9060005260206000209060020201600001819055508260098151811061043957634e487b7160e01b600052603260045260246000fd5b60200260200101516002858154811061046257634e487b7160e01b600052603260045260246000fd5b9060005260206000209060020201600101819055506104ce816002868154811061049c57634e487b7160e01b600052603260045260246000fd5b906000526020600020906002020160405180604001604052908160008201548152602001600182015481525050610ada565b805160038190556020918201516004556000908152600690915260409020805460ff191660019081179091559150505b92915050565b61050c610728565b6001600160a01b0381166105715760405162461bcd60e51b815260206004820152602660248201527f4f776e61626c653a206e6577206f776e657220697320746865207a65726f206160448201526564647265737360d01b60648201526084016102dc565b61057a81610782565b50565b6000610587610728565b6105926001836107d2565b6105cc5760405162461bcd60e51b815260206004820152600b60248201526a1d995c9a599e4819985a5b60aa1b60448201526064016102dc565b60006040518060400160405280846008815181106105fa57634e487b7160e01b600052603260045260246000fd5b602002602001015181526020018460098151811061062857634e487b7160e01b600052603260045260246000fd5b602090810291909101810151909152600280546001810182556000829052835191027f405787fa12a823e0f2b7631cc41b3ba8828b3321ca811111fa75cd3aa3bb5ace8101829055918301517f405787fa12a823e0f2b7631cc41b3ba8828b3321ca811111fa75cd3aa3bb5acf909201919091559091501580156106ae57506020810151155b156106c557805160035560208101516004556106f3565b60408051808201909152600354815260045460208201526106e69082610ada565b8051600355602001516004555b6003546000908152600660205260408120805460ff19166001179055600580549161071d83610e1e565b909155509392505050565b6000546001600160a01b031633146102235760405162461bcd60e51b815260206004820181905260248201527f4f776e61626c653a2063616c6c6572206973206e6f7420746865206f776e657260448201526064016102dc565b600080546001600160a01b038381166001600160a01b0319831681178455604051919092169283917f8be0079c531659141344cd1fd0a4f28419497f9722a3daafe3b4186f6b6457e09190a35050565b60008151600a1461081c5760405162461bcd60e51b8152602060048201526014602482015273092dcecc2d8d2c840e0e4dedecc40d8cadccee8d60631b60448201526064016102dc565b82546010146108615760405162461bcd60e51b8152602060048201526011602482015270092dcecc2d8d2c840ecd640d8cadccee8d607b1b60448201526064016102dc565b600061086b610bb5565b600060019050602085018683526020832093506101008101518352610120810151602084015250600a8301546040830152600b830154606083015260406102408301608084600060065af19050806108f55760405162461bcd60e51b815260206004820152600d60248201526c189b8c8d4d9059190819985a5b609a1b60448201526064016102dc565b60208501805183526020810151602084015260408101516040840152606081015160608401526080810151608084015260a081015160a0840152835460c0840152600184015460e0840152600284015461010084015260038401546101208401526004840154610140840152600584015461016084015260c081015161018084015260e08101516101a08401525060068301546101c083015260078301546101e083015260088301546102008301526009830154610220830152600c830154610280830152600d8301546102a0830152600e8301546102c0830152600f8301546102e083015260208261030084600060086107d05a03f11680610a2e5760405162461bcd60e51b8152602060048201526011602482015270189b8c8d4d94185a5c9a5b99c819985a5b607a1b60448201526064016102dc565b5051600114949350505050565b604080518082019091526000808252602082015281517f30644e72e131a029b85045b68181585d97816a916871ca8d3c208c16d87cfd4790158015610a8257506020830151155b15610aa25750506040805180820190915260008082526020820152610238565b604051806040016040528084600001518152602001828560200151610ac79190610e39565b610ad19084610e07565b90529392505050565b6040805180820190915260008082526020820152610af6610bd4565b83518152602080850151818301528351604080840191909152908401516060830152600090836080848460066107d05a03f1905080610bad5760405162461bcd60e51b815260206004820152604760248201527f43616c6c20746f2074686520626e32353641646420707265636f6d70696c656460448201527f206661696c6564202870726f6261626c7920616e206f7574206f6620676173206064820152666572726f723f2960c81b608482015260a4016102dc565b505092915050565b6040518061030001604052806018906020820280368337509192915050565b60405180608001604052806004906020820280368337509192915050565b600082601f830112610c02578081fd5b8135602067ffffffffffffffff80831115610c1f57610c1f610e6f565b818302604051601f19603f83011681018181108482111715610c4357610c43610e6f565b60405284815283810192508684018288018501891015610c61578687fd5b8692505b85831015610c83578035845292840192600192909201918401610c65565b50979650505050505050565b600060208284031215610ca0578081fd5b81356001600160a01b0381168114610cb6578182fd5b9392505050565b600060208284031215610cce578081fd5b813567ffffffffffffffff811115610ce4578182fd5b610cf084828501610bf2565b949350505050565b600060208284031215610d09578081fd5b5035919050565b60008060408385031215610d22578081fd5b82359150602083013567ffffffffffffffff811115610d3f578182fd5b610d4b85828601610bf2565b9150509250929050565b602080825282518282018190526000919060409081850190868401855b82811015610d9f57610d8f84835180518252602090810151910152565b9284019290850190600101610d72565b5091979650505050505050565b6020808252825182820181905260009190848201906040850190845b81811015610de457835183529284019291840191600101610dc8565b50909695505050505050565b8151815260208083015190820152604081016104fe565b600082821015610e1957610e19610e59565b500390565b6000600019821415610e3257610e32610e59565b5060010190565b600082610e5457634e487b7160e01b81526012600452602481fd5b500690565b634e487b7160e01b600052601160045260246000fd5b634e487b7160e01b600052604160045260246000fdfea26469706673582212200d9602a44833a953894b2c2872853c351077a7df61a25ab428caa3a497b0b2ea64736f6c63430008020033",
  "immutableReferences": {},
  "source": "// SPDX-License-Identifier: LGPL-3.0+\npragma solidity >=0.8.0;\n\nimport \"./ccGroth16VerifyBn128.sol\";\nimport \"./PairingBn128.sol\";\nimport \"@openzeppelin/contracts/access/Ownable.sol\";\n\n\ncontract ProofOfReservesContractL2 is Ownable {\n    // G1 Point (x, y)\n    struct Commitment {\n        uint256 px;\n        uint256 py;\n    }\n\n\n    // ccGroth16 \n    uint256[] private verifyingKey;\n\n    //   commitment\n    Pairing.G1Point[] commitArray;\n\n    //   commitment \n    Pairing.G1Point sumOfCommitment = Pairing.G1Point(0, 0);\n\n    //   \n    uint256 private commitCnt = 0;\n\n    // sumOfCommitment x \n    mapping(uint256 => bool) _sumOfCommitmentList;\n\n\n    constructor(uint256[] memory _vk) {\n        verifyingKey = _vk;\n    }\n\n    // Proof :\n    //      uint256[2] A    : G_1\n    //      uint256[4] B    : G_2\n    //      uint256[2] C    : G_1\n    //      uint256[2] D    : G_1\n    function upload_commitment(\n        uint256[] memory proof\n    ) public onlyOwner returns (uint256) {\n        require(ccGroth16BN128._verify(verifyingKey, proof), \"verify fail\");\n\n        Pairing.G1Point memory cm = Pairing.G1Point(proof[8], proof[9]);\n        commitArray.push(cm);\n\n        if(cm.X == 0 && cm.Y == 0) { sumOfCommitment = cm; } \n        else { sumOfCommitment = Pairing.add(sumOfCommitment, cm); }\n\n        _sumOfCommitmentList[sumOfCommitment.X] = true;\n\n        return commitCnt++;\n    }\n\n    function update_commitment(\n        uint256 idx,\n        uint256[] memory proof\n    ) public onlyOwner returns (bool) {\n        require(idx < commitCnt, \"Invalid index\");\n        require(ccGroth16BN128._verify(verifyingKey, proof), \"verify fail\");\n\n        Pairing.G1Point memory tmp;\n    \n        tmp = Pairing.add(\n            sumOfCommitment,\n            Pairing.negate(commitArray[idx])\n        );\n\n        commitArray[idx].X = proof[8];\n        commitArray[idx].Y = proof[9];\n\n        sumOfCommitment = Pairing.add(\n            tmp,\n            commitArray[idx]\n        );\n        \n        _sumOfCommitmentList[sumOfCommitment.X] = true;\n\n        return true;\n    }\n\n    function get_vk() public view returns (uint256[] memory) {\n        return verifyingKey;\n    }\n\n    function get_all_commitments() public view returns (Pairing.G1Point[] memory) {\n        return commitArray;\n    }\n\n    function get_commitment_cnt() public view returns (uint256) {\n        return commitCnt;\n    }\n\n    function get_sum_of_commitments() public view returns (Pairing.G1Point memory) {\n        return sumOfCommitment;\n    }\n\n    function is_appeared_sum_of_commitments(uint256 _x) public view returns (bool) {\n        return _sumOfCommitmentList[_x];\n    }\n}\n",
  "sourcePath": "/Users/kim/Proof-of-Reserves/contract/contracts/proofOfReserves.sol",
  "compiler": {
    "name": "solc",
    "version": "0.8.2+commit.661d1103.Emscripten.clang"
  },
  "schemaVersion": "3.4.14",
  "updatedAt": "2023-08-21T02:08:37.389Z",
  "devdoc": {
    "kind": "dev",
    "methods": {
      "owner()": {
        "details": "Returns the address of the current owner."
      },
      "renounceOwnership()": {
        "details": "Leaves the contract without owner. It will not be possible to call `onlyOwner` functions. Can only be called by the current owner. NOTE: Renouncing ownership will leave the contract without an owner, thereby disabling any functionality that is only available to the owner."
      },
      "transferOwnership(address)": {
        "details": "Transfers ownership of the contract to a new account (`newOwner`). Can only be called by the current owner."
      }
    },
    "version": 1
  },
  "userdoc": {
    "kind": "user",
    "methods": {},
    "version": 1
  }
}