{
  "contractName": "ProofOfReservesContract",
  "abi": [
    {
      "inputs": [
        {
          "internalType": "uint256[]",
          "name": "_vk",
          "type": "uint256[]"
        }
      ],
      "stateMutability": "nonpayable",
      "type": "constructor"
    },
    {
      "inputs": [
        {
          "internalType": "uint256[]",
          "name": "proof",
          "type": "uint256[]"
        }
      ],
      "name": "test_verify",
      "outputs": [
        {
          "internalType": "bool",
          "name": "",
          "type": "bool"
        }
      ],
      "stateMutability": "payable",
      "type": "function",
      "payable": true
    },
    {
      "inputs": [],
      "name": "get_vk",
      "outputs": [
        {
          "internalType": "uint256[]",
          "name": "",
          "type": "uint256[]"
        }
      ],
      "stateMutability": "view",
      "type": "function",
      "constant": true
    }
  ],
  "bytecode": "0x60806040523480156200001157600080fd5b50604051620011d9380380620011d98339810160408190526200003491620000b8565b80516200004990600090602084019062000051565b505062000198565b8280548282559060005260206000209081019282156200008f579160200282015b828111156200008f57825182559160200191906001019062000072565b506200009d929150620000a1565b5090565b5b808211156200009d5760008155600101620000a2565b60006020808385031215620000cb578182fd5b82516001600160401b0380821115620000e2578384fd5b818501915085601f830112620000f6578384fd5b8151818111156200010b576200010b62000182565b838102604051601f19603f8301168101818110858211171562000132576200013262000182565b604052828152858101935084860182860187018a101562000151578788fd5b8795505b838610156200017557805185526001959095019493860193860162000155565b5098975050505050505050565b634e487b7160e01b600052604160045260246000fd5b61103180620001a86000396000f3fe6080604052600436106100295760003560e01c8063853e74a11461002e578063def596ef14610056575b600080fd5b61004161003c366004610e7a565b610078565b60405190151581526020015b60405180910390f35b34801561006257600080fd5b5061006b61008b565b60405161004d9190610f39565b60006100856000836100e3565b92915050565b606060008054806020026020016040519081016040528092919081815260200182805480156100d957602002820191906000526020600020905b8154815260200190600101908083116100c5575b5050505050905090565b60008151600a146101325760405162461bcd60e51b8152602060048201526014602482015273092dcecc2d8d2c840e0e4dedecc40d8cadccee8d60631b60448201526064015b60405180910390fd5b82546010146101775760405162461bcd60e51b8152602060048201526011602482015270092dcecc2d8d2c840ecd640d8cadccee8d607b1b6044820152606401610129565b60006040518060400160405280846000815181106101a557634e487b7160e01b600052603260045260246000fd5b60200260200101518152602001846001815181106101d357634e487b7160e01b600052603260045260246000fd5b60200260200101518152509050600060405180608001604052808560028151811061020e57634e487b7160e01b600052603260045260246000fd5b602002602001015181526020018560038151811061023c57634e487b7160e01b600052603260045260246000fd5b602002602001015181526020018560048151811061026a57634e487b7160e01b600052603260045260246000fd5b602002602001015181526020018560058151811061029857634e487b7160e01b600052603260045260246000fd5b6020026020010151815250905060006040518060400160405280866006815181106102d357634e487b7160e01b600052603260045260246000fd5b602002602001015181526020018660078151811061030157634e487b7160e01b600052603260045260246000fd5b60200260200101518152509050600060405180604001604052808760088151811061033c57634e487b7160e01b600052603260045260246000fd5b602002602001015181526020018760098151811061036a57634e487b7160e01b600052603260045260246000fd5b6020026020010151815250905060006040518060400160405280896000815481106103a557634e487b7160e01b600052603260045260246000fd5b90600052602060002001548152602001896001815481106103d657634e487b7160e01b600052603260045260246000fd5b90600052602060002001548152509050600060405180608001604052808a60028154811061041457634e487b7160e01b600052603260045260246000fd5b906000526020600020015481526020018a60038154811061044557634e487b7160e01b600052603260045260246000fd5b906000526020600020015481526020018a60048154811061047657634e487b7160e01b600052603260045260246000fd5b906000526020600020015481526020018a6005815481106104a757634e487b7160e01b600052603260045260246000fd5b90600052602060002001548152509050600060405180608001604052808b6006815481106104e557634e487b7160e01b600052603260045260246000fd5b906000526020600020015481526020018b60078154811061051657634e487b7160e01b600052603260045260246000fd5b906000526020600020015481526020018b60088154811061054757634e487b7160e01b600052603260045260246000fd5b906000526020600020015481526020018b60098154811061057857634e487b7160e01b600052603260045260246000fd5b90600052602060002001548152509050600060405180604001604052808c600a815481106105b657634e487b7160e01b600052603260045260246000fd5b906000526020600020015481526020018c600b815481106105e757634e487b7160e01b600052603260045260246000fd5b90600052602060002001548152509050600060405180608001604052808d600c8154811061062557634e487b7160e01b600052603260045260246000fd5b906000526020600020015481526020018d600d8154811061065657634e487b7160e01b600052603260045260246000fd5b906000526020600020015481526020018d600e8154811061068757634e487b7160e01b600052603260045260246000fd5b906000526020600020015481526020018d600f815481106106b857634e487b7160e01b600052603260045260246000fd5b9060005260206000200154815250905060006106d487846106f7565b90506106e68a8a88888c8987896107d2565b9d9c50505050505050505050505050565b6040805180820190915260008082526020820152610713610e3e565b83518152602080850151818301528351604080840191909152908401516060830152600090836080848460066107d05a03f19050806107ca5760405162461bcd60e51b815260206004820152604760248201527f43616c6c20746f2074686520626e32353641646420707265636f6d70696c656460448201527f206661696c6564202870726f6261626c7920616e206f7574206f6620676173206064820152666572726f723f2960c81b608482015260a401610129565b505092915050565b60408051600480825260a08201909252600091829190816020015b60408051808201909152600080825260208201528152602001906001900390816107ed57505060408051600480825260a0820190925291925060009190602082015b61085a6040518060800160405280600081526020016000815260200160008152602001600081525090565b81526020019060019003908161082f5790505090508a8260008151811061089157634e487b7160e01b600052603260045260246000fd5b602002602001018190525088826001815181106108be57634e487b7160e01b600052603260045260246000fd5b602002602001018190525086826002815181106108eb57634e487b7160e01b600052603260045260246000fd5b6020026020010181905250848260038151811061091857634e487b7160e01b600052603260045260246000fd5b6020026020010181905250898160008151811061094557634e487b7160e01b600052603260045260246000fd5b6020026020010181905250878160018151811061097257634e487b7160e01b600052603260045260246000fd5b6020026020010181905250858160028151811061099f57634e487b7160e01b600052603260045260246000fd5b602002602001018190525083816003815181106109cc57634e487b7160e01b600052603260045260246000fd5b60200260200101819052506109e182826109f0565b9b9a5050505050505050505050565b60008151835114610a6b576040805162461bcd60e51b81526020600482015260248101919091527f4d69736d61746368206265747765656e20746865206e756d626572206f66206560448201527f6c656d656e747320696e20473120616e6420656c656d656e747320696e2047326064820152608401610129565b82516000610a7a826006610f95565b905060008167ffffffffffffffff811115610aa557634e487b7160e01b600052604160045260246000fd5b604051908082528060200260200182016040528015610ace578160200160208202803683370190505b50905060005b83811015610d8757868181518110610afc57634e487b7160e01b600052603260045260246000fd5b60200260200101516000015182826006610b169190610f95565b610b21906000610f7d565b81518110610b3f57634e487b7160e01b600052603260045260246000fd5b602002602001018181525050868181518110610b6b57634e487b7160e01b600052603260045260246000fd5b60200260200101516020015182826006610b859190610f95565b610b90906001610f7d565b81518110610bae57634e487b7160e01b600052603260045260246000fd5b602002602001018181525050858181518110610bda57634e487b7160e01b600052603260045260246000fd5b60200260200101516000015182826006610bf49190610f95565b610bff906002610f7d565b81518110610c1d57634e487b7160e01b600052603260045260246000fd5b602002602001018181525050858181518110610c4957634e487b7160e01b600052603260045260246000fd5b60200260200101516020015182826006610c639190610f95565b610c6e906003610f7d565b81518110610c8c57634e487b7160e01b600052603260045260246000fd5b602002602001018181525050858181518110610cb857634e487b7160e01b600052603260045260246000fd5b60200260200101516040015182826006610cd29190610f95565b610cdd906004610f7d565b81518110610cfb57634e487b7160e01b600052603260045260246000fd5b602002602001018181525050858181518110610d2757634e487b7160e01b600052603260045260246000fd5b60200260200101516060015182826006610d419190610f95565b610d4c906005610f7d565b81518110610d6a57634e487b7160e01b600052603260045260246000fd5b602090810291909101015280610d7f81610fb4565b915050610ad4565b50610d90610e5c565b60006020826020860260208601600060086107d05a03f1905080610e305760405162461bcd60e51b815260206004820152604b60248201527f43616c6c20746f2074686520626e32353650616972696e6720707265636f6d7060448201527f696c6564206661696c6564202870726f6261626c7920616e206f7574206f662060648201526a676173206572726f723f2960a81b608482015260a401610129565b505115159695505050505050565b60405180608001604052806004906020820280368337509192915050565b60405180602001604052806001906020820280368337509192915050565b60006020808385031215610e8c578182fd5b823567ffffffffffffffff80821115610ea3578384fd5b818501915085601f830112610eb6578384fd5b813581811115610ec857610ec8610fe5565b838102604051601f19603f83011681018181108582111715610eec57610eec610fe5565b604052828152858101935084860182860187018a1015610f0a578788fd5b8795505b83861015610f2c578035855260019590950194938601938601610f0e565b5098975050505050505050565b6020808252825182820181905260009190848201906040850190845b81811015610f7157835183529284019291840191600101610f55565b50909695505050505050565b60008219821115610f9057610f90610fcf565b500190565b6000816000190483118215151615610faf57610faf610fcf565b500290565b6000600019821415610fc857610fc8610fcf565b5060010190565b634e487b7160e01b600052601160045260246000fd5b634e487b7160e01b600052604160045260246000fdfea2646970667358221220bdf724b3416c55742c3f7120d22d608292962c3716a0a5871f0029c222181b8f64736f6c63430008020033",
  "immutableReferences": {},
  "source": "// SPDX-License-Identifier: LGPL-3.0+\npragma solidity ^0.8.0;\n\nimport \"./ccGroth16VerifyBn128.sol\";\n\ncontract ProofOfReservesContract {\n\n    uint256[] private verifyingKey;\n\n    constructor(\n        uint256[] memory _vk\n    ) {\n        verifyingKey = _vk;\n    }\n\n    // constructor(){}\n\n    function test_verify(\n        uint256[] memory proof\n    ) \n        public\n        payable\n        returns (bool)\n    {\n        \n        return ccGroth16BN128._verify(verifyingKey, proof);\n    }\n\n    function get_vk()public view returns(uint256[] memory){\n        return verifyingKey;\n    }\n}",
  "sourcePath": "/Users/kim/Proof-of-Reserves/contract/contracts/proofOfReserves.sol",
  "compiler": {
    "name": "solc",
    "version": "0.8.2+commit.661d1103.Emscripten.clang"
  },
  "schemaVersion": "3.4.11",
  "updatedAt": "2023-05-20T08:04:06.647Z",
  "networkType": "ethereum",
  "devdoc": {
    "kind": "dev",
    "methods": {},
    "version": 1
  },
  "userdoc": {
    "kind": "user",
    "methods": {},
    "version": 1
  }
}