{
  "contractName": "ProofOfReservesContract",
  "abi": [
    {
      "inputs": [
        {
          "internalType": "uint256[]",
          "name": "_vk",
          "type": "uint256[]"
        }
      ],
      "stateMutability": "nonpayable",
      "type": "constructor"
    },
    {
      "anonymous": false,
      "inputs": [
        {
          "indexed": true,
          "internalType": "address",
          "name": "previousOwner",
          "type": "address"
        },
        {
          "indexed": true,
          "internalType": "address",
          "name": "newOwner",
          "type": "address"
        }
      ],
      "name": "OwnershipTransferred",
      "type": "event"
    },
    {
      "inputs": [],
      "name": "owner",
      "outputs": [
        {
          "internalType": "address",
          "name": "",
          "type": "address"
        }
      ],
      "stateMutability": "view",
      "type": "function"
    },
    {
      "inputs": [],
      "name": "renounceOwnership",
      "outputs": [],
      "stateMutability": "nonpayable",
      "type": "function"
    },
    {
      "inputs": [
        {
          "internalType": "address",
          "name": "newOwner",
          "type": "address"
        }
      ],
      "name": "transferOwnership",
      "outputs": [],
      "stateMutability": "nonpayable",
      "type": "function"
    },
    {
      "inputs": [
        {
          "internalType": "uint256[]",
          "name": "proof",
          "type": "uint256[]"
        }
      ],
      "name": "upload_commitment",
      "outputs": [
        {
          "internalType": "uint256",
          "name": "",
          "type": "uint256"
        }
      ],
      "stateMutability": "payable",
      "type": "function"
    },
    {
      "inputs": [
        {
          "internalType": "uint256",
          "name": "idx",
          "type": "uint256"
        },
        {
          "internalType": "uint256[]",
          "name": "proof",
          "type": "uint256[]"
        }
      ],
      "name": "update_commitment",
      "outputs": [
        {
          "internalType": "bool",
          "name": "",
          "type": "bool"
        }
      ],
      "stateMutability": "payable",
      "type": "function"
    },
    {
      "inputs": [],
      "name": "get_vk",
      "outputs": [
        {
          "internalType": "uint256[]",
          "name": "",
          "type": "uint256[]"
        }
      ],
      "stateMutability": "view",
      "type": "function"
    },
    {
      "inputs": [],
      "name": "get_all_commitments",
      "outputs": [
        {
          "components": [
            {
              "internalType": "uint256",
              "name": "X",
              "type": "uint256"
            },
            {
              "internalType": "uint256",
              "name": "Y",
              "type": "uint256"
            }
          ],
          "internalType": "struct Pairing.G1Point[]",
          "name": "",
          "type": "tuple[]"
        }
      ],
      "stateMutability": "view",
      "type": "function"
    },
    {
      "inputs": [],
      "name": "get_commitment_cnt",
      "outputs": [
        {
          "internalType": "uint256",
          "name": "",
          "type": "uint256"
        }
      ],
      "stateMutability": "view",
      "type": "function"
    },
    {
      "inputs": [],
      "name": "get_sum_of_commitments",
      "outputs": [
        {
          "components": [
            {
              "internalType": "uint256",
              "name": "X",
              "type": "uint256"
            },
            {
              "internalType": "uint256",
              "name": "Y",
              "type": "uint256"
            }
          ],
          "internalType": "struct Pairing.G1Point",
          "name": "",
          "type": "tuple"
        }
      ],
      "stateMutability": "view",
      "type": "function"
    }
  ],
  "bytecode": "0x60c06040526000608081905260a0819052600381905560048190556005553480156200002a57600080fd5b50604051620010c1380380620010c18339810160408190526200004d916200012c565b620000583362000075565b80516200006d906001906020840190620000c5565b50506200020c565b600080546001600160a01b038381166001600160a01b0319831681178455604051919092169283917f8be0079c531659141344cd1fd0a4f28419497f9722a3daafe3b4186f6b6457e09190a35050565b82805482825590600052602060002090810192821562000103579160200282015b8281111562000103578251825591602001919060010190620000e6565b506200011192915062000115565b5090565b5b8082111562000111576000815560010162000116565b600060208083850312156200013f578182fd5b82516001600160401b038082111562000156578384fd5b818501915085601f8301126200016a578384fd5b8151818111156200017f576200017f620001f6565b838102604051601f19603f83011681018181108582111715620001a657620001a6620001f6565b604052828152858101935084860182860187018a1015620001c5578788fd5b8795505b83861015620001e9578051855260019590950194938601938601620001c9565b5098975050505050505050565b634e487b7160e01b600052604160045260246000fd5b610ea5806200021c6000396000f3fe6080604052600436106100865760003560e01c80638da5cb5b116100595780638da5cb5b1461012e578063def596ef14610156578063f123b45a14610178578063f2fde38b1461019b578063f5c13593146101bb57610086565b80630651a1241461008b578063068a2253146100d6578063621a9326146100f8578063715018a614610117575b600080fd5b34801561009757600080fd5b50604080518082018252600080825260209182015281518083019092526003548252600454908201526040516100cd9190610dda565b60405180910390f35b3480156100e257600080fd5b506100eb6101ce565b6040516100cd9190610d3f565b34801561010457600080fd5b506005545b6040519081526020016100cd565b34801561012357600080fd5b5061012c610241565b005b34801561013a57600080fd5b506000546040516001600160a01b0390911681526020016100cd565b34801561016257600080fd5b5061016b610255565b6040516100cd9190610d96565b61018b610186366004610cfa565b6102ad565b60405190151581526020016100cd565b3480156101a757600080fd5b5061012c6101b6366004610c91565b61051e565b6101096101c9366004610cbf565b610597565b60606002805480602002602001604051908101604052809291908181526020016000905b82821015610238578382906000526020600020906002020160405180604001604052908160008201548152602001600182015481525050815260200190600101906101f2565b50505050905090565b61024961072a565b6102536000610784565b565b606060018054806020026020016040519081016040528092919081815260200182805480156102a357602002820191906000526020600020905b81548152602001906001019080831161028f575b5050505050905090565b60006102b761072a565b60055483106102fd5760405162461bcd60e51b815260206004820152600d60248201526c092dcecc2d8d2c840d2dcc8caf609b1b60448201526064015b60405180910390fd5b6103086001836107d4565b6103425760405162461bcd60e51b815260206004820152600b60248201526a1d995c9a599e4819985a5b60aa1b60448201526064016102f4565b60408051808201909152600080825260208201526040805180820190915260035481526004546020820152600280546103cf92916103ca918890811061039857634e487b7160e01b600052603260045260246000fd5b906000526020600020906002020160405180604001604052908160008201548152602001600182015481525050610a3d565b610adc565b9050826008815181106103f257634e487b7160e01b600052603260045260246000fd5b60200260200101516002858154811061041b57634e487b7160e01b600052603260045260246000fd5b9060005260206000209060020201600001819055508260098151811061045157634e487b7160e01b600052603260045260246000fd5b60200260200101516002858154811061047a57634e487b7160e01b600052603260045260246000fd5b906000526020600020906002020160010181905550610506600360405180604001604052908160008201548152602001600182015481525050600286815481106104d457634e487b7160e01b600052603260045260246000fd5b906000526020600020906002020160405180604001604052908160008201548152602001600182015481525050610adc565b80516003556020015160045550600190505b92915050565b61052661072a565b6001600160a01b03811661058b5760405162461bcd60e51b815260206004820152602660248201527f4f776e61626c653a206e6577206f776e657220697320746865207a65726f206160448201526564647265737360d01b60648201526084016102f4565b61059481610784565b50565b60006105a161072a565b6105ac6001836107d4565b6105e65760405162461bcd60e51b815260206004820152600b60248201526a1d995c9a599e4819985a5b60aa1b60448201526064016102f4565b600060405180604001604052808460088151811061061457634e487b7160e01b600052603260045260246000fd5b602002602001015181526020018460098151811061064257634e487b7160e01b600052603260045260246000fd5b602090810291909101810151909152600280546001810182556000829052835191027f405787fa12a823e0f2b7631cc41b3ba8828b3321ca811111fa75cd3aa3bb5ace8101829055918301517f405787fa12a823e0f2b7631cc41b3ba8828b3321ca811111fa75cd3aa3bb5acf909201919091559091501580156106c857506020810151155b156106df578051600355602081015160045561070d565b60408051808201909152600354815260045460208201526107009082610adc565b8051600355602001516004555b6005805490600061071d83610e08565b919050559150505b919050565b6000546001600160a01b031633146102535760405162461bcd60e51b815260206004820181905260248201527f4f776e61626c653a2063616c6c6572206973206e6f7420746865206f776e657260448201526064016102f4565b600080546001600160a01b038381166001600160a01b0319831681178455604051919092169283917f8be0079c531659141344cd1fd0a4f28419497f9722a3daafe3b4186f6b6457e09190a35050565b60008151600a1461081e5760405162461bcd60e51b8152602060048201526014602482015273092dcecc2d8d2c840e0e4dedecc40d8cadccee8d60631b60448201526064016102f4565b82546010146108635760405162461bcd60e51b8152602060048201526011602482015270092dcecc2d8d2c840ecd640d8cadccee8d607b1b60448201526064016102f4565b600061086d610bb7565b600060019050602085018683526020832093506101008101518352610120810151602084015250600a8301546040830152600b830154606083015260406102408301608084600060065af19050806108f75760405162461bcd60e51b815260206004820152600d60248201526c189b8c8d4d9059190819985a5b609a1b60448201526064016102f4565b60208501805183526020810151602084015260408101516040840152606081015160608401526080810151608084015260a081015160a0840152835460c0840152600184015460e0840152600284015461010084015260038401546101208401526004840154610140840152600584015461016084015260c081015161018084015260e08101516101a08401525060068301546101c083015260078301546101e083015260088301546102008301526009830154610220830152600c830154610280830152600d8301546102a0830152600e8301546102c0830152600f8301546102e083015260208261030084600060086107d05a03f11680610a305760405162461bcd60e51b8152602060048201526011602482015270189b8c8d4d94185a5c9a5b99c819985a5b607a1b60448201526064016102f4565b5051600114949350505050565b604080518082019091526000808252602082015281517f30644e72e131a029b85045b68181585d97816a916871ca8d3c208c16d87cfd4790158015610a8457506020830151155b15610aa45750506040805180820190915260008082526020820152610725565b604051806040016040528084600001518152602001828560200151610ac99190610e23565b610ad39084610df1565b90529392505050565b6040805180820190915260008082526020820152610af8610bd6565b83518152602080850151818301528351604080840191909152908401516060830152600090836080848460066107d05a03f1905080610baf5760405162461bcd60e51b815260206004820152604760248201527f43616c6c20746f2074686520626e32353641646420707265636f6d70696c656460448201527f206661696c6564202870726f6261626c7920616e206f7574206f6620676173206064820152666572726f723f2960c81b608482015260a4016102f4565b505092915050565b6040518061030001604052806018906020820280368337509192915050565b60405180608001604052806004906020820280368337509192915050565b600082601f830112610c04578081fd5b8135602067ffffffffffffffff80831115610c2157610c21610e59565b818302604051601f19603f83011681018181108482111715610c4557610c45610e59565b60405284815283810192508684018288018501891015610c63578687fd5b8692505b85831015610c85578035845292840192600192909201918401610c67565b50979650505050505050565b600060208284031215610ca2578081fd5b81356001600160a01b0381168114610cb8578182fd5b9392505050565b600060208284031215610cd0578081fd5b813567ffffffffffffffff811115610ce6578182fd5b610cf284828501610bf4565b949350505050565b60008060408385031215610d0c578081fd5b82359150602083013567ffffffffffffffff811115610d29578182fd5b610d3585828601610bf4565b9150509250929050565b602080825282518282018190526000919060409081850190868401855b82811015610d8957610d7984835180518252602090810151910152565b9284019290850190600101610d5c565b5091979650505050505050565b6020808252825182820181905260009190848201906040850190845b81811015610dce57835183529284019291840191600101610db2565b50909695505050505050565b815181526020808301519082015260408101610518565b600082821015610e0357610e03610e43565b500390565b6000600019821415610e1c57610e1c610e43565b5060010190565b600082610e3e57634e487b7160e01b81526012600452602481fd5b500690565b634e487b7160e01b600052601160045260246000fd5b634e487b7160e01b600052604160045260246000fdfea26469706673582212202c887d232e6daf7391c996f605c2429f82587b98839640b9d5637844f8867eec64736f6c63430008020033",
  "immutableReferences": {},
  "source": "// SPDX-License-Identifier: LGPL-3.0+\npragma solidity >=0.8.0;\n\nimport \"./ccGroth16VerifyBn128.sol\";\nimport \"./PairingBn128.sol\";\nimport \"@openzeppelin/contracts/access/Ownable.sol\";\n\n\ncontract ProofOfReservesContract is Ownable {\n    // G1 Point (x, y)\n    struct Commitment {\n        uint256 px;\n        uint256 py;\n    }\n\n    uint256[] private verifyingKey;\n\n    Pairing.G1Point[] commitArray;\n    Pairing.G1Point sumOfCommitment = Pairing.G1Point(0, 0);\n\n    uint256 private commitCnt = 0;\n\n    constructor(uint256[] memory _vk) {\n        verifyingKey = _vk;\n    }\n\n    // Proof :\n    //      uint256[2] A    : G_1\n    //      uint256[4] B    : G_2\n    //      uint256[2] C    : G_1\n    //      uint256[2] D    : G_1\n    function upload_commitment(\n        uint256[] memory proof\n    ) public payable onlyOwner returns (uint256) {\n        require(ccGroth16BN128._verify(verifyingKey, proof), \"verify fail\");\n\n        Pairing.G1Point memory cm = Pairing.G1Point(proof[8], proof[9]);\n        commitArray.push(cm);\n\n        if(cm.X == 0 && cm.Y == 0) { sumOfCommitment = cm; } \n        else { sumOfCommitment = Pairing.add(sumOfCommitment, cm); }\n\n        return commitCnt++;\n    }\n\n    function update_commitment(\n        uint256 idx,\n        uint256[] memory proof\n    ) public payable onlyOwner returns (bool) {\n        require(idx < commitCnt, \"Invalid index\");\n        require(ccGroth16BN128._verify(verifyingKey, proof), \"verify fail\");\n\n        Pairing.G1Point memory tmp;\n    \n        tmp = Pairing.add(\n            sumOfCommitment,\n            Pairing.negate(commitArray[idx])\n        );\n\n        commitArray[idx].X = proof[8];\n        commitArray[idx].Y = proof[9];\n\n        sumOfCommitment = Pairing.add(\n            sumOfCommitment,\n            commitArray[idx]\n        );\n        \n        return true;\n    }\n\n    function get_vk() public view returns (uint256[] memory) {\n        return verifyingKey;\n    }\n\n    function get_all_commitments() public view returns (Pairing.G1Point[] memory) {\n        return commitArray;\n    }\n\n    function get_commitment_cnt() public view returns (uint256) {\n        return commitCnt;\n    }\n\n    function get_sum_of_commitments() public view returns (Pairing.G1Point memory) {\n        return sumOfCommitment;\n    }\n}\n",
  "sourcePath": "/Users/kim/Proof-of-Reserves/contract/contracts/proofOfReserves.sol",
  "compiler": {
    "name": "solc",
    "version": "0.8.2+commit.661d1103.Emscripten.clang"
  },
  "schemaVersion": "3.4.11",
  "updatedAt": "2023-06-01T00:15:04.825Z",
  "devdoc": {
    "kind": "dev",
    "methods": {
      "owner()": {
        "details": "Returns the address of the current owner."
      },
      "renounceOwnership()": {
        "details": "Leaves the contract without owner. It will not be possible to call `onlyOwner` functions. Can only be called by the current owner. NOTE: Renouncing ownership will leave the contract without an owner, thereby disabling any functionality that is only available to the owner."
      },
      "transferOwnership(address)": {
        "details": "Transfers ownership of the contract to a new account (`newOwner`). Can only be called by the current owner."
      }
    },
    "version": 1
  },
  "userdoc": {
    "kind": "user",
    "methods": {},
    "version": 1
  }
}