{
  "contractName": "ProofOfReservesContract",
  "abi": [
    {
      "inputs": [
        {
          "internalType": "uint256[]",
          "name": "_vk",
          "type": "uint256[]"
        }
      ],
      "stateMutability": "nonpayable",
      "type": "constructor"
    },
    {
      "inputs": [
        {
          "internalType": "uint256[]",
          "name": "proof",
          "type": "uint256[]"
        }
      ],
      "name": "test_verify",
      "outputs": [
        {
          "internalType": "bool",
          "name": "",
          "type": "bool"
        }
      ],
      "stateMutability": "payable",
      "type": "function"
    },
    {
      "inputs": [
        {
          "internalType": "uint256[]",
          "name": "proof",
          "type": "uint256[]"
        }
      ],
      "name": "upload_commitment",
      "outputs": [
        {
          "internalType": "bool",
          "name": "",
          "type": "bool"
        }
      ],
      "stateMutability": "payable",
      "type": "function"
    },
    {
      "inputs": [],
      "name": "get_vk",
      "outputs": [
        {
          "internalType": "uint256[]",
          "name": "",
          "type": "uint256[]"
        }
      ],
      "stateMutability": "view",
      "type": "function"
    },
    {
      "inputs": [],
      "name": "get_all_commitments",
      "outputs": [
        {
          "components": [
            {
              "internalType": "uint256",
              "name": "px",
              "type": "uint256"
            },
            {
              "internalType": "uint256",
              "name": "py",
              "type": "uint256"
            }
          ],
          "internalType": "struct ProofOfReservesContract.Commitment[]",
          "name": "",
          "type": "tuple[]"
        }
      ],
      "stateMutability": "view",
      "type": "function"
    },
    {
      "inputs": [],
      "name": "get_commitment_cnt",
      "outputs": [
        {
          "internalType": "uint256",
          "name": "",
          "type": "uint256"
        }
      ],
      "stateMutability": "view",
      "type": "function"
    }
  ],
  "bytecode": "0x6080604052600060025534801561001557600080fd5b506040516109bc3803806109bc833981016040819052610034916100ae565b805161004790600090602084019061004e565b5050610182565b828054828255906000526020600020908101928215610089579160200282015b8281111561008957825182559160200191906001019061006e565b50610095929150610099565b5090565b5b80821115610095576000815560010161009a565b600060208083850312156100c0578182fd5b82516001600160401b03808211156100d6578384fd5b818501915085601f8301126100e9578384fd5b8151818111156100fb576100fb61016c565b838102604051601f19603f8301168101818110858211171561011f5761011f61016c565b604052828152858101935084860182860187018a101561013d578788fd5b8795505b8386101561015f578051855260019590950194938601938601610141565b5098975050505050505050565b634e487b7160e01b600052604160045260246000fd5b61082b806101916000396000f3fe60806040526004361061004a5760003560e01c8063068a22531461004f578063621a93261461007a578063853e74a114610098578063def596ef146100bb578063f5c13593146100dd575b600080fd5b34801561005b57600080fd5b506100646100f0565b6040516100719190610725565b60405180910390f35b34801561008657600080fd5b50600254604051908152602001610071565b6100ab6100a6366004610666565b610163565b6040519015158152602001610071565b3480156100c757600080fd5b506100d0610250565b6040516100719190610774565b6100ab6100eb366004610666565b6102a8565b60606001805480602002602001604051908101604052809291908181526020016000905b8282101561015a57838290600052602060002090600202016040518060400160405290816000820154815260200160018201548152505081526020019060010190610114565b50505050905090565b60408051600a8082526101608201909252600091829190602082016101408036833701905050905060005b600a8110156101fc578381815181106101b757634e487b7160e01b600052603260045260246000fd5b60200260200101518282815181106101df57634e487b7160e01b600052603260045260246000fd5b6020908102919091010152806101f4816107b8565b91505061018e565b506102086000826103de565b6102475760405162461bcd60e51b815260206004820152600b60248201526a1d995c9a599e4819985a5b60aa1b60448201526064015b60405180910390fd5b50600192915050565b6060600080548060200260200160405190810160405280929190818152602001828054801561029e57602002820191906000526020600020905b81548152602001906001019080831161028a575b5050505050905090565b60006102b56000836103de565b6102ef5760405162461bcd60e51b815260206004820152600b60248201526a1d995c9a599e4819985a5b60aa1b604482015260640161023e565b600060405180604001604052808460088151811061031d57634e487b7160e01b600052603260045260246000fd5b602002602001015181526020018460098151811061034b57634e487b7160e01b600052603260045260246000fd5b6020908102919091018101519091526001805480820182556000918252835160029182027fb10e2d527612073b26eecdfd717e6a320cf44b4afac2b0732d9fcbe2b7fa0cf6810191909155928401517fb10e2d527612073b26eecdfd717e6a320cf44b4afac2b0732d9fcbe2b7fa0cf79093019290925581549293506103d0836107b8565b909155506001949350505050565b60008151600a146104285760405162461bcd60e51b8152602060048201526014602482015273092dcecc2d8d2c840e0e4dedecc40d8cadccee8d60631b604482015260640161023e565b825460101461046d5760405162461bcd60e51b8152602060048201526011602482015270092dcecc2d8d2c840ecd640d8cadccee8d607b1b604482015260640161023e565b6000610477610647565b600060019050602085018683526020832093506101008101518352610120810151602084015250600a8301546040830152600b830154606083015260406102408301608084600060065af19050806105015760405162461bcd60e51b815260206004820152600d60248201526c189b8c8d4d9059190819985a5b609a1b604482015260640161023e565b60208501805183526020810151602084015260408101516040840152606081015160608401526080810151608084015260a081015160a0840152835460c0840152600184015460e0840152600284015461010084015260038401546101208401526004840154610140840152600584015461016084015260c081015161018084015260e08101516101a08401525060068301546101c083015260078301546101e083015260088301546102008301526009830154610220830152600c830154610280830152600d8301546102a0830152600e8301546102c0830152600f8301546102e083015260208261030084600060086107d05a03f1168061063a5760405162461bcd60e51b8152602060048201526011602482015270189b8c8d4d94185a5c9a5b99c819985a5b607a1b604482015260640161023e565b5051600114949350505050565b6040518061030001604052806018906020820280368337509192915050565b60006020808385031215610678578182fd5b823567ffffffffffffffff8082111561068f578384fd5b818501915085601f8301126106a2578384fd5b8135818111156106b4576106b46107df565b838102604051601f19603f830116810181811085821117156106d8576106d86107df565b604052828152858101935084860182860187018a10156106f6578788fd5b8795505b838610156107185780358552600195909501949386019386016106fa565b5098975050505050505050565b602080825282518282018190526000919060409081850190868401855b8281101561076757815180518552860151868501529284019290850190600101610742565b5091979650505050505050565b6020808252825182820181905260009190848201906040850190845b818110156107ac57835183529284019291840191600101610790565b50909695505050505050565b60006000198214156107d857634e487b7160e01b81526011600452602481fd5b5060010190565b634e487b7160e01b600052604160045260246000fdfea264697066735822122099cdd9e796b79593ddad9e036d9a80ae023d9de70bee2a4c47c15ab1ebffcdd864736f6c63430008020033",
  "immutableReferences": {},
  "source": "// SPDX-License-Identifier: LGPL-3.0+\npragma solidity >= 0.8.0;\n\nimport \"./ccGroth16VerifyBn128.sol\";\n\ncontract ProofOfReservesContract {\n\n    struct Commitment {\n        uint256 px;\n        uint256 py;\n    }\n\n    uint256[] private verifyingKey;\n    \n    Commitment[] commitArray;\n\n    uint256 private commitCnt=0;\n\n    constructor(\n        uint256[] memory _vk\n    ) {\n        verifyingKey = _vk;\n    }\n\n    // constructor(){}\n\n    function test_verify(\n        uint256[] memory proof\n    ) \n        public\n        payable\n        returns (bool)\n    {   \n        uint256[] memory input_proof = new uint256[](10);\n        for (uint256 i = 0 ; i < 10; i++) {\n            input_proof[i] = proof[i];\n        }\n        require(ccGroth16BN128._verify(verifyingKey, input_proof), 'verify fail');\n\n\n        return true;\n    }\n\n    function upload_commitment(\n        uint256[] memory proof\n    ) \n        public\n        payable\n        returns (bool)\n    {   \n        require(ccGroth16BN128._verify(verifyingKey, proof), 'verify fail');\n\n        Commitment memory cm = Commitment(proof[8], proof[9]);\n        commitArray.push(cm);\n        commitCnt++;\n\n        return true;\n    }\n\n    function get_vk() public view returns(uint256[] memory){\n        return verifyingKey;\n    }\n\n    function get_all_commitments() public view returns(Commitment[] memory){\n        return commitArray;\n    }\n\n    function get_commitment_cnt() public view returns(uint256){\n        return commitCnt;\n    }\n}",
  "sourcePath": "/Users/kim/Proof-of-Reserves/contract/contracts/proofOfReserves.sol",
  "compiler": {
    "name": "solc",
    "version": "0.8.2+commit.661d1103.Emscripten.clang"
  },
  "schemaVersion": "3.4.11",
  "updatedAt": "2023-05-24T01:32:09.469Z",
  "devdoc": {
    "kind": "dev",
    "methods": {},
    "version": 1
  },
  "userdoc": {
    "kind": "user",
    "methods": {},
    "version": 1
  }
}