{
  "contractName": "ProofOfReservesContract",
  "abi": [
    {
      "inputs": [
        {
          "internalType": "uint256[]",
          "name": "_vk",
          "type": "uint256[]"
        }
      ],
      "stateMutability": "nonpayable",
      "type": "constructor"
    },
    {
      "inputs": [
        {
          "internalType": "uint256[]",
          "name": "proof",
          "type": "uint256[]"
        }
      ],
      "name": "test_verify",
      "outputs": [
        {
          "internalType": "bool",
          "name": "",
          "type": "bool"
        }
      ],
      "stateMutability": "payable",
      "type": "function"
    },
    {
      "inputs": [],
      "name": "get_vk",
      "outputs": [
        {
          "internalType": "uint256[]",
          "name": "",
          "type": "uint256[]"
        }
      ],
      "stateMutability": "view",
      "type": "function"
    }
  ],
  "bytecode": "0x608060405234801561001057600080fd5b5060405161074338038061074383398101604081905261002f916100a9565b8051610042906000906020840190610049565b505061017d565b828054828255906000526020600020908101928215610084579160200282015b82811115610084578251825591602001919060010190610069565b50610090929150610094565b5090565b5b808211156100905760008155600101610095565b600060208083850312156100bb578182fd5b82516001600160401b03808211156100d1578384fd5b818501915085601f8301126100e4578384fd5b8151818111156100f6576100f6610167565b838102604051601f19603f8301168101818110858211171561011a5761011a610167565b604052828152858101935084860182860187018a1015610138578788fd5b8795505b8386101561015a57805185526001959095019493860193860161013c565b5098975050505050505050565b634e487b7160e01b600052604160045260246000fd5b6105b78061018c6000396000f3fe6080604052600436106100295760003560e01c8063853e74a11461002e578063def596ef14610056575b600080fd5b61004161003c366004610441565b610078565b60405190151581526020015b60405180910390f35b34801561006257600080fd5b5061006b610165565b60405161004d9190610500565b60408051600a8082526101608201909252600091829190602082016101408036833701905050905060005b600a811015610111578381815181106100cc57634e487b7160e01b600052603260045260246000fd5b60200260200101518282815181106100f457634e487b7160e01b600052603260045260246000fd5b60209081029190910101528061010981610544565b9150506100a3565b5061011d6000846101bd565b61015c5760405162461bcd60e51b815260206004820152600b60248201526a1d995c9a599e4819985a5b60aa1b60448201526064015b60405180910390fd5b50600192915050565b606060008054806020026020016040519081016040528092919081815260200182805480156101b357602002820191906000526020600020905b81548152602001906001019080831161019f575b5050505050905090565b60008151600a146102075760405162461bcd60e51b8152602060048201526014602482015273092dcecc2d8d2c840e0e4dedecc40d8cadccee8d60631b6044820152606401610153565b825460101461024c5760405162461bcd60e51b8152602060048201526011602482015270092dcecc2d8d2c840ecd640d8cadccee8d607b1b6044820152606401610153565b6000610256610422565b6000602085018683526020832093506101008101518352610120810151602084015250600a8301546040830152600b830154606083015260406102408301608084600060065af19050806102dc5760405162461bcd60e51b815260206004820152600d60248201526c189b8c8d4d9059190819985a5b609a1b6044820152606401610153565b60208501805183526020810151602084015260408101516040840152606081015160608401526080810151608084015260a081015160a0840152835460c0840152600184015460e0840152600284015461010084015260038401546101208401526004840154610140840152600584015461016084015260c081015161018084015260e08101516101a08401525060068301546101c083015260078301546101e083015260088301546102008301526009830154610220830152600c830154610280830152600d8301546102a0830152600e8301546102c0830152600f8301546102e083015260208261030084600060086107d05a03f19050806104165760405162461bcd60e51b8152602060048201526011602482015270189b8c8d4d94185a5c9a5b99c819985a5b607a1b6044820152606401610153565b50511515949350505050565b6040518061030001604052806018906020820280368337509192915050565b60006020808385031215610453578182fd5b823567ffffffffffffffff8082111561046a578384fd5b818501915085601f83011261047d578384fd5b81358181111561048f5761048f61056b565b838102604051601f19603f830116810181811085821117156104b3576104b361056b565b604052828152858101935084860182860187018a10156104d1578788fd5b8795505b838610156104f35780358552600195909501949386019386016104d5565b5098975050505050505050565b6020808252825182820181905260009190848201906040850190845b818110156105385783518352928401929184019160010161051c565b50909695505050505050565b600060001982141561056457634e487b7160e01b81526011600452602481fd5b5060010190565b634e487b7160e01b600052604160045260246000fdfea2646970667358221220d90fd2f8126fd64baf062494582246f82b1510e7323e86e53764058cdcfbe3b164736f6c63430008020033",
  "immutableReferences": {},
  "source": "// SPDX-License-Identifier: LGPL-3.0+\npragma solidity ^0.8.0;\n\nimport \"./ccGroth16VerifyBn128.sol\";\n\ncontract ProofOfReservesContract {\n\n    uint256[] private verifyingKey;\n\n    constructor(\n        uint256[] memory _vk\n    ) {\n        verifyingKey = _vk;\n    }\n\n    // constructor(){}\n\n    function test_verify(\n        uint256[] memory proof\n    ) \n        public\n        payable\n        returns (bool)\n    {   \n        uint256[] memory input_proof = new uint256[](10);\n        for (uint256 i = 0 ; i < 10; i++) {\n            input_proof[i] = proof[i];\n        }\n        require(ccGroth16BN128._verify(verifyingKey, proof), 'verify fail');\n        return true;\n    }\n\n    function get_vk()public view returns(uint256[] memory){\n        return verifyingKey;\n    }\n}",
  "sourcePath": "/Users/kim/Proof-of-Reserves/contract/contracts/proofOfReserves.sol",
  "compiler": {
    "name": "solc",
    "version": "0.8.2+commit.661d1103.Emscripten.clang"
  },
  "schemaVersion": "3.4.11",
  "updatedAt": "2023-05-22T11:46:29.785Z",
  "devdoc": {
    "kind": "dev",
    "methods": {},
    "version": 1
  },
  "userdoc": {
    "kind": "user",
    "methods": {},
    "version": 1
  }
}