{
  "contractName": "ProofOfReservesContract",
  "abi": [
    {
      "inputs": [
        {
          "internalType": "uint256[]",
          "name": "_vk",
          "type": "uint256[]"
        }
      ],
      "stateMutability": "nonpayable",
      "type": "constructor"
    },
    {
      "inputs": [
        {
          "internalType": "uint256[]",
          "name": "proof",
          "type": "uint256[]"
        }
      ],
      "name": "upload_commitment",
      "outputs": [
        {
          "internalType": "uint256",
          "name": "",
          "type": "uint256"
        }
      ],
      "stateMutability": "payable",
      "type": "function"
    },
    {
      "inputs": [
        {
          "internalType": "uint256",
          "name": "idx",
          "type": "uint256"
        },
        {
          "internalType": "uint256[]",
          "name": "proof",
          "type": "uint256[]"
        }
      ],
      "name": "update_commitment",
      "outputs": [
        {
          "internalType": "bool",
          "name": "",
          "type": "bool"
        }
      ],
      "stateMutability": "payable",
      "type": "function"
    },
    {
      "inputs": [],
      "name": "get_vk",
      "outputs": [
        {
          "internalType": "uint256[]",
          "name": "",
          "type": "uint256[]"
        }
      ],
      "stateMutability": "view",
      "type": "function"
    },
    {
      "inputs": [],
      "name": "get_all_commitments",
      "outputs": [
        {
          "components": [
            {
              "internalType": "uint256",
              "name": "px",
              "type": "uint256"
            },
            {
              "internalType": "uint256",
              "name": "py",
              "type": "uint256"
            }
          ],
          "internalType": "struct ProofOfReservesContract.Commitment[]",
          "name": "",
          "type": "tuple[]"
        }
      ],
      "stateMutability": "view",
      "type": "function"
    },
    {
      "inputs": [],
      "name": "get_commitment_cnt",
      "outputs": [
        {
          "internalType": "uint256",
          "name": "",
          "type": "uint256"
        }
      ],
      "stateMutability": "view",
      "type": "function"
    }
  ],
  "bytecode": "0x6080604052600060025534801561001557600080fd5b50604051610a80380380610a80833981016040819052610034916100ae565b805161004790600090602084019061004e565b5050610182565b828054828255906000526020600020908101928215610089579160200282015b8281111561008957825182559160200191906001019061006e565b50610095929150610099565b5090565b5b80821115610095576000815560010161009a565b600060208083850312156100c0578182fd5b82516001600160401b03808211156100d6578384fd5b818501915085601f8301126100e9578384fd5b8151818111156100fb576100fb61016c565b838102604051601f19603f8301168101818110858211171561011f5761011f61016c565b604052828152858101935084860182860187018a101561013d578788fd5b8795505b8386101561015f578051855260019590950194938601938601610141565b5098975050505050505050565b634e487b7160e01b600052604160045260246000fd5b6108ef806101916000396000f3fe60806040526004361061004a5760003560e01c8063068a22531461004f578063621a93261461007a578063def596ef14610099578063f123b45a146100bb578063f5c13593146100de575b600080fd5b34801561005b57600080fd5b506100646100f1565b60405161007191906107e9565b60405180910390f35b34801561008657600080fd5b506002545b604051908152602001610071565b3480156100a557600080fd5b506100ae610164565b6040516100719190610838565b6100ce6100c93660046107a4565b6101bc565b6040519015158152602001610071565b61008b6100ec366004610769565b610311565b60606001805480602002602001604051908101604052809291908181526020016000905b8282101561015b57838290600052602060002090600202016040518060400160405290816000820154815260200160018201548152505081526020019060010190610115565b50505050905090565b606060008054806020026020016040519081016040528092919081815260200182805480156101b257602002820191906000526020600020905b81548152602001906001019080831161019e575b5050505050905090565b600060025483106102045760405162461bcd60e51b815260206004820152600d60248201526c092dcecc2d8d2c840d2dcc8caf609b1b60448201526064015b60405180910390fd5b61020f600083610444565b6102495760405162461bcd60e51b815260206004820152600b60248201526a1d995c9a599e4819985a5b60aa1b60448201526064016101fb565b8160088151811061026a57634e487b7160e01b600052603260045260246000fd5b60200260200101516001848154811061029357634e487b7160e01b600052603260045260246000fd5b906000526020600020906002020160000181905550816009815181106102c957634e487b7160e01b600052603260045260246000fd5b6020026020010151600184815481106102f257634e487b7160e01b600052603260045260246000fd5b9060005260206000209060020201600101819055506001905092915050565b600061031e600083610444565b6103585760405162461bcd60e51b815260206004820152600b60248201526a1d995c9a599e4819985a5b60aa1b60448201526064016101fb565b600060405180604001604052808460088151811061038657634e487b7160e01b600052603260045260246000fd5b60200260200101518152602001846009815181106103b457634e487b7160e01b600052603260045260246000fd5b6020908102919091018101519091526001805480820182556000918252835160029182027fb10e2d527612073b26eecdfd717e6a320cf44b4afac2b0732d9fcbe2b7fa0cf6810191909155928401517fb10e2d527612073b26eecdfd717e6a320cf44b4afac2b0732d9fcbe2b7fa0cf79093019290925581549293506104398361087c565b909155509392505050565b60008151600a1461048e5760405162461bcd60e51b8152602060048201526014602482015273092dcecc2d8d2c840e0e4dedecc40d8cadccee8d60631b60448201526064016101fb565b82546010146104d35760405162461bcd60e51b8152602060048201526011602482015270092dcecc2d8d2c840ecd640d8cadccee8d607b1b60448201526064016101fb565b60006104dd6106ad565b600060019050602085018683526020832093506101008101518352610120810151602084015250600a8301546040830152600b830154606083015260406102408301608084600060065af19050806105675760405162461bcd60e51b815260206004820152600d60248201526c189b8c8d4d9059190819985a5b609a1b60448201526064016101fb565b60208501805183526020810151602084015260408101516040840152606081015160608401526080810151608084015260a081015160a0840152835460c0840152600184015460e0840152600284015461010084015260038401546101208401526004840154610140840152600584015461016084015260c081015161018084015260e08101516101a08401525060068301546101c083015260078301546101e083015260088301546102008301526009830154610220830152600c830154610280830152600d8301546102a0830152600e8301546102c0830152600f8301546102e083015260208261030084600060086107d05a03f116806106a05760405162461bcd60e51b8152602060048201526011602482015270189b8c8d4d94185a5c9a5b99c819985a5b607a1b60448201526064016101fb565b5051600114949350505050565b6040518061030001604052806018906020820280368337509192915050565b600082601f8301126106dc578081fd5b8135602067ffffffffffffffff808311156106f9576106f96108a3565b818302604051601f19603f8301168101818110848211171561071d5761071d6108a3565b6040528481528381019250868401828801850189101561073b578687fd5b8692505b8583101561075d57803584529284019260019290920191840161073f565b50979650505050505050565b60006020828403121561077a578081fd5b813567ffffffffffffffff811115610790578182fd5b61079c848285016106cc565b949350505050565b600080604083850312156107b6578081fd5b82359150602083013567ffffffffffffffff8111156107d3578182fd5b6107df858286016106cc565b9150509250929050565b602080825282518282018190526000919060409081850190868401855b8281101561082b57815180518552860151868501529284019290850190600101610806565b5091979650505050505050565b6020808252825182820181905260009190848201906040850190845b8181101561087057835183529284019291840191600101610854565b50909695505050505050565b600060001982141561089c57634e487b7160e01b81526011600452602481fd5b5060010190565b634e487b7160e01b600052604160045260246000fdfea26469706673582212200359f1d66e5512eb1d2b408ddf72d8afdab69ad7268adcdd94e206fa6caee8cb64736f6c63430008020033",
  "immutableReferences": {},
  "source": "// SPDX-License-Identifier: LGPL-3.0+\npragma solidity >=0.8.0;\n\nimport \"./ccGroth16VerifyBn128.sol\";\n\ncontract ProofOfReservesContract {\n    // G1 Point (x, y)\n    struct Commitment {\n        uint256 px;\n        uint256 py;\n    }\n\n    uint256[] private verifyingKey;\n\n    Commitment[] commitArray;\n\n    uint256 private commitCnt = 0;\n\n    constructor(uint256[] memory _vk) {\n        verifyingKey = _vk;\n    }\n\n    // Proof :\n    //      uint256[2] A    : G_1\n    //      uint256[4] B    : G_2\n    //      uint256[2] C    : G_1\n    //      uint256[2] D    : G_1\n    function upload_commitment(\n        uint256[] memory proof\n    ) public payable returns (uint256) {\n        require(ccGroth16BN128._verify(verifyingKey, proof), \"verify fail\");\n\n        Commitment memory cm = Commitment(proof[8], proof[9]);\n        commitArray.push(cm);\n        return commitCnt++;\n    }\n\n    function update_commitment(\n        uint256 idx,\n        uint256[] memory proof\n    ) public payable returns (bool) {\n        require(idx < commitCnt, \"Invalid index\");\n        require(ccGroth16BN128._verify(verifyingKey, proof), \"verify fail\");\n\n        commitArray[idx].px = proof[8];\n        commitArray[idx].py = proof[9];\n        return true;\n    }\n\n    function get_vk() public view returns (uint256[] memory) {\n        return verifyingKey;\n    }\n\n    function get_all_commitments() public view returns (Commitment[] memory) {\n        return commitArray;\n    }\n\n    function get_commitment_cnt() public view returns (uint256) {\n        return commitCnt;\n    }\n}\n",
  "sourcePath": "/Users/kim/Proof-of-Reserves/contract/contracts/proofOfReserves.sol",
  "compiler": {
    "name": "solc",
    "version": "0.8.2+commit.661d1103.Emscripten.clang"
  },
  "schemaVersion": "3.4.14",
  "updatedAt": "2023-05-25T10:42:57.894Z",
  "devdoc": {
    "kind": "dev",
    "methods": {},
    "version": 1
  },
  "userdoc": {
    "kind": "user",
    "methods": {},
    "version": 1
  }
}