{
  "contractName": "ProofOfReservesContract",
  "abi": [
    {
      "inputs": [
        {
          "internalType": "uint256[]",
          "name": "_vk",
          "type": "uint256[]"
        }
      ],
      "stateMutability": "nonpayable",
      "type": "constructor"
    },
    {
      "inputs": [
        {
          "internalType": "uint256[]",
          "name": "proof",
          "type": "uint256[]"
        }
      ],
      "name": "upload_commitment",
      "outputs": [
        {
          "internalType": "bool",
          "name": "",
          "type": "bool"
        }
      ],
      "stateMutability": "payable",
      "type": "function"
    },
    {
      "inputs": [],
      "name": "get_vk",
      "outputs": [
        {
          "internalType": "uint256[]",
          "name": "",
          "type": "uint256[]"
        }
      ],
      "stateMutability": "view",
      "type": "function"
    },
    {
      "inputs": [],
      "name": "get_all_commitments",
      "outputs": [
        {
          "components": [
            {
              "internalType": "uint256",
              "name": "px",
              "type": "uint256"
            },
            {
              "internalType": "uint256",
              "name": "py",
              "type": "uint256"
            }
          ],
          "internalType": "struct ProofOfReservesContract.Commitment[]",
          "name": "",
          "type": "tuple[]"
        }
      ],
      "stateMutability": "view",
      "type": "function"
    },
    {
      "inputs": [],
      "name": "get_commitment_cnt",
      "outputs": [
        {
          "internalType": "uint256",
          "name": "",
          "type": "uint256"
        }
      ],
      "stateMutability": "view",
      "type": "function"
    }
  ],
  "bytecode": "0x6080604052600060025534801561001557600080fd5b506040516108b63803806108b6833981016040819052610034916100ae565b805161004790600090602084019061004e565b5050610182565b828054828255906000526020600020908101928215610089579160200282015b8281111561008957825182559160200191906001019061006e565b50610095929150610099565b5090565b5b80821115610095576000815560010161009a565b600060208083850312156100c0578182fd5b82516001600160401b03808211156100d6578384fd5b818501915085601f8301126100e9578384fd5b8151818111156100fb576100fb61016c565b838102604051601f19603f8301168101818110858211171561011f5761011f61016c565b604052828152858101935084860182860187018a101561013d578788fd5b8795505b8386101561015f578051855260019590950194938601938601610141565b5098975050505050505050565b634e487b7160e01b600052604160045260246000fd5b610725806101916000396000f3fe60806040526004361061003f5760003560e01c8063068a225314610044578063621a93261461006f578063def596ef1461008d578063f5c13593146100af575b600080fd5b34801561005057600080fd5b506100596100d2565b604051610066919061061f565b60405180910390f35b34801561007b57600080fd5b50600254604051908152602001610066565b34801561009957600080fd5b506100a2610145565b604051610066919061066e565b6100c26100bd366004610560565b61019d565b6040519015158152602001610066565b60606001805480602002602001604051908101604052809291908181526020016000905b8282101561013c578382906000526020600020906002020160405180604001604052908160008201548152602001600182015481525050815260200190600101906100f6565b50505050905090565b6060600080548060200260200160405190810160405280929190818152602001828054801561019357602002820191906000526020600020905b81548152602001906001019080831161017f575b5050505050905090565b60006101aa6000836102d8565b6101e95760405162461bcd60e51b815260206004820152600b60248201526a1d995c9a599e4819985a5b60aa1b60448201526064015b60405180910390fd5b600060405180604001604052808460088151811061021757634e487b7160e01b600052603260045260246000fd5b602002602001015181526020018460098151811061024557634e487b7160e01b600052603260045260246000fd5b6020908102919091018101519091526001805480820182556000918252835160029182027fb10e2d527612073b26eecdfd717e6a320cf44b4afac2b0732d9fcbe2b7fa0cf6810191909155928401517fb10e2d527612073b26eecdfd717e6a320cf44b4afac2b0732d9fcbe2b7fa0cf79093019290925581549293506102ca836106b2565b909155506001949350505050565b60008151600a146103225760405162461bcd60e51b8152602060048201526014602482015273092dcecc2d8d2c840e0e4dedecc40d8cadccee8d60631b60448201526064016101e0565b82546010146103675760405162461bcd60e51b8152602060048201526011602482015270092dcecc2d8d2c840ecd640d8cadccee8d607b1b60448201526064016101e0565b6000610371610541565b600060019050602085018683526020832093506101008101518352610120810151602084015250600a8301546040830152600b830154606083015260406102408301608084600060065af19050806103fb5760405162461bcd60e51b815260206004820152600d60248201526c189b8c8d4d9059190819985a5b609a1b60448201526064016101e0565b60208501805183526020810151602084015260408101516040840152606081015160608401526080810151608084015260a081015160a0840152835460c0840152600184015460e0840152600284015461010084015260038401546101208401526004840154610140840152600584015461016084015260c081015161018084015260e08101516101a08401525060068301546101c083015260078301546101e083015260088301546102008301526009830154610220830152600c830154610280830152600d8301546102a0830152600e8301546102c0830152600f8301546102e083015260208261030084600060086107d05a03f116806105345760405162461bcd60e51b8152602060048201526011602482015270189b8c8d4d94185a5c9a5b99c819985a5b607a1b60448201526064016101e0565b5051600114949350505050565b6040518061030001604052806018906020820280368337509192915050565b60006020808385031215610572578182fd5b823567ffffffffffffffff80821115610589578384fd5b818501915085601f83011261059c578384fd5b8135818111156105ae576105ae6106d9565b838102604051601f19603f830116810181811085821117156105d2576105d26106d9565b604052828152858101935084860182860187018a10156105f0578788fd5b8795505b838610156106125780358552600195909501949386019386016105f4565b5098975050505050505050565b602080825282518282018190526000919060409081850190868401855b828110156106615781518051855286015186850152928401929085019060010161063c565b5091979650505050505050565b6020808252825182820181905260009190848201906040850190845b818110156106a65783518352928401929184019160010161068a565b50909695505050505050565b60006000198214156106d257634e487b7160e01b81526011600452602481fd5b5060010190565b634e487b7160e01b600052604160045260246000fdfea264697066735822122019d21152d64a39cb25817daf634914c991fcde3a7d76768b096f8fbf0168bfdd64736f6c63430008020033",
  "immutableReferences": {},
  "source": "// SPDX-License-Identifier: LGPL-3.0+\npragma solidity >=0.8.0;\n\nimport \"./ccGroth16VerifyBn128.sol\";\n\ncontract ProofOfReservesContract {\n    // G1 Point (x, y)\n    struct Commitment {\n        uint256 px;\n        uint256 py;\n    }\n\n    uint256[] private verifyingKey;\n\n    Commitment[] commitArray;\n\n    uint256 private commitCnt = 0;\n\n    constructor(uint256[] memory _vk) {\n        verifyingKey = _vk;\n    }\n\n    function upload_commitment(\n        uint256[] memory proof\n    ) public payable returns (bool) {\n        require(ccGroth16BN128._verify(verifyingKey, proof), \"verify fail\");\n\n        Commitment memory cm = Commitment(proof[8], proof[9]);\n        commitArray.push(cm);\n        commitCnt++;\n\n        return true;\n    }\n\n    function get_vk() public view returns (uint256[] memory) {\n        return verifyingKey;\n    }\n\n    function get_all_commitments() public view returns (Commitment[] memory) {\n        return commitArray;\n    }\n\n    function get_commitment_cnt() public view returns (uint256) {\n        return commitCnt;\n    }\n}\n",
  "sourcePath": "/Users/kim/Proof-of-Reserves/contract/contracts/proofOfReserves.sol",
  "compiler": {
    "name": "solc",
    "version": "0.8.2+commit.661d1103.Emscripten.clang"
  },
  "schemaVersion": "3.4.14",
  "updatedAt": "2023-05-24T03:25:18.139Z",
  "devdoc": {
    "kind": "dev",
    "methods": {},
    "version": 1
  },
  "userdoc": {
    "kind": "user",
    "methods": {},
    "version": 1
  }
}