{
	"contracts/PoKE.sol": {
		"PoKESigmaProtocol": {
			"abi": [
				{
					"inputs": [
						{
							"internalType": "uint256[2]",
							"name": "_g",
							"type": "uint256[2]"
						},
						{
							"internalType": "uint256[2]",
							"name": "_h",
							"type": "uint256[2]"
						},
						{
							"internalType": "address",
							"name": "_proofOfReserversAddr",
							"type": "address"
						}
					],
					"stateMutability": "nonpayable",
					"type": "constructor"
				},
				{
					"inputs": [
						{
							"internalType": "uint256",
							"name": "value",
							"type": "uint256"
						}
					],
					"name": "calc_y",
					"outputs": [
						{
							"components": [
								{
									"internalType": "uint256",
									"name": "X",
									"type": "uint256"
								},
								{
									"internalType": "uint256",
									"name": "Y",
									"type": "uint256"
								}
							],
							"internalType": "struct Pairing.G1Point",
							"name": "",
							"type": "tuple"
						}
					],
					"stateMutability": "payable",
					"type": "function"
				},
				{
					"inputs": [
						{
							"internalType": "uint256",
							"name": "value",
							"type": "uint256"
						},
						{
							"internalType": "uint256[2]",
							"name": "t",
							"type": "uint256[2]"
						}
					],
					"name": "clac_c",
					"outputs": [
						{
							"internalType": "uint256[2]",
							"name": "",
							"type": "uint256[2]"
						}
					],
					"stateMutability": "payable",
					"type": "function"
				},
				{
					"inputs": [],
					"name": "g",
					"outputs": [
						{
							"internalType": "uint256",
							"name": "X",
							"type": "uint256"
						},
						{
							"internalType": "uint256",
							"name": "Y",
							"type": "uint256"
						}
					],
					"stateMutability": "view",
					"type": "function"
				},
				{
					"inputs": [],
					"name": "get_sum_of_commitments",
					"outputs": [
						{
							"components": [
								{
									"internalType": "uint256",
									"name": "X",
									"type": "uint256"
								},
								{
									"internalType": "uint256",
									"name": "Y",
									"type": "uint256"
								}
							],
							"internalType": "struct Pairing.G1Point",
							"name": "",
							"type": "tuple"
						}
					],
					"stateMutability": "payable",
					"type": "function"
				},
				{
					"inputs": [],
					"name": "h",
					"outputs": [
						{
							"internalType": "uint256",
							"name": "X",
							"type": "uint256"
						},
						{
							"internalType": "uint256",
							"name": "Y",
							"type": "uint256"
						}
					],
					"stateMutability": "view",
					"type": "function"
				},
				{
					"inputs": [
						{
							"internalType": "uint256",
							"name": "value",
							"type": "uint256"
						},
						{
							"internalType": "uint256[3]",
							"name": "_proof",
							"type": "uint256[3]"
						}
					],
					"name": "verify",
					"outputs": [
						{
							"internalType": "bool",
							"name": "",
							"type": "bool"
						}
					],
					"stateMutability": "payable",
					"type": "function"
				}
			],
			"devdoc": {
				"kind": "dev",
				"methods": {},
				"version": 1
			},
			"evm": {
				"assembly": "    /* \"contracts/PoKE.sol\":182:2662  contract PoKESigmaProtocol {... */\n  mstore(0x40, 0x80)\n    /* \"contracts/PoKE.sol\":383:646  constructor(... */\n  callvalue\n  dup1\n  iszero\n  tag_1\n  jumpi\n  0x00\n  dup1\n  revert\ntag_1:\n  pop\n  mload(0x40)\n  sub(codesize, bytecodeSize)\n  dup1\n  bytecodeSize\n  dup4\n  codecopy\n  dup2\n  dup2\n  add\n  0x40\n  mstore\n  dup2\n  add\n  swap1\n  tag_2\n  swap2\n  swap1\n  tag_3\n  jump\t// in\ntag_2:\n    /* \"contracts/PoKE.sol\":516:518  _g */\n  dup3\n    /* \"contracts/PoKE.sol\":519:520  0 */\n  0x00\n    /* \"contracts/PoKE.sol\":516:521  _g[0] */\n  0x02\n  dup2\n  lt\n  tag_6\n  jumpi\n  tag_7\n  tag_8\n  jump\t// in\ntag_7:\ntag_6:\n  0x20\n  mul\n  add\n  mload\n    /* \"contracts/PoKE.sol\":510:511  g */\n  0x00\n    /* \"contracts/PoKE.sol\":510:513  g.X */\n  dup1\n  add\n    /* \"contracts/PoKE.sol\":510:521  g.X = _g[0] */\n  dup2\n  swap1\n  sstore\n  pop\n    /* \"contracts/PoKE.sol\":537:539  _g */\n  dup3\n    /* \"contracts/PoKE.sol\":540:541  1 */\n  0x01\n    /* \"contracts/PoKE.sol\":537:542  _g[1] */\n  0x02\n  dup2\n  lt\n  tag_9\n  jumpi\n  tag_10\n  tag_8\n  jump\t// in\ntag_10:\ntag_9:\n  0x20\n  mul\n  add\n  mload\n    /* \"contracts/PoKE.sol\":531:532  g */\n  0x00\n    /* \"contracts/PoKE.sol\":531:534  g.Y */\n  0x01\n  add\n    /* \"contracts/PoKE.sol\":531:542  g.Y = _g[1] */\n  dup2\n  swap1\n  sstore\n  pop\n    /* \"contracts/PoKE.sol\":558:560  _h */\n  dup2\n    /* \"contracts/PoKE.sol\":561:562  0 */\n  0x00\n    /* \"contracts/PoKE.sol\":558:563  _h[0] */\n  0x02\n  dup2\n  lt\n  tag_11\n  jumpi\n  tag_12\n  tag_8\n  jump\t// in\ntag_12:\ntag_11:\n  0x20\n  mul\n  add\n  mload\n    /* \"contracts/PoKE.sol\":552:553  h */\n  0x02\n    /* \"contracts/PoKE.sol\":552:555  h.X */\n  0x00\n  add\n    /* \"contracts/PoKE.sol\":552:563  h.X = _h[0] */\n  dup2\n  swap1\n  sstore\n  pop\n    /* \"contracts/PoKE.sol\":579:581  _h */\n  dup2\n    /* \"contracts/PoKE.sol\":582:583  1 */\n  0x01\n    /* \"contracts/PoKE.sol\":579:584  _h[1] */\n  0x02\n  dup2\n  lt\n  tag_13\n  jumpi\n  tag_14\n  tag_8\n  jump\t// in\ntag_14:\ntag_13:\n  0x20\n  mul\n  add\n  mload\n    /* \"contracts/PoKE.sol\":573:574  h */\n  0x02\n    /* \"contracts/PoKE.sol\":573:576  h.Y */\n  0x01\n  add\n    /* \"contracts/PoKE.sol\":573:584  h.Y = _h[1] */\n  dup2\n  swap1\n  sstore\n  pop\n    /* \"contracts/PoKE.sol\":618:639  _proofOfReserversAddr */\n  dup1\n    /* \"contracts/PoKE.sol\":595:615  proofOfReserversAddr */\n  0x04\n  0x00\n    /* \"contracts/PoKE.sol\":595:639  proofOfReserversAddr = _proofOfReserversAddr */\n  0x0100\n  exp\n  dup2\n  sload\n  dup2\n  0xffffffffffffffffffffffffffffffffffffffff\n  mul\n  not\n  and\n  swap1\n  dup4\n  0xffffffffffffffffffffffffffffffffffffffff\n  and\n  mul\n  or\n  swap1\n  sstore\n  pop\n    /* \"contracts/PoKE.sol\":383:646  constructor(... */\n  pop\n  pop\n  pop\n    /* \"contracts/PoKE.sol\":182:2662  contract PoKESigmaProtocol {... */\n  jump(tag_15)\n    /* \"#utility.yul\":25:702   */\ntag_17:\n    /* \"#utility.yul\":130:135   */\n  0x00\n    /* \"#utility.yul\":155:234   */\n  tag_19\n    /* \"#utility.yul\":171:233   */\n  tag_20\n    /* \"#utility.yul\":226:232   */\n  dup5\n    /* \"#utility.yul\":171:233   */\n  tag_21\n  jump\t// in\ntag_20:\n    /* \"#utility.yul\":155:234   */\n  tag_22\n  jump\t// in\ntag_19:\n    /* \"#utility.yul\":146:234   */\n  swap1\n  pop\n    /* \"#utility.yul\":254:259   */\n  dup1\n    /* \"#utility.yul\":280:286   */\n  dup3\n    /* \"#utility.yul\":330:333   */\n  dup6\n    /* \"#utility.yul\":322:326   */\n  0x20\n    /* \"#utility.yul\":314:320   */\n  dup7\n    /* \"#utility.yul\":310:327   */\n  mul\n    /* \"#utility.yul\":305:308   */\n  dup3\n    /* \"#utility.yul\":301:328   */\n  add\n    /* \"#utility.yul\":298:334   */\n  gt\n    /* \"#utility.yul\":295:438   */\n  iszero\n  tag_23\n  jumpi\n    /* \"#utility.yul\":349:428   */\n  tag_24\n  tag_25\n  jump\t// in\ntag_24:\n    /* \"#utility.yul\":295:438   */\ntag_23:\n    /* \"#utility.yul\":462:463   */\n  0x00\n    /* \"#utility.yul\":447:696   */\ntag_26:\n    /* \"#utility.yul\":472:478   */\n  dup6\n    /* \"#utility.yul\":469:470   */\n  dup2\n    /* \"#utility.yul\":466:479   */\n  lt\n    /* \"#utility.yul\":447:696   */\n  iszero\n  tag_28\n  jumpi\n    /* \"#utility.yul\":540:543   */\n  dup2\n    /* \"#utility.yul\":569:617   */\n  tag_29\n    /* \"#utility.yul\":613:616   */\n  dup9\n    /* \"#utility.yul\":601:611   */\n  dup3\n    /* \"#utility.yul\":569:617   */\n  tag_30\n  jump\t// in\ntag_29:\n    /* \"#utility.yul\":564:567   */\n  dup5\n    /* \"#utility.yul\":557:618   */\n  mstore\n    /* \"#utility.yul\":647:651   */\n  0x20\n    /* \"#utility.yul\":642:645   */\n  dup5\n    /* \"#utility.yul\":638:652   */\n  add\n    /* \"#utility.yul\":631:652   */\n  swap4\n  pop\n    /* \"#utility.yul\":681:685   */\n  0x20\n    /* \"#utility.yul\":676:679   */\n  dup4\n    /* \"#utility.yul\":672:686   */\n  add\n    /* \"#utility.yul\":665:686   */\n  swap3\n  pop\n    /* \"#utility.yul\":507:696   */\n  pop\n    /* \"#utility.yul\":494:495   */\n  0x01\n    /* \"#utility.yul\":491:492   */\n  dup2\n    /* \"#utility.yul\":487:496   */\n  add\n    /* \"#utility.yul\":482:496   */\n  swap1\n  pop\n    /* \"#utility.yul\":447:696   */\n  jump(tag_26)\ntag_28:\n    /* \"#utility.yul\":451:465   */\n  pop\n    /* \"#utility.yul\":136:702   */\n  pop\n  pop\n    /* \"#utility.yul\":25:702   */\n  swap4\n  swap3\n  pop\n  pop\n  pop\n  jump\t// out\n    /* \"#utility.yul\":708:851   */\ntag_31:\n    /* \"#utility.yul\":765:770   */\n  0x00\n    /* \"#utility.yul\":796:802   */\n  dup2\n    /* \"#utility.yul\":790:803   */\n  mload\n    /* \"#utility.yul\":781:803   */\n  swap1\n  pop\n    /* \"#utility.yul\":812:845   */\n  tag_33\n    /* \"#utility.yul\":839:844   */\n  dup2\n    /* \"#utility.yul\":812:845   */\n  tag_34\n  jump\t// in\ntag_33:\n    /* \"#utility.yul\":708:851   */\n  swap3\n  swap2\n  pop\n  pop\n  jump\t// out\n    /* \"#utility.yul\":875:1236   */\ntag_35:\n    /* \"#utility.yul\":955:960   */\n  0x00\n    /* \"#utility.yul\":1004:1007   */\n  dup3\n    /* \"#utility.yul\":997:1001   */\n  0x1f\n    /* \"#utility.yul\":989:995   */\n  dup4\n    /* \"#utility.yul\":985:1002   */\n  add\n    /* \"#utility.yul\":981:1008   */\n  slt\n    /* \"#utility.yul\":971:1093   */\n  tag_37\n  jumpi\n    /* \"#utility.yul\":1012:1091   */\n  tag_38\n  tag_39\n  jump\t// in\ntag_38:\n    /* \"#utility.yul\":971:1093   */\ntag_37:\n    /* \"#utility.yul\":1116:1120   */\n  0x02\n    /* \"#utility.yul\":1138:1230   */\n  tag_40\n    /* \"#utility.yul\":1226:1229   */\n  dup5\n    /* \"#utility.yul\":1218:1224   */\n  dup3\n    /* \"#utility.yul\":1210:1216   */\n  dup6\n    /* \"#utility.yul\":1138:1230   */\n  tag_17\n  jump\t// in\ntag_40:\n    /* \"#utility.yul\":1129:1230   */\n  swap2\n  pop\n    /* \"#utility.yul\":961:1236   */\n  pop\n    /* \"#utility.yul\":875:1236   */\n  swap3\n  swap2\n  pop\n  pop\n  jump\t// out\n    /* \"#utility.yul\":1242:1385   */\ntag_30:\n    /* \"#utility.yul\":1299:1304   */\n  0x00\n    /* \"#utility.yul\":1330:1336   */\n  dup2\n    /* \"#utility.yul\":1324:1337   */\n  mload\n    /* \"#utility.yul\":1315:1337   */\n  swap1\n  pop\n    /* \"#utility.yul\":1346:1379   */\n  tag_42\n    /* \"#utility.yul\":1373:1378   */\n  dup2\n    /* \"#utility.yul\":1346:1379   */\n  tag_43\n  jump\t// in\ntag_42:\n    /* \"#utility.yul\":1242:1385   */\n  swap3\n  swap2\n  pop\n  pop\n  jump\t// out\n    /* \"#utility.yul\":1391:2148   */\ntag_3:\n    /* \"#utility.yul\":1525:1531   */\n  0x00\n    /* \"#utility.yul\":1533:1539   */\n  dup1\n    /* \"#utility.yul\":1541:1547   */\n  0x00\n    /* \"#utility.yul\":1590:1593   */\n  0xa0\n    /* \"#utility.yul\":1578:1587   */\n  dup5\n    /* \"#utility.yul\":1569:1576   */\n  dup7\n    /* \"#utility.yul\":1565:1588   */\n  sub\n    /* \"#utility.yul\":1561:1594   */\n  slt\n    /* \"#utility.yul\":1558:1678   */\n  iszero\n  tag_45\n  jumpi\n    /* \"#utility.yul\":1597:1676   */\n  tag_46\n  tag_47\n  jump\t// in\ntag_46:\n    /* \"#utility.yul\":1558:1678   */\ntag_45:\n    /* \"#utility.yul\":1717:1718   */\n  0x00\n    /* \"#utility.yul\":1742:1829   */\n  tag_48\n    /* \"#utility.yul\":1821:1828   */\n  dup7\n    /* \"#utility.yul\":1812:1818   */\n  dup3\n    /* \"#utility.yul\":1801:1810   */\n  dup8\n    /* \"#utility.yul\":1797:1819   */\n  add\n    /* \"#utility.yul\":1742:1829   */\n  tag_35\n  jump\t// in\ntag_48:\n    /* \"#utility.yul\":1732:1829   */\n  swap4\n  pop\n    /* \"#utility.yul\":1688:1839   */\n  pop\n    /* \"#utility.yul\":1878:1880   */\n  0x40\n    /* \"#utility.yul\":1904:1991   */\n  tag_49\n    /* \"#utility.yul\":1983:1990   */\n  dup7\n    /* \"#utility.yul\":1974:1980   */\n  dup3\n    /* \"#utility.yul\":1963:1972   */\n  dup8\n    /* \"#utility.yul\":1959:1981   */\n  add\n    /* \"#utility.yul\":1904:1991   */\n  tag_35\n  jump\t// in\ntag_49:\n    /* \"#utility.yul\":1894:1991   */\n  swap3\n  pop\n    /* \"#utility.yul\":1849:2001   */\n  pop\n    /* \"#utility.yul\":2040:2043   */\n  0x80\n    /* \"#utility.yul\":2067:2131   */\n  tag_50\n    /* \"#utility.yul\":2123:2130   */\n  dup7\n    /* \"#utility.yul\":2114:2120   */\n  dup3\n    /* \"#utility.yul\":2103:2112   */\n  dup8\n    /* \"#utility.yul\":2099:2121   */\n  add\n    /* \"#utility.yul\":2067:2131   */\n  tag_31\n  jump\t// in\ntag_50:\n    /* \"#utility.yul\":2057:2131   */\n  swap2\n  pop\n    /* \"#utility.yul\":2011:2141   */\n  pop\n    /* \"#utility.yul\":1391:2148   */\n  swap3\n  pop\n  swap3\n  pop\n  swap3\n  jump\t// out\n    /* \"#utility.yul\":2154:2283   */\ntag_22:\n    /* \"#utility.yul\":2188:2194   */\n  0x00\n    /* \"#utility.yul\":2215:2235   */\n  tag_52\n  tag_53\n  jump\t// in\ntag_52:\n    /* \"#utility.yul\":2205:2235   */\n  swap1\n  pop\n    /* \"#utility.yul\":2244:2277   */\n  tag_54\n    /* \"#utility.yul\":2272:2276   */\n  dup3\n    /* \"#utility.yul\":2264:2270   */\n  dup3\n    /* \"#utility.yul\":2244:2277   */\n  tag_55\n  jump\t// in\ntag_54:\n    /* \"#utility.yul\":2154:2283   */\n  swap2\n  swap1\n  pop\n  jump\t// out\n    /* \"#utility.yul\":2289:2364   */\ntag_53:\n    /* \"#utility.yul\":2322:2328   */\n  0x00\n    /* \"#utility.yul\":2355:2357   */\n  0x40\n    /* \"#utility.yul\":2349:2358   */\n  mload\n    /* \"#utility.yul\":2339:2358   */\n  swap1\n  pop\n    /* \"#utility.yul\":2289:2364   */\n  swap1\n  jump\t// out\n    /* \"#utility.yul\":2370:2619   */\ntag_21:\n    /* \"#utility.yul\":2445:2449   */\n  0x00\n    /* \"#utility.yul\":2535:2553   */\n  0xffffffffffffffff\n    /* \"#utility.yul\":2527:2533   */\n  dup3\n    /* \"#utility.yul\":2524:2554   */\n  gt\n    /* \"#utility.yul\":2521:2577   */\n  iszero\n  tag_58\n  jumpi\n    /* \"#utility.yul\":2557:2575   */\n  tag_59\n  tag_60\n  jump\t// in\ntag_59:\n    /* \"#utility.yul\":2521:2577   */\ntag_58:\n    /* \"#utility.yul\":2607:2611   */\n  0x20\n    /* \"#utility.yul\":2599:2605   */\n  dup3\n    /* \"#utility.yul\":2595:2612   */\n  mul\n    /* \"#utility.yul\":2587:2612   */\n  swap1\n  pop\n    /* \"#utility.yul\":2370:2619   */\n  swap2\n  swap1\n  pop\n  jump\t// out\n    /* \"#utility.yul\":2625:2721   */\ntag_61:\n    /* \"#utility.yul\":2662:2669   */\n  0x00\n    /* \"#utility.yul\":2691:2715   */\n  tag_63\n    /* \"#utility.yul\":2709:2714   */\n  dup3\n    /* \"#utility.yul\":2691:2715   */\n  tag_64\n  jump\t// in\ntag_63:\n    /* \"#utility.yul\":2680:2715   */\n  swap1\n  pop\n    /* \"#utility.yul\":2625:2721   */\n  swap2\n  swap1\n  pop\n  jump\t// out\n    /* \"#utility.yul\":2727:2853   */\ntag_64:\n    /* \"#utility.yul\":2764:2771   */\n  0x00\n    /* \"#utility.yul\":2804:2846   */\n  0xffffffffffffffffffffffffffffffffffffffff\n    /* \"#utility.yul\":2797:2802   */\n  dup3\n    /* \"#utility.yul\":2793:2847   */\n  and\n    /* \"#utility.yul\":2782:2847   */\n  swap1\n  pop\n    /* \"#utility.yul\":2727:2853   */\n  swap2\n  swap1\n  pop\n  jump\t// out\n    /* \"#utility.yul\":2859:2936   */\ntag_66:\n    /* \"#utility.yul\":2896:2903   */\n  0x00\n    /* \"#utility.yul\":2925:2930   */\n  dup2\n    /* \"#utility.yul\":2914:2930   */\n  swap1\n  pop\n    /* \"#utility.yul\":2859:2936   */\n  swap2\n  swap1\n  pop\n  jump\t// out\n    /* \"#utility.yul\":2942:3223   */\ntag_55:\n    /* \"#utility.yul\":3025:3052   */\n  tag_69\n    /* \"#utility.yul\":3047:3051   */\n  dup3\n    /* \"#utility.yul\":3025:3052   */\n  tag_70\n  jump\t// in\ntag_69:\n    /* \"#utility.yul\":3017:3023   */\n  dup2\n    /* \"#utility.yul\":3013:3053   */\n  add\n    /* \"#utility.yul\":3155:3161   */\n  dup2\n    /* \"#utility.yul\":3143:3153   */\n  dup2\n    /* \"#utility.yul\":3140:3162   */\n  lt\n    /* \"#utility.yul\":3119:3137   */\n  0xffffffffffffffff\n    /* \"#utility.yul\":3107:3117   */\n  dup3\n    /* \"#utility.yul\":3104:3138   */\n  gt\n    /* \"#utility.yul\":3101:3163   */\n  or\n    /* \"#utility.yul\":3098:3186   */\n  iszero\n  tag_71\n  jumpi\n    /* \"#utility.yul\":3166:3184   */\n  tag_72\n  tag_60\n  jump\t// in\ntag_72:\n    /* \"#utility.yul\":3098:3186   */\ntag_71:\n    /* \"#utility.yul\":3206:3216   */\n  dup1\n    /* \"#utility.yul\":3202:3204   */\n  0x40\n    /* \"#utility.yul\":3195:3217   */\n  mstore\n    /* \"#utility.yul\":2985:3223   */\n  pop\n    /* \"#utility.yul\":2942:3223   */\n  pop\n  pop\n  jump\t// out\n    /* \"#utility.yul\":3229:3409   */\ntag_8:\n    /* \"#utility.yul\":3277:3354   */\n  0x4e487b7100000000000000000000000000000000000000000000000000000000\n    /* \"#utility.yul\":3274:3275   */\n  0x00\n    /* \"#utility.yul\":3267:3355   */\n  mstore\n    /* \"#utility.yul\":3374:3378   */\n  0x32\n    /* \"#utility.yul\":3371:3372   */\n  0x04\n    /* \"#utility.yul\":3364:3379   */\n  mstore\n    /* \"#utility.yul\":3398:3402   */\n  0x24\n    /* \"#utility.yul\":3395:3396   */\n  0x00\n    /* \"#utility.yul\":3388:3403   */\n  revert\n    /* \"#utility.yul\":3415:3595   */\ntag_60:\n    /* \"#utility.yul\":3463:3540   */\n  0x4e487b7100000000000000000000000000000000000000000000000000000000\n    /* \"#utility.yul\":3460:3461   */\n  0x00\n    /* \"#utility.yul\":3453:3541   */\n  mstore\n    /* \"#utility.yul\":3560:3564   */\n  0x41\n    /* \"#utility.yul\":3557:3558   */\n  0x04\n    /* \"#utility.yul\":3550:3565   */\n  mstore\n    /* \"#utility.yul\":3584:3588   */\n  0x24\n    /* \"#utility.yul\":3581:3582   */\n  0x00\n    /* \"#utility.yul\":3574:3589   */\n  revert\n    /* \"#utility.yul\":3601:3718   */\ntag_39:\n    /* \"#utility.yul\":3710:3711   */\n  0x00\n    /* \"#utility.yul\":3707:3708   */\n  dup1\n    /* \"#utility.yul\":3700:3712   */\n  revert\n    /* \"#utility.yul\":3724:3841   */\ntag_25:\n    /* \"#utility.yul\":3833:3834   */\n  0x00\n    /* \"#utility.yul\":3830:3831   */\n  dup1\n    /* \"#utility.yul\":3823:3835   */\n  revert\n    /* \"#utility.yul\":3970:4087   */\ntag_47:\n    /* \"#utility.yul\":4079:4080   */\n  0x00\n    /* \"#utility.yul\":4076:4077   */\n  dup1\n    /* \"#utility.yul\":4069:4081   */\n  revert\n    /* \"#utility.yul\":4093:4195   */\ntag_70:\n    /* \"#utility.yul\":4134:4140   */\n  0x00\n    /* \"#utility.yul\":4185:4187   */\n  0x1f\n    /* \"#utility.yul\":4181:4188   */\n  not\n    /* \"#utility.yul\":4176:4178   */\n  0x1f\n    /* \"#utility.yul\":4169:4174   */\n  dup4\n    /* \"#utility.yul\":4165:4179   */\n  add\n    /* \"#utility.yul\":4161:4189   */\n  and\n    /* \"#utility.yul\":4151:4189   */\n  swap1\n  pop\n    /* \"#utility.yul\":4093:4195   */\n  swap2\n  swap1\n  pop\n  jump\t// out\n    /* \"#utility.yul\":4201:4323   */\ntag_34:\n    /* \"#utility.yul\":4274:4298   */\n  tag_82\n    /* \"#utility.yul\":4292:4297   */\n  dup2\n    /* \"#utility.yul\":4274:4298   */\n  tag_61\n  jump\t// in\ntag_82:\n    /* \"#utility.yul\":4267:4272   */\n  dup2\n    /* \"#utility.yul\":4264:4299   */\n  eq\n    /* \"#utility.yul\":4254:4317   */\n  tag_83\n  jumpi\n    /* \"#utility.yul\":4313:4314   */\n  0x00\n    /* \"#utility.yul\":4310:4311   */\n  dup1\n    /* \"#utility.yul\":4303:4315   */\n  revert\n    /* \"#utility.yul\":4254:4317   */\ntag_83:\n    /* \"#utility.yul\":4201:4323   */\n  pop\n  jump\t// out\n    /* \"#utility.yul\":4329:4451   */\ntag_43:\n    /* \"#utility.yul\":4402:4426   */\n  tag_85\n    /* \"#utility.yul\":4420:4425   */\n  dup2\n    /* \"#utility.yul\":4402:4426   */\n  tag_66\n  jump\t// in\ntag_85:\n    /* \"#utility.yul\":4395:4400   */\n  dup2\n    /* \"#utility.yul\":4392:4427   */\n  eq\n    /* \"#utility.yul\":4382:4445   */\n  tag_86\n  jumpi\n    /* \"#utility.yul\":4441:4442   */\n  0x00\n    /* \"#utility.yul\":4438:4439   */\n  dup1\n    /* \"#utility.yul\":4431:4443   */\n  revert\n    /* \"#utility.yul\":4382:4445   */\ntag_86:\n    /* \"#utility.yul\":4329:4451   */\n  pop\n  jump\t// out\n    /* \"contracts/PoKE.sol\":182:2662  contract PoKESigmaProtocol {... */\ntag_15:\n  dataSize(sub_0)\n  dup1\n  dataOffset(sub_0)\n  0x00\n  codecopy\n  0x00\n  return\nstop\n\nsub_0: assembly {\n        /* \"contracts/PoKE.sol\":182:2662  contract PoKESigmaProtocol {... */\n      mstore(0x40, 0x80)\n      jumpi(tag_1, lt(calldatasize, 0x04))\n      shr(0xe0, calldataload(0x00))\n      dup1\n      0x0651a124\n      eq\n      tag_2\n      jumpi\n      dup1\n      0x4efe3da2\n      eq\n      tag_3\n      jumpi\n      dup1\n      0x67307e00\n      eq\n      tag_4\n      jumpi\n      dup1\n      0xaad4f5ec\n      eq\n      tag_5\n      jumpi\n      dup1\n      0xb8c9d365\n      eq\n      tag_6\n      jumpi\n      dup1\n      0xe2179b8e\n      eq\n      tag_7\n      jumpi\n    tag_1:\n      0x00\n      dup1\n      revert\n        /* \"contracts/PoKE.sol\":652:841  function get_sum_of_commitments() ... */\n    tag_2:\n      tag_8\n      tag_9\n      jump\t// in\n    tag_8:\n      mload(0x40)\n      tag_10\n      swap2\n      swap1\n      tag_11\n      jump\t// in\n    tag_10:\n      mload(0x40)\n      dup1\n      swap2\n      sub\n      swap1\n      return\n        /* \"contracts/PoKE.sol\":1888:2188  function calc_y(... */\n    tag_3:\n      tag_12\n      0x04\n      dup1\n      calldatasize\n      sub\n      dup2\n      add\n      swap1\n      tag_13\n      swap2\n      swap1\n      tag_14\n      jump\t// in\n    tag_13:\n      tag_15\n      jump\t// in\n    tag_12:\n      mload(0x40)\n      tag_16\n      swap2\n      swap1\n      tag_11\n      jump\t// in\n    tag_16:\n      mload(0x40)\n      dup1\n      swap2\n      sub\n      swap1\n      return\n        /* \"contracts/PoKE.sol\":2231:2660  function clac_c(... */\n    tag_4:\n      tag_17\n      0x04\n      dup1\n      calldatasize\n      sub\n      dup2\n      add\n      swap1\n      tag_18\n      swap2\n      swap1\n      tag_19\n      jump\t// in\n    tag_18:\n      tag_20\n      jump\t// in\n    tag_17:\n      mload(0x40)\n      tag_21\n      swap2\n      swap1\n      tag_22\n      jump\t// in\n    tag_21:\n      mload(0x40)\n      dup1\n      swap2\n      sub\n      swap1\n      return\n        /* \"contracts/PoKE.sol\":1033:1850  function verify (... */\n    tag_5:\n      tag_23\n      0x04\n      dup1\n      calldatasize\n      sub\n      dup2\n      add\n      swap1\n      tag_24\n      swap2\n      swap1\n      tag_25\n      jump\t// in\n    tag_24:\n      tag_26\n      jump\t// in\n    tag_23:\n      mload(0x40)\n      tag_27\n      swap2\n      swap1\n      tag_28\n      jump\t// in\n    tag_27:\n      mload(0x40)\n      dup1\n      swap2\n      sub\n      swap1\n      return\n        /* \"contracts/PoKE.sol\":316:340  Pairing.G1Point public h */\n    tag_6:\n      callvalue\n      dup1\n      iszero\n      tag_29\n      jumpi\n      0x00\n      dup1\n      revert\n    tag_29:\n      pop\n      tag_30\n      tag_31\n      jump\t// in\n    tag_30:\n      mload(0x40)\n      tag_32\n      swap3\n      swap2\n      swap1\n      tag_33\n      jump\t// in\n    tag_32:\n      mload(0x40)\n      dup1\n      swap2\n      sub\n      swap1\n      return\n        /* \"contracts/PoKE.sol\":286:310  Pairing.G1Point public g */\n    tag_7:\n      callvalue\n      dup1\n      iszero\n      tag_34\n      jumpi\n      0x00\n      dup1\n      revert\n    tag_34:\n      pop\n      tag_35\n      tag_36\n      jump\t// in\n    tag_35:\n      mload(0x40)\n      tag_37\n      swap3\n      swap2\n      swap1\n      tag_33\n      jump\t// in\n    tag_37:\n      mload(0x40)\n      dup1\n      swap2\n      sub\n      swap1\n      return\n        /* \"contracts/PoKE.sol\":652:841  function get_sum_of_commitments() ... */\n    tag_9:\n        /* \"contracts/PoKE.sol\":719:741  Pairing.G1Point memory */\n      tag_38\n      tag_39\n      jump\t// in\n    tag_38:\n        /* \"contracts/PoKE.sol\":788:808  proofOfReserversAddr */\n      0x04\n      0x00\n      swap1\n      sload\n      swap1\n      0x0100\n      exp\n      swap1\n      div\n      0xffffffffffffffffffffffffffffffffffffffff\n      and\n        /* \"contracts/PoKE.sol\":764:832  ProofOfReservesContract(proofOfReserversAddr).get_sum_of_commitments */\n      0xffffffffffffffffffffffffffffffffffffffff\n      and\n      0x0651a124\n        /* \"contracts/PoKE.sol\":764:834  ProofOfReservesContract(proofOfReserversAddr).get_sum_of_commitments() */\n      mload(0x40)\n      dup2\n      0xffffffff\n      and\n      0xe0\n      shl\n      dup2\n      mstore\n      0x04\n      add\n      0x40\n      dup1\n      mload\n      dup1\n      dup4\n      sub\n      dup2\n      dup7\n      dup1\n      extcodesize\n      iszero\n      dup1\n      iszero\n      tag_41\n      jumpi\n      0x00\n      dup1\n      revert\n    tag_41:\n      pop\n      gas\n      staticcall\n      iszero\n      dup1\n      iszero\n      tag_43\n      jumpi\n      returndatasize\n      0x00\n      dup1\n      returndatacopy\n      revert(0x00, returndatasize)\n    tag_43:\n      pop\n      pop\n      pop\n      pop\n      mload(0x40)\n      returndatasize\n      not(0x1f)\n      0x1f\n      dup3\n      add\n      and\n      dup3\n      add\n      dup1\n      0x40\n      mstore\n      pop\n      dup2\n      add\n      swap1\n      tag_44\n      swap2\n      swap1\n      tag_45\n      jump\t// in\n    tag_44:\n        /* \"contracts/PoKE.sol\":757:834  return ProofOfReservesContract(proofOfReserversAddr).get_sum_of_commitments() */\n      swap1\n      pop\n        /* \"contracts/PoKE.sol\":652:841  function get_sum_of_commitments() ... */\n      swap1\n      jump\t// out\n        /* \"contracts/PoKE.sol\":1888:2188  function calc_y(... */\n    tag_15:\n        /* \"contracts/PoKE.sol\":1981:2003  Pairing.G1Point memory */\n      tag_46\n      tag_39\n      jump\t// in\n    tag_46:\n        /* \"contracts/PoKE.sol\":2019:2044  Pairing.G1Point memory cm */\n      0x00\n        /* \"contracts/PoKE.sol\":2047:2071  get_sum_of_commitments() */\n      tag_48\n        /* \"contracts/PoKE.sol\":2047:2069  get_sum_of_commitments */\n      tag_9\n        /* \"contracts/PoKE.sol\":2047:2071  get_sum_of_commitments() */\n      jump\t// in\n    tag_48:\n        /* \"contracts/PoKE.sol\":2019:2071  Pairing.G1Point memory cm = get_sum_of_commitments() */\n      swap1\n      pop\n        /* \"contracts/PoKE.sol\":2081:2105  Pairing.G1Point memory y */\n      0x00\n        /* \"contracts/PoKE.sol\":2109:2163  Pairing.add(cm, Pairing.negate(Pairing.mul(g, value))) */\n      tag_49\n        /* \"contracts/PoKE.sol\":2121:2123  cm */\n      dup3\n        /* \"contracts/PoKE.sol\":2125:2162  Pairing.negate(Pairing.mul(g, value)) */\n      tag_50\n        /* \"contracts/PoKE.sol\":2140:2161  Pairing.mul(g, value) */\n      tag_51\n        /* \"contracts/PoKE.sol\":2152:2153  g */\n      0x00\n        /* \"contracts/PoKE.sol\":2140:2161  Pairing.mul(g, value) */\n      mload(0x40)\n      dup1\n      0x40\n      add\n      0x40\n      mstore\n      swap1\n      dup2\n      0x00\n      dup3\n      add\n      sload\n      dup2\n      mstore\n      0x20\n      add\n      0x01\n      dup3\n      add\n      sload\n      dup2\n      mstore\n      pop\n      pop\n        /* \"contracts/PoKE.sol\":2155:2160  value */\n      dup9\n        /* \"contracts/PoKE.sol\":2140:2151  Pairing.mul */\n      tag_52\n        /* \"contracts/PoKE.sol\":2140:2161  Pairing.mul(g, value) */\n      jump\t// in\n    tag_51:\n        /* \"contracts/PoKE.sol\":2125:2139  Pairing.negate */\n      tag_53\n        /* \"contracts/PoKE.sol\":2125:2162  Pairing.negate(Pairing.mul(g, value)) */\n      jump\t// in\n    tag_50:\n        /* \"contracts/PoKE.sol\":2109:2120  Pairing.add */\n      tag_54\n        /* \"contracts/PoKE.sol\":2109:2163  Pairing.add(cm, Pairing.negate(Pairing.mul(g, value))) */\n      jump\t// in\n    tag_49:\n        /* \"contracts/PoKE.sol\":2081:2163  Pairing.G1Point memory y =  Pairing.add(cm, Pairing.negate(Pairing.mul(g, value))) */\n      swap1\n      pop\n        /* \"contracts/PoKE.sol\":2180:2181  y */\n      dup1\n        /* \"contracts/PoKE.sol\":2173:2181  return y */\n      swap3\n      pop\n      pop\n      pop\n        /* \"contracts/PoKE.sol\":1888:2188  function calc_y(... */\n      swap2\n      swap1\n      pop\n      jump\t// out\n        /* \"contracts/PoKE.sol\":2231:2660  function clac_c(... */\n    tag_20:\n        /* \"contracts/PoKE.sol\":2354:2371  uint256[2] memory */\n      tag_55\n      tag_56\n      jump\t// in\n    tag_55:\n        /* \"contracts/PoKE.sol\":2387:2408  uint256[2] memory ret */\n      tag_58\n      tag_56\n      jump\t// in\n    tag_58:\n        /* \"contracts/PoKE.sol\":2418:2442  Pairing.G1Point memory y */\n      0x00\n        /* \"contracts/PoKE.sol\":2445:2458  calc_y(value) */\n      tag_59\n        /* \"contracts/PoKE.sol\":2452:2457  value */\n      dup6\n        /* \"contracts/PoKE.sol\":2445:2451  calc_y */\n      tag_15\n        /* \"contracts/PoKE.sol\":2445:2458  calc_y(value) */\n      jump\t// in\n    tag_59:\n        /* \"contracts/PoKE.sol\":2418:2458  Pairing.G1Point memory y = calc_y(value) */\n      swap1\n      pop\n        /* \"contracts/PoKE.sol\":2486:2525  MiMC7._hash(bytes32(h.X), bytes32(y.X)) */\n      tag_60\n        /* \"contracts/PoKE.sol\":2506:2507  h */\n      0x02\n        /* \"contracts/PoKE.sol\":2506:2509  h.X */\n      0x00\n      add\n      sload\n        /* \"contracts/PoKE.sol\":2498:2510  bytes32(h.X) */\n      0x00\n      shl\n        /* \"contracts/PoKE.sol\":2520:2521  y */\n      dup3\n        /* \"contracts/PoKE.sol\":2520:2523  y.X */\n      0x00\n      add\n      mload\n        /* \"contracts/PoKE.sol\":2512:2524  bytes32(y.X) */\n      0x00\n      shl\n        /* \"contracts/PoKE.sol\":2486:2497  MiMC7._hash */\n      tag_61\n        /* \"contracts/PoKE.sol\":2486:2525  MiMC7._hash(bytes32(h.X), bytes32(y.X)) */\n      jump\t// in\n    tag_60:\n        /* \"contracts/PoKE.sol\":2478:2526  uint256(MiMC7._hash(bytes32(h.X), bytes32(y.X))) */\n      0x00\n      shr\n        /* \"contracts/PoKE.sol\":2469:2472  ret */\n      dup3\n        /* \"contracts/PoKE.sol\":2473:2474  0 */\n      0x00\n        /* \"contracts/PoKE.sol\":2469:2475  ret[0] */\n      0x02\n      dup2\n      lt\n      tag_62\n      jumpi\n      tag_63\n      tag_64\n      jump\t// in\n    tag_63:\n    tag_62:\n      0x20\n      mul\n      add\n        /* \"contracts/PoKE.sol\":2469:2526  ret[0] = uint256(MiMC7._hash(bytes32(h.X), bytes32(y.X))) */\n      dup2\n      dup2\n      mstore\n      pop\n      pop\n        /* \"contracts/PoKE.sol\":2553:2632  MiMC7._hash(... */\n      tag_65\n        /* \"contracts/PoKE.sol\":2586:2589  ret */\n      dup3\n        /* \"contracts/PoKE.sol\":2590:2591  0 */\n      0x00\n        /* \"contracts/PoKE.sol\":2586:2592  ret[0] */\n      0x02\n      dup2\n      lt\n      tag_66\n      jumpi\n      tag_67\n      tag_64\n      jump\t// in\n    tag_67:\n    tag_66:\n      0x20\n      mul\n      add\n      mload\n        /* \"contracts/PoKE.sol\":2578:2593  bytes32(ret[0]) */\n      0x00\n      shl\n        /* \"contracts/PoKE.sol\":2617:2618  t */\n      dup6\n        /* \"contracts/PoKE.sol\":2619:2620  0 */\n      0x00\n        /* \"contracts/PoKE.sol\":2617:2621  t[0] */\n      0x02\n      dup2\n      lt\n      tag_68\n      jumpi\n      tag_69\n      tag_64\n      jump\t// in\n    tag_69:\n    tag_68:\n      0x20\n      mul\n      add\n      mload\n        /* \"contracts/PoKE.sol\":2609:2622  bytes32(t[0]) */\n      0x00\n      shl\n        /* \"contracts/PoKE.sol\":2553:2564  MiMC7._hash */\n      tag_61\n        /* \"contracts/PoKE.sol\":2553:2632  MiMC7._hash(... */\n      jump\t// in\n    tag_65:\n        /* \"contracts/PoKE.sol\":2545:2633  uint256(MiMC7._hash(... */\n      0x00\n      shr\n        /* \"contracts/PoKE.sol\":2536:2539  ret */\n      dup3\n        /* \"contracts/PoKE.sol\":2540:2541  1 */\n      0x01\n        /* \"contracts/PoKE.sol\":2536:2542  ret[1] */\n      0x02\n      dup2\n      lt\n      tag_70\n      jumpi\n      tag_71\n      tag_64\n      jump\t// in\n    tag_71:\n    tag_70:\n      0x20\n      mul\n      add\n        /* \"contracts/PoKE.sol\":2536:2633  ret[1] = uint256(MiMC7._hash(... */\n      dup2\n      dup2\n      mstore\n      pop\n      pop\n        /* \"contracts/PoKE.sol\":2650:2653  ret */\n      dup2\n        /* \"contracts/PoKE.sol\":2643:2653  return ret */\n      swap3\n      pop\n      pop\n      pop\n        /* \"contracts/PoKE.sol\":2231:2660  function clac_c(... */\n      swap3\n      swap2\n      pop\n      pop\n      jump\t// out\n        /* \"contracts/PoKE.sol\":1033:1850  function verify (... */\n    tag_26:\n        /* \"contracts/PoKE.sol\":1140:1144  bool */\n      0x00\n        /* \"contracts/PoKE.sol\":1193:1218  Pairing.G1Point memory cm */\n      dup1\n        /* \"contracts/PoKE.sol\":1221:1245  get_sum_of_commitments() */\n      tag_73\n        /* \"contracts/PoKE.sol\":1221:1243  get_sum_of_commitments */\n      tag_9\n        /* \"contracts/PoKE.sol\":1221:1245  get_sum_of_commitments() */\n      jump\t// in\n    tag_73:\n        /* \"contracts/PoKE.sol\":1193:1245  Pairing.G1Point memory cm = get_sum_of_commitments() */\n      swap1\n      pop\n        /* \"contracts/PoKE.sol\":1255:1279  Pairing.G1Point memory y */\n      0x00\n        /* \"contracts/PoKE.sol\":1283:1337  Pairing.add(cm, Pairing.negate(Pairing.mul(g, value))) */\n      tag_74\n        /* \"contracts/PoKE.sol\":1295:1297  cm */\n      dup3\n        /* \"contracts/PoKE.sol\":1299:1336  Pairing.negate(Pairing.mul(g, value)) */\n      tag_75\n        /* \"contracts/PoKE.sol\":1314:1335  Pairing.mul(g, value) */\n      tag_76\n        /* \"contracts/PoKE.sol\":1326:1327  g */\n      0x00\n        /* \"contracts/PoKE.sol\":1314:1335  Pairing.mul(g, value) */\n      mload(0x40)\n      dup1\n      0x40\n      add\n      0x40\n      mstore\n      swap1\n      dup2\n      0x00\n      dup3\n      add\n      sload\n      dup2\n      mstore\n      0x20\n      add\n      0x01\n      dup3\n      add\n      sload\n      dup2\n      mstore\n      pop\n      pop\n        /* \"contracts/PoKE.sol\":1329:1334  value */\n      dup10\n        /* \"contracts/PoKE.sol\":1314:1325  Pairing.mul */\n      tag_52\n        /* \"contracts/PoKE.sol\":1314:1335  Pairing.mul(g, value) */\n      jump\t// in\n    tag_76:\n        /* \"contracts/PoKE.sol\":1299:1313  Pairing.negate */\n      tag_53\n        /* \"contracts/PoKE.sol\":1299:1336  Pairing.negate(Pairing.mul(g, value)) */\n      jump\t// in\n    tag_75:\n        /* \"contracts/PoKE.sol\":1283:1294  Pairing.add */\n      tag_54\n        /* \"contracts/PoKE.sol\":1283:1337  Pairing.add(cm, Pairing.negate(Pairing.mul(g, value))) */\n      jump\t// in\n    tag_74:\n        /* \"contracts/PoKE.sol\":1255:1337  Pairing.G1Point memory y =  Pairing.add(cm, Pairing.negate(Pairing.mul(g, value))) */\n      swap1\n      pop\n        /* \"contracts/PoKE.sol\":1348:1372  Pairing.G1Point memory t */\n      0x00\n        /* \"contracts/PoKE.sol\":1375:1412  Pairing.G1Point(_proof[0], _proof[1]) */\n      mload(0x40)\n      dup1\n      0x40\n      add\n      0x40\n      mstore\n      dup1\n        /* \"contracts/PoKE.sol\":1391:1397  _proof */\n      dup7\n        /* \"contracts/PoKE.sol\":1398:1399  0 */\n      0x00\n        /* \"contracts/PoKE.sol\":1391:1400  _proof[0] */\n      0x03\n      dup2\n      lt\n      tag_77\n      jumpi\n      tag_78\n      tag_64\n      jump\t// in\n    tag_78:\n    tag_77:\n      0x20\n      mul\n      add\n      mload\n        /* \"contracts/PoKE.sol\":1375:1412  Pairing.G1Point(_proof[0], _proof[1]) */\n      dup2\n      mstore\n      0x20\n      add\n        /* \"contracts/PoKE.sol\":1402:1408  _proof */\n      dup7\n        /* \"contracts/PoKE.sol\":1409:1410  1 */\n      0x01\n        /* \"contracts/PoKE.sol\":1402:1411  _proof[1] */\n      0x03\n      dup2\n      lt\n      tag_79\n      jumpi\n      tag_80\n      tag_64\n      jump\t// in\n    tag_80:\n    tag_79:\n      0x20\n      mul\n      add\n      mload\n        /* \"contracts/PoKE.sol\":1375:1412  Pairing.G1Point(_proof[0], _proof[1]) */\n      dup2\n      mstore\n      pop\n        /* \"contracts/PoKE.sol\":1348:1412  Pairing.G1Point memory t = Pairing.G1Point(_proof[0], _proof[1]) */\n      swap1\n      pop\n        /* \"contracts/PoKE.sol\":1422:1431  uint256 s */\n      0x00\n        /* \"contracts/PoKE.sol\":1434:1440  _proof */\n      dup6\n        /* \"contracts/PoKE.sol\":1441:1442  2 */\n      0x02\n        /* \"contracts/PoKE.sol\":1434:1443  _proof[2] */\n      0x03\n      dup2\n      lt\n      tag_81\n      jumpi\n      tag_82\n      tag_64\n      jump\t// in\n    tag_82:\n    tag_81:\n      0x20\n      mul\n      add\n      mload\n        /* \"contracts/PoKE.sol\":1422:1443  uint256 s = _proof[2] */\n      swap1\n      pop\n        /* \"contracts/PoKE.sol\":1454:1469  bytes32 c_bytes */\n      0x00\n        /* \"contracts/PoKE.sol\":1472:1574  MiMC7._hash(... */\n      tag_83\n        /* \"contracts/PoKE.sol\":1497:1536  MiMC7._hash(bytes32(h.X), bytes32(y.X)) */\n      tag_84\n        /* \"contracts/PoKE.sol\":1517:1518  h */\n      0x02\n        /* \"contracts/PoKE.sol\":1517:1520  h.X */\n      0x00\n      add\n      sload\n        /* \"contracts/PoKE.sol\":1509:1521  bytes32(h.X) */\n      0x00\n      shl\n        /* \"contracts/PoKE.sol\":1531:1532  y */\n      dup7\n        /* \"contracts/PoKE.sol\":1531:1534  y.X */\n      0x00\n      add\n      mload\n        /* \"contracts/PoKE.sol\":1523:1535  bytes32(y.X) */\n      0x00\n      shl\n        /* \"contracts/PoKE.sol\":1497:1508  MiMC7._hash */\n      tag_61\n        /* \"contracts/PoKE.sol\":1497:1536  MiMC7._hash(bytes32(h.X), bytes32(y.X)) */\n      jump\t// in\n    tag_84:\n        /* \"contracts/PoKE.sol\":1560:1561  t */\n      dup5\n        /* \"contracts/PoKE.sol\":1560:1563  t.X */\n      0x00\n      add\n      mload\n        /* \"contracts/PoKE.sol\":1552:1564  bytes32(t.X) */\n      0x00\n      shl\n        /* \"contracts/PoKE.sol\":1472:1483  MiMC7._hash */\n      tag_61\n        /* \"contracts/PoKE.sol\":1472:1574  MiMC7._hash(... */\n      jump\t// in\n    tag_83:\n        /* \"contracts/PoKE.sol\":1454:1574  bytes32 c_bytes = MiMC7._hash(... */\n      swap1\n      pop\n        /* \"contracts/PoKE.sol\":1585:1610  Pairing.G1Point memory hs */\n      0x00\n        /* \"contracts/PoKE.sol\":1613:1630  Pairing.mul(h, s) */\n      tag_85\n        /* \"contracts/PoKE.sol\":1625:1626  h */\n      0x02\n        /* \"contracts/PoKE.sol\":1613:1630  Pairing.mul(h, s) */\n      mload(0x40)\n      dup1\n      0x40\n      add\n      0x40\n      mstore\n      swap1\n      dup2\n      0x00\n      dup3\n      add\n      sload\n      dup2\n      mstore\n      0x20\n      add\n      0x01\n      dup3\n      add\n      sload\n      dup2\n      mstore\n      pop\n      pop\n        /* \"contracts/PoKE.sol\":1628:1629  s */\n      dup5\n        /* \"contracts/PoKE.sol\":1613:1624  Pairing.mul */\n      tag_52\n        /* \"contracts/PoKE.sol\":1613:1630  Pairing.mul(h, s) */\n      jump\t// in\n    tag_85:\n        /* \"contracts/PoKE.sol\":1585:1630  Pairing.G1Point memory hs = Pairing.mul(h, s) */\n      swap1\n      pop\n        /* \"contracts/PoKE.sol\":1640:1665  Pairing.G1Point memory yc */\n      0x00\n        /* \"contracts/PoKE.sol\":1668:1700  Pairing.mul(y, uint256(c_bytes)) */\n      tag_86\n        /* \"contracts/PoKE.sol\":1680:1681  y */\n      dup7\n        /* \"contracts/PoKE.sol\":1691:1698  c_bytes */\n      dup5\n        /* \"contracts/PoKE.sol\":1683:1699  uint256(c_bytes) */\n      0x00\n      shr\n        /* \"contracts/PoKE.sol\":1668:1679  Pairing.mul */\n      tag_52\n        /* \"contracts/PoKE.sol\":1668:1700  Pairing.mul(y, uint256(c_bytes)) */\n      jump\t// in\n    tag_86:\n        /* \"contracts/PoKE.sol\":1640:1700  Pairing.G1Point memory yc = Pairing.mul(y, uint256(c_bytes)) */\n      swap1\n      pop\n        /* \"contracts/PoKE.sol\":1710:1736  Pairing.G1Point memory tyc */\n      0x00\n        /* \"contracts/PoKE.sol\":1739:1757  Pairing.add(t, yc) */\n      tag_87\n        /* \"contracts/PoKE.sol\":1751:1752  t */\n      dup7\n        /* \"contracts/PoKE.sol\":1754:1756  yc */\n      dup4\n        /* \"contracts/PoKE.sol\":1739:1750  Pairing.add */\n      tag_54\n        /* \"contracts/PoKE.sol\":1739:1757  Pairing.add(t, yc) */\n      jump\t// in\n    tag_87:\n        /* \"contracts/PoKE.sol\":1710:1757  Pairing.G1Point memory tyc = Pairing.add(t, yc) */\n      swap1\n      pop\n        /* \"contracts/PoKE.sol\":1784:1787  tyc */\n      dup1\n        /* \"contracts/PoKE.sol\":1784:1789  tyc.X */\n      0x00\n      add\n      mload\n        /* \"contracts/PoKE.sol\":1776:1778  hs */\n      dup4\n        /* \"contracts/PoKE.sol\":1776:1780  hs.X */\n      0x00\n      add\n      mload\n        /* \"contracts/PoKE.sol\":1776:1789  hs.X == tyc.X */\n      eq\n        /* \"contracts/PoKE.sol\":1776:1806  hs.X == tyc.X && hs.Y == tyc.Y */\n      dup1\n      iszero\n      tag_88\n      jumpi\n      pop\n        /* \"contracts/PoKE.sol\":1801:1804  tyc */\n      dup1\n        /* \"contracts/PoKE.sol\":1801:1806  tyc.Y */\n      0x20\n      add\n      mload\n        /* \"contracts/PoKE.sol\":1793:1795  hs */\n      dup4\n        /* \"contracts/PoKE.sol\":1793:1797  hs.Y */\n      0x20\n      add\n      mload\n        /* \"contracts/PoKE.sol\":1793:1806  hs.Y == tyc.Y */\n      eq\n        /* \"contracts/PoKE.sol\":1776:1806  hs.X == tyc.X && hs.Y == tyc.Y */\n    tag_88:\n        /* \"contracts/PoKE.sol\":1768:1822  require(hs.X == tyc.X && hs.Y == tyc.Y, \"verify fail\") */\n      tag_89\n      jumpi\n      mload(0x40)\n      0x08c379a000000000000000000000000000000000000000000000000000000000\n      dup2\n      mstore\n      0x04\n      add\n      tag_90\n      swap1\n      tag_91\n      jump\t// in\n    tag_90:\n      mload(0x40)\n      dup1\n      swap2\n      sub\n      swap1\n      revert\n    tag_89:\n        /* \"contracts/PoKE.sol\":1839:1843  true */\n      0x01\n        /* \"contracts/PoKE.sol\":1832:1843  return true */\n      swap9\n      pop\n      pop\n      pop\n      pop\n      pop\n      pop\n      pop\n      pop\n      pop\n        /* \"contracts/PoKE.sol\":1033:1850  function verify (... */\n      swap3\n      swap2\n      pop\n      pop\n      jump\t// out\n        /* \"contracts/PoKE.sol\":316:340  Pairing.G1Point public h */\n    tag_31:\n      0x02\n      dup1\n      0x00\n      add\n      sload\n      swap1\n      dup1\n      0x01\n      add\n      sload\n      swap1\n      pop\n      dup3\n      jump\t// out\n        /* \"contracts/PoKE.sol\":286:310  Pairing.G1Point public g */\n    tag_36:\n      0x00\n      dup1\n      0x00\n      add\n      sload\n      swap1\n      dup1\n      0x01\n      add\n      sload\n      swap1\n      pop\n      dup3\n      jump\t// out\n        /* \"contracts/PairingBn128.sol\":2869:3483  function mul(G1Point memory p, uint256 s)... */\n    tag_52:\n        /* \"contracts/PairingBn128.sol\":2945:2961  G1Point memory r */\n      tag_92\n      tag_39\n      jump\t// in\n    tag_92:\n        /* \"contracts/PairingBn128.sol\":2977:3000  uint256[3] memory input */\n      tag_94\n      tag_95\n      jump\t// in\n    tag_94:\n        /* \"contracts/PairingBn128.sol\":3021:3022  p */\n      dup4\n        /* \"contracts/PairingBn128.sol\":3021:3024  p.X */\n      0x00\n      add\n      mload\n        /* \"contracts/PairingBn128.sol\":3010:3015  input */\n      dup2\n        /* \"contracts/PairingBn128.sol\":3016:3017  0 */\n      0x00\n        /* \"contracts/PairingBn128.sol\":3010:3018  input[0] */\n      0x03\n      dup2\n      lt\n      tag_96\n      jumpi\n      tag_97\n      tag_64\n      jump\t// in\n    tag_97:\n    tag_96:\n      0x20\n      mul\n      add\n        /* \"contracts/PairingBn128.sol\":3010:3024  input[0] = p.X */\n      dup2\n      dup2\n      mstore\n      pop\n      pop\n        /* \"contracts/PairingBn128.sol\":3045:3046  p */\n      dup4\n        /* \"contracts/PairingBn128.sol\":3045:3048  p.Y */\n      0x20\n      add\n      mload\n        /* \"contracts/PairingBn128.sol\":3034:3039  input */\n      dup2\n        /* \"contracts/PairingBn128.sol\":3040:3041  1 */\n      0x01\n        /* \"contracts/PairingBn128.sol\":3034:3042  input[1] */\n      0x03\n      dup2\n      lt\n      tag_98\n      jumpi\n      tag_99\n      tag_64\n      jump\t// in\n    tag_99:\n    tag_98:\n      0x20\n      mul\n      add\n        /* \"contracts/PairingBn128.sol\":3034:3048  input[1] = p.Y */\n      dup2\n      dup2\n      mstore\n      pop\n      pop\n        /* \"contracts/PairingBn128.sol\":3069:3070  s */\n      dup3\n        /* \"contracts/PairingBn128.sol\":3058:3063  input */\n      dup2\n        /* \"contracts/PairingBn128.sol\":3064:3065  2 */\n      0x02\n        /* \"contracts/PairingBn128.sol\":3058:3066  input[2] */\n      0x03\n      dup2\n      lt\n      tag_100\n      jumpi\n      tag_101\n      tag_64\n      jump\t// in\n    tag_101:\n    tag_100:\n      0x20\n      mul\n      add\n        /* \"contracts/PairingBn128.sol\":3058:3070  input[2] = s */\n      dup2\n      dup2\n      mstore\n      pop\n      pop\n        /* \"contracts/PairingBn128.sol\":3080:3092  bool success */\n      0x00\n        /* \"contracts/PairingBn128.sol\":3231:3235  0x40 */\n      0x40\n        /* \"contracts/PairingBn128.sol\":3228:3229  r */\n      dup4\n        /* \"contracts/PairingBn128.sol\":3222:3226  0x60 */\n      0x60\n        /* \"contracts/PairingBn128.sol\":3215:3220  input */\n      dup5\n        /* \"contracts/PairingBn128.sol\":3212:3213  0 */\n      0x00\n        /* \"contracts/PairingBn128.sol\":3209:3210  7 */\n      0x07\n        /* \"contracts/PairingBn128.sol\":3202:3206  2000 */\n      0x07d0\n        /* \"contracts/PairingBn128.sol\":3195:3200  gas() */\n      gas\n        /* \"contracts/PairingBn128.sol\":3191:3207  sub(gas(), 2000) */\n      sub\n        /* \"contracts/PairingBn128.sol\":3186:3236  call(sub(gas(), 2000), 7, 0, input, 0x60, r, 0x40) */\n      call\n        /* \"contracts/PairingBn128.sol\":3175:3236  success := call(sub(gas(), 2000), 7, 0, input, 0x60, r, 0x40) */\n      swap1\n      pop\n        /* \"contracts/PairingBn128.sol\":3382:3389  success */\n      dup1\n        /* \"contracts/PairingBn128.sol\":3360:3476  require (... */\n      tag_102\n      jumpi\n      mload(0x40)\n      0x08c379a000000000000000000000000000000000000000000000000000000000\n      dup2\n      mstore\n      0x04\n      add\n      tag_103\n      swap1\n      tag_104\n      jump\t// in\n    tag_103:\n      mload(0x40)\n      dup1\n      swap2\n      sub\n      swap1\n      revert\n    tag_102:\n        /* \"contracts/PairingBn128.sol\":2967:3483  {... */\n      pop\n      pop\n        /* \"contracts/PairingBn128.sol\":2869:3483  function mul(G1Point memory p, uint256 s)... */\n      swap3\n      swap2\n      pop\n      pop\n      jump\t// out\n        /* \"contracts/PairingBn128.sol\":1627:2007  function negate(G1Point memory p) internal pure returns (G1Point memory) {... */\n    tag_53:\n        /* \"contracts/PairingBn128.sol\":1684:1698  G1Point memory */\n      tag_105\n      tag_39\n      jump\t// in\n    tag_105:\n        /* \"contracts/PairingBn128.sol\":1799:1808  uint256 q */\n      0x00\n        /* \"contracts/PairingBn128.sol\":1811:1888  21888242871839275222246405745257275088696311157297823662689037894645226208583 */\n      0x30644e72e131a029b85045b68181585d97816a916871ca8d3c208c16d87cfd47\n        /* \"contracts/PairingBn128.sol\":1799:1888  uint256 q = 21888242871839275222246405745257275088696311157297823662689037894645226208583 */\n      swap1\n      pop\n        /* \"contracts/PairingBn128.sol\":1909:1910  0 */\n      0x00\n        /* \"contracts/PairingBn128.sol\":1902:1903  p */\n      dup4\n        /* \"contracts/PairingBn128.sol\":1902:1905  p.X */\n      0x00\n      add\n      mload\n        /* \"contracts/PairingBn128.sol\":1902:1910  p.X == 0 */\n      eq\n        /* \"contracts/PairingBn128.sol\":1902:1922  p.X == 0 && p.Y == 0 */\n      dup1\n      iszero\n      tag_107\n      jumpi\n      pop\n        /* \"contracts/PairingBn128.sol\":1921:1922  0 */\n      0x00\n        /* \"contracts/PairingBn128.sol\":1914:1915  p */\n      dup4\n        /* \"contracts/PairingBn128.sol\":1914:1917  p.Y */\n      0x20\n      add\n      mload\n        /* \"contracts/PairingBn128.sol\":1914:1922  p.Y == 0 */\n      eq\n        /* \"contracts/PairingBn128.sol\":1902:1922  p.X == 0 && p.Y == 0 */\n    tag_107:\n        /* \"contracts/PairingBn128.sol\":1898:1956  if (p.X == 0 && p.Y == 0)... */\n      iszero\n      tag_108\n      jumpi\n        /* \"contracts/PairingBn128.sol\":1943:1956  G1Point(0, 0) */\n      mload(0x40)\n      dup1\n      0x40\n      add\n      0x40\n      mstore\n      dup1\n        /* \"contracts/PairingBn128.sol\":1951:1952  0 */\n      0x00\n        /* \"contracts/PairingBn128.sol\":1943:1956  G1Point(0, 0) */\n      dup2\n      mstore\n      0x20\n      add\n        /* \"contracts/PairingBn128.sol\":1954:1955  0 */\n      0x00\n        /* \"contracts/PairingBn128.sol\":1943:1956  G1Point(0, 0) */\n      dup2\n      mstore\n      pop\n        /* \"contracts/PairingBn128.sol\":1936:1956  return G1Point(0, 0) */\n      swap2\n      pop\n      pop\n      jump(tag_106)\n        /* \"contracts/PairingBn128.sol\":1898:1956  if (p.X == 0 && p.Y == 0)... */\n    tag_108:\n        /* \"contracts/PairingBn128.sol\":1973:2000  G1Point(p.X, q - (p.Y % q)) */\n      mload(0x40)\n      dup1\n      0x40\n      add\n      0x40\n      mstore\n      dup1\n        /* \"contracts/PairingBn128.sol\":1981:1982  p */\n      dup5\n        /* \"contracts/PairingBn128.sol\":1981:1984  p.X */\n      0x00\n      add\n      mload\n        /* \"contracts/PairingBn128.sol\":1973:2000  G1Point(p.X, q - (p.Y % q)) */\n      dup2\n      mstore\n      0x20\n      add\n        /* \"contracts/PairingBn128.sol\":1997:1998  q */\n      dup3\n        /* \"contracts/PairingBn128.sol\":1991:1992  p */\n      dup6\n        /* \"contracts/PairingBn128.sol\":1991:1994  p.Y */\n      0x20\n      add\n      mload\n        /* \"contracts/PairingBn128.sol\":1991:1998  p.Y % q */\n      tag_109\n      swap2\n      swap1\n      tag_110\n      jump\t// in\n    tag_109:\n        /* \"contracts/PairingBn128.sol\":1986:1987  q */\n      dup4\n        /* \"contracts/PairingBn128.sol\":1986:1999  q - (p.Y % q) */\n      tag_111\n      swap2\n      swap1\n      tag_112\n      jump\t// in\n    tag_111:\n        /* \"contracts/PairingBn128.sol\":1973:2000  G1Point(p.X, q - (p.Y % q)) */\n      dup2\n      mstore\n      pop\n        /* \"contracts/PairingBn128.sol\":1966:2000  return G1Point(p.X, q - (p.Y % q)) */\n      swap2\n      pop\n      pop\n        /* \"contracts/PairingBn128.sol\":1627:2007  function negate(G1Point memory p) internal pure returns (G1Point memory) {... */\n    tag_106:\n      swap2\n      swap1\n      pop\n      jump\t// out\n        /* \"contracts/PairingBn128.sol\":2055:2737  function add(G1Point memory p1, G1Point memory p2)... */\n    tag_54:\n        /* \"contracts/PairingBn128.sol\":2140:2156  G1Point memory r */\n      tag_113\n      tag_39\n      jump\t// in\n    tag_113:\n        /* \"contracts/PairingBn128.sol\":2172:2195  uint256[4] memory input */\n      tag_115\n      tag_116\n      jump\t// in\n    tag_115:\n        /* \"contracts/PairingBn128.sol\":2216:2218  p1 */\n      dup4\n        /* \"contracts/PairingBn128.sol\":2216:2220  p1.X */\n      0x00\n      add\n      mload\n        /* \"contracts/PairingBn128.sol\":2205:2210  input */\n      dup2\n        /* \"contracts/PairingBn128.sol\":2211:2212  0 */\n      0x00\n        /* \"contracts/PairingBn128.sol\":2205:2213  input[0] */\n      0x04\n      dup2\n      lt\n      tag_117\n      jumpi\n      tag_118\n      tag_64\n      jump\t// in\n    tag_118:\n    tag_117:\n      0x20\n      mul\n      add\n        /* \"contracts/PairingBn128.sol\":2205:2220  input[0] = p1.X */\n      dup2\n      dup2\n      mstore\n      pop\n      pop\n        /* \"contracts/PairingBn128.sol\":2241:2243  p1 */\n      dup4\n        /* \"contracts/PairingBn128.sol\":2241:2245  p1.Y */\n      0x20\n      add\n      mload\n        /* \"contracts/PairingBn128.sol\":2230:2235  input */\n      dup2\n        /* \"contracts/PairingBn128.sol\":2236:2237  1 */\n      0x01\n        /* \"contracts/PairingBn128.sol\":2230:2238  input[1] */\n      0x04\n      dup2\n      lt\n      tag_119\n      jumpi\n      tag_120\n      tag_64\n      jump\t// in\n    tag_120:\n    tag_119:\n      0x20\n      mul\n      add\n        /* \"contracts/PairingBn128.sol\":2230:2245  input[1] = p1.Y */\n      dup2\n      dup2\n      mstore\n      pop\n      pop\n        /* \"contracts/PairingBn128.sol\":2266:2268  p2 */\n      dup3\n        /* \"contracts/PairingBn128.sol\":2266:2270  p2.X */\n      0x00\n      add\n      mload\n        /* \"contracts/PairingBn128.sol\":2255:2260  input */\n      dup2\n        /* \"contracts/PairingBn128.sol\":2261:2262  2 */\n      0x02\n        /* \"contracts/PairingBn128.sol\":2255:2263  input[2] */\n      0x04\n      dup2\n      lt\n      tag_121\n      jumpi\n      tag_122\n      tag_64\n      jump\t// in\n    tag_122:\n    tag_121:\n      0x20\n      mul\n      add\n        /* \"contracts/PairingBn128.sol\":2255:2270  input[2] = p2.X */\n      dup2\n      dup2\n      mstore\n      pop\n      pop\n        /* \"contracts/PairingBn128.sol\":2291:2293  p2 */\n      dup3\n        /* \"contracts/PairingBn128.sol\":2291:2295  p2.Y */\n      0x20\n      add\n      mload\n        /* \"contracts/PairingBn128.sol\":2280:2285  input */\n      dup2\n        /* \"contracts/PairingBn128.sol\":2286:2287  3 */\n      0x03\n        /* \"contracts/PairingBn128.sol\":2280:2288  input[3] */\n      0x04\n      dup2\n      lt\n      tag_123\n      jumpi\n      tag_124\n      tag_64\n      jump\t// in\n    tag_124:\n    tag_123:\n      0x20\n      mul\n      add\n        /* \"contracts/PairingBn128.sol\":2280:2295  input[3] = p2.Y */\n      dup2\n      dup2\n      mstore\n      pop\n      pop\n        /* \"contracts/PairingBn128.sol\":2305:2317  bool success */\n      0x00\n        /* \"contracts/PairingBn128.sol\":2461:2465  0x40 */\n      0x40\n        /* \"contracts/PairingBn128.sol\":2458:2459  r */\n      dup4\n        /* \"contracts/PairingBn128.sol\":2452:2456  0x80 */\n      0x80\n        /* \"contracts/PairingBn128.sol\":2445:2450  input */\n      dup5\n        /* \"contracts/PairingBn128.sol\":2442:2443  0 */\n      0x00\n        /* \"contracts/PairingBn128.sol\":2439:2440  6 */\n      0x06\n        /* \"contracts/PairingBn128.sol\":2432:2436  2000 */\n      0x07d0\n        /* \"contracts/PairingBn128.sol\":2425:2430  gas() */\n      gas\n        /* \"contracts/PairingBn128.sol\":2421:2437  sub(gas(), 2000) */\n      sub\n        /* \"contracts/PairingBn128.sol\":2416:2466  call(sub(gas(), 2000), 6, 0, input, 0x80, r, 0x40) */\n      call\n        /* \"contracts/PairingBn128.sol\":2405:2466  success := call(sub(gas(), 2000), 6, 0, input, 0x80, r, 0x40) */\n      swap1\n      pop\n        /* \"contracts/PairingBn128.sol\":2611:2618  success */\n      dup1\n        /* \"contracts/PairingBn128.sol\":2590:2730  require(... */\n      tag_125\n      jumpi\n      mload(0x40)\n      0x08c379a000000000000000000000000000000000000000000000000000000000\n      dup2\n      mstore\n      0x04\n      add\n      tag_126\n      swap1\n      tag_127\n      jump\t// in\n    tag_126:\n      mload(0x40)\n      dup1\n      swap2\n      sub\n      swap1\n      revert\n    tag_125:\n        /* \"contracts/PairingBn128.sol\":2162:2737  {... */\n      pop\n      pop\n        /* \"contracts/PairingBn128.sol\":2055:2737  function add(G1Point memory p1, G1Point memory p2)... */\n      swap3\n      swap2\n      pop\n      pop\n      jump\t// out\n        /* \"contracts/MiMC7.sol\":681:2571  function _hash(bytes32 x, bytes32 y) internal pure returns (bytes32 out) {... */\n    tag_61:\n        /* \"contracts/MiMC7.sol\":741:752  bytes32 out */\n      0x00\n        /* \"contracts/MiMC7.sol\":1175:1252  21888242871839275222246405745257275088548364400416034343698204186575808495617 */\n      0x30644e72e131a029b85045b68181585d2833e84879b9709143e1f593f0000001\n        /* \"contracts/MiMC7.sol\":1354:1355  r */\n      dup1\n        /* \"contracts/MiMC7.sol\":1351:1352  y */\n      dup4\n        /* \"contracts/MiMC7.sol\":1348:1349  x */\n      dup6\n        /* \"contracts/MiMC7.sol\":1341:1356  addmod(x, y, r) */\n      addmod\n        /* \"contracts/MiMC7.sol\":1392:1393  r */\n      dup2\n        /* \"contracts/MiMC7.sol\":1389:1390  a */\n      dup2\n        /* \"contracts/MiMC7.sol\":1386:1387  a */\n      dup3\n        /* \"contracts/MiMC7.sol\":1379:1394  mulmod(a, a, r) */\n      mulmod\n        /* \"contracts/MiMC7.sol\":1456:1457  r */\n      dup3\n        /* \"contracts/MiMC7.sol\":1453:1454  a */\n      dup3\n        /* \"contracts/MiMC7.sol\":1449:1450  r */\n      dup5\n        /* \"contracts/MiMC7.sol\":1445:1447  a2 */\n      dup4\n        /* \"contracts/MiMC7.sol\":1441:1442  r */\n      dup7\n        /* \"contracts/MiMC7.sol\":1437:1439  a2 */\n      dup6\n        /* \"contracts/MiMC7.sol\":1433:1435  a2 */\n      dup7\n        /* \"contracts/MiMC7.sol\":1426:1443  mulmod(a2, a2, r) */\n      mulmod\n        /* \"contracts/MiMC7.sol\":1419:1451  mulmod(mulmod(a2, a2, r), a2, r) */\n      mulmod\n        /* \"contracts/MiMC7.sol\":1412:1458  mulmod(mulmod(mulmod(a2, a2, r), a2, r), a, r) */\n      mulmod\n        /* \"contracts/MiMC7.sol\":1407:1458  a := mulmod(mulmod(mulmod(a2, a2, r), a2, r), a, r) */\n      swap2\n      pop\n        /* \"contracts/MiMC7.sol\":1657:1723  0xAED26D6A3F5E0EA662411DDFCDE3527479DE9CEE7A56C656FF5F61DF13A39401 */\n      0xaed26d6a3f5e0ea662411ddfcde3527479de9cee7a56c656ff5f61df13a39401\n        /* \"contracts/MiMC7.sol\":1652:1655  0x0 */\n      0x00\n        /* \"contracts/MiMC7.sol\":1645:1724  mstore(0x0, 0xAED26D6A3F5E0EA662411DDFCDE3527479DE9CEE7A56C656FF5F61DF13A39401) */\n      mstore\n        /* \"contracts/MiMC7.sol\":1752:1753  0 */\n      0x00\n        /* \"contracts/MiMC7.sol\":1738:2271  for {let j := 0} slt(j, 90) {j := add(j,1)} {... */\n    tag_129:\n        /* \"contracts/MiMC7.sol\":1762:1764  90 */\n      0x5a\n        /* \"contracts/MiMC7.sol\":1759:1760  j */\n      dup2\n        /* \"contracts/MiMC7.sol\":1755:1765  slt(j, 90) */\n      slt\n        /* \"contracts/MiMC7.sol\":1738:2271  for {let j := 0} slt(j, 90) {j := add(j,1)} {... */\n      iszero\n      tag_131\n      jumpi\n        /* \"contracts/MiMC7.sol\":1968:1970  32 */\n      0x20\n        /* \"contracts/MiMC7.sol\":1963:1966  0x0 */\n      0x00\n        /* \"contracts/MiMC7.sol\":1953:1971  keccak256(0x0, 32) */\n      keccak256\n        /* \"contracts/MiMC7.sol\":2000:2013  roundConstant */\n      dup1\n        /* \"contracts/MiMC7.sol\":1995:1998  0x0 */\n      0x00\n        /* \"contracts/MiMC7.sol\":1988:2014  mstore(0x0, roundConstant) */\n      mstore\n        /* \"contracts/MiMC7.sol\":2148:2149  r */\n      dup5\n        /* \"contracts/MiMC7.sol\":2145:2146  y */\n      dup8\n        /* \"contracts/MiMC7.sol\":2141:2142  r */\n      dup7\n        /* \"contracts/MiMC7.sol\":2126:2139  roundConstant */\n      dup4\n        /* \"contracts/MiMC7.sol\":2123:2124  a */\n      dup8\n        /* \"contracts/MiMC7.sol\":2116:2143  addmod(a, roundConstant, r) */\n      addmod\n        /* \"contracts/MiMC7.sol\":2109:2150  addmod(addmod(a, roundConstant, r), y, r) */\n      addmod\n        /* \"contracts/MiMC7.sol\":2104:2150  a := addmod(addmod(a, roundConstant, r), y, r) */\n      swap4\n      pop\n        /* \"contracts/MiMC7.sol\":2186:2187  r */\n      dup5\n        /* \"contracts/MiMC7.sol\":2183:2184  a */\n      dup5\n        /* \"contracts/MiMC7.sol\":2180:2181  a */\n      dup6\n        /* \"contracts/MiMC7.sol\":2173:2188  mulmod(a, a, r) */\n      mulmod\n        /* \"contracts/MiMC7.sol\":2167:2188  a2 := mulmod(a, a, r) */\n      swap3\n      pop\n        /* \"contracts/MiMC7.sol\":2255:2256  r */\n      dup5\n        /* \"contracts/MiMC7.sol\":2252:2253  a */\n      dup5\n        /* \"contracts/MiMC7.sol\":2248:2249  r */\n      dup7\n        /* \"contracts/MiMC7.sol\":2244:2246  a2 */\n      dup6\n        /* \"contracts/MiMC7.sol\":2240:2241  r */\n      dup9\n        /* \"contracts/MiMC7.sol\":2236:2238  a2 */\n      dup8\n        /* \"contracts/MiMC7.sol\":2232:2234  a2 */\n      dup9\n        /* \"contracts/MiMC7.sol\":2225:2242  mulmod(a2, a2, r) */\n      mulmod\n        /* \"contracts/MiMC7.sol\":2218:2250  mulmod(mulmod(a2, a2, r), a2, r) */\n      mulmod\n        /* \"contracts/MiMC7.sol\":2211:2257  mulmod(mulmod(mulmod(a2, a2, r), a2, r), a, r) */\n      mulmod\n        /* \"contracts/MiMC7.sol\":2205:2257  a :=  mulmod(mulmod(mulmod(a2, a2, r), a2, r), a, r) */\n      swap4\n      pop\n        /* \"contracts/MiMC7.sol\":1782:2271  {... */\n      pop\n        /* \"contracts/MiMC7.sol\":1778:1779  1 */\n      0x01\n        /* \"contracts/MiMC7.sol\":1776:1777  j */\n      dup2\n        /* \"contracts/MiMC7.sol\":1772:1780  add(j,1) */\n      add\n        /* \"contracts/MiMC7.sol\":1767:1780  j := add(j,1) */\n      swap1\n      pop\n        /* \"contracts/MiMC7.sol\":1738:2271  for {let j := 0} slt(j, 90) {j := add(j,1)} {... */\n      jump(tag_129)\n    tag_131:\n        /* \"contracts/MiMC7.sol\":1742:1754  {let j := 0} */\n      pop\n        /* \"contracts/MiMC7.sol\":2379:2380  r */\n      dup3\n        /* \"contracts/MiMC7.sol\":2376:2377  y */\n      dup6\n        /* \"contracts/MiMC7.sol\":2373:2374  a */\n      dup4\n        /* \"contracts/MiMC7.sol\":2366:2381  addmod(a, y, r) */\n      addmod\n        /* \"contracts/MiMC7.sol\":2361:2381  a := addmod(a, y, r) */\n      swap2\n      pop\n        /* \"contracts/MiMC7.sol\":2553:2554  r */\n      dup3\n        /* \"contracts/MiMC7.sol\":2550:2551  y */\n      dup6\n        /* \"contracts/MiMC7.sol\":2546:2547  r */\n      dup5\n        /* \"contracts/MiMC7.sol\":2543:2544  x */\n      dup9\n        /* \"contracts/MiMC7.sol\":2540:2541  a */\n      dup6\n        /* \"contracts/MiMC7.sol\":2533:2548  addmod(a, x, r) */\n      addmod\n        /* \"contracts/MiMC7.sol\":2526:2555  addmod(addmod(a, x, r), y, r) */\n      addmod\n        /* \"contracts/MiMC7.sol\":2519:2555  out := addmod(addmod(a, x, r), y, r) */\n      swap4\n      pop\n        /* \"contracts/MiMC7.sol\":1094:2565  {... */\n      pop\n      pop\n      pop\n        /* \"contracts/MiMC7.sol\":681:2571  function _hash(bytes32 x, bytes32 y) internal pure returns (bytes32 out) {... */\n      swap3\n      swap2\n      pop\n      pop\n      jump\t// out\n    tag_39:\n      mload(0x40)\n      dup1\n      0x40\n      add\n      0x40\n      mstore\n      dup1\n      0x00\n      dup2\n      mstore\n      0x20\n      add\n      0x00\n      dup2\n      mstore\n      pop\n      swap1\n      jump\t// out\n    tag_56:\n      mload(0x40)\n      dup1\n      0x40\n      add\n      0x40\n      mstore\n      dup1\n      0x02\n      swap1\n      0x20\n      dup3\n      mul\n      dup1\n      calldatasize\n      dup4\n      calldatacopy\n      dup1\n      dup3\n      add\n      swap2\n      pop\n      pop\n      swap1\n      pop\n      pop\n      swap1\n      jump\t// out\n    tag_95:\n      mload(0x40)\n      dup1\n      0x60\n      add\n      0x40\n      mstore\n      dup1\n      0x03\n      swap1\n      0x20\n      dup3\n      mul\n      dup1\n      calldatasize\n      dup4\n      calldatacopy\n      dup1\n      dup3\n      add\n      swap2\n      pop\n      pop\n      swap1\n      pop\n      pop\n      swap1\n      jump\t// out\n    tag_116:\n      mload(0x40)\n      dup1\n      0x80\n      add\n      0x40\n      mstore\n      dup1\n      0x04\n      swap1\n      0x20\n      dup3\n      mul\n      dup1\n      calldatasize\n      dup4\n      calldatacopy\n      dup1\n      dup3\n      add\n      swap2\n      pop\n      pop\n      swap1\n      pop\n      pop\n      swap1\n      jump\t// out\n        /* \"#utility.yul\":25:680   */\n    tag_133:\n        /* \"#utility.yul\":119:124   */\n      0x00\n        /* \"#utility.yul\":144:223   */\n      tag_135\n        /* \"#utility.yul\":160:222   */\n      tag_136\n        /* \"#utility.yul\":215:221   */\n      dup5\n        /* \"#utility.yul\":160:222   */\n      tag_137\n      jump\t// in\n    tag_136:\n        /* \"#utility.yul\":144:223   */\n      tag_138\n      jump\t// in\n    tag_135:\n        /* \"#utility.yul\":135:223   */\n      swap1\n      pop\n        /* \"#utility.yul\":243:248   */\n      dup1\n        /* \"#utility.yul\":269:275   */\n      dup3\n        /* \"#utility.yul\":319:322   */\n      dup6\n        /* \"#utility.yul\":311:315   */\n      0x20\n        /* \"#utility.yul\":303:309   */\n      dup7\n        /* \"#utility.yul\":299:316   */\n      mul\n        /* \"#utility.yul\":294:297   */\n      dup3\n        /* \"#utility.yul\":290:317   */\n      add\n        /* \"#utility.yul\":287:323   */\n      gt\n        /* \"#utility.yul\":284:427   */\n      iszero\n      tag_139\n      jumpi\n        /* \"#utility.yul\":338:417   */\n      tag_140\n      tag_141\n      jump\t// in\n    tag_140:\n        /* \"#utility.yul\":284:427   */\n    tag_139:\n        /* \"#utility.yul\":451:452   */\n      0x00\n        /* \"#utility.yul\":436:674   */\n    tag_142:\n        /* \"#utility.yul\":461:467   */\n      dup6\n        /* \"#utility.yul\":458:459   */\n      dup2\n        /* \"#utility.yul\":455:468   */\n      lt\n        /* \"#utility.yul\":436:674   */\n      iszero\n      tag_144\n      jumpi\n        /* \"#utility.yul\":529:532   */\n      dup2\n        /* \"#utility.yul\":558:595   */\n      tag_145\n        /* \"#utility.yul\":591:594   */\n      dup9\n        /* \"#utility.yul\":579:589   */\n      dup3\n        /* \"#utility.yul\":558:595   */\n      tag_146\n      jump\t// in\n    tag_145:\n        /* \"#utility.yul\":553:556   */\n      dup5\n        /* \"#utility.yul\":546:596   */\n      mstore\n        /* \"#utility.yul\":625:629   */\n      0x20\n        /* \"#utility.yul\":620:623   */\n      dup5\n        /* \"#utility.yul\":616:630   */\n      add\n        /* \"#utility.yul\":609:630   */\n      swap4\n      pop\n        /* \"#utility.yul\":659:663   */\n      0x20\n        /* \"#utility.yul\":654:657   */\n      dup4\n        /* \"#utility.yul\":650:664   */\n      add\n        /* \"#utility.yul\":643:664   */\n      swap3\n      pop\n        /* \"#utility.yul\":496:674   */\n      pop\n        /* \"#utility.yul\":483:484   */\n      0x01\n        /* \"#utility.yul\":480:481   */\n      dup2\n        /* \"#utility.yul\":476:485   */\n      add\n        /* \"#utility.yul\":471:485   */\n      swap1\n      pop\n        /* \"#utility.yul\":436:674   */\n      jump(tag_142)\n    tag_144:\n        /* \"#utility.yul\":440:454   */\n      pop\n        /* \"#utility.yul\":125:680   */\n      pop\n      pop\n        /* \"#utility.yul\":25:680   */\n      swap4\n      swap3\n      pop\n      pop\n      pop\n      jump\t// out\n        /* \"#utility.yul\":704:1359   */\n    tag_147:\n        /* \"#utility.yul\":798:803   */\n      0x00\n        /* \"#utility.yul\":823:902   */\n      tag_149\n        /* \"#utility.yul\":839:901   */\n      tag_150\n        /* \"#utility.yul\":894:900   */\n      dup5\n        /* \"#utility.yul\":839:901   */\n      tag_151\n      jump\t// in\n    tag_150:\n        /* \"#utility.yul\":823:902   */\n      tag_138\n      jump\t// in\n    tag_149:\n        /* \"#utility.yul\":814:902   */\n      swap1\n      pop\n        /* \"#utility.yul\":922:927   */\n      dup1\n        /* \"#utility.yul\":948:954   */\n      dup3\n        /* \"#utility.yul\":998:1001   */\n      dup6\n        /* \"#utility.yul\":990:994   */\n      0x20\n        /* \"#utility.yul\":982:988   */\n      dup7\n        /* \"#utility.yul\":978:995   */\n      mul\n        /* \"#utility.yul\":973:976   */\n      dup3\n        /* \"#utility.yul\":969:996   */\n      add\n        /* \"#utility.yul\":966:1002   */\n      gt\n        /* \"#utility.yul\":963:1106   */\n      iszero\n      tag_152\n      jumpi\n        /* \"#utility.yul\":1017:1096   */\n      tag_153\n      tag_141\n      jump\t// in\n    tag_153:\n        /* \"#utility.yul\":963:1106   */\n    tag_152:\n        /* \"#utility.yul\":1130:1131   */\n      0x00\n        /* \"#utility.yul\":1115:1353   */\n    tag_154:\n        /* \"#utility.yul\":1140:1146   */\n      dup6\n        /* \"#utility.yul\":1137:1138   */\n      dup2\n        /* \"#utility.yul\":1134:1147   */\n      lt\n        /* \"#utility.yul\":1115:1353   */\n      iszero\n      tag_156\n      jumpi\n        /* \"#utility.yul\":1208:1211   */\n      dup2\n        /* \"#utility.yul\":1237:1274   */\n      tag_157\n        /* \"#utility.yul\":1270:1273   */\n      dup9\n        /* \"#utility.yul\":1258:1268   */\n      dup3\n        /* \"#utility.yul\":1237:1274   */\n      tag_146\n      jump\t// in\n    tag_157:\n        /* \"#utility.yul\":1232:1235   */\n      dup5\n        /* \"#utility.yul\":1225:1275   */\n      mstore\n        /* \"#utility.yul\":1304:1308   */\n      0x20\n        /* \"#utility.yul\":1299:1302   */\n      dup5\n        /* \"#utility.yul\":1295:1309   */\n      add\n        /* \"#utility.yul\":1288:1309   */\n      swap4\n      pop\n        /* \"#utility.yul\":1338:1342   */\n      0x20\n        /* \"#utility.yul\":1333:1336   */\n      dup4\n        /* \"#utility.yul\":1329:1343   */\n      add\n        /* \"#utility.yul\":1322:1343   */\n      swap3\n      pop\n        /* \"#utility.yul\":1175:1353   */\n      pop\n        /* \"#utility.yul\":1162:1163   */\n      0x01\n        /* \"#utility.yul\":1159:1160   */\n      dup2\n        /* \"#utility.yul\":1155:1164   */\n      add\n        /* \"#utility.yul\":1150:1164   */\n      swap1\n      pop\n        /* \"#utility.yul\":1115:1353   */\n      jump(tag_154)\n    tag_156:\n        /* \"#utility.yul\":1119:1133   */\n      pop\n        /* \"#utility.yul\":804:1359   */\n      pop\n      pop\n        /* \"#utility.yul\":704:1359   */\n      swap4\n      swap3\n      pop\n      pop\n      pop\n      jump\t// out\n        /* \"#utility.yul\":1383:1722   */\n    tag_158:\n        /* \"#utility.yul\":1452:1457   */\n      0x00\n        /* \"#utility.yul\":1501:1504   */\n      dup3\n        /* \"#utility.yul\":1494:1498   */\n      0x1f\n        /* \"#utility.yul\":1486:1492   */\n      dup4\n        /* \"#utility.yul\":1482:1499   */\n      add\n        /* \"#utility.yul\":1478:1505   */\n      slt\n        /* \"#utility.yul\":1468:1590   */\n      tag_160\n      jumpi\n        /* \"#utility.yul\":1509:1588   */\n      tag_161\n      tag_162\n      jump\t// in\n    tag_161:\n        /* \"#utility.yul\":1468:1590   */\n    tag_160:\n        /* \"#utility.yul\":1613:1617   */\n      0x02\n        /* \"#utility.yul\":1635:1716   */\n      tag_163\n        /* \"#utility.yul\":1712:1715   */\n      dup5\n        /* \"#utility.yul\":1704:1710   */\n      dup3\n        /* \"#utility.yul\":1696:1702   */\n      dup6\n        /* \"#utility.yul\":1635:1716   */\n      tag_133\n      jump\t// in\n    tag_163:\n        /* \"#utility.yul\":1626:1716   */\n      swap2\n      pop\n        /* \"#utility.yul\":1458:1722   */\n      pop\n        /* \"#utility.yul\":1383:1722   */\n      swap3\n      swap2\n      pop\n      pop\n      jump\t// out\n        /* \"#utility.yul\":1746:2085   */\n    tag_164:\n        /* \"#utility.yul\":1815:1820   */\n      0x00\n        /* \"#utility.yul\":1864:1867   */\n      dup3\n        /* \"#utility.yul\":1857:1861   */\n      0x1f\n        /* \"#utility.yul\":1849:1855   */\n      dup4\n        /* \"#utility.yul\":1845:1862   */\n      add\n        /* \"#utility.yul\":1841:1868   */\n      slt\n        /* \"#utility.yul\":1831:1953   */\n      tag_166\n      jumpi\n        /* \"#utility.yul\":1872:1951   */\n      tag_167\n      tag_162\n      jump\t// in\n    tag_167:\n        /* \"#utility.yul\":1831:1953   */\n    tag_166:\n        /* \"#utility.yul\":1976:1980   */\n      0x03\n        /* \"#utility.yul\":1998:2079   */\n      tag_168\n        /* \"#utility.yul\":2075:2078   */\n      dup5\n        /* \"#utility.yul\":2067:2073   */\n      dup3\n        /* \"#utility.yul\":2059:2065   */\n      dup6\n        /* \"#utility.yul\":1998:2079   */\n      tag_147\n      jump\t// in\n    tag_168:\n        /* \"#utility.yul\":1989:2079   */\n      swap2\n      pop\n        /* \"#utility.yul\":1821:2085   */\n      pop\n        /* \"#utility.yul\":1746:2085   */\n      swap3\n      swap2\n      pop\n      pop\n      jump\t// out\n        /* \"#utility.yul\":2121:2721   */\n    tag_169:\n        /* \"#utility.yul\":2205:2210   */\n      0x00\n        /* \"#utility.yul\":2249:2253   */\n      0x40\n        /* \"#utility.yul\":2237:2246   */\n      dup3\n        /* \"#utility.yul\":2232:2235   */\n      dup5\n        /* \"#utility.yul\":2228:2247   */\n      sub\n        /* \"#utility.yul\":2224:2254   */\n      slt\n        /* \"#utility.yul\":2221:2338   */\n      iszero\n      tag_171\n      jumpi\n        /* \"#utility.yul\":2257:2336   */\n      tag_172\n      tag_173\n      jump\t// in\n    tag_172:\n        /* \"#utility.yul\":2221:2338   */\n    tag_171:\n        /* \"#utility.yul\":2356:2377   */\n      tag_174\n        /* \"#utility.yul\":2372:2376   */\n      0x40\n        /* \"#utility.yul\":2356:2377   */\n      tag_138\n      jump\t// in\n    tag_174:\n        /* \"#utility.yul\":2347:2377   */\n      swap1\n      pop\n        /* \"#utility.yul\":2433:2434   */\n      0x00\n        /* \"#utility.yul\":2473:2533   */\n      tag_175\n        /* \"#utility.yul\":2529:2532   */\n      dup5\n        /* \"#utility.yul\":2520:2526   */\n      dup3\n        /* \"#utility.yul\":2509:2518   */\n      dup6\n        /* \"#utility.yul\":2505:2527   */\n      add\n        /* \"#utility.yul\":2473:2533   */\n      tag_176\n      jump\t// in\n    tag_175:\n        /* \"#utility.yul\":2466:2470   */\n      0x00\n        /* \"#utility.yul\":2459:2464   */\n      dup4\n        /* \"#utility.yul\":2455:2471   */\n      add\n        /* \"#utility.yul\":2448:2534   */\n      mstore\n        /* \"#utility.yul\":2387:2545   */\n      pop\n        /* \"#utility.yul\":2601:2603   */\n      0x20\n        /* \"#utility.yul\":2642:2702   */\n      tag_177\n        /* \"#utility.yul\":2698:2701   */\n      dup5\n        /* \"#utility.yul\":2689:2695   */\n      dup3\n        /* \"#utility.yul\":2678:2687   */\n      dup6\n        /* \"#utility.yul\":2674:2696   */\n      add\n        /* \"#utility.yul\":2642:2702   */\n      tag_176\n      jump\t// in\n    tag_177:\n        /* \"#utility.yul\":2635:2639   */\n      0x20\n        /* \"#utility.yul\":2628:2633   */\n      dup4\n        /* \"#utility.yul\":2624:2640   */\n      add\n        /* \"#utility.yul\":2617:2703   */\n      mstore\n        /* \"#utility.yul\":2555:2714   */\n      pop\n        /* \"#utility.yul\":2121:2721   */\n      swap3\n      swap2\n      pop\n      pop\n      jump\t// out\n        /* \"#utility.yul\":2727:2866   */\n    tag_146:\n        /* \"#utility.yul\":2773:2778   */\n      0x00\n        /* \"#utility.yul\":2811:2817   */\n      dup2\n        /* \"#utility.yul\":2798:2818   */\n      calldataload\n        /* \"#utility.yul\":2789:2818   */\n      swap1\n      pop\n        /* \"#utility.yul\":2827:2860   */\n      tag_179\n        /* \"#utility.yul\":2854:2859   */\n      dup2\n        /* \"#utility.yul\":2827:2860   */\n      tag_180\n      jump\t// in\n    tag_179:\n        /* \"#utility.yul\":2727:2866   */\n      swap3\n      swap2\n      pop\n      pop\n      jump\t// out\n        /* \"#utility.yul\":2872:3015   */\n    tag_176:\n        /* \"#utility.yul\":2929:2934   */\n      0x00\n        /* \"#utility.yul\":2960:2966   */\n      dup2\n        /* \"#utility.yul\":2954:2967   */\n      mload\n        /* \"#utility.yul\":2945:2967   */\n      swap1\n      pop\n        /* \"#utility.yul\":2976:3009   */\n      tag_182\n        /* \"#utility.yul\":3003:3008   */\n      dup2\n        /* \"#utility.yul\":2976:3009   */\n      tag_180\n      jump\t// in\n    tag_182:\n        /* \"#utility.yul\":2872:3015   */\n      swap3\n      swap2\n      pop\n      pop\n      jump\t// out\n        /* \"#utility.yul\":3021:3420   */\n    tag_45:\n        /* \"#utility.yul\":3115:3121   */\n      0x00\n        /* \"#utility.yul\":3164:3166   */\n      0x40\n        /* \"#utility.yul\":3152:3161   */\n      dup3\n        /* \"#utility.yul\":3143:3150   */\n      dup5\n        /* \"#utility.yul\":3139:3162   */\n      sub\n        /* \"#utility.yul\":3135:3167   */\n      slt\n        /* \"#utility.yul\":3132:3251   */\n      iszero\n      tag_184\n      jumpi\n        /* \"#utility.yul\":3170:3249   */\n      tag_185\n      tag_186\n      jump\t// in\n    tag_185:\n        /* \"#utility.yul\":3132:3251   */\n    tag_184:\n        /* \"#utility.yul\":3290:3291   */\n      0x00\n        /* \"#utility.yul\":3315:3403   */\n      tag_187\n        /* \"#utility.yul\":3395:3402   */\n      dup5\n        /* \"#utility.yul\":3386:3392   */\n      dup3\n        /* \"#utility.yul\":3375:3384   */\n      dup6\n        /* \"#utility.yul\":3371:3393   */\n      add\n        /* \"#utility.yul\":3315:3403   */\n      tag_169\n      jump\t// in\n    tag_187:\n        /* \"#utility.yul\":3305:3403   */\n      swap2\n      pop\n        /* \"#utility.yul\":3261:3413   */\n      pop\n        /* \"#utility.yul\":3021:3420   */\n      swap3\n      swap2\n      pop\n      pop\n      jump\t// out\n        /* \"#utility.yul\":3426:3755   */\n    tag_14:\n        /* \"#utility.yul\":3485:3491   */\n      0x00\n        /* \"#utility.yul\":3534:3536   */\n      0x20\n        /* \"#utility.yul\":3522:3531   */\n      dup3\n        /* \"#utility.yul\":3513:3520   */\n      dup5\n        /* \"#utility.yul\":3509:3532   */\n      sub\n        /* \"#utility.yul\":3505:3537   */\n      slt\n        /* \"#utility.yul\":3502:3621   */\n      iszero\n      tag_189\n      jumpi\n        /* \"#utility.yul\":3540:3619   */\n      tag_190\n      tag_186\n      jump\t// in\n    tag_190:\n        /* \"#utility.yul\":3502:3621   */\n    tag_189:\n        /* \"#utility.yul\":3660:3661   */\n      0x00\n        /* \"#utility.yul\":3685:3738   */\n      tag_191\n        /* \"#utility.yul\":3730:3737   */\n      dup5\n        /* \"#utility.yul\":3721:3727   */\n      dup3\n        /* \"#utility.yul\":3710:3719   */\n      dup6\n        /* \"#utility.yul\":3706:3728   */\n      add\n        /* \"#utility.yul\":3685:3738   */\n      tag_146\n      jump\t// in\n    tag_191:\n        /* \"#utility.yul\":3675:3738   */\n      swap2\n      pop\n        /* \"#utility.yul\":3631:3748   */\n      pop\n        /* \"#utility.yul\":3426:3755   */\n      swap3\n      swap2\n      pop\n      pop\n      jump\t// out\n        /* \"#utility.yul\":3761:4281   */\n    tag_19:\n        /* \"#utility.yul\":3852:3858   */\n      0x00\n        /* \"#utility.yul\":3860:3866   */\n      dup1\n        /* \"#utility.yul\":3909:3911   */\n      0x60\n        /* \"#utility.yul\":3897:3906   */\n      dup4\n        /* \"#utility.yul\":3888:3895   */\n      dup6\n        /* \"#utility.yul\":3884:3907   */\n      sub\n        /* \"#utility.yul\":3880:3912   */\n      slt\n        /* \"#utility.yul\":3877:3996   */\n      iszero\n      tag_193\n      jumpi\n        /* \"#utility.yul\":3915:3994   */\n      tag_194\n      tag_186\n      jump\t// in\n    tag_194:\n        /* \"#utility.yul\":3877:3996   */\n    tag_193:\n        /* \"#utility.yul\":4035:4036   */\n      0x00\n        /* \"#utility.yul\":4060:4113   */\n      tag_195\n        /* \"#utility.yul\":4105:4112   */\n      dup6\n        /* \"#utility.yul\":4096:4102   */\n      dup3\n        /* \"#utility.yul\":4085:4094   */\n      dup7\n        /* \"#utility.yul\":4081:4103   */\n      add\n        /* \"#utility.yul\":4060:4113   */\n      tag_146\n      jump\t// in\n    tag_195:\n        /* \"#utility.yul\":4050:4113   */\n      swap3\n      pop\n        /* \"#utility.yul\":4006:4123   */\n      pop\n        /* \"#utility.yul\":4162:4164   */\n      0x20\n        /* \"#utility.yul\":4188:4264   */\n      tag_196\n        /* \"#utility.yul\":4256:4263   */\n      dup6\n        /* \"#utility.yul\":4247:4253   */\n      dup3\n        /* \"#utility.yul\":4236:4245   */\n      dup7\n        /* \"#utility.yul\":4232:4254   */\n      add\n        /* \"#utility.yul\":4188:4264   */\n      tag_158\n      jump\t// in\n    tag_196:\n        /* \"#utility.yul\":4178:4264   */\n      swap2\n      pop\n        /* \"#utility.yul\":4133:4274   */\n      pop\n        /* \"#utility.yul\":3761:4281   */\n      swap3\n      pop\n      swap3\n      swap1\n      pop\n      jump\t// out\n        /* \"#utility.yul\":4287:4808   */\n    tag_25:\n        /* \"#utility.yul\":4378:4384   */\n      0x00\n        /* \"#utility.yul\":4386:4392   */\n      dup1\n        /* \"#utility.yul\":4435:4438   */\n      0x80\n        /* \"#utility.yul\":4423:4432   */\n      dup4\n        /* \"#utility.yul\":4414:4421   */\n      dup6\n        /* \"#utility.yul\":4410:4433   */\n      sub\n        /* \"#utility.yul\":4406:4439   */\n      slt\n        /* \"#utility.yul\":4403:4523   */\n      iszero\n      tag_198\n      jumpi\n        /* \"#utility.yul\":4442:4521   */\n      tag_199\n      tag_186\n      jump\t// in\n    tag_199:\n        /* \"#utility.yul\":4403:4523   */\n    tag_198:\n        /* \"#utility.yul\":4562:4563   */\n      0x00\n        /* \"#utility.yul\":4587:4640   */\n      tag_200\n        /* \"#utility.yul\":4632:4639   */\n      dup6\n        /* \"#utility.yul\":4623:4629   */\n      dup3\n        /* \"#utility.yul\":4612:4621   */\n      dup7\n        /* \"#utility.yul\":4608:4630   */\n      add\n        /* \"#utility.yul\":4587:4640   */\n      tag_146\n      jump\t// in\n    tag_200:\n        /* \"#utility.yul\":4577:4640   */\n      swap3\n      pop\n        /* \"#utility.yul\":4533:4650   */\n      pop\n        /* \"#utility.yul\":4689:4691   */\n      0x20\n        /* \"#utility.yul\":4715:4791   */\n      tag_201\n        /* \"#utility.yul\":4783:4790   */\n      dup6\n        /* \"#utility.yul\":4774:4780   */\n      dup3\n        /* \"#utility.yul\":4763:4772   */\n      dup7\n        /* \"#utility.yul\":4759:4781   */\n      add\n        /* \"#utility.yul\":4715:4791   */\n      tag_164\n      jump\t// in\n    tag_201:\n        /* \"#utility.yul\":4705:4791   */\n      swap2\n      pop\n        /* \"#utility.yul\":4660:4801   */\n      pop\n        /* \"#utility.yul\":4287:4808   */\n      swap3\n      pop\n      swap3\n      swap1\n      pop\n      jump\t// out\n        /* \"#utility.yul\":4814:4993   */\n    tag_202:\n        /* \"#utility.yul\":4883:4893   */\n      0x00\n        /* \"#utility.yul\":4904:4950   */\n      tag_204\n        /* \"#utility.yul\":4946:4949   */\n      dup4\n        /* \"#utility.yul\":4938:4944   */\n      dup4\n        /* \"#utility.yul\":4904:4950   */\n      tag_205\n      jump\t// in\n    tag_204:\n        /* \"#utility.yul\":4982:4986   */\n      0x20\n        /* \"#utility.yul\":4977:4980   */\n      dup4\n        /* \"#utility.yul\":4973:4987   */\n      add\n        /* \"#utility.yul\":4959:4987   */\n      swap1\n      pop\n        /* \"#utility.yul\":4814:4993   */\n      swap3\n      swap2\n      pop\n      pop\n      jump\t// out\n        /* \"#utility.yul\":5031:5725   */\n    tag_206:\n        /* \"#utility.yul\":5167:5219   */\n      tag_208\n        /* \"#utility.yul\":5213:5218   */\n      dup2\n        /* \"#utility.yul\":5167:5219   */\n      tag_209\n      jump\t// in\n    tag_208:\n        /* \"#utility.yul\":5235:5319   */\n      tag_210\n        /* \"#utility.yul\":5312:5318   */\n      dup2\n        /* \"#utility.yul\":5307:5310   */\n      dup5\n        /* \"#utility.yul\":5235:5319   */\n      tag_211\n      jump\t// in\n    tag_210:\n        /* \"#utility.yul\":5228:5319   */\n      swap3\n      pop\n        /* \"#utility.yul\":5343:5397   */\n      tag_212\n        /* \"#utility.yul\":5391:5396   */\n      dup3\n        /* \"#utility.yul\":5343:5397   */\n      tag_213\n      jump\t// in\n    tag_212:\n        /* \"#utility.yul\":5420:5427   */\n      dup1\n        /* \"#utility.yul\":5451:5452   */\n      0x00\n        /* \"#utility.yul\":5436:5718   */\n    tag_214:\n        /* \"#utility.yul\":5461:5467   */\n      dup4\n        /* \"#utility.yul\":5458:5459   */\n      dup2\n        /* \"#utility.yul\":5455:5468   */\n      lt\n        /* \"#utility.yul\":5436:5718   */\n      iszero\n      tag_216\n      jumpi\n        /* \"#utility.yul\":5537:5543   */\n      dup2\n        /* \"#utility.yul\":5531:5544   */\n      mload\n        /* \"#utility.yul\":5564:5627   */\n      tag_217\n        /* \"#utility.yul\":5623:5626   */\n      dup8\n        /* \"#utility.yul\":5608:5621   */\n      dup3\n        /* \"#utility.yul\":5564:5627   */\n      tag_202\n      jump\t// in\n    tag_217:\n        /* \"#utility.yul\":5557:5627   */\n      swap7\n      pop\n        /* \"#utility.yul\":5650:5708   */\n      tag_218\n        /* \"#utility.yul\":5701:5707   */\n      dup4\n        /* \"#utility.yul\":5650:5708   */\n      tag_219\n      jump\t// in\n    tag_218:\n        /* \"#utility.yul\":5640:5708   */\n      swap3\n      pop\n        /* \"#utility.yul\":5496:5718   */\n      pop\n        /* \"#utility.yul\":5483:5484   */\n      0x01\n        /* \"#utility.yul\":5480:5481   */\n      dup2\n        /* \"#utility.yul\":5476:5485   */\n      add\n        /* \"#utility.yul\":5471:5485   */\n      swap1\n      pop\n        /* \"#utility.yul\":5436:5718   */\n      jump(tag_214)\n    tag_216:\n        /* \"#utility.yul\":5440:5454   */\n      pop\n        /* \"#utility.yul\":5143:5725   */\n      pop\n      pop\n      pop\n        /* \"#utility.yul\":5031:5725   */\n      pop\n      pop\n      jump\t// out\n        /* \"#utility.yul\":5731:5840   */\n    tag_220:\n        /* \"#utility.yul\":5812:5833   */\n      tag_222\n        /* \"#utility.yul\":5827:5832   */\n      dup2\n        /* \"#utility.yul\":5812:5833   */\n      tag_223\n      jump\t// in\n    tag_222:\n        /* \"#utility.yul\":5807:5810   */\n      dup3\n        /* \"#utility.yul\":5800:5834   */\n      mstore\n        /* \"#utility.yul\":5731:5840   */\n      pop\n      pop\n      jump\t// out\n        /* \"#utility.yul\":5846:6212   */\n    tag_224:\n        /* \"#utility.yul\":5988:5991   */\n      0x00\n        /* \"#utility.yul\":6009:6076   */\n      tag_226\n        /* \"#utility.yul\":6073:6075   */\n      0x47\n        /* \"#utility.yul\":6068:6071   */\n      dup4\n        /* \"#utility.yul\":6009:6076   */\n      tag_227\n      jump\t// in\n    tag_226:\n        /* \"#utility.yul\":6002:6076   */\n      swap2\n      pop\n        /* \"#utility.yul\":6085:6178   */\n      tag_228\n        /* \"#utility.yul\":6174:6177   */\n      dup3\n        /* \"#utility.yul\":6085:6178   */\n      tag_229\n      jump\t// in\n    tag_228:\n        /* \"#utility.yul\":6203:6205   */\n      0x60\n        /* \"#utility.yul\":6198:6201   */\n      dup3\n        /* \"#utility.yul\":6194:6206   */\n      add\n        /* \"#utility.yul\":6187:6206   */\n      swap1\n      pop\n        /* \"#utility.yul\":5846:6212   */\n      swap2\n      swap1\n      pop\n      jump\t// out\n        /* \"#utility.yul\":6218:6584   */\n    tag_230:\n        /* \"#utility.yul\":6360:6363   */\n      0x00\n        /* \"#utility.yul\":6381:6448   */\n      tag_232\n        /* \"#utility.yul\":6445:6447   */\n      0x0b\n        /* \"#utility.yul\":6440:6443   */\n      dup4\n        /* \"#utility.yul\":6381:6448   */\n      tag_227\n      jump\t// in\n    tag_232:\n        /* \"#utility.yul\":6374:6448   */\n      swap2\n      pop\n        /* \"#utility.yul\":6457:6550   */\n      tag_233\n        /* \"#utility.yul\":6546:6549   */\n      dup3\n        /* \"#utility.yul\":6457:6550   */\n      tag_234\n      jump\t// in\n    tag_233:\n        /* \"#utility.yul\":6575:6577   */\n      0x20\n        /* \"#utility.yul\":6570:6573   */\n      dup3\n        /* \"#utility.yul\":6566:6578   */\n      add\n        /* \"#utility.yul\":6559:6578   */\n      swap1\n      pop\n        /* \"#utility.yul\":6218:6584   */\n      swap2\n      swap1\n      pop\n      jump\t// out\n        /* \"#utility.yul\":6590:6956   */\n    tag_235:\n        /* \"#utility.yul\":6732:6735   */\n      0x00\n        /* \"#utility.yul\":6753:6820   */\n      tag_237\n        /* \"#utility.yul\":6817:6819   */\n      0x3d\n        /* \"#utility.yul\":6812:6815   */\n      dup4\n        /* \"#utility.yul\":6753:6820   */\n      tag_227\n      jump\t// in\n    tag_237:\n        /* \"#utility.yul\":6746:6820   */\n      swap2\n      pop\n        /* \"#utility.yul\":6829:6922   */\n      tag_238\n        /* \"#utility.yul\":6918:6921   */\n      dup3\n        /* \"#utility.yul\":6829:6922   */\n      tag_239\n      jump\t// in\n    tag_238:\n        /* \"#utility.yul\":6947:6949   */\n      0x40\n        /* \"#utility.yul\":6942:6945   */\n      dup3\n        /* \"#utility.yul\":6938:6950   */\n      add\n        /* \"#utility.yul\":6931:6950   */\n      swap1\n      pop\n        /* \"#utility.yul\":6590:6956   */\n      swap2\n      swap1\n      pop\n      jump\t// out\n        /* \"#utility.yul\":7018:7517   */\n    tag_240:\n        /* \"#utility.yul\":7163:7167   */\n      0x40\n        /* \"#utility.yul\":7158:7161   */\n      dup3\n        /* \"#utility.yul\":7154:7168   */\n      add\n        /* \"#utility.yul\":7247:7251   */\n      0x00\n        /* \"#utility.yul\":7240:7245   */\n      dup3\n        /* \"#utility.yul\":7236:7252   */\n      add\n        /* \"#utility.yul\":7230:7253   */\n      mload\n        /* \"#utility.yul\":7266:7329   */\n      tag_242\n        /* \"#utility.yul\":7323:7327   */\n      0x00\n        /* \"#utility.yul\":7318:7321   */\n      dup6\n        /* \"#utility.yul\":7314:7328   */\n      add\n        /* \"#utility.yul\":7300:7312   */\n      dup3\n        /* \"#utility.yul\":7266:7329   */\n      tag_205\n      jump\t// in\n    tag_242:\n        /* \"#utility.yul\":7178:7339   */\n      pop\n        /* \"#utility.yul\":7418:7422   */\n      0x20\n        /* \"#utility.yul\":7411:7416   */\n      dup3\n        /* \"#utility.yul\":7407:7423   */\n      add\n        /* \"#utility.yul\":7401:7424   */\n      mload\n        /* \"#utility.yul\":7437:7500   */\n      tag_243\n        /* \"#utility.yul\":7494:7498   */\n      0x20\n        /* \"#utility.yul\":7489:7492   */\n      dup6\n        /* \"#utility.yul\":7485:7499   */\n      add\n        /* \"#utility.yul\":7471:7483   */\n      dup3\n        /* \"#utility.yul\":7437:7500   */\n      tag_205\n      jump\t// in\n    tag_243:\n        /* \"#utility.yul\":7349:7510   */\n      pop\n        /* \"#utility.yul\":7132:7517   */\n      pop\n        /* \"#utility.yul\":7018:7517   */\n      pop\n      pop\n      jump\t// out\n        /* \"#utility.yul\":7523:7631   */\n    tag_205:\n        /* \"#utility.yul\":7600:7624   */\n      tag_245\n        /* \"#utility.yul\":7618:7623   */\n      dup2\n        /* \"#utility.yul\":7600:7624   */\n      tag_246\n      jump\t// in\n    tag_245:\n        /* \"#utility.yul\":7595:7598   */\n      dup3\n        /* \"#utility.yul\":7588:7625   */\n      mstore\n        /* \"#utility.yul\":7523:7631   */\n      pop\n      pop\n      jump\t// out\n        /* \"#utility.yul\":7637:7755   */\n    tag_247:\n        /* \"#utility.yul\":7724:7748   */\n      tag_249\n        /* \"#utility.yul\":7742:7747   */\n      dup2\n        /* \"#utility.yul\":7724:7748   */\n      tag_246\n      jump\t// in\n    tag_249:\n        /* \"#utility.yul\":7719:7722   */\n      dup3\n        /* \"#utility.yul\":7712:7749   */\n      mstore\n        /* \"#utility.yul\":7637:7755   */\n      pop\n      pop\n      jump\t// out\n        /* \"#utility.yul\":7761:8075   */\n    tag_22:\n        /* \"#utility.yul\":7900:7904   */\n      0x00\n        /* \"#utility.yul\":7938:7940   */\n      0x40\n        /* \"#utility.yul\":7927:7936   */\n      dup3\n        /* \"#utility.yul\":7923:7941   */\n      add\n        /* \"#utility.yul\":7915:7941   */\n      swap1\n      pop\n        /* \"#utility.yul\":7951:8068   */\n      tag_251\n        /* \"#utility.yul\":8065:8066   */\n      0x00\n        /* \"#utility.yul\":8054:8063   */\n      dup4\n        /* \"#utility.yul\":8050:8067   */\n      add\n        /* \"#utility.yul\":8041:8047   */\n      dup5\n        /* \"#utility.yul\":7951:8068   */\n      tag_206\n      jump\t// in\n    tag_251:\n        /* \"#utility.yul\":7761:8075   */\n      swap3\n      swap2\n      pop\n      pop\n      jump\t// out\n        /* \"#utility.yul\":8081:8291   */\n    tag_28:\n        /* \"#utility.yul\":8168:8172   */\n      0x00\n        /* \"#utility.yul\":8206:8208   */\n      0x20\n        /* \"#utility.yul\":8195:8204   */\n      dup3\n        /* \"#utility.yul\":8191:8209   */\n      add\n        /* \"#utility.yul\":8183:8209   */\n      swap1\n      pop\n        /* \"#utility.yul\":8219:8284   */\n      tag_253\n        /* \"#utility.yul\":8281:8282   */\n      0x00\n        /* \"#utility.yul\":8270:8279   */\n      dup4\n        /* \"#utility.yul\":8266:8283   */\n      add\n        /* \"#utility.yul\":8257:8263   */\n      dup5\n        /* \"#utility.yul\":8219:8284   */\n      tag_220\n      jump\t// in\n    tag_253:\n        /* \"#utility.yul\":8081:8291   */\n      swap3\n      swap2\n      pop\n      pop\n      jump\t// out\n        /* \"#utility.yul\":8297:8716   */\n    tag_127:\n        /* \"#utility.yul\":8463:8467   */\n      0x00\n        /* \"#utility.yul\":8501:8503   */\n      0x20\n        /* \"#utility.yul\":8490:8499   */\n      dup3\n        /* \"#utility.yul\":8486:8504   */\n      add\n        /* \"#utility.yul\":8478:8504   */\n      swap1\n      pop\n        /* \"#utility.yul\":8550:8559   */\n      dup2\n        /* \"#utility.yul\":8544:8548   */\n      dup2\n        /* \"#utility.yul\":8540:8560   */\n      sub\n        /* \"#utility.yul\":8536:8537   */\n      0x00\n        /* \"#utility.yul\":8525:8534   */\n      dup4\n        /* \"#utility.yul\":8521:8538   */\n      add\n        /* \"#utility.yul\":8514:8561   */\n      mstore\n        /* \"#utility.yul\":8578:8709   */\n      tag_255\n        /* \"#utility.yul\":8704:8708   */\n      dup2\n        /* \"#utility.yul\":8578:8709   */\n      tag_224\n      jump\t// in\n    tag_255:\n        /* \"#utility.yul\":8570:8709   */\n      swap1\n      pop\n        /* \"#utility.yul\":8297:8716   */\n      swap2\n      swap1\n      pop\n      jump\t// out\n        /* \"#utility.yul\":8722:9141   */\n    tag_91:\n        /* \"#utility.yul\":8888:8892   */\n      0x00\n        /* \"#utility.yul\":8926:8928   */\n      0x20\n        /* \"#utility.yul\":8915:8924   */\n      dup3\n        /* \"#utility.yul\":8911:8929   */\n      add\n        /* \"#utility.yul\":8903:8929   */\n      swap1\n      pop\n        /* \"#utility.yul\":8975:8984   */\n      dup2\n        /* \"#utility.yul\":8969:8973   */\n      dup2\n        /* \"#utility.yul\":8965:8985   */\n      sub\n        /* \"#utility.yul\":8961:8962   */\n      0x00\n        /* \"#utility.yul\":8950:8959   */\n      dup4\n        /* \"#utility.yul\":8946:8963   */\n      add\n        /* \"#utility.yul\":8939:8986   */\n      mstore\n        /* \"#utility.yul\":9003:9134   */\n      tag_257\n        /* \"#utility.yul\":9129:9133   */\n      dup2\n        /* \"#utility.yul\":9003:9134   */\n      tag_230\n      jump\t// in\n    tag_257:\n        /* \"#utility.yul\":8995:9134   */\n      swap1\n      pop\n        /* \"#utility.yul\":8722:9141   */\n      swap2\n      swap1\n      pop\n      jump\t// out\n        /* \"#utility.yul\":9147:9566   */\n    tag_104:\n        /* \"#utility.yul\":9313:9317   */\n      0x00\n        /* \"#utility.yul\":9351:9353   */\n      0x20\n        /* \"#utility.yul\":9340:9349   */\n      dup3\n        /* \"#utility.yul\":9336:9354   */\n      add\n        /* \"#utility.yul\":9328:9354   */\n      swap1\n      pop\n        /* \"#utility.yul\":9400:9409   */\n      dup2\n        /* \"#utility.yul\":9394:9398   */\n      dup2\n        /* \"#utility.yul\":9390:9410   */\n      sub\n        /* \"#utility.yul\":9386:9387   */\n      0x00\n        /* \"#utility.yul\":9375:9384   */\n      dup4\n        /* \"#utility.yul\":9371:9388   */\n      add\n        /* \"#utility.yul\":9364:9411   */\n      mstore\n        /* \"#utility.yul\":9428:9559   */\n      tag_259\n        /* \"#utility.yul\":9554:9558   */\n      dup2\n        /* \"#utility.yul\":9428:9559   */\n      tag_235\n      jump\t// in\n    tag_259:\n        /* \"#utility.yul\":9420:9559   */\n      swap1\n      pop\n        /* \"#utility.yul\":9147:9566   */\n      swap2\n      swap1\n      pop\n      jump\t// out\n        /* \"#utility.yul\":9572:9890   */\n    tag_11:\n        /* \"#utility.yul\":9713:9717   */\n      0x00\n        /* \"#utility.yul\":9751:9753   */\n      0x40\n        /* \"#utility.yul\":9740:9749   */\n      dup3\n        /* \"#utility.yul\":9736:9754   */\n      add\n        /* \"#utility.yul\":9728:9754   */\n      swap1\n      pop\n        /* \"#utility.yul\":9764:9883   */\n      tag_261\n        /* \"#utility.yul\":9880:9881   */\n      0x00\n        /* \"#utility.yul\":9869:9878   */\n      dup4\n        /* \"#utility.yul\":9865:9882   */\n      add\n        /* \"#utility.yul\":9856:9862   */\n      dup5\n        /* \"#utility.yul\":9764:9883   */\n      tag_240\n      jump\t// in\n    tag_261:\n        /* \"#utility.yul\":9572:9890   */\n      swap3\n      swap2\n      pop\n      pop\n      jump\t// out\n        /* \"#utility.yul\":9896:10228   */\n    tag_33:\n        /* \"#utility.yul\":10017:10021   */\n      0x00\n        /* \"#utility.yul\":10055:10057   */\n      0x40\n        /* \"#utility.yul\":10044:10053   */\n      dup3\n        /* \"#utility.yul\":10040:10058   */\n      add\n        /* \"#utility.yul\":10032:10058   */\n      swap1\n      pop\n        /* \"#utility.yul\":10068:10139   */\n      tag_263\n        /* \"#utility.yul\":10136:10137   */\n      0x00\n        /* \"#utility.yul\":10125:10134   */\n      dup4\n        /* \"#utility.yul\":10121:10138   */\n      add\n        /* \"#utility.yul\":10112:10118   */\n      dup6\n        /* \"#utility.yul\":10068:10139   */\n      tag_247\n      jump\t// in\n    tag_263:\n        /* \"#utility.yul\":10149:10221   */\n      tag_264\n        /* \"#utility.yul\":10217:10219   */\n      0x20\n        /* \"#utility.yul\":10206:10215   */\n      dup4\n        /* \"#utility.yul\":10202:10220   */\n      add\n        /* \"#utility.yul\":10193:10199   */\n      dup5\n        /* \"#utility.yul\":10149:10221   */\n      tag_247\n      jump\t// in\n    tag_264:\n        /* \"#utility.yul\":9896:10228   */\n      swap4\n      swap3\n      pop\n      pop\n      pop\n      jump\t// out\n        /* \"#utility.yul\":10234:10363   */\n    tag_138:\n        /* \"#utility.yul\":10268:10274   */\n      0x00\n        /* \"#utility.yul\":10295:10315   */\n      tag_266\n      tag_267\n      jump\t// in\n    tag_266:\n        /* \"#utility.yul\":10285:10315   */\n      swap1\n      pop\n        /* \"#utility.yul\":10324:10357   */\n      tag_268\n        /* \"#utility.yul\":10352:10356   */\n      dup3\n        /* \"#utility.yul\":10344:10350   */\n      dup3\n        /* \"#utility.yul\":10324:10357   */\n      tag_269\n      jump\t// in\n    tag_268:\n        /* \"#utility.yul\":10234:10363   */\n      swap2\n      swap1\n      pop\n      jump\t// out\n        /* \"#utility.yul\":10369:10444   */\n    tag_267:\n        /* \"#utility.yul\":10402:10408   */\n      0x00\n        /* \"#utility.yul\":10435:10437   */\n      0x40\n        /* \"#utility.yul\":10429:10438   */\n      mload\n        /* \"#utility.yul\":10419:10438   */\n      swap1\n      pop\n        /* \"#utility.yul\":10369:10444   */\n      swap1\n      jump\t// out\n        /* \"#utility.yul\":10450:10699   */\n    tag_137:\n        /* \"#utility.yul\":10525:10529   */\n      0x00\n        /* \"#utility.yul\":10615:10633   */\n      0xffffffffffffffff\n        /* \"#utility.yul\":10607:10613   */\n      dup3\n        /* \"#utility.yul\":10604:10634   */\n      gt\n        /* \"#utility.yul\":10601:10657   */\n      iszero\n      tag_272\n      jumpi\n        /* \"#utility.yul\":10637:10655   */\n      tag_273\n      tag_274\n      jump\t// in\n    tag_273:\n        /* \"#utility.yul\":10601:10657   */\n    tag_272:\n        /* \"#utility.yul\":10687:10691   */\n      0x20\n        /* \"#utility.yul\":10679:10685   */\n      dup3\n        /* \"#utility.yul\":10675:10692   */\n      mul\n        /* \"#utility.yul\":10667:10692   */\n      swap1\n      pop\n        /* \"#utility.yul\":10450:10699   */\n      swap2\n      swap1\n      pop\n      jump\t// out\n        /* \"#utility.yul\":10705:10954   */\n    tag_151:\n        /* \"#utility.yul\":10780:10784   */\n      0x00\n        /* \"#utility.yul\":10870:10888   */\n      0xffffffffffffffff\n        /* \"#utility.yul\":10862:10868   */\n      dup3\n        /* \"#utility.yul\":10859:10889   */\n      gt\n        /* \"#utility.yul\":10856:10912   */\n      iszero\n      tag_276\n      jumpi\n        /* \"#utility.yul\":10892:10910   */\n      tag_277\n      tag_274\n      jump\t// in\n    tag_277:\n        /* \"#utility.yul\":10856:10912   */\n    tag_276:\n        /* \"#utility.yul\":10942:10946   */\n      0x20\n        /* \"#utility.yul\":10934:10940   */\n      dup3\n        /* \"#utility.yul\":10930:10947   */\n      mul\n        /* \"#utility.yul\":10922:10947   */\n      swap1\n      pop\n        /* \"#utility.yul\":10705:10954   */\n      swap2\n      swap1\n      pop\n      jump\t// out\n        /* \"#utility.yul\":10960:11058   */\n    tag_213:\n        /* \"#utility.yul\":11025:11029   */\n      0x00\n        /* \"#utility.yul\":11048:11051   */\n      dup2\n        /* \"#utility.yul\":11040:11051   */\n      swap1\n      pop\n        /* \"#utility.yul\":10960:11058   */\n      swap2\n      swap1\n      pop\n      jump\t// out\n        /* \"#utility.yul\":11064:11168   */\n    tag_209:\n        /* \"#utility.yul\":11129:11135   */\n      0x00\n        /* \"#utility.yul\":11157:11161   */\n      0x02\n        /* \"#utility.yul\":11147:11161   */\n      swap1\n      pop\n        /* \"#utility.yul\":11064:11168   */\n      swap2\n      swap1\n      pop\n      jump\t// out\n        /* \"#utility.yul\":11174:11285   */\n    tag_219:\n        /* \"#utility.yul\":11242:11246   */\n      0x00\n        /* \"#utility.yul\":11274:11278   */\n      0x20\n        /* \"#utility.yul\":11269:11272   */\n      dup3\n        /* \"#utility.yul\":11265:11279   */\n      add\n        /* \"#utility.yul\":11257:11279   */\n      swap1\n      pop\n        /* \"#utility.yul\":11174:11285   */\n      swap2\n      swap1\n      pop\n      jump\t// out\n        /* \"#utility.yul\":11291:11434   */\n    tag_211:\n        /* \"#utility.yul\":11388:11399   */\n      0x00\n        /* \"#utility.yul\":11425:11428   */\n      dup2\n        /* \"#utility.yul\":11410:11428   */\n      swap1\n      pop\n        /* \"#utility.yul\":11291:11434   */\n      swap3\n      swap2\n      pop\n      pop\n      jump\t// out\n        /* \"#utility.yul\":11440:11609   */\n    tag_227:\n        /* \"#utility.yul\":11524:11535   */\n      0x00\n        /* \"#utility.yul\":11558:11564   */\n      dup3\n        /* \"#utility.yul\":11553:11556   */\n      dup3\n        /* \"#utility.yul\":11546:11565   */\n      mstore\n        /* \"#utility.yul\":11598:11602   */\n      0x20\n        /* \"#utility.yul\":11593:11596   */\n      dup3\n        /* \"#utility.yul\":11589:11603   */\n      add\n        /* \"#utility.yul\":11574:11603   */\n      swap1\n      pop\n        /* \"#utility.yul\":11440:11609   */\n      swap3\n      swap2\n      pop\n      pop\n      jump\t// out\n        /* \"#utility.yul\":11615:11806   */\n    tag_112:\n        /* \"#utility.yul\":11655:11659   */\n      0x00\n        /* \"#utility.yul\":11675:11695   */\n      tag_284\n        /* \"#utility.yul\":11693:11694   */\n      dup3\n        /* \"#utility.yul\":11675:11695   */\n      tag_246\n      jump\t// in\n    tag_284:\n        /* \"#utility.yul\":11670:11695   */\n      swap2\n      pop\n        /* \"#utility.yul\":11709:11729   */\n      tag_285\n        /* \"#utility.yul\":11727:11728   */\n      dup4\n        /* \"#utility.yul\":11709:11729   */\n      tag_246\n      jump\t// in\n    tag_285:\n        /* \"#utility.yul\":11704:11729   */\n      swap3\n      pop\n        /* \"#utility.yul\":11748:11749   */\n      dup3\n        /* \"#utility.yul\":11745:11746   */\n      dup3\n        /* \"#utility.yul\":11742:11750   */\n      lt\n        /* \"#utility.yul\":11739:11773   */\n      iszero\n      tag_286\n      jumpi\n        /* \"#utility.yul\":11753:11771   */\n      tag_287\n      tag_288\n      jump\t// in\n    tag_287:\n        /* \"#utility.yul\":11739:11773   */\n    tag_286:\n        /* \"#utility.yul\":11798:11799   */\n      dup3\n        /* \"#utility.yul\":11795:11796   */\n      dup3\n        /* \"#utility.yul\":11791:11800   */\n      sub\n        /* \"#utility.yul\":11783:11800   */\n      swap1\n      pop\n        /* \"#utility.yul\":11615:11806   */\n      swap3\n      swap2\n      pop\n      pop\n      jump\t// out\n        /* \"#utility.yul\":11812:11902   */\n    tag_223:\n        /* \"#utility.yul\":11846:11853   */\n      0x00\n        /* \"#utility.yul\":11889:11894   */\n      dup2\n        /* \"#utility.yul\":11882:11895   */\n      iszero\n        /* \"#utility.yul\":11875:11896   */\n      iszero\n        /* \"#utility.yul\":11864:11896   */\n      swap1\n      pop\n        /* \"#utility.yul\":11812:11902   */\n      swap2\n      swap1\n      pop\n      jump\t// out\n        /* \"#utility.yul\":11908:11985   */\n    tag_246:\n        /* \"#utility.yul\":11945:11952   */\n      0x00\n        /* \"#utility.yul\":11974:11979   */\n      dup2\n        /* \"#utility.yul\":11963:11979   */\n      swap1\n      pop\n        /* \"#utility.yul\":11908:11985   */\n      swap2\n      swap1\n      pop\n      jump\t// out\n        /* \"#utility.yul\":11991:12272   */\n    tag_269:\n        /* \"#utility.yul\":12074:12101   */\n      tag_292\n        /* \"#utility.yul\":12096:12100   */\n      dup3\n        /* \"#utility.yul\":12074:12101   */\n      tag_293\n      jump\t// in\n    tag_292:\n        /* \"#utility.yul\":12066:12072   */\n      dup2\n        /* \"#utility.yul\":12062:12102   */\n      add\n        /* \"#utility.yul\":12204:12210   */\n      dup2\n        /* \"#utility.yul\":12192:12202   */\n      dup2\n        /* \"#utility.yul\":12189:12211   */\n      lt\n        /* \"#utility.yul\":12168:12186   */\n      0xffffffffffffffff\n        /* \"#utility.yul\":12156:12166   */\n      dup3\n        /* \"#utility.yul\":12153:12187   */\n      gt\n        /* \"#utility.yul\":12150:12212   */\n      or\n        /* \"#utility.yul\":12147:12235   */\n      iszero\n      tag_294\n      jumpi\n        /* \"#utility.yul\":12215:12233   */\n      tag_295\n      tag_274\n      jump\t// in\n    tag_295:\n        /* \"#utility.yul\":12147:12235   */\n    tag_294:\n        /* \"#utility.yul\":12255:12265   */\n      dup1\n        /* \"#utility.yul\":12251:12253   */\n      0x40\n        /* \"#utility.yul\":12244:12266   */\n      mstore\n        /* \"#utility.yul\":12034:12272   */\n      pop\n        /* \"#utility.yul\":11991:12272   */\n      pop\n      pop\n      jump\t// out\n        /* \"#utility.yul\":12278:12454   */\n    tag_110:\n        /* \"#utility.yul\":12310:12311   */\n      0x00\n        /* \"#utility.yul\":12327:12347   */\n      tag_297\n        /* \"#utility.yul\":12345:12346   */\n      dup3\n        /* \"#utility.yul\":12327:12347   */\n      tag_246\n      jump\t// in\n    tag_297:\n        /* \"#utility.yul\":12322:12347   */\n      swap2\n      pop\n        /* \"#utility.yul\":12361:12381   */\n      tag_298\n        /* \"#utility.yul\":12379:12380   */\n      dup4\n        /* \"#utility.yul\":12361:12381   */\n      tag_246\n      jump\t// in\n    tag_298:\n        /* \"#utility.yul\":12356:12381   */\n      swap3\n      pop\n        /* \"#utility.yul\":12400:12401   */\n      dup3\n        /* \"#utility.yul\":12390:12425   */\n      tag_299\n      jumpi\n        /* \"#utility.yul\":12405:12423   */\n      tag_300\n      tag_301\n      jump\t// in\n    tag_300:\n        /* \"#utility.yul\":12390:12425   */\n    tag_299:\n        /* \"#utility.yul\":12446:12447   */\n      dup3\n        /* \"#utility.yul\":12443:12444   */\n      dup3\n        /* \"#utility.yul\":12439:12448   */\n      mod\n        /* \"#utility.yul\":12434:12448   */\n      swap1\n      pop\n        /* \"#utility.yul\":12278:12454   */\n      swap3\n      swap2\n      pop\n      pop\n      jump\t// out\n        /* \"#utility.yul\":12460:12640   */\n    tag_288:\n        /* \"#utility.yul\":12508:12585   */\n      0x4e487b7100000000000000000000000000000000000000000000000000000000\n        /* \"#utility.yul\":12505:12506   */\n      0x00\n        /* \"#utility.yul\":12498:12586   */\n      mstore\n        /* \"#utility.yul\":12605:12609   */\n      0x11\n        /* \"#utility.yul\":12602:12603   */\n      0x04\n        /* \"#utility.yul\":12595:12610   */\n      mstore\n        /* \"#utility.yul\":12629:12633   */\n      0x24\n        /* \"#utility.yul\":12626:12627   */\n      0x00\n        /* \"#utility.yul\":12619:12634   */\n      revert\n        /* \"#utility.yul\":12646:12826   */\n    tag_301:\n        /* \"#utility.yul\":12694:12771   */\n      0x4e487b7100000000000000000000000000000000000000000000000000000000\n        /* \"#utility.yul\":12691:12692   */\n      0x00\n        /* \"#utility.yul\":12684:12772   */\n      mstore\n        /* \"#utility.yul\":12791:12795   */\n      0x12\n        /* \"#utility.yul\":12788:12789   */\n      0x04\n        /* \"#utility.yul\":12781:12796   */\n      mstore\n        /* \"#utility.yul\":12815:12819   */\n      0x24\n        /* \"#utility.yul\":12812:12813   */\n      0x00\n        /* \"#utility.yul\":12805:12820   */\n      revert\n        /* \"#utility.yul\":12832:13012   */\n    tag_64:\n        /* \"#utility.yul\":12880:12957   */\n      0x4e487b7100000000000000000000000000000000000000000000000000000000\n        /* \"#utility.yul\":12877:12878   */\n      0x00\n        /* \"#utility.yul\":12870:12958   */\n      mstore\n        /* \"#utility.yul\":12977:12981   */\n      0x32\n        /* \"#utility.yul\":12974:12975   */\n      0x04\n        /* \"#utility.yul\":12967:12982   */\n      mstore\n        /* \"#utility.yul\":13001:13005   */\n      0x24\n        /* \"#utility.yul\":12998:12999   */\n      0x00\n        /* \"#utility.yul\":12991:13006   */\n      revert\n        /* \"#utility.yul\":13018:13198   */\n    tag_274:\n        /* \"#utility.yul\":13066:13143   */\n      0x4e487b7100000000000000000000000000000000000000000000000000000000\n        /* \"#utility.yul\":13063:13064   */\n      0x00\n        /* \"#utility.yul\":13056:13144   */\n      mstore\n        /* \"#utility.yul\":13163:13167   */\n      0x41\n        /* \"#utility.yul\":13160:13161   */\n      0x04\n        /* \"#utility.yul\":13153:13168   */\n      mstore\n        /* \"#utility.yul\":13187:13191   */\n      0x24\n        /* \"#utility.yul\":13184:13185   */\n      0x00\n        /* \"#utility.yul\":13177:13192   */\n      revert\n        /* \"#utility.yul\":13204:13321   */\n    tag_162:\n        /* \"#utility.yul\":13313:13314   */\n      0x00\n        /* \"#utility.yul\":13310:13311   */\n      dup1\n        /* \"#utility.yul\":13303:13315   */\n      revert\n        /* \"#utility.yul\":13327:13444   */\n    tag_173:\n        /* \"#utility.yul\":13436:13437   */\n      0x00\n        /* \"#utility.yul\":13433:13434   */\n      dup1\n        /* \"#utility.yul\":13426:13438   */\n      revert\n        /* \"#utility.yul\":13573:13690   */\n    tag_141:\n        /* \"#utility.yul\":13682:13683   */\n      0x00\n        /* \"#utility.yul\":13679:13680   */\n      dup1\n        /* \"#utility.yul\":13672:13684   */\n      revert\n        /* \"#utility.yul\":13819:13936   */\n    tag_186:\n        /* \"#utility.yul\":13928:13929   */\n      0x00\n        /* \"#utility.yul\":13925:13926   */\n      dup1\n        /* \"#utility.yul\":13918:13930   */\n      revert\n        /* \"#utility.yul\":13942:14044   */\n    tag_293:\n        /* \"#utility.yul\":13983:13989   */\n      0x00\n        /* \"#utility.yul\":14034:14036   */\n      0x1f\n        /* \"#utility.yul\":14030:14037   */\n      not\n        /* \"#utility.yul\":14025:14027   */\n      0x1f\n        /* \"#utility.yul\":14018:14023   */\n      dup4\n        /* \"#utility.yul\":14014:14028   */\n      add\n        /* \"#utility.yul\":14010:14038   */\n      and\n        /* \"#utility.yul\":14000:14038   */\n      swap1\n      pop\n        /* \"#utility.yul\":13942:14044   */\n      swap2\n      swap1\n      pop\n      jump\t// out\n        /* \"#utility.yul\":14050:14345   */\n    tag_229:\n        /* \"#utility.yul\":14190:14224   */\n      0x43616c6c20746f2074686520626e32353641646420707265636f6d70696c6564\n        /* \"#utility.yul\":14186:14187   */\n      0x00\n        /* \"#utility.yul\":14178:14184   */\n      dup3\n        /* \"#utility.yul\":14174:14188   */\n      add\n        /* \"#utility.yul\":14167:14225   */\n      mstore\n        /* \"#utility.yul\":14259:14293   */\n      0x206661696c6564202870726f6261626c7920616e206f7574206f662067617320\n        /* \"#utility.yul\":14254:14256   */\n      0x20\n        /* \"#utility.yul\":14246:14252   */\n      dup3\n        /* \"#utility.yul\":14242:14257   */\n      add\n        /* \"#utility.yul\":14235:14294   */\n      mstore\n        /* \"#utility.yul\":14328:14337   */\n      0x6572726f723f2900000000000000000000000000000000000000000000000000\n        /* \"#utility.yul\":14323:14325   */\n      0x40\n        /* \"#utility.yul\":14315:14321   */\n      dup3\n        /* \"#utility.yul\":14311:14326   */\n      add\n        /* \"#utility.yul\":14304:14338   */\n      mstore\n        /* \"#utility.yul\":14050:14345   */\n      pop\n      jump\t// out\n        /* \"#utility.yul\":14351:14512   */\n    tag_234:\n        /* \"#utility.yul\":14491:14504   */\n      0x766572696679206661696c000000000000000000000000000000000000000000\n        /* \"#utility.yul\":14487:14488   */\n      0x00\n        /* \"#utility.yul\":14479:14485   */\n      dup3\n        /* \"#utility.yul\":14475:14489   */\n      add\n        /* \"#utility.yul\":14468:14505   */\n      mstore\n        /* \"#utility.yul\":14351:14512   */\n      pop\n      jump\t// out\n        /* \"#utility.yul\":14518:14766   */\n    tag_239:\n        /* \"#utility.yul\":14658:14692   */\n      0x43616c6c20746f20626e3235365363616c61724d756c206661696c6564202870\n        /* \"#utility.yul\":14654:14655   */\n      0x00\n        /* \"#utility.yul\":14646:14652   */\n      dup3\n        /* \"#utility.yul\":14642:14656   */\n      add\n        /* \"#utility.yul\":14635:14693   */\n      mstore\n        /* \"#utility.yul\":14727:14758   */\n      0x726f6261626c7920616e206f7574206f6620676173206572726f723f29000000\n        /* \"#utility.yul\":14722:14724   */\n      0x20\n        /* \"#utility.yul\":14714:14720   */\n      dup3\n        /* \"#utility.yul\":14710:14725   */\n      add\n        /* \"#utility.yul\":14703:14759   */\n      mstore\n        /* \"#utility.yul\":14518:14766   */\n      pop\n      jump\t// out\n        /* \"#utility.yul\":14772:14894   */\n    tag_180:\n        /* \"#utility.yul\":14845:14869   */\n      tag_319\n        /* \"#utility.yul\":14863:14868   */\n      dup2\n        /* \"#utility.yul\":14845:14869   */\n      tag_246\n      jump\t// in\n    tag_319:\n        /* \"#utility.yul\":14838:14843   */\n      dup2\n        /* \"#utility.yul\":14835:14870   */\n      eq\n        /* \"#utility.yul\":14825:14888   */\n      tag_320\n      jumpi\n        /* \"#utility.yul\":14884:14885   */\n      0x00\n        /* \"#utility.yul\":14881:14882   */\n      dup1\n        /* \"#utility.yul\":14874:14886   */\n      revert\n        /* \"#utility.yul\":14825:14888   */\n    tag_320:\n        /* \"#utility.yul\":14772:14894   */\n      pop\n      jump\t// out\n\n    auxdata: 0xa2646970667358221220aec14eda1114d76318b2e76b8fd028a2fdfe294c6f28512a88b91e5cfe80c0b064736f6c63430008070033\n}\n",
				"bytecode": {
					"linkReferences": {},
					"object": "60806040523480156200001157600080fd5b5060405162001444380380620014448339818101604052810190620000379190620001e4565b826000600281106200004e576200004d62000306565b5b602002015160008001819055508260016002811062000072576200007162000306565b5b60200201516000600101819055508160006002811062000097576200009662000306565b5b602002015160026000018190555081600160028110620000bc57620000bb62000306565b5b602002015160026001018190555080600460006101000a81548173ffffffffffffffffffffffffffffffffffffffff021916908373ffffffffffffffffffffffffffffffffffffffff160217905550505050620003b8565b60006200012b620001258462000269565b62000240565b9050808285602086028201111562000148576200014762000369565b5b60005b858110156200017c5781620001618882620001cd565b8452602084019350602083019250506001810190506200014b565b5050509392505050565b600081519050620001978162000384565b92915050565b600082601f830112620001b557620001b462000364565b5b6002620001c484828562000114565b91505092915050565b600081519050620001de816200039e565b92915050565b600080600060a084860312156200020057620001ff6200036e565b5b600062000210868287016200019d565b935050604062000223868287016200019d565b9250506080620002368682870162000186565b9150509250925092565b60006200024c6200025f565b90506200025a8282620002d0565b919050565b6000604051905090565b600067ffffffffffffffff82111562000287576200028662000335565b5b602082029050919050565b60006200029f82620002a6565b9050919050565b600073ffffffffffffffffffffffffffffffffffffffff82169050919050565b6000819050919050565b620002db8262000373565b810181811067ffffffffffffffff82111715620002fd57620002fc62000335565b5b80604052505050565b7f4e487b7100000000000000000000000000000000000000000000000000000000600052603260045260246000fd5b7f4e487b7100000000000000000000000000000000000000000000000000000000600052604160045260246000fd5b600080fd5b600080fd5b600080fd5b6000601f19601f8301169050919050565b6200038f8162000292565b81146200039b57600080fd5b50565b620003a981620002c6565b8114620003b557600080fd5b50565b61107c80620003c86000396000f3fe6080604052600436106100555760003560e01c80630651a1241461005a5780634efe3da21461007857806367307e00146100a8578063aad4f5ec146100d8578063b8c9d36514610108578063e2179b8e14610134575b600080fd5b610062610160565b60405161006f9190610cc2565b60405180910390f35b610092600480360381019061008d9190610a4b565b61020c565b60405161009f9190610cc2565b60405180910390f35b6100c260048036038101906100bd9190610a78565b610269565b6040516100cf9190610c2c565b60405180910390f35b6100f260048036038101906100ed9190610ab8565b61032a565b6040516100ff9190610c47565b60405180910390f35b34801561011457600080fd5b5061011d6104c5565b60405161012b929190610cdd565b60405180910390f35b34801561014057600080fd5b506101496104d7565b604051610157929190610cdd565b60405180910390f35b610168610800565b600460009054906101000a900473ffffffffffffffffffffffffffffffffffffffff1673ffffffffffffffffffffffffffffffffffffffff16630651a1246040518163ffffffff1660e01b8152600401604080518083038186803b1580156101cf57600080fd5b505afa1580156101e3573d6000803e3d6000fd5b505050506040513d601f19601f820116820180604052508101906102079190610a1e565b905090565b610214610800565b600061021e610160565b9050600061025d82610258610253600060405180604001604052908160008201548152602001600182015481525050886104e9565b6105b7565b61065c565b90508092505050919050565b61027161081a565b61027961081a565b60006102848561020c565b905061029f60026000015460001b826000015160001b610750565b60001c826000600281106102b6576102b5610ebf565b5b6020020181815250506102ff826000600281106102d6576102d5610ebf565b5b602002015160001b856000600281106102f2576102f1610ebf565b5b602002015160001b610750565b60001c8260016002811061031657610315610ebf565b5b602002018181525050819250505092915050565b600080610335610160565b905060006103748261036f61036a600060405180604001604052908160008201548152602001600182015481525050896104e9565b6105b7565b61065c565b9050600060405180604001604052808660006003811061039757610396610ebf565b5b60200201518152602001866001600381106103b5576103b4610ebf565b5b602002015181525090506000856002600381106103d5576103d4610ebf565b5b6020020151905060006104076103fa60026000015460001b866000015160001b610750565b846000015160001b610750565b90506000610435600260405180604001604052908160008201548152602001600182015481525050846104e9565b90506000610446868460001c6104e9565b90506000610454868361065c565b905080600001518360000151148015610474575080602001518360200151145b6104b3576040517f08c379a00000000000000000000000000000000000000000000000000000000081526004016104aa90610c82565b60405180910390fd5b60019850505050505050505092915050565b60028060000154908060010154905082565b60008060000154908060010154905082565b6104f1610800565b6104f961083c565b83600001518160006003811061051257610511610ebf565b5b60200201818152505083602001518160016003811061053457610533610ebf565b5b602002018181525050828160026003811061055257610551610ebf565b5b6020020181815250506000604083606084600060076107d05a03f19050806105af576040517f08c379a00000000000000000000000000000000000000000000000000000000081526004016105a690610ca2565b60405180910390fd5b505092915050565b6105bf610800565b60007f30644e72e131a029b85045b68181585d97816a916871ca8d3c208c16d87cfd479050600083600001511480156105fc575060008360200151145b15610620576040518060400160405280600081526020016000815250915050610657565b6040518060400160405280846000015181526020018285602001516106459190610e30565b836106509190610db5565b8152509150505b919050565b610664610800565b61066c61085e565b83600001518160006004811061068557610684610ebf565b5b6020020181815250508360200151816001600481106106a7576106a6610ebf565b5b6020020181815250508260000151816002600481106106c9576106c8610ebf565b5b6020020181815250508260200151816003600481106106eb576106ea610ebf565b5b6020020181815250506000604083608084600060066107d05a03f1905080610748576040517f08c379a000000000000000000000000000000000000000000000000000000000815260040161073f90610c62565b60405180910390fd5b505092915050565b60007f30644e72e131a029b85045b68181585d2833e84879b9709143e1f593f000000180838508818182098282848386858609090991507faed26d6a3f5e0ea662411ddfcde3527479de9cee7a56c656ff5f61df13a3940160005260005b605a8112156107e757602060002080600052848786838708089350848485099250848486858887880909099350506001810190506107ae565b5082858308915082858488850808935050505092915050565b604051806040016040528060008152602001600081525090565b6040518060400160405280600290602082028036833780820191505090505090565b6040518060600160405280600390602082028036833780820191505090505090565b6040518060800160405280600490602082028036833780820191505090505090565b600061089361088e84610d2b565b610d06565b905080828560208602820111156108ad576108ac610f27565b5b60005b858110156108dd57816108c388826109f4565b8452602084019350602083019250506001810190506108b0565b5050509392505050565b60006108fa6108f584610d51565b610d06565b9050808285602086028201111561091457610913610f27565b5b60005b85811015610944578161092a88826109f4565b845260208401935060208301925050600181019050610917565b5050509392505050565b600082601f83011261096357610962610f1d565b5b6002610970848285610880565b91505092915050565b600082601f83011261098e5761098d610f1d565b5b600361099b8482856108e7565b91505092915050565b6000604082840312156109ba576109b9610f22565b5b6109c46040610d06565b905060006109d484828501610a09565b60008301525060206109e884828501610a09565b60208301525092915050565b600081359050610a038161102f565b92915050565b600081519050610a188161102f565b92915050565b600060408284031215610a3457610a33610f2c565b5b6000610a42848285016109a4565b91505092915050565b600060208284031215610a6157610a60610f2c565b5b6000610a6f848285016109f4565b91505092915050565b60008060608385031215610a8f57610a8e610f2c565b5b6000610a9d858286016109f4565b9250506020610aae8582860161094e565b9150509250929050565b60008060808385031215610acf57610ace610f2c565b5b6000610add858286016109f4565b9250506020610aee85828601610979565b9150509250929050565b6000610b048383610c0e565b60208301905092915050565b610b1981610d81565b610b238184610d99565b9250610b2e82610d77565b8060005b83811015610b5f578151610b468782610af8565b9650610b5183610d8c565b925050600181019050610b32565b505050505050565b610b7081610de9565b82525050565b6000610b83604783610da4565b9150610b8e82610f42565b606082019050919050565b6000610ba6600b83610da4565b9150610bb182610fb7565b602082019050919050565b6000610bc9603d83610da4565b9150610bd482610fe0565b604082019050919050565b604082016000820151610bf56000850182610c0e565b506020820151610c086020850182610c0e565b50505050565b610c1781610df5565b82525050565b610c2681610df5565b82525050565b6000604082019050610c416000830184610b10565b92915050565b6000602082019050610c5c6000830184610b67565b92915050565b60006020820190508181036000830152610c7b81610b76565b9050919050565b60006020820190508181036000830152610c9b81610b99565b9050919050565b60006020820190508181036000830152610cbb81610bbc565b9050919050565b6000604082019050610cd76000830184610bdf565b92915050565b6000604082019050610cf26000830185610c1d565b610cff6020830184610c1d565b9392505050565b6000610d10610d21565b9050610d1c8282610dff565b919050565b6000604051905090565b600067ffffffffffffffff821115610d4657610d45610eee565b5b602082029050919050565b600067ffffffffffffffff821115610d6c57610d6b610eee565b5b602082029050919050565b6000819050919050565b600060029050919050565b6000602082019050919050565b600081905092915050565b600082825260208201905092915050565b6000610dc082610df5565b9150610dcb83610df5565b925082821015610dde57610ddd610e61565b5b828203905092915050565b60008115159050919050565b6000819050919050565b610e0882610f31565b810181811067ffffffffffffffff82111715610e2757610e26610eee565b5b80604052505050565b6000610e3b82610df5565b9150610e4683610df5565b925082610e5657610e55610e90565b5b828206905092915050565b7f4e487b7100000000000000000000000000000000000000000000000000000000600052601160045260246000fd5b7f4e487b7100000000000000000000000000000000000000000000000000000000600052601260045260246000fd5b7f4e487b7100000000000000000000000000000000000000000000000000000000600052603260045260246000fd5b7f4e487b7100000000000000000000000000000000000000000000000000000000600052604160045260246000fd5b600080fd5b600080fd5b600080fd5b600080fd5b6000601f19601f8301169050919050565b7f43616c6c20746f2074686520626e32353641646420707265636f6d70696c656460008201527f206661696c6564202870726f6261626c7920616e206f7574206f66206761732060208201527f6572726f723f2900000000000000000000000000000000000000000000000000604082015250565b7f766572696679206661696c000000000000000000000000000000000000000000600082015250565b7f43616c6c20746f20626e3235365363616c61724d756c206661696c656420287060008201527f726f6261626c7920616e206f7574206f6620676173206572726f723f29000000602082015250565b61103881610df5565b811461104357600080fd5b5056fea2646970667358221220aec14eda1114d76318b2e76b8fd028a2fdfe294c6f28512a88b91e5cfe80c0b064736f6c63430008070033",
					"opcodes": "PUSH1 0x80 PUSH1 0x40 MSTORE CALLVALUE DUP1 ISZERO PUSH3 0x11 JUMPI PUSH1 0x0 DUP1 REVERT JUMPDEST POP PUSH1 0x40 MLOAD PUSH3 0x1444 CODESIZE SUB DUP1 PUSH3 0x1444 DUP4 CODECOPY DUP2 DUP2 ADD PUSH1 0x40 MSTORE DUP2 ADD SWAP1 PUSH3 0x37 SWAP2 SWAP1 PUSH3 0x1E4 JUMP JUMPDEST DUP3 PUSH1 0x0 PUSH1 0x2 DUP2 LT PUSH3 0x4E JUMPI PUSH3 0x4D PUSH3 0x306 JUMP JUMPDEST JUMPDEST PUSH1 0x20 MUL ADD MLOAD PUSH1 0x0 DUP1 ADD DUP2 SWAP1 SSTORE POP DUP3 PUSH1 0x1 PUSH1 0x2 DUP2 LT PUSH3 0x72 JUMPI PUSH3 0x71 PUSH3 0x306 JUMP JUMPDEST JUMPDEST PUSH1 0x20 MUL ADD MLOAD PUSH1 0x0 PUSH1 0x1 ADD DUP2 SWAP1 SSTORE POP DUP2 PUSH1 0x0 PUSH1 0x2 DUP2 LT PUSH3 0x97 JUMPI PUSH3 0x96 PUSH3 0x306 JUMP JUMPDEST JUMPDEST PUSH1 0x20 MUL ADD MLOAD PUSH1 0x2 PUSH1 0x0 ADD DUP2 SWAP1 SSTORE POP DUP2 PUSH1 0x1 PUSH1 0x2 DUP2 LT PUSH3 0xBC JUMPI PUSH3 0xBB PUSH3 0x306 JUMP JUMPDEST JUMPDEST PUSH1 0x20 MUL ADD MLOAD PUSH1 0x2 PUSH1 0x1 ADD DUP2 SWAP1 SSTORE POP DUP1 PUSH1 0x4 PUSH1 0x0 PUSH2 0x100 EXP DUP2 SLOAD DUP2 PUSH20 0xFFFFFFFFFFFFFFFFFFFFFFFFFFFFFFFFFFFFFFFF MUL NOT AND SWAP1 DUP4 PUSH20 0xFFFFFFFFFFFFFFFFFFFFFFFFFFFFFFFFFFFFFFFF AND MUL OR SWAP1 SSTORE POP POP POP POP PUSH3 0x3B8 JUMP JUMPDEST PUSH1 0x0 PUSH3 0x12B PUSH3 0x125 DUP5 PUSH3 0x269 JUMP JUMPDEST PUSH3 0x240 JUMP JUMPDEST SWAP1 POP DUP1 DUP3 DUP6 PUSH1 0x20 DUP7 MUL DUP3 ADD GT ISZERO PUSH3 0x148 JUMPI PUSH3 0x147 PUSH3 0x369 JUMP JUMPDEST JUMPDEST PUSH1 0x0 JUMPDEST DUP6 DUP2 LT ISZERO PUSH3 0x17C JUMPI DUP2 PUSH3 0x161 DUP9 DUP3 PUSH3 0x1CD JUMP JUMPDEST DUP5 MSTORE PUSH1 0x20 DUP5 ADD SWAP4 POP PUSH1 0x20 DUP4 ADD SWAP3 POP POP PUSH1 0x1 DUP2 ADD SWAP1 POP PUSH3 0x14B JUMP JUMPDEST POP POP POP SWAP4 SWAP3 POP POP POP JUMP JUMPDEST PUSH1 0x0 DUP2 MLOAD SWAP1 POP PUSH3 0x197 DUP2 PUSH3 0x384 JUMP JUMPDEST SWAP3 SWAP2 POP POP JUMP JUMPDEST PUSH1 0x0 DUP3 PUSH1 0x1F DUP4 ADD SLT PUSH3 0x1B5 JUMPI PUSH3 0x1B4 PUSH3 0x364 JUMP JUMPDEST JUMPDEST PUSH1 0x2 PUSH3 0x1C4 DUP5 DUP3 DUP6 PUSH3 0x114 JUMP JUMPDEST SWAP2 POP POP SWAP3 SWAP2 POP POP JUMP JUMPDEST PUSH1 0x0 DUP2 MLOAD SWAP1 POP PUSH3 0x1DE DUP2 PUSH3 0x39E JUMP JUMPDEST SWAP3 SWAP2 POP POP JUMP JUMPDEST PUSH1 0x0 DUP1 PUSH1 0x0 PUSH1 0xA0 DUP5 DUP7 SUB SLT ISZERO PUSH3 0x200 JUMPI PUSH3 0x1FF PUSH3 0x36E JUMP JUMPDEST JUMPDEST PUSH1 0x0 PUSH3 0x210 DUP7 DUP3 DUP8 ADD PUSH3 0x19D JUMP JUMPDEST SWAP4 POP POP PUSH1 0x40 PUSH3 0x223 DUP7 DUP3 DUP8 ADD PUSH3 0x19D JUMP JUMPDEST SWAP3 POP POP PUSH1 0x80 PUSH3 0x236 DUP7 DUP3 DUP8 ADD PUSH3 0x186 JUMP JUMPDEST SWAP2 POP POP SWAP3 POP SWAP3 POP SWAP3 JUMP JUMPDEST PUSH1 0x0 PUSH3 0x24C PUSH3 0x25F JUMP JUMPDEST SWAP1 POP PUSH3 0x25A DUP3 DUP3 PUSH3 0x2D0 JUMP JUMPDEST SWAP2 SWAP1 POP JUMP JUMPDEST PUSH1 0x0 PUSH1 0x40 MLOAD SWAP1 POP SWAP1 JUMP JUMPDEST PUSH1 0x0 PUSH8 0xFFFFFFFFFFFFFFFF DUP3 GT ISZERO PUSH3 0x287 JUMPI PUSH3 0x286 PUSH3 0x335 JUMP JUMPDEST JUMPDEST PUSH1 0x20 DUP3 MUL SWAP1 POP SWAP2 SWAP1 POP JUMP JUMPDEST PUSH1 0x0 PUSH3 0x29F DUP3 PUSH3 0x2A6 JUMP JUMPDEST SWAP1 POP SWAP2 SWAP1 POP JUMP JUMPDEST PUSH1 0x0 PUSH20 0xFFFFFFFFFFFFFFFFFFFFFFFFFFFFFFFFFFFFFFFF DUP3 AND SWAP1 POP SWAP2 SWAP1 POP JUMP JUMPDEST PUSH1 0x0 DUP2 SWAP1 POP SWAP2 SWAP1 POP JUMP JUMPDEST PUSH3 0x2DB DUP3 PUSH3 0x373 JUMP JUMPDEST DUP2 ADD DUP2 DUP2 LT PUSH8 0xFFFFFFFFFFFFFFFF DUP3 GT OR ISZERO PUSH3 0x2FD JUMPI PUSH3 0x2FC PUSH3 0x335 JUMP JUMPDEST JUMPDEST DUP1 PUSH1 0x40 MSTORE POP POP POP JUMP JUMPDEST PUSH32 0x4E487B7100000000000000000000000000000000000000000000000000000000 PUSH1 0x0 MSTORE PUSH1 0x32 PUSH1 0x4 MSTORE PUSH1 0x24 PUSH1 0x0 REVERT JUMPDEST PUSH32 0x4E487B7100000000000000000000000000000000000000000000000000000000 PUSH1 0x0 MSTORE PUSH1 0x41 PUSH1 0x4 MSTORE PUSH1 0x24 PUSH1 0x0 REVERT JUMPDEST PUSH1 0x0 DUP1 REVERT JUMPDEST PUSH1 0x0 DUP1 REVERT JUMPDEST PUSH1 0x0 DUP1 REVERT JUMPDEST PUSH1 0x0 PUSH1 0x1F NOT PUSH1 0x1F DUP4 ADD AND SWAP1 POP SWAP2 SWAP1 POP JUMP JUMPDEST PUSH3 0x38F DUP2 PUSH3 0x292 JUMP JUMPDEST DUP2 EQ PUSH3 0x39B JUMPI PUSH1 0x0 DUP1 REVERT JUMPDEST POP JUMP JUMPDEST PUSH3 0x3A9 DUP2 PUSH3 0x2C6 JUMP JUMPDEST DUP2 EQ PUSH3 0x3B5 JUMPI PUSH1 0x0 DUP1 REVERT JUMPDEST POP JUMP JUMPDEST PUSH2 0x107C DUP1 PUSH3 0x3C8 PUSH1 0x0 CODECOPY PUSH1 0x0 RETURN INVALID PUSH1 0x80 PUSH1 0x40 MSTORE PUSH1 0x4 CALLDATASIZE LT PUSH2 0x55 JUMPI PUSH1 0x0 CALLDATALOAD PUSH1 0xE0 SHR DUP1 PUSH4 0x651A124 EQ PUSH2 0x5A JUMPI DUP1 PUSH4 0x4EFE3DA2 EQ PUSH2 0x78 JUMPI DUP1 PUSH4 0x67307E00 EQ PUSH2 0xA8 JUMPI DUP1 PUSH4 0xAAD4F5EC EQ PUSH2 0xD8 JUMPI DUP1 PUSH4 0xB8C9D365 EQ PUSH2 0x108 JUMPI DUP1 PUSH4 0xE2179B8E EQ PUSH2 0x134 JUMPI JUMPDEST PUSH1 0x0 DUP1 REVERT JUMPDEST PUSH2 0x62 PUSH2 0x160 JUMP JUMPDEST PUSH1 0x40 MLOAD PUSH2 0x6F SWAP2 SWAP1 PUSH2 0xCC2 JUMP JUMPDEST PUSH1 0x40 MLOAD DUP1 SWAP2 SUB SWAP1 RETURN JUMPDEST PUSH2 0x92 PUSH1 0x4 DUP1 CALLDATASIZE SUB DUP2 ADD SWAP1 PUSH2 0x8D SWAP2 SWAP1 PUSH2 0xA4B JUMP JUMPDEST PUSH2 0x20C JUMP JUMPDEST PUSH1 0x40 MLOAD PUSH2 0x9F SWAP2 SWAP1 PUSH2 0xCC2 JUMP JUMPDEST PUSH1 0x40 MLOAD DUP1 SWAP2 SUB SWAP1 RETURN JUMPDEST PUSH2 0xC2 PUSH1 0x4 DUP1 CALLDATASIZE SUB DUP2 ADD SWAP1 PUSH2 0xBD SWAP2 SWAP1 PUSH2 0xA78 JUMP JUMPDEST PUSH2 0x269 JUMP JUMPDEST PUSH1 0x40 MLOAD PUSH2 0xCF SWAP2 SWAP1 PUSH2 0xC2C JUMP JUMPDEST PUSH1 0x40 MLOAD DUP1 SWAP2 SUB SWAP1 RETURN JUMPDEST PUSH2 0xF2 PUSH1 0x4 DUP1 CALLDATASIZE SUB DUP2 ADD SWAP1 PUSH2 0xED SWAP2 SWAP1 PUSH2 0xAB8 JUMP JUMPDEST PUSH2 0x32A JUMP JUMPDEST PUSH1 0x40 MLOAD PUSH2 0xFF SWAP2 SWAP1 PUSH2 0xC47 JUMP JUMPDEST PUSH1 0x40 MLOAD DUP1 SWAP2 SUB SWAP1 RETURN JUMPDEST CALLVALUE DUP1 ISZERO PUSH2 0x114 JUMPI PUSH1 0x0 DUP1 REVERT JUMPDEST POP PUSH2 0x11D PUSH2 0x4C5 JUMP JUMPDEST PUSH1 0x40 MLOAD PUSH2 0x12B SWAP3 SWAP2 SWAP1 PUSH2 0xCDD JUMP JUMPDEST PUSH1 0x40 MLOAD DUP1 SWAP2 SUB SWAP1 RETURN JUMPDEST CALLVALUE DUP1 ISZERO PUSH2 0x140 JUMPI PUSH1 0x0 DUP1 REVERT JUMPDEST POP PUSH2 0x149 PUSH2 0x4D7 JUMP JUMPDEST PUSH1 0x40 MLOAD PUSH2 0x157 SWAP3 SWAP2 SWAP1 PUSH2 0xCDD JUMP JUMPDEST PUSH1 0x40 MLOAD DUP1 SWAP2 SUB SWAP1 RETURN JUMPDEST PUSH2 0x168 PUSH2 0x800 JUMP JUMPDEST PUSH1 0x4 PUSH1 0x0 SWAP1 SLOAD SWAP1 PUSH2 0x100 EXP SWAP1 DIV PUSH20 0xFFFFFFFFFFFFFFFFFFFFFFFFFFFFFFFFFFFFFFFF AND PUSH20 0xFFFFFFFFFFFFFFFFFFFFFFFFFFFFFFFFFFFFFFFF AND PUSH4 0x651A124 PUSH1 0x40 MLOAD DUP2 PUSH4 0xFFFFFFFF AND PUSH1 0xE0 SHL DUP2 MSTORE PUSH1 0x4 ADD PUSH1 0x40 DUP1 MLOAD DUP1 DUP4 SUB DUP2 DUP7 DUP1 EXTCODESIZE ISZERO DUP1 ISZERO PUSH2 0x1CF JUMPI PUSH1 0x0 DUP1 REVERT JUMPDEST POP GAS STATICCALL ISZERO DUP1 ISZERO PUSH2 0x1E3 JUMPI RETURNDATASIZE PUSH1 0x0 DUP1 RETURNDATACOPY RETURNDATASIZE PUSH1 0x0 REVERT JUMPDEST POP POP POP POP PUSH1 0x40 MLOAD RETURNDATASIZE PUSH1 0x1F NOT PUSH1 0x1F DUP3 ADD AND DUP3 ADD DUP1 PUSH1 0x40 MSTORE POP DUP2 ADD SWAP1 PUSH2 0x207 SWAP2 SWAP1 PUSH2 0xA1E JUMP JUMPDEST SWAP1 POP SWAP1 JUMP JUMPDEST PUSH2 0x214 PUSH2 0x800 JUMP JUMPDEST PUSH1 0x0 PUSH2 0x21E PUSH2 0x160 JUMP JUMPDEST SWAP1 POP PUSH1 0x0 PUSH2 0x25D DUP3 PUSH2 0x258 PUSH2 0x253 PUSH1 0x0 PUSH1 0x40 MLOAD DUP1 PUSH1 0x40 ADD PUSH1 0x40 MSTORE SWAP1 DUP2 PUSH1 0x0 DUP3 ADD SLOAD DUP2 MSTORE PUSH1 0x20 ADD PUSH1 0x1 DUP3 ADD SLOAD DUP2 MSTORE POP POP DUP9 PUSH2 0x4E9 JUMP JUMPDEST PUSH2 0x5B7 JUMP JUMPDEST PUSH2 0x65C JUMP JUMPDEST SWAP1 POP DUP1 SWAP3 POP POP POP SWAP2 SWAP1 POP JUMP JUMPDEST PUSH2 0x271 PUSH2 0x81A JUMP JUMPDEST PUSH2 0x279 PUSH2 0x81A JUMP JUMPDEST PUSH1 0x0 PUSH2 0x284 DUP6 PUSH2 0x20C JUMP JUMPDEST SWAP1 POP PUSH2 0x29F PUSH1 0x2 PUSH1 0x0 ADD SLOAD PUSH1 0x0 SHL DUP3 PUSH1 0x0 ADD MLOAD PUSH1 0x0 SHL PUSH2 0x750 JUMP JUMPDEST PUSH1 0x0 SHR DUP3 PUSH1 0x0 PUSH1 0x2 DUP2 LT PUSH2 0x2B6 JUMPI PUSH2 0x2B5 PUSH2 0xEBF JUMP JUMPDEST JUMPDEST PUSH1 0x20 MUL ADD DUP2 DUP2 MSTORE POP POP PUSH2 0x2FF DUP3 PUSH1 0x0 PUSH1 0x2 DUP2 LT PUSH2 0x2D6 JUMPI PUSH2 0x2D5 PUSH2 0xEBF JUMP JUMPDEST JUMPDEST PUSH1 0x20 MUL ADD MLOAD PUSH1 0x0 SHL DUP6 PUSH1 0x0 PUSH1 0x2 DUP2 LT PUSH2 0x2F2 JUMPI PUSH2 0x2F1 PUSH2 0xEBF JUMP JUMPDEST JUMPDEST PUSH1 0x20 MUL ADD MLOAD PUSH1 0x0 SHL PUSH2 0x750 JUMP JUMPDEST PUSH1 0x0 SHR DUP3 PUSH1 0x1 PUSH1 0x2 DUP2 LT PUSH2 0x316 JUMPI PUSH2 0x315 PUSH2 0xEBF JUMP JUMPDEST JUMPDEST PUSH1 0x20 MUL ADD DUP2 DUP2 MSTORE POP POP DUP2 SWAP3 POP POP POP SWAP3 SWAP2 POP POP JUMP JUMPDEST PUSH1 0x0 DUP1 PUSH2 0x335 PUSH2 0x160 JUMP JUMPDEST SWAP1 POP PUSH1 0x0 PUSH2 0x374 DUP3 PUSH2 0x36F PUSH2 0x36A PUSH1 0x0 PUSH1 0x40 MLOAD DUP1 PUSH1 0x40 ADD PUSH1 0x40 MSTORE SWAP1 DUP2 PUSH1 0x0 DUP3 ADD SLOAD DUP2 MSTORE PUSH1 0x20 ADD PUSH1 0x1 DUP3 ADD SLOAD DUP2 MSTORE POP POP DUP10 PUSH2 0x4E9 JUMP JUMPDEST PUSH2 0x5B7 JUMP JUMPDEST PUSH2 0x65C JUMP JUMPDEST SWAP1 POP PUSH1 0x0 PUSH1 0x40 MLOAD DUP1 PUSH1 0x40 ADD PUSH1 0x40 MSTORE DUP1 DUP7 PUSH1 0x0 PUSH1 0x3 DUP2 LT PUSH2 0x397 JUMPI PUSH2 0x396 PUSH2 0xEBF JUMP JUMPDEST JUMPDEST PUSH1 0x20 MUL ADD MLOAD DUP2 MSTORE PUSH1 0x20 ADD DUP7 PUSH1 0x1 PUSH1 0x3 DUP2 LT PUSH2 0x3B5 JUMPI PUSH2 0x3B4 PUSH2 0xEBF JUMP JUMPDEST JUMPDEST PUSH1 0x20 MUL ADD MLOAD DUP2 MSTORE POP SWAP1 POP PUSH1 0x0 DUP6 PUSH1 0x2 PUSH1 0x3 DUP2 LT PUSH2 0x3D5 JUMPI PUSH2 0x3D4 PUSH2 0xEBF JUMP JUMPDEST JUMPDEST PUSH1 0x20 MUL ADD MLOAD SWAP1 POP PUSH1 0x0 PUSH2 0x407 PUSH2 0x3FA PUSH1 0x2 PUSH1 0x0 ADD SLOAD PUSH1 0x0 SHL DUP7 PUSH1 0x0 ADD MLOAD PUSH1 0x0 SHL PUSH2 0x750 JUMP JUMPDEST DUP5 PUSH1 0x0 ADD MLOAD PUSH1 0x0 SHL PUSH2 0x750 JUMP JUMPDEST SWAP1 POP PUSH1 0x0 PUSH2 0x435 PUSH1 0x2 PUSH1 0x40 MLOAD DUP1 PUSH1 0x40 ADD PUSH1 0x40 MSTORE SWAP1 DUP2 PUSH1 0x0 DUP3 ADD SLOAD DUP2 MSTORE PUSH1 0x20 ADD PUSH1 0x1 DUP3 ADD SLOAD DUP2 MSTORE POP POP DUP5 PUSH2 0x4E9 JUMP JUMPDEST SWAP1 POP PUSH1 0x0 PUSH2 0x446 DUP7 DUP5 PUSH1 0x0 SHR PUSH2 0x4E9 JUMP JUMPDEST SWAP1 POP PUSH1 0x0 PUSH2 0x454 DUP7 DUP4 PUSH2 0x65C JUMP JUMPDEST SWAP1 POP DUP1 PUSH1 0x0 ADD MLOAD DUP4 PUSH1 0x0 ADD MLOAD EQ DUP1 ISZERO PUSH2 0x474 JUMPI POP DUP1 PUSH1 0x20 ADD MLOAD DUP4 PUSH1 0x20 ADD MLOAD EQ JUMPDEST PUSH2 0x4B3 JUMPI PUSH1 0x40 MLOAD PUSH32 0x8C379A000000000000000000000000000000000000000000000000000000000 DUP2 MSTORE PUSH1 0x4 ADD PUSH2 0x4AA SWAP1 PUSH2 0xC82 JUMP JUMPDEST PUSH1 0x40 MLOAD DUP1 SWAP2 SUB SWAP1 REVERT JUMPDEST PUSH1 0x1 SWAP9 POP POP POP POP POP POP POP POP POP SWAP3 SWAP2 POP POP JUMP JUMPDEST PUSH1 0x2 DUP1 PUSH1 0x0 ADD SLOAD SWAP1 DUP1 PUSH1 0x1 ADD SLOAD SWAP1 POP DUP3 JUMP JUMPDEST PUSH1 0x0 DUP1 PUSH1 0x0 ADD SLOAD SWAP1 DUP1 PUSH1 0x1 ADD SLOAD SWAP1 POP DUP3 JUMP JUMPDEST PUSH2 0x4F1 PUSH2 0x800 JUMP JUMPDEST PUSH2 0x4F9 PUSH2 0x83C JUMP JUMPDEST DUP4 PUSH1 0x0 ADD MLOAD DUP2 PUSH1 0x0 PUSH1 0x3 DUP2 LT PUSH2 0x512 JUMPI PUSH2 0x511 PUSH2 0xEBF JUMP JUMPDEST JUMPDEST PUSH1 0x20 MUL ADD DUP2 DUP2 MSTORE POP POP DUP4 PUSH1 0x20 ADD MLOAD DUP2 PUSH1 0x1 PUSH1 0x3 DUP2 LT PUSH2 0x534 JUMPI PUSH2 0x533 PUSH2 0xEBF JUMP JUMPDEST JUMPDEST PUSH1 0x20 MUL ADD DUP2 DUP2 MSTORE POP POP DUP3 DUP2 PUSH1 0x2 PUSH1 0x3 DUP2 LT PUSH2 0x552 JUMPI PUSH2 0x551 PUSH2 0xEBF JUMP JUMPDEST JUMPDEST PUSH1 0x20 MUL ADD DUP2 DUP2 MSTORE POP POP PUSH1 0x0 PUSH1 0x40 DUP4 PUSH1 0x60 DUP5 PUSH1 0x0 PUSH1 0x7 PUSH2 0x7D0 GAS SUB CALL SWAP1 POP DUP1 PUSH2 0x5AF JUMPI PUSH1 0x40 MLOAD PUSH32 0x8C379A000000000000000000000000000000000000000000000000000000000 DUP2 MSTORE PUSH1 0x4 ADD PUSH2 0x5A6 SWAP1 PUSH2 0xCA2 JUMP JUMPDEST PUSH1 0x40 MLOAD DUP1 SWAP2 SUB SWAP1 REVERT JUMPDEST POP POP SWAP3 SWAP2 POP POP JUMP JUMPDEST PUSH2 0x5BF PUSH2 0x800 JUMP JUMPDEST PUSH1 0x0 PUSH32 0x30644E72E131A029B85045B68181585D97816A916871CA8D3C208C16D87CFD47 SWAP1 POP PUSH1 0x0 DUP4 PUSH1 0x0 ADD MLOAD EQ DUP1 ISZERO PUSH2 0x5FC JUMPI POP PUSH1 0x0 DUP4 PUSH1 0x20 ADD MLOAD EQ JUMPDEST ISZERO PUSH2 0x620 JUMPI PUSH1 0x40 MLOAD DUP1 PUSH1 0x40 ADD PUSH1 0x40 MSTORE DUP1 PUSH1 0x0 DUP2 MSTORE PUSH1 0x20 ADD PUSH1 0x0 DUP2 MSTORE POP SWAP2 POP POP PUSH2 0x657 JUMP JUMPDEST PUSH1 0x40 MLOAD DUP1 PUSH1 0x40 ADD PUSH1 0x40 MSTORE DUP1 DUP5 PUSH1 0x0 ADD MLOAD DUP2 MSTORE PUSH1 0x20 ADD DUP3 DUP6 PUSH1 0x20 ADD MLOAD PUSH2 0x645 SWAP2 SWAP1 PUSH2 0xE30 JUMP JUMPDEST DUP4 PUSH2 0x650 SWAP2 SWAP1 PUSH2 0xDB5 JUMP JUMPDEST DUP2 MSTORE POP SWAP2 POP POP JUMPDEST SWAP2 SWAP1 POP JUMP JUMPDEST PUSH2 0x664 PUSH2 0x800 JUMP JUMPDEST PUSH2 0x66C PUSH2 0x85E JUMP JUMPDEST DUP4 PUSH1 0x0 ADD MLOAD DUP2 PUSH1 0x0 PUSH1 0x4 DUP2 LT PUSH2 0x685 JUMPI PUSH2 0x684 PUSH2 0xEBF JUMP JUMPDEST JUMPDEST PUSH1 0x20 MUL ADD DUP2 DUP2 MSTORE POP POP DUP4 PUSH1 0x20 ADD MLOAD DUP2 PUSH1 0x1 PUSH1 0x4 DUP2 LT PUSH2 0x6A7 JUMPI PUSH2 0x6A6 PUSH2 0xEBF JUMP JUMPDEST JUMPDEST PUSH1 0x20 MUL ADD DUP2 DUP2 MSTORE POP POP DUP3 PUSH1 0x0 ADD MLOAD DUP2 PUSH1 0x2 PUSH1 0x4 DUP2 LT PUSH2 0x6C9 JUMPI PUSH2 0x6C8 PUSH2 0xEBF JUMP JUMPDEST JUMPDEST PUSH1 0x20 MUL ADD DUP2 DUP2 MSTORE POP POP DUP3 PUSH1 0x20 ADD MLOAD DUP2 PUSH1 0x3 PUSH1 0x4 DUP2 LT PUSH2 0x6EB JUMPI PUSH2 0x6EA PUSH2 0xEBF JUMP JUMPDEST JUMPDEST PUSH1 0x20 MUL ADD DUP2 DUP2 MSTORE POP POP PUSH1 0x0 PUSH1 0x40 DUP4 PUSH1 0x80 DUP5 PUSH1 0x0 PUSH1 0x6 PUSH2 0x7D0 GAS SUB CALL SWAP1 POP DUP1 PUSH2 0x748 JUMPI PUSH1 0x40 MLOAD PUSH32 0x8C379A000000000000000000000000000000000000000000000000000000000 DUP2 MSTORE PUSH1 0x4 ADD PUSH2 0x73F SWAP1 PUSH2 0xC62 JUMP JUMPDEST PUSH1 0x40 MLOAD DUP1 SWAP2 SUB SWAP1 REVERT JUMPDEST POP POP SWAP3 SWAP2 POP POP JUMP JUMPDEST PUSH1 0x0 PUSH32 0x30644E72E131A029B85045B68181585D2833E84879B9709143E1F593F0000001 DUP1 DUP4 DUP6 ADDMOD DUP2 DUP2 DUP3 MULMOD DUP3 DUP3 DUP5 DUP4 DUP7 DUP6 DUP7 MULMOD MULMOD MULMOD SWAP2 POP PUSH32 0xAED26D6A3F5E0EA662411DDFCDE3527479DE9CEE7A56C656FF5F61DF13A39401 PUSH1 0x0 MSTORE PUSH1 0x0 JUMPDEST PUSH1 0x5A DUP2 SLT ISZERO PUSH2 0x7E7 JUMPI PUSH1 0x20 PUSH1 0x0 KECCAK256 DUP1 PUSH1 0x0 MSTORE DUP5 DUP8 DUP7 DUP4 DUP8 ADDMOD ADDMOD SWAP4 POP DUP5 DUP5 DUP6 MULMOD SWAP3 POP DUP5 DUP5 DUP7 DUP6 DUP9 DUP8 DUP9 MULMOD MULMOD MULMOD SWAP4 POP POP PUSH1 0x1 DUP2 ADD SWAP1 POP PUSH2 0x7AE JUMP JUMPDEST POP DUP3 DUP6 DUP4 ADDMOD SWAP2 POP DUP3 DUP6 DUP5 DUP9 DUP6 ADDMOD ADDMOD SWAP4 POP POP POP POP SWAP3 SWAP2 POP POP JUMP JUMPDEST PUSH1 0x40 MLOAD DUP1 PUSH1 0x40 ADD PUSH1 0x40 MSTORE DUP1 PUSH1 0x0 DUP2 MSTORE PUSH1 0x20 ADD PUSH1 0x0 DUP2 MSTORE POP SWAP1 JUMP JUMPDEST PUSH1 0x40 MLOAD DUP1 PUSH1 0x40 ADD PUSH1 0x40 MSTORE DUP1 PUSH1 0x2 SWAP1 PUSH1 0x20 DUP3 MUL DUP1 CALLDATASIZE DUP4 CALLDATACOPY DUP1 DUP3 ADD SWAP2 POP POP SWAP1 POP POP SWAP1 JUMP JUMPDEST PUSH1 0x40 MLOAD DUP1 PUSH1 0x60 ADD PUSH1 0x40 MSTORE DUP1 PUSH1 0x3 SWAP1 PUSH1 0x20 DUP3 MUL DUP1 CALLDATASIZE DUP4 CALLDATACOPY DUP1 DUP3 ADD SWAP2 POP POP SWAP1 POP POP SWAP1 JUMP JUMPDEST PUSH1 0x40 MLOAD DUP1 PUSH1 0x80 ADD PUSH1 0x40 MSTORE DUP1 PUSH1 0x4 SWAP1 PUSH1 0x20 DUP3 MUL DUP1 CALLDATASIZE DUP4 CALLDATACOPY DUP1 DUP3 ADD SWAP2 POP POP SWAP1 POP POP SWAP1 JUMP JUMPDEST PUSH1 0x0 PUSH2 0x893 PUSH2 0x88E DUP5 PUSH2 0xD2B JUMP JUMPDEST PUSH2 0xD06 JUMP JUMPDEST SWAP1 POP DUP1 DUP3 DUP6 PUSH1 0x20 DUP7 MUL DUP3 ADD GT ISZERO PUSH2 0x8AD JUMPI PUSH2 0x8AC PUSH2 0xF27 JUMP JUMPDEST JUMPDEST PUSH1 0x0 JUMPDEST DUP6 DUP2 LT ISZERO PUSH2 0x8DD JUMPI DUP2 PUSH2 0x8C3 DUP9 DUP3 PUSH2 0x9F4 JUMP JUMPDEST DUP5 MSTORE PUSH1 0x20 DUP5 ADD SWAP4 POP PUSH1 0x20 DUP4 ADD SWAP3 POP POP PUSH1 0x1 DUP2 ADD SWAP1 POP PUSH2 0x8B0 JUMP JUMPDEST POP POP POP SWAP4 SWAP3 POP POP POP JUMP JUMPDEST PUSH1 0x0 PUSH2 0x8FA PUSH2 0x8F5 DUP5 PUSH2 0xD51 JUMP JUMPDEST PUSH2 0xD06 JUMP JUMPDEST SWAP1 POP DUP1 DUP3 DUP6 PUSH1 0x20 DUP7 MUL DUP3 ADD GT ISZERO PUSH2 0x914 JUMPI PUSH2 0x913 PUSH2 0xF27 JUMP JUMPDEST JUMPDEST PUSH1 0x0 JUMPDEST DUP6 DUP2 LT ISZERO PUSH2 0x944 JUMPI DUP2 PUSH2 0x92A DUP9 DUP3 PUSH2 0x9F4 JUMP JUMPDEST DUP5 MSTORE PUSH1 0x20 DUP5 ADD SWAP4 POP PUSH1 0x20 DUP4 ADD SWAP3 POP POP PUSH1 0x1 DUP2 ADD SWAP1 POP PUSH2 0x917 JUMP JUMPDEST POP POP POP SWAP4 SWAP3 POP POP POP JUMP JUMPDEST PUSH1 0x0 DUP3 PUSH1 0x1F DUP4 ADD SLT PUSH2 0x963 JUMPI PUSH2 0x962 PUSH2 0xF1D JUMP JUMPDEST JUMPDEST PUSH1 0x2 PUSH2 0x970 DUP5 DUP3 DUP6 PUSH2 0x880 JUMP JUMPDEST SWAP2 POP POP SWAP3 SWAP2 POP POP JUMP JUMPDEST PUSH1 0x0 DUP3 PUSH1 0x1F DUP4 ADD SLT PUSH2 0x98E JUMPI PUSH2 0x98D PUSH2 0xF1D JUMP JUMPDEST JUMPDEST PUSH1 0x3 PUSH2 0x99B DUP5 DUP3 DUP6 PUSH2 0x8E7 JUMP JUMPDEST SWAP2 POP POP SWAP3 SWAP2 POP POP JUMP JUMPDEST PUSH1 0x0 PUSH1 0x40 DUP3 DUP5 SUB SLT ISZERO PUSH2 0x9BA JUMPI PUSH2 0x9B9 PUSH2 0xF22 JUMP JUMPDEST JUMPDEST PUSH2 0x9C4 PUSH1 0x40 PUSH2 0xD06 JUMP JUMPDEST SWAP1 POP PUSH1 0x0 PUSH2 0x9D4 DUP5 DUP3 DUP6 ADD PUSH2 0xA09 JUMP JUMPDEST PUSH1 0x0 DUP4 ADD MSTORE POP PUSH1 0x20 PUSH2 0x9E8 DUP5 DUP3 DUP6 ADD PUSH2 0xA09 JUMP JUMPDEST PUSH1 0x20 DUP4 ADD MSTORE POP SWAP3 SWAP2 POP POP JUMP JUMPDEST PUSH1 0x0 DUP2 CALLDATALOAD SWAP1 POP PUSH2 0xA03 DUP2 PUSH2 0x102F JUMP JUMPDEST SWAP3 SWAP2 POP POP JUMP JUMPDEST PUSH1 0x0 DUP2 MLOAD SWAP1 POP PUSH2 0xA18 DUP2 PUSH2 0x102F JUMP JUMPDEST SWAP3 SWAP2 POP POP JUMP JUMPDEST PUSH1 0x0 PUSH1 0x40 DUP3 DUP5 SUB SLT ISZERO PUSH2 0xA34 JUMPI PUSH2 0xA33 PUSH2 0xF2C JUMP JUMPDEST JUMPDEST PUSH1 0x0 PUSH2 0xA42 DUP5 DUP3 DUP6 ADD PUSH2 0x9A4 JUMP JUMPDEST SWAP2 POP POP SWAP3 SWAP2 POP POP JUMP JUMPDEST PUSH1 0x0 PUSH1 0x20 DUP3 DUP5 SUB SLT ISZERO PUSH2 0xA61 JUMPI PUSH2 0xA60 PUSH2 0xF2C JUMP JUMPDEST JUMPDEST PUSH1 0x0 PUSH2 0xA6F DUP5 DUP3 DUP6 ADD PUSH2 0x9F4 JUMP JUMPDEST SWAP2 POP POP SWAP3 SWAP2 POP POP JUMP JUMPDEST PUSH1 0x0 DUP1 PUSH1 0x60 DUP4 DUP6 SUB SLT ISZERO PUSH2 0xA8F JUMPI PUSH2 0xA8E PUSH2 0xF2C JUMP JUMPDEST JUMPDEST PUSH1 0x0 PUSH2 0xA9D DUP6 DUP3 DUP7 ADD PUSH2 0x9F4 JUMP JUMPDEST SWAP3 POP POP PUSH1 0x20 PUSH2 0xAAE DUP6 DUP3 DUP7 ADD PUSH2 0x94E JUMP JUMPDEST SWAP2 POP POP SWAP3 POP SWAP3 SWAP1 POP JUMP JUMPDEST PUSH1 0x0 DUP1 PUSH1 0x80 DUP4 DUP6 SUB SLT ISZERO PUSH2 0xACF JUMPI PUSH2 0xACE PUSH2 0xF2C JUMP JUMPDEST JUMPDEST PUSH1 0x0 PUSH2 0xADD DUP6 DUP3 DUP7 ADD PUSH2 0x9F4 JUMP JUMPDEST SWAP3 POP POP PUSH1 0x20 PUSH2 0xAEE DUP6 DUP3 DUP7 ADD PUSH2 0x979 JUMP JUMPDEST SWAP2 POP POP SWAP3 POP SWAP3 SWAP1 POP JUMP JUMPDEST PUSH1 0x0 PUSH2 0xB04 DUP4 DUP4 PUSH2 0xC0E JUMP JUMPDEST PUSH1 0x20 DUP4 ADD SWAP1 POP SWAP3 SWAP2 POP POP JUMP JUMPDEST PUSH2 0xB19 DUP2 PUSH2 0xD81 JUMP JUMPDEST PUSH2 0xB23 DUP2 DUP5 PUSH2 0xD99 JUMP JUMPDEST SWAP3 POP PUSH2 0xB2E DUP3 PUSH2 0xD77 JUMP JUMPDEST DUP1 PUSH1 0x0 JUMPDEST DUP4 DUP2 LT ISZERO PUSH2 0xB5F JUMPI DUP2 MLOAD PUSH2 0xB46 DUP8 DUP3 PUSH2 0xAF8 JUMP JUMPDEST SWAP7 POP PUSH2 0xB51 DUP4 PUSH2 0xD8C JUMP JUMPDEST SWAP3 POP POP PUSH1 0x1 DUP2 ADD SWAP1 POP PUSH2 0xB32 JUMP JUMPDEST POP POP POP POP POP POP JUMP JUMPDEST PUSH2 0xB70 DUP2 PUSH2 0xDE9 JUMP JUMPDEST DUP3 MSTORE POP POP JUMP JUMPDEST PUSH1 0x0 PUSH2 0xB83 PUSH1 0x47 DUP4 PUSH2 0xDA4 JUMP JUMPDEST SWAP2 POP PUSH2 0xB8E DUP3 PUSH2 0xF42 JUMP JUMPDEST PUSH1 0x60 DUP3 ADD SWAP1 POP SWAP2 SWAP1 POP JUMP JUMPDEST PUSH1 0x0 PUSH2 0xBA6 PUSH1 0xB DUP4 PUSH2 0xDA4 JUMP JUMPDEST SWAP2 POP PUSH2 0xBB1 DUP3 PUSH2 0xFB7 JUMP JUMPDEST PUSH1 0x20 DUP3 ADD SWAP1 POP SWAP2 SWAP1 POP JUMP JUMPDEST PUSH1 0x0 PUSH2 0xBC9 PUSH1 0x3D DUP4 PUSH2 0xDA4 JUMP JUMPDEST SWAP2 POP PUSH2 0xBD4 DUP3 PUSH2 0xFE0 JUMP JUMPDEST PUSH1 0x40 DUP3 ADD SWAP1 POP SWAP2 SWAP1 POP JUMP JUMPDEST PUSH1 0x40 DUP3 ADD PUSH1 0x0 DUP3 ADD MLOAD PUSH2 0xBF5 PUSH1 0x0 DUP6 ADD DUP3 PUSH2 0xC0E JUMP JUMPDEST POP PUSH1 0x20 DUP3 ADD MLOAD PUSH2 0xC08 PUSH1 0x20 DUP6 ADD DUP3 PUSH2 0xC0E JUMP JUMPDEST POP POP POP POP JUMP JUMPDEST PUSH2 0xC17 DUP2 PUSH2 0xDF5 JUMP JUMPDEST DUP3 MSTORE POP POP JUMP JUMPDEST PUSH2 0xC26 DUP2 PUSH2 0xDF5 JUMP JUMPDEST DUP3 MSTORE POP POP JUMP JUMPDEST PUSH1 0x0 PUSH1 0x40 DUP3 ADD SWAP1 POP PUSH2 0xC41 PUSH1 0x0 DUP4 ADD DUP5 PUSH2 0xB10 JUMP JUMPDEST SWAP3 SWAP2 POP POP JUMP JUMPDEST PUSH1 0x0 PUSH1 0x20 DUP3 ADD SWAP1 POP PUSH2 0xC5C PUSH1 0x0 DUP4 ADD DUP5 PUSH2 0xB67 JUMP JUMPDEST SWAP3 SWAP2 POP POP JUMP JUMPDEST PUSH1 0x0 PUSH1 0x20 DUP3 ADD SWAP1 POP DUP2 DUP2 SUB PUSH1 0x0 DUP4 ADD MSTORE PUSH2 0xC7B DUP2 PUSH2 0xB76 JUMP JUMPDEST SWAP1 POP SWAP2 SWAP1 POP JUMP JUMPDEST PUSH1 0x0 PUSH1 0x20 DUP3 ADD SWAP1 POP DUP2 DUP2 SUB PUSH1 0x0 DUP4 ADD MSTORE PUSH2 0xC9B DUP2 PUSH2 0xB99 JUMP JUMPDEST SWAP1 POP SWAP2 SWAP1 POP JUMP JUMPDEST PUSH1 0x0 PUSH1 0x20 DUP3 ADD SWAP1 POP DUP2 DUP2 SUB PUSH1 0x0 DUP4 ADD MSTORE PUSH2 0xCBB DUP2 PUSH2 0xBBC JUMP JUMPDEST SWAP1 POP SWAP2 SWAP1 POP JUMP JUMPDEST PUSH1 0x0 PUSH1 0x40 DUP3 ADD SWAP1 POP PUSH2 0xCD7 PUSH1 0x0 DUP4 ADD DUP5 PUSH2 0xBDF JUMP JUMPDEST SWAP3 SWAP2 POP POP JUMP JUMPDEST PUSH1 0x0 PUSH1 0x40 DUP3 ADD SWAP1 POP PUSH2 0xCF2 PUSH1 0x0 DUP4 ADD DUP6 PUSH2 0xC1D JUMP JUMPDEST PUSH2 0xCFF PUSH1 0x20 DUP4 ADD DUP5 PUSH2 0xC1D JUMP JUMPDEST SWAP4 SWAP3 POP POP POP JUMP JUMPDEST PUSH1 0x0 PUSH2 0xD10 PUSH2 0xD21 JUMP JUMPDEST SWAP1 POP PUSH2 0xD1C DUP3 DUP3 PUSH2 0xDFF JUMP JUMPDEST SWAP2 SWAP1 POP JUMP JUMPDEST PUSH1 0x0 PUSH1 0x40 MLOAD SWAP1 POP SWAP1 JUMP JUMPDEST PUSH1 0x0 PUSH8 0xFFFFFFFFFFFFFFFF DUP3 GT ISZERO PUSH2 0xD46 JUMPI PUSH2 0xD45 PUSH2 0xEEE JUMP JUMPDEST JUMPDEST PUSH1 0x20 DUP3 MUL SWAP1 POP SWAP2 SWAP1 POP JUMP JUMPDEST PUSH1 0x0 PUSH8 0xFFFFFFFFFFFFFFFF DUP3 GT ISZERO PUSH2 0xD6C JUMPI PUSH2 0xD6B PUSH2 0xEEE JUMP JUMPDEST JUMPDEST PUSH1 0x20 DUP3 MUL SWAP1 POP SWAP2 SWAP1 POP JUMP JUMPDEST PUSH1 0x0 DUP2 SWAP1 POP SWAP2 SWAP1 POP JUMP JUMPDEST PUSH1 0x0 PUSH1 0x2 SWAP1 POP SWAP2 SWAP1 POP JUMP JUMPDEST PUSH1 0x0 PUSH1 0x20 DUP3 ADD SWAP1 POP SWAP2 SWAP1 POP JUMP JUMPDEST PUSH1 0x0 DUP2 SWAP1 POP SWAP3 SWAP2 POP POP JUMP JUMPDEST PUSH1 0x0 DUP3 DUP3 MSTORE PUSH1 0x20 DUP3 ADD SWAP1 POP SWAP3 SWAP2 POP POP JUMP JUMPDEST PUSH1 0x0 PUSH2 0xDC0 DUP3 PUSH2 0xDF5 JUMP JUMPDEST SWAP2 POP PUSH2 0xDCB DUP4 PUSH2 0xDF5 JUMP JUMPDEST SWAP3 POP DUP3 DUP3 LT ISZERO PUSH2 0xDDE JUMPI PUSH2 0xDDD PUSH2 0xE61 JUMP JUMPDEST JUMPDEST DUP3 DUP3 SUB SWAP1 POP SWAP3 SWAP2 POP POP JUMP JUMPDEST PUSH1 0x0 DUP2 ISZERO ISZERO SWAP1 POP SWAP2 SWAP1 POP JUMP JUMPDEST PUSH1 0x0 DUP2 SWAP1 POP SWAP2 SWAP1 POP JUMP JUMPDEST PUSH2 0xE08 DUP3 PUSH2 0xF31 JUMP JUMPDEST DUP2 ADD DUP2 DUP2 LT PUSH8 0xFFFFFFFFFFFFFFFF DUP3 GT OR ISZERO PUSH2 0xE27 JUMPI PUSH2 0xE26 PUSH2 0xEEE JUMP JUMPDEST JUMPDEST DUP1 PUSH1 0x40 MSTORE POP POP POP JUMP JUMPDEST PUSH1 0x0 PUSH2 0xE3B DUP3 PUSH2 0xDF5 JUMP JUMPDEST SWAP2 POP PUSH2 0xE46 DUP4 PUSH2 0xDF5 JUMP JUMPDEST SWAP3 POP DUP3 PUSH2 0xE56 JUMPI PUSH2 0xE55 PUSH2 0xE90 JUMP JUMPDEST JUMPDEST DUP3 DUP3 MOD SWAP1 POP SWAP3 SWAP2 POP POP JUMP JUMPDEST PUSH32 0x4E487B7100000000000000000000000000000000000000000000000000000000 PUSH1 0x0 MSTORE PUSH1 0x11 PUSH1 0x4 MSTORE PUSH1 0x24 PUSH1 0x0 REVERT JUMPDEST PUSH32 0x4E487B7100000000000000000000000000000000000000000000000000000000 PUSH1 0x0 MSTORE PUSH1 0x12 PUSH1 0x4 MSTORE PUSH1 0x24 PUSH1 0x0 REVERT JUMPDEST PUSH32 0x4E487B7100000000000000000000000000000000000000000000000000000000 PUSH1 0x0 MSTORE PUSH1 0x32 PUSH1 0x4 MSTORE PUSH1 0x24 PUSH1 0x0 REVERT JUMPDEST PUSH32 0x4E487B7100000000000000000000000000000000000000000000000000000000 PUSH1 0x0 MSTORE PUSH1 0x41 PUSH1 0x4 MSTORE PUSH1 0x24 PUSH1 0x0 REVERT JUMPDEST PUSH1 0x0 DUP1 REVERT JUMPDEST PUSH1 0x0 DUP1 REVERT JUMPDEST PUSH1 0x0 DUP1 REVERT JUMPDEST PUSH1 0x0 DUP1 REVERT JUMPDEST PUSH1 0x0 PUSH1 0x1F NOT PUSH1 0x1F DUP4 ADD AND SWAP1 POP SWAP2 SWAP1 POP JUMP JUMPDEST PUSH32 0x43616C6C20746F2074686520626E32353641646420707265636F6D70696C6564 PUSH1 0x0 DUP3 ADD MSTORE PUSH32 0x206661696C6564202870726F6261626C7920616E206F7574206F662067617320 PUSH1 0x20 DUP3 ADD MSTORE PUSH32 0x6572726F723F2900000000000000000000000000000000000000000000000000 PUSH1 0x40 DUP3 ADD MSTORE POP JUMP JUMPDEST PUSH32 0x766572696679206661696C000000000000000000000000000000000000000000 PUSH1 0x0 DUP3 ADD MSTORE POP JUMP JUMPDEST PUSH32 0x43616C6C20746F20626E3235365363616C61724D756C206661696C6564202870 PUSH1 0x0 DUP3 ADD MSTORE PUSH32 0x726F6261626C7920616E206F7574206F6620676173206572726F723F29000000 PUSH1 0x20 DUP3 ADD MSTORE POP JUMP JUMPDEST PUSH2 0x1038 DUP2 PUSH2 0xDF5 JUMP JUMPDEST DUP2 EQ PUSH2 0x1043 JUMPI PUSH1 0x0 DUP1 REVERT JUMPDEST POP JUMP INVALID LOG2 PUSH5 0x6970667358 0x22 SLT KECCAK256 0xAE 0xC1 0x4E 0xDA GT EQ 0xD7 PUSH4 0x18B2E76B DUP16 0xD0 0x28 LOG2 REVERT INVALID 0x29 0x4C PUSH16 0x28512A88B91E5CFE80C0B064736F6C63 NUMBER STOP ADDMOD SMOD STOP CALLER "
				},
				"gasEstimates": {
					"creation": {
						"codeDepositCost": "844000",
						"executionCost": "infinite",
						"totalCost": "infinite"
					},
					"external": {
						"calc_y(uint256)": "infinite",
						"clac_c(uint256,uint256[2])": "infinite",
						"g()": "infinite",
						"get_sum_of_commitments()": "infinite",
						"h()": "infinite",
						"verify(uint256,uint256[3])": "infinite"
					}
				},
				"methodIdentifiers": {
					"calc_y(uint256)": "4efe3da2",
					"clac_c(uint256,uint256[2])": "67307e00",
					"g()": "e2179b8e",
					"get_sum_of_commitments()": "0651a124",
					"h()": "b8c9d365",
					"verify(uint256,uint256[3])": "aad4f5ec"
				}
			},
			"storageLayout": {
				"storage": [
					{
						"astId": 771,
						"contract": "contracts/PoKE.sol:PoKESigmaProtocol",
						"label": "g",
						"offset": 0,
						"slot": "0",
						"type": "t_struct(G1Point)157_storage"
					},
					{
						"astId": 774,
						"contract": "contracts/PoKE.sol:PoKESigmaProtocol",
						"label": "h",
						"offset": 0,
						"slot": "2",
						"type": "t_struct(G1Point)157_storage"
					},
					{
						"astId": 776,
						"contract": "contracts/PoKE.sol:PoKESigmaProtocol",
						"label": "proofOfReserversAddr",
						"offset": 0,
						"slot": "4",
						"type": "t_address"
					}
				],
				"types": {
					"t_address": {
						"encoding": "inplace",
						"label": "address",
						"numberOfBytes": "20"
					},
					"t_struct(G1Point)157_storage": {
						"encoding": "inplace",
						"label": "struct Pairing.G1Point",
						"members": [
							{
								"astId": 154,
								"contract": "contracts/PoKE.sol:PoKESigmaProtocol",
								"label": "X",
								"offset": 0,
								"slot": "0",
								"type": "t_uint256"
							},
							{
								"astId": 156,
								"contract": "contracts/PoKE.sol:PoKESigmaProtocol",
								"label": "Y",
								"offset": 0,
								"slot": "1",
								"type": "t_uint256"
							}
						],
						"numberOfBytes": "64"
					},
					"t_uint256": {
						"encoding": "inplace",
						"label": "uint256",
						"numberOfBytes": "32"
					}
				}
			},
			"userdoc": {
				"kind": "user",
				"methods": {},
				"version": 1
			}
		}
	}
}