{
	"contracts/proofOfReserves.sol": {
		"ProofOfReservesContract": {
			"abi": [
				{
					"inputs": [
						{
							"internalType": "uint256[]",
							"name": "_vk",
							"type": "uint256[]"
						}
					],
					"stateMutability": "nonpayable",
					"type": "constructor"
				},
				{
					"anonymous": false,
					"inputs": [
						{
							"indexed": true,
							"internalType": "address",
							"name": "previousOwner",
							"type": "address"
						},
						{
							"indexed": true,
							"internalType": "address",
							"name": "newOwner",
							"type": "address"
						}
					],
					"name": "OwnershipTransferred",
					"type": "event"
				},
				{
					"inputs": [],
					"name": "get_all_commitments",
					"outputs": [
						{
							"components": [
								{
									"internalType": "uint256",
									"name": "X",
									"type": "uint256"
								},
								{
									"internalType": "uint256",
									"name": "Y",
									"type": "uint256"
								}
							],
							"internalType": "struct Pairing.G1Point[]",
							"name": "",
							"type": "tuple[]"
						}
					],
					"stateMutability": "view",
					"type": "function"
				},
				{
					"inputs": [],
					"name": "get_commitment_cnt",
					"outputs": [
						{
							"internalType": "uint256",
							"name": "",
							"type": "uint256"
						}
					],
					"stateMutability": "view",
					"type": "function"
				},
				{
					"inputs": [],
					"name": "get_sum_of_commitments",
					"outputs": [
						{
							"components": [
								{
									"internalType": "uint256",
									"name": "X",
									"type": "uint256"
								},
								{
									"internalType": "uint256",
									"name": "Y",
									"type": "uint256"
								}
							],
							"internalType": "struct Pairing.G1Point",
							"name": "",
							"type": "tuple"
						}
					],
					"stateMutability": "view",
					"type": "function"
				},
				{
					"inputs": [],
					"name": "get_vk",
					"outputs": [
						{
							"internalType": "uint256[]",
							"name": "",
							"type": "uint256[]"
						}
					],
					"stateMutability": "view",
					"type": "function"
				},
				{
					"inputs": [],
					"name": "owner",
					"outputs": [
						{
							"internalType": "address",
							"name": "",
							"type": "address"
						}
					],
					"stateMutability": "view",
					"type": "function"
				},
				{
					"inputs": [],
					"name": "renounceOwnership",
					"outputs": [],
					"stateMutability": "nonpayable",
					"type": "function"
				},
				{
					"inputs": [
						{
							"internalType": "address",
							"name": "newOwner",
							"type": "address"
						}
					],
					"name": "transferOwnership",
					"outputs": [],
					"stateMutability": "nonpayable",
					"type": "function"
				},
				{
					"inputs": [
						{
							"internalType": "uint256",
							"name": "idx",
							"type": "uint256"
						},
						{
							"internalType": "uint256[]",
							"name": "proof",
							"type": "uint256[]"
						}
					],
					"name": "update_commitment",
					"outputs": [
						{
							"internalType": "bool",
							"name": "",
							"type": "bool"
						}
					],
					"stateMutability": "payable",
					"type": "function"
				},
				{
					"inputs": [
						{
							"internalType": "uint256[]",
							"name": "proof",
							"type": "uint256[]"
						}
					],
					"name": "upload_commitment",
					"outputs": [
						{
							"internalType": "uint256",
							"name": "",
							"type": "uint256"
						}
					],
					"stateMutability": "payable",
					"type": "function"
				}
			],
			"devdoc": {
				"kind": "dev",
				"methods": {
					"owner()": {
						"details": "Returns the address of the current owner."
					},
					"renounceOwnership()": {
						"details": "Leaves the contract without owner. It will not be possible to call `onlyOwner` functions. Can only be called by the current owner. NOTE: Renouncing ownership will leave the contract without an owner, thereby disabling any functionality that is only available to the owner."
					},
					"transferOwnership(address)": {
						"details": "Transfers ownership of the contract to a new account (`newOwner`). Can only be called by the current owner."
					}
				},
				"version": 1
			},
			"evm": {
				"assembly": "    /* \"contracts/proofOfReserves.sol\":185:2264  contract ProofOfReservesContract is Ownable {... */\n  mstore(0x40, 0x80)\n    /* \"contracts/proofOfReserves.sol\":435:456  Pairing.G1Point(0, 0) */\n  mload(0x40)\n  dup1\n  0x40\n  add\n  0x40\n  mstore\n  dup1\n    /* \"contracts/proofOfReserves.sol\":451:452  0 */\n  0x00\n    /* \"contracts/proofOfReserves.sol\":435:456  Pairing.G1Point(0, 0) */\n  dup2\n  mstore\n  0x20\n  add\n    /* \"contracts/proofOfReserves.sol\":454:455  0 */\n  0x00\n    /* \"contracts/proofOfReserves.sol\":435:456  Pairing.G1Point(0, 0) */\n  dup2\n  mstore\n  pop\n    /* \"contracts/proofOfReserves.sol\":401:456  Pairing.G1Point sumOfCommitment = Pairing.G1Point(0, 0) */\n  0x03\n  0x00\n  dup3\n  add\n  mload\n  dup2\n  0x00\n  add\n  sstore\n  0x20\n  dup3\n  add\n  mload\n  dup2\n  0x01\n  add\n  sstore\n  pop\n  pop\n    /* \"contracts/proofOfReserves.sol\":491:492  0 */\n  0x00\n    /* \"contracts/proofOfReserves.sol\":463:492  uint256 private commitCnt = 0 */\n  0x05\n  sstore\n    /* \"contracts/proofOfReserves.sol\":499:568  constructor(uint256[] memory _vk) {... */\n  callvalue\n  dup1\n  iszero\n  tag_1\n  jumpi\n  0x00\n  dup1\n  revert\ntag_1:\n  pop\n  mload(0x40)\n  sub(codesize, bytecodeSize)\n  dup1\n  bytecodeSize\n  dup4\n  codecopy\n  dup2\n  dup2\n  add\n  0x40\n  mstore\n  dup2\n  add\n  swap1\n  tag_2\n  swap2\n  swap1\n  tag_3\n  jump\t// in\ntag_2:\n    /* \"@openzeppelin/contracts/access/Ownable.sol\":936:968  _transferOwnership(_msgSender()) */\n  tag_7\n    /* \"@openzeppelin/contracts/access/Ownable.sol\":955:967  _msgSender() */\n  tag_8\n    /* \"@openzeppelin/contracts/access/Ownable.sol\":955:965  _msgSender */\n  shl(0x20, tag_9)\n    /* \"@openzeppelin/contracts/access/Ownable.sol\":955:967  _msgSender() */\n  0x20\n  shr\n  jump\t// in\ntag_8:\n    /* \"@openzeppelin/contracts/access/Ownable.sol\":936:954  _transferOwnership */\n  shl(0x20, tag_10)\n    /* \"@openzeppelin/contracts/access/Ownable.sol\":936:968  _transferOwnership(_msgSender()) */\n  0x20\n  shr\n  jump\t// in\ntag_7:\n    /* \"contracts/proofOfReserves.sol\":558:561  _vk */\n  dup1\n    /* \"contracts/proofOfReserves.sol\":543:555  verifyingKey */\n  0x01\n    /* \"contracts/proofOfReserves.sol\":543:561  verifyingKey = _vk */\n  swap1\n  dup1\n  mload\n  swap1\n  0x20\n  add\n  swap1\n  tag_12\n  swap3\n  swap2\n  swap1\n  tag_13\n  jump\t// in\ntag_12:\n  pop\n    /* \"contracts/proofOfReserves.sol\":499:568  constructor(uint256[] memory _vk) {... */\n  pop\n    /* \"contracts/proofOfReserves.sol\":185:2264  contract ProofOfReservesContract is Ownable {... */\n  jump(tag_14)\n    /* \"@openzeppelin/contracts/utils/Context.sol\":640:736  function _msgSender() internal view virtual returns (address) {... */\ntag_9:\n    /* \"@openzeppelin/contracts/utils/Context.sol\":693:700  address */\n  0x00\n    /* \"@openzeppelin/contracts/utils/Context.sol\":719:729  msg.sender */\n  caller\n    /* \"@openzeppelin/contracts/utils/Context.sol\":712:729  return msg.sender */\n  swap1\n  pop\n    /* \"@openzeppelin/contracts/utils/Context.sol\":640:736  function _msgSender() internal view virtual returns (address) {... */\n  swap1\n  jump\t// out\n    /* \"@openzeppelin/contracts/access/Ownable.sol\":2426:2613  function _transferOwnership(address newOwner) internal virtual {... */\ntag_10:\n    /* \"@openzeppelin/contracts/access/Ownable.sol\":2499:2515  address oldOwner */\n  0x00\n    /* \"@openzeppelin/contracts/access/Ownable.sol\":2518:2524  _owner */\n  dup1\n  0x00\n  swap1\n  sload\n  swap1\n  0x0100\n  exp\n  swap1\n  div\n  0xffffffffffffffffffffffffffffffffffffffff\n  and\n    /* \"@openzeppelin/contracts/access/Ownable.sol\":2499:2524  address oldOwner = _owner */\n  swap1\n  pop\n    /* \"@openzeppelin/contracts/access/Ownable.sol\":2543:2551  newOwner */\n  dup2\n    /* \"@openzeppelin/contracts/access/Ownable.sol\":2534:2540  _owner */\n  0x00\n  dup1\n    /* \"@openzeppelin/contracts/access/Ownable.sol\":2534:2551  _owner = newOwner */\n  0x0100\n  exp\n  dup2\n  sload\n  dup2\n  0xffffffffffffffffffffffffffffffffffffffff\n  mul\n  not\n  and\n  swap1\n  dup4\n  0xffffffffffffffffffffffffffffffffffffffff\n  and\n  mul\n  or\n  swap1\n  sstore\n  pop\n    /* \"@openzeppelin/contracts/access/Ownable.sol\":2597:2605  newOwner */\n  dup2\n    /* \"@openzeppelin/contracts/access/Ownable.sol\":2566:2606  OwnershipTransferred(oldOwner, newOwner) */\n  0xffffffffffffffffffffffffffffffffffffffff\n  and\n    /* \"@openzeppelin/contracts/access/Ownable.sol\":2587:2595  oldOwner */\n  dup2\n    /* \"@openzeppelin/contracts/access/Ownable.sol\":2566:2606  OwnershipTransferred(oldOwner, newOwner) */\n  0xffffffffffffffffffffffffffffffffffffffff\n  and\n  0x8be0079c531659141344cd1fd0a4f28419497f9722a3daafe3b4186f6b6457e0\n  mload(0x40)\n  mload(0x40)\n  dup1\n  swap2\n  sub\n  swap1\n  log3\n    /* \"@openzeppelin/contracts/access/Ownable.sol\":2489:2613  {... */\n  pop\n    /* \"@openzeppelin/contracts/access/Ownable.sol\":2426:2613  function _transferOwnership(address newOwner) internal virtual {... */\n  pop\n  jump\t// out\n    /* \"contracts/proofOfReserves.sol\":185:2264  contract ProofOfReservesContract is Ownable {... */\ntag_13:\n  dup3\n  dup1\n  sload\n  dup3\n  dup3\n  sstore\n  swap1\n  0x00\n  mstore\n  keccak256(0x00, 0x20)\n  swap1\n  dup2\n  add\n  swap3\n  dup3\n  iszero\n  tag_17\n  jumpi\n  swap2\n  0x20\n  mul\n  dup3\n  add\ntag_18:\n  dup3\n  dup2\n  gt\n  iszero\n  tag_19\n  jumpi\n  dup3\n  mload\n  dup3\n  sstore\n  swap2\n  0x20\n  add\n  swap2\n  swap1\n  0x01\n  add\n  swap1\n  jump(tag_18)\ntag_19:\ntag_17:\n  pop\n  swap1\n  pop\n  tag_20\n  swap2\n  swap1\n  tag_21\n  jump\t// in\ntag_20:\n  pop\n  swap1\n  jump\t// out\ntag_21:\ntag_22:\n  dup1\n  dup3\n  gt\n  iszero\n  tag_23\n  jumpi\n  0x00\n  dup2\n  0x00\n  swap1\n  sstore\n  pop\n  0x01\n  add\n  jump(tag_22)\ntag_23:\n  pop\n  swap1\n  jump\t// out\n    /* \"#utility.yul\":24:768   */\ntag_25:\n    /* \"#utility.yul\":131:136   */\n  0x00\n    /* \"#utility.yul\":156:237   */\n  tag_27\n    /* \"#utility.yul\":172:236   */\n  tag_28\n    /* \"#utility.yul\":229:235   */\n  dup5\n    /* \"#utility.yul\":172:236   */\n  tag_29\n  jump\t// in\ntag_28:\n    /* \"#utility.yul\":156:237   */\n  tag_30\n  jump\t// in\ntag_27:\n    /* \"#utility.yul\":147:237   */\n  swap1\n  pop\n    /* \"#utility.yul\":257:262   */\n  dup1\n    /* \"#utility.yul\":286:292   */\n  dup4\n    /* \"#utility.yul\":279:284   */\n  dup3\n    /* \"#utility.yul\":272:293   */\n  mstore\n    /* \"#utility.yul\":320:324   */\n  0x20\n    /* \"#utility.yul\":313:318   */\n  dup3\n    /* \"#utility.yul\":309:325   */\n  add\n    /* \"#utility.yul\":302:325   */\n  swap1\n  pop\n    /* \"#utility.yul\":346:352   */\n  dup3\n    /* \"#utility.yul\":396:399   */\n  dup6\n    /* \"#utility.yul\":388:392   */\n  0x20\n    /* \"#utility.yul\":380:386   */\n  dup7\n    /* \"#utility.yul\":376:393   */\n  mul\n    /* \"#utility.yul\":371:374   */\n  dup3\n    /* \"#utility.yul\":367:394   */\n  add\n    /* \"#utility.yul\":364:400   */\n  gt\n    /* \"#utility.yul\":361:504   */\n  iszero\n  tag_31\n  jumpi\n    /* \"#utility.yul\":415:494   */\n  tag_32\n  tag_33\n  jump\t// in\ntag_32:\n    /* \"#utility.yul\":361:504   */\ntag_31:\n    /* \"#utility.yul\":528:529   */\n  0x00\n    /* \"#utility.yul\":513:762   */\ntag_34:\n    /* \"#utility.yul\":538:544   */\n  dup6\n    /* \"#utility.yul\":535:536   */\n  dup2\n    /* \"#utility.yul\":532:545   */\n  lt\n    /* \"#utility.yul\":513:762   */\n  iszero\n  tag_36\n  jumpi\n    /* \"#utility.yul\":606:609   */\n  dup2\n    /* \"#utility.yul\":635:683   */\n  tag_37\n    /* \"#utility.yul\":679:682   */\n  dup9\n    /* \"#utility.yul\":667:677   */\n  dup3\n    /* \"#utility.yul\":635:683   */\n  tag_38\n  jump\t// in\ntag_37:\n    /* \"#utility.yul\":630:633   */\n  dup5\n    /* \"#utility.yul\":623:684   */\n  mstore\n    /* \"#utility.yul\":713:717   */\n  0x20\n    /* \"#utility.yul\":708:711   */\n  dup5\n    /* \"#utility.yul\":704:718   */\n  add\n    /* \"#utility.yul\":697:718   */\n  swap4\n  pop\n    /* \"#utility.yul\":747:751   */\n  0x20\n    /* \"#utility.yul\":742:745   */\n  dup4\n    /* \"#utility.yul\":738:752   */\n  add\n    /* \"#utility.yul\":731:752   */\n  swap3\n  pop\n    /* \"#utility.yul\":573:762   */\n  pop\n    /* \"#utility.yul\":560:561   */\n  0x01\n    /* \"#utility.yul\":557:558   */\n  dup2\n    /* \"#utility.yul\":553:562   */\n  add\n    /* \"#utility.yul\":548:562   */\n  swap1\n  pop\n    /* \"#utility.yul\":513:762   */\n  jump(tag_34)\ntag_36:\n    /* \"#utility.yul\":517:531   */\n  pop\n    /* \"#utility.yul\":137:768   */\n  pop\n  pop\n    /* \"#utility.yul\":24:768   */\n  swap4\n  swap3\n  pop\n  pop\n  pop\n  jump\t// out\n    /* \"#utility.yul\":791:1176   */\ntag_39:\n    /* \"#utility.yul\":873:878   */\n  0x00\n    /* \"#utility.yul\":922:925   */\n  dup3\n    /* \"#utility.yul\":915:919   */\n  0x1f\n    /* \"#utility.yul\":907:913   */\n  dup4\n    /* \"#utility.yul\":903:920   */\n  add\n    /* \"#utility.yul\":899:926   */\n  slt\n    /* \"#utility.yul\":889:1011   */\n  tag_41\n  jumpi\n    /* \"#utility.yul\":930:1009   */\n  tag_42\n  tag_43\n  jump\t// in\ntag_42:\n    /* \"#utility.yul\":889:1011   */\ntag_41:\n    /* \"#utility.yul\":1040:1046   */\n  dup2\n    /* \"#utility.yul\":1034:1047   */\n  mload\n    /* \"#utility.yul\":1065:1170   */\n  tag_44\n    /* \"#utility.yul\":1166:1169   */\n  dup5\n    /* \"#utility.yul\":1158:1164   */\n  dup3\n    /* \"#utility.yul\":1151:1155   */\n  0x20\n    /* \"#utility.yul\":1143:1149   */\n  dup7\n    /* \"#utility.yul\":1139:1156   */\n  add\n    /* \"#utility.yul\":1065:1170   */\n  tag_25\n  jump\t// in\ntag_44:\n    /* \"#utility.yul\":1056:1170   */\n  swap2\n  pop\n    /* \"#utility.yul\":879:1176   */\n  pop\n    /* \"#utility.yul\":791:1176   */\n  swap3\n  swap2\n  pop\n  pop\n  jump\t// out\n    /* \"#utility.yul\":1182:1325   */\ntag_38:\n    /* \"#utility.yul\":1239:1244   */\n  0x00\n    /* \"#utility.yul\":1270:1276   */\n  dup2\n    /* \"#utility.yul\":1264:1277   */\n  mload\n    /* \"#utility.yul\":1255:1277   */\n  swap1\n  pop\n    /* \"#utility.yul\":1286:1319   */\n  tag_46\n    /* \"#utility.yul\":1313:1318   */\n  dup2\n    /* \"#utility.yul\":1286:1319   */\n  tag_47\n  jump\t// in\ntag_46:\n    /* \"#utility.yul\":1182:1325   */\n  swap3\n  swap2\n  pop\n  pop\n  jump\t// out\n    /* \"#utility.yul\":1331:1885   */\ntag_3:\n    /* \"#utility.yul\":1426:1432   */\n  0x00\n    /* \"#utility.yul\":1475:1477   */\n  0x20\n    /* \"#utility.yul\":1463:1472   */\n  dup3\n    /* \"#utility.yul\":1454:1461   */\n  dup5\n    /* \"#utility.yul\":1450:1473   */\n  sub\n    /* \"#utility.yul\":1446:1478   */\n  slt\n    /* \"#utility.yul\":1443:1562   */\n  iszero\n  tag_49\n  jumpi\n    /* \"#utility.yul\":1481:1560   */\n  tag_50\n  tag_51\n  jump\t// in\ntag_50:\n    /* \"#utility.yul\":1443:1562   */\ntag_49:\n    /* \"#utility.yul\":1622:1623   */\n  0x00\n    /* \"#utility.yul\":1611:1620   */\n  dup3\n    /* \"#utility.yul\":1607:1624   */\n  add\n    /* \"#utility.yul\":1601:1625   */\n  mload\n    /* \"#utility.yul\":1652:1670   */\n  0xffffffffffffffff\n    /* \"#utility.yul\":1644:1650   */\n  dup2\n    /* \"#utility.yul\":1641:1671   */\n  gt\n    /* \"#utility.yul\":1638:1755   */\n  iszero\n  tag_52\n  jumpi\n    /* \"#utility.yul\":1674:1753   */\n  tag_53\n  tag_54\n  jump\t// in\ntag_53:\n    /* \"#utility.yul\":1638:1755   */\ntag_52:\n    /* \"#utility.yul\":1779:1868   */\n  tag_55\n    /* \"#utility.yul\":1860:1867   */\n  dup5\n    /* \"#utility.yul\":1851:1857   */\n  dup3\n    /* \"#utility.yul\":1840:1849   */\n  dup6\n    /* \"#utility.yul\":1836:1858   */\n  add\n    /* \"#utility.yul\":1779:1868   */\n  tag_39\n  jump\t// in\ntag_55:\n    /* \"#utility.yul\":1769:1868   */\n  swap2\n  pop\n    /* \"#utility.yul\":1572:1878   */\n  pop\n    /* \"#utility.yul\":1331:1885   */\n  swap3\n  swap2\n  pop\n  pop\n  jump\t// out\n    /* \"#utility.yul\":1891:2020   */\ntag_30:\n    /* \"#utility.yul\":1925:1931   */\n  0x00\n    /* \"#utility.yul\":1952:1972   */\n  tag_57\n  tag_58\n  jump\t// in\ntag_57:\n    /* \"#utility.yul\":1942:1972   */\n  swap1\n  pop\n    /* \"#utility.yul\":1981:2014   */\n  tag_59\n    /* \"#utility.yul\":2009:2013   */\n  dup3\n    /* \"#utility.yul\":2001:2007   */\n  dup3\n    /* \"#utility.yul\":1981:2014   */\n  tag_60\n  jump\t// in\ntag_59:\n    /* \"#utility.yul\":1891:2020   */\n  swap2\n  swap1\n  pop\n  jump\t// out\n    /* \"#utility.yul\":2026:2101   */\ntag_58:\n    /* \"#utility.yul\":2059:2065   */\n  0x00\n    /* \"#utility.yul\":2092:2094   */\n  0x40\n    /* \"#utility.yul\":2086:2095   */\n  mload\n    /* \"#utility.yul\":2076:2095   */\n  swap1\n  pop\n    /* \"#utility.yul\":2026:2101   */\n  swap1\n  jump\t// out\n    /* \"#utility.yul\":2107:2418   */\ntag_29:\n    /* \"#utility.yul\":2184:2188   */\n  0x00\n    /* \"#utility.yul\":2274:2292   */\n  0xffffffffffffffff\n    /* \"#utility.yul\":2266:2272   */\n  dup3\n    /* \"#utility.yul\":2263:2293   */\n  gt\n    /* \"#utility.yul\":2260:2316   */\n  iszero\n  tag_63\n  jumpi\n    /* \"#utility.yul\":2296:2314   */\n  tag_64\n  tag_65\n  jump\t// in\ntag_64:\n    /* \"#utility.yul\":2260:2316   */\ntag_63:\n    /* \"#utility.yul\":2346:2350   */\n  0x20\n    /* \"#utility.yul\":2338:2344   */\n  dup3\n    /* \"#utility.yul\":2334:2351   */\n  mul\n    /* \"#utility.yul\":2326:2351   */\n  swap1\n  pop\n    /* \"#utility.yul\":2406:2410   */\n  0x20\n    /* \"#utility.yul\":2400:2404   */\n  dup2\n    /* \"#utility.yul\":2396:2411   */\n  add\n    /* \"#utility.yul\":2388:2411   */\n  swap1\n  pop\n    /* \"#utility.yul\":2107:2418   */\n  swap2\n  swap1\n  pop\n  jump\t// out\n    /* \"#utility.yul\":2424:2501   */\ntag_66:\n    /* \"#utility.yul\":2461:2468   */\n  0x00\n    /* \"#utility.yul\":2490:2495   */\n  dup2\n    /* \"#utility.yul\":2479:2495   */\n  swap1\n  pop\n    /* \"#utility.yul\":2424:2501   */\n  swap2\n  swap1\n  pop\n  jump\t// out\n    /* \"#utility.yul\":2507:2788   */\ntag_60:\n    /* \"#utility.yul\":2590:2617   */\n  tag_69\n    /* \"#utility.yul\":2612:2616   */\n  dup3\n    /* \"#utility.yul\":2590:2617   */\n  tag_70\n  jump\t// in\ntag_69:\n    /* \"#utility.yul\":2582:2588   */\n  dup2\n    /* \"#utility.yul\":2578:2618   */\n  add\n    /* \"#utility.yul\":2720:2726   */\n  dup2\n    /* \"#utility.yul\":2708:2718   */\n  dup2\n    /* \"#utility.yul\":2705:2727   */\n  lt\n    /* \"#utility.yul\":2684:2702   */\n  0xffffffffffffffff\n    /* \"#utility.yul\":2672:2682   */\n  dup3\n    /* \"#utility.yul\":2669:2703   */\n  gt\n    /* \"#utility.yul\":2666:2728   */\n  or\n    /* \"#utility.yul\":2663:2751   */\n  iszero\n  tag_71\n  jumpi\n    /* \"#utility.yul\":2731:2749   */\n  tag_72\n  tag_65\n  jump\t// in\ntag_72:\n    /* \"#utility.yul\":2663:2751   */\ntag_71:\n    /* \"#utility.yul\":2771:2781   */\n  dup1\n    /* \"#utility.yul\":2767:2769   */\n  0x40\n    /* \"#utility.yul\":2760:2782   */\n  mstore\n    /* \"#utility.yul\":2550:2788   */\n  pop\n    /* \"#utility.yul\":2507:2788   */\n  pop\n  pop\n  jump\t// out\n    /* \"#utility.yul\":2794:2974   */\ntag_65:\n    /* \"#utility.yul\":2842:2919   */\n  0x4e487b7100000000000000000000000000000000000000000000000000000000\n    /* \"#utility.yul\":2839:2840   */\n  0x00\n    /* \"#utility.yul\":2832:2920   */\n  mstore\n    /* \"#utility.yul\":2939:2943   */\n  0x41\n    /* \"#utility.yul\":2936:2937   */\n  0x04\n    /* \"#utility.yul\":2929:2944   */\n  mstore\n    /* \"#utility.yul\":2963:2967   */\n  0x24\n    /* \"#utility.yul\":2960:2961   */\n  0x00\n    /* \"#utility.yul\":2953:2968   */\n  revert\n    /* \"#utility.yul\":2980:3097   */\ntag_43:\n    /* \"#utility.yul\":3089:3090   */\n  0x00\n    /* \"#utility.yul\":3086:3087   */\n  dup1\n    /* \"#utility.yul\":3079:3091   */\n  revert\n    /* \"#utility.yul\":3103:3220   */\ntag_33:\n    /* \"#utility.yul\":3212:3213   */\n  0x00\n    /* \"#utility.yul\":3209:3210   */\n  dup1\n    /* \"#utility.yul\":3202:3214   */\n  revert\n    /* \"#utility.yul\":3226:3343   */\ntag_54:\n    /* \"#utility.yul\":3335:3336   */\n  0x00\n    /* \"#utility.yul\":3332:3333   */\n  dup1\n    /* \"#utility.yul\":3325:3337   */\n  revert\n    /* \"#utility.yul\":3349:3466   */\ntag_51:\n    /* \"#utility.yul\":3458:3459   */\n  0x00\n    /* \"#utility.yul\":3455:3456   */\n  dup1\n    /* \"#utility.yul\":3448:3460   */\n  revert\n    /* \"#utility.yul\":3472:3574   */\ntag_70:\n    /* \"#utility.yul\":3513:3519   */\n  0x00\n    /* \"#utility.yul\":3564:3566   */\n  0x1f\n    /* \"#utility.yul\":3560:3567   */\n  not\n    /* \"#utility.yul\":3555:3557   */\n  0x1f\n    /* \"#utility.yul\":3548:3553   */\n  dup4\n    /* \"#utility.yul\":3544:3558   */\n  add\n    /* \"#utility.yul\":3540:3568   */\n  and\n    /* \"#utility.yul\":3530:3568   */\n  swap1\n  pop\n    /* \"#utility.yul\":3472:3574   */\n  swap2\n  swap1\n  pop\n  jump\t// out\n    /* \"#utility.yul\":3580:3702   */\ntag_47:\n    /* \"#utility.yul\":3653:3677   */\n  tag_80\n    /* \"#utility.yul\":3671:3676   */\n  dup2\n    /* \"#utility.yul\":3653:3677   */\n  tag_66\n  jump\t// in\ntag_80:\n    /* \"#utility.yul\":3646:3651   */\n  dup2\n    /* \"#utility.yul\":3643:3678   */\n  eq\n    /* \"#utility.yul\":3633:3696   */\n  tag_81\n  jumpi\n    /* \"#utility.yul\":3692:3693   */\n  0x00\n    /* \"#utility.yul\":3689:3690   */\n  dup1\n    /* \"#utility.yul\":3682:3694   */\n  revert\n    /* \"#utility.yul\":3633:3696   */\ntag_81:\n    /* \"#utility.yul\":3580:3702   */\n  pop\n  jump\t// out\n    /* \"contracts/proofOfReserves.sol\":185:2264  contract ProofOfReservesContract is Ownable {... */\ntag_14:\n  dataSize(sub_0)\n  dup1\n  dataOffset(sub_0)\n  0x00\n  codecopy\n  0x00\n  return\nstop\n\nsub_0: assembly {\n        /* \"contracts/proofOfReserves.sol\":185:2264  contract ProofOfReservesContract is Ownable {... */\n      mstore(0x40, 0x80)\n      jumpi(tag_1, lt(calldatasize, 0x04))\n      shr(0xe0, calldataload(0x00))\n      dup1\n      0x8da5cb5b\n      gt\n      tag_11\n      jumpi\n      dup1\n      0x8da5cb5b\n      eq\n      tag_6\n      jumpi\n      dup1\n      0xdef596ef\n      eq\n      tag_7\n      jumpi\n      dup1\n      0xf123b45a\n      eq\n      tag_8\n      jumpi\n      dup1\n      0xf2fde38b\n      eq\n      tag_9\n      jumpi\n      dup1\n      0xf5c13593\n      eq\n      tag_10\n      jumpi\n      jump(tag_1)\n    tag_11:\n      dup1\n      0x0651a124\n      eq\n      tag_2\n      jumpi\n      dup1\n      0x068a2253\n      eq\n      tag_3\n      jumpi\n      dup1\n      0x621a9326\n      eq\n      tag_4\n      jumpi\n      dup1\n      0x715018a6\n      eq\n      tag_5\n      jumpi\n    tag_1:\n      0x00\n      dup1\n      revert\n        /* \"contracts/proofOfReserves.sol\":2144:2262  function get_sum_of_commitments() public view returns (Pairing.G1Point memory) {... */\n    tag_2:\n      callvalue\n      dup1\n      iszero\n      tag_12\n      jumpi\n      0x00\n      dup1\n      revert\n    tag_12:\n      pop\n      tag_13\n      tag_14\n      jump\t// in\n    tag_13:\n      mload(0x40)\n      tag_15\n      swap2\n      swap1\n      tag_16\n      jump\t// in\n    tag_15:\n      mload(0x40)\n      dup1\n      swap2\n      sub\n      swap1\n      return\n        /* \"contracts/proofOfReserves.sol\":1926:2039  function get_all_commitments() public view returns (Pairing.G1Point[] memory) {... */\n    tag_3:\n      callvalue\n      dup1\n      iszero\n      tag_17\n      jumpi\n      0x00\n      dup1\n      revert\n    tag_17:\n      pop\n      tag_18\n      tag_19\n      jump\t// in\n    tag_18:\n      mload(0x40)\n      tag_20\n      swap2\n      swap1\n      tag_21\n      jump\t// in\n    tag_20:\n      mload(0x40)\n      dup1\n      swap2\n      sub\n      swap1\n      return\n        /* \"contracts/proofOfReserves.sol\":2045:2138  function get_commitment_cnt() public view returns (uint256) {... */\n    tag_4:\n      callvalue\n      dup1\n      iszero\n      tag_22\n      jumpi\n      0x00\n      dup1\n      revert\n    tag_22:\n      pop\n      tag_23\n      tag_24\n      jump\t// in\n    tag_23:\n      mload(0x40)\n      tag_25\n      swap2\n      swap1\n      tag_26\n      jump\t// in\n    tag_25:\n      mload(0x40)\n      dup1\n      swap2\n      sub\n      swap1\n      return\n        /* \"@openzeppelin/contracts/access/Ownable.sol\":1824:1925  function renounceOwnership() public virtual onlyOwner {... */\n    tag_5:\n      callvalue\n      dup1\n      iszero\n      tag_27\n      jumpi\n      0x00\n      dup1\n      revert\n    tag_27:\n      pop\n      tag_28\n      tag_29\n      jump\t// in\n    tag_28:\n      stop\n        /* \"@openzeppelin/contracts/access/Ownable.sol\":1201:1286  function owner() public view virtual returns (address) {... */\n    tag_6:\n      callvalue\n      dup1\n      iszero\n      tag_30\n      jumpi\n      0x00\n      dup1\n      revert\n    tag_30:\n      pop\n      tag_31\n      tag_32\n      jump\t// in\n    tag_31:\n      mload(0x40)\n      tag_33\n      swap2\n      swap1\n      tag_34\n      jump\t// in\n    tag_33:\n      mload(0x40)\n      dup1\n      swap2\n      sub\n      swap1\n      return\n        /* \"contracts/proofOfReserves.sol\":1827:1920  function get_vk() public view returns (uint256[] memory) {... */\n    tag_7:\n      callvalue\n      dup1\n      iszero\n      tag_35\n      jumpi\n      0x00\n      dup1\n      revert\n    tag_35:\n      pop\n      tag_36\n      tag_37\n      jump\t// in\n    tag_36:\n      mload(0x40)\n      tag_38\n      swap2\n      swap1\n      tag_39\n      jump\t// in\n    tag_38:\n      mload(0x40)\n      dup1\n      swap2\n      sub\n      swap1\n      return\n        /* \"contracts/proofOfReserves.sol\":1188:1821  function update_commitment(... */\n    tag_8:\n      tag_40\n      0x04\n      dup1\n      calldatasize\n      sub\n      dup2\n      add\n      swap1\n      tag_41\n      swap2\n      swap1\n      tag_42\n      jump\t// in\n    tag_41:\n      tag_43\n      jump\t// in\n    tag_40:\n      mload(0x40)\n      tag_44\n      swap2\n      swap1\n      tag_45\n      jump\t// in\n    tag_44:\n      mload(0x40)\n      dup1\n      swap2\n      sub\n      swap1\n      return\n        /* \"@openzeppelin/contracts/access/Ownable.sol\":2074:2272  function transferOwnership(address newOwner) public virtual onlyOwner {... */\n    tag_9:\n      callvalue\n      dup1\n      iszero\n      tag_46\n      jumpi\n      0x00\n      dup1\n      revert\n    tag_46:\n      pop\n      tag_47\n      0x04\n      dup1\n      calldatasize\n      sub\n      dup2\n      add\n      swap1\n      tag_48\n      swap2\n      swap1\n      tag_49\n      jump\t// in\n    tag_48:\n      tag_50\n      jump\t// in\n    tag_47:\n      stop\n        /* \"contracts/proofOfReserves.sol\":725:1182  function upload_commitment(... */\n    tag_10:\n      tag_51\n      0x04\n      dup1\n      calldatasize\n      sub\n      dup2\n      add\n      swap1\n      tag_52\n      swap2\n      swap1\n      tag_53\n      jump\t// in\n    tag_52:\n      tag_54\n      jump\t// in\n    tag_51:\n      mload(0x40)\n      tag_55\n      swap2\n      swap1\n      tag_26\n      jump\t// in\n    tag_55:\n      mload(0x40)\n      dup1\n      swap2\n      sub\n      swap1\n      return\n        /* \"contracts/proofOfReserves.sol\":2144:2262  function get_sum_of_commitments() public view returns (Pairing.G1Point memory) {... */\n    tag_14:\n        /* \"contracts/proofOfReserves.sol\":2199:2221  Pairing.G1Point memory */\n      tag_56\n      tag_57\n      jump\t// in\n    tag_56:\n        /* \"contracts/proofOfReserves.sol\":2240:2255  sumOfCommitment */\n      0x03\n        /* \"contracts/proofOfReserves.sol\":2233:2255  return sumOfCommitment */\n      mload(0x40)\n      dup1\n      0x40\n      add\n      0x40\n      mstore\n      swap1\n      dup2\n      0x00\n      dup3\n      add\n      sload\n      dup2\n      mstore\n      0x20\n      add\n      0x01\n      dup3\n      add\n      sload\n      dup2\n      mstore\n      pop\n      pop\n      swap1\n      pop\n        /* \"contracts/proofOfReserves.sol\":2144:2262  function get_sum_of_commitments() public view returns (Pairing.G1Point memory) {... */\n      swap1\n      jump\t// out\n        /* \"contracts/proofOfReserves.sol\":1926:2039  function get_all_commitments() public view returns (Pairing.G1Point[] memory) {... */\n    tag_19:\n        /* \"contracts/proofOfReserves.sol\":1978:2002  Pairing.G1Point[] memory */\n      0x60\n        /* \"contracts/proofOfReserves.sol\":2021:2032  commitArray */\n      0x02\n        /* \"contracts/proofOfReserves.sol\":2014:2032  return commitArray */\n      dup1\n      sload\n      dup1\n      0x20\n      mul\n      0x20\n      add\n      mload(0x40)\n      swap1\n      dup2\n      add\n      0x40\n      mstore\n      dup1\n      swap3\n      swap2\n      swap1\n      dup2\n      dup2\n      mstore\n      0x20\n      add\n      0x00\n      swap1\n    tag_60:\n      dup3\n      dup3\n      lt\n      iszero\n      tag_61\n      jumpi\n      dup4\n      dup3\n      swap1\n      0x00\n      mstore\n      keccak256(0x00, 0x20)\n      swap1\n      0x02\n      mul\n      add\n      mload(0x40)\n      dup1\n      0x40\n      add\n      0x40\n      mstore\n      swap1\n      dup2\n      0x00\n      dup3\n      add\n      sload\n      dup2\n      mstore\n      0x20\n      add\n      0x01\n      dup3\n      add\n      sload\n      dup2\n      mstore\n      pop\n      pop\n      dup2\n      mstore\n      0x20\n      add\n      swap1\n      0x01\n      add\n      swap1\n      jump(tag_60)\n    tag_61:\n      pop\n      pop\n      pop\n      pop\n      swap1\n      pop\n        /* \"contracts/proofOfReserves.sol\":1926:2039  function get_all_commitments() public view returns (Pairing.G1Point[] memory) {... */\n      swap1\n      jump\t// out\n        /* \"contracts/proofOfReserves.sol\":2045:2138  function get_commitment_cnt() public view returns (uint256) {... */\n    tag_24:\n        /* \"contracts/proofOfReserves.sol\":2096:2103  uint256 */\n      0x00\n        /* \"contracts/proofOfReserves.sol\":2122:2131  commitCnt */\n      sload(0x05)\n        /* \"contracts/proofOfReserves.sol\":2115:2131  return commitCnt */\n      swap1\n      pop\n        /* \"contracts/proofOfReserves.sol\":2045:2138  function get_commitment_cnt() public view returns (uint256) {... */\n      swap1\n      jump\t// out\n        /* \"@openzeppelin/contracts/access/Ownable.sol\":1824:1925  function renounceOwnership() public virtual onlyOwner {... */\n    tag_29:\n        /* \"@openzeppelin/contracts/access/Ownable.sol\":1094:1107  _checkOwner() */\n      tag_65\n        /* \"@openzeppelin/contracts/access/Ownable.sol\":1094:1105  _checkOwner */\n      tag_66\n        /* \"@openzeppelin/contracts/access/Ownable.sol\":1094:1107  _checkOwner() */\n      jump\t// in\n    tag_65:\n        /* \"@openzeppelin/contracts/access/Ownable.sol\":1888:1918  _transferOwnership(address(0)) */\n      tag_68\n        /* \"@openzeppelin/contracts/access/Ownable.sol\":1915:1916  0 */\n      0x00\n        /* \"@openzeppelin/contracts/access/Ownable.sol\":1888:1906  _transferOwnership */\n      tag_69\n        /* \"@openzeppelin/contracts/access/Ownable.sol\":1888:1918  _transferOwnership(address(0)) */\n      jump\t// in\n    tag_68:\n        /* \"@openzeppelin/contracts/access/Ownable.sol\":1824:1925  function renounceOwnership() public virtual onlyOwner {... */\n      jump\t// out\n        /* \"@openzeppelin/contracts/access/Ownable.sol\":1201:1286  function owner() public view virtual returns (address) {... */\n    tag_32:\n        /* \"@openzeppelin/contracts/access/Ownable.sol\":1247:1254  address */\n      0x00\n        /* \"@openzeppelin/contracts/access/Ownable.sol\":1273:1279  _owner */\n      dup1\n      0x00\n      swap1\n      sload\n      swap1\n      0x0100\n      exp\n      swap1\n      div\n      0xffffffffffffffffffffffffffffffffffffffff\n      and\n        /* \"@openzeppelin/contracts/access/Ownable.sol\":1266:1279  return _owner */\n      swap1\n      pop\n        /* \"@openzeppelin/contracts/access/Ownable.sol\":1201:1286  function owner() public view virtual returns (address) {... */\n      swap1\n      jump\t// out\n        /* \"contracts/proofOfReserves.sol\":1827:1920  function get_vk() public view returns (uint256[] memory) {... */\n    tag_37:\n        /* \"contracts/proofOfReserves.sol\":1866:1882  uint256[] memory */\n      0x60\n        /* \"contracts/proofOfReserves.sol\":1901:1913  verifyingKey */\n      0x01\n        /* \"contracts/proofOfReserves.sol\":1894:1913  return verifyingKey */\n      dup1\n      sload\n      dup1\n      0x20\n      mul\n      0x20\n      add\n      mload(0x40)\n      swap1\n      dup2\n      add\n      0x40\n      mstore\n      dup1\n      swap3\n      swap2\n      swap1\n      dup2\n      dup2\n      mstore\n      0x20\n      add\n      dup3\n      dup1\n      sload\n      dup1\n      iszero\n      tag_72\n      jumpi\n      0x20\n      mul\n      dup3\n      add\n      swap2\n      swap1\n      0x00\n      mstore\n      keccak256(0x00, 0x20)\n      swap1\n    tag_73:\n      dup2\n      sload\n      dup2\n      mstore\n      0x20\n      add\n      swap1\n      0x01\n      add\n      swap1\n      dup1\n      dup4\n      gt\n      tag_73\n      jumpi\n    tag_72:\n      pop\n      pop\n      pop\n      pop\n      pop\n      swap1\n      pop\n        /* \"contracts/proofOfReserves.sol\":1827:1920  function get_vk() public view returns (uint256[] memory) {... */\n      swap1\n      jump\t// out\n        /* \"contracts/proofOfReserves.sol\":1188:1821  function update_commitment(... */\n    tag_43:\n        /* \"contracts/proofOfReserves.sol\":1308:1312  bool */\n      0x00\n        /* \"@openzeppelin/contracts/access/Ownable.sol\":1094:1107  _checkOwner() */\n      tag_75\n        /* \"@openzeppelin/contracts/access/Ownable.sol\":1094:1105  _checkOwner */\n      tag_66\n        /* \"@openzeppelin/contracts/access/Ownable.sol\":1094:1107  _checkOwner() */\n      jump\t// in\n    tag_75:\n        /* \"contracts/proofOfReserves.sol\":1338:1347  commitCnt */\n      sload(0x05)\n        /* \"contracts/proofOfReserves.sol\":1332:1335  idx */\n      dup4\n        /* \"contracts/proofOfReserves.sol\":1332:1347  idx < commitCnt */\n      lt\n        /* \"contracts/proofOfReserves.sol\":1324:1365  require(idx < commitCnt, \"Invalid index\") */\n      tag_77\n      jumpi\n      mload(0x40)\n      0x08c379a000000000000000000000000000000000000000000000000000000000\n      dup2\n      mstore\n      0x04\n      add\n      tag_78\n      swap1\n      tag_79\n      jump\t// in\n    tag_78:\n      mload(0x40)\n      dup1\n      swap2\n      sub\n      swap1\n      revert\n    tag_77:\n        /* \"contracts/proofOfReserves.sol\":1383:1426  ccGroth16BN128._verify(verifyingKey, proof) */\n      tag_80\n        /* \"contracts/proofOfReserves.sol\":1406:1418  verifyingKey */\n      0x01\n        /* \"contracts/proofOfReserves.sol\":1420:1425  proof */\n      dup4\n        /* \"contracts/proofOfReserves.sol\":1383:1405  ccGroth16BN128._verify */\n      tag_81\n        /* \"contracts/proofOfReserves.sol\":1383:1426  ccGroth16BN128._verify(verifyingKey, proof) */\n      jump\t// in\n    tag_80:\n        /* \"contracts/proofOfReserves.sol\":1375:1442  require(ccGroth16BN128._verify(verifyingKey, proof), \"verify fail\") */\n      tag_82\n      jumpi\n      mload(0x40)\n      0x08c379a000000000000000000000000000000000000000000000000000000000\n      dup2\n      mstore\n      0x04\n      add\n      tag_83\n      swap1\n      tag_84\n      jump\t// in\n    tag_83:\n      mload(0x40)\n      dup1\n      swap2\n      sub\n      swap1\n      revert\n    tag_82:\n        /* \"contracts/proofOfReserves.sol\":1453:1479  Pairing.G1Point memory tmp */\n      tag_85\n      tag_57\n      jump\t// in\n    tag_85:\n        /* \"contracts/proofOfReserves.sol\":1500:1596  Pairing.add(... */\n      tag_86\n        /* \"contracts/proofOfReserves.sol\":1525:1540  sumOfCommitment */\n      0x03\n        /* \"contracts/proofOfReserves.sol\":1500:1596  Pairing.add(... */\n      mload(0x40)\n      dup1\n      0x40\n      add\n      0x40\n      mstore\n      swap1\n      dup2\n      0x00\n      dup3\n      add\n      sload\n      dup2\n      mstore\n      0x20\n      add\n      0x01\n      dup3\n      add\n      sload\n      dup2\n      mstore\n      pop\n      pop\n        /* \"contracts/proofOfReserves.sol\":1554:1586  Pairing.negate(commitArray[idx]) */\n      tag_87\n        /* \"contracts/proofOfReserves.sol\":1569:1580  commitArray */\n      0x02\n        /* \"contracts/proofOfReserves.sol\":1581:1584  idx */\n      dup8\n        /* \"contracts/proofOfReserves.sol\":1569:1585  commitArray[idx] */\n      dup2\n      sload\n      dup2\n      lt\n      tag_88\n      jumpi\n      tag_89\n      tag_90\n      jump\t// in\n    tag_89:\n    tag_88:\n      swap1\n      0x00\n      mstore\n      keccak256(0x00, 0x20)\n      swap1\n      0x02\n      mul\n      add\n        /* \"contracts/proofOfReserves.sol\":1554:1586  Pairing.negate(commitArray[idx]) */\n      mload(0x40)\n      dup1\n      0x40\n      add\n      0x40\n      mstore\n      swap1\n      dup2\n      0x00\n      dup3\n      add\n      sload\n      dup2\n      mstore\n      0x20\n      add\n      0x01\n      dup3\n      add\n      sload\n      dup2\n      mstore\n      pop\n      pop\n        /* \"contracts/proofOfReserves.sol\":1554:1568  Pairing.negate */\n      tag_92\n        /* \"contracts/proofOfReserves.sol\":1554:1586  Pairing.negate(commitArray[idx]) */\n      jump\t// in\n    tag_87:\n        /* \"contracts/proofOfReserves.sol\":1500:1511  Pairing.add */\n      tag_93\n        /* \"contracts/proofOfReserves.sol\":1500:1596  Pairing.add(... */\n      jump\t// in\n    tag_86:\n        /* \"contracts/proofOfReserves.sol\":1494:1596  tmp = Pairing.add(... */\n      swap1\n      pop\n        /* \"contracts/proofOfReserves.sol\":1628:1633  proof */\n      dup3\n        /* \"contracts/proofOfReserves.sol\":1634:1635  8 */\n      0x08\n        /* \"contracts/proofOfReserves.sol\":1628:1636  proof[8] */\n      dup2\n      mload\n      dup2\n      lt\n      tag_94\n      jumpi\n      tag_95\n      tag_90\n      jump\t// in\n    tag_95:\n    tag_94:\n      0x20\n      mul\n      0x20\n      add\n      add\n      mload\n        /* \"contracts/proofOfReserves.sol\":1607:1618  commitArray */\n      0x02\n        /* \"contracts/proofOfReserves.sol\":1619:1622  idx */\n      dup6\n        /* \"contracts/proofOfReserves.sol\":1607:1623  commitArray[idx] */\n      dup2\n      sload\n      dup2\n      lt\n      tag_96\n      jumpi\n      tag_97\n      tag_90\n      jump\t// in\n    tag_97:\n    tag_96:\n      swap1\n      0x00\n      mstore\n      keccak256(0x00, 0x20)\n      swap1\n      0x02\n      mul\n      add\n        /* \"contracts/proofOfReserves.sol\":1607:1625  commitArray[idx].X */\n      0x00\n      add\n        /* \"contracts/proofOfReserves.sol\":1607:1636  commitArray[idx].X = proof[8] */\n      dup2\n      swap1\n      sstore\n      pop\n        /* \"contracts/proofOfReserves.sol\":1667:1672  proof */\n      dup3\n        /* \"contracts/proofOfReserves.sol\":1673:1674  9 */\n      0x09\n        /* \"contracts/proofOfReserves.sol\":1667:1675  proof[9] */\n      dup2\n      mload\n      dup2\n      lt\n      tag_99\n      jumpi\n      tag_100\n      tag_90\n      jump\t// in\n    tag_100:\n    tag_99:\n      0x20\n      mul\n      0x20\n      add\n      add\n      mload\n        /* \"contracts/proofOfReserves.sol\":1646:1657  commitArray */\n      0x02\n        /* \"contracts/proofOfReserves.sol\":1658:1661  idx */\n      dup6\n        /* \"contracts/proofOfReserves.sol\":1646:1662  commitArray[idx] */\n      dup2\n      sload\n      dup2\n      lt\n      tag_101\n      jumpi\n      tag_102\n      tag_90\n      jump\t// in\n    tag_102:\n    tag_101:\n      swap1\n      0x00\n      mstore\n      keccak256(0x00, 0x20)\n      swap1\n      0x02\n      mul\n      add\n        /* \"contracts/proofOfReserves.sol\":1646:1664  commitArray[idx].Y */\n      0x01\n      add\n        /* \"contracts/proofOfReserves.sol\":1646:1675  commitArray[idx].Y = proof[9] */\n      dup2\n      swap1\n      sstore\n      pop\n        /* \"contracts/proofOfReserves.sol\":1704:1784  Pairing.add(... */\n      tag_104\n        /* \"contracts/proofOfReserves.sol\":1729:1744  sumOfCommitment */\n      0x03\n        /* \"contracts/proofOfReserves.sol\":1704:1784  Pairing.add(... */\n      mload(0x40)\n      dup1\n      0x40\n      add\n      0x40\n      mstore\n      swap1\n      dup2\n      0x00\n      dup3\n      add\n      sload\n      dup2\n      mstore\n      0x20\n      add\n      0x01\n      dup3\n      add\n      sload\n      dup2\n      mstore\n      pop\n      pop\n        /* \"contracts/proofOfReserves.sol\":1758:1769  commitArray */\n      0x02\n        /* \"contracts/proofOfReserves.sol\":1770:1773  idx */\n      dup7\n        /* \"contracts/proofOfReserves.sol\":1758:1774  commitArray[idx] */\n      dup2\n      sload\n      dup2\n      lt\n      tag_105\n      jumpi\n      tag_106\n      tag_90\n      jump\t// in\n    tag_106:\n    tag_105:\n      swap1\n      0x00\n      mstore\n      keccak256(0x00, 0x20)\n      swap1\n      0x02\n      mul\n      add\n        /* \"contracts/proofOfReserves.sol\":1704:1784  Pairing.add(... */\n      mload(0x40)\n      dup1\n      0x40\n      add\n      0x40\n      mstore\n      swap1\n      dup2\n      0x00\n      dup3\n      add\n      sload\n      dup2\n      mstore\n      0x20\n      add\n      0x01\n      dup3\n      add\n      sload\n      dup2\n      mstore\n      pop\n      pop\n        /* \"contracts/proofOfReserves.sol\":1704:1715  Pairing.add */\n      tag_93\n        /* \"contracts/proofOfReserves.sol\":1704:1784  Pairing.add(... */\n      jump\t// in\n    tag_104:\n        /* \"contracts/proofOfReserves.sol\":1686:1701  sumOfCommitment */\n      0x03\n        /* \"contracts/proofOfReserves.sol\":1686:1784  sumOfCommitment = Pairing.add(... */\n      0x00\n      dup3\n      add\n      mload\n      dup2\n      0x00\n      add\n      sstore\n      0x20\n      dup3\n      add\n      mload\n      dup2\n      0x01\n      add\n      sstore\n      swap1\n      pop\n      pop\n        /* \"contracts/proofOfReserves.sol\":1810:1814  true */\n      0x01\n        /* \"contracts/proofOfReserves.sol\":1803:1814  return true */\n      swap2\n      pop\n      pop\n        /* \"contracts/proofOfReserves.sol\":1188:1821  function update_commitment(... */\n      swap3\n      swap2\n      pop\n      pop\n      jump\t// out\n        /* \"@openzeppelin/contracts/access/Ownable.sol\":2074:2272  function transferOwnership(address newOwner) public virtual onlyOwner {... */\n    tag_50:\n        /* \"@openzeppelin/contracts/access/Ownable.sol\":1094:1107  _checkOwner() */\n      tag_109\n        /* \"@openzeppelin/contracts/access/Ownable.sol\":1094:1105  _checkOwner */\n      tag_66\n        /* \"@openzeppelin/contracts/access/Ownable.sol\":1094:1107  _checkOwner() */\n      jump\t// in\n    tag_109:\n        /* \"@openzeppelin/contracts/access/Ownable.sol\":2182:2183  0 */\n      0x00\n        /* \"@openzeppelin/contracts/access/Ownable.sol\":2162:2184  newOwner != address(0) */\n      0xffffffffffffffffffffffffffffffffffffffff\n      and\n        /* \"@openzeppelin/contracts/access/Ownable.sol\":2162:2170  newOwner */\n      dup2\n        /* \"@openzeppelin/contracts/access/Ownable.sol\":2162:2184  newOwner != address(0) */\n      0xffffffffffffffffffffffffffffffffffffffff\n      and\n      eq\n      iszero\n        /* \"@openzeppelin/contracts/access/Ownable.sol\":2154:2227  require(newOwner != address(0), \"Ownable: new owner is the zero address\") */\n      tag_111\n      jumpi\n      mload(0x40)\n      0x08c379a000000000000000000000000000000000000000000000000000000000\n      dup2\n      mstore\n      0x04\n      add\n      tag_112\n      swap1\n      tag_113\n      jump\t// in\n    tag_112:\n      mload(0x40)\n      dup1\n      swap2\n      sub\n      swap1\n      revert\n    tag_111:\n        /* \"@openzeppelin/contracts/access/Ownable.sol\":2237:2265  _transferOwnership(newOwner) */\n      tag_114\n        /* \"@openzeppelin/contracts/access/Ownable.sol\":2256:2264  newOwner */\n      dup2\n        /* \"@openzeppelin/contracts/access/Ownable.sol\":2237:2255  _transferOwnership */\n      tag_69\n        /* \"@openzeppelin/contracts/access/Ownable.sol\":2237:2265  _transferOwnership(newOwner) */\n      jump\t// in\n    tag_114:\n        /* \"@openzeppelin/contracts/access/Ownable.sol\":2074:2272  function transferOwnership(address newOwner) public virtual onlyOwner {... */\n      pop\n      jump\t// out\n        /* \"contracts/proofOfReserves.sol\":725:1182  function upload_commitment(... */\n    tag_54:\n        /* \"contracts/proofOfReserves.sol\":824:831  uint256 */\n      0x00\n        /* \"@openzeppelin/contracts/access/Ownable.sol\":1094:1107  _checkOwner() */\n      tag_116\n        /* \"@openzeppelin/contracts/access/Ownable.sol\":1094:1105  _checkOwner */\n      tag_66\n        /* \"@openzeppelin/contracts/access/Ownable.sol\":1094:1107  _checkOwner() */\n      jump\t// in\n    tag_116:\n        /* \"contracts/proofOfReserves.sol\":851:894  ccGroth16BN128._verify(verifyingKey, proof) */\n      tag_118\n        /* \"contracts/proofOfReserves.sol\":874:886  verifyingKey */\n      0x01\n        /* \"contracts/proofOfReserves.sol\":888:893  proof */\n      dup4\n        /* \"contracts/proofOfReserves.sol\":851:873  ccGroth16BN128._verify */\n      tag_81\n        /* \"contracts/proofOfReserves.sol\":851:894  ccGroth16BN128._verify(verifyingKey, proof) */\n      jump\t// in\n    tag_118:\n        /* \"contracts/proofOfReserves.sol\":843:910  require(ccGroth16BN128._verify(verifyingKey, proof), \"verify fail\") */\n      tag_119\n      jumpi\n      mload(0x40)\n      0x08c379a000000000000000000000000000000000000000000000000000000000\n      dup2\n      mstore\n      0x04\n      add\n      tag_120\n      swap1\n      tag_84\n      jump\t// in\n    tag_120:\n      mload(0x40)\n      dup1\n      swap2\n      sub\n      swap1\n      revert\n    tag_119:\n        /* \"contracts/proofOfReserves.sol\":921:946  Pairing.G1Point memory cm */\n      0x00\n        /* \"contracts/proofOfReserves.sol\":949:984  Pairing.G1Point(proof[8], proof[9]) */\n      mload(0x40)\n      dup1\n      0x40\n      add\n      0x40\n      mstore\n      dup1\n        /* \"contracts/proofOfReserves.sol\":965:970  proof */\n      dup5\n        /* \"contracts/proofOfReserves.sol\":971:972  8 */\n      0x08\n        /* \"contracts/proofOfReserves.sol\":965:973  proof[8] */\n      dup2\n      mload\n      dup2\n      lt\n      tag_121\n      jumpi\n      tag_122\n      tag_90\n      jump\t// in\n    tag_122:\n    tag_121:\n      0x20\n      mul\n      0x20\n      add\n      add\n      mload\n        /* \"contracts/proofOfReserves.sol\":949:984  Pairing.G1Point(proof[8], proof[9]) */\n      dup2\n      mstore\n      0x20\n      add\n        /* \"contracts/proofOfReserves.sol\":975:980  proof */\n      dup5\n        /* \"contracts/proofOfReserves.sol\":981:982  9 */\n      0x09\n        /* \"contracts/proofOfReserves.sol\":975:983  proof[9] */\n      dup2\n      mload\n      dup2\n      lt\n      tag_123\n      jumpi\n      tag_124\n      tag_90\n      jump\t// in\n    tag_124:\n    tag_123:\n      0x20\n      mul\n      0x20\n      add\n      add\n      mload\n        /* \"contracts/proofOfReserves.sol\":949:984  Pairing.G1Point(proof[8], proof[9]) */\n      dup2\n      mstore\n      pop\n        /* \"contracts/proofOfReserves.sol\":921:984  Pairing.G1Point memory cm = Pairing.G1Point(proof[8], proof[9]) */\n      swap1\n      pop\n        /* \"contracts/proofOfReserves.sol\":994:1005  commitArray */\n      0x02\n        /* \"contracts/proofOfReserves.sol\":1011:1013  cm */\n      dup2\n        /* \"contracts/proofOfReserves.sol\":994:1014  commitArray.push(cm) */\n      swap1\n      dup1\n      0x01\n      dup2\n      sload\n      add\n      dup1\n      dup3\n      sstore\n      dup1\n      swap2\n      pop\n      pop\n      0x01\n      swap1\n      sub\n      swap1\n      0x00\n      mstore\n      keccak256(0x00, 0x20)\n      swap1\n      0x02\n      mul\n      add\n      0x00\n      swap1\n      swap2\n      swap1\n      swap2\n      swap1\n      swap2\n      pop\n      0x00\n      dup3\n      add\n      mload\n      dup2\n      0x00\n      add\n      sstore\n      0x20\n      dup3\n      add\n      mload\n      dup2\n      0x01\n      add\n      sstore\n      pop\n      pop\n        /* \"contracts/proofOfReserves.sol\":1036:1037  0 */\n      0x00\n        /* \"contracts/proofOfReserves.sol\":1028:1030  cm */\n      dup2\n        /* \"contracts/proofOfReserves.sol\":1028:1032  cm.X */\n      0x00\n      add\n      mload\n        /* \"contracts/proofOfReserves.sol\":1028:1037  cm.X == 0 */\n      eq\n        /* \"contracts/proofOfReserves.sol\":1028:1050  cm.X == 0 && cm.Y == 0 */\n      dup1\n      iszero\n      tag_126\n      jumpi\n      pop\n        /* \"contracts/proofOfReserves.sol\":1049:1050  0 */\n      0x00\n        /* \"contracts/proofOfReserves.sol\":1041:1043  cm */\n      dup2\n        /* \"contracts/proofOfReserves.sol\":1041:1045  cm.Y */\n      0x20\n      add\n      mload\n        /* \"contracts/proofOfReserves.sol\":1041:1050  cm.Y == 0 */\n      eq\n        /* \"contracts/proofOfReserves.sol\":1028:1050  cm.X == 0 && cm.Y == 0 */\n    tag_126:\n        /* \"contracts/proofOfReserves.sol\":1025:1147  if(cm.X == 0 && cm.Y == 0) { sumOfCommitment = cm; } ... */\n      iszero\n      tag_127\n      jumpi\n        /* \"contracts/proofOfReserves.sol\":1072:1074  cm */\n      dup1\n        /* \"contracts/proofOfReserves.sol\":1054:1069  sumOfCommitment */\n      0x03\n        /* \"contracts/proofOfReserves.sol\":1054:1074  sumOfCommitment = cm */\n      0x00\n      dup3\n      add\n      mload\n      dup2\n      0x00\n      add\n      sstore\n      0x20\n      dup3\n      add\n      mload\n      dup2\n      0x01\n      add\n      sstore\n      swap1\n      pop\n      pop\n        /* \"contracts/proofOfReserves.sol\":1025:1147  if(cm.X == 0 && cm.Y == 0) { sumOfCommitment = cm; } ... */\n      jump(tag_128)\n    tag_127:\n        /* \"contracts/proofOfReserves.sol\":1112:1144  Pairing.add(sumOfCommitment, cm) */\n      tag_129\n        /* \"contracts/proofOfReserves.sol\":1124:1139  sumOfCommitment */\n      0x03\n        /* \"contracts/proofOfReserves.sol\":1112:1144  Pairing.add(sumOfCommitment, cm) */\n      mload(0x40)\n      dup1\n      0x40\n      add\n      0x40\n      mstore\n      swap1\n      dup2\n      0x00\n      dup3\n      add\n      sload\n      dup2\n      mstore\n      0x20\n      add\n      0x01\n      dup3\n      add\n      sload\n      dup2\n      mstore\n      pop\n      pop\n        /* \"contracts/proofOfReserves.sol\":1141:1143  cm */\n      dup3\n        /* \"contracts/proofOfReserves.sol\":1112:1123  Pairing.add */\n      tag_93\n        /* \"contracts/proofOfReserves.sol\":1112:1144  Pairing.add(sumOfCommitment, cm) */\n      jump\t// in\n    tag_129:\n        /* \"contracts/proofOfReserves.sol\":1094:1109  sumOfCommitment */\n      0x03\n        /* \"contracts/proofOfReserves.sol\":1094:1144  sumOfCommitment = Pairing.add(sumOfCommitment, cm) */\n      0x00\n      dup3\n      add\n      mload\n      dup2\n      0x00\n      add\n      sstore\n      0x20\n      dup3\n      add\n      mload\n      dup2\n      0x01\n      add\n      sstore\n      swap1\n      pop\n      pop\n        /* \"contracts/proofOfReserves.sol\":1025:1147  if(cm.X == 0 && cm.Y == 0) { sumOfCommitment = cm; } ... */\n    tag_128:\n        /* \"contracts/proofOfReserves.sol\":1164:1173  commitCnt */\n      0x05\n      0x00\n        /* \"contracts/proofOfReserves.sol\":1164:1175  commitCnt++ */\n      dup2\n      sload\n      dup1\n      swap3\n      swap2\n      swap1\n      tag_130\n      swap1\n      tag_131\n      jump\t// in\n    tag_130:\n      swap2\n      swap1\n      pop\n      sstore\n        /* \"contracts/proofOfReserves.sol\":1157:1175  return commitCnt++ */\n      swap2\n      pop\n      pop\n        /* \"contracts/proofOfReserves.sol\":725:1182  function upload_commitment(... */\n      swap2\n      swap1\n      pop\n      jump\t// out\n        /* \"@openzeppelin/contracts/access/Ownable.sol\":1359:1489  function _checkOwner() internal view virtual {... */\n    tag_66:\n        /* \"@openzeppelin/contracts/access/Ownable.sol\":1433:1445  _msgSender() */\n      tag_133\n        /* \"@openzeppelin/contracts/access/Ownable.sol\":1433:1443  _msgSender */\n      tag_134\n        /* \"@openzeppelin/contracts/access/Ownable.sol\":1433:1445  _msgSender() */\n      jump\t// in\n    tag_133:\n        /* \"@openzeppelin/contracts/access/Ownable.sol\":1422:1445  owner() == _msgSender() */\n      0xffffffffffffffffffffffffffffffffffffffff\n      and\n        /* \"@openzeppelin/contracts/access/Ownable.sol\":1422:1429  owner() */\n      tag_135\n        /* \"@openzeppelin/contracts/access/Ownable.sol\":1422:1427  owner */\n      tag_32\n        /* \"@openzeppelin/contracts/access/Ownable.sol\":1422:1429  owner() */\n      jump\t// in\n    tag_135:\n        /* \"@openzeppelin/contracts/access/Ownable.sol\":1422:1445  owner() == _msgSender() */\n      0xffffffffffffffffffffffffffffffffffffffff\n      and\n      eq\n        /* \"@openzeppelin/contracts/access/Ownable.sol\":1414:1482  require(owner() == _msgSender(), \"Ownable: caller is not the owner\") */\n      tag_136\n      jumpi\n      mload(0x40)\n      0x08c379a000000000000000000000000000000000000000000000000000000000\n      dup2\n      mstore\n      0x04\n      add\n      tag_137\n      swap1\n      tag_138\n      jump\t// in\n    tag_137:\n      mload(0x40)\n      dup1\n      swap2\n      sub\n      swap1\n      revert\n    tag_136:\n        /* \"@openzeppelin/contracts/access/Ownable.sol\":1359:1489  function _checkOwner() internal view virtual {... */\n      jump\t// out\n        /* \"@openzeppelin/contracts/access/Ownable.sol\":2426:2613  function _transferOwnership(address newOwner) internal virtual {... */\n    tag_69:\n        /* \"@openzeppelin/contracts/access/Ownable.sol\":2499:2515  address oldOwner */\n      0x00\n        /* \"@openzeppelin/contracts/access/Ownable.sol\":2518:2524  _owner */\n      dup1\n      0x00\n      swap1\n      sload\n      swap1\n      0x0100\n      exp\n      swap1\n      div\n      0xffffffffffffffffffffffffffffffffffffffff\n      and\n        /* \"@openzeppelin/contracts/access/Ownable.sol\":2499:2524  address oldOwner = _owner */\n      swap1\n      pop\n        /* \"@openzeppelin/contracts/access/Ownable.sol\":2543:2551  newOwner */\n      dup2\n        /* \"@openzeppelin/contracts/access/Ownable.sol\":2534:2540  _owner */\n      0x00\n      dup1\n        /* \"@openzeppelin/contracts/access/Ownable.sol\":2534:2551  _owner = newOwner */\n      0x0100\n      exp\n      dup2\n      sload\n      dup2\n      0xffffffffffffffffffffffffffffffffffffffff\n      mul\n      not\n      and\n      swap1\n      dup4\n      0xffffffffffffffffffffffffffffffffffffffff\n      and\n      mul\n      or\n      swap1\n      sstore\n      pop\n        /* \"@openzeppelin/contracts/access/Ownable.sol\":2597:2605  newOwner */\n      dup2\n        /* \"@openzeppelin/contracts/access/Ownable.sol\":2566:2606  OwnershipTransferred(oldOwner, newOwner) */\n      0xffffffffffffffffffffffffffffffffffffffff\n      and\n        /* \"@openzeppelin/contracts/access/Ownable.sol\":2587:2595  oldOwner */\n      dup2\n        /* \"@openzeppelin/contracts/access/Ownable.sol\":2566:2606  OwnershipTransferred(oldOwner, newOwner) */\n      0xffffffffffffffffffffffffffffffffffffffff\n      and\n      0x8be0079c531659141344cd1fd0a4f28419497f9722a3daafe3b4186f6b6457e0\n      mload(0x40)\n      mload(0x40)\n      dup1\n      swap2\n      sub\n      swap1\n      log3\n        /* \"@openzeppelin/contracts/access/Ownable.sol\":2489:2613  {... */\n      pop\n        /* \"@openzeppelin/contracts/access/Ownable.sol\":2426:2613  function _transferOwnership(address newOwner) internal virtual {... */\n      pop\n      jump\t// out\n        /* \"contracts/ccGroth16VerifyBn128.sol\":912:4522  function _verify(... */\n    tag_81:\n        /* \"contracts/ccGroth16VerifyBn128.sol\":1031:1035  bool */\n      0x00\n        /* \"contracts/ccGroth16VerifyBn128.sol\":1075:1077  10 */\n      0x0a\n        /* \"contracts/ccGroth16VerifyBn128.sol\":1059:1064  proof */\n      dup3\n        /* \"contracts/ccGroth16VerifyBn128.sol\":1059:1071  proof.length */\n      mload\n        /* \"contracts/ccGroth16VerifyBn128.sol\":1059:1077  proof.length == 10 */\n      eq\n        /* \"contracts/ccGroth16VerifyBn128.sol\":1051:1102  require(proof.length == 10, \"Invalid proof length\") */\n      tag_141\n      jumpi\n      mload(0x40)\n      0x08c379a000000000000000000000000000000000000000000000000000000000\n      dup2\n      mstore\n      0x04\n      add\n      tag_142\n      swap1\n      tag_143\n      jump\t// in\n    tag_142:\n      mload(0x40)\n      dup1\n      swap2\n      sub\n      swap1\n      revert\n    tag_141:\n        /* \"contracts/ccGroth16VerifyBn128.sol\":1134:1136  16 */\n      0x10\n        /* \"contracts/ccGroth16VerifyBn128.sol\":1120:1122  vk */\n      dup4\n        /* \"contracts/ccGroth16VerifyBn128.sol\":1120:1129  vk.length */\n      dup1\n      sload\n      swap1\n      pop\n        /* \"contracts/ccGroth16VerifyBn128.sol\":1120:1136  vk.length ==  16 */\n      eq\n        /* \"contracts/ccGroth16VerifyBn128.sol\":1112:1158  require(vk.length ==  16, \"Invalid vk length\") */\n      tag_144\n      jumpi\n      mload(0x40)\n      0x08c379a000000000000000000000000000000000000000000000000000000000\n      dup2\n      mstore\n      0x04\n      add\n      tag_145\n      swap1\n      tag_146\n      jump\t// in\n    tag_145:\n      mload(0x40)\n      dup1\n      swap2\n      sub\n      swap1\n      revert\n    tag_144:\n        /* \"contracts/ccGroth16VerifyBn128.sol\":1185:1204  uint256 vk_slot_num */\n      0x00\n        /* \"contracts/ccGroth16VerifyBn128.sol\":1236:1261  uint256[24] memory inputs */\n      tag_147\n      tag_148\n      jump\t// in\n    tag_147:\n        /* \"contracts/ccGroth16VerifyBn128.sol\":1309:1321  bool success */\n      0x00\n        /* \"contracts/ccGroth16VerifyBn128.sol\":1324:1328  true */\n      0x01\n        /* \"contracts/ccGroth16VerifyBn128.sol\":1309:1328  bool success = true */\n      swap1\n      pop\n        /* \"contracts/ccGroth16VerifyBn128.sol\":1528:1532  0x20 */\n      0x20\n        /* \"contracts/ccGroth16VerifyBn128.sol\":1521:1526  proof */\n      dup6\n        /* \"contracts/ccGroth16VerifyBn128.sol\":1517:1533  add(proof, 0x20) */\n      add\n        /* \"contracts/ccGroth16VerifyBn128.sol\":1562:1569  vk.slot */\n      dup7\n        /* \"contracts/ccGroth16VerifyBn128.sol\":1554:1560  inputs */\n      dup4\n        /* \"contracts/ccGroth16VerifyBn128.sol\":1547:1570  mstore(inputs, vk.slot) */\n      mstore\n        /* \"contracts/ccGroth16VerifyBn128.sol\":1616:1620  0x20 */\n      0x20\n        /* \"contracts/ccGroth16VerifyBn128.sol\":1608:1614  inputs */\n      dup4\n        /* \"contracts/ccGroth16VerifyBn128.sol\":1598:1621  keccak256(inputs, 0x20) */\n      keccak256\n        /* \"contracts/ccGroth16VerifyBn128.sol\":1583:1621  vk_slot_num := keccak256(inputs, 0x20) */\n      swap4\n      pop\n        /* \"contracts/ccGroth16VerifyBn128.sol\":1669:1674  0x100 */\n      0x0100\n        /* \"contracts/ccGroth16VerifyBn128.sol\":1660:1667  proof_i */\n      dup2\n        /* \"contracts/ccGroth16VerifyBn128.sol\":1656:1675  add(proof_i, 0x100) */\n      add\n        /* \"contracts/ccGroth16VerifyBn128.sol\":1650:1676  mload(add(proof_i, 0x100)) */\n      mload\n        /* \"contracts/ccGroth16VerifyBn128.sol\":1642:1648  inputs */\n      dup4\n        /* \"contracts/ccGroth16VerifyBn128.sol\":1635:1677  mstore(inputs, mload(add(proof_i, 0x100))) */\n      mstore\n        /* \"contracts/ccGroth16VerifyBn128.sol\":1735:1740  0x120 */\n      0x0120\n        /* \"contracts/ccGroth16VerifyBn128.sol\":1726:1733  proof_i */\n      dup2\n        /* \"contracts/ccGroth16VerifyBn128.sol\":1722:1741  add(proof_i, 0x120) */\n      add\n        /* \"contracts/ccGroth16VerifyBn128.sol\":1716:1742  mload(add(proof_i, 0x120)) */\n      mload\n        /* \"contracts/ccGroth16VerifyBn128.sol\":1709:1713  0x20 */\n      0x20\n        /* \"contracts/ccGroth16VerifyBn128.sol\":1701:1707  inputs */\n      dup5\n        /* \"contracts/ccGroth16VerifyBn128.sol\":1697:1714  add(inputs, 0x20) */\n      add\n        /* \"contracts/ccGroth16VerifyBn128.sol\":1690:1743  mstore(add(inputs, 0x20), mload(add(proof_i, 0x120))) */\n      mstore\n        /* \"contracts/ccGroth16VerifyBn128.sol\":1805:1807  10 */\n      0x0a\n        /* \"contracts/ccGroth16VerifyBn128.sol\":1792:1803  vk_slot_num */\n      dup5\n        /* \"contracts/ccGroth16VerifyBn128.sol\":1788:1808  add(vk_slot_num, 10) */\n      add\n        /* \"contracts/ccGroth16VerifyBn128.sol\":1782:1809  sload(add(vk_slot_num, 10)) */\n      sload\n        /* \"contracts/ccGroth16VerifyBn128.sol\":1775:1779  0x40 */\n      0x40\n        /* \"contracts/ccGroth16VerifyBn128.sol\":1767:1773  inputs */\n      dup5\n        /* \"contracts/ccGroth16VerifyBn128.sol\":1763:1780  add(inputs, 0x40) */\n      add\n        /* \"contracts/ccGroth16VerifyBn128.sol\":1756:1810  mstore(add(inputs, 0x40), sload(add(vk_slot_num, 10))) */\n      mstore\n        /* \"contracts/ccGroth16VerifyBn128.sol\":1872:1874  11 */\n      0x0b\n        /* \"contracts/ccGroth16VerifyBn128.sol\":1859:1870  vk_slot_num */\n      dup5\n        /* \"contracts/ccGroth16VerifyBn128.sol\":1855:1875  add(vk_slot_num, 11) */\n      add\n        /* \"contracts/ccGroth16VerifyBn128.sol\":1849:1876  sload(add(vk_slot_num, 11)) */\n      sload\n        /* \"contracts/ccGroth16VerifyBn128.sol\":1842:1846  0x60 */\n      0x60\n        /* \"contracts/ccGroth16VerifyBn128.sol\":1834:1840  inputs */\n      dup5\n        /* \"contracts/ccGroth16VerifyBn128.sol\":1830:1847  add(inputs, 0x60) */\n      add\n        /* \"contracts/ccGroth16VerifyBn128.sol\":1823:1877  mstore(add(inputs, 0x60), sload(add(vk_slot_num, 11))) */\n      mstore\n        /* \"contracts/ccGroth16VerifyBn128.sol\":2040:2044  0x40 */\n      0x40\n        /* \"contracts/ccGroth16VerifyBn128.sol\":2032:2037  0x240 */\n      0x0240\n        /* \"contracts/ccGroth16VerifyBn128.sol\":2024:2030  inputs */\n      dup5\n        /* \"contracts/ccGroth16VerifyBn128.sol\":2020:2038  add(inputs, 0x240) */\n      add\n        /* \"contracts/ccGroth16VerifyBn128.sol\":2014:2018  0x80 */\n      0x80\n        /* \"contracts/ccGroth16VerifyBn128.sol\":2006:2012  inputs */\n      dup6\n        /* \"contracts/ccGroth16VerifyBn128.sol\":2003:2004  0 */\n      0x00\n        /* \"contracts/ccGroth16VerifyBn128.sol\":1997:2001  0x06 */\n      0x06\n        /* \"contracts/ccGroth16VerifyBn128.sol\":1990:1995  gas() */\n      gas\n        /* \"contracts/ccGroth16VerifyBn128.sol\":1985:2045  call(gas(), 0x06, 0, inputs, 0x80, add(inputs, 0x240), 0x40) */\n      call\n        /* \"contracts/ccGroth16VerifyBn128.sol\":1974:2045  success := call(gas(), 0x06, 0, inputs, 0x80, add(inputs, 0x240), 0x40) */\n      swap2\n      pop\n        /* \"contracts/ccGroth16VerifyBn128.sol\":1485:2055  {   ... */\n      pop\n        /* \"contracts/ccGroth16VerifyBn128.sol\":2072:2079  success */\n      dup1\n        /* \"contracts/ccGroth16VerifyBn128.sol\":2064:2097  require(success, \"bn256Add fail\") */\n      tag_149\n      jumpi\n      mload(0x40)\n      0x08c379a000000000000000000000000000000000000000000000000000000000\n      dup2\n      mstore\n      0x04\n      add\n      tag_150\n      swap1\n      tag_151\n      jump\t// in\n    tag_150:\n      mload(0x40)\n      dup1\n      swap2\n      sub\n      swap1\n      revert\n    tag_149:\n        /* \"contracts/ccGroth16VerifyBn128.sol\":2506:2510  0x20 */\n      0x20\n        /* \"contracts/ccGroth16VerifyBn128.sol\":2499:2504  proof */\n      dup6\n        /* \"contracts/ccGroth16VerifyBn128.sol\":2495:2511  add(proof, 0x20) */\n      add\n        /* \"contracts/ccGroth16VerifyBn128.sol\":2628:2635  proof_i */\n      dup1\n        /* \"contracts/ccGroth16VerifyBn128.sol\":2622:2636  mload(proof_i) */\n      mload\n        /* \"contracts/ccGroth16VerifyBn128.sol\":2614:2620  inputs */\n      dup4\n        /* \"contracts/ccGroth16VerifyBn128.sol\":2607:2637  mstore(inputs, mload(proof_i)) */\n      mstore\n        /* \"contracts/ccGroth16VerifyBn128.sol\":2695:2699  0x20 */\n      0x20\n        /* \"contracts/ccGroth16VerifyBn128.sol\":2686:2693  proof_i */\n      dup2\n        /* \"contracts/ccGroth16VerifyBn128.sol\":2682:2700  add(proof_i, 0x20) */\n      add\n        /* \"contracts/ccGroth16VerifyBn128.sol\":2676:2701  mload(add(proof_i, 0x20)) */\n      mload\n        /* \"contracts/ccGroth16VerifyBn128.sol\":2669:2673  0x20 */\n      0x20\n        /* \"contracts/ccGroth16VerifyBn128.sol\":2661:2667  inputs */\n      dup5\n        /* \"contracts/ccGroth16VerifyBn128.sol\":2657:2674  add(inputs, 0x20) */\n      add\n        /* \"contracts/ccGroth16VerifyBn128.sol\":2650:2702  mstore(add(inputs, 0x20), mload(add(proof_i, 0x20))) */\n      mstore\n        /* \"contracts/ccGroth16VerifyBn128.sol\":2760:2764  0x40 */\n      0x40\n        /* \"contracts/ccGroth16VerifyBn128.sol\":2751:2758  proof_i */\n      dup2\n        /* \"contracts/ccGroth16VerifyBn128.sol\":2747:2765  add(proof_i, 0x40) */\n      add\n        /* \"contracts/ccGroth16VerifyBn128.sol\":2741:2766  mload(add(proof_i, 0x40)) */\n      mload\n        /* \"contracts/ccGroth16VerifyBn128.sol\":2734:2738  0x40 */\n      0x40\n        /* \"contracts/ccGroth16VerifyBn128.sol\":2726:2732  inputs */\n      dup5\n        /* \"contracts/ccGroth16VerifyBn128.sol\":2722:2739  add(inputs, 0x40) */\n      add\n        /* \"contracts/ccGroth16VerifyBn128.sol\":2715:2767  mstore(add(inputs, 0x40), mload(add(proof_i, 0x40))) */\n      mstore\n        /* \"contracts/ccGroth16VerifyBn128.sol\":2825:2829  0x60 */\n      0x60\n        /* \"contracts/ccGroth16VerifyBn128.sol\":2816:2823  proof_i */\n      dup2\n        /* \"contracts/ccGroth16VerifyBn128.sol\":2812:2830  add(proof_i, 0x60) */\n      add\n        /* \"contracts/ccGroth16VerifyBn128.sol\":2806:2831  mload(add(proof_i, 0x60)) */\n      mload\n        /* \"contracts/ccGroth16VerifyBn128.sol\":2799:2803  0x60 */\n      0x60\n        /* \"contracts/ccGroth16VerifyBn128.sol\":2791:2797  inputs */\n      dup5\n        /* \"contracts/ccGroth16VerifyBn128.sol\":2787:2804  add(inputs, 0x60) */\n      add\n        /* \"contracts/ccGroth16VerifyBn128.sol\":2780:2832  mstore(add(inputs, 0x60), mload(add(proof_i, 0x60))) */\n      mstore\n        /* \"contracts/ccGroth16VerifyBn128.sol\":2890:2894  0x80 */\n      0x80\n        /* \"contracts/ccGroth16VerifyBn128.sol\":2881:2888  proof_i */\n      dup2\n        /* \"contracts/ccGroth16VerifyBn128.sol\":2877:2895  add(proof_i, 0x80) */\n      add\n        /* \"contracts/ccGroth16VerifyBn128.sol\":2871:2896  mload(add(proof_i, 0x80)) */\n      mload\n        /* \"contracts/ccGroth16VerifyBn128.sol\":2864:2868  0x80 */\n      0x80\n        /* \"contracts/ccGroth16VerifyBn128.sol\":2856:2862  inputs */\n      dup5\n        /* \"contracts/ccGroth16VerifyBn128.sol\":2852:2869  add(inputs, 0x80) */\n      add\n        /* \"contracts/ccGroth16VerifyBn128.sol\":2845:2897  mstore(add(inputs, 0x80), mload(add(proof_i, 0x80))) */\n      mstore\n        /* \"contracts/ccGroth16VerifyBn128.sol\":2955:2959  0xa0 */\n      0xa0\n        /* \"contracts/ccGroth16VerifyBn128.sol\":2946:2953  proof_i */\n      dup2\n        /* \"contracts/ccGroth16VerifyBn128.sol\":2942:2960  add(proof_i, 0xa0) */\n      add\n        /* \"contracts/ccGroth16VerifyBn128.sol\":2936:2961  mload(add(proof_i, 0xa0)) */\n      mload\n        /* \"contracts/ccGroth16VerifyBn128.sol\":2929:2933  0xa0 */\n      0xa0\n        /* \"contracts/ccGroth16VerifyBn128.sol\":2921:2927  inputs */\n      dup5\n        /* \"contracts/ccGroth16VerifyBn128.sol\":2917:2934  add(inputs, 0xa0) */\n      add\n        /* \"contracts/ccGroth16VerifyBn128.sol\":2910:2962  mstore(add(inputs, 0xa0), mload(add(proof_i, 0xa0))) */\n      mstore\n        /* \"contracts/ccGroth16VerifyBn128.sol\":3121:3132  vk_slot_num */\n      dup4\n        /* \"contracts/ccGroth16VerifyBn128.sol\":3115:3133  sload(vk_slot_num) */\n      sload\n        /* \"contracts/ccGroth16VerifyBn128.sol\":3108:3112  0xc0 */\n      0xc0\n        /* \"contracts/ccGroth16VerifyBn128.sol\":3100:3106  inputs */\n      dup5\n        /* \"contracts/ccGroth16VerifyBn128.sol\":3096:3113  add(inputs, 0xc0) */\n      add\n        /* \"contracts/ccGroth16VerifyBn128.sol\":3089:3134  mstore(add(inputs, 0xc0), sload(vk_slot_num)) */\n      mstore\n        /* \"contracts/ccGroth16VerifyBn128.sol\":3196:3197  1 */\n      0x01\n        /* \"contracts/ccGroth16VerifyBn128.sol\":3183:3194  vk_slot_num */\n      dup5\n        /* \"contracts/ccGroth16VerifyBn128.sol\":3179:3198  add(vk_slot_num, 1) */\n      add\n        /* \"contracts/ccGroth16VerifyBn128.sol\":3173:3199  sload(add(vk_slot_num, 1)) */\n      sload\n        /* \"contracts/ccGroth16VerifyBn128.sol\":3166:3170  0xe0 */\n      0xe0\n        /* \"contracts/ccGroth16VerifyBn128.sol\":3158:3164  inputs */\n      dup5\n        /* \"contracts/ccGroth16VerifyBn128.sol\":3154:3171  add(inputs, 0xe0) */\n      add\n        /* \"contracts/ccGroth16VerifyBn128.sol\":3147:3200  mstore(add(inputs, 0xe0), sload(add(vk_slot_num, 1))) */\n      mstore\n        /* \"contracts/ccGroth16VerifyBn128.sol\":3263:3264  2 */\n      0x02\n        /* \"contracts/ccGroth16VerifyBn128.sol\":3250:3261  vk_slot_num */\n      dup5\n        /* \"contracts/ccGroth16VerifyBn128.sol\":3246:3265  add(vk_slot_num, 2) */\n      add\n        /* \"contracts/ccGroth16VerifyBn128.sol\":3240:3266  sload(add(vk_slot_num, 2)) */\n      sload\n        /* \"contracts/ccGroth16VerifyBn128.sol\":3232:3237  0x100 */\n      0x0100\n        /* \"contracts/ccGroth16VerifyBn128.sol\":3224:3230  inputs */\n      dup5\n        /* \"contracts/ccGroth16VerifyBn128.sol\":3220:3238  add(inputs, 0x100) */\n      add\n        /* \"contracts/ccGroth16VerifyBn128.sol\":3213:3267  mstore(add(inputs, 0x100), sload(add(vk_slot_num, 2))) */\n      mstore\n        /* \"contracts/ccGroth16VerifyBn128.sol\":3330:3331  3 */\n      0x03\n        /* \"contracts/ccGroth16VerifyBn128.sol\":3317:3328  vk_slot_num */\n      dup5\n        /* \"contracts/ccGroth16VerifyBn128.sol\":3313:3332  add(vk_slot_num, 3) */\n      add\n        /* \"contracts/ccGroth16VerifyBn128.sol\":3307:3333  sload(add(vk_slot_num, 3)) */\n      sload\n        /* \"contracts/ccGroth16VerifyBn128.sol\":3299:3304  0x120 */\n      0x0120\n        /* \"contracts/ccGroth16VerifyBn128.sol\":3291:3297  inputs */\n      dup5\n        /* \"contracts/ccGroth16VerifyBn128.sol\":3287:3305  add(inputs, 0x120) */\n      add\n        /* \"contracts/ccGroth16VerifyBn128.sol\":3280:3334  mstore(add(inputs, 0x120), sload(add(vk_slot_num, 3))) */\n      mstore\n        /* \"contracts/ccGroth16VerifyBn128.sol\":3397:3398  4 */\n      0x04\n        /* \"contracts/ccGroth16VerifyBn128.sol\":3384:3395  vk_slot_num */\n      dup5\n        /* \"contracts/ccGroth16VerifyBn128.sol\":3380:3399  add(vk_slot_num, 4) */\n      add\n        /* \"contracts/ccGroth16VerifyBn128.sol\":3374:3400  sload(add(vk_slot_num, 4)) */\n      sload\n        /* \"contracts/ccGroth16VerifyBn128.sol\":3366:3371  0x140 */\n      0x0140\n        /* \"contracts/ccGroth16VerifyBn128.sol\":3358:3364  inputs */\n      dup5\n        /* \"contracts/ccGroth16VerifyBn128.sol\":3354:3372  add(inputs, 0x140) */\n      add\n        /* \"contracts/ccGroth16VerifyBn128.sol\":3347:3401  mstore(add(inputs, 0x140), sload(add(vk_slot_num, 4))) */\n      mstore\n        /* \"contracts/ccGroth16VerifyBn128.sol\":3464:3465  5 */\n      0x05\n        /* \"contracts/ccGroth16VerifyBn128.sol\":3451:3462  vk_slot_num */\n      dup5\n        /* \"contracts/ccGroth16VerifyBn128.sol\":3447:3466  add(vk_slot_num, 5) */\n      add\n        /* \"contracts/ccGroth16VerifyBn128.sol\":3441:3467  sload(add(vk_slot_num, 5)) */\n      sload\n        /* \"contracts/ccGroth16VerifyBn128.sol\":3433:3438  0x160 */\n      0x0160\n        /* \"contracts/ccGroth16VerifyBn128.sol\":3425:3431  inputs */\n      dup5\n        /* \"contracts/ccGroth16VerifyBn128.sol\":3421:3439  add(inputs, 0x160) */\n      add\n        /* \"contracts/ccGroth16VerifyBn128.sol\":3414:3468  mstore(add(inputs, 0x160), sload(add(vk_slot_num, 5))) */\n      mstore\n        /* \"contracts/ccGroth16VerifyBn128.sol\":3635:3639  0xc0 */\n      0xc0\n        /* \"contracts/ccGroth16VerifyBn128.sol\":3626:3633  proof_i */\n      dup2\n        /* \"contracts/ccGroth16VerifyBn128.sol\":3622:3640  add(proof_i, 0xc0) */\n      add\n        /* \"contracts/ccGroth16VerifyBn128.sol\":3616:3641  mload(add(proof_i, 0xc0)) */\n      mload\n        /* \"contracts/ccGroth16VerifyBn128.sol\":3608:3613  0x180 */\n      0x0180\n        /* \"contracts/ccGroth16VerifyBn128.sol\":3600:3606  inputs */\n      dup5\n        /* \"contracts/ccGroth16VerifyBn128.sol\":3596:3614  add(inputs, 0x180) */\n      add\n        /* \"contracts/ccGroth16VerifyBn128.sol\":3589:3642  mstore(add(inputs, 0x180), mload(add(proof_i, 0xc0))) */\n      mstore\n        /* \"contracts/ccGroth16VerifyBn128.sol\":3701:3705  0xe0 */\n      0xe0\n        /* \"contracts/ccGroth16VerifyBn128.sol\":3692:3699  proof_i */\n      dup2\n        /* \"contracts/ccGroth16VerifyBn128.sol\":3688:3706  add(proof_i, 0xe0) */\n      add\n        /* \"contracts/ccGroth16VerifyBn128.sol\":3682:3707  mload(add(proof_i, 0xe0)) */\n      mload\n        /* \"contracts/ccGroth16VerifyBn128.sol\":3674:3679  0x1a0 */\n      0x01a0\n        /* \"contracts/ccGroth16VerifyBn128.sol\":3666:3672  inputs */\n      dup5\n        /* \"contracts/ccGroth16VerifyBn128.sol\":3662:3680  add(inputs, 0x1a0) */\n      add\n        /* \"contracts/ccGroth16VerifyBn128.sol\":3655:3708  mstore(add(inputs, 0x1a0), mload(add(proof_i, 0xe0))) */\n      mstore\n        /* \"contracts/ccGroth16VerifyBn128.sol\":3771:3772  6 */\n      0x06\n        /* \"contracts/ccGroth16VerifyBn128.sol\":3758:3769  vk_slot_num */\n      dup5\n        /* \"contracts/ccGroth16VerifyBn128.sol\":3754:3773  add(vk_slot_num, 6) */\n      add\n        /* \"contracts/ccGroth16VerifyBn128.sol\":3748:3774  sload(add(vk_slot_num, 6)) */\n      sload\n        /* \"contracts/ccGroth16VerifyBn128.sol\":3740:3745  0x1c0 */\n      0x01c0\n        /* \"contracts/ccGroth16VerifyBn128.sol\":3732:3738  inputs */\n      dup5\n        /* \"contracts/ccGroth16VerifyBn128.sol\":3728:3746  add(inputs, 0x1c0) */\n      add\n        /* \"contracts/ccGroth16VerifyBn128.sol\":3721:3775  mstore(add(inputs, 0x1c0), sload(add(vk_slot_num, 6))) */\n      mstore\n        /* \"contracts/ccGroth16VerifyBn128.sol\":3838:3839  7 */\n      0x07\n        /* \"contracts/ccGroth16VerifyBn128.sol\":3825:3836  vk_slot_num */\n      dup5\n        /* \"contracts/ccGroth16VerifyBn128.sol\":3821:3840  add(vk_slot_num, 7) */\n      add\n        /* \"contracts/ccGroth16VerifyBn128.sol\":3815:3841  sload(add(vk_slot_num, 7)) */\n      sload\n        /* \"contracts/ccGroth16VerifyBn128.sol\":3807:3812  0x1e0 */\n      0x01e0\n        /* \"contracts/ccGroth16VerifyBn128.sol\":3799:3805  inputs */\n      dup5\n        /* \"contracts/ccGroth16VerifyBn128.sol\":3795:3813  add(inputs, 0x1e0) */\n      add\n        /* \"contracts/ccGroth16VerifyBn128.sol\":3788:3842  mstore(add(inputs, 0x1e0), sload(add(vk_slot_num, 7))) */\n      mstore\n        /* \"contracts/ccGroth16VerifyBn128.sol\":3905:3906  8 */\n      0x08\n        /* \"contracts/ccGroth16VerifyBn128.sol\":3892:3903  vk_slot_num */\n      dup5\n        /* \"contracts/ccGroth16VerifyBn128.sol\":3888:3907  add(vk_slot_num, 8) */\n      add\n        /* \"contracts/ccGroth16VerifyBn128.sol\":3882:3908  sload(add(vk_slot_num, 8)) */\n      sload\n        /* \"contracts/ccGroth16VerifyBn128.sol\":3874:3879  0x200 */\n      0x0200\n        /* \"contracts/ccGroth16VerifyBn128.sol\":3866:3872  inputs */\n      dup5\n        /* \"contracts/ccGroth16VerifyBn128.sol\":3862:3880  add(inputs, 0x200) */\n      add\n        /* \"contracts/ccGroth16VerifyBn128.sol\":3855:3909  mstore(add(inputs, 0x200), sload(add(vk_slot_num, 8))) */\n      mstore\n        /* \"contracts/ccGroth16VerifyBn128.sol\":3972:3973  9 */\n      0x09\n        /* \"contracts/ccGroth16VerifyBn128.sol\":3959:3970  vk_slot_num */\n      dup5\n        /* \"contracts/ccGroth16VerifyBn128.sol\":3955:3974  add(vk_slot_num, 9) */\n      add\n        /* \"contracts/ccGroth16VerifyBn128.sol\":3949:3975  sload(add(vk_slot_num, 9)) */\n      sload\n        /* \"contracts/ccGroth16VerifyBn128.sol\":3941:3946  0x220 */\n      0x0220\n        /* \"contracts/ccGroth16VerifyBn128.sol\":3933:3939  inputs */\n      dup5\n        /* \"contracts/ccGroth16VerifyBn128.sol\":3929:3947  add(inputs, 0x220) */\n      add\n        /* \"contracts/ccGroth16VerifyBn128.sol\":3922:3976  mstore(add(inputs, 0x220), sload(add(vk_slot_num, 9))) */\n      mstore\n        /* \"contracts/ccGroth16VerifyBn128.sol\":4094:4096  12 */\n      0x0c\n        /* \"contracts/ccGroth16VerifyBn128.sol\":4081:4092  vk_slot_num */\n      dup5\n        /* \"contracts/ccGroth16VerifyBn128.sol\":4077:4097  add(vk_slot_num, 12) */\n      add\n        /* \"contracts/ccGroth16VerifyBn128.sol\":4071:4098  sload(add(vk_slot_num, 12)) */\n      sload\n        /* \"contracts/ccGroth16VerifyBn128.sol\":4063:4068  0x280 */\n      0x0280\n        /* \"contracts/ccGroth16VerifyBn128.sol\":4055:4061  inputs */\n      dup5\n        /* \"contracts/ccGroth16VerifyBn128.sol\":4051:4069  add(inputs, 0x280) */\n      add\n        /* \"contracts/ccGroth16VerifyBn128.sol\":4044:4099  mstore(add(inputs, 0x280), sload(add(vk_slot_num, 12))) */\n      mstore\n        /* \"contracts/ccGroth16VerifyBn128.sol\":4162:4164  13 */\n      0x0d\n        /* \"contracts/ccGroth16VerifyBn128.sol\":4149:4160  vk_slot_num */\n      dup5\n        /* \"contracts/ccGroth16VerifyBn128.sol\":4145:4165  add(vk_slot_num, 13) */\n      add\n        /* \"contracts/ccGroth16VerifyBn128.sol\":4139:4166  sload(add(vk_slot_num, 13)) */\n      sload\n        /* \"contracts/ccGroth16VerifyBn128.sol\":4131:4136  0x2a0 */\n      0x02a0\n        /* \"contracts/ccGroth16VerifyBn128.sol\":4123:4129  inputs */\n      dup5\n        /* \"contracts/ccGroth16VerifyBn128.sol\":4119:4137  add(inputs, 0x2a0) */\n      add\n        /* \"contracts/ccGroth16VerifyBn128.sol\":4112:4167  mstore(add(inputs, 0x2a0), sload(add(vk_slot_num, 13))) */\n      mstore\n        /* \"contracts/ccGroth16VerifyBn128.sol\":4230:4232  14 */\n      0x0e\n        /* \"contracts/ccGroth16VerifyBn128.sol\":4217:4228  vk_slot_num */\n      dup5\n        /* \"contracts/ccGroth16VerifyBn128.sol\":4213:4233  add(vk_slot_num, 14) */\n      add\n        /* \"contracts/ccGroth16VerifyBn128.sol\":4207:4234  sload(add(vk_slot_num, 14)) */\n      sload\n        /* \"contracts/ccGroth16VerifyBn128.sol\":4199:4204  0x2c0 */\n      0x02c0\n        /* \"contracts/ccGroth16VerifyBn128.sol\":4191:4197  inputs */\n      dup5\n        /* \"contracts/ccGroth16VerifyBn128.sol\":4187:4205  add(inputs, 0x2c0) */\n      add\n        /* \"contracts/ccGroth16VerifyBn128.sol\":4180:4235  mstore(add(inputs, 0x2c0), sload(add(vk_slot_num, 14))) */\n      mstore\n        /* \"contracts/ccGroth16VerifyBn128.sol\":4298:4300  15 */\n      0x0f\n        /* \"contracts/ccGroth16VerifyBn128.sol\":4285:4296  vk_slot_num */\n      dup5\n        /* \"contracts/ccGroth16VerifyBn128.sol\":4281:4301  add(vk_slot_num, 15) */\n      add\n        /* \"contracts/ccGroth16VerifyBn128.sol\":4275:4302  sload(add(vk_slot_num, 15)) */\n      sload\n        /* \"contracts/ccGroth16VerifyBn128.sol\":4267:4272  0x2e0 */\n      0x02e0\n        /* \"contracts/ccGroth16VerifyBn128.sol\":4259:4265  inputs */\n      dup5\n        /* \"contracts/ccGroth16VerifyBn128.sol\":4255:4273  add(inputs, 0x2e0) */\n      add\n        /* \"contracts/ccGroth16VerifyBn128.sol\":4248:4303  mstore(add(inputs, 0x2e0), sload(add(vk_slot_num, 15))) */\n      mstore\n        /* \"contracts/ccGroth16VerifyBn128.sol\":4422:4426  0x20 */\n      0x20\n        /* \"contracts/ccGroth16VerifyBn128.sol\":4414:4420  inputs */\n      dup4\n        /* \"contracts/ccGroth16VerifyBn128.sol\":4407:4412  0x300 */\n      0x0300\n        /* \"contracts/ccGroth16VerifyBn128.sol\":4399:4405  inputs */\n      dup6\n        /* \"contracts/ccGroth16VerifyBn128.sol\":4396:4397  0 */\n      0x00\n        /* \"contracts/ccGroth16VerifyBn128.sol\":4393:4394  8 */\n      0x08\n        /* \"contracts/ccGroth16VerifyBn128.sol\":4386:4390  2000 */\n      0x07d0\n        /* \"contracts/ccGroth16VerifyBn128.sol\":4379:4384  gas() */\n      gas\n        /* \"contracts/ccGroth16VerifyBn128.sol\":4375:4391  sub(gas(), 2000) */\n      sub\n        /* \"contracts/ccGroth16VerifyBn128.sol\":4370:4427  call(sub(gas(), 2000), 8, 0, inputs, 0x300, inputs, 0x20) */\n      call\n        /* \"contracts/ccGroth16VerifyBn128.sol\":4361:4368  success */\n      dup3\n        /* \"contracts/ccGroth16VerifyBn128.sol\":4357:4428  and(success, call(sub(gas(), 2000), 8, 0, inputs, 0x300, inputs, 0x20)) */\n      and\n        /* \"contracts/ccGroth16VerifyBn128.sol\":4346:4428  success := and(success, call(sub(gas(), 2000), 8, 0, inputs, 0x300, inputs, 0x20)) */\n      swap2\n      pop\n        /* \"contracts/ccGroth16VerifyBn128.sol\":2466:4438  {... */\n      pop\n        /* \"contracts/ccGroth16VerifyBn128.sol\":4455:4462  success */\n      dup1\n        /* \"contracts/ccGroth16VerifyBn128.sol\":4447:4484  require(success, \"bn256Pairing fail\") */\n      tag_152\n      jumpi\n      mload(0x40)\n      0x08c379a000000000000000000000000000000000000000000000000000000000\n      dup2\n      mstore\n      0x04\n      add\n      tag_153\n      swap1\n      tag_154\n      jump\t// in\n    tag_153:\n      mload(0x40)\n      dup1\n      swap2\n      sub\n      swap1\n      revert\n    tag_152:\n        /* \"contracts/ccGroth16VerifyBn128.sol\":4514:4515  1 */\n      0x01\n        /* \"contracts/ccGroth16VerifyBn128.sol\":4501:4507  inputs */\n      dup3\n        /* \"contracts/ccGroth16VerifyBn128.sol\":4508:4509  0 */\n      0x00\n        /* \"contracts/ccGroth16VerifyBn128.sol\":4501:4510  inputs[0] */\n      0x18\n      dup2\n      lt\n      tag_155\n      jumpi\n      tag_156\n      tag_90\n      jump\t// in\n    tag_156:\n    tag_155:\n      0x20\n      mul\n      add\n      mload\n        /* \"contracts/ccGroth16VerifyBn128.sol\":4501:4515  inputs[0] == 1 */\n      eq\n        /* \"contracts/ccGroth16VerifyBn128.sol\":4494:4515  return inputs[0] == 1 */\n      swap4\n      pop\n      pop\n      pop\n      pop\n        /* \"contracts/ccGroth16VerifyBn128.sol\":912:4522  function _verify(... */\n      swap3\n      swap2\n      pop\n      pop\n      jump\t// out\n        /* \"contracts/PairingBn128.sol\":1627:2007  function negate(G1Point memory p) internal pure returns (G1Point memory) {... */\n    tag_92:\n        /* \"contracts/PairingBn128.sol\":1684:1698  G1Point memory */\n      tag_157\n      tag_57\n      jump\t// in\n    tag_157:\n        /* \"contracts/PairingBn128.sol\":1799:1808  uint256 q */\n      0x00\n        /* \"contracts/PairingBn128.sol\":1811:1888  21888242871839275222246405745257275088696311157297823662689037894645226208583 */\n      0x30644e72e131a029b85045b68181585d97816a916871ca8d3c208c16d87cfd47\n        /* \"contracts/PairingBn128.sol\":1799:1888  uint256 q = 21888242871839275222246405745257275088696311157297823662689037894645226208583 */\n      swap1\n      pop\n        /* \"contracts/PairingBn128.sol\":1909:1910  0 */\n      0x00\n        /* \"contracts/PairingBn128.sol\":1902:1903  p */\n      dup4\n        /* \"contracts/PairingBn128.sol\":1902:1905  p.X */\n      0x00\n      add\n      mload\n        /* \"contracts/PairingBn128.sol\":1902:1910  p.X == 0 */\n      eq\n        /* \"contracts/PairingBn128.sol\":1902:1922  p.X == 0 && p.Y == 0 */\n      dup1\n      iszero\n      tag_159\n      jumpi\n      pop\n        /* \"contracts/PairingBn128.sol\":1921:1922  0 */\n      0x00\n        /* \"contracts/PairingBn128.sol\":1914:1915  p */\n      dup4\n        /* \"contracts/PairingBn128.sol\":1914:1917  p.Y */\n      0x20\n      add\n      mload\n        /* \"contracts/PairingBn128.sol\":1914:1922  p.Y == 0 */\n      eq\n        /* \"contracts/PairingBn128.sol\":1902:1922  p.X == 0 && p.Y == 0 */\n    tag_159:\n        /* \"contracts/PairingBn128.sol\":1898:1956  if (p.X == 0 && p.Y == 0)... */\n      iszero\n      tag_160\n      jumpi\n        /* \"contracts/PairingBn128.sol\":1943:1956  G1Point(0, 0) */\n      mload(0x40)\n      dup1\n      0x40\n      add\n      0x40\n      mstore\n      dup1\n        /* \"contracts/PairingBn128.sol\":1951:1952  0 */\n      0x00\n        /* \"contracts/PairingBn128.sol\":1943:1956  G1Point(0, 0) */\n      dup2\n      mstore\n      0x20\n      add\n        /* \"contracts/PairingBn128.sol\":1954:1955  0 */\n      0x00\n        /* \"contracts/PairingBn128.sol\":1943:1956  G1Point(0, 0) */\n      dup2\n      mstore\n      pop\n        /* \"contracts/PairingBn128.sol\":1936:1956  return G1Point(0, 0) */\n      swap2\n      pop\n      pop\n      jump(tag_158)\n        /* \"contracts/PairingBn128.sol\":1898:1956  if (p.X == 0 && p.Y == 0)... */\n    tag_160:\n        /* \"contracts/PairingBn128.sol\":1973:2000  G1Point(p.X, q - (p.Y % q)) */\n      mload(0x40)\n      dup1\n      0x40\n      add\n      0x40\n      mstore\n      dup1\n        /* \"contracts/PairingBn128.sol\":1981:1982  p */\n      dup5\n        /* \"contracts/PairingBn128.sol\":1981:1984  p.X */\n      0x00\n      add\n      mload\n        /* \"contracts/PairingBn128.sol\":1973:2000  G1Point(p.X, q - (p.Y % q)) */\n      dup2\n      mstore\n      0x20\n      add\n        /* \"contracts/PairingBn128.sol\":1997:1998  q */\n      dup3\n        /* \"contracts/PairingBn128.sol\":1991:1992  p */\n      dup6\n        /* \"contracts/PairingBn128.sol\":1991:1994  p.Y */\n      0x20\n      add\n      mload\n        /* \"contracts/PairingBn128.sol\":1991:1998  p.Y % q */\n      tag_161\n      swap2\n      swap1\n      tag_162\n      jump\t// in\n    tag_161:\n        /* \"contracts/PairingBn128.sol\":1986:1987  q */\n      dup4\n        /* \"contracts/PairingBn128.sol\":1986:1999  q - (p.Y % q) */\n      tag_163\n      swap2\n      swap1\n      tag_164\n      jump\t// in\n    tag_163:\n        /* \"contracts/PairingBn128.sol\":1973:2000  G1Point(p.X, q - (p.Y % q)) */\n      dup2\n      mstore\n      pop\n        /* \"contracts/PairingBn128.sol\":1966:2000  return G1Point(p.X, q - (p.Y % q)) */\n      swap2\n      pop\n      pop\n        /* \"contracts/PairingBn128.sol\":1627:2007  function negate(G1Point memory p) internal pure returns (G1Point memory) {... */\n    tag_158:\n      swap2\n      swap1\n      pop\n      jump\t// out\n        /* \"contracts/PairingBn128.sol\":2055:2737  function add(G1Point memory p1, G1Point memory p2)... */\n    tag_93:\n        /* \"contracts/PairingBn128.sol\":2140:2156  G1Point memory r */\n      tag_165\n      tag_57\n      jump\t// in\n    tag_165:\n        /* \"contracts/PairingBn128.sol\":2172:2195  uint256[4] memory input */\n      tag_167\n      tag_168\n      jump\t// in\n    tag_167:\n        /* \"contracts/PairingBn128.sol\":2216:2218  p1 */\n      dup4\n        /* \"contracts/PairingBn128.sol\":2216:2220  p1.X */\n      0x00\n      add\n      mload\n        /* \"contracts/PairingBn128.sol\":2205:2210  input */\n      dup2\n        /* \"contracts/PairingBn128.sol\":2211:2212  0 */\n      0x00\n        /* \"contracts/PairingBn128.sol\":2205:2213  input[0] */\n      0x04\n      dup2\n      lt\n      tag_169\n      jumpi\n      tag_170\n      tag_90\n      jump\t// in\n    tag_170:\n    tag_169:\n      0x20\n      mul\n      add\n        /* \"contracts/PairingBn128.sol\":2205:2220  input[0] = p1.X */\n      dup2\n      dup2\n      mstore\n      pop\n      pop\n        /* \"contracts/PairingBn128.sol\":2241:2243  p1 */\n      dup4\n        /* \"contracts/PairingBn128.sol\":2241:2245  p1.Y */\n      0x20\n      add\n      mload\n        /* \"contracts/PairingBn128.sol\":2230:2235  input */\n      dup2\n        /* \"contracts/PairingBn128.sol\":2236:2237  1 */\n      0x01\n        /* \"contracts/PairingBn128.sol\":2230:2238  input[1] */\n      0x04\n      dup2\n      lt\n      tag_171\n      jumpi\n      tag_172\n      tag_90\n      jump\t// in\n    tag_172:\n    tag_171:\n      0x20\n      mul\n      add\n        /* \"contracts/PairingBn128.sol\":2230:2245  input[1] = p1.Y */\n      dup2\n      dup2\n      mstore\n      pop\n      pop\n        /* \"contracts/PairingBn128.sol\":2266:2268  p2 */\n      dup3\n        /* \"contracts/PairingBn128.sol\":2266:2270  p2.X */\n      0x00\n      add\n      mload\n        /* \"contracts/PairingBn128.sol\":2255:2260  input */\n      dup2\n        /* \"contracts/PairingBn128.sol\":2261:2262  2 */\n      0x02\n        /* \"contracts/PairingBn128.sol\":2255:2263  input[2] */\n      0x04\n      dup2\n      lt\n      tag_173\n      jumpi\n      tag_174\n      tag_90\n      jump\t// in\n    tag_174:\n    tag_173:\n      0x20\n      mul\n      add\n        /* \"contracts/PairingBn128.sol\":2255:2270  input[2] = p2.X */\n      dup2\n      dup2\n      mstore\n      pop\n      pop\n        /* \"contracts/PairingBn128.sol\":2291:2293  p2 */\n      dup3\n        /* \"contracts/PairingBn128.sol\":2291:2295  p2.Y */\n      0x20\n      add\n      mload\n        /* \"contracts/PairingBn128.sol\":2280:2285  input */\n      dup2\n        /* \"contracts/PairingBn128.sol\":2286:2287  3 */\n      0x03\n        /* \"contracts/PairingBn128.sol\":2280:2288  input[3] */\n      0x04\n      dup2\n      lt\n      tag_175\n      jumpi\n      tag_176\n      tag_90\n      jump\t// in\n    tag_176:\n    tag_175:\n      0x20\n      mul\n      add\n        /* \"contracts/PairingBn128.sol\":2280:2295  input[3] = p2.Y */\n      dup2\n      dup2\n      mstore\n      pop\n      pop\n        /* \"contracts/PairingBn128.sol\":2305:2317  bool success */\n      0x00\n        /* \"contracts/PairingBn128.sol\":2461:2465  0x40 */\n      0x40\n        /* \"contracts/PairingBn128.sol\":2458:2459  r */\n      dup4\n        /* \"contracts/PairingBn128.sol\":2452:2456  0x80 */\n      0x80\n        /* \"contracts/PairingBn128.sol\":2445:2450  input */\n      dup5\n        /* \"contracts/PairingBn128.sol\":2442:2443  0 */\n      0x00\n        /* \"contracts/PairingBn128.sol\":2439:2440  6 */\n      0x06\n        /* \"contracts/PairingBn128.sol\":2432:2436  2000 */\n      0x07d0\n        /* \"contracts/PairingBn128.sol\":2425:2430  gas() */\n      gas\n        /* \"contracts/PairingBn128.sol\":2421:2437  sub(gas(), 2000) */\n      sub\n        /* \"contracts/PairingBn128.sol\":2416:2466  call(sub(gas(), 2000), 6, 0, input, 0x80, r, 0x40) */\n      call\n        /* \"contracts/PairingBn128.sol\":2405:2466  success := call(sub(gas(), 2000), 6, 0, input, 0x80, r, 0x40) */\n      swap1\n      pop\n        /* \"contracts/PairingBn128.sol\":2611:2618  success */\n      dup1\n        /* \"contracts/PairingBn128.sol\":2590:2730  require(... */\n      tag_177\n      jumpi\n      mload(0x40)\n      0x08c379a000000000000000000000000000000000000000000000000000000000\n      dup2\n      mstore\n      0x04\n      add\n      tag_178\n      swap1\n      tag_179\n      jump\t// in\n    tag_178:\n      mload(0x40)\n      dup1\n      swap2\n      sub\n      swap1\n      revert\n    tag_177:\n        /* \"contracts/PairingBn128.sol\":2162:2737  {... */\n      pop\n      pop\n        /* \"contracts/PairingBn128.sol\":2055:2737  function add(G1Point memory p1, G1Point memory p2)... */\n      swap3\n      swap2\n      pop\n      pop\n      jump\t// out\n        /* \"@openzeppelin/contracts/utils/Context.sol\":640:736  function _msgSender() internal view virtual returns (address) {... */\n    tag_134:\n        /* \"@openzeppelin/contracts/utils/Context.sol\":693:700  address */\n      0x00\n        /* \"@openzeppelin/contracts/utils/Context.sol\":719:729  msg.sender */\n      caller\n        /* \"@openzeppelin/contracts/utils/Context.sol\":712:729  return msg.sender */\n      swap1\n      pop\n        /* \"@openzeppelin/contracts/utils/Context.sol\":640:736  function _msgSender() internal view virtual returns (address) {... */\n      swap1\n      jump\t// out\n    tag_57:\n      mload(0x40)\n      dup1\n      0x40\n      add\n      0x40\n      mstore\n      dup1\n      0x00\n      dup2\n      mstore\n      0x20\n      add\n      0x00\n      dup2\n      mstore\n      pop\n      swap1\n      jump\t// out\n    tag_148:\n      mload(0x40)\n      dup1\n      0x0300\n      add\n      0x40\n      mstore\n      dup1\n      0x18\n      swap1\n      0x20\n      dup3\n      mul\n      dup1\n      calldatasize\n      dup4\n      calldatacopy\n      dup1\n      dup3\n      add\n      swap2\n      pop\n      pop\n      swap1\n      pop\n      pop\n      swap1\n      jump\t// out\n    tag_168:\n      mload(0x40)\n      dup1\n      0x80\n      add\n      0x40\n      mstore\n      dup1\n      0x04\n      swap1\n      0x20\n      dup3\n      mul\n      dup1\n      calldatasize\n      dup4\n      calldatacopy\n      dup1\n      dup3\n      add\n      swap2\n      pop\n      pop\n      swap1\n      pop\n      pop\n      swap1\n      jump\t// out\n        /* \"#utility.yul\":24:746   */\n    tag_182:\n        /* \"#utility.yul\":120:125   */\n      0x00\n        /* \"#utility.yul\":145:226   */\n      tag_184\n        /* \"#utility.yul\":161:225   */\n      tag_185\n        /* \"#utility.yul\":218:224   */\n      dup5\n        /* \"#utility.yul\":161:225   */\n      tag_186\n      jump\t// in\n    tag_185:\n        /* \"#utility.yul\":145:226   */\n      tag_187\n      jump\t// in\n    tag_184:\n        /* \"#utility.yul\":136:226   */\n      swap1\n      pop\n        /* \"#utility.yul\":246:251   */\n      dup1\n        /* \"#utility.yul\":275:281   */\n      dup4\n        /* \"#utility.yul\":268:273   */\n      dup3\n        /* \"#utility.yul\":261:282   */\n      mstore\n        /* \"#utility.yul\":309:313   */\n      0x20\n        /* \"#utility.yul\":302:307   */\n      dup3\n        /* \"#utility.yul\":298:314   */\n      add\n        /* \"#utility.yul\":291:314   */\n      swap1\n      pop\n        /* \"#utility.yul\":335:341   */\n      dup3\n        /* \"#utility.yul\":385:388   */\n      dup6\n        /* \"#utility.yul\":377:381   */\n      0x20\n        /* \"#utility.yul\":369:375   */\n      dup7\n        /* \"#utility.yul\":365:382   */\n      mul\n        /* \"#utility.yul\":360:363   */\n      dup3\n        /* \"#utility.yul\":356:383   */\n      add\n        /* \"#utility.yul\":353:389   */\n      gt\n        /* \"#utility.yul\":350:493   */\n      iszero\n      tag_188\n      jumpi\n        /* \"#utility.yul\":404:483   */\n      tag_189\n      tag_190\n      jump\t// in\n    tag_189:\n        /* \"#utility.yul\":350:493   */\n    tag_188:\n        /* \"#utility.yul\":517:518   */\n      0x00\n        /* \"#utility.yul\":502:740   */\n    tag_191:\n        /* \"#utility.yul\":527:533   */\n      dup6\n        /* \"#utility.yul\":524:525   */\n      dup2\n        /* \"#utility.yul\":521:534   */\n      lt\n        /* \"#utility.yul\":502:740   */\n      iszero\n      tag_193\n      jumpi\n        /* \"#utility.yul\":595:598   */\n      dup2\n        /* \"#utility.yul\":624:661   */\n      tag_194\n        /* \"#utility.yul\":657:660   */\n      dup9\n        /* \"#utility.yul\":645:655   */\n      dup3\n        /* \"#utility.yul\":624:661   */\n      tag_195\n      jump\t// in\n    tag_194:\n        /* \"#utility.yul\":619:622   */\n      dup5\n        /* \"#utility.yul\":612:662   */\n      mstore\n        /* \"#utility.yul\":691:695   */\n      0x20\n        /* \"#utility.yul\":686:689   */\n      dup5\n        /* \"#utility.yul\":682:696   */\n      add\n        /* \"#utility.yul\":675:696   */\n      swap4\n      pop\n        /* \"#utility.yul\":725:729   */\n      0x20\n        /* \"#utility.yul\":720:723   */\n      dup4\n        /* \"#utility.yul\":716:730   */\n      add\n        /* \"#utility.yul\":709:730   */\n      swap3\n      pop\n        /* \"#utility.yul\":562:740   */\n      pop\n        /* \"#utility.yul\":549:550   */\n      0x01\n        /* \"#utility.yul\":546:547   */\n      dup2\n        /* \"#utility.yul\":542:551   */\n      add\n        /* \"#utility.yul\":537:551   */\n      swap1\n      pop\n        /* \"#utility.yul\":502:740   */\n      jump(tag_191)\n    tag_193:\n        /* \"#utility.yul\":506:520   */\n      pop\n        /* \"#utility.yul\":126:746   */\n      pop\n      pop\n        /* \"#utility.yul\":24:746   */\n      swap4\n      swap3\n      pop\n      pop\n      pop\n      jump\t// out\n        /* \"#utility.yul\":752:891   */\n    tag_196:\n        /* \"#utility.yul\":798:803   */\n      0x00\n        /* \"#utility.yul\":836:842   */\n      dup2\n        /* \"#utility.yul\":823:843   */\n      calldataload\n        /* \"#utility.yul\":814:843   */\n      swap1\n      pop\n        /* \"#utility.yul\":852:885   */\n      tag_198\n        /* \"#utility.yul\":879:884   */\n      dup2\n        /* \"#utility.yul\":852:885   */\n      tag_199\n      jump\t// in\n    tag_198:\n        /* \"#utility.yul\":752:891   */\n      swap3\n      swap2\n      pop\n      pop\n      jump\t// out\n        /* \"#utility.yul\":914:1284   */\n    tag_200:\n        /* \"#utility.yul\":985:990   */\n      0x00\n        /* \"#utility.yul\":1034:1037   */\n      dup3\n        /* \"#utility.yul\":1027:1031   */\n      0x1f\n        /* \"#utility.yul\":1019:1025   */\n      dup4\n        /* \"#utility.yul\":1015:1032   */\n      add\n        /* \"#utility.yul\":1011:1038   */\n      slt\n        /* \"#utility.yul\":1001:1123   */\n      tag_202\n      jumpi\n        /* \"#utility.yul\":1042:1121   */\n      tag_203\n      tag_204\n      jump\t// in\n    tag_203:\n        /* \"#utility.yul\":1001:1123   */\n    tag_202:\n        /* \"#utility.yul\":1159:1165   */\n      dup2\n        /* \"#utility.yul\":1146:1166   */\n      calldataload\n        /* \"#utility.yul\":1184:1278   */\n      tag_205\n        /* \"#utility.yul\":1274:1277   */\n      dup5\n        /* \"#utility.yul\":1266:1272   */\n      dup3\n        /* \"#utility.yul\":1259:1263   */\n      0x20\n        /* \"#utility.yul\":1251:1257   */\n      dup7\n        /* \"#utility.yul\":1247:1264   */\n      add\n        /* \"#utility.yul\":1184:1278   */\n      tag_182\n      jump\t// in\n    tag_205:\n        /* \"#utility.yul\":1175:1278   */\n      swap2\n      pop\n        /* \"#utility.yul\":991:1284   */\n      pop\n        /* \"#utility.yul\":914:1284   */\n      swap3\n      swap2\n      pop\n      pop\n      jump\t// out\n        /* \"#utility.yul\":1290:1429   */\n    tag_195:\n        /* \"#utility.yul\":1336:1341   */\n      0x00\n        /* \"#utility.yul\":1374:1380   */\n      dup2\n        /* \"#utility.yul\":1361:1381   */\n      calldataload\n        /* \"#utility.yul\":1352:1381   */\n      swap1\n      pop\n        /* \"#utility.yul\":1390:1423   */\n      tag_207\n        /* \"#utility.yul\":1417:1422   */\n      dup2\n        /* \"#utility.yul\":1390:1423   */\n      tag_208\n      jump\t// in\n    tag_207:\n        /* \"#utility.yul\":1290:1429   */\n      swap3\n      swap2\n      pop\n      pop\n      jump\t// out\n        /* \"#utility.yul\":1435:1764   */\n    tag_49:\n        /* \"#utility.yul\":1494:1500   */\n      0x00\n        /* \"#utility.yul\":1543:1545   */\n      0x20\n        /* \"#utility.yul\":1531:1540   */\n      dup3\n        /* \"#utility.yul\":1522:1529   */\n      dup5\n        /* \"#utility.yul\":1518:1541   */\n      sub\n        /* \"#utility.yul\":1514:1546   */\n      slt\n        /* \"#utility.yul\":1511:1630   */\n      iszero\n      tag_210\n      jumpi\n        /* \"#utility.yul\":1549:1628   */\n      tag_211\n      tag_212\n      jump\t// in\n    tag_211:\n        /* \"#utility.yul\":1511:1630   */\n    tag_210:\n        /* \"#utility.yul\":1669:1670   */\n      0x00\n        /* \"#utility.yul\":1694:1747   */\n      tag_213\n        /* \"#utility.yul\":1739:1746   */\n      dup5\n        /* \"#utility.yul\":1730:1736   */\n      dup3\n        /* \"#utility.yul\":1719:1728   */\n      dup6\n        /* \"#utility.yul\":1715:1737   */\n      add\n        /* \"#utility.yul\":1694:1747   */\n      tag_196\n      jump\t// in\n    tag_213:\n        /* \"#utility.yul\":1684:1747   */\n      swap2\n      pop\n        /* \"#utility.yul\":1640:1757   */\n      pop\n        /* \"#utility.yul\":1435:1764   */\n      swap3\n      swap2\n      pop\n      pop\n      jump\t// out\n        /* \"#utility.yul\":1770:2309   */\n    tag_53:\n        /* \"#utility.yul\":1854:1860   */\n      0x00\n        /* \"#utility.yul\":1903:1905   */\n      0x20\n        /* \"#utility.yul\":1891:1900   */\n      dup3\n        /* \"#utility.yul\":1882:1889   */\n      dup5\n        /* \"#utility.yul\":1878:1901   */\n      sub\n        /* \"#utility.yul\":1874:1906   */\n      slt\n        /* \"#utility.yul\":1871:1990   */\n      iszero\n      tag_215\n      jumpi\n        /* \"#utility.yul\":1909:1988   */\n      tag_216\n      tag_212\n      jump\t// in\n    tag_216:\n        /* \"#utility.yul\":1871:1990   */\n    tag_215:\n        /* \"#utility.yul\":2057:2058   */\n      0x00\n        /* \"#utility.yul\":2046:2055   */\n      dup3\n        /* \"#utility.yul\":2042:2059   */\n      add\n        /* \"#utility.yul\":2029:2060   */\n      calldataload\n        /* \"#utility.yul\":2087:2105   */\n      0xffffffffffffffff\n        /* \"#utility.yul\":2079:2085   */\n      dup2\n        /* \"#utility.yul\":2076:2106   */\n      gt\n        /* \"#utility.yul\":2073:2190   */\n      iszero\n      tag_217\n      jumpi\n        /* \"#utility.yul\":2109:2188   */\n      tag_218\n      tag_219\n      jump\t// in\n    tag_218:\n        /* \"#utility.yul\":2073:2190   */\n    tag_217:\n        /* \"#utility.yul\":2214:2292   */\n      tag_220\n        /* \"#utility.yul\":2284:2291   */\n      dup5\n        /* \"#utility.yul\":2275:2281   */\n      dup3\n        /* \"#utility.yul\":2264:2273   */\n      dup6\n        /* \"#utility.yul\":2260:2282   */\n      add\n        /* \"#utility.yul\":2214:2292   */\n      tag_200\n      jump\t// in\n    tag_220:\n        /* \"#utility.yul\":2204:2292   */\n      swap2\n      pop\n        /* \"#utility.yul\":2000:2302   */\n      pop\n        /* \"#utility.yul\":1770:2309   */\n      swap3\n      swap2\n      pop\n      pop\n      jump\t// out\n        /* \"#utility.yul\":2315:2999   */\n    tag_42:\n        /* \"#utility.yul\":2408:2414   */\n      0x00\n        /* \"#utility.yul\":2416:2422   */\n      dup1\n        /* \"#utility.yul\":2465:2467   */\n      0x40\n        /* \"#utility.yul\":2453:2462   */\n      dup4\n        /* \"#utility.yul\":2444:2451   */\n      dup6\n        /* \"#utility.yul\":2440:2463   */\n      sub\n        /* \"#utility.yul\":2436:2468   */\n      slt\n        /* \"#utility.yul\":2433:2552   */\n      iszero\n      tag_222\n      jumpi\n        /* \"#utility.yul\":2471:2550   */\n      tag_223\n      tag_212\n      jump\t// in\n    tag_223:\n        /* \"#utility.yul\":2433:2552   */\n    tag_222:\n        /* \"#utility.yul\":2591:2592   */\n      0x00\n        /* \"#utility.yul\":2616:2669   */\n      tag_224\n        /* \"#utility.yul\":2661:2668   */\n      dup6\n        /* \"#utility.yul\":2652:2658   */\n      dup3\n        /* \"#utility.yul\":2641:2650   */\n      dup7\n        /* \"#utility.yul\":2637:2659   */\n      add\n        /* \"#utility.yul\":2616:2669   */\n      tag_195\n      jump\t// in\n    tag_224:\n        /* \"#utility.yul\":2606:2669   */\n      swap3\n      pop\n        /* \"#utility.yul\":2562:2679   */\n      pop\n        /* \"#utility.yul\":2746:2748   */\n      0x20\n        /* \"#utility.yul\":2735:2744   */\n      dup4\n        /* \"#utility.yul\":2731:2749   */\n      add\n        /* \"#utility.yul\":2718:2750   */\n      calldataload\n        /* \"#utility.yul\":2777:2795   */\n      0xffffffffffffffff\n        /* \"#utility.yul\":2769:2775   */\n      dup2\n        /* \"#utility.yul\":2766:2796   */\n      gt\n        /* \"#utility.yul\":2763:2880   */\n      iszero\n      tag_225\n      jumpi\n        /* \"#utility.yul\":2799:2878   */\n      tag_226\n      tag_219\n      jump\t// in\n    tag_226:\n        /* \"#utility.yul\":2763:2880   */\n    tag_225:\n        /* \"#utility.yul\":2904:2982   */\n      tag_227\n        /* \"#utility.yul\":2974:2981   */\n      dup6\n        /* \"#utility.yul\":2965:2971   */\n      dup3\n        /* \"#utility.yul\":2954:2963   */\n      dup7\n        /* \"#utility.yul\":2950:2972   */\n      add\n        /* \"#utility.yul\":2904:2982   */\n      tag_200\n      jump\t// in\n    tag_227:\n        /* \"#utility.yul\":2894:2982   */\n      swap2\n      pop\n        /* \"#utility.yul\":2689:2992   */\n      pop\n        /* \"#utility.yul\":2315:2999   */\n      swap3\n      pop\n      swap3\n      swap1\n      pop\n      jump\t// out\n        /* \"#utility.yul\":3005:3280   */\n    tag_228:\n        /* \"#utility.yul\":3122:3132   */\n      0x00\n        /* \"#utility.yul\":3143:3237   */\n      tag_230\n        /* \"#utility.yul\":3233:3236   */\n      dup4\n        /* \"#utility.yul\":3225:3231   */\n      dup4\n        /* \"#utility.yul\":3143:3237   */\n      tag_231\n      jump\t// in\n    tag_230:\n        /* \"#utility.yul\":3269:3273   */\n      0x40\n        /* \"#utility.yul\":3264:3267   */\n      dup4\n        /* \"#utility.yul\":3260:3274   */\n      add\n        /* \"#utility.yul\":3246:3274   */\n      swap1\n      pop\n        /* \"#utility.yul\":3005:3280   */\n      swap3\n      swap2\n      pop\n      pop\n      jump\t// out\n        /* \"#utility.yul\":3286:3465   */\n    tag_232:\n        /* \"#utility.yul\":3355:3365   */\n      0x00\n        /* \"#utility.yul\":3376:3422   */\n      tag_234\n        /* \"#utility.yul\":3418:3421   */\n      dup4\n        /* \"#utility.yul\":3410:3416   */\n      dup4\n        /* \"#utility.yul\":3376:3422   */\n      tag_235\n      jump\t// in\n    tag_234:\n        /* \"#utility.yul\":3454:3458   */\n      0x20\n        /* \"#utility.yul\":3449:3452   */\n      dup4\n        /* \"#utility.yul\":3445:3459   */\n      add\n        /* \"#utility.yul\":3431:3459   */\n      swap1\n      pop\n        /* \"#utility.yul\":3286:3465   */\n      swap3\n      swap2\n      pop\n      pop\n      jump\t// out\n        /* \"#utility.yul\":3471:3589   */\n    tag_236:\n        /* \"#utility.yul\":3558:3582   */\n      tag_238\n        /* \"#utility.yul\":3576:3581   */\n      dup2\n        /* \"#utility.yul\":3558:3582   */\n      tag_239\n      jump\t// in\n    tag_238:\n        /* \"#utility.yul\":3553:3556   */\n      dup3\n        /* \"#utility.yul\":3546:3583   */\n      mstore\n        /* \"#utility.yul\":3471:3589   */\n      pop\n      pop\n      jump\t// out\n        /* \"#utility.yul\":3655:4579   */\n    tag_240:\n        /* \"#utility.yul\":3822:3825   */\n      0x00\n        /* \"#utility.yul\":3851:3929   */\n      tag_242\n        /* \"#utility.yul\":3923:3928   */\n      dup3\n        /* \"#utility.yul\":3851:3929   */\n      tag_243\n      jump\t// in\n    tag_242:\n        /* \"#utility.yul\":3945:4055   */\n      tag_244\n        /* \"#utility.yul\":4048:4054   */\n      dup2\n        /* \"#utility.yul\":4043:4046   */\n      dup6\n        /* \"#utility.yul\":3945:4055   */\n      tag_245\n      jump\t// in\n    tag_244:\n        /* \"#utility.yul\":3938:4055   */\n      swap4\n      pop\n        /* \"#utility.yul\":4079:4159   */\n      tag_246\n        /* \"#utility.yul\":4153:4158   */\n      dup4\n        /* \"#utility.yul\":4079:4159   */\n      tag_247\n      jump\t// in\n    tag_246:\n        /* \"#utility.yul\":4182:4189   */\n      dup1\n        /* \"#utility.yul\":4213:4214   */\n      0x00\n        /* \"#utility.yul\":4198:4554   */\n    tag_248:\n        /* \"#utility.yul\":4223:4229   */\n      dup4\n        /* \"#utility.yul\":4220:4221   */\n      dup2\n        /* \"#utility.yul\":4217:4230   */\n      lt\n        /* \"#utility.yul\":4198:4554   */\n      iszero\n      tag_250\n      jumpi\n        /* \"#utility.yul\":4299:4305   */\n      dup2\n        /* \"#utility.yul\":4293:4306   */\n      mload\n        /* \"#utility.yul\":4326:4437   */\n      tag_251\n        /* \"#utility.yul\":4433:4436   */\n      dup9\n        /* \"#utility.yul\":4418:4431   */\n      dup3\n        /* \"#utility.yul\":4326:4437   */\n      tag_228\n      jump\t// in\n    tag_251:\n        /* \"#utility.yul\":4319:4437   */\n      swap8\n      pop\n        /* \"#utility.yul\":4460:4544   */\n      tag_252\n        /* \"#utility.yul\":4537:4543   */\n      dup4\n        /* \"#utility.yul\":4460:4544   */\n      tag_253\n      jump\t// in\n    tag_252:\n        /* \"#utility.yul\":4450:4544   */\n      swap3\n      pop\n        /* \"#utility.yul\":4258:4554   */\n      pop\n        /* \"#utility.yul\":4245:4246   */\n      0x01\n        /* \"#utility.yul\":4242:4243   */\n      dup2\n        /* \"#utility.yul\":4238:4247   */\n      add\n        /* \"#utility.yul\":4233:4247   */\n      swap1\n      pop\n        /* \"#utility.yul\":4198:4554   */\n      jump(tag_248)\n    tag_250:\n        /* \"#utility.yul\":4202:4216   */\n      pop\n        /* \"#utility.yul\":4570:4573   */\n      dup6\n        /* \"#utility.yul\":4563:4573   */\n      swap4\n      pop\n        /* \"#utility.yul\":3827:4579   */\n      pop\n      pop\n      pop\n        /* \"#utility.yul\":3655:4579   */\n      swap3\n      swap2\n      pop\n      pop\n      jump\t// out\n        /* \"#utility.yul\":4615:5347   */\n    tag_254:\n        /* \"#utility.yul\":4734:4737   */\n      0x00\n        /* \"#utility.yul\":4763:4817   */\n      tag_256\n        /* \"#utility.yul\":4811:4816   */\n      dup3\n        /* \"#utility.yul\":4763:4817   */\n      tag_257\n      jump\t// in\n    tag_256:\n        /* \"#utility.yul\":4833:4919   */\n      tag_258\n        /* \"#utility.yul\":4912:4918   */\n      dup2\n        /* \"#utility.yul\":4907:4910   */\n      dup6\n        /* \"#utility.yul\":4833:4919   */\n      tag_259\n      jump\t// in\n    tag_258:\n        /* \"#utility.yul\":4826:4919   */\n      swap4\n      pop\n        /* \"#utility.yul\":4943:4999   */\n      tag_260\n        /* \"#utility.yul\":4993:4998   */\n      dup4\n        /* \"#utility.yul\":4943:4999   */\n      tag_261\n      jump\t// in\n    tag_260:\n        /* \"#utility.yul\":5022:5029   */\n      dup1\n        /* \"#utility.yul\":5053:5054   */\n      0x00\n        /* \"#utility.yul\":5038:5322   */\n    tag_262:\n        /* \"#utility.yul\":5063:5069   */\n      dup4\n        /* \"#utility.yul\":5060:5061   */\n      dup2\n        /* \"#utility.yul\":5057:5070   */\n      lt\n        /* \"#utility.yul\":5038:5322   */\n      iszero\n      tag_264\n      jumpi\n        /* \"#utility.yul\":5139:5145   */\n      dup2\n        /* \"#utility.yul\":5133:5146   */\n      mload\n        /* \"#utility.yul\":5166:5229   */\n      tag_265\n        /* \"#utility.yul\":5225:5228   */\n      dup9\n        /* \"#utility.yul\":5210:5223   */\n      dup3\n        /* \"#utility.yul\":5166:5229   */\n      tag_232\n      jump\t// in\n    tag_265:\n        /* \"#utility.yul\":5159:5229   */\n      swap8\n      pop\n        /* \"#utility.yul\":5252:5312   */\n      tag_266\n        /* \"#utility.yul\":5305:5311   */\n      dup4\n        /* \"#utility.yul\":5252:5312   */\n      tag_267\n      jump\t// in\n    tag_266:\n        /* \"#utility.yul\":5242:5312   */\n      swap3\n      pop\n        /* \"#utility.yul\":5098:5322   */\n      pop\n        /* \"#utility.yul\":5085:5086   */\n      0x01\n        /* \"#utility.yul\":5082:5083   */\n      dup2\n        /* \"#utility.yul\":5078:5087   */\n      add\n        /* \"#utility.yul\":5073:5087   */\n      swap1\n      pop\n        /* \"#utility.yul\":5038:5322   */\n      jump(tag_262)\n    tag_264:\n        /* \"#utility.yul\":5042:5056   */\n      pop\n        /* \"#utility.yul\":5338:5341   */\n      dup6\n        /* \"#utility.yul\":5331:5341   */\n      swap4\n      pop\n        /* \"#utility.yul\":4739:5347   */\n      pop\n      pop\n      pop\n        /* \"#utility.yul\":4615:5347   */\n      swap3\n      swap2\n      pop\n      pop\n      jump\t// out\n        /* \"#utility.yul\":5353:5462   */\n    tag_268:\n        /* \"#utility.yul\":5434:5455   */\n      tag_270\n        /* \"#utility.yul\":5449:5454   */\n      dup2\n        /* \"#utility.yul\":5434:5455   */\n      tag_271\n      jump\t// in\n    tag_270:\n        /* \"#utility.yul\":5429:5432   */\n      dup3\n        /* \"#utility.yul\":5422:5456   */\n      mstore\n        /* \"#utility.yul\":5353:5462   */\n      pop\n      pop\n      jump\t// out\n        /* \"#utility.yul\":5468:5834   */\n    tag_272:\n        /* \"#utility.yul\":5610:5613   */\n      0x00\n        /* \"#utility.yul\":5631:5698   */\n      tag_274\n        /* \"#utility.yul\":5695:5697   */\n      0x26\n        /* \"#utility.yul\":5690:5693   */\n      dup4\n        /* \"#utility.yul\":5631:5698   */\n      tag_275\n      jump\t// in\n    tag_274:\n        /* \"#utility.yul\":5624:5698   */\n      swap2\n      pop\n        /* \"#utility.yul\":5707:5800   */\n      tag_276\n        /* \"#utility.yul\":5796:5799   */\n      dup3\n        /* \"#utility.yul\":5707:5800   */\n      tag_277\n      jump\t// in\n    tag_276:\n        /* \"#utility.yul\":5825:5827   */\n      0x40\n        /* \"#utility.yul\":5820:5823   */\n      dup3\n        /* \"#utility.yul\":5816:5828   */\n      add\n        /* \"#utility.yul\":5809:5828   */\n      swap1\n      pop\n        /* \"#utility.yul\":5468:5834   */\n      swap2\n      swap1\n      pop\n      jump\t// out\n        /* \"#utility.yul\":5840:6206   */\n    tag_278:\n        /* \"#utility.yul\":5982:5985   */\n      0x00\n        /* \"#utility.yul\":6003:6070   */\n      tag_280\n        /* \"#utility.yul\":6067:6069   */\n      0x47\n        /* \"#utility.yul\":6062:6065   */\n      dup4\n        /* \"#utility.yul\":6003:6070   */\n      tag_275\n      jump\t// in\n    tag_280:\n        /* \"#utility.yul\":5996:6070   */\n      swap2\n      pop\n        /* \"#utility.yul\":6079:6172   */\n      tag_281\n        /* \"#utility.yul\":6168:6171   */\n      dup3\n        /* \"#utility.yul\":6079:6172   */\n      tag_282\n      jump\t// in\n    tag_281:\n        /* \"#utility.yul\":6197:6199   */\n      0x60\n        /* \"#utility.yul\":6192:6195   */\n      dup3\n        /* \"#utility.yul\":6188:6200   */\n      add\n        /* \"#utility.yul\":6181:6200   */\n      swap1\n      pop\n        /* \"#utility.yul\":5840:6206   */\n      swap2\n      swap1\n      pop\n      jump\t// out\n        /* \"#utility.yul\":6212:6578   */\n    tag_283:\n        /* \"#utility.yul\":6354:6357   */\n      0x00\n        /* \"#utility.yul\":6375:6442   */\n      tag_285\n        /* \"#utility.yul\":6439:6441   */\n      0x0d\n        /* \"#utility.yul\":6434:6437   */\n      dup4\n        /* \"#utility.yul\":6375:6442   */\n      tag_275\n      jump\t// in\n    tag_285:\n        /* \"#utility.yul\":6368:6442   */\n      swap2\n      pop\n        /* \"#utility.yul\":6451:6544   */\n      tag_286\n        /* \"#utility.yul\":6540:6543   */\n      dup3\n        /* \"#utility.yul\":6451:6544   */\n      tag_287\n      jump\t// in\n    tag_286:\n        /* \"#utility.yul\":6569:6571   */\n      0x20\n        /* \"#utility.yul\":6564:6567   */\n      dup3\n        /* \"#utility.yul\":6560:6572   */\n      add\n        /* \"#utility.yul\":6553:6572   */\n      swap1\n      pop\n        /* \"#utility.yul\":6212:6578   */\n      swap2\n      swap1\n      pop\n      jump\t// out\n        /* \"#utility.yul\":6584:6950   */\n    tag_288:\n        /* \"#utility.yul\":6726:6729   */\n      0x00\n        /* \"#utility.yul\":6747:6814   */\n      tag_290\n        /* \"#utility.yul\":6811:6813   */\n      0x11\n        /* \"#utility.yul\":6806:6809   */\n      dup4\n        /* \"#utility.yul\":6747:6814   */\n      tag_275\n      jump\t// in\n    tag_290:\n        /* \"#utility.yul\":6740:6814   */\n      swap2\n      pop\n        /* \"#utility.yul\":6823:6916   */\n      tag_291\n        /* \"#utility.yul\":6912:6915   */\n      dup3\n        /* \"#utility.yul\":6823:6916   */\n      tag_292\n      jump\t// in\n    tag_291:\n        /* \"#utility.yul\":6941:6943   */\n      0x20\n        /* \"#utility.yul\":6936:6939   */\n      dup3\n        /* \"#utility.yul\":6932:6944   */\n      add\n        /* \"#utility.yul\":6925:6944   */\n      swap1\n      pop\n        /* \"#utility.yul\":6584:6950   */\n      swap2\n      swap1\n      pop\n      jump\t// out\n        /* \"#utility.yul\":6956:7322   */\n    tag_293:\n        /* \"#utility.yul\":7098:7101   */\n      0x00\n        /* \"#utility.yul\":7119:7186   */\n      tag_295\n        /* \"#utility.yul\":7183:7185   */\n      0x20\n        /* \"#utility.yul\":7178:7181   */\n      dup4\n        /* \"#utility.yul\":7119:7186   */\n      tag_275\n      jump\t// in\n    tag_295:\n        /* \"#utility.yul\":7112:7186   */\n      swap2\n      pop\n        /* \"#utility.yul\":7195:7288   */\n      tag_296\n        /* \"#utility.yul\":7284:7287   */\n      dup3\n        /* \"#utility.yul\":7195:7288   */\n      tag_297\n      jump\t// in\n    tag_296:\n        /* \"#utility.yul\":7313:7315   */\n      0x20\n        /* \"#utility.yul\":7308:7311   */\n      dup3\n        /* \"#utility.yul\":7304:7316   */\n      add\n        /* \"#utility.yul\":7297:7316   */\n      swap1\n      pop\n        /* \"#utility.yul\":6956:7322   */\n      swap2\n      swap1\n      pop\n      jump\t// out\n        /* \"#utility.yul\":7328:7694   */\n    tag_298:\n        /* \"#utility.yul\":7470:7473   */\n      0x00\n        /* \"#utility.yul\":7491:7558   */\n      tag_300\n        /* \"#utility.yul\":7555:7557   */\n      0x11\n        /* \"#utility.yul\":7550:7553   */\n      dup4\n        /* \"#utility.yul\":7491:7558   */\n      tag_275\n      jump\t// in\n    tag_300:\n        /* \"#utility.yul\":7484:7558   */\n      swap2\n      pop\n        /* \"#utility.yul\":7567:7660   */\n      tag_301\n        /* \"#utility.yul\":7656:7659   */\n      dup3\n        /* \"#utility.yul\":7567:7660   */\n      tag_302\n      jump\t// in\n    tag_301:\n        /* \"#utility.yul\":7685:7687   */\n      0x20\n        /* \"#utility.yul\":7680:7683   */\n      dup3\n        /* \"#utility.yul\":7676:7688   */\n      add\n        /* \"#utility.yul\":7669:7688   */\n      swap1\n      pop\n        /* \"#utility.yul\":7328:7694   */\n      swap2\n      swap1\n      pop\n      jump\t// out\n        /* \"#utility.yul\":7700:8066   */\n    tag_303:\n        /* \"#utility.yul\":7842:7845   */\n      0x00\n        /* \"#utility.yul\":7863:7930   */\n      tag_305\n        /* \"#utility.yul\":7927:7929   */\n      0x14\n        /* \"#utility.yul\":7922:7925   */\n      dup4\n        /* \"#utility.yul\":7863:7930   */\n      tag_275\n      jump\t// in\n    tag_305:\n        /* \"#utility.yul\":7856:7930   */\n      swap2\n      pop\n        /* \"#utility.yul\":7939:8032   */\n      tag_306\n        /* \"#utility.yul\":8028:8031   */\n      dup3\n        /* \"#utility.yul\":7939:8032   */\n      tag_307\n      jump\t// in\n    tag_306:\n        /* \"#utility.yul\":8057:8059   */\n      0x20\n        /* \"#utility.yul\":8052:8055   */\n      dup3\n        /* \"#utility.yul\":8048:8060   */\n      add\n        /* \"#utility.yul\":8041:8060   */\n      swap1\n      pop\n        /* \"#utility.yul\":7700:8066   */\n      swap2\n      swap1\n      pop\n      jump\t// out\n        /* \"#utility.yul\":8072:8438   */\n    tag_308:\n        /* \"#utility.yul\":8214:8217   */\n      0x00\n        /* \"#utility.yul\":8235:8302   */\n      tag_310\n        /* \"#utility.yul\":8299:8301   */\n      0x0b\n        /* \"#utility.yul\":8294:8297   */\n      dup4\n        /* \"#utility.yul\":8235:8302   */\n      tag_275\n      jump\t// in\n    tag_310:\n        /* \"#utility.yul\":8228:8302   */\n      swap2\n      pop\n        /* \"#utility.yul\":8311:8404   */\n      tag_311\n        /* \"#utility.yul\":8400:8403   */\n      dup3\n        /* \"#utility.yul\":8311:8404   */\n      tag_312\n      jump\t// in\n    tag_311:\n        /* \"#utility.yul\":8429:8431   */\n      0x20\n        /* \"#utility.yul\":8424:8427   */\n      dup3\n        /* \"#utility.yul\":8420:8432   */\n      add\n        /* \"#utility.yul\":8413:8432   */\n      swap1\n      pop\n        /* \"#utility.yul\":8072:8438   */\n      swap2\n      swap1\n      pop\n      jump\t// out\n        /* \"#utility.yul\":8444:8810   */\n    tag_313:\n        /* \"#utility.yul\":8586:8589   */\n      0x00\n        /* \"#utility.yul\":8607:8674   */\n      tag_315\n        /* \"#utility.yul\":8671:8673   */\n      0x0d\n        /* \"#utility.yul\":8666:8669   */\n      dup4\n        /* \"#utility.yul\":8607:8674   */\n      tag_275\n      jump\t// in\n    tag_315:\n        /* \"#utility.yul\":8600:8674   */\n      swap2\n      pop\n        /* \"#utility.yul\":8683:8776   */\n      tag_316\n        /* \"#utility.yul\":8772:8775   */\n      dup3\n        /* \"#utility.yul\":8683:8776   */\n      tag_317\n      jump\t// in\n    tag_316:\n        /* \"#utility.yul\":8801:8803   */\n      0x20\n        /* \"#utility.yul\":8796:8799   */\n      dup3\n        /* \"#utility.yul\":8792:8804   */\n      add\n        /* \"#utility.yul\":8785:8804   */\n      swap1\n      pop\n        /* \"#utility.yul\":8444:8810   */\n      swap2\n      swap1\n      pop\n      jump\t// out\n        /* \"#utility.yul\":8872:9361   */\n    tag_231:\n        /* \"#utility.yul\":9007:9011   */\n      0x40\n        /* \"#utility.yul\":9002:9005   */\n      dup3\n        /* \"#utility.yul\":8998:9012   */\n      add\n        /* \"#utility.yul\":9091:9095   */\n      0x00\n        /* \"#utility.yul\":9084:9089   */\n      dup3\n        /* \"#utility.yul\":9080:9096   */\n      add\n        /* \"#utility.yul\":9074:9097   */\n      mload\n        /* \"#utility.yul\":9110:9173   */\n      tag_319\n        /* \"#utility.yul\":9167:9171   */\n      0x00\n        /* \"#utility.yul\":9162:9165   */\n      dup6\n        /* \"#utility.yul\":9158:9172   */\n      add\n        /* \"#utility.yul\":9144:9156   */\n      dup3\n        /* \"#utility.yul\":9110:9173   */\n      tag_235\n      jump\t// in\n    tag_319:\n        /* \"#utility.yul\":9022:9183   */\n      pop\n        /* \"#utility.yul\":9262:9266   */\n      0x20\n        /* \"#utility.yul\":9255:9260   */\n      dup3\n        /* \"#utility.yul\":9251:9267   */\n      add\n        /* \"#utility.yul\":9245:9268   */\n      mload\n        /* \"#utility.yul\":9281:9344   */\n      tag_320\n        /* \"#utility.yul\":9338:9342   */\n      0x20\n        /* \"#utility.yul\":9333:9336   */\n      dup6\n        /* \"#utility.yul\":9329:9343   */\n      add\n        /* \"#utility.yul\":9315:9327   */\n      dup3\n        /* \"#utility.yul\":9281:9344   */\n      tag_235\n      jump\t// in\n    tag_320:\n        /* \"#utility.yul\":9193:9354   */\n      pop\n        /* \"#utility.yul\":8976:9361   */\n      pop\n        /* \"#utility.yul\":8872:9361   */\n      pop\n      pop\n      jump\t// out\n        /* \"#utility.yul\":9423:9922   */\n    tag_321:\n        /* \"#utility.yul\":9568:9572   */\n      0x40\n        /* \"#utility.yul\":9563:9566   */\n      dup3\n        /* \"#utility.yul\":9559:9573   */\n      add\n        /* \"#utility.yul\":9652:9656   */\n      0x00\n        /* \"#utility.yul\":9645:9650   */\n      dup3\n        /* \"#utility.yul\":9641:9657   */\n      add\n        /* \"#utility.yul\":9635:9658   */\n      mload\n        /* \"#utility.yul\":9671:9734   */\n      tag_323\n        /* \"#utility.yul\":9728:9732   */\n      0x00\n        /* \"#utility.yul\":9723:9726   */\n      dup6\n        /* \"#utility.yul\":9719:9733   */\n      add\n        /* \"#utility.yul\":9705:9717   */\n      dup3\n        /* \"#utility.yul\":9671:9734   */\n      tag_235\n      jump\t// in\n    tag_323:\n        /* \"#utility.yul\":9583:9744   */\n      pop\n        /* \"#utility.yul\":9823:9827   */\n      0x20\n        /* \"#utility.yul\":9816:9821   */\n      dup3\n        /* \"#utility.yul\":9812:9828   */\n      add\n        /* \"#utility.yul\":9806:9829   */\n      mload\n        /* \"#utility.yul\":9842:9905   */\n      tag_324\n        /* \"#utility.yul\":9899:9903   */\n      0x20\n        /* \"#utility.yul\":9894:9897   */\n      dup6\n        /* \"#utility.yul\":9890:9904   */\n      add\n        /* \"#utility.yul\":9876:9888   */\n      dup3\n        /* \"#utility.yul\":9842:9905   */\n      tag_235\n      jump\t// in\n    tag_324:\n        /* \"#utility.yul\":9754:9915   */\n      pop\n        /* \"#utility.yul\":9537:9922   */\n      pop\n        /* \"#utility.yul\":9423:9922   */\n      pop\n      pop\n      jump\t// out\n        /* \"#utility.yul\":9928:10036   */\n    tag_235:\n        /* \"#utility.yul\":10005:10029   */\n      tag_326\n        /* \"#utility.yul\":10023:10028   */\n      dup2\n        /* \"#utility.yul\":10005:10029   */\n      tag_327\n      jump\t// in\n    tag_326:\n        /* \"#utility.yul\":10000:10003   */\n      dup3\n        /* \"#utility.yul\":9993:10030   */\n      mstore\n        /* \"#utility.yul\":9928:10036   */\n      pop\n      pop\n      jump\t// out\n        /* \"#utility.yul\":10042:10160   */\n    tag_328:\n        /* \"#utility.yul\":10129:10153   */\n      tag_330\n        /* \"#utility.yul\":10147:10152   */\n      dup2\n        /* \"#utility.yul\":10129:10153   */\n      tag_327\n      jump\t// in\n    tag_330:\n        /* \"#utility.yul\":10124:10127   */\n      dup3\n        /* \"#utility.yul\":10117:10154   */\n      mstore\n        /* \"#utility.yul\":10042:10160   */\n      pop\n      pop\n      jump\t// out\n        /* \"#utility.yul\":10166:10388   */\n    tag_34:\n        /* \"#utility.yul\":10259:10263   */\n      0x00\n        /* \"#utility.yul\":10297:10299   */\n      0x20\n        /* \"#utility.yul\":10286:10295   */\n      dup3\n        /* \"#utility.yul\":10282:10300   */\n      add\n        /* \"#utility.yul\":10274:10300   */\n      swap1\n      pop\n        /* \"#utility.yul\":10310:10381   */\n      tag_332\n        /* \"#utility.yul\":10378:10379   */\n      0x00\n        /* \"#utility.yul\":10367:10376   */\n      dup4\n        /* \"#utility.yul\":10363:10380   */\n      add\n        /* \"#utility.yul\":10354:10360   */\n      dup5\n        /* \"#utility.yul\":10310:10381   */\n      tag_236\n      jump\t// in\n    tag_332:\n        /* \"#utility.yul\":10166:10388   */\n      swap3\n      swap2\n      pop\n      pop\n      jump\t// out\n        /* \"#utility.yul\":10394:10863   */\n    tag_21:\n        /* \"#utility.yul\":10585:10589   */\n      0x00\n        /* \"#utility.yul\":10623:10625   */\n      0x20\n        /* \"#utility.yul\":10612:10621   */\n      dup3\n        /* \"#utility.yul\":10608:10626   */\n      add\n        /* \"#utility.yul\":10600:10626   */\n      swap1\n      pop\n        /* \"#utility.yul\":10672:10681   */\n      dup2\n        /* \"#utility.yul\":10666:10670   */\n      dup2\n        /* \"#utility.yul\":10662:10682   */\n      sub\n        /* \"#utility.yul\":10658:10659   */\n      0x00\n        /* \"#utility.yul\":10647:10656   */\n      dup4\n        /* \"#utility.yul\":10643:10660   */\n      add\n        /* \"#utility.yul\":10636:10683   */\n      mstore\n        /* \"#utility.yul\":10700:10856   */\n      tag_334\n        /* \"#utility.yul\":10851:10855   */\n      dup2\n        /* \"#utility.yul\":10842:10848   */\n      dup5\n        /* \"#utility.yul\":10700:10856   */\n      tag_240\n      jump\t// in\n    tag_334:\n        /* \"#utility.yul\":10692:10856   */\n      swap1\n      pop\n        /* \"#utility.yul\":10394:10863   */\n      swap3\n      swap2\n      pop\n      pop\n      jump\t// out\n        /* \"#utility.yul\":10869:11242   */\n    tag_39:\n        /* \"#utility.yul\":11012:11016   */\n      0x00\n        /* \"#utility.yul\":11050:11052   */\n      0x20\n        /* \"#utility.yul\":11039:11048   */\n      dup3\n        /* \"#utility.yul\":11035:11053   */\n      add\n        /* \"#utility.yul\":11027:11053   */\n      swap1\n      pop\n        /* \"#utility.yul\":11099:11108   */\n      dup2\n        /* \"#utility.yul\":11093:11097   */\n      dup2\n        /* \"#utility.yul\":11089:11109   */\n      sub\n        /* \"#utility.yul\":11085:11086   */\n      0x00\n        /* \"#utility.yul\":11074:11083   */\n      dup4\n        /* \"#utility.yul\":11070:11087   */\n      add\n        /* \"#utility.yul\":11063:11110   */\n      mstore\n        /* \"#utility.yul\":11127:11235   */\n      tag_336\n        /* \"#utility.yul\":11230:11234   */\n      dup2\n        /* \"#utility.yul\":11221:11227   */\n      dup5\n        /* \"#utility.yul\":11127:11235   */\n      tag_254\n      jump\t// in\n    tag_336:\n        /* \"#utility.yul\":11119:11235   */\n      swap1\n      pop\n        /* \"#utility.yul\":10869:11242   */\n      swap3\n      swap2\n      pop\n      pop\n      jump\t// out\n        /* \"#utility.yul\":11248:11458   */\n    tag_45:\n        /* \"#utility.yul\":11335:11339   */\n      0x00\n        /* \"#utility.yul\":11373:11375   */\n      0x20\n        /* \"#utility.yul\":11362:11371   */\n      dup3\n        /* \"#utility.yul\":11358:11376   */\n      add\n        /* \"#utility.yul\":11350:11376   */\n      swap1\n      pop\n        /* \"#utility.yul\":11386:11451   */\n      tag_338\n        /* \"#utility.yul\":11448:11449   */\n      0x00\n        /* \"#utility.yul\":11437:11446   */\n      dup4\n        /* \"#utility.yul\":11433:11450   */\n      add\n        /* \"#utility.yul\":11424:11430   */\n      dup5\n        /* \"#utility.yul\":11386:11451   */\n      tag_268\n      jump\t// in\n    tag_338:\n        /* \"#utility.yul\":11248:11458   */\n      swap3\n      swap2\n      pop\n      pop\n      jump\t// out\n        /* \"#utility.yul\":11464:11883   */\n    tag_113:\n        /* \"#utility.yul\":11630:11634   */\n      0x00\n        /* \"#utility.yul\":11668:11670   */\n      0x20\n        /* \"#utility.yul\":11657:11666   */\n      dup3\n        /* \"#utility.yul\":11653:11671   */\n      add\n        /* \"#utility.yul\":11645:11671   */\n      swap1\n      pop\n        /* \"#utility.yul\":11717:11726   */\n      dup2\n        /* \"#utility.yul\":11711:11715   */\n      dup2\n        /* \"#utility.yul\":11707:11727   */\n      sub\n        /* \"#utility.yul\":11703:11704   */\n      0x00\n        /* \"#utility.yul\":11692:11701   */\n      dup4\n        /* \"#utility.yul\":11688:11705   */\n      add\n        /* \"#utility.yul\":11681:11728   */\n      mstore\n        /* \"#utility.yul\":11745:11876   */\n      tag_340\n        /* \"#utility.yul\":11871:11875   */\n      dup2\n        /* \"#utility.yul\":11745:11876   */\n      tag_272\n      jump\t// in\n    tag_340:\n        /* \"#utility.yul\":11737:11876   */\n      swap1\n      pop\n        /* \"#utility.yul\":11464:11883   */\n      swap2\n      swap1\n      pop\n      jump\t// out\n        /* \"#utility.yul\":11889:12308   */\n    tag_179:\n        /* \"#utility.yul\":12055:12059   */\n      0x00\n        /* \"#utility.yul\":12093:12095   */\n      0x20\n        /* \"#utility.yul\":12082:12091   */\n      dup3\n        /* \"#utility.yul\":12078:12096   */\n      add\n        /* \"#utility.yul\":12070:12096   */\n      swap1\n      pop\n        /* \"#utility.yul\":12142:12151   */\n      dup2\n        /* \"#utility.yul\":12136:12140   */\n      dup2\n        /* \"#utility.yul\":12132:12152   */\n      sub\n        /* \"#utility.yul\":12128:12129   */\n      0x00\n        /* \"#utility.yul\":12117:12126   */\n      dup4\n        /* \"#utility.yul\":12113:12130   */\n      add\n        /* \"#utility.yul\":12106:12153   */\n      mstore\n        /* \"#utility.yul\":12170:12301   */\n      tag_342\n        /* \"#utility.yul\":12296:12300   */\n      dup2\n        /* \"#utility.yul\":12170:12301   */\n      tag_278\n      jump\t// in\n    tag_342:\n        /* \"#utility.yul\":12162:12301   */\n      swap1\n      pop\n        /* \"#utility.yul\":11889:12308   */\n      swap2\n      swap1\n      pop\n      jump\t// out\n        /* \"#utility.yul\":12314:12733   */\n    tag_79:\n        /* \"#utility.yul\":12480:12484   */\n      0x00\n        /* \"#utility.yul\":12518:12520   */\n      0x20\n        /* \"#utility.yul\":12507:12516   */\n      dup3\n        /* \"#utility.yul\":12503:12521   */\n      add\n        /* \"#utility.yul\":12495:12521   */\n      swap1\n      pop\n        /* \"#utility.yul\":12567:12576   */\n      dup2\n        /* \"#utility.yul\":12561:12565   */\n      dup2\n        /* \"#utility.yul\":12557:12577   */\n      sub\n        /* \"#utility.yul\":12553:12554   */\n      0x00\n        /* \"#utility.yul\":12542:12551   */\n      dup4\n        /* \"#utility.yul\":12538:12555   */\n      add\n        /* \"#utility.yul\":12531:12578   */\n      mstore\n        /* \"#utility.yul\":12595:12726   */\n      tag_344\n        /* \"#utility.yul\":12721:12725   */\n      dup2\n        /* \"#utility.yul\":12595:12726   */\n      tag_283\n      jump\t// in\n    tag_344:\n        /* \"#utility.yul\":12587:12726   */\n      swap1\n      pop\n        /* \"#utility.yul\":12314:12733   */\n      swap2\n      swap1\n      pop\n      jump\t// out\n        /* \"#utility.yul\":12739:13158   */\n    tag_154:\n        /* \"#utility.yul\":12905:12909   */\n      0x00\n        /* \"#utility.yul\":12943:12945   */\n      0x20\n        /* \"#utility.yul\":12932:12941   */\n      dup3\n        /* \"#utility.yul\":12928:12946   */\n      add\n        /* \"#utility.yul\":12920:12946   */\n      swap1\n      pop\n        /* \"#utility.yul\":12992:13001   */\n      dup2\n        /* \"#utility.yul\":12986:12990   */\n      dup2\n        /* \"#utility.yul\":12982:13002   */\n      sub\n        /* \"#utility.yul\":12978:12979   */\n      0x00\n        /* \"#utility.yul\":12967:12976   */\n      dup4\n        /* \"#utility.yul\":12963:12980   */\n      add\n        /* \"#utility.yul\":12956:13003   */\n      mstore\n        /* \"#utility.yul\":13020:13151   */\n      tag_346\n        /* \"#utility.yul\":13146:13150   */\n      dup2\n        /* \"#utility.yul\":13020:13151   */\n      tag_288\n      jump\t// in\n    tag_346:\n        /* \"#utility.yul\":13012:13151   */\n      swap1\n      pop\n        /* \"#utility.yul\":12739:13158   */\n      swap2\n      swap1\n      pop\n      jump\t// out\n        /* \"#utility.yul\":13164:13583   */\n    tag_138:\n        /* \"#utility.yul\":13330:13334   */\n      0x00\n        /* \"#utility.yul\":13368:13370   */\n      0x20\n        /* \"#utility.yul\":13357:13366   */\n      dup3\n        /* \"#utility.yul\":13353:13371   */\n      add\n        /* \"#utility.yul\":13345:13371   */\n      swap1\n      pop\n        /* \"#utility.yul\":13417:13426   */\n      dup2\n        /* \"#utility.yul\":13411:13415   */\n      dup2\n        /* \"#utility.yul\":13407:13427   */\n      sub\n        /* \"#utility.yul\":13403:13404   */\n      0x00\n        /* \"#utility.yul\":13392:13401   */\n      dup4\n        /* \"#utility.yul\":13388:13405   */\n      add\n        /* \"#utility.yul\":13381:13428   */\n      mstore\n        /* \"#utility.yul\":13445:13576   */\n      tag_348\n        /* \"#utility.yul\":13571:13575   */\n      dup2\n        /* \"#utility.yul\":13445:13576   */\n      tag_293\n      jump\t// in\n    tag_348:\n        /* \"#utility.yul\":13437:13576   */\n      swap1\n      pop\n        /* \"#utility.yul\":13164:13583   */\n      swap2\n      swap1\n      pop\n      jump\t// out\n        /* \"#utility.yul\":13589:14008   */\n    tag_146:\n        /* \"#utility.yul\":13755:13759   */\n      0x00\n        /* \"#utility.yul\":13793:13795   */\n      0x20\n        /* \"#utility.yul\":13782:13791   */\n      dup3\n        /* \"#utility.yul\":13778:13796   */\n      add\n        /* \"#utility.yul\":13770:13796   */\n      swap1\n      pop\n        /* \"#utility.yul\":13842:13851   */\n      dup2\n        /* \"#utility.yul\":13836:13840   */\n      dup2\n        /* \"#utility.yul\":13832:13852   */\n      sub\n        /* \"#utility.yul\":13828:13829   */\n      0x00\n        /* \"#utility.yul\":13817:13826   */\n      dup4\n        /* \"#utility.yul\":13813:13830   */\n      add\n        /* \"#utility.yul\":13806:13853   */\n      mstore\n        /* \"#utility.yul\":13870:14001   */\n      tag_350\n        /* \"#utility.yul\":13996:14000   */\n      dup2\n        /* \"#utility.yul\":13870:14001   */\n      tag_298\n      jump\t// in\n    tag_350:\n        /* \"#utility.yul\":13862:14001   */\n      swap1\n      pop\n        /* \"#utility.yul\":13589:14008   */\n      swap2\n      swap1\n      pop\n      jump\t// out\n        /* \"#utility.yul\":14014:14433   */\n    tag_143:\n        /* \"#utility.yul\":14180:14184   */\n      0x00\n        /* \"#utility.yul\":14218:14220   */\n      0x20\n        /* \"#utility.yul\":14207:14216   */\n      dup3\n        /* \"#utility.yul\":14203:14221   */\n      add\n        /* \"#utility.yul\":14195:14221   */\n      swap1\n      pop\n        /* \"#utility.yul\":14267:14276   */\n      dup2\n        /* \"#utility.yul\":14261:14265   */\n      dup2\n        /* \"#utility.yul\":14257:14277   */\n      sub\n        /* \"#utility.yul\":14253:14254   */\n      0x00\n        /* \"#utility.yul\":14242:14251   */\n      dup4\n        /* \"#utility.yul\":14238:14255   */\n      add\n        /* \"#utility.yul\":14231:14278   */\n      mstore\n        /* \"#utility.yul\":14295:14426   */\n      tag_352\n        /* \"#utility.yul\":14421:14425   */\n      dup2\n        /* \"#utility.yul\":14295:14426   */\n      tag_303\n      jump\t// in\n    tag_352:\n        /* \"#utility.yul\":14287:14426   */\n      swap1\n      pop\n        /* \"#utility.yul\":14014:14433   */\n      swap2\n      swap1\n      pop\n      jump\t// out\n        /* \"#utility.yul\":14439:14858   */\n    tag_84:\n        /* \"#utility.yul\":14605:14609   */\n      0x00\n        /* \"#utility.yul\":14643:14645   */\n      0x20\n        /* \"#utility.yul\":14632:14641   */\n      dup3\n        /* \"#utility.yul\":14628:14646   */\n      add\n        /* \"#utility.yul\":14620:14646   */\n      swap1\n      pop\n        /* \"#utility.yul\":14692:14701   */\n      dup2\n        /* \"#utility.yul\":14686:14690   */\n      dup2\n        /* \"#utility.yul\":14682:14702   */\n      sub\n        /* \"#utility.yul\":14678:14679   */\n      0x00\n        /* \"#utility.yul\":14667:14676   */\n      dup4\n        /* \"#utility.yul\":14663:14680   */\n      add\n        /* \"#utility.yul\":14656:14703   */\n      mstore\n        /* \"#utility.yul\":14720:14851   */\n      tag_354\n        /* \"#utility.yul\":14846:14850   */\n      dup2\n        /* \"#utility.yul\":14720:14851   */\n      tag_308\n      jump\t// in\n    tag_354:\n        /* \"#utility.yul\":14712:14851   */\n      swap1\n      pop\n        /* \"#utility.yul\":14439:14858   */\n      swap2\n      swap1\n      pop\n      jump\t// out\n        /* \"#utility.yul\":14864:15283   */\n    tag_151:\n        /* \"#utility.yul\":15030:15034   */\n      0x00\n        /* \"#utility.yul\":15068:15070   */\n      0x20\n        /* \"#utility.yul\":15057:15066   */\n      dup3\n        /* \"#utility.yul\":15053:15071   */\n      add\n        /* \"#utility.yul\":15045:15071   */\n      swap1\n      pop\n        /* \"#utility.yul\":15117:15126   */\n      dup2\n        /* \"#utility.yul\":15111:15115   */\n      dup2\n        /* \"#utility.yul\":15107:15127   */\n      sub\n        /* \"#utility.yul\":15103:15104   */\n      0x00\n        /* \"#utility.yul\":15092:15101   */\n      dup4\n        /* \"#utility.yul\":15088:15105   */\n      add\n        /* \"#utility.yul\":15081:15128   */\n      mstore\n        /* \"#utility.yul\":15145:15276   */\n      tag_356\n        /* \"#utility.yul\":15271:15275   */\n      dup2\n        /* \"#utility.yul\":15145:15276   */\n      tag_313\n      jump\t// in\n    tag_356:\n        /* \"#utility.yul\":15137:15276   */\n      swap1\n      pop\n        /* \"#utility.yul\":14864:15283   */\n      swap2\n      swap1\n      pop\n      jump\t// out\n        /* \"#utility.yul\":15289:15607   */\n    tag_16:\n        /* \"#utility.yul\":15430:15434   */\n      0x00\n        /* \"#utility.yul\":15468:15470   */\n      0x40\n        /* \"#utility.yul\":15457:15466   */\n      dup3\n        /* \"#utility.yul\":15453:15471   */\n      add\n        /* \"#utility.yul\":15445:15471   */\n      swap1\n      pop\n        /* \"#utility.yul\":15481:15600   */\n      tag_358\n        /* \"#utility.yul\":15597:15598   */\n      0x00\n        /* \"#utility.yul\":15586:15595   */\n      dup4\n        /* \"#utility.yul\":15582:15599   */\n      add\n        /* \"#utility.yul\":15573:15579   */\n      dup5\n        /* \"#utility.yul\":15481:15600   */\n      tag_321\n      jump\t// in\n    tag_358:\n        /* \"#utility.yul\":15289:15607   */\n      swap3\n      swap2\n      pop\n      pop\n      jump\t// out\n        /* \"#utility.yul\":15613:15835   */\n    tag_26:\n        /* \"#utility.yul\":15706:15710   */\n      0x00\n        /* \"#utility.yul\":15744:15746   */\n      0x20\n        /* \"#utility.yul\":15733:15742   */\n      dup3\n        /* \"#utility.yul\":15729:15747   */\n      add\n        /* \"#utility.yul\":15721:15747   */\n      swap1\n      pop\n        /* \"#utility.yul\":15757:15828   */\n      tag_360\n        /* \"#utility.yul\":15825:15826   */\n      0x00\n        /* \"#utility.yul\":15814:15823   */\n      dup4\n        /* \"#utility.yul\":15810:15827   */\n      add\n        /* \"#utility.yul\":15801:15807   */\n      dup5\n        /* \"#utility.yul\":15757:15828   */\n      tag_328\n      jump\t// in\n    tag_360:\n        /* \"#utility.yul\":15613:15835   */\n      swap3\n      swap2\n      pop\n      pop\n      jump\t// out\n        /* \"#utility.yul\":15841:15970   */\n    tag_187:\n        /* \"#utility.yul\":15875:15881   */\n      0x00\n        /* \"#utility.yul\":15902:15922   */\n      tag_362\n      tag_363\n      jump\t// in\n    tag_362:\n        /* \"#utility.yul\":15892:15922   */\n      swap1\n      pop\n        /* \"#utility.yul\":15931:15964   */\n      tag_364\n        /* \"#utility.yul\":15959:15963   */\n      dup3\n        /* \"#utility.yul\":15951:15957   */\n      dup3\n        /* \"#utility.yul\":15931:15964   */\n      tag_365\n      jump\t// in\n    tag_364:\n        /* \"#utility.yul\":15841:15970   */\n      swap2\n      swap1\n      pop\n      jump\t// out\n        /* \"#utility.yul\":15976:16051   */\n    tag_363:\n        /* \"#utility.yul\":16009:16015   */\n      0x00\n        /* \"#utility.yul\":16042:16044   */\n      0x40\n        /* \"#utility.yul\":16036:16045   */\n      mload\n        /* \"#utility.yul\":16026:16045   */\n      swap1\n      pop\n        /* \"#utility.yul\":15976:16051   */\n      swap1\n      jump\t// out\n        /* \"#utility.yul\":16057:16368   */\n    tag_186:\n        /* \"#utility.yul\":16134:16138   */\n      0x00\n        /* \"#utility.yul\":16224:16242   */\n      0xffffffffffffffff\n        /* \"#utility.yul\":16216:16222   */\n      dup3\n        /* \"#utility.yul\":16213:16243   */\n      gt\n        /* \"#utility.yul\":16210:16266   */\n      iszero\n      tag_368\n      jumpi\n        /* \"#utility.yul\":16246:16264   */\n      tag_369\n      tag_370\n      jump\t// in\n    tag_369:\n        /* \"#utility.yul\":16210:16266   */\n    tag_368:\n        /* \"#utility.yul\":16296:16300   */\n      0x20\n        /* \"#utility.yul\":16288:16294   */\n      dup3\n        /* \"#utility.yul\":16284:16301   */\n      mul\n        /* \"#utility.yul\":16276:16301   */\n      swap1\n      pop\n        /* \"#utility.yul\":16356:16360   */\n      0x20\n        /* \"#utility.yul\":16350:16354   */\n      dup2\n        /* \"#utility.yul\":16346:16361   */\n      add\n        /* \"#utility.yul\":16338:16361   */\n      swap1\n      pop\n        /* \"#utility.yul\":16057:16368   */\n      swap2\n      swap1\n      pop\n      jump\t// out\n        /* \"#utility.yul\":16374:16530   */\n    tag_247:\n        /* \"#utility.yul\":16465:16469   */\n      0x00\n        /* \"#utility.yul\":16488:16491   */\n      dup2\n        /* \"#utility.yul\":16480:16491   */\n      swap1\n      pop\n        /* \"#utility.yul\":16518:16522   */\n      0x20\n        /* \"#utility.yul\":16513:16516   */\n      dup3\n        /* \"#utility.yul\":16509:16523   */\n      add\n        /* \"#utility.yul\":16501:16523   */\n      swap1\n      pop\n        /* \"#utility.yul\":16374:16530   */\n      swap2\n      swap1\n      pop\n      jump\t// out\n        /* \"#utility.yul\":16536:16668   */\n    tag_261:\n        /* \"#utility.yul\":16603:16607   */\n      0x00\n        /* \"#utility.yul\":16626:16629   */\n      dup2\n        /* \"#utility.yul\":16618:16629   */\n      swap1\n      pop\n        /* \"#utility.yul\":16656:16660   */\n      0x20\n        /* \"#utility.yul\":16651:16654   */\n      dup3\n        /* \"#utility.yul\":16647:16661   */\n      add\n        /* \"#utility.yul\":16639:16661   */\n      swap1\n      pop\n        /* \"#utility.yul\":16536:16668   */\n      swap2\n      swap1\n      pop\n      jump\t// out\n        /* \"#utility.yul\":16674:16812   */\n    tag_243:\n        /* \"#utility.yul\":16765:16771   */\n      0x00\n        /* \"#utility.yul\":16799:16804   */\n      dup2\n        /* \"#utility.yul\":16793:16805   */\n      mload\n        /* \"#utility.yul\":16783:16805   */\n      swap1\n      pop\n        /* \"#utility.yul\":16674:16812   */\n      swap2\n      swap1\n      pop\n      jump\t// out\n        /* \"#utility.yul\":16818:16932   */\n    tag_257:\n        /* \"#utility.yul\":16885:16891   */\n      0x00\n        /* \"#utility.yul\":16919:16924   */\n      dup2\n        /* \"#utility.yul\":16913:16925   */\n      mload\n        /* \"#utility.yul\":16903:16925   */\n      swap1\n      pop\n        /* \"#utility.yul\":16818:16932   */\n      swap2\n      swap1\n      pop\n      jump\t// out\n        /* \"#utility.yul\":16938:17075   */\n    tag_253:\n        /* \"#utility.yul\":17032:17036   */\n      0x00\n        /* \"#utility.yul\":17064:17068   */\n      0x20\n        /* \"#utility.yul\":17059:17062   */\n      dup3\n        /* \"#utility.yul\":17055:17069   */\n      add\n        /* \"#utility.yul\":17047:17069   */\n      swap1\n      pop\n        /* \"#utility.yul\":16938:17075   */\n      swap2\n      swap1\n      pop\n      jump\t// out\n        /* \"#utility.yul\":17081:17194   */\n    tag_267:\n        /* \"#utility.yul\":17151:17155   */\n      0x00\n        /* \"#utility.yul\":17183:17187   */\n      0x20\n        /* \"#utility.yul\":17178:17181   */\n      dup3\n        /* \"#utility.yul\":17174:17188   */\n      add\n        /* \"#utility.yul\":17166:17188   */\n      swap1\n      pop\n        /* \"#utility.yul\":17081:17194   */\n      swap2\n      swap1\n      pop\n      jump\t// out\n        /* \"#utility.yul\":17200:17408   */\n    tag_245:\n        /* \"#utility.yul\":17323:17334   */\n      0x00\n        /* \"#utility.yul\":17357:17363   */\n      dup3\n        /* \"#utility.yul\":17352:17355   */\n      dup3\n        /* \"#utility.yul\":17345:17364   */\n      mstore\n        /* \"#utility.yul\":17397:17401   */\n      0x20\n        /* \"#utility.yul\":17392:17395   */\n      dup3\n        /* \"#utility.yul\":17388:17402   */\n      add\n        /* \"#utility.yul\":17373:17402   */\n      swap1\n      pop\n        /* \"#utility.yul\":17200:17408   */\n      swap3\n      swap2\n      pop\n      pop\n      jump\t// out\n        /* \"#utility.yul\":17414:17598   */\n    tag_259:\n        /* \"#utility.yul\":17513:17524   */\n      0x00\n        /* \"#utility.yul\":17547:17553   */\n      dup3\n        /* \"#utility.yul\":17542:17545   */\n      dup3\n        /* \"#utility.yul\":17535:17554   */\n      mstore\n        /* \"#utility.yul\":17587:17591   */\n      0x20\n        /* \"#utility.yul\":17582:17585   */\n      dup3\n        /* \"#utility.yul\":17578:17592   */\n      add\n        /* \"#utility.yul\":17563:17592   */\n      swap1\n      pop\n        /* \"#utility.yul\":17414:17598   */\n      swap3\n      swap2\n      pop\n      pop\n      jump\t// out\n        /* \"#utility.yul\":17604:17773   */\n    tag_275:\n        /* \"#utility.yul\":17688:17699   */\n      0x00\n        /* \"#utility.yul\":17722:17728   */\n      dup3\n        /* \"#utility.yul\":17717:17720   */\n      dup3\n        /* \"#utility.yul\":17710:17729   */\n      mstore\n        /* \"#utility.yul\":17762:17766   */\n      0x20\n        /* \"#utility.yul\":17757:17760   */\n      dup3\n        /* \"#utility.yul\":17753:17767   */\n      add\n        /* \"#utility.yul\":17738:17767   */\n      swap1\n      pop\n        /* \"#utility.yul\":17604:17773   */\n      swap3\n      swap2\n      pop\n      pop\n      jump\t// out\n        /* \"#utility.yul\":17779:17970   */\n    tag_164:\n        /* \"#utility.yul\":17819:17823   */\n      0x00\n        /* \"#utility.yul\":17839:17859   */\n      tag_381\n        /* \"#utility.yul\":17857:17858   */\n      dup3\n        /* \"#utility.yul\":17839:17859   */\n      tag_327\n      jump\t// in\n    tag_381:\n        /* \"#utility.yul\":17834:17859   */\n      swap2\n      pop\n        /* \"#utility.yul\":17873:17893   */\n      tag_382\n        /* \"#utility.yul\":17891:17892   */\n      dup4\n        /* \"#utility.yul\":17873:17893   */\n      tag_327\n      jump\t// in\n    tag_382:\n        /* \"#utility.yul\":17868:17893   */\n      swap3\n      pop\n        /* \"#utility.yul\":17912:17913   */\n      dup3\n        /* \"#utility.yul\":17909:17910   */\n      dup3\n        /* \"#utility.yul\":17906:17914   */\n      lt\n        /* \"#utility.yul\":17903:17937   */\n      iszero\n      tag_383\n      jumpi\n        /* \"#utility.yul\":17917:17935   */\n      tag_384\n      tag_385\n      jump\t// in\n    tag_384:\n        /* \"#utility.yul\":17903:17937   */\n    tag_383:\n        /* \"#utility.yul\":17962:17963   */\n      dup3\n        /* \"#utility.yul\":17959:17960   */\n      dup3\n        /* \"#utility.yul\":17955:17964   */\n      sub\n        /* \"#utility.yul\":17947:17964   */\n      swap1\n      pop\n        /* \"#utility.yul\":17779:17970   */\n      swap3\n      swap2\n      pop\n      pop\n      jump\t// out\n        /* \"#utility.yul\":17976:18072   */\n    tag_239:\n        /* \"#utility.yul\":18013:18020   */\n      0x00\n        /* \"#utility.yul\":18042:18066   */\n      tag_387\n        /* \"#utility.yul\":18060:18065   */\n      dup3\n        /* \"#utility.yul\":18042:18066   */\n      tag_388\n      jump\t// in\n    tag_387:\n        /* \"#utility.yul\":18031:18066   */\n      swap1\n      pop\n        /* \"#utility.yul\":17976:18072   */\n      swap2\n      swap1\n      pop\n      jump\t// out\n        /* \"#utility.yul\":18078:18168   */\n    tag_271:\n        /* \"#utility.yul\":18112:18119   */\n      0x00\n        /* \"#utility.yul\":18155:18160   */\n      dup2\n        /* \"#utility.yul\":18148:18161   */\n      iszero\n        /* \"#utility.yul\":18141:18162   */\n      iszero\n        /* \"#utility.yul\":18130:18162   */\n      swap1\n      pop\n        /* \"#utility.yul\":18078:18168   */\n      swap2\n      swap1\n      pop\n      jump\t// out\n        /* \"#utility.yul\":18174:18300   */\n    tag_388:\n        /* \"#utility.yul\":18211:18218   */\n      0x00\n        /* \"#utility.yul\":18251:18293   */\n      0xffffffffffffffffffffffffffffffffffffffff\n        /* \"#utility.yul\":18244:18249   */\n      dup3\n        /* \"#utility.yul\":18240:18294   */\n      and\n        /* \"#utility.yul\":18229:18294   */\n      swap1\n      pop\n        /* \"#utility.yul\":18174:18300   */\n      swap2\n      swap1\n      pop\n      jump\t// out\n        /* \"#utility.yul\":18306:18383   */\n    tag_327:\n        /* \"#utility.yul\":18343:18350   */\n      0x00\n        /* \"#utility.yul\":18372:18377   */\n      dup2\n        /* \"#utility.yul\":18361:18377   */\n      swap1\n      pop\n        /* \"#utility.yul\":18306:18383   */\n      swap2\n      swap1\n      pop\n      jump\t// out\n        /* \"#utility.yul\":18389:18670   */\n    tag_365:\n        /* \"#utility.yul\":18472:18499   */\n      tag_393\n        /* \"#utility.yul\":18494:18498   */\n      dup3\n        /* \"#utility.yul\":18472:18499   */\n      tag_394\n      jump\t// in\n    tag_393:\n        /* \"#utility.yul\":18464:18470   */\n      dup2\n        /* \"#utility.yul\":18460:18500   */\n      add\n        /* \"#utility.yul\":18602:18608   */\n      dup2\n        /* \"#utility.yul\":18590:18600   */\n      dup2\n        /* \"#utility.yul\":18587:18609   */\n      lt\n        /* \"#utility.yul\":18566:18584   */\n      0xffffffffffffffff\n        /* \"#utility.yul\":18554:18564   */\n      dup3\n        /* \"#utility.yul\":18551:18585   */\n      gt\n        /* \"#utility.yul\":18548:18610   */\n      or\n        /* \"#utility.yul\":18545:18633   */\n      iszero\n      tag_395\n      jumpi\n        /* \"#utility.yul\":18613:18631   */\n      tag_396\n      tag_370\n      jump\t// in\n    tag_396:\n        /* \"#utility.yul\":18545:18633   */\n    tag_395:\n        /* \"#utility.yul\":18653:18663   */\n      dup1\n        /* \"#utility.yul\":18649:18651   */\n      0x40\n        /* \"#utility.yul\":18642:18664   */\n      mstore\n        /* \"#utility.yul\":18432:18670   */\n      pop\n        /* \"#utility.yul\":18389:18670   */\n      pop\n      pop\n      jump\t// out\n        /* \"#utility.yul\":18676:18909   */\n    tag_131:\n        /* \"#utility.yul\":18715:18718   */\n      0x00\n        /* \"#utility.yul\":18738:18762   */\n      tag_398\n        /* \"#utility.yul\":18756:18761   */\n      dup3\n        /* \"#utility.yul\":18738:18762   */\n      tag_327\n      jump\t// in\n    tag_398:\n        /* \"#utility.yul\":18729:18762   */\n      swap2\n      pop\n        /* \"#utility.yul\":18784:18850   */\n      0xffffffffffffffffffffffffffffffffffffffffffffffffffffffffffffffff\n        /* \"#utility.yul\":18777:18782   */\n      dup3\n        /* \"#utility.yul\":18774:18851   */\n      eq\n        /* \"#utility.yul\":18771:18874   */\n      iszero\n      tag_399\n      jumpi\n        /* \"#utility.yul\":18854:18872   */\n      tag_400\n      tag_385\n      jump\t// in\n    tag_400:\n        /* \"#utility.yul\":18771:18874   */\n    tag_399:\n        /* \"#utility.yul\":18901:18902   */\n      0x01\n        /* \"#utility.yul\":18894:18899   */\n      dup3\n        /* \"#utility.yul\":18890:18903   */\n      add\n        /* \"#utility.yul\":18883:18903   */\n      swap1\n      pop\n        /* \"#utility.yul\":18676:18909   */\n      swap2\n      swap1\n      pop\n      jump\t// out\n        /* \"#utility.yul\":18915:19091   */\n    tag_162:\n        /* \"#utility.yul\":18947:18948   */\n      0x00\n        /* \"#utility.yul\":18964:18984   */\n      tag_402\n        /* \"#utility.yul\":18982:18983   */\n      dup3\n        /* \"#utility.yul\":18964:18984   */\n      tag_327\n      jump\t// in\n    tag_402:\n        /* \"#utility.yul\":18959:18984   */\n      swap2\n      pop\n        /* \"#utility.yul\":18998:19018   */\n      tag_403\n        /* \"#utility.yul\":19016:19017   */\n      dup4\n        /* \"#utility.yul\":18998:19018   */\n      tag_327\n      jump\t// in\n    tag_403:\n        /* \"#utility.yul\":18993:19018   */\n      swap3\n      pop\n        /* \"#utility.yul\":19037:19038   */\n      dup3\n        /* \"#utility.yul\":19027:19062   */\n      tag_404\n      jumpi\n        /* \"#utility.yul\":19042:19060   */\n      tag_405\n      tag_406\n      jump\t// in\n    tag_405:\n        /* \"#utility.yul\":19027:19062   */\n    tag_404:\n        /* \"#utility.yul\":19083:19084   */\n      dup3\n        /* \"#utility.yul\":19080:19081   */\n      dup3\n        /* \"#utility.yul\":19076:19085   */\n      mod\n        /* \"#utility.yul\":19071:19085   */\n      swap1\n      pop\n        /* \"#utility.yul\":18915:19091   */\n      swap3\n      swap2\n      pop\n      pop\n      jump\t// out\n        /* \"#utility.yul\":19097:19277   */\n    tag_385:\n        /* \"#utility.yul\":19145:19222   */\n      0x4e487b7100000000000000000000000000000000000000000000000000000000\n        /* \"#utility.yul\":19142:19143   */\n      0x00\n        /* \"#utility.yul\":19135:19223   */\n      mstore\n        /* \"#utility.yul\":19242:19246   */\n      0x11\n        /* \"#utility.yul\":19239:19240   */\n      0x04\n        /* \"#utility.yul\":19232:19247   */\n      mstore\n        /* \"#utility.yul\":19266:19270   */\n      0x24\n        /* \"#utility.yul\":19263:19264   */\n      0x00\n        /* \"#utility.yul\":19256:19271   */\n      revert\n        /* \"#utility.yul\":19283:19463   */\n    tag_406:\n        /* \"#utility.yul\":19331:19408   */\n      0x4e487b7100000000000000000000000000000000000000000000000000000000\n        /* \"#utility.yul\":19328:19329   */\n      0x00\n        /* \"#utility.yul\":19321:19409   */\n      mstore\n        /* \"#utility.yul\":19428:19432   */\n      0x12\n        /* \"#utility.yul\":19425:19426   */\n      0x04\n        /* \"#utility.yul\":19418:19433   */\n      mstore\n        /* \"#utility.yul\":19452:19456   */\n      0x24\n        /* \"#utility.yul\":19449:19450   */\n      0x00\n        /* \"#utility.yul\":19442:19457   */\n      revert\n        /* \"#utility.yul\":19469:19649   */\n    tag_90:\n        /* \"#utility.yul\":19517:19594   */\n      0x4e487b7100000000000000000000000000000000000000000000000000000000\n        /* \"#utility.yul\":19514:19515   */\n      0x00\n        /* \"#utility.yul\":19507:19595   */\n      mstore\n        /* \"#utility.yul\":19614:19618   */\n      0x32\n        /* \"#utility.yul\":19611:19612   */\n      0x04\n        /* \"#utility.yul\":19604:19619   */\n      mstore\n        /* \"#utility.yul\":19638:19642   */\n      0x24\n        /* \"#utility.yul\":19635:19636   */\n      0x00\n        /* \"#utility.yul\":19628:19643   */\n      revert\n        /* \"#utility.yul\":19655:19835   */\n    tag_370:\n        /* \"#utility.yul\":19703:19780   */\n      0x4e487b7100000000000000000000000000000000000000000000000000000000\n        /* \"#utility.yul\":19700:19701   */\n      0x00\n        /* \"#utility.yul\":19693:19781   */\n      mstore\n        /* \"#utility.yul\":19800:19804   */\n      0x41\n        /* \"#utility.yul\":19797:19798   */\n      0x04\n        /* \"#utility.yul\":19790:19805   */\n      mstore\n        /* \"#utility.yul\":19824:19828   */\n      0x24\n        /* \"#utility.yul\":19821:19822   */\n      0x00\n        /* \"#utility.yul\":19814:19829   */\n      revert\n        /* \"#utility.yul\":19841:19958   */\n    tag_204:\n        /* \"#utility.yul\":19950:19951   */\n      0x00\n        /* \"#utility.yul\":19947:19948   */\n      dup1\n        /* \"#utility.yul\":19940:19952   */\n      revert\n        /* \"#utility.yul\":19964:20081   */\n    tag_190:\n        /* \"#utility.yul\":20073:20074   */\n      0x00\n        /* \"#utility.yul\":20070:20071   */\n      dup1\n        /* \"#utility.yul\":20063:20075   */\n      revert\n        /* \"#utility.yul\":20087:20204   */\n    tag_219:\n        /* \"#utility.yul\":20196:20197   */\n      0x00\n        /* \"#utility.yul\":20193:20194   */\n      dup1\n        /* \"#utility.yul\":20186:20198   */\n      revert\n        /* \"#utility.yul\":20210:20327   */\n    tag_212:\n        /* \"#utility.yul\":20319:20320   */\n      0x00\n        /* \"#utility.yul\":20316:20317   */\n      dup1\n        /* \"#utility.yul\":20309:20321   */\n      revert\n        /* \"#utility.yul\":20333:20435   */\n    tag_394:\n        /* \"#utility.yul\":20374:20380   */\n      0x00\n        /* \"#utility.yul\":20425:20427   */\n      0x1f\n        /* \"#utility.yul\":20421:20428   */\n      not\n        /* \"#utility.yul\":20416:20418   */\n      0x1f\n        /* \"#utility.yul\":20409:20414   */\n      dup4\n        /* \"#utility.yul\":20405:20419   */\n      add\n        /* \"#utility.yul\":20401:20429   */\n      and\n        /* \"#utility.yul\":20391:20429   */\n      swap1\n      pop\n        /* \"#utility.yul\":20333:20435   */\n      swap2\n      swap1\n      pop\n      jump\t// out\n        /* \"#utility.yul\":20441:20666   */\n    tag_277:\n        /* \"#utility.yul\":20581:20615   */\n      0x4f776e61626c653a206e6577206f776e657220697320746865207a65726f2061\n        /* \"#utility.yul\":20577:20578   */\n      0x00\n        /* \"#utility.yul\":20569:20575   */\n      dup3\n        /* \"#utility.yul\":20565:20579   */\n      add\n        /* \"#utility.yul\":20558:20616   */\n      mstore\n        /* \"#utility.yul\":20650:20658   */\n      0x6464726573730000000000000000000000000000000000000000000000000000\n        /* \"#utility.yul\":20645:20647   */\n      0x20\n        /* \"#utility.yul\":20637:20643   */\n      dup3\n        /* \"#utility.yul\":20633:20648   */\n      add\n        /* \"#utility.yul\":20626:20659   */\n      mstore\n        /* \"#utility.yul\":20441:20666   */\n      pop\n      jump\t// out\n        /* \"#utility.yul\":20672:20967   */\n    tag_282:\n        /* \"#utility.yul\":20812:20846   */\n      0x43616c6c20746f2074686520626e32353641646420707265636f6d70696c6564\n        /* \"#utility.yul\":20808:20809   */\n      0x00\n        /* \"#utility.yul\":20800:20806   */\n      dup3\n        /* \"#utility.yul\":20796:20810   */\n      add\n        /* \"#utility.yul\":20789:20847   */\n      mstore\n        /* \"#utility.yul\":20881:20915   */\n      0x206661696c6564202870726f6261626c7920616e206f7574206f662067617320\n        /* \"#utility.yul\":20876:20878   */\n      0x20\n        /* \"#utility.yul\":20868:20874   */\n      dup3\n        /* \"#utility.yul\":20864:20879   */\n      add\n        /* \"#utility.yul\":20857:20916   */\n      mstore\n        /* \"#utility.yul\":20950:20959   */\n      0x6572726f723f2900000000000000000000000000000000000000000000000000\n        /* \"#utility.yul\":20945:20947   */\n      0x40\n        /* \"#utility.yul\":20937:20943   */\n      dup3\n        /* \"#utility.yul\":20933:20948   */\n      add\n        /* \"#utility.yul\":20926:20960   */\n      mstore\n        /* \"#utility.yul\":20672:20967   */\n      pop\n      jump\t// out\n        /* \"#utility.yul\":20973:21136   */\n    tag_287:\n        /* \"#utility.yul\":21113:21128   */\n      0x496e76616c696420696e64657800000000000000000000000000000000000000\n        /* \"#utility.yul\":21109:21110   */\n      0x00\n        /* \"#utility.yul\":21101:21107   */\n      dup3\n        /* \"#utility.yul\":21097:21111   */\n      add\n        /* \"#utility.yul\":21090:21129   */\n      mstore\n        /* \"#utility.yul\":20973:21136   */\n      pop\n      jump\t// out\n        /* \"#utility.yul\":21142:21309   */\n    tag_292:\n        /* \"#utility.yul\":21282:21301   */\n      0x626e32353650616972696e67206661696c000000000000000000000000000000\n        /* \"#utility.yul\":21278:21279   */\n      0x00\n        /* \"#utility.yul\":21270:21276   */\n      dup3\n        /* \"#utility.yul\":21266:21280   */\n      add\n        /* \"#utility.yul\":21259:21302   */\n      mstore\n        /* \"#utility.yul\":21142:21309   */\n      pop\n      jump\t// out\n        /* \"#utility.yul\":21315:21497   */\n    tag_297:\n        /* \"#utility.yul\":21455:21489   */\n      0x4f776e61626c653a2063616c6c6572206973206e6f7420746865206f776e6572\n        /* \"#utility.yul\":21451:21452   */\n      0x00\n        /* \"#utility.yul\":21443:21449   */\n      dup3\n        /* \"#utility.yul\":21439:21453   */\n      add\n        /* \"#utility.yul\":21432:21490   */\n      mstore\n        /* \"#utility.yul\":21315:21497   */\n      pop\n      jump\t// out\n        /* \"#utility.yul\":21503:21670   */\n    tag_302:\n        /* \"#utility.yul\":21643:21662   */\n      0x496e76616c696420766b206c656e677468000000000000000000000000000000\n        /* \"#utility.yul\":21639:21640   */\n      0x00\n        /* \"#utility.yul\":21631:21637   */\n      dup3\n        /* \"#utility.yul\":21627:21641   */\n      add\n        /* \"#utility.yul\":21620:21663   */\n      mstore\n        /* \"#utility.yul\":21503:21670   */\n      pop\n      jump\t// out\n        /* \"#utility.yul\":21676:21846   */\n    tag_307:\n        /* \"#utility.yul\":21816:21838   */\n      0x496e76616c69642070726f6f66206c656e677468000000000000000000000000\n        /* \"#utility.yul\":21812:21813   */\n      0x00\n        /* \"#utility.yul\":21804:21810   */\n      dup3\n        /* \"#utility.yul\":21800:21814   */\n      add\n        /* \"#utility.yul\":21793:21839   */\n      mstore\n        /* \"#utility.yul\":21676:21846   */\n      pop\n      jump\t// out\n        /* \"#utility.yul\":21852:22013   */\n    tag_312:\n        /* \"#utility.yul\":21992:22005   */\n      0x766572696679206661696c000000000000000000000000000000000000000000\n        /* \"#utility.yul\":21988:21989   */\n      0x00\n        /* \"#utility.yul\":21980:21986   */\n      dup3\n        /* \"#utility.yul\":21976:21990   */\n      add\n        /* \"#utility.yul\":21969:22006   */\n      mstore\n        /* \"#utility.yul\":21852:22013   */\n      pop\n      jump\t// out\n        /* \"#utility.yul\":22019:22182   */\n    tag_317:\n        /* \"#utility.yul\":22159:22174   */\n      0x626e323536416464206661696c00000000000000000000000000000000000000\n        /* \"#utility.yul\":22155:22156   */\n      0x00\n        /* \"#utility.yul\":22147:22153   */\n      dup3\n        /* \"#utility.yul\":22143:22157   */\n      add\n        /* \"#utility.yul\":22136:22175   */\n      mstore\n        /* \"#utility.yul\":22019:22182   */\n      pop\n      jump\t// out\n        /* \"#utility.yul\":22188:22310   */\n    tag_199:\n        /* \"#utility.yul\":22261:22285   */\n      tag_426\n        /* \"#utility.yul\":22279:22284   */\n      dup2\n        /* \"#utility.yul\":22261:22285   */\n      tag_239\n      jump\t// in\n    tag_426:\n        /* \"#utility.yul\":22254:22259   */\n      dup2\n        /* \"#utility.yul\":22251:22286   */\n      eq\n        /* \"#utility.yul\":22241:22304   */\n      tag_427\n      jumpi\n        /* \"#utility.yul\":22300:22301   */\n      0x00\n        /* \"#utility.yul\":22297:22298   */\n      dup1\n        /* \"#utility.yul\":22290:22302   */\n      revert\n        /* \"#utility.yul\":22241:22304   */\n    tag_427:\n        /* \"#utility.yul\":22188:22310   */\n      pop\n      jump\t// out\n        /* \"#utility.yul\":22316:22438   */\n    tag_208:\n        /* \"#utility.yul\":22389:22413   */\n      tag_429\n        /* \"#utility.yul\":22407:22412   */\n      dup2\n        /* \"#utility.yul\":22389:22413   */\n      tag_327\n      jump\t// in\n    tag_429:\n        /* \"#utility.yul\":22382:22387   */\n      dup2\n        /* \"#utility.yul\":22379:22414   */\n      eq\n        /* \"#utility.yul\":22369:22432   */\n      tag_430\n      jumpi\n        /* \"#utility.yul\":22428:22429   */\n      0x00\n        /* \"#utility.yul\":22425:22426   */\n      dup1\n        /* \"#utility.yul\":22418:22430   */\n      revert\n        /* \"#utility.yul\":22369:22432   */\n    tag_430:\n        /* \"#utility.yul\":22316:22438   */\n      pop\n      jump\t// out\n\n    auxdata: 0xa2646970667358221220ae7b449ef6c32034e03f0d863df9145cd44d830f92b7a1a1d6635ec17b3a1a9f64736f6c63430008070033\n}\n",
				"bytecode": {
					"linkReferences": {},
					"object": "6080604052604051806040016040528060008152602001600081525060036000820151816000015560208201518160010155505060006005553480156200004557600080fd5b5060405162001ca038038062001ca083398181016040528101906200006b9190620002ad565b6200008b6200007f620000ab60201b60201c565b620000b360201b60201c565b8060019080519060200190620000a392919062000177565b505062000404565b600033905090565b60008060009054906101000a900473ffffffffffffffffffffffffffffffffffffffff169050816000806101000a81548173ffffffffffffffffffffffffffffffffffffffff021916908373ffffffffffffffffffffffffffffffffffffffff1602179055508173ffffffffffffffffffffffffffffffffffffffff168173ffffffffffffffffffffffffffffffffffffffff167f8be0079c531659141344cd1fd0a4f28419497f9722a3daafe3b4186f6b6457e060405160405180910390a35050565b828054828255906000526020600020908101928215620001b6579160200282015b82811115620001b557825182559160200191906001019062000198565b5b509050620001c59190620001c9565b5090565b5b80821115620001e4576000816000905550600101620001ca565b5090565b6000620001ff620001f98462000327565b620002fe565b90508083825260208201905082856020860282011115620002255762000224620003ca565b5b60005b858110156200025957816200023e888262000296565b84526020840193506020830192505060018101905062000228565b5050509392505050565b600082601f8301126200027b576200027a620003c5565b5b81516200028d848260208601620001e8565b91505092915050565b600081519050620002a781620003ea565b92915050565b600060208284031215620002c657620002c5620003d4565b5b600082015167ffffffffffffffff811115620002e757620002e6620003cf565b5b620002f58482850162000263565b91505092915050565b60006200030a6200031d565b905062000318828262000360565b919050565b6000604051905090565b600067ffffffffffffffff82111562000345576200034462000396565b5b602082029050602081019050919050565b6000819050919050565b6200036b82620003d9565b810181811067ffffffffffffffff821117156200038d576200038c62000396565b5b80604052505050565b7f4e487b7100000000000000000000000000000000000000000000000000000000600052604160045260246000fd5b600080fd5b600080fd5b600080fd5b600080fd5b6000601f19601f8301169050919050565b620003f58162000356565b81146200040157600080fd5b50565b61188c80620004146000396000f3fe6080604052600436106100865760003560e01c80638da5cb5b116100595780638da5cb5b14610123578063def596ef1461014e578063f123b45a14610179578063f2fde38b146101a9578063f5c13593146101d257610086565b80630651a1241461008b578063068a2253146100b6578063621a9326146100e1578063715018a61461010c575b600080fd5b34801561009757600080fd5b506100a0610202565b6040516100ad9190611333565b60405180910390f35b3480156100c257600080fd5b506100cb610230565b6040516100d891906111b4565b60405180910390f35b3480156100ed57600080fd5b506100f66102a3565b604051610103919061134e565b60405180910390f35b34801561011857600080fd5b506101216102ad565b005b34801561012f57600080fd5b506101386102c1565b6040516101459190611199565b60405180910390f35b34801561015a57600080fd5b506101636102ea565b60405161017091906111d6565b60405180910390f35b610193600480360381019061018e9190610e7c565b610342565b6040516101a091906111f8565b60405180910390f35b3480156101b557600080fd5b506101d060048036038101906101cb9190610e06565b61056e565b005b6101ec60048036038101906101e79190610e33565b6105f2565b6040516101f9919061134e565b60405180910390f35b61020a610cdf565b600360405180604001604052908160008201548152602001600182015481525050905090565b60606002805480602002602001604051908101604052809291908181526020016000905b8282101561029a57838290600052602060002090600202016040518060400160405290816000820154815260200160018201548152505081526020019060010190610254565b50505050905090565b6000600554905090565b6102b5610776565b6102bf60006107f4565b565b60008060009054906101000a900473ffffffffffffffffffffffffffffffffffffffff16905090565b6060600180548060200260200160405190810160405280929190818152602001828054801561033857602002820191906000526020600020905b815481526020019060010190808311610324575b5050505050905090565b600061034c610776565b6005548310610390576040517f08c379a000000000000000000000000000000000000000000000000000000000815260040161038790611253565b60405180910390fd5b61039b6001836108b8565b6103da576040517f08c379a00000000000000000000000000000000000000000000000000000000081526004016103d1906112f3565b60405180910390fd5b6103e2610cdf565b61045460036040518060400160405290816000820154815260200160018201548152505061044f6002878154811061041d5761041c6115c2565b5b906000526020600020906002020160405180604001604052908160008201548152602001600182015481525050610b3e565b610be3565b90508260088151811061046a576104696115c2565b5b602002602001015160028581548110610486576104856115c2565b5b906000526020600020906002020160000181905550826009815181106104af576104ae6115c2565b5b6020026020010151600285815481106104cb576104ca6115c2565b5b90600052602060002090600202016001018190555061054a60036040518060400160405290816000820154815260200160018201548152505060028681548110610518576105176115c2565b5b906000526020600020906002020160405180604001604052908160008201548152602001600182015481525050610be3565b60036000820151816000015560208201518160010155905050600191505092915050565b610576610776565b600073ffffffffffffffffffffffffffffffffffffffff168173ffffffffffffffffffffffffffffffffffffffff1614156105e6576040517f08c379a00000000000000000000000000000000000000000000000000000000081526004016105dd90611213565b60405180910390fd5b6105ef816107f4565b50565b60006105fc610776565b6106076001836108b8565b610646576040517f08c379a000000000000000000000000000000000000000000000000000000000815260040161063d906112f3565b60405180910390fd5b6000604051806040016040528084600881518110610667576106666115c2565b5b6020026020010151815260200184600981518110610688576106876115c2565b5b60200260200101518152509050600281908060018154018082558091505060019003906000526020600020906002020160009091909190915060008201518160000155602082015181600101555050600081600001511480156106ef575060008160200151145b15610713578060036000820151816000015560208201518160010155905050610757565b61073d60036040518060400160405290816000820154815260200160018201548152505082610be3565b600360008201518160000155602082015181600101559050505b6005600081548092919061076a906114ea565b91905055915050919050565b61077e610cd7565b73ffffffffffffffffffffffffffffffffffffffff1661079c6102c1565b73ffffffffffffffffffffffffffffffffffffffff16146107f2576040517f08c379a00000000000000000000000000000000000000000000000000000000081526004016107e990611293565b60405180910390fd5b565b60008060009054906101000a900473ffffffffffffffffffffffffffffffffffffffff169050816000806101000a81548173ffffffffffffffffffffffffffffffffffffffff021916908373ffffffffffffffffffffffffffffffffffffffff1602179055508173ffffffffffffffffffffffffffffffffffffffff168173ffffffffffffffffffffffffffffffffffffffff167f8be0079c531659141344cd1fd0a4f28419497f9722a3daafe3b4186f6b6457e060405160405180910390a35050565b6000600a8251146108fe576040517f08c379a00000000000000000000000000000000000000000000000000000000081526004016108f5906112d3565b60405180910390fd5b6010838054905014610945576040517f08c379a000000000000000000000000000000000000000000000000000000000815260040161093c906112b3565b60405180910390fd5b600061094f610cf9565b6000600190506020850186835260208320935061010081015183526101208101516020840152600a8401546040840152600b840154606084015260406102408401608085600060065af1915050806109dc576040517f08c379a00000000000000000000000000000000000000000000000000000000081526004016109d390611313565b60405180910390fd5b60208501805183526020810151602084015260408101516040840152606081015160608401526080810151608084015260a081015160a0840152835460c0840152600184015460e0840152600284015461010084015260038401546101208401526004840154610140840152600584015461016084015260c081015161018084015260e08101516101a084015260068401546101c084015260078401546101e084015260088401546102008401526009840154610220840152600c840154610280840152600d8401546102a0840152600e8401546102c0840152600f8401546102e084015260208361030085600060086107d05a03f1821691505080610b17576040517f08c379a0000000000000000000000000000000000000000000000000000000008152600401610b0e90611273565b60405180910390fd5b600182600060188110610b2d57610b2c6115c2565b5b602002015114935050505092915050565b610b46610cdf565b60007f30644e72e131a029b85045b68181585d97816a916871ca8d3c208c16d87cfd47905060008360000151148015610b83575060008360200151145b15610ba7576040518060400160405280600081526020016000815250915050610bde565b604051806040016040528084600001518152602001828560200151610bcc9190611533565b83610bd7919061143d565b8152509150505b919050565b610beb610cdf565b610bf3610d1c565b836000015181600060048110610c0c57610c0b6115c2565b5b602002018181525050836020015181600160048110610c2e57610c2d6115c2565b5b602002018181525050826000015181600260048110610c5057610c4f6115c2565b5b602002018181525050826020015181600360048110610c7257610c716115c2565b5b6020020181815250506000604083608084600060066107d05a03f1905080610ccf576040517f08c379a0000000000000000000000000000000000000000000000000000000008152600401610cc690611233565b60405180910390fd5b505092915050565b600033905090565b604051806040016040528060008152602001600081525090565b604051806103000160405280601890602082028036833780820191505090505090565b6040518060800160405280600490602082028036833780820191505090505090565b6000610d51610d4c8461138e565b611369565b90508083825260208201905082856020860282011115610d7457610d73611625565b5b60005b85811015610da45781610d8a8882610df1565b845260208401935060208301925050600181019050610d77565b5050509392505050565b600081359050610dbd81611828565b92915050565b600082601f830112610dd857610dd7611620565b5b8135610de8848260208601610d3e565b91505092915050565b600081359050610e008161183f565b92915050565b600060208284031215610e1c57610e1b61162f565b5b6000610e2a84828501610dae565b91505092915050565b600060208284031215610e4957610e4861162f565b5b600082013567ffffffffffffffff811115610e6757610e6661162a565b5b610e7384828501610dc3565b91505092915050565b60008060408385031215610e9357610e9261162f565b5b6000610ea185828601610df1565b925050602083013567ffffffffffffffff811115610ec257610ec161162a565b5b610ece85828601610dc3565b9150509250929050565b6000610ee4838361111d565b60408301905092915050565b6000610efc838361117b565b60208301905092915050565b610f1181611471565b82525050565b6000610f22826113da565b610f2c818561140a565b9350610f37836113ba565b8060005b83811015610f68578151610f4f8882610ed8565b9750610f5a836113f0565b925050600181019050610f3b565b5085935050505092915050565b6000610f80826113e5565b610f8a818561141b565b9350610f95836113ca565b8060005b83811015610fc6578151610fad8882610ef0565b9750610fb8836113fd565b925050600181019050610f99565b5085935050505092915050565b610fdc81611483565b82525050565b6000610fef60268361142c565b9150610ffa82611645565b604082019050919050565b600061101260478361142c565b915061101d82611694565b606082019050919050565b6000611035600d8361142c565b915061104082611709565b602082019050919050565b600061105860118361142c565b915061106382611732565b602082019050919050565b600061107b60208361142c565b91506110868261175b565b602082019050919050565b600061109e60118361142c565b91506110a982611784565b602082019050919050565b60006110c160148361142c565b91506110cc826117ad565b602082019050919050565b60006110e4600b8361142c565b91506110ef826117d6565b602082019050919050565b6000611107600d8361142c565b9150611112826117ff565b602082019050919050565b604082016000820151611133600085018261117b565b506020820151611146602085018261117b565b50505050565b604082016000820151611162600085018261117b565b506020820151611175602085018261117b565b50505050565b611184816114af565b82525050565b611193816114af565b82525050565b60006020820190506111ae6000830184610f08565b92915050565b600060208201905081810360008301526111ce8184610f17565b905092915050565b600060208201905081810360008301526111f08184610f75565b905092915050565b600060208201905061120d6000830184610fd3565b92915050565b6000602082019050818103600083015261122c81610fe2565b9050919050565b6000602082019050818103600083015261124c81611005565b9050919050565b6000602082019050818103600083015261126c81611028565b9050919050565b6000602082019050818103600083015261128c8161104b565b9050919050565b600060208201905081810360008301526112ac8161106e565b9050919050565b600060208201905081810360008301526112cc81611091565b9050919050565b600060208201905081810360008301526112ec816110b4565b9050919050565b6000602082019050818103600083015261130c816110d7565b9050919050565b6000602082019050818103600083015261132c816110fa565b9050919050565b6000604082019050611348600083018461114c565b92915050565b6000602082019050611363600083018461118a565b92915050565b6000611373611384565b905061137f82826114b9565b919050565b6000604051905090565b600067ffffffffffffffff8211156113a9576113a86115f1565b5b602082029050602081019050919050565b6000819050602082019050919050565b6000819050602082019050919050565b600081519050919050565b600081519050919050565b6000602082019050919050565b6000602082019050919050565b600082825260208201905092915050565b600082825260208201905092915050565b600082825260208201905092915050565b6000611448826114af565b9150611453836114af565b92508282101561146657611465611564565b5b828203905092915050565b600061147c8261148f565b9050919050565b60008115159050919050565b600073ffffffffffffffffffffffffffffffffffffffff82169050919050565b6000819050919050565b6114c282611634565b810181811067ffffffffffffffff821117156114e1576114e06115f1565b5b80604052505050565b60006114f5826114af565b91507fffffffffffffffffffffffffffffffffffffffffffffffffffffffffffffffff82141561152857611527611564565b5b600182019050919050565b600061153e826114af565b9150611549836114af565b92508261155957611558611593565b5b828206905092915050565b7f4e487b7100000000000000000000000000000000000000000000000000000000600052601160045260246000fd5b7f4e487b7100000000000000000000000000000000000000000000000000000000600052601260045260246000fd5b7f4e487b7100000000000000000000000000000000000000000000000000000000600052603260045260246000fd5b7f4e487b7100000000000000000000000000000000000000000000000000000000600052604160045260246000fd5b600080fd5b600080fd5b600080fd5b600080fd5b6000601f19601f8301169050919050565b7f4f776e61626c653a206e6577206f776e657220697320746865207a65726f206160008201527f6464726573730000000000000000000000000000000000000000000000000000602082015250565b7f43616c6c20746f2074686520626e32353641646420707265636f6d70696c656460008201527f206661696c6564202870726f6261626c7920616e206f7574206f66206761732060208201527f6572726f723f2900000000000000000000000000000000000000000000000000604082015250565b7f496e76616c696420696e64657800000000000000000000000000000000000000600082015250565b7f626e32353650616972696e67206661696c000000000000000000000000000000600082015250565b7f4f776e61626c653a2063616c6c6572206973206e6f7420746865206f776e6572600082015250565b7f496e76616c696420766b206c656e677468000000000000000000000000000000600082015250565b7f496e76616c69642070726f6f66206c656e677468000000000000000000000000600082015250565b7f766572696679206661696c000000000000000000000000000000000000000000600082015250565b7f626e323536416464206661696c00000000000000000000000000000000000000600082015250565b61183181611471565b811461183c57600080fd5b50565b611848816114af565b811461185357600080fd5b5056fea2646970667358221220ae7b449ef6c32034e03f0d863df9145cd44d830f92b7a1a1d6635ec17b3a1a9f64736f6c63430008070033",
					"opcodes": "PUSH1 0x80 PUSH1 0x40 MSTORE PUSH1 0x40 MLOAD DUP1 PUSH1 0x40 ADD PUSH1 0x40 MSTORE DUP1 PUSH1 0x0 DUP2 MSTORE PUSH1 0x20 ADD PUSH1 0x0 DUP2 MSTORE POP PUSH1 0x3 PUSH1 0x0 DUP3 ADD MLOAD DUP2 PUSH1 0x0 ADD SSTORE PUSH1 0x20 DUP3 ADD MLOAD DUP2 PUSH1 0x1 ADD SSTORE POP POP PUSH1 0x0 PUSH1 0x5 SSTORE CALLVALUE DUP1 ISZERO PUSH3 0x45 JUMPI PUSH1 0x0 DUP1 REVERT JUMPDEST POP PUSH1 0x40 MLOAD PUSH3 0x1CA0 CODESIZE SUB DUP1 PUSH3 0x1CA0 DUP4 CODECOPY DUP2 DUP2 ADD PUSH1 0x40 MSTORE DUP2 ADD SWAP1 PUSH3 0x6B SWAP2 SWAP1 PUSH3 0x2AD JUMP JUMPDEST PUSH3 0x8B PUSH3 0x7F PUSH3 0xAB PUSH1 0x20 SHL PUSH1 0x20 SHR JUMP JUMPDEST PUSH3 0xB3 PUSH1 0x20 SHL PUSH1 0x20 SHR JUMP JUMPDEST DUP1 PUSH1 0x1 SWAP1 DUP1 MLOAD SWAP1 PUSH1 0x20 ADD SWAP1 PUSH3 0xA3 SWAP3 SWAP2 SWAP1 PUSH3 0x177 JUMP JUMPDEST POP POP PUSH3 0x404 JUMP JUMPDEST PUSH1 0x0 CALLER SWAP1 POP SWAP1 JUMP JUMPDEST PUSH1 0x0 DUP1 PUSH1 0x0 SWAP1 SLOAD SWAP1 PUSH2 0x100 EXP SWAP1 DIV PUSH20 0xFFFFFFFFFFFFFFFFFFFFFFFFFFFFFFFFFFFFFFFF AND SWAP1 POP DUP2 PUSH1 0x0 DUP1 PUSH2 0x100 EXP DUP2 SLOAD DUP2 PUSH20 0xFFFFFFFFFFFFFFFFFFFFFFFFFFFFFFFFFFFFFFFF MUL NOT AND SWAP1 DUP4 PUSH20 0xFFFFFFFFFFFFFFFFFFFFFFFFFFFFFFFFFFFFFFFF AND MUL OR SWAP1 SSTORE POP DUP2 PUSH20 0xFFFFFFFFFFFFFFFFFFFFFFFFFFFFFFFFFFFFFFFF AND DUP2 PUSH20 0xFFFFFFFFFFFFFFFFFFFFFFFFFFFFFFFFFFFFFFFF AND PUSH32 0x8BE0079C531659141344CD1FD0A4F28419497F9722A3DAAFE3B4186F6B6457E0 PUSH1 0x40 MLOAD PUSH1 0x40 MLOAD DUP1 SWAP2 SUB SWAP1 LOG3 POP POP JUMP JUMPDEST DUP3 DUP1 SLOAD DUP3 DUP3 SSTORE SWAP1 PUSH1 0x0 MSTORE PUSH1 0x20 PUSH1 0x0 KECCAK256 SWAP1 DUP2 ADD SWAP3 DUP3 ISZERO PUSH3 0x1B6 JUMPI SWAP2 PUSH1 0x20 MUL DUP3 ADD JUMPDEST DUP3 DUP2 GT ISZERO PUSH3 0x1B5 JUMPI DUP3 MLOAD DUP3 SSTORE SWAP2 PUSH1 0x20 ADD SWAP2 SWAP1 PUSH1 0x1 ADD SWAP1 PUSH3 0x198 JUMP JUMPDEST JUMPDEST POP SWAP1 POP PUSH3 0x1C5 SWAP2 SWAP1 PUSH3 0x1C9 JUMP JUMPDEST POP SWAP1 JUMP JUMPDEST JUMPDEST DUP1 DUP3 GT ISZERO PUSH3 0x1E4 JUMPI PUSH1 0x0 DUP2 PUSH1 0x0 SWAP1 SSTORE POP PUSH1 0x1 ADD PUSH3 0x1CA JUMP JUMPDEST POP SWAP1 JUMP JUMPDEST PUSH1 0x0 PUSH3 0x1FF PUSH3 0x1F9 DUP5 PUSH3 0x327 JUMP JUMPDEST PUSH3 0x2FE JUMP JUMPDEST SWAP1 POP DUP1 DUP4 DUP3 MSTORE PUSH1 0x20 DUP3 ADD SWAP1 POP DUP3 DUP6 PUSH1 0x20 DUP7 MUL DUP3 ADD GT ISZERO PUSH3 0x225 JUMPI PUSH3 0x224 PUSH3 0x3CA JUMP JUMPDEST JUMPDEST PUSH1 0x0 JUMPDEST DUP6 DUP2 LT ISZERO PUSH3 0x259 JUMPI DUP2 PUSH3 0x23E DUP9 DUP3 PUSH3 0x296 JUMP JUMPDEST DUP5 MSTORE PUSH1 0x20 DUP5 ADD SWAP4 POP PUSH1 0x20 DUP4 ADD SWAP3 POP POP PUSH1 0x1 DUP2 ADD SWAP1 POP PUSH3 0x228 JUMP JUMPDEST POP POP POP SWAP4 SWAP3 POP POP POP JUMP JUMPDEST PUSH1 0x0 DUP3 PUSH1 0x1F DUP4 ADD SLT PUSH3 0x27B JUMPI PUSH3 0x27A PUSH3 0x3C5 JUMP JUMPDEST JUMPDEST DUP2 MLOAD PUSH3 0x28D DUP5 DUP3 PUSH1 0x20 DUP7 ADD PUSH3 0x1E8 JUMP JUMPDEST SWAP2 POP POP SWAP3 SWAP2 POP POP JUMP JUMPDEST PUSH1 0x0 DUP2 MLOAD SWAP1 POP PUSH3 0x2A7 DUP2 PUSH3 0x3EA JUMP JUMPDEST SWAP3 SWAP2 POP POP JUMP JUMPDEST PUSH1 0x0 PUSH1 0x20 DUP3 DUP5 SUB SLT ISZERO PUSH3 0x2C6 JUMPI PUSH3 0x2C5 PUSH3 0x3D4 JUMP JUMPDEST JUMPDEST PUSH1 0x0 DUP3 ADD MLOAD PUSH8 0xFFFFFFFFFFFFFFFF DUP2 GT ISZERO PUSH3 0x2E7 JUMPI PUSH3 0x2E6 PUSH3 0x3CF JUMP JUMPDEST JUMPDEST PUSH3 0x2F5 DUP5 DUP3 DUP6 ADD PUSH3 0x263 JUMP JUMPDEST SWAP2 POP POP SWAP3 SWAP2 POP POP JUMP JUMPDEST PUSH1 0x0 PUSH3 0x30A PUSH3 0x31D JUMP JUMPDEST SWAP1 POP PUSH3 0x318 DUP3 DUP3 PUSH3 0x360 JUMP JUMPDEST SWAP2 SWAP1 POP JUMP JUMPDEST PUSH1 0x0 PUSH1 0x40 MLOAD SWAP1 POP SWAP1 JUMP JUMPDEST PUSH1 0x0 PUSH8 0xFFFFFFFFFFFFFFFF DUP3 GT ISZERO PUSH3 0x345 JUMPI PUSH3 0x344 PUSH3 0x396 JUMP JUMPDEST JUMPDEST PUSH1 0x20 DUP3 MUL SWAP1 POP PUSH1 0x20 DUP2 ADD SWAP1 POP SWAP2 SWAP1 POP JUMP JUMPDEST PUSH1 0x0 DUP2 SWAP1 POP SWAP2 SWAP1 POP JUMP JUMPDEST PUSH3 0x36B DUP3 PUSH3 0x3D9 JUMP JUMPDEST DUP2 ADD DUP2 DUP2 LT PUSH8 0xFFFFFFFFFFFFFFFF DUP3 GT OR ISZERO PUSH3 0x38D JUMPI PUSH3 0x38C PUSH3 0x396 JUMP JUMPDEST JUMPDEST DUP1 PUSH1 0x40 MSTORE POP POP POP JUMP JUMPDEST PUSH32 0x4E487B7100000000000000000000000000000000000000000000000000000000 PUSH1 0x0 MSTORE PUSH1 0x41 PUSH1 0x4 MSTORE PUSH1 0x24 PUSH1 0x0 REVERT JUMPDEST PUSH1 0x0 DUP1 REVERT JUMPDEST PUSH1 0x0 DUP1 REVERT JUMPDEST PUSH1 0x0 DUP1 REVERT JUMPDEST PUSH1 0x0 DUP1 REVERT JUMPDEST PUSH1 0x0 PUSH1 0x1F NOT PUSH1 0x1F DUP4 ADD AND SWAP1 POP SWAP2 SWAP1 POP JUMP JUMPDEST PUSH3 0x3F5 DUP2 PUSH3 0x356 JUMP JUMPDEST DUP2 EQ PUSH3 0x401 JUMPI PUSH1 0x0 DUP1 REVERT JUMPDEST POP JUMP JUMPDEST PUSH2 0x188C DUP1 PUSH3 0x414 PUSH1 0x0 CODECOPY PUSH1 0x0 RETURN INVALID PUSH1 0x80 PUSH1 0x40 MSTORE PUSH1 0x4 CALLDATASIZE LT PUSH2 0x86 JUMPI PUSH1 0x0 CALLDATALOAD PUSH1 0xE0 SHR DUP1 PUSH4 0x8DA5CB5B GT PUSH2 0x59 JUMPI DUP1 PUSH4 0x8DA5CB5B EQ PUSH2 0x123 JUMPI DUP1 PUSH4 0xDEF596EF EQ PUSH2 0x14E JUMPI DUP1 PUSH4 0xF123B45A EQ PUSH2 0x179 JUMPI DUP1 PUSH4 0xF2FDE38B EQ PUSH2 0x1A9 JUMPI DUP1 PUSH4 0xF5C13593 EQ PUSH2 0x1D2 JUMPI PUSH2 0x86 JUMP JUMPDEST DUP1 PUSH4 0x651A124 EQ PUSH2 0x8B JUMPI DUP1 PUSH4 0x68A2253 EQ PUSH2 0xB6 JUMPI DUP1 PUSH4 0x621A9326 EQ PUSH2 0xE1 JUMPI DUP1 PUSH4 0x715018A6 EQ PUSH2 0x10C JUMPI JUMPDEST PUSH1 0x0 DUP1 REVERT JUMPDEST CALLVALUE DUP1 ISZERO PUSH2 0x97 JUMPI PUSH1 0x0 DUP1 REVERT JUMPDEST POP PUSH2 0xA0 PUSH2 0x202 JUMP JUMPDEST PUSH1 0x40 MLOAD PUSH2 0xAD SWAP2 SWAP1 PUSH2 0x1333 JUMP JUMPDEST PUSH1 0x40 MLOAD DUP1 SWAP2 SUB SWAP1 RETURN JUMPDEST CALLVALUE DUP1 ISZERO PUSH2 0xC2 JUMPI PUSH1 0x0 DUP1 REVERT JUMPDEST POP PUSH2 0xCB PUSH2 0x230 JUMP JUMPDEST PUSH1 0x40 MLOAD PUSH2 0xD8 SWAP2 SWAP1 PUSH2 0x11B4 JUMP JUMPDEST PUSH1 0x40 MLOAD DUP1 SWAP2 SUB SWAP1 RETURN JUMPDEST CALLVALUE DUP1 ISZERO PUSH2 0xED JUMPI PUSH1 0x0 DUP1 REVERT JUMPDEST POP PUSH2 0xF6 PUSH2 0x2A3 JUMP JUMPDEST PUSH1 0x40 MLOAD PUSH2 0x103 SWAP2 SWAP1 PUSH2 0x134E JUMP JUMPDEST PUSH1 0x40 MLOAD DUP1 SWAP2 SUB SWAP1 RETURN JUMPDEST CALLVALUE DUP1 ISZERO PUSH2 0x118 JUMPI PUSH1 0x0 DUP1 REVERT JUMPDEST POP PUSH2 0x121 PUSH2 0x2AD JUMP JUMPDEST STOP JUMPDEST CALLVALUE DUP1 ISZERO PUSH2 0x12F JUMPI PUSH1 0x0 DUP1 REVERT JUMPDEST POP PUSH2 0x138 PUSH2 0x2C1 JUMP JUMPDEST PUSH1 0x40 MLOAD PUSH2 0x145 SWAP2 SWAP1 PUSH2 0x1199 JUMP JUMPDEST PUSH1 0x40 MLOAD DUP1 SWAP2 SUB SWAP1 RETURN JUMPDEST CALLVALUE DUP1 ISZERO PUSH2 0x15A JUMPI PUSH1 0x0 DUP1 REVERT JUMPDEST POP PUSH2 0x163 PUSH2 0x2EA JUMP JUMPDEST PUSH1 0x40 MLOAD PUSH2 0x170 SWAP2 SWAP1 PUSH2 0x11D6 JUMP JUMPDEST PUSH1 0x40 MLOAD DUP1 SWAP2 SUB SWAP1 RETURN JUMPDEST PUSH2 0x193 PUSH1 0x4 DUP1 CALLDATASIZE SUB DUP2 ADD SWAP1 PUSH2 0x18E SWAP2 SWAP1 PUSH2 0xE7C JUMP JUMPDEST PUSH2 0x342 JUMP JUMPDEST PUSH1 0x40 MLOAD PUSH2 0x1A0 SWAP2 SWAP1 PUSH2 0x11F8 JUMP JUMPDEST PUSH1 0x40 MLOAD DUP1 SWAP2 SUB SWAP1 RETURN JUMPDEST CALLVALUE DUP1 ISZERO PUSH2 0x1B5 JUMPI PUSH1 0x0 DUP1 REVERT JUMPDEST POP PUSH2 0x1D0 PUSH1 0x4 DUP1 CALLDATASIZE SUB DUP2 ADD SWAP1 PUSH2 0x1CB SWAP2 SWAP1 PUSH2 0xE06 JUMP JUMPDEST PUSH2 0x56E JUMP JUMPDEST STOP JUMPDEST PUSH2 0x1EC PUSH1 0x4 DUP1 CALLDATASIZE SUB DUP2 ADD SWAP1 PUSH2 0x1E7 SWAP2 SWAP1 PUSH2 0xE33 JUMP JUMPDEST PUSH2 0x5F2 JUMP JUMPDEST PUSH1 0x40 MLOAD PUSH2 0x1F9 SWAP2 SWAP1 PUSH2 0x134E JUMP JUMPDEST PUSH1 0x40 MLOAD DUP1 SWAP2 SUB SWAP1 RETURN JUMPDEST PUSH2 0x20A PUSH2 0xCDF JUMP JUMPDEST PUSH1 0x3 PUSH1 0x40 MLOAD DUP1 PUSH1 0x40 ADD PUSH1 0x40 MSTORE SWAP1 DUP2 PUSH1 0x0 DUP3 ADD SLOAD DUP2 MSTORE PUSH1 0x20 ADD PUSH1 0x1 DUP3 ADD SLOAD DUP2 MSTORE POP POP SWAP1 POP SWAP1 JUMP JUMPDEST PUSH1 0x60 PUSH1 0x2 DUP1 SLOAD DUP1 PUSH1 0x20 MUL PUSH1 0x20 ADD PUSH1 0x40 MLOAD SWAP1 DUP2 ADD PUSH1 0x40 MSTORE DUP1 SWAP3 SWAP2 SWAP1 DUP2 DUP2 MSTORE PUSH1 0x20 ADD PUSH1 0x0 SWAP1 JUMPDEST DUP3 DUP3 LT ISZERO PUSH2 0x29A JUMPI DUP4 DUP3 SWAP1 PUSH1 0x0 MSTORE PUSH1 0x20 PUSH1 0x0 KECCAK256 SWAP1 PUSH1 0x2 MUL ADD PUSH1 0x40 MLOAD DUP1 PUSH1 0x40 ADD PUSH1 0x40 MSTORE SWAP1 DUP2 PUSH1 0x0 DUP3 ADD SLOAD DUP2 MSTORE PUSH1 0x20 ADD PUSH1 0x1 DUP3 ADD SLOAD DUP2 MSTORE POP POP DUP2 MSTORE PUSH1 0x20 ADD SWAP1 PUSH1 0x1 ADD SWAP1 PUSH2 0x254 JUMP JUMPDEST POP POP POP POP SWAP1 POP SWAP1 JUMP JUMPDEST PUSH1 0x0 PUSH1 0x5 SLOAD SWAP1 POP SWAP1 JUMP JUMPDEST PUSH2 0x2B5 PUSH2 0x776 JUMP JUMPDEST PUSH2 0x2BF PUSH1 0x0 PUSH2 0x7F4 JUMP JUMPDEST JUMP JUMPDEST PUSH1 0x0 DUP1 PUSH1 0x0 SWAP1 SLOAD SWAP1 PUSH2 0x100 EXP SWAP1 DIV PUSH20 0xFFFFFFFFFFFFFFFFFFFFFFFFFFFFFFFFFFFFFFFF AND SWAP1 POP SWAP1 JUMP JUMPDEST PUSH1 0x60 PUSH1 0x1 DUP1 SLOAD DUP1 PUSH1 0x20 MUL PUSH1 0x20 ADD PUSH1 0x40 MLOAD SWAP1 DUP2 ADD PUSH1 0x40 MSTORE DUP1 SWAP3 SWAP2 SWAP1 DUP2 DUP2 MSTORE PUSH1 0x20 ADD DUP3 DUP1 SLOAD DUP1 ISZERO PUSH2 0x338 JUMPI PUSH1 0x20 MUL DUP3 ADD SWAP2 SWAP1 PUSH1 0x0 MSTORE PUSH1 0x20 PUSH1 0x0 KECCAK256 SWAP1 JUMPDEST DUP2 SLOAD DUP2 MSTORE PUSH1 0x20 ADD SWAP1 PUSH1 0x1 ADD SWAP1 DUP1 DUP4 GT PUSH2 0x324 JUMPI JUMPDEST POP POP POP POP POP SWAP1 POP SWAP1 JUMP JUMPDEST PUSH1 0x0 PUSH2 0x34C PUSH2 0x776 JUMP JUMPDEST PUSH1 0x5 SLOAD DUP4 LT PUSH2 0x390 JUMPI PUSH1 0x40 MLOAD PUSH32 0x8C379A000000000000000000000000000000000000000000000000000000000 DUP2 MSTORE PUSH1 0x4 ADD PUSH2 0x387 SWAP1 PUSH2 0x1253 JUMP JUMPDEST PUSH1 0x40 MLOAD DUP1 SWAP2 SUB SWAP1 REVERT JUMPDEST PUSH2 0x39B PUSH1 0x1 DUP4 PUSH2 0x8B8 JUMP JUMPDEST PUSH2 0x3DA JUMPI PUSH1 0x40 MLOAD PUSH32 0x8C379A000000000000000000000000000000000000000000000000000000000 DUP2 MSTORE PUSH1 0x4 ADD PUSH2 0x3D1 SWAP1 PUSH2 0x12F3 JUMP JUMPDEST PUSH1 0x40 MLOAD DUP1 SWAP2 SUB SWAP1 REVERT JUMPDEST PUSH2 0x3E2 PUSH2 0xCDF JUMP JUMPDEST PUSH2 0x454 PUSH1 0x3 PUSH1 0x40 MLOAD DUP1 PUSH1 0x40 ADD PUSH1 0x40 MSTORE SWAP1 DUP2 PUSH1 0x0 DUP3 ADD SLOAD DUP2 MSTORE PUSH1 0x20 ADD PUSH1 0x1 DUP3 ADD SLOAD DUP2 MSTORE POP POP PUSH2 0x44F PUSH1 0x2 DUP8 DUP2 SLOAD DUP2 LT PUSH2 0x41D JUMPI PUSH2 0x41C PUSH2 0x15C2 JUMP JUMPDEST JUMPDEST SWAP1 PUSH1 0x0 MSTORE PUSH1 0x20 PUSH1 0x0 KECCAK256 SWAP1 PUSH1 0x2 MUL ADD PUSH1 0x40 MLOAD DUP1 PUSH1 0x40 ADD PUSH1 0x40 MSTORE SWAP1 DUP2 PUSH1 0x0 DUP3 ADD SLOAD DUP2 MSTORE PUSH1 0x20 ADD PUSH1 0x1 DUP3 ADD SLOAD DUP2 MSTORE POP POP PUSH2 0xB3E JUMP JUMPDEST PUSH2 0xBE3 JUMP JUMPDEST SWAP1 POP DUP3 PUSH1 0x8 DUP2 MLOAD DUP2 LT PUSH2 0x46A JUMPI PUSH2 0x469 PUSH2 0x15C2 JUMP JUMPDEST JUMPDEST PUSH1 0x20 MUL PUSH1 0x20 ADD ADD MLOAD PUSH1 0x2 DUP6 DUP2 SLOAD DUP2 LT PUSH2 0x486 JUMPI PUSH2 0x485 PUSH2 0x15C2 JUMP JUMPDEST JUMPDEST SWAP1 PUSH1 0x0 MSTORE PUSH1 0x20 PUSH1 0x0 KECCAK256 SWAP1 PUSH1 0x2 MUL ADD PUSH1 0x0 ADD DUP2 SWAP1 SSTORE POP DUP3 PUSH1 0x9 DUP2 MLOAD DUP2 LT PUSH2 0x4AF JUMPI PUSH2 0x4AE PUSH2 0x15C2 JUMP JUMPDEST JUMPDEST PUSH1 0x20 MUL PUSH1 0x20 ADD ADD MLOAD PUSH1 0x2 DUP6 DUP2 SLOAD DUP2 LT PUSH2 0x4CB JUMPI PUSH2 0x4CA PUSH2 0x15C2 JUMP JUMPDEST JUMPDEST SWAP1 PUSH1 0x0 MSTORE PUSH1 0x20 PUSH1 0x0 KECCAK256 SWAP1 PUSH1 0x2 MUL ADD PUSH1 0x1 ADD DUP2 SWAP1 SSTORE POP PUSH2 0x54A PUSH1 0x3 PUSH1 0x40 MLOAD DUP1 PUSH1 0x40 ADD PUSH1 0x40 MSTORE SWAP1 DUP2 PUSH1 0x0 DUP3 ADD SLOAD DUP2 MSTORE PUSH1 0x20 ADD PUSH1 0x1 DUP3 ADD SLOAD DUP2 MSTORE POP POP PUSH1 0x2 DUP7 DUP2 SLOAD DUP2 LT PUSH2 0x518 JUMPI PUSH2 0x517 PUSH2 0x15C2 JUMP JUMPDEST JUMPDEST SWAP1 PUSH1 0x0 MSTORE PUSH1 0x20 PUSH1 0x0 KECCAK256 SWAP1 PUSH1 0x2 MUL ADD PUSH1 0x40 MLOAD DUP1 PUSH1 0x40 ADD PUSH1 0x40 MSTORE SWAP1 DUP2 PUSH1 0x0 DUP3 ADD SLOAD DUP2 MSTORE PUSH1 0x20 ADD PUSH1 0x1 DUP3 ADD SLOAD DUP2 MSTORE POP POP PUSH2 0xBE3 JUMP JUMPDEST PUSH1 0x3 PUSH1 0x0 DUP3 ADD MLOAD DUP2 PUSH1 0x0 ADD SSTORE PUSH1 0x20 DUP3 ADD MLOAD DUP2 PUSH1 0x1 ADD SSTORE SWAP1 POP POP PUSH1 0x1 SWAP2 POP POP SWAP3 SWAP2 POP POP JUMP JUMPDEST PUSH2 0x576 PUSH2 0x776 JUMP JUMPDEST PUSH1 0x0 PUSH20 0xFFFFFFFFFFFFFFFFFFFFFFFFFFFFFFFFFFFFFFFF AND DUP2 PUSH20 0xFFFFFFFFFFFFFFFFFFFFFFFFFFFFFFFFFFFFFFFF AND EQ ISZERO PUSH2 0x5E6 JUMPI PUSH1 0x40 MLOAD PUSH32 0x8C379A000000000000000000000000000000000000000000000000000000000 DUP2 MSTORE PUSH1 0x4 ADD PUSH2 0x5DD SWAP1 PUSH2 0x1213 JUMP JUMPDEST PUSH1 0x40 MLOAD DUP1 SWAP2 SUB SWAP1 REVERT JUMPDEST PUSH2 0x5EF DUP2 PUSH2 0x7F4 JUMP JUMPDEST POP JUMP JUMPDEST PUSH1 0x0 PUSH2 0x5FC PUSH2 0x776 JUMP JUMPDEST PUSH2 0x607 PUSH1 0x1 DUP4 PUSH2 0x8B8 JUMP JUMPDEST PUSH2 0x646 JUMPI PUSH1 0x40 MLOAD PUSH32 0x8C379A000000000000000000000000000000000000000000000000000000000 DUP2 MSTORE PUSH1 0x4 ADD PUSH2 0x63D SWAP1 PUSH2 0x12F3 JUMP JUMPDEST PUSH1 0x40 MLOAD DUP1 SWAP2 SUB SWAP1 REVERT JUMPDEST PUSH1 0x0 PUSH1 0x40 MLOAD DUP1 PUSH1 0x40 ADD PUSH1 0x40 MSTORE DUP1 DUP5 PUSH1 0x8 DUP2 MLOAD DUP2 LT PUSH2 0x667 JUMPI PUSH2 0x666 PUSH2 0x15C2 JUMP JUMPDEST JUMPDEST PUSH1 0x20 MUL PUSH1 0x20 ADD ADD MLOAD DUP2 MSTORE PUSH1 0x20 ADD DUP5 PUSH1 0x9 DUP2 MLOAD DUP2 LT PUSH2 0x688 JUMPI PUSH2 0x687 PUSH2 0x15C2 JUMP JUMPDEST JUMPDEST PUSH1 0x20 MUL PUSH1 0x20 ADD ADD MLOAD DUP2 MSTORE POP SWAP1 POP PUSH1 0x2 DUP2 SWAP1 DUP1 PUSH1 0x1 DUP2 SLOAD ADD DUP1 DUP3 SSTORE DUP1 SWAP2 POP POP PUSH1 0x1 SWAP1 SUB SWAP1 PUSH1 0x0 MSTORE PUSH1 0x20 PUSH1 0x0 KECCAK256 SWAP1 PUSH1 0x2 MUL ADD PUSH1 0x0 SWAP1 SWAP2 SWAP1 SWAP2 SWAP1 SWAP2 POP PUSH1 0x0 DUP3 ADD MLOAD DUP2 PUSH1 0x0 ADD SSTORE PUSH1 0x20 DUP3 ADD MLOAD DUP2 PUSH1 0x1 ADD SSTORE POP POP PUSH1 0x0 DUP2 PUSH1 0x0 ADD MLOAD EQ DUP1 ISZERO PUSH2 0x6EF JUMPI POP PUSH1 0x0 DUP2 PUSH1 0x20 ADD MLOAD EQ JUMPDEST ISZERO PUSH2 0x713 JUMPI DUP1 PUSH1 0x3 PUSH1 0x0 DUP3 ADD MLOAD DUP2 PUSH1 0x0 ADD SSTORE PUSH1 0x20 DUP3 ADD MLOAD DUP2 PUSH1 0x1 ADD SSTORE SWAP1 POP POP PUSH2 0x757 JUMP JUMPDEST PUSH2 0x73D PUSH1 0x3 PUSH1 0x40 MLOAD DUP1 PUSH1 0x40 ADD PUSH1 0x40 MSTORE SWAP1 DUP2 PUSH1 0x0 DUP3 ADD SLOAD DUP2 MSTORE PUSH1 0x20 ADD PUSH1 0x1 DUP3 ADD SLOAD DUP2 MSTORE POP POP DUP3 PUSH2 0xBE3 JUMP JUMPDEST PUSH1 0x3 PUSH1 0x0 DUP3 ADD MLOAD DUP2 PUSH1 0x0 ADD SSTORE PUSH1 0x20 DUP3 ADD MLOAD DUP2 PUSH1 0x1 ADD SSTORE SWAP1 POP POP JUMPDEST PUSH1 0x5 PUSH1 0x0 DUP2 SLOAD DUP1 SWAP3 SWAP2 SWAP1 PUSH2 0x76A SWAP1 PUSH2 0x14EA JUMP JUMPDEST SWAP2 SWAP1 POP SSTORE SWAP2 POP POP SWAP2 SWAP1 POP JUMP JUMPDEST PUSH2 0x77E PUSH2 0xCD7 JUMP JUMPDEST PUSH20 0xFFFFFFFFFFFFFFFFFFFFFFFFFFFFFFFFFFFFFFFF AND PUSH2 0x79C PUSH2 0x2C1 JUMP JUMPDEST PUSH20 0xFFFFFFFFFFFFFFFFFFFFFFFFFFFFFFFFFFFFFFFF AND EQ PUSH2 0x7F2 JUMPI PUSH1 0x40 MLOAD PUSH32 0x8C379A000000000000000000000000000000000000000000000000000000000 DUP2 MSTORE PUSH1 0x4 ADD PUSH2 0x7E9 SWAP1 PUSH2 0x1293 JUMP JUMPDEST PUSH1 0x40 MLOAD DUP1 SWAP2 SUB SWAP1 REVERT JUMPDEST JUMP JUMPDEST PUSH1 0x0 DUP1 PUSH1 0x0 SWAP1 SLOAD SWAP1 PUSH2 0x100 EXP SWAP1 DIV PUSH20 0xFFFFFFFFFFFFFFFFFFFFFFFFFFFFFFFFFFFFFFFF AND SWAP1 POP DUP2 PUSH1 0x0 DUP1 PUSH2 0x100 EXP DUP2 SLOAD DUP2 PUSH20 0xFFFFFFFFFFFFFFFFFFFFFFFFFFFFFFFFFFFFFFFF MUL NOT AND SWAP1 DUP4 PUSH20 0xFFFFFFFFFFFFFFFFFFFFFFFFFFFFFFFFFFFFFFFF AND MUL OR SWAP1 SSTORE POP DUP2 PUSH20 0xFFFFFFFFFFFFFFFFFFFFFFFFFFFFFFFFFFFFFFFF AND DUP2 PUSH20 0xFFFFFFFFFFFFFFFFFFFFFFFFFFFFFFFFFFFFFFFF AND PUSH32 0x8BE0079C531659141344CD1FD0A4F28419497F9722A3DAAFE3B4186F6B6457E0 PUSH1 0x40 MLOAD PUSH1 0x40 MLOAD DUP1 SWAP2 SUB SWAP1 LOG3 POP POP JUMP JUMPDEST PUSH1 0x0 PUSH1 0xA DUP3 MLOAD EQ PUSH2 0x8FE JUMPI PUSH1 0x40 MLOAD PUSH32 0x8C379A000000000000000000000000000000000000000000000000000000000 DUP2 MSTORE PUSH1 0x4 ADD PUSH2 0x8F5 SWAP1 PUSH2 0x12D3 JUMP JUMPDEST PUSH1 0x40 MLOAD DUP1 SWAP2 SUB SWAP1 REVERT JUMPDEST PUSH1 0x10 DUP4 DUP1 SLOAD SWAP1 POP EQ PUSH2 0x945 JUMPI PUSH1 0x40 MLOAD PUSH32 0x8C379A000000000000000000000000000000000000000000000000000000000 DUP2 MSTORE PUSH1 0x4 ADD PUSH2 0x93C SWAP1 PUSH2 0x12B3 JUMP JUMPDEST PUSH1 0x40 MLOAD DUP1 SWAP2 SUB SWAP1 REVERT JUMPDEST PUSH1 0x0 PUSH2 0x94F PUSH2 0xCF9 JUMP JUMPDEST PUSH1 0x0 PUSH1 0x1 SWAP1 POP PUSH1 0x20 DUP6 ADD DUP7 DUP4 MSTORE PUSH1 0x20 DUP4 KECCAK256 SWAP4 POP PUSH2 0x100 DUP2 ADD MLOAD DUP4 MSTORE PUSH2 0x120 DUP2 ADD MLOAD PUSH1 0x20 DUP5 ADD MSTORE PUSH1 0xA DUP5 ADD SLOAD PUSH1 0x40 DUP5 ADD MSTORE PUSH1 0xB DUP5 ADD SLOAD PUSH1 0x60 DUP5 ADD MSTORE PUSH1 0x40 PUSH2 0x240 DUP5 ADD PUSH1 0x80 DUP6 PUSH1 0x0 PUSH1 0x6 GAS CALL SWAP2 POP POP DUP1 PUSH2 0x9DC JUMPI PUSH1 0x40 MLOAD PUSH32 0x8C379A000000000000000000000000000000000000000000000000000000000 DUP2 MSTORE PUSH1 0x4 ADD PUSH2 0x9D3 SWAP1 PUSH2 0x1313 JUMP JUMPDEST PUSH1 0x40 MLOAD DUP1 SWAP2 SUB SWAP1 REVERT JUMPDEST PUSH1 0x20 DUP6 ADD DUP1 MLOAD DUP4 MSTORE PUSH1 0x20 DUP2 ADD MLOAD PUSH1 0x20 DUP5 ADD MSTORE PUSH1 0x40 DUP2 ADD MLOAD PUSH1 0x40 DUP5 ADD MSTORE PUSH1 0x60 DUP2 ADD MLOAD PUSH1 0x60 DUP5 ADD MSTORE PUSH1 0x80 DUP2 ADD MLOAD PUSH1 0x80 DUP5 ADD MSTORE PUSH1 0xA0 DUP2 ADD MLOAD PUSH1 0xA0 DUP5 ADD MSTORE DUP4 SLOAD PUSH1 0xC0 DUP5 ADD MSTORE PUSH1 0x1 DUP5 ADD SLOAD PUSH1 0xE0 DUP5 ADD MSTORE PUSH1 0x2 DUP5 ADD SLOAD PUSH2 0x100 DUP5 ADD MSTORE PUSH1 0x3 DUP5 ADD SLOAD PUSH2 0x120 DUP5 ADD MSTORE PUSH1 0x4 DUP5 ADD SLOAD PUSH2 0x140 DUP5 ADD MSTORE PUSH1 0x5 DUP5 ADD SLOAD PUSH2 0x160 DUP5 ADD MSTORE PUSH1 0xC0 DUP2 ADD MLOAD PUSH2 0x180 DUP5 ADD MSTORE PUSH1 0xE0 DUP2 ADD MLOAD PUSH2 0x1A0 DUP5 ADD MSTORE PUSH1 0x6 DUP5 ADD SLOAD PUSH2 0x1C0 DUP5 ADD MSTORE PUSH1 0x7 DUP5 ADD SLOAD PUSH2 0x1E0 DUP5 ADD MSTORE PUSH1 0x8 DUP5 ADD SLOAD PUSH2 0x200 DUP5 ADD MSTORE PUSH1 0x9 DUP5 ADD SLOAD PUSH2 0x220 DUP5 ADD MSTORE PUSH1 0xC DUP5 ADD SLOAD PUSH2 0x280 DUP5 ADD MSTORE PUSH1 0xD DUP5 ADD SLOAD PUSH2 0x2A0 DUP5 ADD MSTORE PUSH1 0xE DUP5 ADD SLOAD PUSH2 0x2C0 DUP5 ADD MSTORE PUSH1 0xF DUP5 ADD SLOAD PUSH2 0x2E0 DUP5 ADD MSTORE PUSH1 0x20 DUP4 PUSH2 0x300 DUP6 PUSH1 0x0 PUSH1 0x8 PUSH2 0x7D0 GAS SUB CALL DUP3 AND SWAP2 POP POP DUP1 PUSH2 0xB17 JUMPI PUSH1 0x40 MLOAD PUSH32 0x8C379A000000000000000000000000000000000000000000000000000000000 DUP2 MSTORE PUSH1 0x4 ADD PUSH2 0xB0E SWAP1 PUSH2 0x1273 JUMP JUMPDEST PUSH1 0x40 MLOAD DUP1 SWAP2 SUB SWAP1 REVERT JUMPDEST PUSH1 0x1 DUP3 PUSH1 0x0 PUSH1 0x18 DUP2 LT PUSH2 0xB2D JUMPI PUSH2 0xB2C PUSH2 0x15C2 JUMP JUMPDEST JUMPDEST PUSH1 0x20 MUL ADD MLOAD EQ SWAP4 POP POP POP POP SWAP3 SWAP2 POP POP JUMP JUMPDEST PUSH2 0xB46 PUSH2 0xCDF JUMP JUMPDEST PUSH1 0x0 PUSH32 0x30644E72E131A029B85045B68181585D97816A916871CA8D3C208C16D87CFD47 SWAP1 POP PUSH1 0x0 DUP4 PUSH1 0x0 ADD MLOAD EQ DUP1 ISZERO PUSH2 0xB83 JUMPI POP PUSH1 0x0 DUP4 PUSH1 0x20 ADD MLOAD EQ JUMPDEST ISZERO PUSH2 0xBA7 JUMPI PUSH1 0x40 MLOAD DUP1 PUSH1 0x40 ADD PUSH1 0x40 MSTORE DUP1 PUSH1 0x0 DUP2 MSTORE PUSH1 0x20 ADD PUSH1 0x0 DUP2 MSTORE POP SWAP2 POP POP PUSH2 0xBDE JUMP JUMPDEST PUSH1 0x40 MLOAD DUP1 PUSH1 0x40 ADD PUSH1 0x40 MSTORE DUP1 DUP5 PUSH1 0x0 ADD MLOAD DUP2 MSTORE PUSH1 0x20 ADD DUP3 DUP6 PUSH1 0x20 ADD MLOAD PUSH2 0xBCC SWAP2 SWAP1 PUSH2 0x1533 JUMP JUMPDEST DUP4 PUSH2 0xBD7 SWAP2 SWAP1 PUSH2 0x143D JUMP JUMPDEST DUP2 MSTORE POP SWAP2 POP POP JUMPDEST SWAP2 SWAP1 POP JUMP JUMPDEST PUSH2 0xBEB PUSH2 0xCDF JUMP JUMPDEST PUSH2 0xBF3 PUSH2 0xD1C JUMP JUMPDEST DUP4 PUSH1 0x0 ADD MLOAD DUP2 PUSH1 0x0 PUSH1 0x4 DUP2 LT PUSH2 0xC0C JUMPI PUSH2 0xC0B PUSH2 0x15C2 JUMP JUMPDEST JUMPDEST PUSH1 0x20 MUL ADD DUP2 DUP2 MSTORE POP POP DUP4 PUSH1 0x20 ADD MLOAD DUP2 PUSH1 0x1 PUSH1 0x4 DUP2 LT PUSH2 0xC2E JUMPI PUSH2 0xC2D PUSH2 0x15C2 JUMP JUMPDEST JUMPDEST PUSH1 0x20 MUL ADD DUP2 DUP2 MSTORE POP POP DUP3 PUSH1 0x0 ADD MLOAD DUP2 PUSH1 0x2 PUSH1 0x4 DUP2 LT PUSH2 0xC50 JUMPI PUSH2 0xC4F PUSH2 0x15C2 JUMP JUMPDEST JUMPDEST PUSH1 0x20 MUL ADD DUP2 DUP2 MSTORE POP POP DUP3 PUSH1 0x20 ADD MLOAD DUP2 PUSH1 0x3 PUSH1 0x4 DUP2 LT PUSH2 0xC72 JUMPI PUSH2 0xC71 PUSH2 0x15C2 JUMP JUMPDEST JUMPDEST PUSH1 0x20 MUL ADD DUP2 DUP2 MSTORE POP POP PUSH1 0x0 PUSH1 0x40 DUP4 PUSH1 0x80 DUP5 PUSH1 0x0 PUSH1 0x6 PUSH2 0x7D0 GAS SUB CALL SWAP1 POP DUP1 PUSH2 0xCCF JUMPI PUSH1 0x40 MLOAD PUSH32 0x8C379A000000000000000000000000000000000000000000000000000000000 DUP2 MSTORE PUSH1 0x4 ADD PUSH2 0xCC6 SWAP1 PUSH2 0x1233 JUMP JUMPDEST PUSH1 0x40 MLOAD DUP1 SWAP2 SUB SWAP1 REVERT JUMPDEST POP POP SWAP3 SWAP2 POP POP JUMP JUMPDEST PUSH1 0x0 CALLER SWAP1 POP SWAP1 JUMP JUMPDEST PUSH1 0x40 MLOAD DUP1 PUSH1 0x40 ADD PUSH1 0x40 MSTORE DUP1 PUSH1 0x0 DUP2 MSTORE PUSH1 0x20 ADD PUSH1 0x0 DUP2 MSTORE POP SWAP1 JUMP JUMPDEST PUSH1 0x40 MLOAD DUP1 PUSH2 0x300 ADD PUSH1 0x40 MSTORE DUP1 PUSH1 0x18 SWAP1 PUSH1 0x20 DUP3 MUL DUP1 CALLDATASIZE DUP4 CALLDATACOPY DUP1 DUP3 ADD SWAP2 POP POP SWAP1 POP POP SWAP1 JUMP JUMPDEST PUSH1 0x40 MLOAD DUP1 PUSH1 0x80 ADD PUSH1 0x40 MSTORE DUP1 PUSH1 0x4 SWAP1 PUSH1 0x20 DUP3 MUL DUP1 CALLDATASIZE DUP4 CALLDATACOPY DUP1 DUP3 ADD SWAP2 POP POP SWAP1 POP POP SWAP1 JUMP JUMPDEST PUSH1 0x0 PUSH2 0xD51 PUSH2 0xD4C DUP5 PUSH2 0x138E JUMP JUMPDEST PUSH2 0x1369 JUMP JUMPDEST SWAP1 POP DUP1 DUP4 DUP3 MSTORE PUSH1 0x20 DUP3 ADD SWAP1 POP DUP3 DUP6 PUSH1 0x20 DUP7 MUL DUP3 ADD GT ISZERO PUSH2 0xD74 JUMPI PUSH2 0xD73 PUSH2 0x1625 JUMP JUMPDEST JUMPDEST PUSH1 0x0 JUMPDEST DUP6 DUP2 LT ISZERO PUSH2 0xDA4 JUMPI DUP2 PUSH2 0xD8A DUP9 DUP3 PUSH2 0xDF1 JUMP JUMPDEST DUP5 MSTORE PUSH1 0x20 DUP5 ADD SWAP4 POP PUSH1 0x20 DUP4 ADD SWAP3 POP POP PUSH1 0x1 DUP2 ADD SWAP1 POP PUSH2 0xD77 JUMP JUMPDEST POP POP POP SWAP4 SWAP3 POP POP POP JUMP JUMPDEST PUSH1 0x0 DUP2 CALLDATALOAD SWAP1 POP PUSH2 0xDBD DUP2 PUSH2 0x1828 JUMP JUMPDEST SWAP3 SWAP2 POP POP JUMP JUMPDEST PUSH1 0x0 DUP3 PUSH1 0x1F DUP4 ADD SLT PUSH2 0xDD8 JUMPI PUSH2 0xDD7 PUSH2 0x1620 JUMP JUMPDEST JUMPDEST DUP2 CALLDATALOAD PUSH2 0xDE8 DUP5 DUP3 PUSH1 0x20 DUP7 ADD PUSH2 0xD3E JUMP JUMPDEST SWAP2 POP POP SWAP3 SWAP2 POP POP JUMP JUMPDEST PUSH1 0x0 DUP2 CALLDATALOAD SWAP1 POP PUSH2 0xE00 DUP2 PUSH2 0x183F JUMP JUMPDEST SWAP3 SWAP2 POP POP JUMP JUMPDEST PUSH1 0x0 PUSH1 0x20 DUP3 DUP5 SUB SLT ISZERO PUSH2 0xE1C JUMPI PUSH2 0xE1B PUSH2 0x162F JUMP JUMPDEST JUMPDEST PUSH1 0x0 PUSH2 0xE2A DUP5 DUP3 DUP6 ADD PUSH2 0xDAE JUMP JUMPDEST SWAP2 POP POP SWAP3 SWAP2 POP POP JUMP JUMPDEST PUSH1 0x0 PUSH1 0x20 DUP3 DUP5 SUB SLT ISZERO PUSH2 0xE49 JUMPI PUSH2 0xE48 PUSH2 0x162F JUMP JUMPDEST JUMPDEST PUSH1 0x0 DUP3 ADD CALLDATALOAD PUSH8 0xFFFFFFFFFFFFFFFF DUP2 GT ISZERO PUSH2 0xE67 JUMPI PUSH2 0xE66 PUSH2 0x162A JUMP JUMPDEST JUMPDEST PUSH2 0xE73 DUP5 DUP3 DUP6 ADD PUSH2 0xDC3 JUMP JUMPDEST SWAP2 POP POP SWAP3 SWAP2 POP POP JUMP JUMPDEST PUSH1 0x0 DUP1 PUSH1 0x40 DUP4 DUP6 SUB SLT ISZERO PUSH2 0xE93 JUMPI PUSH2 0xE92 PUSH2 0x162F JUMP JUMPDEST JUMPDEST PUSH1 0x0 PUSH2 0xEA1 DUP6 DUP3 DUP7 ADD PUSH2 0xDF1 JUMP JUMPDEST SWAP3 POP POP PUSH1 0x20 DUP4 ADD CALLDATALOAD PUSH8 0xFFFFFFFFFFFFFFFF DUP2 GT ISZERO PUSH2 0xEC2 JUMPI PUSH2 0xEC1 PUSH2 0x162A JUMP JUMPDEST JUMPDEST PUSH2 0xECE DUP6 DUP3 DUP7 ADD PUSH2 0xDC3 JUMP JUMPDEST SWAP2 POP POP SWAP3 POP SWAP3 SWAP1 POP JUMP JUMPDEST PUSH1 0x0 PUSH2 0xEE4 DUP4 DUP4 PUSH2 0x111D JUMP JUMPDEST PUSH1 0x40 DUP4 ADD SWAP1 POP SWAP3 SWAP2 POP POP JUMP JUMPDEST PUSH1 0x0 PUSH2 0xEFC DUP4 DUP4 PUSH2 0x117B JUMP JUMPDEST PUSH1 0x20 DUP4 ADD SWAP1 POP SWAP3 SWAP2 POP POP JUMP JUMPDEST PUSH2 0xF11 DUP2 PUSH2 0x1471 JUMP JUMPDEST DUP3 MSTORE POP POP JUMP JUMPDEST PUSH1 0x0 PUSH2 0xF22 DUP3 PUSH2 0x13DA JUMP JUMPDEST PUSH2 0xF2C DUP2 DUP6 PUSH2 0x140A JUMP JUMPDEST SWAP4 POP PUSH2 0xF37 DUP4 PUSH2 0x13BA JUMP JUMPDEST DUP1 PUSH1 0x0 JUMPDEST DUP4 DUP2 LT ISZERO PUSH2 0xF68 JUMPI DUP2 MLOAD PUSH2 0xF4F DUP9 DUP3 PUSH2 0xED8 JUMP JUMPDEST SWAP8 POP PUSH2 0xF5A DUP4 PUSH2 0x13F0 JUMP JUMPDEST SWAP3 POP POP PUSH1 0x1 DUP2 ADD SWAP1 POP PUSH2 0xF3B JUMP JUMPDEST POP DUP6 SWAP4 POP POP POP POP SWAP3 SWAP2 POP POP JUMP JUMPDEST PUSH1 0x0 PUSH2 0xF80 DUP3 PUSH2 0x13E5 JUMP JUMPDEST PUSH2 0xF8A DUP2 DUP6 PUSH2 0x141B JUMP JUMPDEST SWAP4 POP PUSH2 0xF95 DUP4 PUSH2 0x13CA JUMP JUMPDEST DUP1 PUSH1 0x0 JUMPDEST DUP4 DUP2 LT ISZERO PUSH2 0xFC6 JUMPI DUP2 MLOAD PUSH2 0xFAD DUP9 DUP3 PUSH2 0xEF0 JUMP JUMPDEST SWAP8 POP PUSH2 0xFB8 DUP4 PUSH2 0x13FD JUMP JUMPDEST SWAP3 POP POP PUSH1 0x1 DUP2 ADD SWAP1 POP PUSH2 0xF99 JUMP JUMPDEST POP DUP6 SWAP4 POP POP POP POP SWAP3 SWAP2 POP POP JUMP JUMPDEST PUSH2 0xFDC DUP2 PUSH2 0x1483 JUMP JUMPDEST DUP3 MSTORE POP POP JUMP JUMPDEST PUSH1 0x0 PUSH2 0xFEF PUSH1 0x26 DUP4 PUSH2 0x142C JUMP JUMPDEST SWAP2 POP PUSH2 0xFFA DUP3 PUSH2 0x1645 JUMP JUMPDEST PUSH1 0x40 DUP3 ADD SWAP1 POP SWAP2 SWAP1 POP JUMP JUMPDEST PUSH1 0x0 PUSH2 0x1012 PUSH1 0x47 DUP4 PUSH2 0x142C JUMP JUMPDEST SWAP2 POP PUSH2 0x101D DUP3 PUSH2 0x1694 JUMP JUMPDEST PUSH1 0x60 DUP3 ADD SWAP1 POP SWAP2 SWAP1 POP JUMP JUMPDEST PUSH1 0x0 PUSH2 0x1035 PUSH1 0xD DUP4 PUSH2 0x142C JUMP JUMPDEST SWAP2 POP PUSH2 0x1040 DUP3 PUSH2 0x1709 JUMP JUMPDEST PUSH1 0x20 DUP3 ADD SWAP1 POP SWAP2 SWAP1 POP JUMP JUMPDEST PUSH1 0x0 PUSH2 0x1058 PUSH1 0x11 DUP4 PUSH2 0x142C JUMP JUMPDEST SWAP2 POP PUSH2 0x1063 DUP3 PUSH2 0x1732 JUMP JUMPDEST PUSH1 0x20 DUP3 ADD SWAP1 POP SWAP2 SWAP1 POP JUMP JUMPDEST PUSH1 0x0 PUSH2 0x107B PUSH1 0x20 DUP4 PUSH2 0x142C JUMP JUMPDEST SWAP2 POP PUSH2 0x1086 DUP3 PUSH2 0x175B JUMP JUMPDEST PUSH1 0x20 DUP3 ADD SWAP1 POP SWAP2 SWAP1 POP JUMP JUMPDEST PUSH1 0x0 PUSH2 0x109E PUSH1 0x11 DUP4 PUSH2 0x142C JUMP JUMPDEST SWAP2 POP PUSH2 0x10A9 DUP3 PUSH2 0x1784 JUMP JUMPDEST PUSH1 0x20 DUP3 ADD SWAP1 POP SWAP2 SWAP1 POP JUMP JUMPDEST PUSH1 0x0 PUSH2 0x10C1 PUSH1 0x14 DUP4 PUSH2 0x142C JUMP JUMPDEST SWAP2 POP PUSH2 0x10CC DUP3 PUSH2 0x17AD JUMP JUMPDEST PUSH1 0x20 DUP3 ADD SWAP1 POP SWAP2 SWAP1 POP JUMP JUMPDEST PUSH1 0x0 PUSH2 0x10E4 PUSH1 0xB DUP4 PUSH2 0x142C JUMP JUMPDEST SWAP2 POP PUSH2 0x10EF DUP3 PUSH2 0x17D6 JUMP JUMPDEST PUSH1 0x20 DUP3 ADD SWAP1 POP SWAP2 SWAP1 POP JUMP JUMPDEST PUSH1 0x0 PUSH2 0x1107 PUSH1 0xD DUP4 PUSH2 0x142C JUMP JUMPDEST SWAP2 POP PUSH2 0x1112 DUP3 PUSH2 0x17FF JUMP JUMPDEST PUSH1 0x20 DUP3 ADD SWAP1 POP SWAP2 SWAP1 POP JUMP JUMPDEST PUSH1 0x40 DUP3 ADD PUSH1 0x0 DUP3 ADD MLOAD PUSH2 0x1133 PUSH1 0x0 DUP6 ADD DUP3 PUSH2 0x117B JUMP JUMPDEST POP PUSH1 0x20 DUP3 ADD MLOAD PUSH2 0x1146 PUSH1 0x20 DUP6 ADD DUP3 PUSH2 0x117B JUMP JUMPDEST POP POP POP POP JUMP JUMPDEST PUSH1 0x40 DUP3 ADD PUSH1 0x0 DUP3 ADD MLOAD PUSH2 0x1162 PUSH1 0x0 DUP6 ADD DUP3 PUSH2 0x117B JUMP JUMPDEST POP PUSH1 0x20 DUP3 ADD MLOAD PUSH2 0x1175 PUSH1 0x20 DUP6 ADD DUP3 PUSH2 0x117B JUMP JUMPDEST POP POP POP POP JUMP JUMPDEST PUSH2 0x1184 DUP2 PUSH2 0x14AF JUMP JUMPDEST DUP3 MSTORE POP POP JUMP JUMPDEST PUSH2 0x1193 DUP2 PUSH2 0x14AF JUMP JUMPDEST DUP3 MSTORE POP POP JUMP JUMPDEST PUSH1 0x0 PUSH1 0x20 DUP3 ADD SWAP1 POP PUSH2 0x11AE PUSH1 0x0 DUP4 ADD DUP5 PUSH2 0xF08 JUMP JUMPDEST SWAP3 SWAP2 POP POP JUMP JUMPDEST PUSH1 0x0 PUSH1 0x20 DUP3 ADD SWAP1 POP DUP2 DUP2 SUB PUSH1 0x0 DUP4 ADD MSTORE PUSH2 0x11CE DUP2 DUP5 PUSH2 0xF17 JUMP JUMPDEST SWAP1 POP SWAP3 SWAP2 POP POP JUMP JUMPDEST PUSH1 0x0 PUSH1 0x20 DUP3 ADD SWAP1 POP DUP2 DUP2 SUB PUSH1 0x0 DUP4 ADD MSTORE PUSH2 0x11F0 DUP2 DUP5 PUSH2 0xF75 JUMP JUMPDEST SWAP1 POP SWAP3 SWAP2 POP POP JUMP JUMPDEST PUSH1 0x0 PUSH1 0x20 DUP3 ADD SWAP1 POP PUSH2 0x120D PUSH1 0x0 DUP4 ADD DUP5 PUSH2 0xFD3 JUMP JUMPDEST SWAP3 SWAP2 POP POP JUMP JUMPDEST PUSH1 0x0 PUSH1 0x20 DUP3 ADD SWAP1 POP DUP2 DUP2 SUB PUSH1 0x0 DUP4 ADD MSTORE PUSH2 0x122C DUP2 PUSH2 0xFE2 JUMP JUMPDEST SWAP1 POP SWAP2 SWAP1 POP JUMP JUMPDEST PUSH1 0x0 PUSH1 0x20 DUP3 ADD SWAP1 POP DUP2 DUP2 SUB PUSH1 0x0 DUP4 ADD MSTORE PUSH2 0x124C DUP2 PUSH2 0x1005 JUMP JUMPDEST SWAP1 POP SWAP2 SWAP1 POP JUMP JUMPDEST PUSH1 0x0 PUSH1 0x20 DUP3 ADD SWAP1 POP DUP2 DUP2 SUB PUSH1 0x0 DUP4 ADD MSTORE PUSH2 0x126C DUP2 PUSH2 0x1028 JUMP JUMPDEST SWAP1 POP SWAP2 SWAP1 POP JUMP JUMPDEST PUSH1 0x0 PUSH1 0x20 DUP3 ADD SWAP1 POP DUP2 DUP2 SUB PUSH1 0x0 DUP4 ADD MSTORE PUSH2 0x128C DUP2 PUSH2 0x104B JUMP JUMPDEST SWAP1 POP SWAP2 SWAP1 POP JUMP JUMPDEST PUSH1 0x0 PUSH1 0x20 DUP3 ADD SWAP1 POP DUP2 DUP2 SUB PUSH1 0x0 DUP4 ADD MSTORE PUSH2 0x12AC DUP2 PUSH2 0x106E JUMP JUMPDEST SWAP1 POP SWAP2 SWAP1 POP JUMP JUMPDEST PUSH1 0x0 PUSH1 0x20 DUP3 ADD SWAP1 POP DUP2 DUP2 SUB PUSH1 0x0 DUP4 ADD MSTORE PUSH2 0x12CC DUP2 PUSH2 0x1091 JUMP JUMPDEST SWAP1 POP SWAP2 SWAP1 POP JUMP JUMPDEST PUSH1 0x0 PUSH1 0x20 DUP3 ADD SWAP1 POP DUP2 DUP2 SUB PUSH1 0x0 DUP4 ADD MSTORE PUSH2 0x12EC DUP2 PUSH2 0x10B4 JUMP JUMPDEST SWAP1 POP SWAP2 SWAP1 POP JUMP JUMPDEST PUSH1 0x0 PUSH1 0x20 DUP3 ADD SWAP1 POP DUP2 DUP2 SUB PUSH1 0x0 DUP4 ADD MSTORE PUSH2 0x130C DUP2 PUSH2 0x10D7 JUMP JUMPDEST SWAP1 POP SWAP2 SWAP1 POP JUMP JUMPDEST PUSH1 0x0 PUSH1 0x20 DUP3 ADD SWAP1 POP DUP2 DUP2 SUB PUSH1 0x0 DUP4 ADD MSTORE PUSH2 0x132C DUP2 PUSH2 0x10FA JUMP JUMPDEST SWAP1 POP SWAP2 SWAP1 POP JUMP JUMPDEST PUSH1 0x0 PUSH1 0x40 DUP3 ADD SWAP1 POP PUSH2 0x1348 PUSH1 0x0 DUP4 ADD DUP5 PUSH2 0x114C JUMP JUMPDEST SWAP3 SWAP2 POP POP JUMP JUMPDEST PUSH1 0x0 PUSH1 0x20 DUP3 ADD SWAP1 POP PUSH2 0x1363 PUSH1 0x0 DUP4 ADD DUP5 PUSH2 0x118A JUMP JUMPDEST SWAP3 SWAP2 POP POP JUMP JUMPDEST PUSH1 0x0 PUSH2 0x1373 PUSH2 0x1384 JUMP JUMPDEST SWAP1 POP PUSH2 0x137F DUP3 DUP3 PUSH2 0x14B9 JUMP JUMPDEST SWAP2 SWAP1 POP JUMP JUMPDEST PUSH1 0x0 PUSH1 0x40 MLOAD SWAP1 POP SWAP1 JUMP JUMPDEST PUSH1 0x0 PUSH8 0xFFFFFFFFFFFFFFFF DUP3 GT ISZERO PUSH2 0x13A9 JUMPI PUSH2 0x13A8 PUSH2 0x15F1 JUMP JUMPDEST JUMPDEST PUSH1 0x20 DUP3 MUL SWAP1 POP PUSH1 0x20 DUP2 ADD SWAP1 POP SWAP2 SWAP1 POP JUMP JUMPDEST PUSH1 0x0 DUP2 SWAP1 POP PUSH1 0x20 DUP3 ADD SWAP1 POP SWAP2 SWAP1 POP JUMP JUMPDEST PUSH1 0x0 DUP2 SWAP1 POP PUSH1 0x20 DUP3 ADD SWAP1 POP SWAP2 SWAP1 POP JUMP JUMPDEST PUSH1 0x0 DUP2 MLOAD SWAP1 POP SWAP2 SWAP1 POP JUMP JUMPDEST PUSH1 0x0 DUP2 MLOAD SWAP1 POP SWAP2 SWAP1 POP JUMP JUMPDEST PUSH1 0x0 PUSH1 0x20 DUP3 ADD SWAP1 POP SWAP2 SWAP1 POP JUMP JUMPDEST PUSH1 0x0 PUSH1 0x20 DUP3 ADD SWAP1 POP SWAP2 SWAP1 POP JUMP JUMPDEST PUSH1 0x0 DUP3 DUP3 MSTORE PUSH1 0x20 DUP3 ADD SWAP1 POP SWAP3 SWAP2 POP POP JUMP JUMPDEST PUSH1 0x0 DUP3 DUP3 MSTORE PUSH1 0x20 DUP3 ADD SWAP1 POP SWAP3 SWAP2 POP POP JUMP JUMPDEST PUSH1 0x0 DUP3 DUP3 MSTORE PUSH1 0x20 DUP3 ADD SWAP1 POP SWAP3 SWAP2 POP POP JUMP JUMPDEST PUSH1 0x0 PUSH2 0x1448 DUP3 PUSH2 0x14AF JUMP JUMPDEST SWAP2 POP PUSH2 0x1453 DUP4 PUSH2 0x14AF JUMP JUMPDEST SWAP3 POP DUP3 DUP3 LT ISZERO PUSH2 0x1466 JUMPI PUSH2 0x1465 PUSH2 0x1564 JUMP JUMPDEST JUMPDEST DUP3 DUP3 SUB SWAP1 POP SWAP3 SWAP2 POP POP JUMP JUMPDEST PUSH1 0x0 PUSH2 0x147C DUP3 PUSH2 0x148F JUMP JUMPDEST SWAP1 POP SWAP2 SWAP1 POP JUMP JUMPDEST PUSH1 0x0 DUP2 ISZERO ISZERO SWAP1 POP SWAP2 SWAP1 POP JUMP JUMPDEST PUSH1 0x0 PUSH20 0xFFFFFFFFFFFFFFFFFFFFFFFFFFFFFFFFFFFFFFFF DUP3 AND SWAP1 POP SWAP2 SWAP1 POP JUMP JUMPDEST PUSH1 0x0 DUP2 SWAP1 POP SWAP2 SWAP1 POP JUMP JUMPDEST PUSH2 0x14C2 DUP3 PUSH2 0x1634 JUMP JUMPDEST DUP2 ADD DUP2 DUP2 LT PUSH8 0xFFFFFFFFFFFFFFFF DUP3 GT OR ISZERO PUSH2 0x14E1 JUMPI PUSH2 0x14E0 PUSH2 0x15F1 JUMP JUMPDEST JUMPDEST DUP1 PUSH1 0x40 MSTORE POP POP POP JUMP JUMPDEST PUSH1 0x0 PUSH2 0x14F5 DUP3 PUSH2 0x14AF JUMP JUMPDEST SWAP2 POP PUSH32 0xFFFFFFFFFFFFFFFFFFFFFFFFFFFFFFFFFFFFFFFFFFFFFFFFFFFFFFFFFFFFFFFF DUP3 EQ ISZERO PUSH2 0x1528 JUMPI PUSH2 0x1527 PUSH2 0x1564 JUMP JUMPDEST JUMPDEST PUSH1 0x1 DUP3 ADD SWAP1 POP SWAP2 SWAP1 POP JUMP JUMPDEST PUSH1 0x0 PUSH2 0x153E DUP3 PUSH2 0x14AF JUMP JUMPDEST SWAP2 POP PUSH2 0x1549 DUP4 PUSH2 0x14AF JUMP JUMPDEST SWAP3 POP DUP3 PUSH2 0x1559 JUMPI PUSH2 0x1558 PUSH2 0x1593 JUMP JUMPDEST JUMPDEST DUP3 DUP3 MOD SWAP1 POP SWAP3 SWAP2 POP POP JUMP JUMPDEST PUSH32 0x4E487B7100000000000000000000000000000000000000000000000000000000 PUSH1 0x0 MSTORE PUSH1 0x11 PUSH1 0x4 MSTORE PUSH1 0x24 PUSH1 0x0 REVERT JUMPDEST PUSH32 0x4E487B7100000000000000000000000000000000000000000000000000000000 PUSH1 0x0 MSTORE PUSH1 0x12 PUSH1 0x4 MSTORE PUSH1 0x24 PUSH1 0x0 REVERT JUMPDEST PUSH32 0x4E487B7100000000000000000000000000000000000000000000000000000000 PUSH1 0x0 MSTORE PUSH1 0x32 PUSH1 0x4 MSTORE PUSH1 0x24 PUSH1 0x0 REVERT JUMPDEST PUSH32 0x4E487B7100000000000000000000000000000000000000000000000000000000 PUSH1 0x0 MSTORE PUSH1 0x41 PUSH1 0x4 MSTORE PUSH1 0x24 PUSH1 0x0 REVERT JUMPDEST PUSH1 0x0 DUP1 REVERT JUMPDEST PUSH1 0x0 DUP1 REVERT JUMPDEST PUSH1 0x0 DUP1 REVERT JUMPDEST PUSH1 0x0 DUP1 REVERT JUMPDEST PUSH1 0x0 PUSH1 0x1F NOT PUSH1 0x1F DUP4 ADD AND SWAP1 POP SWAP2 SWAP1 POP JUMP JUMPDEST PUSH32 0x4F776E61626C653A206E6577206F776E657220697320746865207A65726F2061 PUSH1 0x0 DUP3 ADD MSTORE PUSH32 0x6464726573730000000000000000000000000000000000000000000000000000 PUSH1 0x20 DUP3 ADD MSTORE POP JUMP JUMPDEST PUSH32 0x43616C6C20746F2074686520626E32353641646420707265636F6D70696C6564 PUSH1 0x0 DUP3 ADD MSTORE PUSH32 0x206661696C6564202870726F6261626C7920616E206F7574206F662067617320 PUSH1 0x20 DUP3 ADD MSTORE PUSH32 0x6572726F723F2900000000000000000000000000000000000000000000000000 PUSH1 0x40 DUP3 ADD MSTORE POP JUMP JUMPDEST PUSH32 0x496E76616C696420696E64657800000000000000000000000000000000000000 PUSH1 0x0 DUP3 ADD MSTORE POP JUMP JUMPDEST PUSH32 0x626E32353650616972696E67206661696C000000000000000000000000000000 PUSH1 0x0 DUP3 ADD MSTORE POP JUMP JUMPDEST PUSH32 0x4F776E61626C653A2063616C6C6572206973206E6F7420746865206F776E6572 PUSH1 0x0 DUP3 ADD MSTORE POP JUMP JUMPDEST PUSH32 0x496E76616C696420766B206C656E677468000000000000000000000000000000 PUSH1 0x0 DUP3 ADD MSTORE POP JUMP JUMPDEST PUSH32 0x496E76616C69642070726F6F66206C656E677468000000000000000000000000 PUSH1 0x0 DUP3 ADD MSTORE POP JUMP JUMPDEST PUSH32 0x766572696679206661696C000000000000000000000000000000000000000000 PUSH1 0x0 DUP3 ADD MSTORE POP JUMP JUMPDEST PUSH32 0x626E323536416464206661696C00000000000000000000000000000000000000 PUSH1 0x0 DUP3 ADD MSTORE POP JUMP JUMPDEST PUSH2 0x1831 DUP2 PUSH2 0x1471 JUMP JUMPDEST DUP2 EQ PUSH2 0x183C JUMPI PUSH1 0x0 DUP1 REVERT JUMPDEST POP JUMP JUMPDEST PUSH2 0x1848 DUP2 PUSH2 0x14AF JUMP JUMPDEST DUP2 EQ PUSH2 0x1853 JUMPI PUSH1 0x0 DUP1 REVERT JUMPDEST POP JUMP INVALID LOG2 PUSH5 0x6970667358 0x22 SLT KECCAK256 0xAE PUSH28 0x449EF6C32034E03F0D863DF9145CD44D830F92B7A1A1D6635EC17B3A BYTE SWAP16 PUSH5 0x736F6C6343 STOP ADDMOD SMOD STOP CALLER "
				},
				"gasEstimates": {
					"creation": {
						"codeDepositCost": "1256800",
						"executionCost": "infinite",
						"totalCost": "infinite"
					},
					"external": {
						"get_all_commitments()": "infinite",
						"get_commitment_cnt()": "2482",
						"get_sum_of_commitments()": "infinite",
						"get_vk()": "infinite",
						"owner()": "2522",
						"renounceOwnership()": "30465",
						"transferOwnership(address)": "30813",
						"update_commitment(uint256,uint256[])": "infinite",
						"upload_commitment(uint256[])": "infinite"
					}
				},
				"methodIdentifiers": {
					"get_all_commitments()": "068a2253",
					"get_commitment_cnt()": "621a9326",
					"get_sum_of_commitments()": "0651a124",
					"get_vk()": "def596ef",
					"owner()": "8da5cb5b",
					"renounceOwnership()": "715018a6",
					"transferOwnership(address)": "f2fde38b",
					"update_commitment(uint256,uint256[])": "f123b45a",
					"upload_commitment(uint256[])": "f5c13593"
				}
			},
			"storageLayout": {
				"storage": [
					{
						"astId": 7,
						"contract": "contracts/proofOfReserves.sol:ProofOfReservesContract",
						"label": "_owner",
						"offset": 0,
						"slot": "0",
						"type": "t_address"
					},
					{
						"astId": 1167,
						"contract": "contracts/proofOfReserves.sol:ProofOfReservesContract",
						"label": "verifyingKey",
						"offset": 0,
						"slot": "1",
						"type": "t_array(t_uint256)dyn_storage"
					},
					{
						"astId": 1171,
						"contract": "contracts/proofOfReserves.sol:ProofOfReservesContract",
						"label": "commitArray",
						"offset": 0,
						"slot": "2",
						"type": "t_array(t_struct(G1Point)157_storage)dyn_storage"
					},
					{
						"astId": 1179,
						"contract": "contracts/proofOfReserves.sol:ProofOfReservesContract",
						"label": "sumOfCommitment",
						"offset": 0,
						"slot": "3",
						"type": "t_struct(G1Point)157_storage"
					},
					{
						"astId": 1182,
						"contract": "contracts/proofOfReserves.sol:ProofOfReservesContract",
						"label": "commitCnt",
						"offset": 0,
						"slot": "5",
						"type": "t_uint256"
					}
				],
				"types": {
					"t_address": {
						"encoding": "inplace",
						"label": "address",
						"numberOfBytes": "20"
					},
					"t_array(t_struct(G1Point)157_storage)dyn_storage": {
						"base": "t_struct(G1Point)157_storage",
						"encoding": "dynamic_array",
						"label": "struct Pairing.G1Point[]",
						"numberOfBytes": "32"
					},
					"t_array(t_uint256)dyn_storage": {
						"base": "t_uint256",
						"encoding": "dynamic_array",
						"label": "uint256[]",
						"numberOfBytes": "32"
					},
					"t_struct(G1Point)157_storage": {
						"encoding": "inplace",
						"label": "struct Pairing.G1Point",
						"members": [
							{
								"astId": 154,
								"contract": "contracts/proofOfReserves.sol:ProofOfReservesContract",
								"label": "X",
								"offset": 0,
								"slot": "0",
								"type": "t_uint256"
							},
							{
								"astId": 156,
								"contract": "contracts/proofOfReserves.sol:ProofOfReservesContract",
								"label": "Y",
								"offset": 0,
								"slot": "1",
								"type": "t_uint256"
							}
						],
						"numberOfBytes": "64"
					},
					"t_uint256": {
						"encoding": "inplace",
						"label": "uint256",
						"numberOfBytes": "32"
					}
				}
			},
			"userdoc": {
				"kind": "user",
				"methods": {},
				"version": 1
			}
		}
	}
}