{
	"contracts/proofOfReserves.sol": {
		"ProofOfReservesContractL2": {
			"abi": [
				{
					"inputs": [
						{
							"internalType": "uint256[]",
							"name": "_vk",
							"type": "uint256[]"
						}
					],
					"stateMutability": "nonpayable",
					"type": "constructor"
				},
				{
					"anonymous": false,
					"inputs": [
						{
							"indexed": true,
							"internalType": "address",
							"name": "previousOwner",
							"type": "address"
						},
						{
							"indexed": true,
							"internalType": "address",
							"name": "newOwner",
							"type": "address"
						}
					],
					"name": "OwnershipTransferred",
					"type": "event"
				},
				{
					"inputs": [],
					"name": "get_all_commitments",
					"outputs": [
						{
							"components": [
								{
									"internalType": "uint256",
									"name": "X",
									"type": "uint256"
								},
								{
									"internalType": "uint256",
									"name": "Y",
									"type": "uint256"
								}
							],
							"internalType": "struct Pairing.G1Point[]",
							"name": "",
							"type": "tuple[]"
						}
					],
					"stateMutability": "view",
					"type": "function"
				},
				{
					"inputs": [],
					"name": "get_commitment_cnt",
					"outputs": [
						{
							"internalType": "uint256",
							"name": "",
							"type": "uint256"
						}
					],
					"stateMutability": "view",
					"type": "function"
				},
				{
					"inputs": [],
					"name": "get_sum_of_commitments",
					"outputs": [
						{
							"components": [
								{
									"internalType": "uint256",
									"name": "X",
									"type": "uint256"
								},
								{
									"internalType": "uint256",
									"name": "Y",
									"type": "uint256"
								}
							],
							"internalType": "struct Pairing.G1Point",
							"name": "",
							"type": "tuple"
						}
					],
					"stateMutability": "view",
					"type": "function"
				},
				{
					"inputs": [],
					"name": "get_vk",
					"outputs": [
						{
							"internalType": "uint256[]",
							"name": "",
							"type": "uint256[]"
						}
					],
					"stateMutability": "view",
					"type": "function"
				},
				{
					"inputs": [
						{
							"internalType": "uint256",
							"name": "_x",
							"type": "uint256"
						}
					],
					"name": "is_appeared_sum_of_commitments",
					"outputs": [
						{
							"internalType": "bool",
							"name": "",
							"type": "bool"
						}
					],
					"stateMutability": "view",
					"type": "function"
				},
				{
					"inputs": [],
					"name": "owner",
					"outputs": [
						{
							"internalType": "address",
							"name": "",
							"type": "address"
						}
					],
					"stateMutability": "view",
					"type": "function"
				},
				{
					"inputs": [],
					"name": "renounceOwnership",
					"outputs": [],
					"stateMutability": "nonpayable",
					"type": "function"
				},
				{
					"inputs": [
						{
							"internalType": "address",
							"name": "newOwner",
							"type": "address"
						}
					],
					"name": "transferOwnership",
					"outputs": [],
					"stateMutability": "nonpayable",
					"type": "function"
				},
				{
					"inputs": [
						{
							"internalType": "uint256",
							"name": "idx",
							"type": "uint256"
						},
						{
							"internalType": "uint256[]",
							"name": "proof",
							"type": "uint256[]"
						}
					],
					"name": "update_commitment",
					"outputs": [
						{
							"internalType": "bool",
							"name": "",
							"type": "bool"
						}
					],
					"stateMutability": "nonpayable",
					"type": "function"
				},
				{
					"inputs": [
						{
							"internalType": "uint256[]",
							"name": "proof",
							"type": "uint256[]"
						}
					],
					"name": "upload_commitment",
					"outputs": [
						{
							"internalType": "uint256",
							"name": "",
							"type": "uint256"
						}
					],
					"stateMutability": "nonpayable",
					"type": "function"
				}
			],
			"devdoc": {
				"kind": "dev",
				"methods": {
					"owner()": {
						"details": "Returns the address of the current owner."
					},
					"renounceOwnership()": {
						"details": "Leaves the contract without owner. It will not be possible to call `onlyOwner` functions. Can only be called by the current owner. NOTE: Renouncing ownership will leave the contract without an owner, thereby disabling any functionality that is only available to the owner."
					},
					"transferOwnership(address)": {
						"details": "Transfers ownership of the contract to a new account (`newOwner`). Can only be called by the current owner."
					}
				},
				"version": 1
			},
			"evm": {
				"assembly": "    /* \"contracts/proofOfReserves.sol\":185:2756  contract ProofOfReservesContractL2 is Ownable {... */\n  mstore(0x40, 0x80)\n    /* \"contracts/proofOfReserves.sol\":586:607  Pairing.G1Point(0, 0) */\n  mload(0x40)\n  dup1\n  0x40\n  add\n  0x40\n  mstore\n  dup1\n    /* \"contracts/proofOfReserves.sol\":602:603  0 */\n  0x00\n    /* \"contracts/proofOfReserves.sol\":586:607  Pairing.G1Point(0, 0) */\n  dup2\n  mstore\n  0x20\n  add\n    /* \"contracts/proofOfReserves.sol\":605:606  0 */\n  0x00\n    /* \"contracts/proofOfReserves.sol\":586:607  Pairing.G1Point(0, 0) */\n  dup2\n  mstore\n  pop\n    /* \"contracts/proofOfReserves.sol\":552:607  Pairing.G1Point sumOfCommitment = Pairing.G1Point(0, 0) */\n  0x03\n  0x00\n  dup3\n  add\n  mload\n  dup2\n  0x00\n  add\n  sstore\n  0x20\n  dup3\n  add\n  mload\n  dup2\n  0x01\n  add\n  sstore\n  pop\n  pop\n    /* \"contracts/proofOfReserves.sol\":670:671  0 */\n  0x00\n    /* \"contracts/proofOfReserves.sol\":642:671  uint256 private commitCnt = 0 */\n  0x05\n  sstore\n    /* \"contracts/proofOfReserves.sol\":772:841  constructor(uint256[] memory _vk) {... */\n  callvalue\n  dup1\n  iszero\n  tag_1\n  jumpi\n  0x00\n  dup1\n  revert\ntag_1:\n  pop\n  mload(0x40)\n  sub(codesize, bytecodeSize)\n  dup1\n  bytecodeSize\n  dup4\n  codecopy\n  dup2\n  dup2\n  add\n  0x40\n  mstore\n  dup2\n  add\n  swap1\n  tag_2\n  swap2\n  swap1\n  tag_3\n  jump\t// in\ntag_2:\n    /* \"@openzeppelin/contracts/access/Ownable.sol\":936:968  _transferOwnership(_msgSender()) */\n  tag_7\n    /* \"@openzeppelin/contracts/access/Ownable.sol\":955:967  _msgSender() */\n  tag_8\n    /* \"@openzeppelin/contracts/access/Ownable.sol\":955:965  _msgSender */\n  shl(0x20, tag_9)\n    /* \"@openzeppelin/contracts/access/Ownable.sol\":955:967  _msgSender() */\n  0x20\n  shr\n  jump\t// in\ntag_8:\n    /* \"@openzeppelin/contracts/access/Ownable.sol\":936:954  _transferOwnership */\n  shl(0x20, tag_10)\n    /* \"@openzeppelin/contracts/access/Ownable.sol\":936:968  _transferOwnership(_msgSender()) */\n  0x20\n  shr\n  jump\t// in\ntag_7:\n    /* \"contracts/proofOfReserves.sol\":831:834  _vk */\n  dup1\n    /* \"contracts/proofOfReserves.sol\":816:828  verifyingKey */\n  0x01\n    /* \"contracts/proofOfReserves.sol\":816:834  verifyingKey = _vk */\n  swap1\n  dup1\n  mload\n  swap1\n  0x20\n  add\n  swap1\n  tag_12\n  swap3\n  swap2\n  swap1\n  tag_13\n  jump\t// in\ntag_12:\n  pop\n    /* \"contracts/proofOfReserves.sol\":772:841  constructor(uint256[] memory _vk) {... */\n  pop\n    /* \"contracts/proofOfReserves.sol\":185:2756  contract ProofOfReservesContractL2 is Ownable {... */\n  jump(tag_14)\n    /* \"@openzeppelin/contracts/utils/Context.sol\":640:736  function _msgSender() internal view virtual returns (address) {... */\ntag_9:\n    /* \"@openzeppelin/contracts/utils/Context.sol\":693:700  address */\n  0x00\n    /* \"@openzeppelin/contracts/utils/Context.sol\":719:729  msg.sender */\n  caller\n    /* \"@openzeppelin/contracts/utils/Context.sol\":712:729  return msg.sender */\n  swap1\n  pop\n    /* \"@openzeppelin/contracts/utils/Context.sol\":640:736  function _msgSender() internal view virtual returns (address) {... */\n  swap1\n  jump\t// out\n    /* \"@openzeppelin/contracts/access/Ownable.sol\":2426:2613  function _transferOwnership(address newOwner) internal virtual {... */\ntag_10:\n    /* \"@openzeppelin/contracts/access/Ownable.sol\":2499:2515  address oldOwner */\n  0x00\n    /* \"@openzeppelin/contracts/access/Ownable.sol\":2518:2524  _owner */\n  dup1\n  0x00\n  swap1\n  sload\n  swap1\n  0x0100\n  exp\n  swap1\n  div\n  0xffffffffffffffffffffffffffffffffffffffff\n  and\n    /* \"@openzeppelin/contracts/access/Ownable.sol\":2499:2524  address oldOwner = _owner */\n  swap1\n  pop\n    /* \"@openzeppelin/contracts/access/Ownable.sol\":2543:2551  newOwner */\n  dup2\n    /* \"@openzeppelin/contracts/access/Ownable.sol\":2534:2540  _owner */\n  0x00\n  dup1\n    /* \"@openzeppelin/contracts/access/Ownable.sol\":2534:2551  _owner = newOwner */\n  0x0100\n  exp\n  dup2\n  sload\n  dup2\n  0xffffffffffffffffffffffffffffffffffffffff\n  mul\n  not\n  and\n  swap1\n  dup4\n  0xffffffffffffffffffffffffffffffffffffffff\n  and\n  mul\n  or\n  swap1\n  sstore\n  pop\n    /* \"@openzeppelin/contracts/access/Ownable.sol\":2597:2605  newOwner */\n  dup2\n    /* \"@openzeppelin/contracts/access/Ownable.sol\":2566:2606  OwnershipTransferred(oldOwner, newOwner) */\n  0xffffffffffffffffffffffffffffffffffffffff\n  and\n    /* \"@openzeppelin/contracts/access/Ownable.sol\":2587:2595  oldOwner */\n  dup2\n    /* \"@openzeppelin/contracts/access/Ownable.sol\":2566:2606  OwnershipTransferred(oldOwner, newOwner) */\n  0xffffffffffffffffffffffffffffffffffffffff\n  and\n  0x8be0079c531659141344cd1fd0a4f28419497f9722a3daafe3b4186f6b6457e0\n  mload(0x40)\n  mload(0x40)\n  dup1\n  swap2\n  sub\n  swap1\n  log3\n    /* \"@openzeppelin/contracts/access/Ownable.sol\":2489:2613  {... */\n  pop\n    /* \"@openzeppelin/contracts/access/Ownable.sol\":2426:2613  function _transferOwnership(address newOwner) internal virtual {... */\n  pop\n  jump\t// out\n    /* \"contracts/proofOfReserves.sol\":185:2756  contract ProofOfReservesContractL2 is Ownable {... */\ntag_13:\n  dup3\n  dup1\n  sload\n  dup3\n  dup3\n  sstore\n  swap1\n  0x00\n  mstore\n  keccak256(0x00, 0x20)\n  swap1\n  dup2\n  add\n  swap3\n  dup3\n  iszero\n  tag_17\n  jumpi\n  swap2\n  0x20\n  mul\n  dup3\n  add\ntag_18:\n  dup3\n  dup2\n  gt\n  iszero\n  tag_19\n  jumpi\n  dup3\n  mload\n  dup3\n  sstore\n  swap2\n  0x20\n  add\n  swap2\n  swap1\n  0x01\n  add\n  swap1\n  jump(tag_18)\ntag_19:\ntag_17:\n  pop\n  swap1\n  pop\n  tag_20\n  swap2\n  swap1\n  tag_21\n  jump\t// in\ntag_20:\n  pop\n  swap1\n  jump\t// out\ntag_21:\ntag_22:\n  dup1\n  dup3\n  gt\n  iszero\n  tag_23\n  jumpi\n  0x00\n  dup2\n  0x00\n  swap1\n  sstore\n  pop\n  0x01\n  add\n  jump(tag_22)\ntag_23:\n  pop\n  swap1\n  jump\t// out\n    /* \"#utility.yul\":24:768   */\ntag_25:\n    /* \"#utility.yul\":131:136   */\n  0x00\n    /* \"#utility.yul\":156:237   */\n  tag_27\n    /* \"#utility.yul\":172:236   */\n  tag_28\n    /* \"#utility.yul\":229:235   */\n  dup5\n    /* \"#utility.yul\":172:236   */\n  tag_29\n  jump\t// in\ntag_28:\n    /* \"#utility.yul\":156:237   */\n  tag_30\n  jump\t// in\ntag_27:\n    /* \"#utility.yul\":147:237   */\n  swap1\n  pop\n    /* \"#utility.yul\":257:262   */\n  dup1\n    /* \"#utility.yul\":286:292   */\n  dup4\n    /* \"#utility.yul\":279:284   */\n  dup3\n    /* \"#utility.yul\":272:293   */\n  mstore\n    /* \"#utility.yul\":320:324   */\n  0x20\n    /* \"#utility.yul\":313:318   */\n  dup3\n    /* \"#utility.yul\":309:325   */\n  add\n    /* \"#utility.yul\":302:325   */\n  swap1\n  pop\n    /* \"#utility.yul\":346:352   */\n  dup3\n    /* \"#utility.yul\":396:399   */\n  dup6\n    /* \"#utility.yul\":388:392   */\n  0x20\n    /* \"#utility.yul\":380:386   */\n  dup7\n    /* \"#utility.yul\":376:393   */\n  mul\n    /* \"#utility.yul\":371:374   */\n  dup3\n    /* \"#utility.yul\":367:394   */\n  add\n    /* \"#utility.yul\":364:400   */\n  gt\n    /* \"#utility.yul\":361:504   */\n  iszero\n  tag_31\n  jumpi\n    /* \"#utility.yul\":415:494   */\n  tag_32\n  tag_33\n  jump\t// in\ntag_32:\n    /* \"#utility.yul\":361:504   */\ntag_31:\n    /* \"#utility.yul\":528:529   */\n  0x00\n    /* \"#utility.yul\":513:762   */\ntag_34:\n    /* \"#utility.yul\":538:544   */\n  dup6\n    /* \"#utility.yul\":535:536   */\n  dup2\n    /* \"#utility.yul\":532:545   */\n  lt\n    /* \"#utility.yul\":513:762   */\n  iszero\n  tag_36\n  jumpi\n    /* \"#utility.yul\":606:609   */\n  dup2\n    /* \"#utility.yul\":635:683   */\n  tag_37\n    /* \"#utility.yul\":679:682   */\n  dup9\n    /* \"#utility.yul\":667:677   */\n  dup3\n    /* \"#utility.yul\":635:683   */\n  tag_38\n  jump\t// in\ntag_37:\n    /* \"#utility.yul\":630:633   */\n  dup5\n    /* \"#utility.yul\":623:684   */\n  mstore\n    /* \"#utility.yul\":713:717   */\n  0x20\n    /* \"#utility.yul\":708:711   */\n  dup5\n    /* \"#utility.yul\":704:718   */\n  add\n    /* \"#utility.yul\":697:718   */\n  swap4\n  pop\n    /* \"#utility.yul\":747:751   */\n  0x20\n    /* \"#utility.yul\":742:745   */\n  dup4\n    /* \"#utility.yul\":738:752   */\n  add\n    /* \"#utility.yul\":731:752   */\n  swap3\n  pop\n    /* \"#utility.yul\":573:762   */\n  pop\n    /* \"#utility.yul\":560:561   */\n  0x01\n    /* \"#utility.yul\":557:558   */\n  dup2\n    /* \"#utility.yul\":553:562   */\n  add\n    /* \"#utility.yul\":548:562   */\n  swap1\n  pop\n    /* \"#utility.yul\":513:762   */\n  jump(tag_34)\ntag_36:\n    /* \"#utility.yul\":517:531   */\n  pop\n    /* \"#utility.yul\":137:768   */\n  pop\n  pop\n    /* \"#utility.yul\":24:768   */\n  swap4\n  swap3\n  pop\n  pop\n  pop\n  jump\t// out\n    /* \"#utility.yul\":791:1176   */\ntag_39:\n    /* \"#utility.yul\":873:878   */\n  0x00\n    /* \"#utility.yul\":922:925   */\n  dup3\n    /* \"#utility.yul\":915:919   */\n  0x1f\n    /* \"#utility.yul\":907:913   */\n  dup4\n    /* \"#utility.yul\":903:920   */\n  add\n    /* \"#utility.yul\":899:926   */\n  slt\n    /* \"#utility.yul\":889:1011   */\n  tag_41\n  jumpi\n    /* \"#utility.yul\":930:1009   */\n  tag_42\n  tag_43\n  jump\t// in\ntag_42:\n    /* \"#utility.yul\":889:1011   */\ntag_41:\n    /* \"#utility.yul\":1040:1046   */\n  dup2\n    /* \"#utility.yul\":1034:1047   */\n  mload\n    /* \"#utility.yul\":1065:1170   */\n  tag_44\n    /* \"#utility.yul\":1166:1169   */\n  dup5\n    /* \"#utility.yul\":1158:1164   */\n  dup3\n    /* \"#utility.yul\":1151:1155   */\n  0x20\n    /* \"#utility.yul\":1143:1149   */\n  dup7\n    /* \"#utility.yul\":1139:1156   */\n  add\n    /* \"#utility.yul\":1065:1170   */\n  tag_25\n  jump\t// in\ntag_44:\n    /* \"#utility.yul\":1056:1170   */\n  swap2\n  pop\n    /* \"#utility.yul\":879:1176   */\n  pop\n    /* \"#utility.yul\":791:1176   */\n  swap3\n  swap2\n  pop\n  pop\n  jump\t// out\n    /* \"#utility.yul\":1182:1325   */\ntag_38:\n    /* \"#utility.yul\":1239:1244   */\n  0x00\n    /* \"#utility.yul\":1270:1276   */\n  dup2\n    /* \"#utility.yul\":1264:1277   */\n  mload\n    /* \"#utility.yul\":1255:1277   */\n  swap1\n  pop\n    /* \"#utility.yul\":1286:1319   */\n  tag_46\n    /* \"#utility.yul\":1313:1318   */\n  dup2\n    /* \"#utility.yul\":1286:1319   */\n  tag_47\n  jump\t// in\ntag_46:\n    /* \"#utility.yul\":1182:1325   */\n  swap3\n  swap2\n  pop\n  pop\n  jump\t// out\n    /* \"#utility.yul\":1331:1885   */\ntag_3:\n    /* \"#utility.yul\":1426:1432   */\n  0x00\n    /* \"#utility.yul\":1475:1477   */\n  0x20\n    /* \"#utility.yul\":1463:1472   */\n  dup3\n    /* \"#utility.yul\":1454:1461   */\n  dup5\n    /* \"#utility.yul\":1450:1473   */\n  sub\n    /* \"#utility.yul\":1446:1478   */\n  slt\n    /* \"#utility.yul\":1443:1562   */\n  iszero\n  tag_49\n  jumpi\n    /* \"#utility.yul\":1481:1560   */\n  tag_50\n  tag_51\n  jump\t// in\ntag_50:\n    /* \"#utility.yul\":1443:1562   */\ntag_49:\n    /* \"#utility.yul\":1622:1623   */\n  0x00\n    /* \"#utility.yul\":1611:1620   */\n  dup3\n    /* \"#utility.yul\":1607:1624   */\n  add\n    /* \"#utility.yul\":1601:1625   */\n  mload\n    /* \"#utility.yul\":1652:1670   */\n  0xffffffffffffffff\n    /* \"#utility.yul\":1644:1650   */\n  dup2\n    /* \"#utility.yul\":1641:1671   */\n  gt\n    /* \"#utility.yul\":1638:1755   */\n  iszero\n  tag_52\n  jumpi\n    /* \"#utility.yul\":1674:1753   */\n  tag_53\n  tag_54\n  jump\t// in\ntag_53:\n    /* \"#utility.yul\":1638:1755   */\ntag_52:\n    /* \"#utility.yul\":1779:1868   */\n  tag_55\n    /* \"#utility.yul\":1860:1867   */\n  dup5\n    /* \"#utility.yul\":1851:1857   */\n  dup3\n    /* \"#utility.yul\":1840:1849   */\n  dup6\n    /* \"#utility.yul\":1836:1858   */\n  add\n    /* \"#utility.yul\":1779:1868   */\n  tag_39\n  jump\t// in\ntag_55:\n    /* \"#utility.yul\":1769:1868   */\n  swap2\n  pop\n    /* \"#utility.yul\":1572:1878   */\n  pop\n    /* \"#utility.yul\":1331:1885   */\n  swap3\n  swap2\n  pop\n  pop\n  jump\t// out\n    /* \"#utility.yul\":1891:2020   */\ntag_30:\n    /* \"#utility.yul\":1925:1931   */\n  0x00\n    /* \"#utility.yul\":1952:1972   */\n  tag_57\n  tag_58\n  jump\t// in\ntag_57:\n    /* \"#utility.yul\":1942:1972   */\n  swap1\n  pop\n    /* \"#utility.yul\":1981:2014   */\n  tag_59\n    /* \"#utility.yul\":2009:2013   */\n  dup3\n    /* \"#utility.yul\":2001:2007   */\n  dup3\n    /* \"#utility.yul\":1981:2014   */\n  tag_60\n  jump\t// in\ntag_59:\n    /* \"#utility.yul\":1891:2020   */\n  swap2\n  swap1\n  pop\n  jump\t// out\n    /* \"#utility.yul\":2026:2101   */\ntag_58:\n    /* \"#utility.yul\":2059:2065   */\n  0x00\n    /* \"#utility.yul\":2092:2094   */\n  0x40\n    /* \"#utility.yul\":2086:2095   */\n  mload\n    /* \"#utility.yul\":2076:2095   */\n  swap1\n  pop\n    /* \"#utility.yul\":2026:2101   */\n  swap1\n  jump\t// out\n    /* \"#utility.yul\":2107:2418   */\ntag_29:\n    /* \"#utility.yul\":2184:2188   */\n  0x00\n    /* \"#utility.yul\":2274:2292   */\n  0xffffffffffffffff\n    /* \"#utility.yul\":2266:2272   */\n  dup3\n    /* \"#utility.yul\":2263:2293   */\n  gt\n    /* \"#utility.yul\":2260:2316   */\n  iszero\n  tag_63\n  jumpi\n    /* \"#utility.yul\":2296:2314   */\n  tag_64\n  tag_65\n  jump\t// in\ntag_64:\n    /* \"#utility.yul\":2260:2316   */\ntag_63:\n    /* \"#utility.yul\":2346:2350   */\n  0x20\n    /* \"#utility.yul\":2338:2344   */\n  dup3\n    /* \"#utility.yul\":2334:2351   */\n  mul\n    /* \"#utility.yul\":2326:2351   */\n  swap1\n  pop\n    /* \"#utility.yul\":2406:2410   */\n  0x20\n    /* \"#utility.yul\":2400:2404   */\n  dup2\n    /* \"#utility.yul\":2396:2411   */\n  add\n    /* \"#utility.yul\":2388:2411   */\n  swap1\n  pop\n    /* \"#utility.yul\":2107:2418   */\n  swap2\n  swap1\n  pop\n  jump\t// out\n    /* \"#utility.yul\":2424:2501   */\ntag_66:\n    /* \"#utility.yul\":2461:2468   */\n  0x00\n    /* \"#utility.yul\":2490:2495   */\n  dup2\n    /* \"#utility.yul\":2479:2495   */\n  swap1\n  pop\n    /* \"#utility.yul\":2424:2501   */\n  swap2\n  swap1\n  pop\n  jump\t// out\n    /* \"#utility.yul\":2507:2788   */\ntag_60:\n    /* \"#utility.yul\":2590:2617   */\n  tag_69\n    /* \"#utility.yul\":2612:2616   */\n  dup3\n    /* \"#utility.yul\":2590:2617   */\n  tag_70\n  jump\t// in\ntag_69:\n    /* \"#utility.yul\":2582:2588   */\n  dup2\n    /* \"#utility.yul\":2578:2618   */\n  add\n    /* \"#utility.yul\":2720:2726   */\n  dup2\n    /* \"#utility.yul\":2708:2718   */\n  dup2\n    /* \"#utility.yul\":2705:2727   */\n  lt\n    /* \"#utility.yul\":2684:2702   */\n  0xffffffffffffffff\n    /* \"#utility.yul\":2672:2682   */\n  dup3\n    /* \"#utility.yul\":2669:2703   */\n  gt\n    /* \"#utility.yul\":2666:2728   */\n  or\n    /* \"#utility.yul\":2663:2751   */\n  iszero\n  tag_71\n  jumpi\n    /* \"#utility.yul\":2731:2749   */\n  tag_72\n  tag_65\n  jump\t// in\ntag_72:\n    /* \"#utility.yul\":2663:2751   */\ntag_71:\n    /* \"#utility.yul\":2771:2781   */\n  dup1\n    /* \"#utility.yul\":2767:2769   */\n  0x40\n    /* \"#utility.yul\":2760:2782   */\n  mstore\n    /* \"#utility.yul\":2550:2788   */\n  pop\n    /* \"#utility.yul\":2507:2788   */\n  pop\n  pop\n  jump\t// out\n    /* \"#utility.yul\":2794:2974   */\ntag_65:\n    /* \"#utility.yul\":2842:2919   */\n  0x4e487b7100000000000000000000000000000000000000000000000000000000\n    /* \"#utility.yul\":2839:2840   */\n  0x00\n    /* \"#utility.yul\":2832:2920   */\n  mstore\n    /* \"#utility.yul\":2939:2943   */\n  0x41\n    /* \"#utility.yul\":2936:2937   */\n  0x04\n    /* \"#utility.yul\":2929:2944   */\n  mstore\n    /* \"#utility.yul\":2963:2967   */\n  0x24\n    /* \"#utility.yul\":2960:2961   */\n  0x00\n    /* \"#utility.yul\":2953:2968   */\n  revert\n    /* \"#utility.yul\":2980:3097   */\ntag_43:\n    /* \"#utility.yul\":3089:3090   */\n  0x00\n    /* \"#utility.yul\":3086:3087   */\n  dup1\n    /* \"#utility.yul\":3079:3091   */\n  revert\n    /* \"#utility.yul\":3103:3220   */\ntag_33:\n    /* \"#utility.yul\":3212:3213   */\n  0x00\n    /* \"#utility.yul\":3209:3210   */\n  dup1\n    /* \"#utility.yul\":3202:3214   */\n  revert\n    /* \"#utility.yul\":3226:3343   */\ntag_54:\n    /* \"#utility.yul\":3335:3336   */\n  0x00\n    /* \"#utility.yul\":3332:3333   */\n  dup1\n    /* \"#utility.yul\":3325:3337   */\n  revert\n    /* \"#utility.yul\":3349:3466   */\ntag_51:\n    /* \"#utility.yul\":3458:3459   */\n  0x00\n    /* \"#utility.yul\":3455:3456   */\n  dup1\n    /* \"#utility.yul\":3448:3460   */\n  revert\n    /* \"#utility.yul\":3472:3574   */\ntag_70:\n    /* \"#utility.yul\":3513:3519   */\n  0x00\n    /* \"#utility.yul\":3564:3566   */\n  0x1f\n    /* \"#utility.yul\":3560:3567   */\n  not\n    /* \"#utility.yul\":3555:3557   */\n  0x1f\n    /* \"#utility.yul\":3548:3553   */\n  dup4\n    /* \"#utility.yul\":3544:3558   */\n  add\n    /* \"#utility.yul\":3540:3568   */\n  and\n    /* \"#utility.yul\":3530:3568   */\n  swap1\n  pop\n    /* \"#utility.yul\":3472:3574   */\n  swap2\n  swap1\n  pop\n  jump\t// out\n    /* \"#utility.yul\":3580:3702   */\ntag_47:\n    /* \"#utility.yul\":3653:3677   */\n  tag_80\n    /* \"#utility.yul\":3671:3676   */\n  dup2\n    /* \"#utility.yul\":3653:3677   */\n  tag_66\n  jump\t// in\ntag_80:\n    /* \"#utility.yul\":3646:3651   */\n  dup2\n    /* \"#utility.yul\":3643:3678   */\n  eq\n    /* \"#utility.yul\":3633:3696   */\n  tag_81\n  jumpi\n    /* \"#utility.yul\":3692:3693   */\n  0x00\n    /* \"#utility.yul\":3689:3690   */\n  dup1\n    /* \"#utility.yul\":3682:3694   */\n  revert\n    /* \"#utility.yul\":3633:3696   */\ntag_81:\n    /* \"#utility.yul\":3580:3702   */\n  pop\n  jump\t// out\n    /* \"contracts/proofOfReserves.sol\":185:2756  contract ProofOfReservesContractL2 is Ownable {... */\ntag_14:\n  dataSize(sub_0)\n  dup1\n  dataOffset(sub_0)\n  0x00\n  codecopy\n  0x00\n  return\nstop\n\nsub_0: assembly {\n        /* \"contracts/proofOfReserves.sol\":185:2756  contract ProofOfReservesContractL2 is Ownable {... */\n      mstore(0x40, 0x80)\n      callvalue\n      dup1\n      iszero\n      tag_1\n      jumpi\n      0x00\n      dup1\n      revert\n    tag_1:\n      pop\n      jumpi(tag_2, lt(calldatasize, 0x04))\n      shr(0xe0, calldataload(0x00))\n      dup1\n      0x8e0f0c5f\n      gt\n      tag_13\n      jumpi\n      dup1\n      0x8e0f0c5f\n      eq\n      tag_8\n      jumpi\n      dup1\n      0xdef596ef\n      eq\n      tag_9\n      jumpi\n      dup1\n      0xf123b45a\n      eq\n      tag_10\n      jumpi\n      dup1\n      0xf2fde38b\n      eq\n      tag_11\n      jumpi\n      dup1\n      0xf5c13593\n      eq\n      tag_12\n      jumpi\n      jump(tag_2)\n    tag_13:\n      dup1\n      0x0651a124\n      eq\n      tag_3\n      jumpi\n      dup1\n      0x068a2253\n      eq\n      tag_4\n      jumpi\n      dup1\n      0x621a9326\n      eq\n      tag_5\n      jumpi\n      dup1\n      0x715018a6\n      eq\n      tag_6\n      jumpi\n      dup1\n      0x8da5cb5b\n      eq\n      tag_7\n      jumpi\n    tag_2:\n      0x00\n      dup1\n      revert\n        /* \"contracts/proofOfReserves.sol\":2503:2621  function get_sum_of_commitments() public view returns (Pairing.G1Point memory) {... */\n    tag_3:\n      tag_14\n      tag_15\n      jump\t// in\n    tag_14:\n      mload(0x40)\n      tag_16\n      swap2\n      swap1\n      tag_17\n      jump\t// in\n    tag_16:\n      mload(0x40)\n      dup1\n      swap2\n      sub\n      swap1\n      return\n        /* \"contracts/proofOfReserves.sol\":2285:2398  function get_all_commitments() public view returns (Pairing.G1Point[] memory) {... */\n    tag_4:\n      tag_18\n      tag_19\n      jump\t// in\n    tag_18:\n      mload(0x40)\n      tag_20\n      swap2\n      swap1\n      tag_21\n      jump\t// in\n    tag_20:\n      mload(0x40)\n      dup1\n      swap2\n      sub\n      swap1\n      return\n        /* \"contracts/proofOfReserves.sol\":2404:2497  function get_commitment_cnt() public view returns (uint256) {... */\n    tag_5:\n      tag_22\n      tag_23\n      jump\t// in\n    tag_22:\n      mload(0x40)\n      tag_24\n      swap2\n      swap1\n      tag_25\n      jump\t// in\n    tag_24:\n      mload(0x40)\n      dup1\n      swap2\n      sub\n      swap1\n      return\n        /* \"@openzeppelin/contracts/access/Ownable.sol\":1824:1925  function renounceOwnership() public virtual onlyOwner {... */\n    tag_6:\n      tag_26\n      tag_27\n      jump\t// in\n    tag_26:\n      stop\n        /* \"@openzeppelin/contracts/access/Ownable.sol\":1201:1286  function owner() public view virtual returns (address) {... */\n    tag_7:\n      tag_28\n      tag_29\n      jump\t// in\n    tag_28:\n      mload(0x40)\n      tag_30\n      swap2\n      swap1\n      tag_31\n      jump\t// in\n    tag_30:\n      mload(0x40)\n      dup1\n      swap2\n      sub\n      swap1\n      return\n        /* \"contracts/proofOfReserves.sol\":2627:2754  function is_appeared_sum_of_commitments(uint256 _x) public view returns (bool) {... */\n    tag_8:\n      tag_32\n      0x04\n      dup1\n      calldatasize\n      sub\n      dup2\n      add\n      swap1\n      tag_33\n      swap2\n      swap1\n      tag_34\n      jump\t// in\n    tag_33:\n      tag_35\n      jump\t// in\n    tag_32:\n      mload(0x40)\n      tag_36\n      swap2\n      swap1\n      tag_37\n      jump\t// in\n    tag_36:\n      mload(0x40)\n      dup1\n      swap2\n      sub\n      swap1\n      return\n        /* \"contracts/proofOfReserves.sol\":2186:2279  function get_vk() public view returns (uint256[] memory) {... */\n    tag_9:\n      tag_38\n      tag_39\n      jump\t// in\n    tag_38:\n      mload(0x40)\n      tag_40\n      swap2\n      swap1\n      tag_41\n      jump\t// in\n    tag_40:\n      mload(0x40)\n      dup1\n      swap2\n      sub\n      swap1\n      return\n        /* \"contracts/proofOfReserves.sol\":1510:2180  function update_commitment(... */\n    tag_10:\n      tag_42\n      0x04\n      dup1\n      calldatasize\n      sub\n      dup2\n      add\n      swap1\n      tag_43\n      swap2\n      swap1\n      tag_44\n      jump\t// in\n    tag_43:\n      tag_45\n      jump\t// in\n    tag_42:\n      mload(0x40)\n      tag_46\n      swap2\n      swap1\n      tag_37\n      jump\t// in\n    tag_46:\n      mload(0x40)\n      dup1\n      swap2\n      sub\n      swap1\n      return\n        /* \"@openzeppelin/contracts/access/Ownable.sol\":2074:2272  function transferOwnership(address newOwner) public virtual onlyOwner {... */\n    tag_11:\n      tag_47\n      0x04\n      dup1\n      calldatasize\n      sub\n      dup2\n      add\n      swap1\n      tag_48\n      swap2\n      swap1\n      tag_49\n      jump\t// in\n    tag_48:\n      tag_50\n      jump\t// in\n    tag_47:\n      stop\n        /* \"contracts/proofOfReserves.sol\":998:1504  function upload_commitment(... */\n    tag_12:\n      tag_51\n      0x04\n      dup1\n      calldatasize\n      sub\n      dup2\n      add\n      swap1\n      tag_52\n      swap2\n      swap1\n      tag_53\n      jump\t// in\n    tag_52:\n      tag_54\n      jump\t// in\n    tag_51:\n      mload(0x40)\n      tag_55\n      swap2\n      swap1\n      tag_25\n      jump\t// in\n    tag_55:\n      mload(0x40)\n      dup1\n      swap2\n      sub\n      swap1\n      return\n        /* \"contracts/proofOfReserves.sol\":2503:2621  function get_sum_of_commitments() public view returns (Pairing.G1Point memory) {... */\n    tag_15:\n        /* \"contracts/proofOfReserves.sol\":2558:2580  Pairing.G1Point memory */\n      tag_56\n      tag_57\n      jump\t// in\n    tag_56:\n        /* \"contracts/proofOfReserves.sol\":2599:2614  sumOfCommitment */\n      0x03\n        /* \"contracts/proofOfReserves.sol\":2592:2614  return sumOfCommitment */\n      mload(0x40)\n      dup1\n      0x40\n      add\n      0x40\n      mstore\n      swap1\n      dup2\n      0x00\n      dup3\n      add\n      sload\n      dup2\n      mstore\n      0x20\n      add\n      0x01\n      dup3\n      add\n      sload\n      dup2\n      mstore\n      pop\n      pop\n      swap1\n      pop\n        /* \"contracts/proofOfReserves.sol\":2503:2621  function get_sum_of_commitments() public view returns (Pairing.G1Point memory) {... */\n      swap1\n      jump\t// out\n        /* \"contracts/proofOfReserves.sol\":2285:2398  function get_all_commitments() public view returns (Pairing.G1Point[] memory) {... */\n    tag_19:\n        /* \"contracts/proofOfReserves.sol\":2337:2361  Pairing.G1Point[] memory */\n      0x60\n        /* \"contracts/proofOfReserves.sol\":2380:2391  commitArray */\n      0x02\n        /* \"contracts/proofOfReserves.sol\":2373:2391  return commitArray */\n      dup1\n      sload\n      dup1\n      0x20\n      mul\n      0x20\n      add\n      mload(0x40)\n      swap1\n      dup2\n      add\n      0x40\n      mstore\n      dup1\n      swap3\n      swap2\n      swap1\n      dup2\n      dup2\n      mstore\n      0x20\n      add\n      0x00\n      swap1\n    tag_60:\n      dup3\n      dup3\n      lt\n      iszero\n      tag_61\n      jumpi\n      dup4\n      dup3\n      swap1\n      0x00\n      mstore\n      keccak256(0x00, 0x20)\n      swap1\n      0x02\n      mul\n      add\n      mload(0x40)\n      dup1\n      0x40\n      add\n      0x40\n      mstore\n      swap1\n      dup2\n      0x00\n      dup3\n      add\n      sload\n      dup2\n      mstore\n      0x20\n      add\n      0x01\n      dup3\n      add\n      sload\n      dup2\n      mstore\n      pop\n      pop\n      dup2\n      mstore\n      0x20\n      add\n      swap1\n      0x01\n      add\n      swap1\n      jump(tag_60)\n    tag_61:\n      pop\n      pop\n      pop\n      pop\n      swap1\n      pop\n        /* \"contracts/proofOfReserves.sol\":2285:2398  function get_all_commitments() public view returns (Pairing.G1Point[] memory) {... */\n      swap1\n      jump\t// out\n        /* \"contracts/proofOfReserves.sol\":2404:2497  function get_commitment_cnt() public view returns (uint256) {... */\n    tag_23:\n        /* \"contracts/proofOfReserves.sol\":2455:2462  uint256 */\n      0x00\n        /* \"contracts/proofOfReserves.sol\":2481:2490  commitCnt */\n      sload(0x05)\n        /* \"contracts/proofOfReserves.sol\":2474:2490  return commitCnt */\n      swap1\n      pop\n        /* \"contracts/proofOfReserves.sol\":2404:2497  function get_commitment_cnt() public view returns (uint256) {... */\n      swap1\n      jump\t// out\n        /* \"@openzeppelin/contracts/access/Ownable.sol\":1824:1925  function renounceOwnership() public virtual onlyOwner {... */\n    tag_27:\n        /* \"@openzeppelin/contracts/access/Ownable.sol\":1094:1107  _checkOwner() */\n      tag_65\n        /* \"@openzeppelin/contracts/access/Ownable.sol\":1094:1105  _checkOwner */\n      tag_66\n        /* \"@openzeppelin/contracts/access/Ownable.sol\":1094:1107  _checkOwner() */\n      jump\t// in\n    tag_65:\n        /* \"@openzeppelin/contracts/access/Ownable.sol\":1888:1918  _transferOwnership(address(0)) */\n      tag_68\n        /* \"@openzeppelin/contracts/access/Ownable.sol\":1915:1916  0 */\n      0x00\n        /* \"@openzeppelin/contracts/access/Ownable.sol\":1888:1906  _transferOwnership */\n      tag_69\n        /* \"@openzeppelin/contracts/access/Ownable.sol\":1888:1918  _transferOwnership(address(0)) */\n      jump\t// in\n    tag_68:\n        /* \"@openzeppelin/contracts/access/Ownable.sol\":1824:1925  function renounceOwnership() public virtual onlyOwner {... */\n      jump\t// out\n        /* \"@openzeppelin/contracts/access/Ownable.sol\":1201:1286  function owner() public view virtual returns (address) {... */\n    tag_29:\n        /* \"@openzeppelin/contracts/access/Ownable.sol\":1247:1254  address */\n      0x00\n        /* \"@openzeppelin/contracts/access/Ownable.sol\":1273:1279  _owner */\n      dup1\n      0x00\n      swap1\n      sload\n      swap1\n      0x0100\n      exp\n      swap1\n      div\n      0xffffffffffffffffffffffffffffffffffffffff\n      and\n        /* \"@openzeppelin/contracts/access/Ownable.sol\":1266:1279  return _owner */\n      swap1\n      pop\n        /* \"@openzeppelin/contracts/access/Ownable.sol\":1201:1286  function owner() public view virtual returns (address) {... */\n      swap1\n      jump\t// out\n        /* \"contracts/proofOfReserves.sol\":2627:2754  function is_appeared_sum_of_commitments(uint256 _x) public view returns (bool) {... */\n    tag_35:\n        /* \"contracts/proofOfReserves.sol\":2700:2704  bool */\n      0x00\n        /* \"contracts/proofOfReserves.sol\":2723:2743  _sumOfCommitmentList */\n      0x06\n        /* \"contracts/proofOfReserves.sol\":2723:2747  _sumOfCommitmentList[_x] */\n      0x00\n        /* \"contracts/proofOfReserves.sol\":2744:2746  _x */\n      dup4\n        /* \"contracts/proofOfReserves.sol\":2723:2747  _sumOfCommitmentList[_x] */\n      dup2\n      mstore\n      0x20\n      add\n      swap1\n      dup2\n      mstore\n      0x20\n      add\n      0x00\n      keccak256\n      0x00\n      swap1\n      sload\n      swap1\n      0x0100\n      exp\n      swap1\n      div\n      0xff\n      and\n        /* \"contracts/proofOfReserves.sol\":2716:2747  return _sumOfCommitmentList[_x] */\n      swap1\n      pop\n        /* \"contracts/proofOfReserves.sol\":2627:2754  function is_appeared_sum_of_commitments(uint256 _x) public view returns (bool) {... */\n      swap2\n      swap1\n      pop\n      jump\t// out\n        /* \"contracts/proofOfReserves.sol\":2186:2279  function get_vk() public view returns (uint256[] memory) {... */\n    tag_39:\n        /* \"contracts/proofOfReserves.sol\":2225:2241  uint256[] memory */\n      0x60\n        /* \"contracts/proofOfReserves.sol\":2260:2272  verifyingKey */\n      0x01\n        /* \"contracts/proofOfReserves.sol\":2253:2272  return verifyingKey */\n      dup1\n      sload\n      dup1\n      0x20\n      mul\n      0x20\n      add\n      mload(0x40)\n      swap1\n      dup2\n      add\n      0x40\n      mstore\n      dup1\n      swap3\n      swap2\n      swap1\n      dup2\n      dup2\n      mstore\n      0x20\n      add\n      dup3\n      dup1\n      sload\n      dup1\n      iszero\n      tag_73\n      jumpi\n      0x20\n      mul\n      dup3\n      add\n      swap2\n      swap1\n      0x00\n      mstore\n      keccak256(0x00, 0x20)\n      swap1\n    tag_74:\n      dup2\n      sload\n      dup2\n      mstore\n      0x20\n      add\n      swap1\n      0x01\n      add\n      swap1\n      dup1\n      dup4\n      gt\n      tag_74\n      jumpi\n    tag_73:\n      pop\n      pop\n      pop\n      pop\n      pop\n      swap1\n      pop\n        /* \"contracts/proofOfReserves.sol\":2186:2279  function get_vk() public view returns (uint256[] memory) {... */\n      swap1\n      jump\t// out\n        /* \"contracts/proofOfReserves.sol\":1510:2180  function update_commitment(... */\n    tag_45:\n        /* \"contracts/proofOfReserves.sol\":1622:1626  bool */\n      0x00\n        /* \"@openzeppelin/contracts/access/Ownable.sol\":1094:1107  _checkOwner() */\n      tag_76\n        /* \"@openzeppelin/contracts/access/Ownable.sol\":1094:1105  _checkOwner */\n      tag_66\n        /* \"@openzeppelin/contracts/access/Ownable.sol\":1094:1107  _checkOwner() */\n      jump\t// in\n    tag_76:\n        /* \"contracts/proofOfReserves.sol\":1652:1661  commitCnt */\n      sload(0x05)\n        /* \"contracts/proofOfReserves.sol\":1646:1649  idx */\n      dup4\n        /* \"contracts/proofOfReserves.sol\":1646:1661  idx < commitCnt */\n      lt\n        /* \"contracts/proofOfReserves.sol\":1638:1679  require(idx < commitCnt, \"Invalid index\") */\n      tag_78\n      jumpi\n      mload(0x40)\n      0x08c379a000000000000000000000000000000000000000000000000000000000\n      dup2\n      mstore\n      0x04\n      add\n      tag_79\n      swap1\n      tag_80\n      jump\t// in\n    tag_79:\n      mload(0x40)\n      dup1\n      swap2\n      sub\n      swap1\n      revert\n    tag_78:\n        /* \"contracts/proofOfReserves.sol\":1697:1740  ccGroth16BN128._verify(verifyingKey, proof) */\n      tag_81\n        /* \"contracts/proofOfReserves.sol\":1720:1732  verifyingKey */\n      0x01\n        /* \"contracts/proofOfReserves.sol\":1734:1739  proof */\n      dup4\n        /* \"contracts/proofOfReserves.sol\":1697:1719  ccGroth16BN128._verify */\n      tag_82\n        /* \"contracts/proofOfReserves.sol\":1697:1740  ccGroth16BN128._verify(verifyingKey, proof) */\n      jump\t// in\n    tag_81:\n        /* \"contracts/proofOfReserves.sol\":1689:1756  require(ccGroth16BN128._verify(verifyingKey, proof), \"verify fail\") */\n      tag_83\n      jumpi\n      mload(0x40)\n      0x08c379a000000000000000000000000000000000000000000000000000000000\n      dup2\n      mstore\n      0x04\n      add\n      tag_84\n      swap1\n      tag_85\n      jump\t// in\n    tag_84:\n      mload(0x40)\n      dup1\n      swap2\n      sub\n      swap1\n      revert\n    tag_83:\n        /* \"contracts/proofOfReserves.sol\":1767:1793  Pairing.G1Point memory tmp */\n      tag_86\n      tag_57\n      jump\t// in\n    tag_86:\n        /* \"contracts/proofOfReserves.sol\":1814:1910  Pairing.add(... */\n      tag_87\n        /* \"contracts/proofOfReserves.sol\":1839:1854  sumOfCommitment */\n      0x03\n        /* \"contracts/proofOfReserves.sol\":1814:1910  Pairing.add(... */\n      mload(0x40)\n      dup1\n      0x40\n      add\n      0x40\n      mstore\n      swap1\n      dup2\n      0x00\n      dup3\n      add\n      sload\n      dup2\n      mstore\n      0x20\n      add\n      0x01\n      dup3\n      add\n      sload\n      dup2\n      mstore\n      pop\n      pop\n        /* \"contracts/proofOfReserves.sol\":1868:1900  Pairing.negate(commitArray[idx]) */\n      tag_88\n        /* \"contracts/proofOfReserves.sol\":1883:1894  commitArray */\n      0x02\n        /* \"contracts/proofOfReserves.sol\":1895:1898  idx */\n      dup8\n        /* \"contracts/proofOfReserves.sol\":1883:1899  commitArray[idx] */\n      dup2\n      sload\n      dup2\n      lt\n      tag_89\n      jumpi\n      tag_90\n      tag_91\n      jump\t// in\n    tag_90:\n    tag_89:\n      swap1\n      0x00\n      mstore\n      keccak256(0x00, 0x20)\n      swap1\n      0x02\n      mul\n      add\n        /* \"contracts/proofOfReserves.sol\":1868:1900  Pairing.negate(commitArray[idx]) */\n      mload(0x40)\n      dup1\n      0x40\n      add\n      0x40\n      mstore\n      swap1\n      dup2\n      0x00\n      dup3\n      add\n      sload\n      dup2\n      mstore\n      0x20\n      add\n      0x01\n      dup3\n      add\n      sload\n      dup2\n      mstore\n      pop\n      pop\n        /* \"contracts/proofOfReserves.sol\":1868:1882  Pairing.negate */\n      tag_93\n        /* \"contracts/proofOfReserves.sol\":1868:1900  Pairing.negate(commitArray[idx]) */\n      jump\t// in\n    tag_88:\n        /* \"contracts/proofOfReserves.sol\":1814:1825  Pairing.add */\n      tag_94\n        /* \"contracts/proofOfReserves.sol\":1814:1910  Pairing.add(... */\n      jump\t// in\n    tag_87:\n        /* \"contracts/proofOfReserves.sol\":1808:1910  tmp = Pairing.add(... */\n      swap1\n      pop\n        /* \"contracts/proofOfReserves.sol\":1942:1947  proof */\n      dup3\n        /* \"contracts/proofOfReserves.sol\":1948:1949  8 */\n      0x08\n        /* \"contracts/proofOfReserves.sol\":1942:1950  proof[8] */\n      dup2\n      mload\n      dup2\n      lt\n      tag_95\n      jumpi\n      tag_96\n      tag_91\n      jump\t// in\n    tag_96:\n    tag_95:\n      0x20\n      mul\n      0x20\n      add\n      add\n      mload\n        /* \"contracts/proofOfReserves.sol\":1921:1932  commitArray */\n      0x02\n        /* \"contracts/proofOfReserves.sol\":1933:1936  idx */\n      dup6\n        /* \"contracts/proofOfReserves.sol\":1921:1937  commitArray[idx] */\n      dup2\n      sload\n      dup2\n      lt\n      tag_97\n      jumpi\n      tag_98\n      tag_91\n      jump\t// in\n    tag_98:\n    tag_97:\n      swap1\n      0x00\n      mstore\n      keccak256(0x00, 0x20)\n      swap1\n      0x02\n      mul\n      add\n        /* \"contracts/proofOfReserves.sol\":1921:1939  commitArray[idx].X */\n      0x00\n      add\n        /* \"contracts/proofOfReserves.sol\":1921:1950  commitArray[idx].X = proof[8] */\n      dup2\n      swap1\n      sstore\n      pop\n        /* \"contracts/proofOfReserves.sol\":1981:1986  proof */\n      dup3\n        /* \"contracts/proofOfReserves.sol\":1987:1988  9 */\n      0x09\n        /* \"contracts/proofOfReserves.sol\":1981:1989  proof[9] */\n      dup2\n      mload\n      dup2\n      lt\n      tag_100\n      jumpi\n      tag_101\n      tag_91\n      jump\t// in\n    tag_101:\n    tag_100:\n      0x20\n      mul\n      0x20\n      add\n      add\n      mload\n        /* \"contracts/proofOfReserves.sol\":1960:1971  commitArray */\n      0x02\n        /* \"contracts/proofOfReserves.sol\":1972:1975  idx */\n      dup6\n        /* \"contracts/proofOfReserves.sol\":1960:1976  commitArray[idx] */\n      dup2\n      sload\n      dup2\n      lt\n      tag_102\n      jumpi\n      tag_103\n      tag_91\n      jump\t// in\n    tag_103:\n    tag_102:\n      swap1\n      0x00\n      mstore\n      keccak256(0x00, 0x20)\n      swap1\n      0x02\n      mul\n      add\n        /* \"contracts/proofOfReserves.sol\":1960:1978  commitArray[idx].Y */\n      0x01\n      add\n        /* \"contracts/proofOfReserves.sol\":1960:1989  commitArray[idx].Y = proof[9] */\n      dup2\n      swap1\n      sstore\n      pop\n        /* \"contracts/proofOfReserves.sol\":2018:2086  Pairing.add(... */\n      tag_105\n        /* \"contracts/proofOfReserves.sol\":2043:2046  tmp */\n      dup2\n        /* \"contracts/proofOfReserves.sol\":2060:2071  commitArray */\n      0x02\n        /* \"contracts/proofOfReserves.sol\":2072:2075  idx */\n      dup7\n        /* \"contracts/proofOfReserves.sol\":2060:2076  commitArray[idx] */\n      dup2\n      sload\n      dup2\n      lt\n      tag_106\n      jumpi\n      tag_107\n      tag_91\n      jump\t// in\n    tag_107:\n    tag_106:\n      swap1\n      0x00\n      mstore\n      keccak256(0x00, 0x20)\n      swap1\n      0x02\n      mul\n      add\n        /* \"contracts/proofOfReserves.sol\":2018:2086  Pairing.add(... */\n      mload(0x40)\n      dup1\n      0x40\n      add\n      0x40\n      mstore\n      swap1\n      dup2\n      0x00\n      dup3\n      add\n      sload\n      dup2\n      mstore\n      0x20\n      add\n      0x01\n      dup3\n      add\n      sload\n      dup2\n      mstore\n      pop\n      pop\n        /* \"contracts/proofOfReserves.sol\":2018:2029  Pairing.add */\n      tag_94\n        /* \"contracts/proofOfReserves.sol\":2018:2086  Pairing.add(... */\n      jump\t// in\n    tag_105:\n        /* \"contracts/proofOfReserves.sol\":2000:2015  sumOfCommitment */\n      0x03\n        /* \"contracts/proofOfReserves.sol\":2000:2086  sumOfCommitment = Pairing.add(... */\n      0x00\n      dup3\n      add\n      mload\n      dup2\n      0x00\n      add\n      sstore\n      0x20\n      dup3\n      add\n      mload\n      dup2\n      0x01\n      add\n      sstore\n      swap1\n      pop\n      pop\n        /* \"contracts/proofOfReserves.sol\":2147:2151  true */\n      0x01\n        /* \"contracts/proofOfReserves.sol\":2105:2125  _sumOfCommitmentList */\n      0x06\n        /* \"contracts/proofOfReserves.sol\":2105:2144  _sumOfCommitmentList[sumOfCommitment.X] */\n      0x00\n        /* \"contracts/proofOfReserves.sol\":2126:2141  sumOfCommitment */\n      0x03\n        /* \"contracts/proofOfReserves.sol\":2126:2143  sumOfCommitment.X */\n      0x00\n      add\n      sload\n        /* \"contracts/proofOfReserves.sol\":2105:2144  _sumOfCommitmentList[sumOfCommitment.X] */\n      dup2\n      mstore\n      0x20\n      add\n      swap1\n      dup2\n      mstore\n      0x20\n      add\n      0x00\n      keccak256\n      0x00\n        /* \"contracts/proofOfReserves.sol\":2105:2151  _sumOfCommitmentList[sumOfCommitment.X] = true */\n      0x0100\n      exp\n      dup2\n      sload\n      dup2\n      0xff\n      mul\n      not\n      and\n      swap1\n      dup4\n      iszero\n      iszero\n      mul\n      or\n      swap1\n      sstore\n      pop\n        /* \"contracts/proofOfReserves.sol\":2169:2173  true */\n      0x01\n        /* \"contracts/proofOfReserves.sol\":2162:2173  return true */\n      swap2\n      pop\n      pop\n        /* \"contracts/proofOfReserves.sol\":1510:2180  function update_commitment(... */\n      swap3\n      swap2\n      pop\n      pop\n      jump\t// out\n        /* \"@openzeppelin/contracts/access/Ownable.sol\":2074:2272  function transferOwnership(address newOwner) public virtual onlyOwner {... */\n    tag_50:\n        /* \"@openzeppelin/contracts/access/Ownable.sol\":1094:1107  _checkOwner() */\n      tag_110\n        /* \"@openzeppelin/contracts/access/Ownable.sol\":1094:1105  _checkOwner */\n      tag_66\n        /* \"@openzeppelin/contracts/access/Ownable.sol\":1094:1107  _checkOwner() */\n      jump\t// in\n    tag_110:\n        /* \"@openzeppelin/contracts/access/Ownable.sol\":2182:2183  0 */\n      0x00\n        /* \"@openzeppelin/contracts/access/Ownable.sol\":2162:2184  newOwner != address(0) */\n      0xffffffffffffffffffffffffffffffffffffffff\n      and\n        /* \"@openzeppelin/contracts/access/Ownable.sol\":2162:2170  newOwner */\n      dup2\n        /* \"@openzeppelin/contracts/access/Ownable.sol\":2162:2184  newOwner != address(0) */\n      0xffffffffffffffffffffffffffffffffffffffff\n      and\n      eq\n      iszero\n        /* \"@openzeppelin/contracts/access/Ownable.sol\":2154:2227  require(newOwner != address(0), \"Ownable: new owner is the zero address\") */\n      tag_112\n      jumpi\n      mload(0x40)\n      0x08c379a000000000000000000000000000000000000000000000000000000000\n      dup2\n      mstore\n      0x04\n      add\n      tag_113\n      swap1\n      tag_114\n      jump\t// in\n    tag_113:\n      mload(0x40)\n      dup1\n      swap2\n      sub\n      swap1\n      revert\n    tag_112:\n        /* \"@openzeppelin/contracts/access/Ownable.sol\":2237:2265  _transferOwnership(newOwner) */\n      tag_115\n        /* \"@openzeppelin/contracts/access/Ownable.sol\":2256:2264  newOwner */\n      dup2\n        /* \"@openzeppelin/contracts/access/Ownable.sol\":2237:2255  _transferOwnership */\n      tag_69\n        /* \"@openzeppelin/contracts/access/Ownable.sol\":2237:2265  _transferOwnership(newOwner) */\n      jump\t// in\n    tag_115:\n        /* \"@openzeppelin/contracts/access/Ownable.sol\":2074:2272  function transferOwnership(address newOwner) public virtual onlyOwner {... */\n      pop\n      jump\t// out\n        /* \"contracts/proofOfReserves.sol\":998:1504  function upload_commitment(... */\n    tag_54:\n        /* \"contracts/proofOfReserves.sol\":1089:1096  uint256 */\n      0x00\n        /* \"@openzeppelin/contracts/access/Ownable.sol\":1094:1107  _checkOwner() */\n      tag_117\n        /* \"@openzeppelin/contracts/access/Ownable.sol\":1094:1105  _checkOwner */\n      tag_66\n        /* \"@openzeppelin/contracts/access/Ownable.sol\":1094:1107  _checkOwner() */\n      jump\t// in\n    tag_117:\n        /* \"contracts/proofOfReserves.sol\":1116:1159  ccGroth16BN128._verify(verifyingKey, proof) */\n      tag_119\n        /* \"contracts/proofOfReserves.sol\":1139:1151  verifyingKey */\n      0x01\n        /* \"contracts/proofOfReserves.sol\":1153:1158  proof */\n      dup4\n        /* \"contracts/proofOfReserves.sol\":1116:1138  ccGroth16BN128._verify */\n      tag_82\n        /* \"contracts/proofOfReserves.sol\":1116:1159  ccGroth16BN128._verify(verifyingKey, proof) */\n      jump\t// in\n    tag_119:\n        /* \"contracts/proofOfReserves.sol\":1108:1175  require(ccGroth16BN128._verify(verifyingKey, proof), \"verify fail\") */\n      tag_120\n      jumpi\n      mload(0x40)\n      0x08c379a000000000000000000000000000000000000000000000000000000000\n      dup2\n      mstore\n      0x04\n      add\n      tag_121\n      swap1\n      tag_85\n      jump\t// in\n    tag_121:\n      mload(0x40)\n      dup1\n      swap2\n      sub\n      swap1\n      revert\n    tag_120:\n        /* \"contracts/proofOfReserves.sol\":1186:1211  Pairing.G1Point memory cm */\n      0x00\n        /* \"contracts/proofOfReserves.sol\":1214:1249  Pairing.G1Point(proof[8], proof[9]) */\n      mload(0x40)\n      dup1\n      0x40\n      add\n      0x40\n      mstore\n      dup1\n        /* \"contracts/proofOfReserves.sol\":1230:1235  proof */\n      dup5\n        /* \"contracts/proofOfReserves.sol\":1236:1237  8 */\n      0x08\n        /* \"contracts/proofOfReserves.sol\":1230:1238  proof[8] */\n      dup2\n      mload\n      dup2\n      lt\n      tag_122\n      jumpi\n      tag_123\n      tag_91\n      jump\t// in\n    tag_123:\n    tag_122:\n      0x20\n      mul\n      0x20\n      add\n      add\n      mload\n        /* \"contracts/proofOfReserves.sol\":1214:1249  Pairing.G1Point(proof[8], proof[9]) */\n      dup2\n      mstore\n      0x20\n      add\n        /* \"contracts/proofOfReserves.sol\":1240:1245  proof */\n      dup5\n        /* \"contracts/proofOfReserves.sol\":1246:1247  9 */\n      0x09\n        /* \"contracts/proofOfReserves.sol\":1240:1248  proof[9] */\n      dup2\n      mload\n      dup2\n      lt\n      tag_124\n      jumpi\n      tag_125\n      tag_91\n      jump\t// in\n    tag_125:\n    tag_124:\n      0x20\n      mul\n      0x20\n      add\n      add\n      mload\n        /* \"contracts/proofOfReserves.sol\":1214:1249  Pairing.G1Point(proof[8], proof[9]) */\n      dup2\n      mstore\n      pop\n        /* \"contracts/proofOfReserves.sol\":1186:1249  Pairing.G1Point memory cm = Pairing.G1Point(proof[8], proof[9]) */\n      swap1\n      pop\n        /* \"contracts/proofOfReserves.sol\":1259:1270  commitArray */\n      0x02\n        /* \"contracts/proofOfReserves.sol\":1276:1278  cm */\n      dup2\n        /* \"contracts/proofOfReserves.sol\":1259:1279  commitArray.push(cm) */\n      swap1\n      dup1\n      0x01\n      dup2\n      sload\n      add\n      dup1\n      dup3\n      sstore\n      dup1\n      swap2\n      pop\n      pop\n      0x01\n      swap1\n      sub\n      swap1\n      0x00\n      mstore\n      keccak256(0x00, 0x20)\n      swap1\n      0x02\n      mul\n      add\n      0x00\n      swap1\n      swap2\n      swap1\n      swap2\n      swap1\n      swap2\n      pop\n      0x00\n      dup3\n      add\n      mload\n      dup2\n      0x00\n      add\n      sstore\n      0x20\n      dup3\n      add\n      mload\n      dup2\n      0x01\n      add\n      sstore\n      pop\n      pop\n        /* \"contracts/proofOfReserves.sol\":1301:1302  0 */\n      0x00\n        /* \"contracts/proofOfReserves.sol\":1293:1295  cm */\n      dup2\n        /* \"contracts/proofOfReserves.sol\":1293:1297  cm.X */\n      0x00\n      add\n      mload\n        /* \"contracts/proofOfReserves.sol\":1293:1302  cm.X == 0 */\n      eq\n        /* \"contracts/proofOfReserves.sol\":1293:1315  cm.X == 0 && cm.Y == 0 */\n      dup1\n      iszero\n      tag_127\n      jumpi\n      pop\n        /* \"contracts/proofOfReserves.sol\":1314:1315  0 */\n      0x00\n        /* \"contracts/proofOfReserves.sol\":1306:1308  cm */\n      dup2\n        /* \"contracts/proofOfReserves.sol\":1306:1310  cm.Y */\n      0x20\n      add\n      mload\n        /* \"contracts/proofOfReserves.sol\":1306:1315  cm.Y == 0 */\n      eq\n        /* \"contracts/proofOfReserves.sol\":1293:1315  cm.X == 0 && cm.Y == 0 */\n    tag_127:\n        /* \"contracts/proofOfReserves.sol\":1290:1412  if(cm.X == 0 && cm.Y == 0) { sumOfCommitment = cm; } ... */\n      iszero\n      tag_128\n      jumpi\n        /* \"contracts/proofOfReserves.sol\":1337:1339  cm */\n      dup1\n        /* \"contracts/proofOfReserves.sol\":1319:1334  sumOfCommitment */\n      0x03\n        /* \"contracts/proofOfReserves.sol\":1319:1339  sumOfCommitment = cm */\n      0x00\n      dup3\n      add\n      mload\n      dup2\n      0x00\n      add\n      sstore\n      0x20\n      dup3\n      add\n      mload\n      dup2\n      0x01\n      add\n      sstore\n      swap1\n      pop\n      pop\n        /* \"contracts/proofOfReserves.sol\":1290:1412  if(cm.X == 0 && cm.Y == 0) { sumOfCommitment = cm; } ... */\n      jump(tag_129)\n    tag_128:\n        /* \"contracts/proofOfReserves.sol\":1377:1409  Pairing.add(sumOfCommitment, cm) */\n      tag_130\n        /* \"contracts/proofOfReserves.sol\":1389:1404  sumOfCommitment */\n      0x03\n        /* \"contracts/proofOfReserves.sol\":1377:1409  Pairing.add(sumOfCommitment, cm) */\n      mload(0x40)\n      dup1\n      0x40\n      add\n      0x40\n      mstore\n      swap1\n      dup2\n      0x00\n      dup3\n      add\n      sload\n      dup2\n      mstore\n      0x20\n      add\n      0x01\n      dup3\n      add\n      sload\n      dup2\n      mstore\n      pop\n      pop\n        /* \"contracts/proofOfReserves.sol\":1406:1408  cm */\n      dup3\n        /* \"contracts/proofOfReserves.sol\":1377:1388  Pairing.add */\n      tag_94\n        /* \"contracts/proofOfReserves.sol\":1377:1409  Pairing.add(sumOfCommitment, cm) */\n      jump\t// in\n    tag_130:\n        /* \"contracts/proofOfReserves.sol\":1359:1374  sumOfCommitment */\n      0x03\n        /* \"contracts/proofOfReserves.sol\":1359:1409  sumOfCommitment = Pairing.add(sumOfCommitment, cm) */\n      0x00\n      dup3\n      add\n      mload\n      dup2\n      0x00\n      add\n      sstore\n      0x20\n      dup3\n      add\n      mload\n      dup2\n      0x01\n      add\n      sstore\n      swap1\n      pop\n      pop\n        /* \"contracts/proofOfReserves.sol\":1290:1412  if(cm.X == 0 && cm.Y == 0) { sumOfCommitment = cm; } ... */\n    tag_129:\n        /* \"contracts/proofOfReserves.sol\":1464:1468  true */\n      0x01\n        /* \"contracts/proofOfReserves.sol\":1422:1442  _sumOfCommitmentList */\n      0x06\n        /* \"contracts/proofOfReserves.sol\":1422:1461  _sumOfCommitmentList[sumOfCommitment.X] */\n      0x00\n        /* \"contracts/proofOfReserves.sol\":1443:1458  sumOfCommitment */\n      0x03\n        /* \"contracts/proofOfReserves.sol\":1443:1460  sumOfCommitment.X */\n      0x00\n      add\n      sload\n        /* \"contracts/proofOfReserves.sol\":1422:1461  _sumOfCommitmentList[sumOfCommitment.X] */\n      dup2\n      mstore\n      0x20\n      add\n      swap1\n      dup2\n      mstore\n      0x20\n      add\n      0x00\n      keccak256\n      0x00\n        /* \"contracts/proofOfReserves.sol\":1422:1468  _sumOfCommitmentList[sumOfCommitment.X] = true */\n      0x0100\n      exp\n      dup2\n      sload\n      dup2\n      0xff\n      mul\n      not\n      and\n      swap1\n      dup4\n      iszero\n      iszero\n      mul\n      or\n      swap1\n      sstore\n      pop\n        /* \"contracts/proofOfReserves.sol\":1486:1495  commitCnt */\n      0x05\n      0x00\n        /* \"contracts/proofOfReserves.sol\":1486:1497  commitCnt++ */\n      dup2\n      sload\n      dup1\n      swap3\n      swap2\n      swap1\n      tag_131\n      swap1\n      tag_132\n      jump\t// in\n    tag_131:\n      swap2\n      swap1\n      pop\n      sstore\n        /* \"contracts/proofOfReserves.sol\":1479:1497  return commitCnt++ */\n      swap2\n      pop\n      pop\n        /* \"contracts/proofOfReserves.sol\":998:1504  function upload_commitment(... */\n      swap2\n      swap1\n      pop\n      jump\t// out\n        /* \"@openzeppelin/contracts/access/Ownable.sol\":1359:1489  function _checkOwner() internal view virtual {... */\n    tag_66:\n        /* \"@openzeppelin/contracts/access/Ownable.sol\":1433:1445  _msgSender() */\n      tag_134\n        /* \"@openzeppelin/contracts/access/Ownable.sol\":1433:1443  _msgSender */\n      tag_135\n        /* \"@openzeppelin/contracts/access/Ownable.sol\":1433:1445  _msgSender() */\n      jump\t// in\n    tag_134:\n        /* \"@openzeppelin/contracts/access/Ownable.sol\":1422:1445  owner() == _msgSender() */\n      0xffffffffffffffffffffffffffffffffffffffff\n      and\n        /* \"@openzeppelin/contracts/access/Ownable.sol\":1422:1429  owner() */\n      tag_136\n        /* \"@openzeppelin/contracts/access/Ownable.sol\":1422:1427  owner */\n      tag_29\n        /* \"@openzeppelin/contracts/access/Ownable.sol\":1422:1429  owner() */\n      jump\t// in\n    tag_136:\n        /* \"@openzeppelin/contracts/access/Ownable.sol\":1422:1445  owner() == _msgSender() */\n      0xffffffffffffffffffffffffffffffffffffffff\n      and\n      eq\n        /* \"@openzeppelin/contracts/access/Ownable.sol\":1414:1482  require(owner() == _msgSender(), \"Ownable: caller is not the owner\") */\n      tag_137\n      jumpi\n      mload(0x40)\n      0x08c379a000000000000000000000000000000000000000000000000000000000\n      dup2\n      mstore\n      0x04\n      add\n      tag_138\n      swap1\n      tag_139\n      jump\t// in\n    tag_138:\n      mload(0x40)\n      dup1\n      swap2\n      sub\n      swap1\n      revert\n    tag_137:\n        /* \"@openzeppelin/contracts/access/Ownable.sol\":1359:1489  function _checkOwner() internal view virtual {... */\n      jump\t// out\n        /* \"@openzeppelin/contracts/access/Ownable.sol\":2426:2613  function _transferOwnership(address newOwner) internal virtual {... */\n    tag_69:\n        /* \"@openzeppelin/contracts/access/Ownable.sol\":2499:2515  address oldOwner */\n      0x00\n        /* \"@openzeppelin/contracts/access/Ownable.sol\":2518:2524  _owner */\n      dup1\n      0x00\n      swap1\n      sload\n      swap1\n      0x0100\n      exp\n      swap1\n      div\n      0xffffffffffffffffffffffffffffffffffffffff\n      and\n        /* \"@openzeppelin/contracts/access/Ownable.sol\":2499:2524  address oldOwner = _owner */\n      swap1\n      pop\n        /* \"@openzeppelin/contracts/access/Ownable.sol\":2543:2551  newOwner */\n      dup2\n        /* \"@openzeppelin/contracts/access/Ownable.sol\":2534:2540  _owner */\n      0x00\n      dup1\n        /* \"@openzeppelin/contracts/access/Ownable.sol\":2534:2551  _owner = newOwner */\n      0x0100\n      exp\n      dup2\n      sload\n      dup2\n      0xffffffffffffffffffffffffffffffffffffffff\n      mul\n      not\n      and\n      swap1\n      dup4\n      0xffffffffffffffffffffffffffffffffffffffff\n      and\n      mul\n      or\n      swap1\n      sstore\n      pop\n        /* \"@openzeppelin/contracts/access/Ownable.sol\":2597:2605  newOwner */\n      dup2\n        /* \"@openzeppelin/contracts/access/Ownable.sol\":2566:2606  OwnershipTransferred(oldOwner, newOwner) */\n      0xffffffffffffffffffffffffffffffffffffffff\n      and\n        /* \"@openzeppelin/contracts/access/Ownable.sol\":2587:2595  oldOwner */\n      dup2\n        /* \"@openzeppelin/contracts/access/Ownable.sol\":2566:2606  OwnershipTransferred(oldOwner, newOwner) */\n      0xffffffffffffffffffffffffffffffffffffffff\n      and\n      0x8be0079c531659141344cd1fd0a4f28419497f9722a3daafe3b4186f6b6457e0\n      mload(0x40)\n      mload(0x40)\n      dup1\n      swap2\n      sub\n      swap1\n      log3\n        /* \"@openzeppelin/contracts/access/Ownable.sol\":2489:2613  {... */\n      pop\n        /* \"@openzeppelin/contracts/access/Ownable.sol\":2426:2613  function _transferOwnership(address newOwner) internal virtual {... */\n      pop\n      jump\t// out\n        /* \"contracts/ccGroth16VerifyBn128.sol\":912:4522  function _verify(... */\n    tag_82:\n        /* \"contracts/ccGroth16VerifyBn128.sol\":1031:1035  bool */\n      0x00\n        /* \"contracts/ccGroth16VerifyBn128.sol\":1075:1077  10 */\n      0x0a\n        /* \"contracts/ccGroth16VerifyBn128.sol\":1059:1064  proof */\n      dup3\n        /* \"contracts/ccGroth16VerifyBn128.sol\":1059:1071  proof.length */\n      mload\n        /* \"contracts/ccGroth16VerifyBn128.sol\":1059:1077  proof.length == 10 */\n      eq\n        /* \"contracts/ccGroth16VerifyBn128.sol\":1051:1102  require(proof.length == 10, \"Invalid proof length\") */\n      tag_142\n      jumpi\n      mload(0x40)\n      0x08c379a000000000000000000000000000000000000000000000000000000000\n      dup2\n      mstore\n      0x04\n      add\n      tag_143\n      swap1\n      tag_144\n      jump\t// in\n    tag_143:\n      mload(0x40)\n      dup1\n      swap2\n      sub\n      swap1\n      revert\n    tag_142:\n        /* \"contracts/ccGroth16VerifyBn128.sol\":1134:1136  16 */\n      0x10\n        /* \"contracts/ccGroth16VerifyBn128.sol\":1120:1122  vk */\n      dup4\n        /* \"contracts/ccGroth16VerifyBn128.sol\":1120:1129  vk.length */\n      dup1\n      sload\n      swap1\n      pop\n        /* \"contracts/ccGroth16VerifyBn128.sol\":1120:1136  vk.length ==  16 */\n      eq\n        /* \"contracts/ccGroth16VerifyBn128.sol\":1112:1158  require(vk.length ==  16, \"Invalid vk length\") */\n      tag_145\n      jumpi\n      mload(0x40)\n      0x08c379a000000000000000000000000000000000000000000000000000000000\n      dup2\n      mstore\n      0x04\n      add\n      tag_146\n      swap1\n      tag_147\n      jump\t// in\n    tag_146:\n      mload(0x40)\n      dup1\n      swap2\n      sub\n      swap1\n      revert\n    tag_145:\n        /* \"contracts/ccGroth16VerifyBn128.sol\":1185:1204  uint256 vk_slot_num */\n      0x00\n        /* \"contracts/ccGroth16VerifyBn128.sol\":1236:1261  uint256[24] memory inputs */\n      tag_148\n      tag_149\n      jump\t// in\n    tag_148:\n        /* \"contracts/ccGroth16VerifyBn128.sol\":1309:1321  bool success */\n      0x00\n        /* \"contracts/ccGroth16VerifyBn128.sol\":1324:1328  true */\n      0x01\n        /* \"contracts/ccGroth16VerifyBn128.sol\":1309:1328  bool success = true */\n      swap1\n      pop\n        /* \"contracts/ccGroth16VerifyBn128.sol\":1528:1532  0x20 */\n      0x20\n        /* \"contracts/ccGroth16VerifyBn128.sol\":1521:1526  proof */\n      dup6\n        /* \"contracts/ccGroth16VerifyBn128.sol\":1517:1533  add(proof, 0x20) */\n      add\n        /* \"contracts/ccGroth16VerifyBn128.sol\":1562:1569  vk.slot */\n      dup7\n        /* \"contracts/ccGroth16VerifyBn128.sol\":1554:1560  inputs */\n      dup4\n        /* \"contracts/ccGroth16VerifyBn128.sol\":1547:1570  mstore(inputs, vk.slot) */\n      mstore\n        /* \"contracts/ccGroth16VerifyBn128.sol\":1616:1620  0x20 */\n      0x20\n        /* \"contracts/ccGroth16VerifyBn128.sol\":1608:1614  inputs */\n      dup4\n        /* \"contracts/ccGroth16VerifyBn128.sol\":1598:1621  keccak256(inputs, 0x20) */\n      keccak256\n        /* \"contracts/ccGroth16VerifyBn128.sol\":1583:1621  vk_slot_num := keccak256(inputs, 0x20) */\n      swap4\n      pop\n        /* \"contracts/ccGroth16VerifyBn128.sol\":1669:1674  0x100 */\n      0x0100\n        /* \"contracts/ccGroth16VerifyBn128.sol\":1660:1667  proof_i */\n      dup2\n        /* \"contracts/ccGroth16VerifyBn128.sol\":1656:1675  add(proof_i, 0x100) */\n      add\n        /* \"contracts/ccGroth16VerifyBn128.sol\":1650:1676  mload(add(proof_i, 0x100)) */\n      mload\n        /* \"contracts/ccGroth16VerifyBn128.sol\":1642:1648  inputs */\n      dup4\n        /* \"contracts/ccGroth16VerifyBn128.sol\":1635:1677  mstore(inputs, mload(add(proof_i, 0x100))) */\n      mstore\n        /* \"contracts/ccGroth16VerifyBn128.sol\":1735:1740  0x120 */\n      0x0120\n        /* \"contracts/ccGroth16VerifyBn128.sol\":1726:1733  proof_i */\n      dup2\n        /* \"contracts/ccGroth16VerifyBn128.sol\":1722:1741  add(proof_i, 0x120) */\n      add\n        /* \"contracts/ccGroth16VerifyBn128.sol\":1716:1742  mload(add(proof_i, 0x120)) */\n      mload\n        /* \"contracts/ccGroth16VerifyBn128.sol\":1709:1713  0x20 */\n      0x20\n        /* \"contracts/ccGroth16VerifyBn128.sol\":1701:1707  inputs */\n      dup5\n        /* \"contracts/ccGroth16VerifyBn128.sol\":1697:1714  add(inputs, 0x20) */\n      add\n        /* \"contracts/ccGroth16VerifyBn128.sol\":1690:1743  mstore(add(inputs, 0x20), mload(add(proof_i, 0x120))) */\n      mstore\n        /* \"contracts/ccGroth16VerifyBn128.sol\":1805:1807  10 */\n      0x0a\n        /* \"contracts/ccGroth16VerifyBn128.sol\":1792:1803  vk_slot_num */\n      dup5\n        /* \"contracts/ccGroth16VerifyBn128.sol\":1788:1808  add(vk_slot_num, 10) */\n      add\n        /* \"contracts/ccGroth16VerifyBn128.sol\":1782:1809  sload(add(vk_slot_num, 10)) */\n      sload\n        /* \"contracts/ccGroth16VerifyBn128.sol\":1775:1779  0x40 */\n      0x40\n        /* \"contracts/ccGroth16VerifyBn128.sol\":1767:1773  inputs */\n      dup5\n        /* \"contracts/ccGroth16VerifyBn128.sol\":1763:1780  add(inputs, 0x40) */\n      add\n        /* \"contracts/ccGroth16VerifyBn128.sol\":1756:1810  mstore(add(inputs, 0x40), sload(add(vk_slot_num, 10))) */\n      mstore\n        /* \"contracts/ccGroth16VerifyBn128.sol\":1872:1874  11 */\n      0x0b\n        /* \"contracts/ccGroth16VerifyBn128.sol\":1859:1870  vk_slot_num */\n      dup5\n        /* \"contracts/ccGroth16VerifyBn128.sol\":1855:1875  add(vk_slot_num, 11) */\n      add\n        /* \"contracts/ccGroth16VerifyBn128.sol\":1849:1876  sload(add(vk_slot_num, 11)) */\n      sload\n        /* \"contracts/ccGroth16VerifyBn128.sol\":1842:1846  0x60 */\n      0x60\n        /* \"contracts/ccGroth16VerifyBn128.sol\":1834:1840  inputs */\n      dup5\n        /* \"contracts/ccGroth16VerifyBn128.sol\":1830:1847  add(inputs, 0x60) */\n      add\n        /* \"contracts/ccGroth16VerifyBn128.sol\":1823:1877  mstore(add(inputs, 0x60), sload(add(vk_slot_num, 11))) */\n      mstore\n        /* \"contracts/ccGroth16VerifyBn128.sol\":2040:2044  0x40 */\n      0x40\n        /* \"contracts/ccGroth16VerifyBn128.sol\":2032:2037  0x240 */\n      0x0240\n        /* \"contracts/ccGroth16VerifyBn128.sol\":2024:2030  inputs */\n      dup5\n        /* \"contracts/ccGroth16VerifyBn128.sol\":2020:2038  add(inputs, 0x240) */\n      add\n        /* \"contracts/ccGroth16VerifyBn128.sol\":2014:2018  0x80 */\n      0x80\n        /* \"contracts/ccGroth16VerifyBn128.sol\":2006:2012  inputs */\n      dup6\n        /* \"contracts/ccGroth16VerifyBn128.sol\":2003:2004  0 */\n      0x00\n        /* \"contracts/ccGroth16VerifyBn128.sol\":1997:2001  0x06 */\n      0x06\n        /* \"contracts/ccGroth16VerifyBn128.sol\":1990:1995  gas() */\n      gas\n        /* \"contracts/ccGroth16VerifyBn128.sol\":1985:2045  call(gas(), 0x06, 0, inputs, 0x80, add(inputs, 0x240), 0x40) */\n      call\n        /* \"contracts/ccGroth16VerifyBn128.sol\":1974:2045  success := call(gas(), 0x06, 0, inputs, 0x80, add(inputs, 0x240), 0x40) */\n      swap2\n      pop\n        /* \"contracts/ccGroth16VerifyBn128.sol\":1485:2055  {   ... */\n      pop\n        /* \"contracts/ccGroth16VerifyBn128.sol\":2072:2079  success */\n      dup1\n        /* \"contracts/ccGroth16VerifyBn128.sol\":2064:2097  require(success, \"bn256Add fail\") */\n      tag_150\n      jumpi\n      mload(0x40)\n      0x08c379a000000000000000000000000000000000000000000000000000000000\n      dup2\n      mstore\n      0x04\n      add\n      tag_151\n      swap1\n      tag_152\n      jump\t// in\n    tag_151:\n      mload(0x40)\n      dup1\n      swap2\n      sub\n      swap1\n      revert\n    tag_150:\n        /* \"contracts/ccGroth16VerifyBn128.sol\":2506:2510  0x20 */\n      0x20\n        /* \"contracts/ccGroth16VerifyBn128.sol\":2499:2504  proof */\n      dup6\n        /* \"contracts/ccGroth16VerifyBn128.sol\":2495:2511  add(proof, 0x20) */\n      add\n        /* \"contracts/ccGroth16VerifyBn128.sol\":2628:2635  proof_i */\n      dup1\n        /* \"contracts/ccGroth16VerifyBn128.sol\":2622:2636  mload(proof_i) */\n      mload\n        /* \"contracts/ccGroth16VerifyBn128.sol\":2614:2620  inputs */\n      dup4\n        /* \"contracts/ccGroth16VerifyBn128.sol\":2607:2637  mstore(inputs, mload(proof_i)) */\n      mstore\n        /* \"contracts/ccGroth16VerifyBn128.sol\":2695:2699  0x20 */\n      0x20\n        /* \"contracts/ccGroth16VerifyBn128.sol\":2686:2693  proof_i */\n      dup2\n        /* \"contracts/ccGroth16VerifyBn128.sol\":2682:2700  add(proof_i, 0x20) */\n      add\n        /* \"contracts/ccGroth16VerifyBn128.sol\":2676:2701  mload(add(proof_i, 0x20)) */\n      mload\n        /* \"contracts/ccGroth16VerifyBn128.sol\":2669:2673  0x20 */\n      0x20\n        /* \"contracts/ccGroth16VerifyBn128.sol\":2661:2667  inputs */\n      dup5\n        /* \"contracts/ccGroth16VerifyBn128.sol\":2657:2674  add(inputs, 0x20) */\n      add\n        /* \"contracts/ccGroth16VerifyBn128.sol\":2650:2702  mstore(add(inputs, 0x20), mload(add(proof_i, 0x20))) */\n      mstore\n        /* \"contracts/ccGroth16VerifyBn128.sol\":2760:2764  0x40 */\n      0x40\n        /* \"contracts/ccGroth16VerifyBn128.sol\":2751:2758  proof_i */\n      dup2\n        /* \"contracts/ccGroth16VerifyBn128.sol\":2747:2765  add(proof_i, 0x40) */\n      add\n        /* \"contracts/ccGroth16VerifyBn128.sol\":2741:2766  mload(add(proof_i, 0x40)) */\n      mload\n        /* \"contracts/ccGroth16VerifyBn128.sol\":2734:2738  0x40 */\n      0x40\n        /* \"contracts/ccGroth16VerifyBn128.sol\":2726:2732  inputs */\n      dup5\n        /* \"contracts/ccGroth16VerifyBn128.sol\":2722:2739  add(inputs, 0x40) */\n      add\n        /* \"contracts/ccGroth16VerifyBn128.sol\":2715:2767  mstore(add(inputs, 0x40), mload(add(proof_i, 0x40))) */\n      mstore\n        /* \"contracts/ccGroth16VerifyBn128.sol\":2825:2829  0x60 */\n      0x60\n        /* \"contracts/ccGroth16VerifyBn128.sol\":2816:2823  proof_i */\n      dup2\n        /* \"contracts/ccGroth16VerifyBn128.sol\":2812:2830  add(proof_i, 0x60) */\n      add\n        /* \"contracts/ccGroth16VerifyBn128.sol\":2806:2831  mload(add(proof_i, 0x60)) */\n      mload\n        /* \"contracts/ccGroth16VerifyBn128.sol\":2799:2803  0x60 */\n      0x60\n        /* \"contracts/ccGroth16VerifyBn128.sol\":2791:2797  inputs */\n      dup5\n        /* \"contracts/ccGroth16VerifyBn128.sol\":2787:2804  add(inputs, 0x60) */\n      add\n        /* \"contracts/ccGroth16VerifyBn128.sol\":2780:2832  mstore(add(inputs, 0x60), mload(add(proof_i, 0x60))) */\n      mstore\n        /* \"contracts/ccGroth16VerifyBn128.sol\":2890:2894  0x80 */\n      0x80\n        /* \"contracts/ccGroth16VerifyBn128.sol\":2881:2888  proof_i */\n      dup2\n        /* \"contracts/ccGroth16VerifyBn128.sol\":2877:2895  add(proof_i, 0x80) */\n      add\n        /* \"contracts/ccGroth16VerifyBn128.sol\":2871:2896  mload(add(proof_i, 0x80)) */\n      mload\n        /* \"contracts/ccGroth16VerifyBn128.sol\":2864:2868  0x80 */\n      0x80\n        /* \"contracts/ccGroth16VerifyBn128.sol\":2856:2862  inputs */\n      dup5\n        /* \"contracts/ccGroth16VerifyBn128.sol\":2852:2869  add(inputs, 0x80) */\n      add\n        /* \"contracts/ccGroth16VerifyBn128.sol\":2845:2897  mstore(add(inputs, 0x80), mload(add(proof_i, 0x80))) */\n      mstore\n        /* \"contracts/ccGroth16VerifyBn128.sol\":2955:2959  0xa0 */\n      0xa0\n        /* \"contracts/ccGroth16VerifyBn128.sol\":2946:2953  proof_i */\n      dup2\n        /* \"contracts/ccGroth16VerifyBn128.sol\":2942:2960  add(proof_i, 0xa0) */\n      add\n        /* \"contracts/ccGroth16VerifyBn128.sol\":2936:2961  mload(add(proof_i, 0xa0)) */\n      mload\n        /* \"contracts/ccGroth16VerifyBn128.sol\":2929:2933  0xa0 */\n      0xa0\n        /* \"contracts/ccGroth16VerifyBn128.sol\":2921:2927  inputs */\n      dup5\n        /* \"contracts/ccGroth16VerifyBn128.sol\":2917:2934  add(inputs, 0xa0) */\n      add\n        /* \"contracts/ccGroth16VerifyBn128.sol\":2910:2962  mstore(add(inputs, 0xa0), mload(add(proof_i, 0xa0))) */\n      mstore\n        /* \"contracts/ccGroth16VerifyBn128.sol\":3121:3132  vk_slot_num */\n      dup4\n        /* \"contracts/ccGroth16VerifyBn128.sol\":3115:3133  sload(vk_slot_num) */\n      sload\n        /* \"contracts/ccGroth16VerifyBn128.sol\":3108:3112  0xc0 */\n      0xc0\n        /* \"contracts/ccGroth16VerifyBn128.sol\":3100:3106  inputs */\n      dup5\n        /* \"contracts/ccGroth16VerifyBn128.sol\":3096:3113  add(inputs, 0xc0) */\n      add\n        /* \"contracts/ccGroth16VerifyBn128.sol\":3089:3134  mstore(add(inputs, 0xc0), sload(vk_slot_num)) */\n      mstore\n        /* \"contracts/ccGroth16VerifyBn128.sol\":3196:3197  1 */\n      0x01\n        /* \"contracts/ccGroth16VerifyBn128.sol\":3183:3194  vk_slot_num */\n      dup5\n        /* \"contracts/ccGroth16VerifyBn128.sol\":3179:3198  add(vk_slot_num, 1) */\n      add\n        /* \"contracts/ccGroth16VerifyBn128.sol\":3173:3199  sload(add(vk_slot_num, 1)) */\n      sload\n        /* \"contracts/ccGroth16VerifyBn128.sol\":3166:3170  0xe0 */\n      0xe0\n        /* \"contracts/ccGroth16VerifyBn128.sol\":3158:3164  inputs */\n      dup5\n        /* \"contracts/ccGroth16VerifyBn128.sol\":3154:3171  add(inputs, 0xe0) */\n      add\n        /* \"contracts/ccGroth16VerifyBn128.sol\":3147:3200  mstore(add(inputs, 0xe0), sload(add(vk_slot_num, 1))) */\n      mstore\n        /* \"contracts/ccGroth16VerifyBn128.sol\":3263:3264  2 */\n      0x02\n        /* \"contracts/ccGroth16VerifyBn128.sol\":3250:3261  vk_slot_num */\n      dup5\n        /* \"contracts/ccGroth16VerifyBn128.sol\":3246:3265  add(vk_slot_num, 2) */\n      add\n        /* \"contracts/ccGroth16VerifyBn128.sol\":3240:3266  sload(add(vk_slot_num, 2)) */\n      sload\n        /* \"contracts/ccGroth16VerifyBn128.sol\":3232:3237  0x100 */\n      0x0100\n        /* \"contracts/ccGroth16VerifyBn128.sol\":3224:3230  inputs */\n      dup5\n        /* \"contracts/ccGroth16VerifyBn128.sol\":3220:3238  add(inputs, 0x100) */\n      add\n        /* \"contracts/ccGroth16VerifyBn128.sol\":3213:3267  mstore(add(inputs, 0x100), sload(add(vk_slot_num, 2))) */\n      mstore\n        /* \"contracts/ccGroth16VerifyBn128.sol\":3330:3331  3 */\n      0x03\n        /* \"contracts/ccGroth16VerifyBn128.sol\":3317:3328  vk_slot_num */\n      dup5\n        /* \"contracts/ccGroth16VerifyBn128.sol\":3313:3332  add(vk_slot_num, 3) */\n      add\n        /* \"contracts/ccGroth16VerifyBn128.sol\":3307:3333  sload(add(vk_slot_num, 3)) */\n      sload\n        /* \"contracts/ccGroth16VerifyBn128.sol\":3299:3304  0x120 */\n      0x0120\n        /* \"contracts/ccGroth16VerifyBn128.sol\":3291:3297  inputs */\n      dup5\n        /* \"contracts/ccGroth16VerifyBn128.sol\":3287:3305  add(inputs, 0x120) */\n      add\n        /* \"contracts/ccGroth16VerifyBn128.sol\":3280:3334  mstore(add(inputs, 0x120), sload(add(vk_slot_num, 3))) */\n      mstore\n        /* \"contracts/ccGroth16VerifyBn128.sol\":3397:3398  4 */\n      0x04\n        /* \"contracts/ccGroth16VerifyBn128.sol\":3384:3395  vk_slot_num */\n      dup5\n        /* \"contracts/ccGroth16VerifyBn128.sol\":3380:3399  add(vk_slot_num, 4) */\n      add\n        /* \"contracts/ccGroth16VerifyBn128.sol\":3374:3400  sload(add(vk_slot_num, 4)) */\n      sload\n        /* \"contracts/ccGroth16VerifyBn128.sol\":3366:3371  0x140 */\n      0x0140\n        /* \"contracts/ccGroth16VerifyBn128.sol\":3358:3364  inputs */\n      dup5\n        /* \"contracts/ccGroth16VerifyBn128.sol\":3354:3372  add(inputs, 0x140) */\n      add\n        /* \"contracts/ccGroth16VerifyBn128.sol\":3347:3401  mstore(add(inputs, 0x140), sload(add(vk_slot_num, 4))) */\n      mstore\n        /* \"contracts/ccGroth16VerifyBn128.sol\":3464:3465  5 */\n      0x05\n        /* \"contracts/ccGroth16VerifyBn128.sol\":3451:3462  vk_slot_num */\n      dup5\n        /* \"contracts/ccGroth16VerifyBn128.sol\":3447:3466  add(vk_slot_num, 5) */\n      add\n        /* \"contracts/ccGroth16VerifyBn128.sol\":3441:3467  sload(add(vk_slot_num, 5)) */\n      sload\n        /* \"contracts/ccGroth16VerifyBn128.sol\":3433:3438  0x160 */\n      0x0160\n        /* \"contracts/ccGroth16VerifyBn128.sol\":3425:3431  inputs */\n      dup5\n        /* \"contracts/ccGroth16VerifyBn128.sol\":3421:3439  add(inputs, 0x160) */\n      add\n        /* \"contracts/ccGroth16VerifyBn128.sol\":3414:3468  mstore(add(inputs, 0x160), sload(add(vk_slot_num, 5))) */\n      mstore\n        /* \"contracts/ccGroth16VerifyBn128.sol\":3635:3639  0xc0 */\n      0xc0\n        /* \"contracts/ccGroth16VerifyBn128.sol\":3626:3633  proof_i */\n      dup2\n        /* \"contracts/ccGroth16VerifyBn128.sol\":3622:3640  add(proof_i, 0xc0) */\n      add\n        /* \"contracts/ccGroth16VerifyBn128.sol\":3616:3641  mload(add(proof_i, 0xc0)) */\n      mload\n        /* \"contracts/ccGroth16VerifyBn128.sol\":3608:3613  0x180 */\n      0x0180\n        /* \"contracts/ccGroth16VerifyBn128.sol\":3600:3606  inputs */\n      dup5\n        /* \"contracts/ccGroth16VerifyBn128.sol\":3596:3614  add(inputs, 0x180) */\n      add\n        /* \"contracts/ccGroth16VerifyBn128.sol\":3589:3642  mstore(add(inputs, 0x180), mload(add(proof_i, 0xc0))) */\n      mstore\n        /* \"contracts/ccGroth16VerifyBn128.sol\":3701:3705  0xe0 */\n      0xe0\n        /* \"contracts/ccGroth16VerifyBn128.sol\":3692:3699  proof_i */\n      dup2\n        /* \"contracts/ccGroth16VerifyBn128.sol\":3688:3706  add(proof_i, 0xe0) */\n      add\n        /* \"contracts/ccGroth16VerifyBn128.sol\":3682:3707  mload(add(proof_i, 0xe0)) */\n      mload\n        /* \"contracts/ccGroth16VerifyBn128.sol\":3674:3679  0x1a0 */\n      0x01a0\n        /* \"contracts/ccGroth16VerifyBn128.sol\":3666:3672  inputs */\n      dup5\n        /* \"contracts/ccGroth16VerifyBn128.sol\":3662:3680  add(inputs, 0x1a0) */\n      add\n        /* \"contracts/ccGroth16VerifyBn128.sol\":3655:3708  mstore(add(inputs, 0x1a0), mload(add(proof_i, 0xe0))) */\n      mstore\n        /* \"contracts/ccGroth16VerifyBn128.sol\":3771:3772  6 */\n      0x06\n        /* \"contracts/ccGroth16VerifyBn128.sol\":3758:3769  vk_slot_num */\n      dup5\n        /* \"contracts/ccGroth16VerifyBn128.sol\":3754:3773  add(vk_slot_num, 6) */\n      add\n        /* \"contracts/ccGroth16VerifyBn128.sol\":3748:3774  sload(add(vk_slot_num, 6)) */\n      sload\n        /* \"contracts/ccGroth16VerifyBn128.sol\":3740:3745  0x1c0 */\n      0x01c0\n        /* \"contracts/ccGroth16VerifyBn128.sol\":3732:3738  inputs */\n      dup5\n        /* \"contracts/ccGroth16VerifyBn128.sol\":3728:3746  add(inputs, 0x1c0) */\n      add\n        /* \"contracts/ccGroth16VerifyBn128.sol\":3721:3775  mstore(add(inputs, 0x1c0), sload(add(vk_slot_num, 6))) */\n      mstore\n        /* \"contracts/ccGroth16VerifyBn128.sol\":3838:3839  7 */\n      0x07\n        /* \"contracts/ccGroth16VerifyBn128.sol\":3825:3836  vk_slot_num */\n      dup5\n        /* \"contracts/ccGroth16VerifyBn128.sol\":3821:3840  add(vk_slot_num, 7) */\n      add\n        /* \"contracts/ccGroth16VerifyBn128.sol\":3815:3841  sload(add(vk_slot_num, 7)) */\n      sload\n        /* \"contracts/ccGroth16VerifyBn128.sol\":3807:3812  0x1e0 */\n      0x01e0\n        /* \"contracts/ccGroth16VerifyBn128.sol\":3799:3805  inputs */\n      dup5\n        /* \"contracts/ccGroth16VerifyBn128.sol\":3795:3813  add(inputs, 0x1e0) */\n      add\n        /* \"contracts/ccGroth16VerifyBn128.sol\":3788:3842  mstore(add(inputs, 0x1e0), sload(add(vk_slot_num, 7))) */\n      mstore\n        /* \"contracts/ccGroth16VerifyBn128.sol\":3905:3906  8 */\n      0x08\n        /* \"contracts/ccGroth16VerifyBn128.sol\":3892:3903  vk_slot_num */\n      dup5\n        /* \"contracts/ccGroth16VerifyBn128.sol\":3888:3907  add(vk_slot_num, 8) */\n      add\n        /* \"contracts/ccGroth16VerifyBn128.sol\":3882:3908  sload(add(vk_slot_num, 8)) */\n      sload\n        /* \"contracts/ccGroth16VerifyBn128.sol\":3874:3879  0x200 */\n      0x0200\n        /* \"contracts/ccGroth16VerifyBn128.sol\":3866:3872  inputs */\n      dup5\n        /* \"contracts/ccGroth16VerifyBn128.sol\":3862:3880  add(inputs, 0x200) */\n      add\n        /* \"contracts/ccGroth16VerifyBn128.sol\":3855:3909  mstore(add(inputs, 0x200), sload(add(vk_slot_num, 8))) */\n      mstore\n        /* \"contracts/ccGroth16VerifyBn128.sol\":3972:3973  9 */\n      0x09\n        /* \"contracts/ccGroth16VerifyBn128.sol\":3959:3970  vk_slot_num */\n      dup5\n        /* \"contracts/ccGroth16VerifyBn128.sol\":3955:3974  add(vk_slot_num, 9) */\n      add\n        /* \"contracts/ccGroth16VerifyBn128.sol\":3949:3975  sload(add(vk_slot_num, 9)) */\n      sload\n        /* \"contracts/ccGroth16VerifyBn128.sol\":3941:3946  0x220 */\n      0x0220\n        /* \"contracts/ccGroth16VerifyBn128.sol\":3933:3939  inputs */\n      dup5\n        /* \"contracts/ccGroth16VerifyBn128.sol\":3929:3947  add(inputs, 0x220) */\n      add\n        /* \"contracts/ccGroth16VerifyBn128.sol\":3922:3976  mstore(add(inputs, 0x220), sload(add(vk_slot_num, 9))) */\n      mstore\n        /* \"contracts/ccGroth16VerifyBn128.sol\":4094:4096  12 */\n      0x0c\n        /* \"contracts/ccGroth16VerifyBn128.sol\":4081:4092  vk_slot_num */\n      dup5\n        /* \"contracts/ccGroth16VerifyBn128.sol\":4077:4097  add(vk_slot_num, 12) */\n      add\n        /* \"contracts/ccGroth16VerifyBn128.sol\":4071:4098  sload(add(vk_slot_num, 12)) */\n      sload\n        /* \"contracts/ccGroth16VerifyBn128.sol\":4063:4068  0x280 */\n      0x0280\n        /* \"contracts/ccGroth16VerifyBn128.sol\":4055:4061  inputs */\n      dup5\n        /* \"contracts/ccGroth16VerifyBn128.sol\":4051:4069  add(inputs, 0x280) */\n      add\n        /* \"contracts/ccGroth16VerifyBn128.sol\":4044:4099  mstore(add(inputs, 0x280), sload(add(vk_slot_num, 12))) */\n      mstore\n        /* \"contracts/ccGroth16VerifyBn128.sol\":4162:4164  13 */\n      0x0d\n        /* \"contracts/ccGroth16VerifyBn128.sol\":4149:4160  vk_slot_num */\n      dup5\n        /* \"contracts/ccGroth16VerifyBn128.sol\":4145:4165  add(vk_slot_num, 13) */\n      add\n        /* \"contracts/ccGroth16VerifyBn128.sol\":4139:4166  sload(add(vk_slot_num, 13)) */\n      sload\n        /* \"contracts/ccGroth16VerifyBn128.sol\":4131:4136  0x2a0 */\n      0x02a0\n        /* \"contracts/ccGroth16VerifyBn128.sol\":4123:4129  inputs */\n      dup5\n        /* \"contracts/ccGroth16VerifyBn128.sol\":4119:4137  add(inputs, 0x2a0) */\n      add\n        /* \"contracts/ccGroth16VerifyBn128.sol\":4112:4167  mstore(add(inputs, 0x2a0), sload(add(vk_slot_num, 13))) */\n      mstore\n        /* \"contracts/ccGroth16VerifyBn128.sol\":4230:4232  14 */\n      0x0e\n        /* \"contracts/ccGroth16VerifyBn128.sol\":4217:4228  vk_slot_num */\n      dup5\n        /* \"contracts/ccGroth16VerifyBn128.sol\":4213:4233  add(vk_slot_num, 14) */\n      add\n        /* \"contracts/ccGroth16VerifyBn128.sol\":4207:4234  sload(add(vk_slot_num, 14)) */\n      sload\n        /* \"contracts/ccGroth16VerifyBn128.sol\":4199:4204  0x2c0 */\n      0x02c0\n        /* \"contracts/ccGroth16VerifyBn128.sol\":4191:4197  inputs */\n      dup5\n        /* \"contracts/ccGroth16VerifyBn128.sol\":4187:4205  add(inputs, 0x2c0) */\n      add\n        /* \"contracts/ccGroth16VerifyBn128.sol\":4180:4235  mstore(add(inputs, 0x2c0), sload(add(vk_slot_num, 14))) */\n      mstore\n        /* \"contracts/ccGroth16VerifyBn128.sol\":4298:4300  15 */\n      0x0f\n        /* \"contracts/ccGroth16VerifyBn128.sol\":4285:4296  vk_slot_num */\n      dup5\n        /* \"contracts/ccGroth16VerifyBn128.sol\":4281:4301  add(vk_slot_num, 15) */\n      add\n        /* \"contracts/ccGroth16VerifyBn128.sol\":4275:4302  sload(add(vk_slot_num, 15)) */\n      sload\n        /* \"contracts/ccGroth16VerifyBn128.sol\":4267:4272  0x2e0 */\n      0x02e0\n        /* \"contracts/ccGroth16VerifyBn128.sol\":4259:4265  inputs */\n      dup5\n        /* \"contracts/ccGroth16VerifyBn128.sol\":4255:4273  add(inputs, 0x2e0) */\n      add\n        /* \"contracts/ccGroth16VerifyBn128.sol\":4248:4303  mstore(add(inputs, 0x2e0), sload(add(vk_slot_num, 15))) */\n      mstore\n        /* \"contracts/ccGroth16VerifyBn128.sol\":4422:4426  0x20 */\n      0x20\n        /* \"contracts/ccGroth16VerifyBn128.sol\":4414:4420  inputs */\n      dup4\n        /* \"contracts/ccGroth16VerifyBn128.sol\":4407:4412  0x300 */\n      0x0300\n        /* \"contracts/ccGroth16VerifyBn128.sol\":4399:4405  inputs */\n      dup6\n        /* \"contracts/ccGroth16VerifyBn128.sol\":4396:4397  0 */\n      0x00\n        /* \"contracts/ccGroth16VerifyBn128.sol\":4393:4394  8 */\n      0x08\n        /* \"contracts/ccGroth16VerifyBn128.sol\":4386:4390  2000 */\n      0x07d0\n        /* \"contracts/ccGroth16VerifyBn128.sol\":4379:4384  gas() */\n      gas\n        /* \"contracts/ccGroth16VerifyBn128.sol\":4375:4391  sub(gas(), 2000) */\n      sub\n        /* \"contracts/ccGroth16VerifyBn128.sol\":4370:4427  call(sub(gas(), 2000), 8, 0, inputs, 0x300, inputs, 0x20) */\n      call\n        /* \"contracts/ccGroth16VerifyBn128.sol\":4361:4368  success */\n      dup3\n        /* \"contracts/ccGroth16VerifyBn128.sol\":4357:4428  and(success, call(sub(gas(), 2000), 8, 0, inputs, 0x300, inputs, 0x20)) */\n      and\n        /* \"contracts/ccGroth16VerifyBn128.sol\":4346:4428  success := and(success, call(sub(gas(), 2000), 8, 0, inputs, 0x300, inputs, 0x20)) */\n      swap2\n      pop\n        /* \"contracts/ccGroth16VerifyBn128.sol\":2466:4438  {... */\n      pop\n        /* \"contracts/ccGroth16VerifyBn128.sol\":4455:4462  success */\n      dup1\n        /* \"contracts/ccGroth16VerifyBn128.sol\":4447:4484  require(success, \"bn256Pairing fail\") */\n      tag_153\n      jumpi\n      mload(0x40)\n      0x08c379a000000000000000000000000000000000000000000000000000000000\n      dup2\n      mstore\n      0x04\n      add\n      tag_154\n      swap1\n      tag_155\n      jump\t// in\n    tag_154:\n      mload(0x40)\n      dup1\n      swap2\n      sub\n      swap1\n      revert\n    tag_153:\n        /* \"contracts/ccGroth16VerifyBn128.sol\":4514:4515  1 */\n      0x01\n        /* \"contracts/ccGroth16VerifyBn128.sol\":4501:4507  inputs */\n      dup3\n        /* \"contracts/ccGroth16VerifyBn128.sol\":4508:4509  0 */\n      0x00\n        /* \"contracts/ccGroth16VerifyBn128.sol\":4501:4510  inputs[0] */\n      0x18\n      dup2\n      lt\n      tag_156\n      jumpi\n      tag_157\n      tag_91\n      jump\t// in\n    tag_157:\n    tag_156:\n      0x20\n      mul\n      add\n      mload\n        /* \"contracts/ccGroth16VerifyBn128.sol\":4501:4515  inputs[0] == 1 */\n      eq\n        /* \"contracts/ccGroth16VerifyBn128.sol\":4494:4515  return inputs[0] == 1 */\n      swap4\n      pop\n      pop\n      pop\n      pop\n        /* \"contracts/ccGroth16VerifyBn128.sol\":912:4522  function _verify(... */\n      swap3\n      swap2\n      pop\n      pop\n      jump\t// out\n        /* \"contracts/PairingBn128.sol\":1627:2007  function negate(G1Point memory p) internal pure returns (G1Point memory) {... */\n    tag_93:\n        /* \"contracts/PairingBn128.sol\":1684:1698  G1Point memory */\n      tag_158\n      tag_57\n      jump\t// in\n    tag_158:\n        /* \"contracts/PairingBn128.sol\":1799:1808  uint256 q */\n      0x00\n        /* \"contracts/PairingBn128.sol\":1811:1888  21888242871839275222246405745257275088696311157297823662689037894645226208583 */\n      0x30644e72e131a029b85045b68181585d97816a916871ca8d3c208c16d87cfd47\n        /* \"contracts/PairingBn128.sol\":1799:1888  uint256 q = 21888242871839275222246405745257275088696311157297823662689037894645226208583 */\n      swap1\n      pop\n        /* \"contracts/PairingBn128.sol\":1909:1910  0 */\n      0x00\n        /* \"contracts/PairingBn128.sol\":1902:1903  p */\n      dup4\n        /* \"contracts/PairingBn128.sol\":1902:1905  p.X */\n      0x00\n      add\n      mload\n        /* \"contracts/PairingBn128.sol\":1902:1910  p.X == 0 */\n      eq\n        /* \"contracts/PairingBn128.sol\":1902:1922  p.X == 0 && p.Y == 0 */\n      dup1\n      iszero\n      tag_160\n      jumpi\n      pop\n        /* \"contracts/PairingBn128.sol\":1921:1922  0 */\n      0x00\n        /* \"contracts/PairingBn128.sol\":1914:1915  p */\n      dup4\n        /* \"contracts/PairingBn128.sol\":1914:1917  p.Y */\n      0x20\n      add\n      mload\n        /* \"contracts/PairingBn128.sol\":1914:1922  p.Y == 0 */\n      eq\n        /* \"contracts/PairingBn128.sol\":1902:1922  p.X == 0 && p.Y == 0 */\n    tag_160:\n        /* \"contracts/PairingBn128.sol\":1898:1956  if (p.X == 0 && p.Y == 0)... */\n      iszero\n      tag_161\n      jumpi\n        /* \"contracts/PairingBn128.sol\":1943:1956  G1Point(0, 0) */\n      mload(0x40)\n      dup1\n      0x40\n      add\n      0x40\n      mstore\n      dup1\n        /* \"contracts/PairingBn128.sol\":1951:1952  0 */\n      0x00\n        /* \"contracts/PairingBn128.sol\":1943:1956  G1Point(0, 0) */\n      dup2\n      mstore\n      0x20\n      add\n        /* \"contracts/PairingBn128.sol\":1954:1955  0 */\n      0x00\n        /* \"contracts/PairingBn128.sol\":1943:1956  G1Point(0, 0) */\n      dup2\n      mstore\n      pop\n        /* \"contracts/PairingBn128.sol\":1936:1956  return G1Point(0, 0) */\n      swap2\n      pop\n      pop\n      jump(tag_159)\n        /* \"contracts/PairingBn128.sol\":1898:1956  if (p.X == 0 && p.Y == 0)... */\n    tag_161:\n        /* \"contracts/PairingBn128.sol\":1973:2000  G1Point(p.X, q - (p.Y % q)) */\n      mload(0x40)\n      dup1\n      0x40\n      add\n      0x40\n      mstore\n      dup1\n        /* \"contracts/PairingBn128.sol\":1981:1982  p */\n      dup5\n        /* \"contracts/PairingBn128.sol\":1981:1984  p.X */\n      0x00\n      add\n      mload\n        /* \"contracts/PairingBn128.sol\":1973:2000  G1Point(p.X, q - (p.Y % q)) */\n      dup2\n      mstore\n      0x20\n      add\n        /* \"contracts/PairingBn128.sol\":1997:1998  q */\n      dup3\n        /* \"contracts/PairingBn128.sol\":1991:1992  p */\n      dup6\n        /* \"contracts/PairingBn128.sol\":1991:1994  p.Y */\n      0x20\n      add\n      mload\n        /* \"contracts/PairingBn128.sol\":1991:1998  p.Y % q */\n      tag_162\n      swap2\n      swap1\n      tag_163\n      jump\t// in\n    tag_162:\n        /* \"contracts/PairingBn128.sol\":1986:1987  q */\n      dup4\n        /* \"contracts/PairingBn128.sol\":1986:1999  q - (p.Y % q) */\n      tag_164\n      swap2\n      swap1\n      tag_165\n      jump\t// in\n    tag_164:\n        /* \"contracts/PairingBn128.sol\":1973:2000  G1Point(p.X, q - (p.Y % q)) */\n      dup2\n      mstore\n      pop\n        /* \"contracts/PairingBn128.sol\":1966:2000  return G1Point(p.X, q - (p.Y % q)) */\n      swap2\n      pop\n      pop\n        /* \"contracts/PairingBn128.sol\":1627:2007  function negate(G1Point memory p) internal pure returns (G1Point memory) {... */\n    tag_159:\n      swap2\n      swap1\n      pop\n      jump\t// out\n        /* \"contracts/PairingBn128.sol\":2055:2737  function add(G1Point memory p1, G1Point memory p2)... */\n    tag_94:\n        /* \"contracts/PairingBn128.sol\":2140:2156  G1Point memory r */\n      tag_166\n      tag_57\n      jump\t// in\n    tag_166:\n        /* \"contracts/PairingBn128.sol\":2172:2195  uint256[4] memory input */\n      tag_168\n      tag_169\n      jump\t// in\n    tag_168:\n        /* \"contracts/PairingBn128.sol\":2216:2218  p1 */\n      dup4\n        /* \"contracts/PairingBn128.sol\":2216:2220  p1.X */\n      0x00\n      add\n      mload\n        /* \"contracts/PairingBn128.sol\":2205:2210  input */\n      dup2\n        /* \"contracts/PairingBn128.sol\":2211:2212  0 */\n      0x00\n        /* \"contracts/PairingBn128.sol\":2205:2213  input[0] */\n      0x04\n      dup2\n      lt\n      tag_170\n      jumpi\n      tag_171\n      tag_91\n      jump\t// in\n    tag_171:\n    tag_170:\n      0x20\n      mul\n      add\n        /* \"contracts/PairingBn128.sol\":2205:2220  input[0] = p1.X */\n      dup2\n      dup2\n      mstore\n      pop\n      pop\n        /* \"contracts/PairingBn128.sol\":2241:2243  p1 */\n      dup4\n        /* \"contracts/PairingBn128.sol\":2241:2245  p1.Y */\n      0x20\n      add\n      mload\n        /* \"contracts/PairingBn128.sol\":2230:2235  input */\n      dup2\n        /* \"contracts/PairingBn128.sol\":2236:2237  1 */\n      0x01\n        /* \"contracts/PairingBn128.sol\":2230:2238  input[1] */\n      0x04\n      dup2\n      lt\n      tag_172\n      jumpi\n      tag_173\n      tag_91\n      jump\t// in\n    tag_173:\n    tag_172:\n      0x20\n      mul\n      add\n        /* \"contracts/PairingBn128.sol\":2230:2245  input[1] = p1.Y */\n      dup2\n      dup2\n      mstore\n      pop\n      pop\n        /* \"contracts/PairingBn128.sol\":2266:2268  p2 */\n      dup3\n        /* \"contracts/PairingBn128.sol\":2266:2270  p2.X */\n      0x00\n      add\n      mload\n        /* \"contracts/PairingBn128.sol\":2255:2260  input */\n      dup2\n        /* \"contracts/PairingBn128.sol\":2261:2262  2 */\n      0x02\n        /* \"contracts/PairingBn128.sol\":2255:2263  input[2] */\n      0x04\n      dup2\n      lt\n      tag_174\n      jumpi\n      tag_175\n      tag_91\n      jump\t// in\n    tag_175:\n    tag_174:\n      0x20\n      mul\n      add\n        /* \"contracts/PairingBn128.sol\":2255:2270  input[2] = p2.X */\n      dup2\n      dup2\n      mstore\n      pop\n      pop\n        /* \"contracts/PairingBn128.sol\":2291:2293  p2 */\n      dup3\n        /* \"contracts/PairingBn128.sol\":2291:2295  p2.Y */\n      0x20\n      add\n      mload\n        /* \"contracts/PairingBn128.sol\":2280:2285  input */\n      dup2\n        /* \"contracts/PairingBn128.sol\":2286:2287  3 */\n      0x03\n        /* \"contracts/PairingBn128.sol\":2280:2288  input[3] */\n      0x04\n      dup2\n      lt\n      tag_176\n      jumpi\n      tag_177\n      tag_91\n      jump\t// in\n    tag_177:\n    tag_176:\n      0x20\n      mul\n      add\n        /* \"contracts/PairingBn128.sol\":2280:2295  input[3] = p2.Y */\n      dup2\n      dup2\n      mstore\n      pop\n      pop\n        /* \"contracts/PairingBn128.sol\":2305:2317  bool success */\n      0x00\n        /* \"contracts/PairingBn128.sol\":2461:2465  0x40 */\n      0x40\n        /* \"contracts/PairingBn128.sol\":2458:2459  r */\n      dup4\n        /* \"contracts/PairingBn128.sol\":2452:2456  0x80 */\n      0x80\n        /* \"contracts/PairingBn128.sol\":2445:2450  input */\n      dup5\n        /* \"contracts/PairingBn128.sol\":2442:2443  0 */\n      0x00\n        /* \"contracts/PairingBn128.sol\":2439:2440  6 */\n      0x06\n        /* \"contracts/PairingBn128.sol\":2432:2436  2000 */\n      0x07d0\n        /* \"contracts/PairingBn128.sol\":2425:2430  gas() */\n      gas\n        /* \"contracts/PairingBn128.sol\":2421:2437  sub(gas(), 2000) */\n      sub\n        /* \"contracts/PairingBn128.sol\":2416:2466  call(sub(gas(), 2000), 6, 0, input, 0x80, r, 0x40) */\n      call\n        /* \"contracts/PairingBn128.sol\":2405:2466  success := call(sub(gas(), 2000), 6, 0, input, 0x80, r, 0x40) */\n      swap1\n      pop\n        /* \"contracts/PairingBn128.sol\":2611:2618  success */\n      dup1\n        /* \"contracts/PairingBn128.sol\":2590:2730  require(... */\n      tag_178\n      jumpi\n      mload(0x40)\n      0x08c379a000000000000000000000000000000000000000000000000000000000\n      dup2\n      mstore\n      0x04\n      add\n      tag_179\n      swap1\n      tag_180\n      jump\t// in\n    tag_179:\n      mload(0x40)\n      dup1\n      swap2\n      sub\n      swap1\n      revert\n    tag_178:\n        /* \"contracts/PairingBn128.sol\":2162:2737  {... */\n      pop\n      pop\n        /* \"contracts/PairingBn128.sol\":2055:2737  function add(G1Point memory p1, G1Point memory p2)... */\n      swap3\n      swap2\n      pop\n      pop\n      jump\t// out\n        /* \"@openzeppelin/contracts/utils/Context.sol\":640:736  function _msgSender() internal view virtual returns (address) {... */\n    tag_135:\n        /* \"@openzeppelin/contracts/utils/Context.sol\":693:700  address */\n      0x00\n        /* \"@openzeppelin/contracts/utils/Context.sol\":719:729  msg.sender */\n      caller\n        /* \"@openzeppelin/contracts/utils/Context.sol\":712:729  return msg.sender */\n      swap1\n      pop\n        /* \"@openzeppelin/contracts/utils/Context.sol\":640:736  function _msgSender() internal view virtual returns (address) {... */\n      swap1\n      jump\t// out\n    tag_57:\n      mload(0x40)\n      dup1\n      0x40\n      add\n      0x40\n      mstore\n      dup1\n      0x00\n      dup2\n      mstore\n      0x20\n      add\n      0x00\n      dup2\n      mstore\n      pop\n      swap1\n      jump\t// out\n    tag_149:\n      mload(0x40)\n      dup1\n      0x0300\n      add\n      0x40\n      mstore\n      dup1\n      0x18\n      swap1\n      0x20\n      dup3\n      mul\n      dup1\n      calldatasize\n      dup4\n      calldatacopy\n      dup1\n      dup3\n      add\n      swap2\n      pop\n      pop\n      swap1\n      pop\n      pop\n      swap1\n      jump\t// out\n    tag_169:\n      mload(0x40)\n      dup1\n      0x80\n      add\n      0x40\n      mstore\n      dup1\n      0x04\n      swap1\n      0x20\n      dup3\n      mul\n      dup1\n      calldatasize\n      dup4\n      calldatacopy\n      dup1\n      dup3\n      add\n      swap2\n      pop\n      pop\n      swap1\n      pop\n      pop\n      swap1\n      jump\t// out\n        /* \"#utility.yul\":24:746   */\n    tag_183:\n        /* \"#utility.yul\":120:125   */\n      0x00\n        /* \"#utility.yul\":145:226   */\n      tag_185\n        /* \"#utility.yul\":161:225   */\n      tag_186\n        /* \"#utility.yul\":218:224   */\n      dup5\n        /* \"#utility.yul\":161:225   */\n      tag_187\n      jump\t// in\n    tag_186:\n        /* \"#utility.yul\":145:226   */\n      tag_188\n      jump\t// in\n    tag_185:\n        /* \"#utility.yul\":136:226   */\n      swap1\n      pop\n        /* \"#utility.yul\":246:251   */\n      dup1\n        /* \"#utility.yul\":275:281   */\n      dup4\n        /* \"#utility.yul\":268:273   */\n      dup3\n        /* \"#utility.yul\":261:282   */\n      mstore\n        /* \"#utility.yul\":309:313   */\n      0x20\n        /* \"#utility.yul\":302:307   */\n      dup3\n        /* \"#utility.yul\":298:314   */\n      add\n        /* \"#utility.yul\":291:314   */\n      swap1\n      pop\n        /* \"#utility.yul\":335:341   */\n      dup3\n        /* \"#utility.yul\":385:388   */\n      dup6\n        /* \"#utility.yul\":377:381   */\n      0x20\n        /* \"#utility.yul\":369:375   */\n      dup7\n        /* \"#utility.yul\":365:382   */\n      mul\n        /* \"#utility.yul\":360:363   */\n      dup3\n        /* \"#utility.yul\":356:383   */\n      add\n        /* \"#utility.yul\":353:389   */\n      gt\n        /* \"#utility.yul\":350:493   */\n      iszero\n      tag_189\n      jumpi\n        /* \"#utility.yul\":404:483   */\n      tag_190\n      tag_191\n      jump\t// in\n    tag_190:\n        /* \"#utility.yul\":350:493   */\n    tag_189:\n        /* \"#utility.yul\":517:518   */\n      0x00\n        /* \"#utility.yul\":502:740   */\n    tag_192:\n        /* \"#utility.yul\":527:533   */\n      dup6\n        /* \"#utility.yul\":524:525   */\n      dup2\n        /* \"#utility.yul\":521:534   */\n      lt\n        /* \"#utility.yul\":502:740   */\n      iszero\n      tag_194\n      jumpi\n        /* \"#utility.yul\":595:598   */\n      dup2\n        /* \"#utility.yul\":624:661   */\n      tag_195\n        /* \"#utility.yul\":657:660   */\n      dup9\n        /* \"#utility.yul\":645:655   */\n      dup3\n        /* \"#utility.yul\":624:661   */\n      tag_196\n      jump\t// in\n    tag_195:\n        /* \"#utility.yul\":619:622   */\n      dup5\n        /* \"#utility.yul\":612:662   */\n      mstore\n        /* \"#utility.yul\":691:695   */\n      0x20\n        /* \"#utility.yul\":686:689   */\n      dup5\n        /* \"#utility.yul\":682:696   */\n      add\n        /* \"#utility.yul\":675:696   */\n      swap4\n      pop\n        /* \"#utility.yul\":725:729   */\n      0x20\n        /* \"#utility.yul\":720:723   */\n      dup4\n        /* \"#utility.yul\":716:730   */\n      add\n        /* \"#utility.yul\":709:730   */\n      swap3\n      pop\n        /* \"#utility.yul\":562:740   */\n      pop\n        /* \"#utility.yul\":549:550   */\n      0x01\n        /* \"#utility.yul\":546:547   */\n      dup2\n        /* \"#utility.yul\":542:551   */\n      add\n        /* \"#utility.yul\":537:551   */\n      swap1\n      pop\n        /* \"#utility.yul\":502:740   */\n      jump(tag_192)\n    tag_194:\n        /* \"#utility.yul\":506:520   */\n      pop\n        /* \"#utility.yul\":126:746   */\n      pop\n      pop\n        /* \"#utility.yul\":24:746   */\n      swap4\n      swap3\n      pop\n      pop\n      pop\n      jump\t// out\n        /* \"#utility.yul\":752:891   */\n    tag_197:\n        /* \"#utility.yul\":798:803   */\n      0x00\n        /* \"#utility.yul\":836:842   */\n      dup2\n        /* \"#utility.yul\":823:843   */\n      calldataload\n        /* \"#utility.yul\":814:843   */\n      swap1\n      pop\n        /* \"#utility.yul\":852:885   */\n      tag_199\n        /* \"#utility.yul\":879:884   */\n      dup2\n        /* \"#utility.yul\":852:885   */\n      tag_200\n      jump\t// in\n    tag_199:\n        /* \"#utility.yul\":752:891   */\n      swap3\n      swap2\n      pop\n      pop\n      jump\t// out\n        /* \"#utility.yul\":914:1284   */\n    tag_201:\n        /* \"#utility.yul\":985:990   */\n      0x00\n        /* \"#utility.yul\":1034:1037   */\n      dup3\n        /* \"#utility.yul\":1027:1031   */\n      0x1f\n        /* \"#utility.yul\":1019:1025   */\n      dup4\n        /* \"#utility.yul\":1015:1032   */\n      add\n        /* \"#utility.yul\":1011:1038   */\n      slt\n        /* \"#utility.yul\":1001:1123   */\n      tag_203\n      jumpi\n        /* \"#utility.yul\":1042:1121   */\n      tag_204\n      tag_205\n      jump\t// in\n    tag_204:\n        /* \"#utility.yul\":1001:1123   */\n    tag_203:\n        /* \"#utility.yul\":1159:1165   */\n      dup2\n        /* \"#utility.yul\":1146:1166   */\n      calldataload\n        /* \"#utility.yul\":1184:1278   */\n      tag_206\n        /* \"#utility.yul\":1274:1277   */\n      dup5\n        /* \"#utility.yul\":1266:1272   */\n      dup3\n        /* \"#utility.yul\":1259:1263   */\n      0x20\n        /* \"#utility.yul\":1251:1257   */\n      dup7\n        /* \"#utility.yul\":1247:1264   */\n      add\n        /* \"#utility.yul\":1184:1278   */\n      tag_183\n      jump\t// in\n    tag_206:\n        /* \"#utility.yul\":1175:1278   */\n      swap2\n      pop\n        /* \"#utility.yul\":991:1284   */\n      pop\n        /* \"#utility.yul\":914:1284   */\n      swap3\n      swap2\n      pop\n      pop\n      jump\t// out\n        /* \"#utility.yul\":1290:1429   */\n    tag_196:\n        /* \"#utility.yul\":1336:1341   */\n      0x00\n        /* \"#utility.yul\":1374:1380   */\n      dup2\n        /* \"#utility.yul\":1361:1381   */\n      calldataload\n        /* \"#utility.yul\":1352:1381   */\n      swap1\n      pop\n        /* \"#utility.yul\":1390:1423   */\n      tag_208\n        /* \"#utility.yul\":1417:1422   */\n      dup2\n        /* \"#utility.yul\":1390:1423   */\n      tag_209\n      jump\t// in\n    tag_208:\n        /* \"#utility.yul\":1290:1429   */\n      swap3\n      swap2\n      pop\n      pop\n      jump\t// out\n        /* \"#utility.yul\":1435:1764   */\n    tag_49:\n        /* \"#utility.yul\":1494:1500   */\n      0x00\n        /* \"#utility.yul\":1543:1545   */\n      0x20\n        /* \"#utility.yul\":1531:1540   */\n      dup3\n        /* \"#utility.yul\":1522:1529   */\n      dup5\n        /* \"#utility.yul\":1518:1541   */\n      sub\n        /* \"#utility.yul\":1514:1546   */\n      slt\n        /* \"#utility.yul\":1511:1630   */\n      iszero\n      tag_211\n      jumpi\n        /* \"#utility.yul\":1549:1628   */\n      tag_212\n      tag_213\n      jump\t// in\n    tag_212:\n        /* \"#utility.yul\":1511:1630   */\n    tag_211:\n        /* \"#utility.yul\":1669:1670   */\n      0x00\n        /* \"#utility.yul\":1694:1747   */\n      tag_214\n        /* \"#utility.yul\":1739:1746   */\n      dup5\n        /* \"#utility.yul\":1730:1736   */\n      dup3\n        /* \"#utility.yul\":1719:1728   */\n      dup6\n        /* \"#utility.yul\":1715:1737   */\n      add\n        /* \"#utility.yul\":1694:1747   */\n      tag_197\n      jump\t// in\n    tag_214:\n        /* \"#utility.yul\":1684:1747   */\n      swap2\n      pop\n        /* \"#utility.yul\":1640:1757   */\n      pop\n        /* \"#utility.yul\":1435:1764   */\n      swap3\n      swap2\n      pop\n      pop\n      jump\t// out\n        /* \"#utility.yul\":1770:2309   */\n    tag_53:\n        /* \"#utility.yul\":1854:1860   */\n      0x00\n        /* \"#utility.yul\":1903:1905   */\n      0x20\n        /* \"#utility.yul\":1891:1900   */\n      dup3\n        /* \"#utility.yul\":1882:1889   */\n      dup5\n        /* \"#utility.yul\":1878:1901   */\n      sub\n        /* \"#utility.yul\":1874:1906   */\n      slt\n        /* \"#utility.yul\":1871:1990   */\n      iszero\n      tag_216\n      jumpi\n        /* \"#utility.yul\":1909:1988   */\n      tag_217\n      tag_213\n      jump\t// in\n    tag_217:\n        /* \"#utility.yul\":1871:1990   */\n    tag_216:\n        /* \"#utility.yul\":2057:2058   */\n      0x00\n        /* \"#utility.yul\":2046:2055   */\n      dup3\n        /* \"#utility.yul\":2042:2059   */\n      add\n        /* \"#utility.yul\":2029:2060   */\n      calldataload\n        /* \"#utility.yul\":2087:2105   */\n      0xffffffffffffffff\n        /* \"#utility.yul\":2079:2085   */\n      dup2\n        /* \"#utility.yul\":2076:2106   */\n      gt\n        /* \"#utility.yul\":2073:2190   */\n      iszero\n      tag_218\n      jumpi\n        /* \"#utility.yul\":2109:2188   */\n      tag_219\n      tag_220\n      jump\t// in\n    tag_219:\n        /* \"#utility.yul\":2073:2190   */\n    tag_218:\n        /* \"#utility.yul\":2214:2292   */\n      tag_221\n        /* \"#utility.yul\":2284:2291   */\n      dup5\n        /* \"#utility.yul\":2275:2281   */\n      dup3\n        /* \"#utility.yul\":2264:2273   */\n      dup6\n        /* \"#utility.yul\":2260:2282   */\n      add\n        /* \"#utility.yul\":2214:2292   */\n      tag_201\n      jump\t// in\n    tag_221:\n        /* \"#utility.yul\":2204:2292   */\n      swap2\n      pop\n        /* \"#utility.yul\":2000:2302   */\n      pop\n        /* \"#utility.yul\":1770:2309   */\n      swap3\n      swap2\n      pop\n      pop\n      jump\t// out\n        /* \"#utility.yul\":2315:2644   */\n    tag_34:\n        /* \"#utility.yul\":2374:2380   */\n      0x00\n        /* \"#utility.yul\":2423:2425   */\n      0x20\n        /* \"#utility.yul\":2411:2420   */\n      dup3\n        /* \"#utility.yul\":2402:2409   */\n      dup5\n        /* \"#utility.yul\":2398:2421   */\n      sub\n        /* \"#utility.yul\":2394:2426   */\n      slt\n        /* \"#utility.yul\":2391:2510   */\n      iszero\n      tag_223\n      jumpi\n        /* \"#utility.yul\":2429:2508   */\n      tag_224\n      tag_213\n      jump\t// in\n    tag_224:\n        /* \"#utility.yul\":2391:2510   */\n    tag_223:\n        /* \"#utility.yul\":2549:2550   */\n      0x00\n        /* \"#utility.yul\":2574:2627   */\n      tag_225\n        /* \"#utility.yul\":2619:2626   */\n      dup5\n        /* \"#utility.yul\":2610:2616   */\n      dup3\n        /* \"#utility.yul\":2599:2608   */\n      dup6\n        /* \"#utility.yul\":2595:2617   */\n      add\n        /* \"#utility.yul\":2574:2627   */\n      tag_196\n      jump\t// in\n    tag_225:\n        /* \"#utility.yul\":2564:2627   */\n      swap2\n      pop\n        /* \"#utility.yul\":2520:2637   */\n      pop\n        /* \"#utility.yul\":2315:2644   */\n      swap3\n      swap2\n      pop\n      pop\n      jump\t// out\n        /* \"#utility.yul\":2650:3334   */\n    tag_44:\n        /* \"#utility.yul\":2743:2749   */\n      0x00\n        /* \"#utility.yul\":2751:2757   */\n      dup1\n        /* \"#utility.yul\":2800:2802   */\n      0x40\n        /* \"#utility.yul\":2788:2797   */\n      dup4\n        /* \"#utility.yul\":2779:2786   */\n      dup6\n        /* \"#utility.yul\":2775:2798   */\n      sub\n        /* \"#utility.yul\":2771:2803   */\n      slt\n        /* \"#utility.yul\":2768:2887   */\n      iszero\n      tag_227\n      jumpi\n        /* \"#utility.yul\":2806:2885   */\n      tag_228\n      tag_213\n      jump\t// in\n    tag_228:\n        /* \"#utility.yul\":2768:2887   */\n    tag_227:\n        /* \"#utility.yul\":2926:2927   */\n      0x00\n        /* \"#utility.yul\":2951:3004   */\n      tag_229\n        /* \"#utility.yul\":2996:3003   */\n      dup6\n        /* \"#utility.yul\":2987:2993   */\n      dup3\n        /* \"#utility.yul\":2976:2985   */\n      dup7\n        /* \"#utility.yul\":2972:2994   */\n      add\n        /* \"#utility.yul\":2951:3004   */\n      tag_196\n      jump\t// in\n    tag_229:\n        /* \"#utility.yul\":2941:3004   */\n      swap3\n      pop\n        /* \"#utility.yul\":2897:3014   */\n      pop\n        /* \"#utility.yul\":3081:3083   */\n      0x20\n        /* \"#utility.yul\":3070:3079   */\n      dup4\n        /* \"#utility.yul\":3066:3084   */\n      add\n        /* \"#utility.yul\":3053:3085   */\n      calldataload\n        /* \"#utility.yul\":3112:3130   */\n      0xffffffffffffffff\n        /* \"#utility.yul\":3104:3110   */\n      dup2\n        /* \"#utility.yul\":3101:3131   */\n      gt\n        /* \"#utility.yul\":3098:3215   */\n      iszero\n      tag_230\n      jumpi\n        /* \"#utility.yul\":3134:3213   */\n      tag_231\n      tag_220\n      jump\t// in\n    tag_231:\n        /* \"#utility.yul\":3098:3215   */\n    tag_230:\n        /* \"#utility.yul\":3239:3317   */\n      tag_232\n        /* \"#utility.yul\":3309:3316   */\n      dup6\n        /* \"#utility.yul\":3300:3306   */\n      dup3\n        /* \"#utility.yul\":3289:3298   */\n      dup7\n        /* \"#utility.yul\":3285:3307   */\n      add\n        /* \"#utility.yul\":3239:3317   */\n      tag_201\n      jump\t// in\n    tag_232:\n        /* \"#utility.yul\":3229:3317   */\n      swap2\n      pop\n        /* \"#utility.yul\":3024:3327   */\n      pop\n        /* \"#utility.yul\":2650:3334   */\n      swap3\n      pop\n      swap3\n      swap1\n      pop\n      jump\t// out\n        /* \"#utility.yul\":3340:3615   */\n    tag_233:\n        /* \"#utility.yul\":3457:3467   */\n      0x00\n        /* \"#utility.yul\":3478:3572   */\n      tag_235\n        /* \"#utility.yul\":3568:3571   */\n      dup4\n        /* \"#utility.yul\":3560:3566   */\n      dup4\n        /* \"#utility.yul\":3478:3572   */\n      tag_236\n      jump\t// in\n    tag_235:\n        /* \"#utility.yul\":3604:3608   */\n      0x40\n        /* \"#utility.yul\":3599:3602   */\n      dup4\n        /* \"#utility.yul\":3595:3609   */\n      add\n        /* \"#utility.yul\":3581:3609   */\n      swap1\n      pop\n        /* \"#utility.yul\":3340:3615   */\n      swap3\n      swap2\n      pop\n      pop\n      jump\t// out\n        /* \"#utility.yul\":3621:3800   */\n    tag_237:\n        /* \"#utility.yul\":3690:3700   */\n      0x00\n        /* \"#utility.yul\":3711:3757   */\n      tag_239\n        /* \"#utility.yul\":3753:3756   */\n      dup4\n        /* \"#utility.yul\":3745:3751   */\n      dup4\n        /* \"#utility.yul\":3711:3757   */\n      tag_240\n      jump\t// in\n    tag_239:\n        /* \"#utility.yul\":3789:3793   */\n      0x20\n        /* \"#utility.yul\":3784:3787   */\n      dup4\n        /* \"#utility.yul\":3780:3794   */\n      add\n        /* \"#utility.yul\":3766:3794   */\n      swap1\n      pop\n        /* \"#utility.yul\":3621:3800   */\n      swap3\n      swap2\n      pop\n      pop\n      jump\t// out\n        /* \"#utility.yul\":3806:3924   */\n    tag_241:\n        /* \"#utility.yul\":3893:3917   */\n      tag_243\n        /* \"#utility.yul\":3911:3916   */\n      dup2\n        /* \"#utility.yul\":3893:3917   */\n      tag_244\n      jump\t// in\n    tag_243:\n        /* \"#utility.yul\":3888:3891   */\n      dup3\n        /* \"#utility.yul\":3881:3918   */\n      mstore\n        /* \"#utility.yul\":3806:3924   */\n      pop\n      pop\n      jump\t// out\n        /* \"#utility.yul\":3990:4914   */\n    tag_245:\n        /* \"#utility.yul\":4157:4160   */\n      0x00\n        /* \"#utility.yul\":4186:4264   */\n      tag_247\n        /* \"#utility.yul\":4258:4263   */\n      dup3\n        /* \"#utility.yul\":4186:4264   */\n      tag_248\n      jump\t// in\n    tag_247:\n        /* \"#utility.yul\":4280:4390   */\n      tag_249\n        /* \"#utility.yul\":4383:4389   */\n      dup2\n        /* \"#utility.yul\":4378:4381   */\n      dup6\n        /* \"#utility.yul\":4280:4390   */\n      tag_250\n      jump\t// in\n    tag_249:\n        /* \"#utility.yul\":4273:4390   */\n      swap4\n      pop\n        /* \"#utility.yul\":4414:4494   */\n      tag_251\n        /* \"#utility.yul\":4488:4493   */\n      dup4\n        /* \"#utility.yul\":4414:4494   */\n      tag_252\n      jump\t// in\n    tag_251:\n        /* \"#utility.yul\":4517:4524   */\n      dup1\n        /* \"#utility.yul\":4548:4549   */\n      0x00\n        /* \"#utility.yul\":4533:4889   */\n    tag_253:\n        /* \"#utility.yul\":4558:4564   */\n      dup4\n        /* \"#utility.yul\":4555:4556   */\n      dup2\n        /* \"#utility.yul\":4552:4565   */\n      lt\n        /* \"#utility.yul\":4533:4889   */\n      iszero\n      tag_255\n      jumpi\n        /* \"#utility.yul\":4634:4640   */\n      dup2\n        /* \"#utility.yul\":4628:4641   */\n      mload\n        /* \"#utility.yul\":4661:4772   */\n      tag_256\n        /* \"#utility.yul\":4768:4771   */\n      dup9\n        /* \"#utility.yul\":4753:4766   */\n      dup3\n        /* \"#utility.yul\":4661:4772   */\n      tag_233\n      jump\t// in\n    tag_256:\n        /* \"#utility.yul\":4654:4772   */\n      swap8\n      pop\n        /* \"#utility.yul\":4795:4879   */\n      tag_257\n        /* \"#utility.yul\":4872:4878   */\n      dup4\n        /* \"#utility.yul\":4795:4879   */\n      tag_258\n      jump\t// in\n    tag_257:\n        /* \"#utility.yul\":4785:4879   */\n      swap3\n      pop\n        /* \"#utility.yul\":4593:4889   */\n      pop\n        /* \"#utility.yul\":4580:4581   */\n      0x01\n        /* \"#utility.yul\":4577:4578   */\n      dup2\n        /* \"#utility.yul\":4573:4582   */\n      add\n        /* \"#utility.yul\":4568:4582   */\n      swap1\n      pop\n        /* \"#utility.yul\":4533:4889   */\n      jump(tag_253)\n    tag_255:\n        /* \"#utility.yul\":4537:4551   */\n      pop\n        /* \"#utility.yul\":4905:4908   */\n      dup6\n        /* \"#utility.yul\":4898:4908   */\n      swap4\n      pop\n        /* \"#utility.yul\":4162:4914   */\n      pop\n      pop\n      pop\n        /* \"#utility.yul\":3990:4914   */\n      swap3\n      swap2\n      pop\n      pop\n      jump\t// out\n        /* \"#utility.yul\":4950:5682   */\n    tag_259:\n        /* \"#utility.yul\":5069:5072   */\n      0x00\n        /* \"#utility.yul\":5098:5152   */\n      tag_261\n        /* \"#utility.yul\":5146:5151   */\n      dup3\n        /* \"#utility.yul\":5098:5152   */\n      tag_262\n      jump\t// in\n    tag_261:\n        /* \"#utility.yul\":5168:5254   */\n      tag_263\n        /* \"#utility.yul\":5247:5253   */\n      dup2\n        /* \"#utility.yul\":5242:5245   */\n      dup6\n        /* \"#utility.yul\":5168:5254   */\n      tag_264\n      jump\t// in\n    tag_263:\n        /* \"#utility.yul\":5161:5254   */\n      swap4\n      pop\n        /* \"#utility.yul\":5278:5334   */\n      tag_265\n        /* \"#utility.yul\":5328:5333   */\n      dup4\n        /* \"#utility.yul\":5278:5334   */\n      tag_266\n      jump\t// in\n    tag_265:\n        /* \"#utility.yul\":5357:5364   */\n      dup1\n        /* \"#utility.yul\":5388:5389   */\n      0x00\n        /* \"#utility.yul\":5373:5657   */\n    tag_267:\n        /* \"#utility.yul\":5398:5404   */\n      dup4\n        /* \"#utility.yul\":5395:5396   */\n      dup2\n        /* \"#utility.yul\":5392:5405   */\n      lt\n        /* \"#utility.yul\":5373:5657   */\n      iszero\n      tag_269\n      jumpi\n        /* \"#utility.yul\":5474:5480   */\n      dup2\n        /* \"#utility.yul\":5468:5481   */\n      mload\n        /* \"#utility.yul\":5501:5564   */\n      tag_270\n        /* \"#utility.yul\":5560:5563   */\n      dup9\n        /* \"#utility.yul\":5545:5558   */\n      dup3\n        /* \"#utility.yul\":5501:5564   */\n      tag_237\n      jump\t// in\n    tag_270:\n        /* \"#utility.yul\":5494:5564   */\n      swap8\n      pop\n        /* \"#utility.yul\":5587:5647   */\n      tag_271\n        /* \"#utility.yul\":5640:5646   */\n      dup4\n        /* \"#utility.yul\":5587:5647   */\n      tag_272\n      jump\t// in\n    tag_271:\n        /* \"#utility.yul\":5577:5647   */\n      swap3\n      pop\n        /* \"#utility.yul\":5433:5657   */\n      pop\n        /* \"#utility.yul\":5420:5421   */\n      0x01\n        /* \"#utility.yul\":5417:5418   */\n      dup2\n        /* \"#utility.yul\":5413:5422   */\n      add\n        /* \"#utility.yul\":5408:5422   */\n      swap1\n      pop\n        /* \"#utility.yul\":5373:5657   */\n      jump(tag_267)\n    tag_269:\n        /* \"#utility.yul\":5377:5391   */\n      pop\n        /* \"#utility.yul\":5673:5676   */\n      dup6\n        /* \"#utility.yul\":5666:5676   */\n      swap4\n      pop\n        /* \"#utility.yul\":5074:5682   */\n      pop\n      pop\n      pop\n        /* \"#utility.yul\":4950:5682   */\n      swap3\n      swap2\n      pop\n      pop\n      jump\t// out\n        /* \"#utility.yul\":5688:5797   */\n    tag_273:\n        /* \"#utility.yul\":5769:5790   */\n      tag_275\n        /* \"#utility.yul\":5784:5789   */\n      dup2\n        /* \"#utility.yul\":5769:5790   */\n      tag_276\n      jump\t// in\n    tag_275:\n        /* \"#utility.yul\":5764:5767   */\n      dup3\n        /* \"#utility.yul\":5757:5791   */\n      mstore\n        /* \"#utility.yul\":5688:5797   */\n      pop\n      pop\n      jump\t// out\n        /* \"#utility.yul\":5803:6169   */\n    tag_277:\n        /* \"#utility.yul\":5945:5948   */\n      0x00\n        /* \"#utility.yul\":5966:6033   */\n      tag_279\n        /* \"#utility.yul\":6030:6032   */\n      0x26\n        /* \"#utility.yul\":6025:6028   */\n      dup4\n        /* \"#utility.yul\":5966:6033   */\n      tag_280\n      jump\t// in\n    tag_279:\n        /* \"#utility.yul\":5959:6033   */\n      swap2\n      pop\n        /* \"#utility.yul\":6042:6135   */\n      tag_281\n        /* \"#utility.yul\":6131:6134   */\n      dup3\n        /* \"#utility.yul\":6042:6135   */\n      tag_282\n      jump\t// in\n    tag_281:\n        /* \"#utility.yul\":6160:6162   */\n      0x40\n        /* \"#utility.yul\":6155:6158   */\n      dup3\n        /* \"#utility.yul\":6151:6163   */\n      add\n        /* \"#utility.yul\":6144:6163   */\n      swap1\n      pop\n        /* \"#utility.yul\":5803:6169   */\n      swap2\n      swap1\n      pop\n      jump\t// out\n        /* \"#utility.yul\":6175:6541   */\n    tag_283:\n        /* \"#utility.yul\":6317:6320   */\n      0x00\n        /* \"#utility.yul\":6338:6405   */\n      tag_285\n        /* \"#utility.yul\":6402:6404   */\n      0x47\n        /* \"#utility.yul\":6397:6400   */\n      dup4\n        /* \"#utility.yul\":6338:6405   */\n      tag_280\n      jump\t// in\n    tag_285:\n        /* \"#utility.yul\":6331:6405   */\n      swap2\n      pop\n        /* \"#utility.yul\":6414:6507   */\n      tag_286\n        /* \"#utility.yul\":6503:6506   */\n      dup3\n        /* \"#utility.yul\":6414:6507   */\n      tag_287\n      jump\t// in\n    tag_286:\n        /* \"#utility.yul\":6532:6534   */\n      0x60\n        /* \"#utility.yul\":6527:6530   */\n      dup3\n        /* \"#utility.yul\":6523:6535   */\n      add\n        /* \"#utility.yul\":6516:6535   */\n      swap1\n      pop\n        /* \"#utility.yul\":6175:6541   */\n      swap2\n      swap1\n      pop\n      jump\t// out\n        /* \"#utility.yul\":6547:6913   */\n    tag_288:\n        /* \"#utility.yul\":6689:6692   */\n      0x00\n        /* \"#utility.yul\":6710:6777   */\n      tag_290\n        /* \"#utility.yul\":6774:6776   */\n      0x0d\n        /* \"#utility.yul\":6769:6772   */\n      dup4\n        /* \"#utility.yul\":6710:6777   */\n      tag_280\n      jump\t// in\n    tag_290:\n        /* \"#utility.yul\":6703:6777   */\n      swap2\n      pop\n        /* \"#utility.yul\":6786:6879   */\n      tag_291\n        /* \"#utility.yul\":6875:6878   */\n      dup3\n        /* \"#utility.yul\":6786:6879   */\n      tag_292\n      jump\t// in\n    tag_291:\n        /* \"#utility.yul\":6904:6906   */\n      0x20\n        /* \"#utility.yul\":6899:6902   */\n      dup3\n        /* \"#utility.yul\":6895:6907   */\n      add\n        /* \"#utility.yul\":6888:6907   */\n      swap1\n      pop\n        /* \"#utility.yul\":6547:6913   */\n      swap2\n      swap1\n      pop\n      jump\t// out\n        /* \"#utility.yul\":6919:7285   */\n    tag_293:\n        /* \"#utility.yul\":7061:7064   */\n      0x00\n        /* \"#utility.yul\":7082:7149   */\n      tag_295\n        /* \"#utility.yul\":7146:7148   */\n      0x11\n        /* \"#utility.yul\":7141:7144   */\n      dup4\n        /* \"#utility.yul\":7082:7149   */\n      tag_280\n      jump\t// in\n    tag_295:\n        /* \"#utility.yul\":7075:7149   */\n      swap2\n      pop\n        /* \"#utility.yul\":7158:7251   */\n      tag_296\n        /* \"#utility.yul\":7247:7250   */\n      dup3\n        /* \"#utility.yul\":7158:7251   */\n      tag_297\n      jump\t// in\n    tag_296:\n        /* \"#utility.yul\":7276:7278   */\n      0x20\n        /* \"#utility.yul\":7271:7274   */\n      dup3\n        /* \"#utility.yul\":7267:7279   */\n      add\n        /* \"#utility.yul\":7260:7279   */\n      swap1\n      pop\n        /* \"#utility.yul\":6919:7285   */\n      swap2\n      swap1\n      pop\n      jump\t// out\n        /* \"#utility.yul\":7291:7657   */\n    tag_298:\n        /* \"#utility.yul\":7433:7436   */\n      0x00\n        /* \"#utility.yul\":7454:7521   */\n      tag_300\n        /* \"#utility.yul\":7518:7520   */\n      0x20\n        /* \"#utility.yul\":7513:7516   */\n      dup4\n        /* \"#utility.yul\":7454:7521   */\n      tag_280\n      jump\t// in\n    tag_300:\n        /* \"#utility.yul\":7447:7521   */\n      swap2\n      pop\n        /* \"#utility.yul\":7530:7623   */\n      tag_301\n        /* \"#utility.yul\":7619:7622   */\n      dup3\n        /* \"#utility.yul\":7530:7623   */\n      tag_302\n      jump\t// in\n    tag_301:\n        /* \"#utility.yul\":7648:7650   */\n      0x20\n        /* \"#utility.yul\":7643:7646   */\n      dup3\n        /* \"#utility.yul\":7639:7651   */\n      add\n        /* \"#utility.yul\":7632:7651   */\n      swap1\n      pop\n        /* \"#utility.yul\":7291:7657   */\n      swap2\n      swap1\n      pop\n      jump\t// out\n        /* \"#utility.yul\":7663:8029   */\n    tag_303:\n        /* \"#utility.yul\":7805:7808   */\n      0x00\n        /* \"#utility.yul\":7826:7893   */\n      tag_305\n        /* \"#utility.yul\":7890:7892   */\n      0x11\n        /* \"#utility.yul\":7885:7888   */\n      dup4\n        /* \"#utility.yul\":7826:7893   */\n      tag_280\n      jump\t// in\n    tag_305:\n        /* \"#utility.yul\":7819:7893   */\n      swap2\n      pop\n        /* \"#utility.yul\":7902:7995   */\n      tag_306\n        /* \"#utility.yul\":7991:7994   */\n      dup3\n        /* \"#utility.yul\":7902:7995   */\n      tag_307\n      jump\t// in\n    tag_306:\n        /* \"#utility.yul\":8020:8022   */\n      0x20\n        /* \"#utility.yul\":8015:8018   */\n      dup3\n        /* \"#utility.yul\":8011:8023   */\n      add\n        /* \"#utility.yul\":8004:8023   */\n      swap1\n      pop\n        /* \"#utility.yul\":7663:8029   */\n      swap2\n      swap1\n      pop\n      jump\t// out\n        /* \"#utility.yul\":8035:8401   */\n    tag_308:\n        /* \"#utility.yul\":8177:8180   */\n      0x00\n        /* \"#utility.yul\":8198:8265   */\n      tag_310\n        /* \"#utility.yul\":8262:8264   */\n      0x14\n        /* \"#utility.yul\":8257:8260   */\n      dup4\n        /* \"#utility.yul\":8198:8265   */\n      tag_280\n      jump\t// in\n    tag_310:\n        /* \"#utility.yul\":8191:8265   */\n      swap2\n      pop\n        /* \"#utility.yul\":8274:8367   */\n      tag_311\n        /* \"#utility.yul\":8363:8366   */\n      dup3\n        /* \"#utility.yul\":8274:8367   */\n      tag_312\n      jump\t// in\n    tag_311:\n        /* \"#utility.yul\":8392:8394   */\n      0x20\n        /* \"#utility.yul\":8387:8390   */\n      dup3\n        /* \"#utility.yul\":8383:8395   */\n      add\n        /* \"#utility.yul\":8376:8395   */\n      swap1\n      pop\n        /* \"#utility.yul\":8035:8401   */\n      swap2\n      swap1\n      pop\n      jump\t// out\n        /* \"#utility.yul\":8407:8773   */\n    tag_313:\n        /* \"#utility.yul\":8549:8552   */\n      0x00\n        /* \"#utility.yul\":8570:8637   */\n      tag_315\n        /* \"#utility.yul\":8634:8636   */\n      0x0b\n        /* \"#utility.yul\":8629:8632   */\n      dup4\n        /* \"#utility.yul\":8570:8637   */\n      tag_280\n      jump\t// in\n    tag_315:\n        /* \"#utility.yul\":8563:8637   */\n      swap2\n      pop\n        /* \"#utility.yul\":8646:8739   */\n      tag_316\n        /* \"#utility.yul\":8735:8738   */\n      dup3\n        /* \"#utility.yul\":8646:8739   */\n      tag_317\n      jump\t// in\n    tag_316:\n        /* \"#utility.yul\":8764:8766   */\n      0x20\n        /* \"#utility.yul\":8759:8762   */\n      dup3\n        /* \"#utility.yul\":8755:8767   */\n      add\n        /* \"#utility.yul\":8748:8767   */\n      swap1\n      pop\n        /* \"#utility.yul\":8407:8773   */\n      swap2\n      swap1\n      pop\n      jump\t// out\n        /* \"#utility.yul\":8779:9145   */\n    tag_318:\n        /* \"#utility.yul\":8921:8924   */\n      0x00\n        /* \"#utility.yul\":8942:9009   */\n      tag_320\n        /* \"#utility.yul\":9006:9008   */\n      0x0d\n        /* \"#utility.yul\":9001:9004   */\n      dup4\n        /* \"#utility.yul\":8942:9009   */\n      tag_280\n      jump\t// in\n    tag_320:\n        /* \"#utility.yul\":8935:9009   */\n      swap2\n      pop\n        /* \"#utility.yul\":9018:9111   */\n      tag_321\n        /* \"#utility.yul\":9107:9110   */\n      dup3\n        /* \"#utility.yul\":9018:9111   */\n      tag_322\n      jump\t// in\n    tag_321:\n        /* \"#utility.yul\":9136:9138   */\n      0x20\n        /* \"#utility.yul\":9131:9134   */\n      dup3\n        /* \"#utility.yul\":9127:9139   */\n      add\n        /* \"#utility.yul\":9120:9139   */\n      swap1\n      pop\n        /* \"#utility.yul\":8779:9145   */\n      swap2\n      swap1\n      pop\n      jump\t// out\n        /* \"#utility.yul\":9207:9696   */\n    tag_236:\n        /* \"#utility.yul\":9342:9346   */\n      0x40\n        /* \"#utility.yul\":9337:9340   */\n      dup3\n        /* \"#utility.yul\":9333:9347   */\n      add\n        /* \"#utility.yul\":9426:9430   */\n      0x00\n        /* \"#utility.yul\":9419:9424   */\n      dup3\n        /* \"#utility.yul\":9415:9431   */\n      add\n        /* \"#utility.yul\":9409:9432   */\n      mload\n        /* \"#utility.yul\":9445:9508   */\n      tag_324\n        /* \"#utility.yul\":9502:9506   */\n      0x00\n        /* \"#utility.yul\":9497:9500   */\n      dup6\n        /* \"#utility.yul\":9493:9507   */\n      add\n        /* \"#utility.yul\":9479:9491   */\n      dup3\n        /* \"#utility.yul\":9445:9508   */\n      tag_240\n      jump\t// in\n    tag_324:\n        /* \"#utility.yul\":9357:9518   */\n      pop\n        /* \"#utility.yul\":9597:9601   */\n      0x20\n        /* \"#utility.yul\":9590:9595   */\n      dup3\n        /* \"#utility.yul\":9586:9602   */\n      add\n        /* \"#utility.yul\":9580:9603   */\n      mload\n        /* \"#utility.yul\":9616:9679   */\n      tag_325\n        /* \"#utility.yul\":9673:9677   */\n      0x20\n        /* \"#utility.yul\":9668:9671   */\n      dup6\n        /* \"#utility.yul\":9664:9678   */\n      add\n        /* \"#utility.yul\":9650:9662   */\n      dup3\n        /* \"#utility.yul\":9616:9679   */\n      tag_240\n      jump\t// in\n    tag_325:\n        /* \"#utility.yul\":9528:9689   */\n      pop\n        /* \"#utility.yul\":9311:9696   */\n      pop\n        /* \"#utility.yul\":9207:9696   */\n      pop\n      pop\n      jump\t// out\n        /* \"#utility.yul\":9758:10257   */\n    tag_326:\n        /* \"#utility.yul\":9903:9907   */\n      0x40\n        /* \"#utility.yul\":9898:9901   */\n      dup3\n        /* \"#utility.yul\":9894:9908   */\n      add\n        /* \"#utility.yul\":9987:9991   */\n      0x00\n        /* \"#utility.yul\":9980:9985   */\n      dup3\n        /* \"#utility.yul\":9976:9992   */\n      add\n        /* \"#utility.yul\":9970:9993   */\n      mload\n        /* \"#utility.yul\":10006:10069   */\n      tag_328\n        /* \"#utility.yul\":10063:10067   */\n      0x00\n        /* \"#utility.yul\":10058:10061   */\n      dup6\n        /* \"#utility.yul\":10054:10068   */\n      add\n        /* \"#utility.yul\":10040:10052   */\n      dup3\n        /* \"#utility.yul\":10006:10069   */\n      tag_240\n      jump\t// in\n    tag_328:\n        /* \"#utility.yul\":9918:10079   */\n      pop\n        /* \"#utility.yul\":10158:10162   */\n      0x20\n        /* \"#utility.yul\":10151:10156   */\n      dup3\n        /* \"#utility.yul\":10147:10163   */\n      add\n        /* \"#utility.yul\":10141:10164   */\n      mload\n        /* \"#utility.yul\":10177:10240   */\n      tag_329\n        /* \"#utility.yul\":10234:10238   */\n      0x20\n        /* \"#utility.yul\":10229:10232   */\n      dup6\n        /* \"#utility.yul\":10225:10239   */\n      add\n        /* \"#utility.yul\":10211:10223   */\n      dup3\n        /* \"#utility.yul\":10177:10240   */\n      tag_240\n      jump\t// in\n    tag_329:\n        /* \"#utility.yul\":10089:10250   */\n      pop\n        /* \"#utility.yul\":9872:10257   */\n      pop\n        /* \"#utility.yul\":9758:10257   */\n      pop\n      pop\n      jump\t// out\n        /* \"#utility.yul\":10263:10371   */\n    tag_240:\n        /* \"#utility.yul\":10340:10364   */\n      tag_331\n        /* \"#utility.yul\":10358:10363   */\n      dup2\n        /* \"#utility.yul\":10340:10364   */\n      tag_332\n      jump\t// in\n    tag_331:\n        /* \"#utility.yul\":10335:10338   */\n      dup3\n        /* \"#utility.yul\":10328:10365   */\n      mstore\n        /* \"#utility.yul\":10263:10371   */\n      pop\n      pop\n      jump\t// out\n        /* \"#utility.yul\":10377:10495   */\n    tag_333:\n        /* \"#utility.yul\":10464:10488   */\n      tag_335\n        /* \"#utility.yul\":10482:10487   */\n      dup2\n        /* \"#utility.yul\":10464:10488   */\n      tag_332\n      jump\t// in\n    tag_335:\n        /* \"#utility.yul\":10459:10462   */\n      dup3\n        /* \"#utility.yul\":10452:10489   */\n      mstore\n        /* \"#utility.yul\":10377:10495   */\n      pop\n      pop\n      jump\t// out\n        /* \"#utility.yul\":10501:10723   */\n    tag_31:\n        /* \"#utility.yul\":10594:10598   */\n      0x00\n        /* \"#utility.yul\":10632:10634   */\n      0x20\n        /* \"#utility.yul\":10621:10630   */\n      dup3\n        /* \"#utility.yul\":10617:10635   */\n      add\n        /* \"#utility.yul\":10609:10635   */\n      swap1\n      pop\n        /* \"#utility.yul\":10645:10716   */\n      tag_337\n        /* \"#utility.yul\":10713:10714   */\n      0x00\n        /* \"#utility.yul\":10702:10711   */\n      dup4\n        /* \"#utility.yul\":10698:10715   */\n      add\n        /* \"#utility.yul\":10689:10695   */\n      dup5\n        /* \"#utility.yul\":10645:10716   */\n      tag_241\n      jump\t// in\n    tag_337:\n        /* \"#utility.yul\":10501:10723   */\n      swap3\n      swap2\n      pop\n      pop\n      jump\t// out\n        /* \"#utility.yul\":10729:11198   */\n    tag_21:\n        /* \"#utility.yul\":10920:10924   */\n      0x00\n        /* \"#utility.yul\":10958:10960   */\n      0x20\n        /* \"#utility.yul\":10947:10956   */\n      dup3\n        /* \"#utility.yul\":10943:10961   */\n      add\n        /* \"#utility.yul\":10935:10961   */\n      swap1\n      pop\n        /* \"#utility.yul\":11007:11016   */\n      dup2\n        /* \"#utility.yul\":11001:11005   */\n      dup2\n        /* \"#utility.yul\":10997:11017   */\n      sub\n        /* \"#utility.yul\":10993:10994   */\n      0x00\n        /* \"#utility.yul\":10982:10991   */\n      dup4\n        /* \"#utility.yul\":10978:10995   */\n      add\n        /* \"#utility.yul\":10971:11018   */\n      mstore\n        /* \"#utility.yul\":11035:11191   */\n      tag_339\n        /* \"#utility.yul\":11186:11190   */\n      dup2\n        /* \"#utility.yul\":11177:11183   */\n      dup5\n        /* \"#utility.yul\":11035:11191   */\n      tag_245\n      jump\t// in\n    tag_339:\n        /* \"#utility.yul\":11027:11191   */\n      swap1\n      pop\n        /* \"#utility.yul\":10729:11198   */\n      swap3\n      swap2\n      pop\n      pop\n      jump\t// out\n        /* \"#utility.yul\":11204:11577   */\n    tag_41:\n        /* \"#utility.yul\":11347:11351   */\n      0x00\n        /* \"#utility.yul\":11385:11387   */\n      0x20\n        /* \"#utility.yul\":11374:11383   */\n      dup3\n        /* \"#utility.yul\":11370:11388   */\n      add\n        /* \"#utility.yul\":11362:11388   */\n      swap1\n      pop\n        /* \"#utility.yul\":11434:11443   */\n      dup2\n        /* \"#utility.yul\":11428:11432   */\n      dup2\n        /* \"#utility.yul\":11424:11444   */\n      sub\n        /* \"#utility.yul\":11420:11421   */\n      0x00\n        /* \"#utility.yul\":11409:11418   */\n      dup4\n        /* \"#utility.yul\":11405:11422   */\n      add\n        /* \"#utility.yul\":11398:11445   */\n      mstore\n        /* \"#utility.yul\":11462:11570   */\n      tag_341\n        /* \"#utility.yul\":11565:11569   */\n      dup2\n        /* \"#utility.yul\":11556:11562   */\n      dup5\n        /* \"#utility.yul\":11462:11570   */\n      tag_259\n      jump\t// in\n    tag_341:\n        /* \"#utility.yul\":11454:11570   */\n      swap1\n      pop\n        /* \"#utility.yul\":11204:11577   */\n      swap3\n      swap2\n      pop\n      pop\n      jump\t// out\n        /* \"#utility.yul\":11583:11793   */\n    tag_37:\n        /* \"#utility.yul\":11670:11674   */\n      0x00\n        /* \"#utility.yul\":11708:11710   */\n      0x20\n        /* \"#utility.yul\":11697:11706   */\n      dup3\n        /* \"#utility.yul\":11693:11711   */\n      add\n        /* \"#utility.yul\":11685:11711   */\n      swap1\n      pop\n        /* \"#utility.yul\":11721:11786   */\n      tag_343\n        /* \"#utility.yul\":11783:11784   */\n      0x00\n        /* \"#utility.yul\":11772:11781   */\n      dup4\n        /* \"#utility.yul\":11768:11785   */\n      add\n        /* \"#utility.yul\":11759:11765   */\n      dup5\n        /* \"#utility.yul\":11721:11786   */\n      tag_273\n      jump\t// in\n    tag_343:\n        /* \"#utility.yul\":11583:11793   */\n      swap3\n      swap2\n      pop\n      pop\n      jump\t// out\n        /* \"#utility.yul\":11799:12218   */\n    tag_114:\n        /* \"#utility.yul\":11965:11969   */\n      0x00\n        /* \"#utility.yul\":12003:12005   */\n      0x20\n        /* \"#utility.yul\":11992:12001   */\n      dup3\n        /* \"#utility.yul\":11988:12006   */\n      add\n        /* \"#utility.yul\":11980:12006   */\n      swap1\n      pop\n        /* \"#utility.yul\":12052:12061   */\n      dup2\n        /* \"#utility.yul\":12046:12050   */\n      dup2\n        /* \"#utility.yul\":12042:12062   */\n      sub\n        /* \"#utility.yul\":12038:12039   */\n      0x00\n        /* \"#utility.yul\":12027:12036   */\n      dup4\n        /* \"#utility.yul\":12023:12040   */\n      add\n        /* \"#utility.yul\":12016:12063   */\n      mstore\n        /* \"#utility.yul\":12080:12211   */\n      tag_345\n        /* \"#utility.yul\":12206:12210   */\n      dup2\n        /* \"#utility.yul\":12080:12211   */\n      tag_277\n      jump\t// in\n    tag_345:\n        /* \"#utility.yul\":12072:12211   */\n      swap1\n      pop\n        /* \"#utility.yul\":11799:12218   */\n      swap2\n      swap1\n      pop\n      jump\t// out\n        /* \"#utility.yul\":12224:12643   */\n    tag_180:\n        /* \"#utility.yul\":12390:12394   */\n      0x00\n        /* \"#utility.yul\":12428:12430   */\n      0x20\n        /* \"#utility.yul\":12417:12426   */\n      dup3\n        /* \"#utility.yul\":12413:12431   */\n      add\n        /* \"#utility.yul\":12405:12431   */\n      swap1\n      pop\n        /* \"#utility.yul\":12477:12486   */\n      dup2\n        /* \"#utility.yul\":12471:12475   */\n      dup2\n        /* \"#utility.yul\":12467:12487   */\n      sub\n        /* \"#utility.yul\":12463:12464   */\n      0x00\n        /* \"#utility.yul\":12452:12461   */\n      dup4\n        /* \"#utility.yul\":12448:12465   */\n      add\n        /* \"#utility.yul\":12441:12488   */\n      mstore\n        /* \"#utility.yul\":12505:12636   */\n      tag_347\n        /* \"#utility.yul\":12631:12635   */\n      dup2\n        /* \"#utility.yul\":12505:12636   */\n      tag_283\n      jump\t// in\n    tag_347:\n        /* \"#utility.yul\":12497:12636   */\n      swap1\n      pop\n        /* \"#utility.yul\":12224:12643   */\n      swap2\n      swap1\n      pop\n      jump\t// out\n        /* \"#utility.yul\":12649:13068   */\n    tag_80:\n        /* \"#utility.yul\":12815:12819   */\n      0x00\n        /* \"#utility.yul\":12853:12855   */\n      0x20\n        /* \"#utility.yul\":12842:12851   */\n      dup3\n        /* \"#utility.yul\":12838:12856   */\n      add\n        /* \"#utility.yul\":12830:12856   */\n      swap1\n      pop\n        /* \"#utility.yul\":12902:12911   */\n      dup2\n        /* \"#utility.yul\":12896:12900   */\n      dup2\n        /* \"#utility.yul\":12892:12912   */\n      sub\n        /* \"#utility.yul\":12888:12889   */\n      0x00\n        /* \"#utility.yul\":12877:12886   */\n      dup4\n        /* \"#utility.yul\":12873:12890   */\n      add\n        /* \"#utility.yul\":12866:12913   */\n      mstore\n        /* \"#utility.yul\":12930:13061   */\n      tag_349\n        /* \"#utility.yul\":13056:13060   */\n      dup2\n        /* \"#utility.yul\":12930:13061   */\n      tag_288\n      jump\t// in\n    tag_349:\n        /* \"#utility.yul\":12922:13061   */\n      swap1\n      pop\n        /* \"#utility.yul\":12649:13068   */\n      swap2\n      swap1\n      pop\n      jump\t// out\n        /* \"#utility.yul\":13074:13493   */\n    tag_155:\n        /* \"#utility.yul\":13240:13244   */\n      0x00\n        /* \"#utility.yul\":13278:13280   */\n      0x20\n        /* \"#utility.yul\":13267:13276   */\n      dup3\n        /* \"#utility.yul\":13263:13281   */\n      add\n        /* \"#utility.yul\":13255:13281   */\n      swap1\n      pop\n        /* \"#utility.yul\":13327:13336   */\n      dup2\n        /* \"#utility.yul\":13321:13325   */\n      dup2\n        /* \"#utility.yul\":13317:13337   */\n      sub\n        /* \"#utility.yul\":13313:13314   */\n      0x00\n        /* \"#utility.yul\":13302:13311   */\n      dup4\n        /* \"#utility.yul\":13298:13315   */\n      add\n        /* \"#utility.yul\":13291:13338   */\n      mstore\n        /* \"#utility.yul\":13355:13486   */\n      tag_351\n        /* \"#utility.yul\":13481:13485   */\n      dup2\n        /* \"#utility.yul\":13355:13486   */\n      tag_293\n      jump\t// in\n    tag_351:\n        /* \"#utility.yul\":13347:13486   */\n      swap1\n      pop\n        /* \"#utility.yul\":13074:13493   */\n      swap2\n      swap1\n      pop\n      jump\t// out\n        /* \"#utility.yul\":13499:13918   */\n    tag_139:\n        /* \"#utility.yul\":13665:13669   */\n      0x00\n        /* \"#utility.yul\":13703:13705   */\n      0x20\n        /* \"#utility.yul\":13692:13701   */\n      dup3\n        /* \"#utility.yul\":13688:13706   */\n      add\n        /* \"#utility.yul\":13680:13706   */\n      swap1\n      pop\n        /* \"#utility.yul\":13752:13761   */\n      dup2\n        /* \"#utility.yul\":13746:13750   */\n      dup2\n        /* \"#utility.yul\":13742:13762   */\n      sub\n        /* \"#utility.yul\":13738:13739   */\n      0x00\n        /* \"#utility.yul\":13727:13736   */\n      dup4\n        /* \"#utility.yul\":13723:13740   */\n      add\n        /* \"#utility.yul\":13716:13763   */\n      mstore\n        /* \"#utility.yul\":13780:13911   */\n      tag_353\n        /* \"#utility.yul\":13906:13910   */\n      dup2\n        /* \"#utility.yul\":13780:13911   */\n      tag_298\n      jump\t// in\n    tag_353:\n        /* \"#utility.yul\":13772:13911   */\n      swap1\n      pop\n        /* \"#utility.yul\":13499:13918   */\n      swap2\n      swap1\n      pop\n      jump\t// out\n        /* \"#utility.yul\":13924:14343   */\n    tag_147:\n        /* \"#utility.yul\":14090:14094   */\n      0x00\n        /* \"#utility.yul\":14128:14130   */\n      0x20\n        /* \"#utility.yul\":14117:14126   */\n      dup3\n        /* \"#utility.yul\":14113:14131   */\n      add\n        /* \"#utility.yul\":14105:14131   */\n      swap1\n      pop\n        /* \"#utility.yul\":14177:14186   */\n      dup2\n        /* \"#utility.yul\":14171:14175   */\n      dup2\n        /* \"#utility.yul\":14167:14187   */\n      sub\n        /* \"#utility.yul\":14163:14164   */\n      0x00\n        /* \"#utility.yul\":14152:14161   */\n      dup4\n        /* \"#utility.yul\":14148:14165   */\n      add\n        /* \"#utility.yul\":14141:14188   */\n      mstore\n        /* \"#utility.yul\":14205:14336   */\n      tag_355\n        /* \"#utility.yul\":14331:14335   */\n      dup2\n        /* \"#utility.yul\":14205:14336   */\n      tag_303\n      jump\t// in\n    tag_355:\n        /* \"#utility.yul\":14197:14336   */\n      swap1\n      pop\n        /* \"#utility.yul\":13924:14343   */\n      swap2\n      swap1\n      pop\n      jump\t// out\n        /* \"#utility.yul\":14349:14768   */\n    tag_144:\n        /* \"#utility.yul\":14515:14519   */\n      0x00\n        /* \"#utility.yul\":14553:14555   */\n      0x20\n        /* \"#utility.yul\":14542:14551   */\n      dup3\n        /* \"#utility.yul\":14538:14556   */\n      add\n        /* \"#utility.yul\":14530:14556   */\n      swap1\n      pop\n        /* \"#utility.yul\":14602:14611   */\n      dup2\n        /* \"#utility.yul\":14596:14600   */\n      dup2\n        /* \"#utility.yul\":14592:14612   */\n      sub\n        /* \"#utility.yul\":14588:14589   */\n      0x00\n        /* \"#utility.yul\":14577:14586   */\n      dup4\n        /* \"#utility.yul\":14573:14590   */\n      add\n        /* \"#utility.yul\":14566:14613   */\n      mstore\n        /* \"#utility.yul\":14630:14761   */\n      tag_357\n        /* \"#utility.yul\":14756:14760   */\n      dup2\n        /* \"#utility.yul\":14630:14761   */\n      tag_308\n      jump\t// in\n    tag_357:\n        /* \"#utility.yul\":14622:14761   */\n      swap1\n      pop\n        /* \"#utility.yul\":14349:14768   */\n      swap2\n      swap1\n      pop\n      jump\t// out\n        /* \"#utility.yul\":14774:15193   */\n    tag_85:\n        /* \"#utility.yul\":14940:14944   */\n      0x00\n        /* \"#utility.yul\":14978:14980   */\n      0x20\n        /* \"#utility.yul\":14967:14976   */\n      dup3\n        /* \"#utility.yul\":14963:14981   */\n      add\n        /* \"#utility.yul\":14955:14981   */\n      swap1\n      pop\n        /* \"#utility.yul\":15027:15036   */\n      dup2\n        /* \"#utility.yul\":15021:15025   */\n      dup2\n        /* \"#utility.yul\":15017:15037   */\n      sub\n        /* \"#utility.yul\":15013:15014   */\n      0x00\n        /* \"#utility.yul\":15002:15011   */\n      dup4\n        /* \"#utility.yul\":14998:15015   */\n      add\n        /* \"#utility.yul\":14991:15038   */\n      mstore\n        /* \"#utility.yul\":15055:15186   */\n      tag_359\n        /* \"#utility.yul\":15181:15185   */\n      dup2\n        /* \"#utility.yul\":15055:15186   */\n      tag_313\n      jump\t// in\n    tag_359:\n        /* \"#utility.yul\":15047:15186   */\n      swap1\n      pop\n        /* \"#utility.yul\":14774:15193   */\n      swap2\n      swap1\n      pop\n      jump\t// out\n        /* \"#utility.yul\":15199:15618   */\n    tag_152:\n        /* \"#utility.yul\":15365:15369   */\n      0x00\n        /* \"#utility.yul\":15403:15405   */\n      0x20\n        /* \"#utility.yul\":15392:15401   */\n      dup3\n        /* \"#utility.yul\":15388:15406   */\n      add\n        /* \"#utility.yul\":15380:15406   */\n      swap1\n      pop\n        /* \"#utility.yul\":15452:15461   */\n      dup2\n        /* \"#utility.yul\":15446:15450   */\n      dup2\n        /* \"#utility.yul\":15442:15462   */\n      sub\n        /* \"#utility.yul\":15438:15439   */\n      0x00\n        /* \"#utility.yul\":15427:15436   */\n      dup4\n        /* \"#utility.yul\":15423:15440   */\n      add\n        /* \"#utility.yul\":15416:15463   */\n      mstore\n        /* \"#utility.yul\":15480:15611   */\n      tag_361\n        /* \"#utility.yul\":15606:15610   */\n      dup2\n        /* \"#utility.yul\":15480:15611   */\n      tag_318\n      jump\t// in\n    tag_361:\n        /* \"#utility.yul\":15472:15611   */\n      swap1\n      pop\n        /* \"#utility.yul\":15199:15618   */\n      swap2\n      swap1\n      pop\n      jump\t// out\n        /* \"#utility.yul\":15624:15942   */\n    tag_17:\n        /* \"#utility.yul\":15765:15769   */\n      0x00\n        /* \"#utility.yul\":15803:15805   */\n      0x40\n        /* \"#utility.yul\":15792:15801   */\n      dup3\n        /* \"#utility.yul\":15788:15806   */\n      add\n        /* \"#utility.yul\":15780:15806   */\n      swap1\n      pop\n        /* \"#utility.yul\":15816:15935   */\n      tag_363\n        /* \"#utility.yul\":15932:15933   */\n      0x00\n        /* \"#utility.yul\":15921:15930   */\n      dup4\n        /* \"#utility.yul\":15917:15934   */\n      add\n        /* \"#utility.yul\":15908:15914   */\n      dup5\n        /* \"#utility.yul\":15816:15935   */\n      tag_326\n      jump\t// in\n    tag_363:\n        /* \"#utility.yul\":15624:15942   */\n      swap3\n      swap2\n      pop\n      pop\n      jump\t// out\n        /* \"#utility.yul\":15948:16170   */\n    tag_25:\n        /* \"#utility.yul\":16041:16045   */\n      0x00\n        /* \"#utility.yul\":16079:16081   */\n      0x20\n        /* \"#utility.yul\":16068:16077   */\n      dup3\n        /* \"#utility.yul\":16064:16082   */\n      add\n        /* \"#utility.yul\":16056:16082   */\n      swap1\n      pop\n        /* \"#utility.yul\":16092:16163   */\n      tag_365\n        /* \"#utility.yul\":16160:16161   */\n      0x00\n        /* \"#utility.yul\":16149:16158   */\n      dup4\n        /* \"#utility.yul\":16145:16162   */\n      add\n        /* \"#utility.yul\":16136:16142   */\n      dup5\n        /* \"#utility.yul\":16092:16163   */\n      tag_333\n      jump\t// in\n    tag_365:\n        /* \"#utility.yul\":15948:16170   */\n      swap3\n      swap2\n      pop\n      pop\n      jump\t// out\n        /* \"#utility.yul\":16176:16305   */\n    tag_188:\n        /* \"#utility.yul\":16210:16216   */\n      0x00\n        /* \"#utility.yul\":16237:16257   */\n      tag_367\n      tag_368\n      jump\t// in\n    tag_367:\n        /* \"#utility.yul\":16227:16257   */\n      swap1\n      pop\n        /* \"#utility.yul\":16266:16299   */\n      tag_369\n        /* \"#utility.yul\":16294:16298   */\n      dup3\n        /* \"#utility.yul\":16286:16292   */\n      dup3\n        /* \"#utility.yul\":16266:16299   */\n      tag_370\n      jump\t// in\n    tag_369:\n        /* \"#utility.yul\":16176:16305   */\n      swap2\n      swap1\n      pop\n      jump\t// out\n        /* \"#utility.yul\":16311:16386   */\n    tag_368:\n        /* \"#utility.yul\":16344:16350   */\n      0x00\n        /* \"#utility.yul\":16377:16379   */\n      0x40\n        /* \"#utility.yul\":16371:16380   */\n      mload\n        /* \"#utility.yul\":16361:16380   */\n      swap1\n      pop\n        /* \"#utility.yul\":16311:16386   */\n      swap1\n      jump\t// out\n        /* \"#utility.yul\":16392:16703   */\n    tag_187:\n        /* \"#utility.yul\":16469:16473   */\n      0x00\n        /* \"#utility.yul\":16559:16577   */\n      0xffffffffffffffff\n        /* \"#utility.yul\":16551:16557   */\n      dup3\n        /* \"#utility.yul\":16548:16578   */\n      gt\n        /* \"#utility.yul\":16545:16601   */\n      iszero\n      tag_373\n      jumpi\n        /* \"#utility.yul\":16581:16599   */\n      tag_374\n      tag_375\n      jump\t// in\n    tag_374:\n        /* \"#utility.yul\":16545:16601   */\n    tag_373:\n        /* \"#utility.yul\":16631:16635   */\n      0x20\n        /* \"#utility.yul\":16623:16629   */\n      dup3\n        /* \"#utility.yul\":16619:16636   */\n      mul\n        /* \"#utility.yul\":16611:16636   */\n      swap1\n      pop\n        /* \"#utility.yul\":16691:16695   */\n      0x20\n        /* \"#utility.yul\":16685:16689   */\n      dup2\n        /* \"#utility.yul\":16681:16696   */\n      add\n        /* \"#utility.yul\":16673:16696   */\n      swap1\n      pop\n        /* \"#utility.yul\":16392:16703   */\n      swap2\n      swap1\n      pop\n      jump\t// out\n        /* \"#utility.yul\":16709:16865   */\n    tag_252:\n        /* \"#utility.yul\":16800:16804   */\n      0x00\n        /* \"#utility.yul\":16823:16826   */\n      dup2\n        /* \"#utility.yul\":16815:16826   */\n      swap1\n      pop\n        /* \"#utility.yul\":16853:16857   */\n      0x20\n        /* \"#utility.yul\":16848:16851   */\n      dup3\n        /* \"#utility.yul\":16844:16858   */\n      add\n        /* \"#utility.yul\":16836:16858   */\n      swap1\n      pop\n        /* \"#utility.yul\":16709:16865   */\n      swap2\n      swap1\n      pop\n      jump\t// out\n        /* \"#utility.yul\":16871:17003   */\n    tag_266:\n        /* \"#utility.yul\":16938:16942   */\n      0x00\n        /* \"#utility.yul\":16961:16964   */\n      dup2\n        /* \"#utility.yul\":16953:16964   */\n      swap1\n      pop\n        /* \"#utility.yul\":16991:16995   */\n      0x20\n        /* \"#utility.yul\":16986:16989   */\n      dup3\n        /* \"#utility.yul\":16982:16996   */\n      add\n        /* \"#utility.yul\":16974:16996   */\n      swap1\n      pop\n        /* \"#utility.yul\":16871:17003   */\n      swap2\n      swap1\n      pop\n      jump\t// out\n        /* \"#utility.yul\":17009:17147   */\n    tag_248:\n        /* \"#utility.yul\":17100:17106   */\n      0x00\n        /* \"#utility.yul\":17134:17139   */\n      dup2\n        /* \"#utility.yul\":17128:17140   */\n      mload\n        /* \"#utility.yul\":17118:17140   */\n      swap1\n      pop\n        /* \"#utility.yul\":17009:17147   */\n      swap2\n      swap1\n      pop\n      jump\t// out\n        /* \"#utility.yul\":17153:17267   */\n    tag_262:\n        /* \"#utility.yul\":17220:17226   */\n      0x00\n        /* \"#utility.yul\":17254:17259   */\n      dup2\n        /* \"#utility.yul\":17248:17260   */\n      mload\n        /* \"#utility.yul\":17238:17260   */\n      swap1\n      pop\n        /* \"#utility.yul\":17153:17267   */\n      swap2\n      swap1\n      pop\n      jump\t// out\n        /* \"#utility.yul\":17273:17410   */\n    tag_258:\n        /* \"#utility.yul\":17367:17371   */\n      0x00\n        /* \"#utility.yul\":17399:17403   */\n      0x20\n        /* \"#utility.yul\":17394:17397   */\n      dup3\n        /* \"#utility.yul\":17390:17404   */\n      add\n        /* \"#utility.yul\":17382:17404   */\n      swap1\n      pop\n        /* \"#utility.yul\":17273:17410   */\n      swap2\n      swap1\n      pop\n      jump\t// out\n        /* \"#utility.yul\":17416:17529   */\n    tag_272:\n        /* \"#utility.yul\":17486:17490   */\n      0x00\n        /* \"#utility.yul\":17518:17522   */\n      0x20\n        /* \"#utility.yul\":17513:17516   */\n      dup3\n        /* \"#utility.yul\":17509:17523   */\n      add\n        /* \"#utility.yul\":17501:17523   */\n      swap1\n      pop\n        /* \"#utility.yul\":17416:17529   */\n      swap2\n      swap1\n      pop\n      jump\t// out\n        /* \"#utility.yul\":17535:17743   */\n    tag_250:\n        /* \"#utility.yul\":17658:17669   */\n      0x00\n        /* \"#utility.yul\":17692:17698   */\n      dup3\n        /* \"#utility.yul\":17687:17690   */\n      dup3\n        /* \"#utility.yul\":17680:17699   */\n      mstore\n        /* \"#utility.yul\":17732:17736   */\n      0x20\n        /* \"#utility.yul\":17727:17730   */\n      dup3\n        /* \"#utility.yul\":17723:17737   */\n      add\n        /* \"#utility.yul\":17708:17737   */\n      swap1\n      pop\n        /* \"#utility.yul\":17535:17743   */\n      swap3\n      swap2\n      pop\n      pop\n      jump\t// out\n        /* \"#utility.yul\":17749:17933   */\n    tag_264:\n        /* \"#utility.yul\":17848:17859   */\n      0x00\n        /* \"#utility.yul\":17882:17888   */\n      dup3\n        /* \"#utility.yul\":17877:17880   */\n      dup3\n        /* \"#utility.yul\":17870:17889   */\n      mstore\n        /* \"#utility.yul\":17922:17926   */\n      0x20\n        /* \"#utility.yul\":17917:17920   */\n      dup3\n        /* \"#utility.yul\":17913:17927   */\n      add\n        /* \"#utility.yul\":17898:17927   */\n      swap1\n      pop\n        /* \"#utility.yul\":17749:17933   */\n      swap3\n      swap2\n      pop\n      pop\n      jump\t// out\n        /* \"#utility.yul\":17939:18108   */\n    tag_280:\n        /* \"#utility.yul\":18023:18034   */\n      0x00\n        /* \"#utility.yul\":18057:18063   */\n      dup3\n        /* \"#utility.yul\":18052:18055   */\n      dup3\n        /* \"#utility.yul\":18045:18064   */\n      mstore\n        /* \"#utility.yul\":18097:18101   */\n      0x20\n        /* \"#utility.yul\":18092:18095   */\n      dup3\n        /* \"#utility.yul\":18088:18102   */\n      add\n        /* \"#utility.yul\":18073:18102   */\n      swap1\n      pop\n        /* \"#utility.yul\":17939:18108   */\n      swap3\n      swap2\n      pop\n      pop\n      jump\t// out\n        /* \"#utility.yul\":18114:18305   */\n    tag_165:\n        /* \"#utility.yul\":18154:18158   */\n      0x00\n        /* \"#utility.yul\":18174:18194   */\n      tag_386\n        /* \"#utility.yul\":18192:18193   */\n      dup3\n        /* \"#utility.yul\":18174:18194   */\n      tag_332\n      jump\t// in\n    tag_386:\n        /* \"#utility.yul\":18169:18194   */\n      swap2\n      pop\n        /* \"#utility.yul\":18208:18228   */\n      tag_387\n        /* \"#utility.yul\":18226:18227   */\n      dup4\n        /* \"#utility.yul\":18208:18228   */\n      tag_332\n      jump\t// in\n    tag_387:\n        /* \"#utility.yul\":18203:18228   */\n      swap3\n      pop\n        /* \"#utility.yul\":18247:18248   */\n      dup3\n        /* \"#utility.yul\":18244:18245   */\n      dup3\n        /* \"#utility.yul\":18241:18249   */\n      lt\n        /* \"#utility.yul\":18238:18272   */\n      iszero\n      tag_388\n      jumpi\n        /* \"#utility.yul\":18252:18270   */\n      tag_389\n      tag_390\n      jump\t// in\n    tag_389:\n        /* \"#utility.yul\":18238:18272   */\n    tag_388:\n        /* \"#utility.yul\":18297:18298   */\n      dup3\n        /* \"#utility.yul\":18294:18295   */\n      dup3\n        /* \"#utility.yul\":18290:18299   */\n      sub\n        /* \"#utility.yul\":18282:18299   */\n      swap1\n      pop\n        /* \"#utility.yul\":18114:18305   */\n      swap3\n      swap2\n      pop\n      pop\n      jump\t// out\n        /* \"#utility.yul\":18311:18407   */\n    tag_244:\n        /* \"#utility.yul\":18348:18355   */\n      0x00\n        /* \"#utility.yul\":18377:18401   */\n      tag_392\n        /* \"#utility.yul\":18395:18400   */\n      dup3\n        /* \"#utility.yul\":18377:18401   */\n      tag_393\n      jump\t// in\n    tag_392:\n        /* \"#utility.yul\":18366:18401   */\n      swap1\n      pop\n        /* \"#utility.yul\":18311:18407   */\n      swap2\n      swap1\n      pop\n      jump\t// out\n        /* \"#utility.yul\":18413:18503   */\n    tag_276:\n        /* \"#utility.yul\":18447:18454   */\n      0x00\n        /* \"#utility.yul\":18490:18495   */\n      dup2\n        /* \"#utility.yul\":18483:18496   */\n      iszero\n        /* \"#utility.yul\":18476:18497   */\n      iszero\n        /* \"#utility.yul\":18465:18497   */\n      swap1\n      pop\n        /* \"#utility.yul\":18413:18503   */\n      swap2\n      swap1\n      pop\n      jump\t// out\n        /* \"#utility.yul\":18509:18635   */\n    tag_393:\n        /* \"#utility.yul\":18546:18553   */\n      0x00\n        /* \"#utility.yul\":18586:18628   */\n      0xffffffffffffffffffffffffffffffffffffffff\n        /* \"#utility.yul\":18579:18584   */\n      dup3\n        /* \"#utility.yul\":18575:18629   */\n      and\n        /* \"#utility.yul\":18564:18629   */\n      swap1\n      pop\n        /* \"#utility.yul\":18509:18635   */\n      swap2\n      swap1\n      pop\n      jump\t// out\n        /* \"#utility.yul\":18641:18718   */\n    tag_332:\n        /* \"#utility.yul\":18678:18685   */\n      0x00\n        /* \"#utility.yul\":18707:18712   */\n      dup2\n        /* \"#utility.yul\":18696:18712   */\n      swap1\n      pop\n        /* \"#utility.yul\":18641:18718   */\n      swap2\n      swap1\n      pop\n      jump\t// out\n        /* \"#utility.yul\":18724:19005   */\n    tag_370:\n        /* \"#utility.yul\":18807:18834   */\n      tag_398\n        /* \"#utility.yul\":18829:18833   */\n      dup3\n        /* \"#utility.yul\":18807:18834   */\n      tag_399\n      jump\t// in\n    tag_398:\n        /* \"#utility.yul\":18799:18805   */\n      dup2\n        /* \"#utility.yul\":18795:18835   */\n      add\n        /* \"#utility.yul\":18937:18943   */\n      dup2\n        /* \"#utility.yul\":18925:18935   */\n      dup2\n        /* \"#utility.yul\":18922:18944   */\n      lt\n        /* \"#utility.yul\":18901:18919   */\n      0xffffffffffffffff\n        /* \"#utility.yul\":18889:18899   */\n      dup3\n        /* \"#utility.yul\":18886:18920   */\n      gt\n        /* \"#utility.yul\":18883:18945   */\n      or\n        /* \"#utility.yul\":18880:18968   */\n      iszero\n      tag_400\n      jumpi\n        /* \"#utility.yul\":18948:18966   */\n      tag_401\n      tag_375\n      jump\t// in\n    tag_401:\n        /* \"#utility.yul\":18880:18968   */\n    tag_400:\n        /* \"#utility.yul\":18988:18998   */\n      dup1\n        /* \"#utility.yul\":18984:18986   */\n      0x40\n        /* \"#utility.yul\":18977:18999   */\n      mstore\n        /* \"#utility.yul\":18767:19005   */\n      pop\n        /* \"#utility.yul\":18724:19005   */\n      pop\n      pop\n      jump\t// out\n        /* \"#utility.yul\":19011:19244   */\n    tag_132:\n        /* \"#utility.yul\":19050:19053   */\n      0x00\n        /* \"#utility.yul\":19073:19097   */\n      tag_403\n        /* \"#utility.yul\":19091:19096   */\n      dup3\n        /* \"#utility.yul\":19073:19097   */\n      tag_332\n      jump\t// in\n    tag_403:\n        /* \"#utility.yul\":19064:19097   */\n      swap2\n      pop\n        /* \"#utility.yul\":19119:19185   */\n      0xffffffffffffffffffffffffffffffffffffffffffffffffffffffffffffffff\n        /* \"#utility.yul\":19112:19117   */\n      dup3\n        /* \"#utility.yul\":19109:19186   */\n      eq\n        /* \"#utility.yul\":19106:19209   */\n      iszero\n      tag_404\n      jumpi\n        /* \"#utility.yul\":19189:19207   */\n      tag_405\n      tag_390\n      jump\t// in\n    tag_405:\n        /* \"#utility.yul\":19106:19209   */\n    tag_404:\n        /* \"#utility.yul\":19236:19237   */\n      0x01\n        /* \"#utility.yul\":19229:19234   */\n      dup3\n        /* \"#utility.yul\":19225:19238   */\n      add\n        /* \"#utility.yul\":19218:19238   */\n      swap1\n      pop\n        /* \"#utility.yul\":19011:19244   */\n      swap2\n      swap1\n      pop\n      jump\t// out\n        /* \"#utility.yul\":19250:19426   */\n    tag_163:\n        /* \"#utility.yul\":19282:19283   */\n      0x00\n        /* \"#utility.yul\":19299:19319   */\n      tag_407\n        /* \"#utility.yul\":19317:19318   */\n      dup3\n        /* \"#utility.yul\":19299:19319   */\n      tag_332\n      jump\t// in\n    tag_407:\n        /* \"#utility.yul\":19294:19319   */\n      swap2\n      pop\n        /* \"#utility.yul\":19333:19353   */\n      tag_408\n        /* \"#utility.yul\":19351:19352   */\n      dup4\n        /* \"#utility.yul\":19333:19353   */\n      tag_332\n      jump\t// in\n    tag_408:\n        /* \"#utility.yul\":19328:19353   */\n      swap3\n      pop\n        /* \"#utility.yul\":19372:19373   */\n      dup3\n        /* \"#utility.yul\":19362:19397   */\n      tag_409\n      jumpi\n        /* \"#utility.yul\":19377:19395   */\n      tag_410\n      tag_411\n      jump\t// in\n    tag_410:\n        /* \"#utility.yul\":19362:19397   */\n    tag_409:\n        /* \"#utility.yul\":19418:19419   */\n      dup3\n        /* \"#utility.yul\":19415:19416   */\n      dup3\n        /* \"#utility.yul\":19411:19420   */\n      mod\n        /* \"#utility.yul\":19406:19420   */\n      swap1\n      pop\n        /* \"#utility.yul\":19250:19426   */\n      swap3\n      swap2\n      pop\n      pop\n      jump\t// out\n        /* \"#utility.yul\":19432:19612   */\n    tag_390:\n        /* \"#utility.yul\":19480:19557   */\n      0x4e487b7100000000000000000000000000000000000000000000000000000000\n        /* \"#utility.yul\":19477:19478   */\n      0x00\n        /* \"#utility.yul\":19470:19558   */\n      mstore\n        /* \"#utility.yul\":19577:19581   */\n      0x11\n        /* \"#utility.yul\":19574:19575   */\n      0x04\n        /* \"#utility.yul\":19567:19582   */\n      mstore\n        /* \"#utility.yul\":19601:19605   */\n      0x24\n        /* \"#utility.yul\":19598:19599   */\n      0x00\n        /* \"#utility.yul\":19591:19606   */\n      revert\n        /* \"#utility.yul\":19618:19798   */\n    tag_411:\n        /* \"#utility.yul\":19666:19743   */\n      0x4e487b7100000000000000000000000000000000000000000000000000000000\n        /* \"#utility.yul\":19663:19664   */\n      0x00\n        /* \"#utility.yul\":19656:19744   */\n      mstore\n        /* \"#utility.yul\":19763:19767   */\n      0x12\n        /* \"#utility.yul\":19760:19761   */\n      0x04\n        /* \"#utility.yul\":19753:19768   */\n      mstore\n        /* \"#utility.yul\":19787:19791   */\n      0x24\n        /* \"#utility.yul\":19784:19785   */\n      0x00\n        /* \"#utility.yul\":19777:19792   */\n      revert\n        /* \"#utility.yul\":19804:19984   */\n    tag_91:\n        /* \"#utility.yul\":19852:19929   */\n      0x4e487b7100000000000000000000000000000000000000000000000000000000\n        /* \"#utility.yul\":19849:19850   */\n      0x00\n        /* \"#utility.yul\":19842:19930   */\n      mstore\n        /* \"#utility.yul\":19949:19953   */\n      0x32\n        /* \"#utility.yul\":19946:19947   */\n      0x04\n        /* \"#utility.yul\":19939:19954   */\n      mstore\n        /* \"#utility.yul\":19973:19977   */\n      0x24\n        /* \"#utility.yul\":19970:19971   */\n      0x00\n        /* \"#utility.yul\":19963:19978   */\n      revert\n        /* \"#utility.yul\":19990:20170   */\n    tag_375:\n        /* \"#utility.yul\":20038:20115   */\n      0x4e487b7100000000000000000000000000000000000000000000000000000000\n        /* \"#utility.yul\":20035:20036   */\n      0x00\n        /* \"#utility.yul\":20028:20116   */\n      mstore\n        /* \"#utility.yul\":20135:20139   */\n      0x41\n        /* \"#utility.yul\":20132:20133   */\n      0x04\n        /* \"#utility.yul\":20125:20140   */\n      mstore\n        /* \"#utility.yul\":20159:20163   */\n      0x24\n        /* \"#utility.yul\":20156:20157   */\n      0x00\n        /* \"#utility.yul\":20149:20164   */\n      revert\n        /* \"#utility.yul\":20176:20293   */\n    tag_205:\n        /* \"#utility.yul\":20285:20286   */\n      0x00\n        /* \"#utility.yul\":20282:20283   */\n      dup1\n        /* \"#utility.yul\":20275:20287   */\n      revert\n        /* \"#utility.yul\":20299:20416   */\n    tag_191:\n        /* \"#utility.yul\":20408:20409   */\n      0x00\n        /* \"#utility.yul\":20405:20406   */\n      dup1\n        /* \"#utility.yul\":20398:20410   */\n      revert\n        /* \"#utility.yul\":20422:20539   */\n    tag_220:\n        /* \"#utility.yul\":20531:20532   */\n      0x00\n        /* \"#utility.yul\":20528:20529   */\n      dup1\n        /* \"#utility.yul\":20521:20533   */\n      revert\n        /* \"#utility.yul\":20545:20662   */\n    tag_213:\n        /* \"#utility.yul\":20654:20655   */\n      0x00\n        /* \"#utility.yul\":20651:20652   */\n      dup1\n        /* \"#utility.yul\":20644:20656   */\n      revert\n        /* \"#utility.yul\":20668:20770   */\n    tag_399:\n        /* \"#utility.yul\":20709:20715   */\n      0x00\n        /* \"#utility.yul\":20760:20762   */\n      0x1f\n        /* \"#utility.yul\":20756:20763   */\n      not\n        /* \"#utility.yul\":20751:20753   */\n      0x1f\n        /* \"#utility.yul\":20744:20749   */\n      dup4\n        /* \"#utility.yul\":20740:20754   */\n      add\n        /* \"#utility.yul\":20736:20764   */\n      and\n        /* \"#utility.yul\":20726:20764   */\n      swap1\n      pop\n        /* \"#utility.yul\":20668:20770   */\n      swap2\n      swap1\n      pop\n      jump\t// out\n        /* \"#utility.yul\":20776:21001   */\n    tag_282:\n        /* \"#utility.yul\":20916:20950   */\n      0x4f776e61626c653a206e6577206f776e657220697320746865207a65726f2061\n        /* \"#utility.yul\":20912:20913   */\n      0x00\n        /* \"#utility.yul\":20904:20910   */\n      dup3\n        /* \"#utility.yul\":20900:20914   */\n      add\n        /* \"#utility.yul\":20893:20951   */\n      mstore\n        /* \"#utility.yul\":20985:20993   */\n      0x6464726573730000000000000000000000000000000000000000000000000000\n        /* \"#utility.yul\":20980:20982   */\n      0x20\n        /* \"#utility.yul\":20972:20978   */\n      dup3\n        /* \"#utility.yul\":20968:20983   */\n      add\n        /* \"#utility.yul\":20961:20994   */\n      mstore\n        /* \"#utility.yul\":20776:21001   */\n      pop\n      jump\t// out\n        /* \"#utility.yul\":21007:21302   */\n    tag_287:\n        /* \"#utility.yul\":21147:21181   */\n      0x43616c6c20746f2074686520626e32353641646420707265636f6d70696c6564\n        /* \"#utility.yul\":21143:21144   */\n      0x00\n        /* \"#utility.yul\":21135:21141   */\n      dup3\n        /* \"#utility.yul\":21131:21145   */\n      add\n        /* \"#utility.yul\":21124:21182   */\n      mstore\n        /* \"#utility.yul\":21216:21250   */\n      0x206661696c6564202870726f6261626c7920616e206f7574206f662067617320\n        /* \"#utility.yul\":21211:21213   */\n      0x20\n        /* \"#utility.yul\":21203:21209   */\n      dup3\n        /* \"#utility.yul\":21199:21214   */\n      add\n        /* \"#utility.yul\":21192:21251   */\n      mstore\n        /* \"#utility.yul\":21285:21294   */\n      0x6572726f723f2900000000000000000000000000000000000000000000000000\n        /* \"#utility.yul\":21280:21282   */\n      0x40\n        /* \"#utility.yul\":21272:21278   */\n      dup3\n        /* \"#utility.yul\":21268:21283   */\n      add\n        /* \"#utility.yul\":21261:21295   */\n      mstore\n        /* \"#utility.yul\":21007:21302   */\n      pop\n      jump\t// out\n        /* \"#utility.yul\":21308:21471   */\n    tag_292:\n        /* \"#utility.yul\":21448:21463   */\n      0x496e76616c696420696e64657800000000000000000000000000000000000000\n        /* \"#utility.yul\":21444:21445   */\n      0x00\n        /* \"#utility.yul\":21436:21442   */\n      dup3\n        /* \"#utility.yul\":21432:21446   */\n      add\n        /* \"#utility.yul\":21425:21464   */\n      mstore\n        /* \"#utility.yul\":21308:21471   */\n      pop\n      jump\t// out\n        /* \"#utility.yul\":21477:21644   */\n    tag_297:\n        /* \"#utility.yul\":21617:21636   */\n      0x626e32353650616972696e67206661696c000000000000000000000000000000\n        /* \"#utility.yul\":21613:21614   */\n      0x00\n        /* \"#utility.yul\":21605:21611   */\n      dup3\n        /* \"#utility.yul\":21601:21615   */\n      add\n        /* \"#utility.yul\":21594:21637   */\n      mstore\n        /* \"#utility.yul\":21477:21644   */\n      pop\n      jump\t// out\n        /* \"#utility.yul\":21650:21832   */\n    tag_302:\n        /* \"#utility.yul\":21790:21824   */\n      0x4f776e61626c653a2063616c6c6572206973206e6f7420746865206f776e6572\n        /* \"#utility.yul\":21786:21787   */\n      0x00\n        /* \"#utility.yul\":21778:21784   */\n      dup3\n        /* \"#utility.yul\":21774:21788   */\n      add\n        /* \"#utility.yul\":21767:21825   */\n      mstore\n        /* \"#utility.yul\":21650:21832   */\n      pop\n      jump\t// out\n        /* \"#utility.yul\":21838:22005   */\n    tag_307:\n        /* \"#utility.yul\":21978:21997   */\n      0x496e76616c696420766b206c656e677468000000000000000000000000000000\n        /* \"#utility.yul\":21974:21975   */\n      0x00\n        /* \"#utility.yul\":21966:21972   */\n      dup3\n        /* \"#utility.yul\":21962:21976   */\n      add\n        /* \"#utility.yul\":21955:21998   */\n      mstore\n        /* \"#utility.yul\":21838:22005   */\n      pop\n      jump\t// out\n        /* \"#utility.yul\":22011:22181   */\n    tag_312:\n        /* \"#utility.yul\":22151:22173   */\n      0x496e76616c69642070726f6f66206c656e677468000000000000000000000000\n        /* \"#utility.yul\":22147:22148   */\n      0x00\n        /* \"#utility.yul\":22139:22145   */\n      dup3\n        /* \"#utility.yul\":22135:22149   */\n      add\n        /* \"#utility.yul\":22128:22174   */\n      mstore\n        /* \"#utility.yul\":22011:22181   */\n      pop\n      jump\t// out\n        /* \"#utility.yul\":22187:22348   */\n    tag_317:\n        /* \"#utility.yul\":22327:22340   */\n      0x766572696679206661696c000000000000000000000000000000000000000000\n        /* \"#utility.yul\":22323:22324   */\n      0x00\n        /* \"#utility.yul\":22315:22321   */\n      dup3\n        /* \"#utility.yul\":22311:22325   */\n      add\n        /* \"#utility.yul\":22304:22341   */\n      mstore\n        /* \"#utility.yul\":22187:22348   */\n      pop\n      jump\t// out\n        /* \"#utility.yul\":22354:22517   */\n    tag_322:\n        /* \"#utility.yul\":22494:22509   */\n      0x626e323536416464206661696c00000000000000000000000000000000000000\n        /* \"#utility.yul\":22490:22491   */\n      0x00\n        /* \"#utility.yul\":22482:22488   */\n      dup3\n        /* \"#utility.yul\":22478:22492   */\n      add\n        /* \"#utility.yul\":22471:22510   */\n      mstore\n        /* \"#utility.yul\":22354:22517   */\n      pop\n      jump\t// out\n        /* \"#utility.yul\":22523:22645   */\n    tag_200:\n        /* \"#utility.yul\":22596:22620   */\n      tag_431\n        /* \"#utility.yul\":22614:22619   */\n      dup2\n        /* \"#utility.yul\":22596:22620   */\n      tag_244\n      jump\t// in\n    tag_431:\n        /* \"#utility.yul\":22589:22594   */\n      dup2\n        /* \"#utility.yul\":22586:22621   */\n      eq\n        /* \"#utility.yul\":22576:22639   */\n      tag_432\n      jumpi\n        /* \"#utility.yul\":22635:22636   */\n      0x00\n        /* \"#utility.yul\":22632:22633   */\n      dup1\n        /* \"#utility.yul\":22625:22637   */\n      revert\n        /* \"#utility.yul\":22576:22639   */\n    tag_432:\n        /* \"#utility.yul\":22523:22645   */\n      pop\n      jump\t// out\n        /* \"#utility.yul\":22651:22773   */\n    tag_209:\n        /* \"#utility.yul\":22724:22748   */\n      tag_434\n        /* \"#utility.yul\":22742:22747   */\n      dup2\n        /* \"#utility.yul\":22724:22748   */\n      tag_332\n      jump\t// in\n    tag_434:\n        /* \"#utility.yul\":22717:22722   */\n      dup2\n        /* \"#utility.yul\":22714:22749   */\n      eq\n        /* \"#utility.yul\":22704:22767   */\n      tag_435\n      jumpi\n        /* \"#utility.yul\":22763:22764   */\n      0x00\n        /* \"#utility.yul\":22760:22761   */\n      dup1\n        /* \"#utility.yul\":22753:22765   */\n      revert\n        /* \"#utility.yul\":22704:22767   */\n    tag_435:\n        /* \"#utility.yul\":22651:22773   */\n      pop\n      jump\t// out\n\n    auxdata: 0xa2646970667358221220b3d9f5c0608f9b7fe6cfdf6fcdc0fb26db14b62cd74374dffd2e226452f9043664736f6c63430008070033\n}\n",
				"bytecode": {
					"linkReferences": {},
					"object": "6080604052604051806040016040528060008152602001600081525060036000820151816000015560208201518160010155505060006005553480156200004557600080fd5b5060405162001d2638038062001d2683398181016040528101906200006b9190620002ad565b6200008b6200007f620000ab60201b60201c565b620000b360201b60201c565b8060019080519060200190620000a392919062000177565b505062000404565b600033905090565b60008060009054906101000a900473ffffffffffffffffffffffffffffffffffffffff169050816000806101000a81548173ffffffffffffffffffffffffffffffffffffffff021916908373ffffffffffffffffffffffffffffffffffffffff1602179055508173ffffffffffffffffffffffffffffffffffffffff168173ffffffffffffffffffffffffffffffffffffffff167f8be0079c531659141344cd1fd0a4f28419497f9722a3daafe3b4186f6b6457e060405160405180910390a35050565b828054828255906000526020600020908101928215620001b6579160200282015b82811115620001b557825182559160200191906001019062000198565b5b509050620001c59190620001c9565b5090565b5b80821115620001e4576000816000905550600101620001ca565b5090565b6000620001ff620001f98462000327565b620002fe565b90508083825260208201905082856020860282011115620002255762000224620003ca565b5b60005b858110156200025957816200023e888262000296565b84526020840193506020830192505060018101905062000228565b5050509392505050565b600082601f8301126200027b576200027a620003c5565b5b81516200028d848260208601620001e8565b91505092915050565b600081519050620002a781620003ea565b92915050565b600060208284031215620002c657620002c5620003d4565b5b600082015167ffffffffffffffff811115620002e757620002e6620003cf565b5b620002f58482850162000263565b91505092915050565b60006200030a6200031d565b905062000318828262000360565b919050565b6000604051905090565b600067ffffffffffffffff82111562000345576200034462000396565b5b602082029050602081019050919050565b6000819050919050565b6200036b82620003d9565b810181811067ffffffffffffffff821117156200038d576200038c62000396565b5b80604052505050565b7f4e487b7100000000000000000000000000000000000000000000000000000000600052604160045260246000fd5b600080fd5b600080fd5b600080fd5b600080fd5b6000601f19601f8301169050919050565b620003f58162000356565b81146200040157600080fd5b50565b61191280620004146000396000f3fe608060405234801561001057600080fd5b506004361061009e5760003560e01c80638e0f0c5f116100665780638e0f0c5f14610125578063def596ef14610155578063f123b45a14610173578063f2fde38b146101a3578063f5c13593146101bf5761009e565b80630651a124146100a3578063068a2253146100c1578063621a9326146100df578063715018a6146100fd5780638da5cb5b14610107575b600080fd5b6100ab6101ef565b6040516100b891906113b9565b60405180910390f35b6100c961021d565b6040516100d6919061123a565b60405180910390f35b6100e7610290565b6040516100f491906113d4565b60405180910390f35b61010561029a565b005b61010f6102ae565b60405161011c919061121f565b60405180910390f35b61013f600480360381019061013a9190610ed5565b6102d7565b60405161014c919061127e565b60405180910390f35b61015d610301565b60405161016a919061125c565b60405180910390f35b61018d60048036038101906101889190610f02565b610359565b60405161019a919061127e565b60405180910390f35b6101bd60048036038101906101b89190610e5f565b610596565b005b6101d960048036038101906101d49190610e8c565b61061a565b6040516101e691906113d4565b60405180910390f35b6101f7610d38565b600360405180604001604052908160008201548152602001600182015481525050905090565b60606002805480602002602001604051908101604052809291908181526020016000905b8282101561028757838290600052602060002090600202016040518060400160405290816000820154815260200160018201548152505081526020019060010190610241565b50505050905090565b6000600554905090565b6102a26107cf565b6102ac600061084d565b565b60008060009054906101000a900473ffffffffffffffffffffffffffffffffffffffff16905090565b60006006600083815260200190815260200160002060009054906101000a900460ff169050919050565b6060600180548060200260200160405190810160405280929190818152602001828054801561034f57602002820191906000526020600020905b81548152602001906001019080831161033b575b5050505050905090565b60006103636107cf565b60055483106103a7576040517f08c379a000000000000000000000000000000000000000000000000000000000815260040161039e906112d9565b60405180910390fd5b6103b2600183610911565b6103f1576040517f08c379a00000000000000000000000000000000000000000000000000000000081526004016103e890611379565b60405180910390fd5b6103f9610d38565b61046b6003604051806040016040529081600082015481526020016001820154815250506104666002878154811061043457610433611648565b5b906000526020600020906002020160405180604001604052908160008201548152602001600182015481525050610b97565b610c3c565b90508260088151811061048157610480611648565b5b60200260200101516002858154811061049d5761049c611648565b5b906000526020600020906002020160000181905550826009815181106104c6576104c5611648565b5b6020026020010151600285815481106104e2576104e1611648565b5b906000526020600020906002020160010181905550610541816002868154811061050f5761050e611648565b5b906000526020600020906002020160405180604001604052908160008201548152602001600182015481525050610c3c565b60036000820151816000015560208201518160010155905050600160066000600360000154815260200190815260200160002060006101000a81548160ff021916908315150217905550600191505092915050565b61059e6107cf565b600073ffffffffffffffffffffffffffffffffffffffff168173ffffffffffffffffffffffffffffffffffffffff16141561060e576040517f08c379a000000000000000000000000000000000000000000000000000000000815260040161060590611299565b60405180910390fd5b6106178161084d565b50565b60006106246107cf565b61062f600183610911565b61066e576040517f08c379a000000000000000000000000000000000000000000000000000000000815260040161066590611379565b60405180910390fd5b600060405180604001604052808460088151811061068f5761068e611648565b5b60200260200101518152602001846009815181106106b0576106af611648565b5b6020026020010151815250905060028190806001815401808255809150506001900390600052602060002090600202016000909190919091506000820151816000015560208201518160010155505060008160000151148015610717575060008160200151145b1561073b57806003600082015181600001556020820151816001015590505061077f565b61076560036040518060400160405290816000820154815260200160018201548152505082610c3c565b600360008201518160000155602082015181600101559050505b600160066000600360000154815260200190815260200160002060006101000a81548160ff021916908315150217905550600560008154809291906107c390611570565b91905055915050919050565b6107d7610d30565b73ffffffffffffffffffffffffffffffffffffffff166107f56102ae565b73ffffffffffffffffffffffffffffffffffffffff161461084b576040517f08c379a000000000000000000000000000000000000000000000000000000000815260040161084290611319565b60405180910390fd5b565b60008060009054906101000a900473ffffffffffffffffffffffffffffffffffffffff169050816000806101000a81548173ffffffffffffffffffffffffffffffffffffffff021916908373ffffffffffffffffffffffffffffffffffffffff1602179055508173ffffffffffffffffffffffffffffffffffffffff168173ffffffffffffffffffffffffffffffffffffffff167f8be0079c531659141344cd1fd0a4f28419497f9722a3daafe3b4186f6b6457e060405160405180910390a35050565b6000600a825114610957576040517f08c379a000000000000000000000000000000000000000000000000000000000815260040161094e90611359565b60405180910390fd5b601083805490501461099e576040517f08c379a000000000000000000000000000000000000000000000000000000000815260040161099590611339565b60405180910390fd5b60006109a8610d52565b6000600190506020850186835260208320935061010081015183526101208101516020840152600a8401546040840152600b840154606084015260406102408401608085600060065af191505080610a35576040517f08c379a0000000000000000000000000000000000000000000000000000000008152600401610a2c90611399565b60405180910390fd5b60208501805183526020810151602084015260408101516040840152606081015160608401526080810151608084015260a081015160a0840152835460c0840152600184015460e0840152600284015461010084015260038401546101208401526004840154610140840152600584015461016084015260c081015161018084015260e08101516101a084015260068401546101c084015260078401546101e084015260088401546102008401526009840154610220840152600c840154610280840152600d8401546102a0840152600e8401546102c0840152600f8401546102e084015260208361030085600060086107d05a03f1821691505080610b70576040517f08c379a0000000000000000000000000000000000000000000000000000000008152600401610b67906112f9565b60405180910390fd5b600182600060188110610b8657610b85611648565b5b602002015114935050505092915050565b610b9f610d38565b60007f30644e72e131a029b85045b68181585d97816a916871ca8d3c208c16d87cfd47905060008360000151148015610bdc575060008360200151145b15610c00576040518060400160405280600081526020016000815250915050610c37565b604051806040016040528084600001518152602001828560200151610c2591906115b9565b83610c3091906114c3565b8152509150505b919050565b610c44610d38565b610c4c610d75565b836000015181600060048110610c6557610c64611648565b5b602002018181525050836020015181600160048110610c8757610c86611648565b5b602002018181525050826000015181600260048110610ca957610ca8611648565b5b602002018181525050826020015181600360048110610ccb57610cca611648565b5b6020020181815250506000604083608084600060066107d05a03f1905080610d28576040517f08c379a0000000000000000000000000000000000000000000000000000000008152600401610d1f906112b9565b60405180910390fd5b505092915050565b600033905090565b604051806040016040528060008152602001600081525090565b604051806103000160405280601890602082028036833780820191505090505090565b6040518060800160405280600490602082028036833780820191505090505090565b6000610daa610da584611414565b6113ef565b90508083825260208201905082856020860282011115610dcd57610dcc6116ab565b5b60005b85811015610dfd5781610de38882610e4a565b845260208401935060208301925050600181019050610dd0565b5050509392505050565b600081359050610e16816118ae565b92915050565b600082601f830112610e3157610e306116a6565b5b8135610e41848260208601610d97565b91505092915050565b600081359050610e59816118c5565b92915050565b600060208284031215610e7557610e746116b5565b5b6000610e8384828501610e07565b91505092915050565b600060208284031215610ea257610ea16116b5565b5b600082013567ffffffffffffffff811115610ec057610ebf6116b0565b5b610ecc84828501610e1c565b91505092915050565b600060208284031215610eeb57610eea6116b5565b5b6000610ef984828501610e4a565b91505092915050565b60008060408385031215610f1957610f186116b5565b5b6000610f2785828601610e4a565b925050602083013567ffffffffffffffff811115610f4857610f476116b0565b5b610f5485828601610e1c565b9150509250929050565b6000610f6a83836111a3565b60408301905092915050565b6000610f828383611201565b60208301905092915050565b610f97816114f7565b82525050565b6000610fa882611460565b610fb28185611490565b9350610fbd83611440565b8060005b83811015610fee578151610fd58882610f5e565b9750610fe083611476565b925050600181019050610fc1565b5085935050505092915050565b60006110068261146b565b61101081856114a1565b935061101b83611450565b8060005b8381101561104c5781516110338882610f76565b975061103e83611483565b92505060018101905061101f565b5085935050505092915050565b61106281611509565b82525050565b60006110756026836114b2565b9150611080826116cb565b604082019050919050565b60006110986047836114b2565b91506110a38261171a565b606082019050919050565b60006110bb600d836114b2565b91506110c68261178f565b602082019050919050565b60006110de6011836114b2565b91506110e9826117b8565b602082019050919050565b60006111016020836114b2565b915061110c826117e1565b602082019050919050565b60006111246011836114b2565b915061112f8261180a565b602082019050919050565b60006111476014836114b2565b915061115282611833565b602082019050919050565b600061116a600b836114b2565b91506111758261185c565b602082019050919050565b600061118d600d836114b2565b915061119882611885565b602082019050919050565b6040820160008201516111b96000850182611201565b5060208201516111cc6020850182611201565b50505050565b6040820160008201516111e86000850182611201565b5060208201516111fb6020850182611201565b50505050565b61120a81611535565b82525050565b61121981611535565b82525050565b60006020820190506112346000830184610f8e565b92915050565b600060208201905081810360008301526112548184610f9d565b905092915050565b600060208201905081810360008301526112768184610ffb565b905092915050565b60006020820190506112936000830184611059565b92915050565b600060208201905081810360008301526112b281611068565b9050919050565b600060208201905081810360008301526112d28161108b565b9050919050565b600060208201905081810360008301526112f2816110ae565b9050919050565b60006020820190508181036000830152611312816110d1565b9050919050565b60006020820190508181036000830152611332816110f4565b9050919050565b6000602082019050818103600083015261135281611117565b9050919050565b600060208201905081810360008301526113728161113a565b9050919050565b600060208201905081810360008301526113928161115d565b9050919050565b600060208201905081810360008301526113b281611180565b9050919050565b60006040820190506113ce60008301846111d2565b92915050565b60006020820190506113e96000830184611210565b92915050565b60006113f961140a565b9050611405828261153f565b919050565b6000604051905090565b600067ffffffffffffffff82111561142f5761142e611677565b5b602082029050602081019050919050565b6000819050602082019050919050565b6000819050602082019050919050565b600081519050919050565b600081519050919050565b6000602082019050919050565b6000602082019050919050565b600082825260208201905092915050565b600082825260208201905092915050565b600082825260208201905092915050565b60006114ce82611535565b91506114d983611535565b9250828210156114ec576114eb6115ea565b5b828203905092915050565b600061150282611515565b9050919050565b60008115159050919050565b600073ffffffffffffffffffffffffffffffffffffffff82169050919050565b6000819050919050565b611548826116ba565b810181811067ffffffffffffffff8211171561156757611566611677565b5b80604052505050565b600061157b82611535565b91507fffffffffffffffffffffffffffffffffffffffffffffffffffffffffffffffff8214156115ae576115ad6115ea565b5b600182019050919050565b60006115c482611535565b91506115cf83611535565b9250826115df576115de611619565b5b828206905092915050565b7f4e487b7100000000000000000000000000000000000000000000000000000000600052601160045260246000fd5b7f4e487b7100000000000000000000000000000000000000000000000000000000600052601260045260246000fd5b7f4e487b7100000000000000000000000000000000000000000000000000000000600052603260045260246000fd5b7f4e487b7100000000000000000000000000000000000000000000000000000000600052604160045260246000fd5b600080fd5b600080fd5b600080fd5b600080fd5b6000601f19601f8301169050919050565b7f4f776e61626c653a206e6577206f776e657220697320746865207a65726f206160008201527f6464726573730000000000000000000000000000000000000000000000000000602082015250565b7f43616c6c20746f2074686520626e32353641646420707265636f6d70696c656460008201527f206661696c6564202870726f6261626c7920616e206f7574206f66206761732060208201527f6572726f723f2900000000000000000000000000000000000000000000000000604082015250565b7f496e76616c696420696e64657800000000000000000000000000000000000000600082015250565b7f626e32353650616972696e67206661696c000000000000000000000000000000600082015250565b7f4f776e61626c653a2063616c6c6572206973206e6f7420746865206f776e6572600082015250565b7f496e76616c696420766b206c656e677468000000000000000000000000000000600082015250565b7f496e76616c69642070726f6f66206c656e677468000000000000000000000000600082015250565b7f766572696679206661696c000000000000000000000000000000000000000000600082015250565b7f626e323536416464206661696c00000000000000000000000000000000000000600082015250565b6118b7816114f7565b81146118c257600080fd5b50565b6118ce81611535565b81146118d957600080fd5b5056fea2646970667358221220b3d9f5c0608f9b7fe6cfdf6fcdc0fb26db14b62cd74374dffd2e226452f9043664736f6c63430008070033",
					"opcodes": "PUSH1 0x80 PUSH1 0x40 MSTORE PUSH1 0x40 MLOAD DUP1 PUSH1 0x40 ADD PUSH1 0x40 MSTORE DUP1 PUSH1 0x0 DUP2 MSTORE PUSH1 0x20 ADD PUSH1 0x0 DUP2 MSTORE POP PUSH1 0x3 PUSH1 0x0 DUP3 ADD MLOAD DUP2 PUSH1 0x0 ADD SSTORE PUSH1 0x20 DUP3 ADD MLOAD DUP2 PUSH1 0x1 ADD SSTORE POP POP PUSH1 0x0 PUSH1 0x5 SSTORE CALLVALUE DUP1 ISZERO PUSH3 0x45 JUMPI PUSH1 0x0 DUP1 REVERT JUMPDEST POP PUSH1 0x40 MLOAD PUSH3 0x1D26 CODESIZE SUB DUP1 PUSH3 0x1D26 DUP4 CODECOPY DUP2 DUP2 ADD PUSH1 0x40 MSTORE DUP2 ADD SWAP1 PUSH3 0x6B SWAP2 SWAP1 PUSH3 0x2AD JUMP JUMPDEST PUSH3 0x8B PUSH3 0x7F PUSH3 0xAB PUSH1 0x20 SHL PUSH1 0x20 SHR JUMP JUMPDEST PUSH3 0xB3 PUSH1 0x20 SHL PUSH1 0x20 SHR JUMP JUMPDEST DUP1 PUSH1 0x1 SWAP1 DUP1 MLOAD SWAP1 PUSH1 0x20 ADD SWAP1 PUSH3 0xA3 SWAP3 SWAP2 SWAP1 PUSH3 0x177 JUMP JUMPDEST POP POP PUSH3 0x404 JUMP JUMPDEST PUSH1 0x0 CALLER SWAP1 POP SWAP1 JUMP JUMPDEST PUSH1 0x0 DUP1 PUSH1 0x0 SWAP1 SLOAD SWAP1 PUSH2 0x100 EXP SWAP1 DIV PUSH20 0xFFFFFFFFFFFFFFFFFFFFFFFFFFFFFFFFFFFFFFFF AND SWAP1 POP DUP2 PUSH1 0x0 DUP1 PUSH2 0x100 EXP DUP2 SLOAD DUP2 PUSH20 0xFFFFFFFFFFFFFFFFFFFFFFFFFFFFFFFFFFFFFFFF MUL NOT AND SWAP1 DUP4 PUSH20 0xFFFFFFFFFFFFFFFFFFFFFFFFFFFFFFFFFFFFFFFF AND MUL OR SWAP1 SSTORE POP DUP2 PUSH20 0xFFFFFFFFFFFFFFFFFFFFFFFFFFFFFFFFFFFFFFFF AND DUP2 PUSH20 0xFFFFFFFFFFFFFFFFFFFFFFFFFFFFFFFFFFFFFFFF AND PUSH32 0x8BE0079C531659141344CD1FD0A4F28419497F9722A3DAAFE3B4186F6B6457E0 PUSH1 0x40 MLOAD PUSH1 0x40 MLOAD DUP1 SWAP2 SUB SWAP1 LOG3 POP POP JUMP JUMPDEST DUP3 DUP1 SLOAD DUP3 DUP3 SSTORE SWAP1 PUSH1 0x0 MSTORE PUSH1 0x20 PUSH1 0x0 KECCAK256 SWAP1 DUP2 ADD SWAP3 DUP3 ISZERO PUSH3 0x1B6 JUMPI SWAP2 PUSH1 0x20 MUL DUP3 ADD JUMPDEST DUP3 DUP2 GT ISZERO PUSH3 0x1B5 JUMPI DUP3 MLOAD DUP3 SSTORE SWAP2 PUSH1 0x20 ADD SWAP2 SWAP1 PUSH1 0x1 ADD SWAP1 PUSH3 0x198 JUMP JUMPDEST JUMPDEST POP SWAP1 POP PUSH3 0x1C5 SWAP2 SWAP1 PUSH3 0x1C9 JUMP JUMPDEST POP SWAP1 JUMP JUMPDEST JUMPDEST DUP1 DUP3 GT ISZERO PUSH3 0x1E4 JUMPI PUSH1 0x0 DUP2 PUSH1 0x0 SWAP1 SSTORE POP PUSH1 0x1 ADD PUSH3 0x1CA JUMP JUMPDEST POP SWAP1 JUMP JUMPDEST PUSH1 0x0 PUSH3 0x1FF PUSH3 0x1F9 DUP5 PUSH3 0x327 JUMP JUMPDEST PUSH3 0x2FE JUMP JUMPDEST SWAP1 POP DUP1 DUP4 DUP3 MSTORE PUSH1 0x20 DUP3 ADD SWAP1 POP DUP3 DUP6 PUSH1 0x20 DUP7 MUL DUP3 ADD GT ISZERO PUSH3 0x225 JUMPI PUSH3 0x224 PUSH3 0x3CA JUMP JUMPDEST JUMPDEST PUSH1 0x0 JUMPDEST DUP6 DUP2 LT ISZERO PUSH3 0x259 JUMPI DUP2 PUSH3 0x23E DUP9 DUP3 PUSH3 0x296 JUMP JUMPDEST DUP5 MSTORE PUSH1 0x20 DUP5 ADD SWAP4 POP PUSH1 0x20 DUP4 ADD SWAP3 POP POP PUSH1 0x1 DUP2 ADD SWAP1 POP PUSH3 0x228 JUMP JUMPDEST POP POP POP SWAP4 SWAP3 POP POP POP JUMP JUMPDEST PUSH1 0x0 DUP3 PUSH1 0x1F DUP4 ADD SLT PUSH3 0x27B JUMPI PUSH3 0x27A PUSH3 0x3C5 JUMP JUMPDEST JUMPDEST DUP2 MLOAD PUSH3 0x28D DUP5 DUP3 PUSH1 0x20 DUP7 ADD PUSH3 0x1E8 JUMP JUMPDEST SWAP2 POP POP SWAP3 SWAP2 POP POP JUMP JUMPDEST PUSH1 0x0 DUP2 MLOAD SWAP1 POP PUSH3 0x2A7 DUP2 PUSH3 0x3EA JUMP JUMPDEST SWAP3 SWAP2 POP POP JUMP JUMPDEST PUSH1 0x0 PUSH1 0x20 DUP3 DUP5 SUB SLT ISZERO PUSH3 0x2C6 JUMPI PUSH3 0x2C5 PUSH3 0x3D4 JUMP JUMPDEST JUMPDEST PUSH1 0x0 DUP3 ADD MLOAD PUSH8 0xFFFFFFFFFFFFFFFF DUP2 GT ISZERO PUSH3 0x2E7 JUMPI PUSH3 0x2E6 PUSH3 0x3CF JUMP JUMPDEST JUMPDEST PUSH3 0x2F5 DUP5 DUP3 DUP6 ADD PUSH3 0x263 JUMP JUMPDEST SWAP2 POP POP SWAP3 SWAP2 POP POP JUMP JUMPDEST PUSH1 0x0 PUSH3 0x30A PUSH3 0x31D JUMP JUMPDEST SWAP1 POP PUSH3 0x318 DUP3 DUP3 PUSH3 0x360 JUMP JUMPDEST SWAP2 SWAP1 POP JUMP JUMPDEST PUSH1 0x0 PUSH1 0x40 MLOAD SWAP1 POP SWAP1 JUMP JUMPDEST PUSH1 0x0 PUSH8 0xFFFFFFFFFFFFFFFF DUP3 GT ISZERO PUSH3 0x345 JUMPI PUSH3 0x344 PUSH3 0x396 JUMP JUMPDEST JUMPDEST PUSH1 0x20 DUP3 MUL SWAP1 POP PUSH1 0x20 DUP2 ADD SWAP1 POP SWAP2 SWAP1 POP JUMP JUMPDEST PUSH1 0x0 DUP2 SWAP1 POP SWAP2 SWAP1 POP JUMP JUMPDEST PUSH3 0x36B DUP3 PUSH3 0x3D9 JUMP JUMPDEST DUP2 ADD DUP2 DUP2 LT PUSH8 0xFFFFFFFFFFFFFFFF DUP3 GT OR ISZERO PUSH3 0x38D JUMPI PUSH3 0x38C PUSH3 0x396 JUMP JUMPDEST JUMPDEST DUP1 PUSH1 0x40 MSTORE POP POP POP JUMP JUMPDEST PUSH32 0x4E487B7100000000000000000000000000000000000000000000000000000000 PUSH1 0x0 MSTORE PUSH1 0x41 PUSH1 0x4 MSTORE PUSH1 0x24 PUSH1 0x0 REVERT JUMPDEST PUSH1 0x0 DUP1 REVERT JUMPDEST PUSH1 0x0 DUP1 REVERT JUMPDEST PUSH1 0x0 DUP1 REVERT JUMPDEST PUSH1 0x0 DUP1 REVERT JUMPDEST PUSH1 0x0 PUSH1 0x1F NOT PUSH1 0x1F DUP4 ADD AND SWAP1 POP SWAP2 SWAP1 POP JUMP JUMPDEST PUSH3 0x3F5 DUP2 PUSH3 0x356 JUMP JUMPDEST DUP2 EQ PUSH3 0x401 JUMPI PUSH1 0x0 DUP1 REVERT JUMPDEST POP JUMP JUMPDEST PUSH2 0x1912 DUP1 PUSH3 0x414 PUSH1 0x0 CODECOPY PUSH1 0x0 RETURN INVALID PUSH1 0x80 PUSH1 0x40 MSTORE CALLVALUE DUP1 ISZERO PUSH2 0x10 JUMPI PUSH1 0x0 DUP1 REVERT JUMPDEST POP PUSH1 0x4 CALLDATASIZE LT PUSH2 0x9E JUMPI PUSH1 0x0 CALLDATALOAD PUSH1 0xE0 SHR DUP1 PUSH4 0x8E0F0C5F GT PUSH2 0x66 JUMPI DUP1 PUSH4 0x8E0F0C5F EQ PUSH2 0x125 JUMPI DUP1 PUSH4 0xDEF596EF EQ PUSH2 0x155 JUMPI DUP1 PUSH4 0xF123B45A EQ PUSH2 0x173 JUMPI DUP1 PUSH4 0xF2FDE38B EQ PUSH2 0x1A3 JUMPI DUP1 PUSH4 0xF5C13593 EQ PUSH2 0x1BF JUMPI PUSH2 0x9E JUMP JUMPDEST DUP1 PUSH4 0x651A124 EQ PUSH2 0xA3 JUMPI DUP1 PUSH4 0x68A2253 EQ PUSH2 0xC1 JUMPI DUP1 PUSH4 0x621A9326 EQ PUSH2 0xDF JUMPI DUP1 PUSH4 0x715018A6 EQ PUSH2 0xFD JUMPI DUP1 PUSH4 0x8DA5CB5B EQ PUSH2 0x107 JUMPI JUMPDEST PUSH1 0x0 DUP1 REVERT JUMPDEST PUSH2 0xAB PUSH2 0x1EF JUMP JUMPDEST PUSH1 0x40 MLOAD PUSH2 0xB8 SWAP2 SWAP1 PUSH2 0x13B9 JUMP JUMPDEST PUSH1 0x40 MLOAD DUP1 SWAP2 SUB SWAP1 RETURN JUMPDEST PUSH2 0xC9 PUSH2 0x21D JUMP JUMPDEST PUSH1 0x40 MLOAD PUSH2 0xD6 SWAP2 SWAP1 PUSH2 0x123A JUMP JUMPDEST PUSH1 0x40 MLOAD DUP1 SWAP2 SUB SWAP1 RETURN JUMPDEST PUSH2 0xE7 PUSH2 0x290 JUMP JUMPDEST PUSH1 0x40 MLOAD PUSH2 0xF4 SWAP2 SWAP1 PUSH2 0x13D4 JUMP JUMPDEST PUSH1 0x40 MLOAD DUP1 SWAP2 SUB SWAP1 RETURN JUMPDEST PUSH2 0x105 PUSH2 0x29A JUMP JUMPDEST STOP JUMPDEST PUSH2 0x10F PUSH2 0x2AE JUMP JUMPDEST PUSH1 0x40 MLOAD PUSH2 0x11C SWAP2 SWAP1 PUSH2 0x121F JUMP JUMPDEST PUSH1 0x40 MLOAD DUP1 SWAP2 SUB SWAP1 RETURN JUMPDEST PUSH2 0x13F PUSH1 0x4 DUP1 CALLDATASIZE SUB DUP2 ADD SWAP1 PUSH2 0x13A SWAP2 SWAP1 PUSH2 0xED5 JUMP JUMPDEST PUSH2 0x2D7 JUMP JUMPDEST PUSH1 0x40 MLOAD PUSH2 0x14C SWAP2 SWAP1 PUSH2 0x127E JUMP JUMPDEST PUSH1 0x40 MLOAD DUP1 SWAP2 SUB SWAP1 RETURN JUMPDEST PUSH2 0x15D PUSH2 0x301 JUMP JUMPDEST PUSH1 0x40 MLOAD PUSH2 0x16A SWAP2 SWAP1 PUSH2 0x125C JUMP JUMPDEST PUSH1 0x40 MLOAD DUP1 SWAP2 SUB SWAP1 RETURN JUMPDEST PUSH2 0x18D PUSH1 0x4 DUP1 CALLDATASIZE SUB DUP2 ADD SWAP1 PUSH2 0x188 SWAP2 SWAP1 PUSH2 0xF02 JUMP JUMPDEST PUSH2 0x359 JUMP JUMPDEST PUSH1 0x40 MLOAD PUSH2 0x19A SWAP2 SWAP1 PUSH2 0x127E JUMP JUMPDEST PUSH1 0x40 MLOAD DUP1 SWAP2 SUB SWAP1 RETURN JUMPDEST PUSH2 0x1BD PUSH1 0x4 DUP1 CALLDATASIZE SUB DUP2 ADD SWAP1 PUSH2 0x1B8 SWAP2 SWAP1 PUSH2 0xE5F JUMP JUMPDEST PUSH2 0x596 JUMP JUMPDEST STOP JUMPDEST PUSH2 0x1D9 PUSH1 0x4 DUP1 CALLDATASIZE SUB DUP2 ADD SWAP1 PUSH2 0x1D4 SWAP2 SWAP1 PUSH2 0xE8C JUMP JUMPDEST PUSH2 0x61A JUMP JUMPDEST PUSH1 0x40 MLOAD PUSH2 0x1E6 SWAP2 SWAP1 PUSH2 0x13D4 JUMP JUMPDEST PUSH1 0x40 MLOAD DUP1 SWAP2 SUB SWAP1 RETURN JUMPDEST PUSH2 0x1F7 PUSH2 0xD38 JUMP JUMPDEST PUSH1 0x3 PUSH1 0x40 MLOAD DUP1 PUSH1 0x40 ADD PUSH1 0x40 MSTORE SWAP1 DUP2 PUSH1 0x0 DUP3 ADD SLOAD DUP2 MSTORE PUSH1 0x20 ADD PUSH1 0x1 DUP3 ADD SLOAD DUP2 MSTORE POP POP SWAP1 POP SWAP1 JUMP JUMPDEST PUSH1 0x60 PUSH1 0x2 DUP1 SLOAD DUP1 PUSH1 0x20 MUL PUSH1 0x20 ADD PUSH1 0x40 MLOAD SWAP1 DUP2 ADD PUSH1 0x40 MSTORE DUP1 SWAP3 SWAP2 SWAP1 DUP2 DUP2 MSTORE PUSH1 0x20 ADD PUSH1 0x0 SWAP1 JUMPDEST DUP3 DUP3 LT ISZERO PUSH2 0x287 JUMPI DUP4 DUP3 SWAP1 PUSH1 0x0 MSTORE PUSH1 0x20 PUSH1 0x0 KECCAK256 SWAP1 PUSH1 0x2 MUL ADD PUSH1 0x40 MLOAD DUP1 PUSH1 0x40 ADD PUSH1 0x40 MSTORE SWAP1 DUP2 PUSH1 0x0 DUP3 ADD SLOAD DUP2 MSTORE PUSH1 0x20 ADD PUSH1 0x1 DUP3 ADD SLOAD DUP2 MSTORE POP POP DUP2 MSTORE PUSH1 0x20 ADD SWAP1 PUSH1 0x1 ADD SWAP1 PUSH2 0x241 JUMP JUMPDEST POP POP POP POP SWAP1 POP SWAP1 JUMP JUMPDEST PUSH1 0x0 PUSH1 0x5 SLOAD SWAP1 POP SWAP1 JUMP JUMPDEST PUSH2 0x2A2 PUSH2 0x7CF JUMP JUMPDEST PUSH2 0x2AC PUSH1 0x0 PUSH2 0x84D JUMP JUMPDEST JUMP JUMPDEST PUSH1 0x0 DUP1 PUSH1 0x0 SWAP1 SLOAD SWAP1 PUSH2 0x100 EXP SWAP1 DIV PUSH20 0xFFFFFFFFFFFFFFFFFFFFFFFFFFFFFFFFFFFFFFFF AND SWAP1 POP SWAP1 JUMP JUMPDEST PUSH1 0x0 PUSH1 0x6 PUSH1 0x0 DUP4 DUP2 MSTORE PUSH1 0x20 ADD SWAP1 DUP2 MSTORE PUSH1 0x20 ADD PUSH1 0x0 KECCAK256 PUSH1 0x0 SWAP1 SLOAD SWAP1 PUSH2 0x100 EXP SWAP1 DIV PUSH1 0xFF AND SWAP1 POP SWAP2 SWAP1 POP JUMP JUMPDEST PUSH1 0x60 PUSH1 0x1 DUP1 SLOAD DUP1 PUSH1 0x20 MUL PUSH1 0x20 ADD PUSH1 0x40 MLOAD SWAP1 DUP2 ADD PUSH1 0x40 MSTORE DUP1 SWAP3 SWAP2 SWAP1 DUP2 DUP2 MSTORE PUSH1 0x20 ADD DUP3 DUP1 SLOAD DUP1 ISZERO PUSH2 0x34F JUMPI PUSH1 0x20 MUL DUP3 ADD SWAP2 SWAP1 PUSH1 0x0 MSTORE PUSH1 0x20 PUSH1 0x0 KECCAK256 SWAP1 JUMPDEST DUP2 SLOAD DUP2 MSTORE PUSH1 0x20 ADD SWAP1 PUSH1 0x1 ADD SWAP1 DUP1 DUP4 GT PUSH2 0x33B JUMPI JUMPDEST POP POP POP POP POP SWAP1 POP SWAP1 JUMP JUMPDEST PUSH1 0x0 PUSH2 0x363 PUSH2 0x7CF JUMP JUMPDEST PUSH1 0x5 SLOAD DUP4 LT PUSH2 0x3A7 JUMPI PUSH1 0x40 MLOAD PUSH32 0x8C379A000000000000000000000000000000000000000000000000000000000 DUP2 MSTORE PUSH1 0x4 ADD PUSH2 0x39E SWAP1 PUSH2 0x12D9 JUMP JUMPDEST PUSH1 0x40 MLOAD DUP1 SWAP2 SUB SWAP1 REVERT JUMPDEST PUSH2 0x3B2 PUSH1 0x1 DUP4 PUSH2 0x911 JUMP JUMPDEST PUSH2 0x3F1 JUMPI PUSH1 0x40 MLOAD PUSH32 0x8C379A000000000000000000000000000000000000000000000000000000000 DUP2 MSTORE PUSH1 0x4 ADD PUSH2 0x3E8 SWAP1 PUSH2 0x1379 JUMP JUMPDEST PUSH1 0x40 MLOAD DUP1 SWAP2 SUB SWAP1 REVERT JUMPDEST PUSH2 0x3F9 PUSH2 0xD38 JUMP JUMPDEST PUSH2 0x46B PUSH1 0x3 PUSH1 0x40 MLOAD DUP1 PUSH1 0x40 ADD PUSH1 0x40 MSTORE SWAP1 DUP2 PUSH1 0x0 DUP3 ADD SLOAD DUP2 MSTORE PUSH1 0x20 ADD PUSH1 0x1 DUP3 ADD SLOAD DUP2 MSTORE POP POP PUSH2 0x466 PUSH1 0x2 DUP8 DUP2 SLOAD DUP2 LT PUSH2 0x434 JUMPI PUSH2 0x433 PUSH2 0x1648 JUMP JUMPDEST JUMPDEST SWAP1 PUSH1 0x0 MSTORE PUSH1 0x20 PUSH1 0x0 KECCAK256 SWAP1 PUSH1 0x2 MUL ADD PUSH1 0x40 MLOAD DUP1 PUSH1 0x40 ADD PUSH1 0x40 MSTORE SWAP1 DUP2 PUSH1 0x0 DUP3 ADD SLOAD DUP2 MSTORE PUSH1 0x20 ADD PUSH1 0x1 DUP3 ADD SLOAD DUP2 MSTORE POP POP PUSH2 0xB97 JUMP JUMPDEST PUSH2 0xC3C JUMP JUMPDEST SWAP1 POP DUP3 PUSH1 0x8 DUP2 MLOAD DUP2 LT PUSH2 0x481 JUMPI PUSH2 0x480 PUSH2 0x1648 JUMP JUMPDEST JUMPDEST PUSH1 0x20 MUL PUSH1 0x20 ADD ADD MLOAD PUSH1 0x2 DUP6 DUP2 SLOAD DUP2 LT PUSH2 0x49D JUMPI PUSH2 0x49C PUSH2 0x1648 JUMP JUMPDEST JUMPDEST SWAP1 PUSH1 0x0 MSTORE PUSH1 0x20 PUSH1 0x0 KECCAK256 SWAP1 PUSH1 0x2 MUL ADD PUSH1 0x0 ADD DUP2 SWAP1 SSTORE POP DUP3 PUSH1 0x9 DUP2 MLOAD DUP2 LT PUSH2 0x4C6 JUMPI PUSH2 0x4C5 PUSH2 0x1648 JUMP JUMPDEST JUMPDEST PUSH1 0x20 MUL PUSH1 0x20 ADD ADD MLOAD PUSH1 0x2 DUP6 DUP2 SLOAD DUP2 LT PUSH2 0x4E2 JUMPI PUSH2 0x4E1 PUSH2 0x1648 JUMP JUMPDEST JUMPDEST SWAP1 PUSH1 0x0 MSTORE PUSH1 0x20 PUSH1 0x0 KECCAK256 SWAP1 PUSH1 0x2 MUL ADD PUSH1 0x1 ADD DUP2 SWAP1 SSTORE POP PUSH2 0x541 DUP2 PUSH1 0x2 DUP7 DUP2 SLOAD DUP2 LT PUSH2 0x50F JUMPI PUSH2 0x50E PUSH2 0x1648 JUMP JUMPDEST JUMPDEST SWAP1 PUSH1 0x0 MSTORE PUSH1 0x20 PUSH1 0x0 KECCAK256 SWAP1 PUSH1 0x2 MUL ADD PUSH1 0x40 MLOAD DUP1 PUSH1 0x40 ADD PUSH1 0x40 MSTORE SWAP1 DUP2 PUSH1 0x0 DUP3 ADD SLOAD DUP2 MSTORE PUSH1 0x20 ADD PUSH1 0x1 DUP3 ADD SLOAD DUP2 MSTORE POP POP PUSH2 0xC3C JUMP JUMPDEST PUSH1 0x3 PUSH1 0x0 DUP3 ADD MLOAD DUP2 PUSH1 0x0 ADD SSTORE PUSH1 0x20 DUP3 ADD MLOAD DUP2 PUSH1 0x1 ADD SSTORE SWAP1 POP POP PUSH1 0x1 PUSH1 0x6 PUSH1 0x0 PUSH1 0x3 PUSH1 0x0 ADD SLOAD DUP2 MSTORE PUSH1 0x20 ADD SWAP1 DUP2 MSTORE PUSH1 0x20 ADD PUSH1 0x0 KECCAK256 PUSH1 0x0 PUSH2 0x100 EXP DUP2 SLOAD DUP2 PUSH1 0xFF MUL NOT AND SWAP1 DUP4 ISZERO ISZERO MUL OR SWAP1 SSTORE POP PUSH1 0x1 SWAP2 POP POP SWAP3 SWAP2 POP POP JUMP JUMPDEST PUSH2 0x59E PUSH2 0x7CF JUMP JUMPDEST PUSH1 0x0 PUSH20 0xFFFFFFFFFFFFFFFFFFFFFFFFFFFFFFFFFFFFFFFF AND DUP2 PUSH20 0xFFFFFFFFFFFFFFFFFFFFFFFFFFFFFFFFFFFFFFFF AND EQ ISZERO PUSH2 0x60E JUMPI PUSH1 0x40 MLOAD PUSH32 0x8C379A000000000000000000000000000000000000000000000000000000000 DUP2 MSTORE PUSH1 0x4 ADD PUSH2 0x605 SWAP1 PUSH2 0x1299 JUMP JUMPDEST PUSH1 0x40 MLOAD DUP1 SWAP2 SUB SWAP1 REVERT JUMPDEST PUSH2 0x617 DUP2 PUSH2 0x84D JUMP JUMPDEST POP JUMP JUMPDEST PUSH1 0x0 PUSH2 0x624 PUSH2 0x7CF JUMP JUMPDEST PUSH2 0x62F PUSH1 0x1 DUP4 PUSH2 0x911 JUMP JUMPDEST PUSH2 0x66E JUMPI PUSH1 0x40 MLOAD PUSH32 0x8C379A000000000000000000000000000000000000000000000000000000000 DUP2 MSTORE PUSH1 0x4 ADD PUSH2 0x665 SWAP1 PUSH2 0x1379 JUMP JUMPDEST PUSH1 0x40 MLOAD DUP1 SWAP2 SUB SWAP1 REVERT JUMPDEST PUSH1 0x0 PUSH1 0x40 MLOAD DUP1 PUSH1 0x40 ADD PUSH1 0x40 MSTORE DUP1 DUP5 PUSH1 0x8 DUP2 MLOAD DUP2 LT PUSH2 0x68F JUMPI PUSH2 0x68E PUSH2 0x1648 JUMP JUMPDEST JUMPDEST PUSH1 0x20 MUL PUSH1 0x20 ADD ADD MLOAD DUP2 MSTORE PUSH1 0x20 ADD DUP5 PUSH1 0x9 DUP2 MLOAD DUP2 LT PUSH2 0x6B0 JUMPI PUSH2 0x6AF PUSH2 0x1648 JUMP JUMPDEST JUMPDEST PUSH1 0x20 MUL PUSH1 0x20 ADD ADD MLOAD DUP2 MSTORE POP SWAP1 POP PUSH1 0x2 DUP2 SWAP1 DUP1 PUSH1 0x1 DUP2 SLOAD ADD DUP1 DUP3 SSTORE DUP1 SWAP2 POP POP PUSH1 0x1 SWAP1 SUB SWAP1 PUSH1 0x0 MSTORE PUSH1 0x20 PUSH1 0x0 KECCAK256 SWAP1 PUSH1 0x2 MUL ADD PUSH1 0x0 SWAP1 SWAP2 SWAP1 SWAP2 SWAP1 SWAP2 POP PUSH1 0x0 DUP3 ADD MLOAD DUP2 PUSH1 0x0 ADD SSTORE PUSH1 0x20 DUP3 ADD MLOAD DUP2 PUSH1 0x1 ADD SSTORE POP POP PUSH1 0x0 DUP2 PUSH1 0x0 ADD MLOAD EQ DUP1 ISZERO PUSH2 0x717 JUMPI POP PUSH1 0x0 DUP2 PUSH1 0x20 ADD MLOAD EQ JUMPDEST ISZERO PUSH2 0x73B JUMPI DUP1 PUSH1 0x3 PUSH1 0x0 DUP3 ADD MLOAD DUP2 PUSH1 0x0 ADD SSTORE PUSH1 0x20 DUP3 ADD MLOAD DUP2 PUSH1 0x1 ADD SSTORE SWAP1 POP POP PUSH2 0x77F JUMP JUMPDEST PUSH2 0x765 PUSH1 0x3 PUSH1 0x40 MLOAD DUP1 PUSH1 0x40 ADD PUSH1 0x40 MSTORE SWAP1 DUP2 PUSH1 0x0 DUP3 ADD SLOAD DUP2 MSTORE PUSH1 0x20 ADD PUSH1 0x1 DUP3 ADD SLOAD DUP2 MSTORE POP POP DUP3 PUSH2 0xC3C JUMP JUMPDEST PUSH1 0x3 PUSH1 0x0 DUP3 ADD MLOAD DUP2 PUSH1 0x0 ADD SSTORE PUSH1 0x20 DUP3 ADD MLOAD DUP2 PUSH1 0x1 ADD SSTORE SWAP1 POP POP JUMPDEST PUSH1 0x1 PUSH1 0x6 PUSH1 0x0 PUSH1 0x3 PUSH1 0x0 ADD SLOAD DUP2 MSTORE PUSH1 0x20 ADD SWAP1 DUP2 MSTORE PUSH1 0x20 ADD PUSH1 0x0 KECCAK256 PUSH1 0x0 PUSH2 0x100 EXP DUP2 SLOAD DUP2 PUSH1 0xFF MUL NOT AND SWAP1 DUP4 ISZERO ISZERO MUL OR SWAP1 SSTORE POP PUSH1 0x5 PUSH1 0x0 DUP2 SLOAD DUP1 SWAP3 SWAP2 SWAP1 PUSH2 0x7C3 SWAP1 PUSH2 0x1570 JUMP JUMPDEST SWAP2 SWAP1 POP SSTORE SWAP2 POP POP SWAP2 SWAP1 POP JUMP JUMPDEST PUSH2 0x7D7 PUSH2 0xD30 JUMP JUMPDEST PUSH20 0xFFFFFFFFFFFFFFFFFFFFFFFFFFFFFFFFFFFFFFFF AND PUSH2 0x7F5 PUSH2 0x2AE JUMP JUMPDEST PUSH20 0xFFFFFFFFFFFFFFFFFFFFFFFFFFFFFFFFFFFFFFFF AND EQ PUSH2 0x84B JUMPI PUSH1 0x40 MLOAD PUSH32 0x8C379A000000000000000000000000000000000000000000000000000000000 DUP2 MSTORE PUSH1 0x4 ADD PUSH2 0x842 SWAP1 PUSH2 0x1319 JUMP JUMPDEST PUSH1 0x40 MLOAD DUP1 SWAP2 SUB SWAP1 REVERT JUMPDEST JUMP JUMPDEST PUSH1 0x0 DUP1 PUSH1 0x0 SWAP1 SLOAD SWAP1 PUSH2 0x100 EXP SWAP1 DIV PUSH20 0xFFFFFFFFFFFFFFFFFFFFFFFFFFFFFFFFFFFFFFFF AND SWAP1 POP DUP2 PUSH1 0x0 DUP1 PUSH2 0x100 EXP DUP2 SLOAD DUP2 PUSH20 0xFFFFFFFFFFFFFFFFFFFFFFFFFFFFFFFFFFFFFFFF MUL NOT AND SWAP1 DUP4 PUSH20 0xFFFFFFFFFFFFFFFFFFFFFFFFFFFFFFFFFFFFFFFF AND MUL OR SWAP1 SSTORE POP DUP2 PUSH20 0xFFFFFFFFFFFFFFFFFFFFFFFFFFFFFFFFFFFFFFFF AND DUP2 PUSH20 0xFFFFFFFFFFFFFFFFFFFFFFFFFFFFFFFFFFFFFFFF AND PUSH32 0x8BE0079C531659141344CD1FD0A4F28419497F9722A3DAAFE3B4186F6B6457E0 PUSH1 0x40 MLOAD PUSH1 0x40 MLOAD DUP1 SWAP2 SUB SWAP1 LOG3 POP POP JUMP JUMPDEST PUSH1 0x0 PUSH1 0xA DUP3 MLOAD EQ PUSH2 0x957 JUMPI PUSH1 0x40 MLOAD PUSH32 0x8C379A000000000000000000000000000000000000000000000000000000000 DUP2 MSTORE PUSH1 0x4 ADD PUSH2 0x94E SWAP1 PUSH2 0x1359 JUMP JUMPDEST PUSH1 0x40 MLOAD DUP1 SWAP2 SUB SWAP1 REVERT JUMPDEST PUSH1 0x10 DUP4 DUP1 SLOAD SWAP1 POP EQ PUSH2 0x99E JUMPI PUSH1 0x40 MLOAD PUSH32 0x8C379A000000000000000000000000000000000000000000000000000000000 DUP2 MSTORE PUSH1 0x4 ADD PUSH2 0x995 SWAP1 PUSH2 0x1339 JUMP JUMPDEST PUSH1 0x40 MLOAD DUP1 SWAP2 SUB SWAP1 REVERT JUMPDEST PUSH1 0x0 PUSH2 0x9A8 PUSH2 0xD52 JUMP JUMPDEST PUSH1 0x0 PUSH1 0x1 SWAP1 POP PUSH1 0x20 DUP6 ADD DUP7 DUP4 MSTORE PUSH1 0x20 DUP4 KECCAK256 SWAP4 POP PUSH2 0x100 DUP2 ADD MLOAD DUP4 MSTORE PUSH2 0x120 DUP2 ADD MLOAD PUSH1 0x20 DUP5 ADD MSTORE PUSH1 0xA DUP5 ADD SLOAD PUSH1 0x40 DUP5 ADD MSTORE PUSH1 0xB DUP5 ADD SLOAD PUSH1 0x60 DUP5 ADD MSTORE PUSH1 0x40 PUSH2 0x240 DUP5 ADD PUSH1 0x80 DUP6 PUSH1 0x0 PUSH1 0x6 GAS CALL SWAP2 POP POP DUP1 PUSH2 0xA35 JUMPI PUSH1 0x40 MLOAD PUSH32 0x8C379A000000000000000000000000000000000000000000000000000000000 DUP2 MSTORE PUSH1 0x4 ADD PUSH2 0xA2C SWAP1 PUSH2 0x1399 JUMP JUMPDEST PUSH1 0x40 MLOAD DUP1 SWAP2 SUB SWAP1 REVERT JUMPDEST PUSH1 0x20 DUP6 ADD DUP1 MLOAD DUP4 MSTORE PUSH1 0x20 DUP2 ADD MLOAD PUSH1 0x20 DUP5 ADD MSTORE PUSH1 0x40 DUP2 ADD MLOAD PUSH1 0x40 DUP5 ADD MSTORE PUSH1 0x60 DUP2 ADD MLOAD PUSH1 0x60 DUP5 ADD MSTORE PUSH1 0x80 DUP2 ADD MLOAD PUSH1 0x80 DUP5 ADD MSTORE PUSH1 0xA0 DUP2 ADD MLOAD PUSH1 0xA0 DUP5 ADD MSTORE DUP4 SLOAD PUSH1 0xC0 DUP5 ADD MSTORE PUSH1 0x1 DUP5 ADD SLOAD PUSH1 0xE0 DUP5 ADD MSTORE PUSH1 0x2 DUP5 ADD SLOAD PUSH2 0x100 DUP5 ADD MSTORE PUSH1 0x3 DUP5 ADD SLOAD PUSH2 0x120 DUP5 ADD MSTORE PUSH1 0x4 DUP5 ADD SLOAD PUSH2 0x140 DUP5 ADD MSTORE PUSH1 0x5 DUP5 ADD SLOAD PUSH2 0x160 DUP5 ADD MSTORE PUSH1 0xC0 DUP2 ADD MLOAD PUSH2 0x180 DUP5 ADD MSTORE PUSH1 0xE0 DUP2 ADD MLOAD PUSH2 0x1A0 DUP5 ADD MSTORE PUSH1 0x6 DUP5 ADD SLOAD PUSH2 0x1C0 DUP5 ADD MSTORE PUSH1 0x7 DUP5 ADD SLOAD PUSH2 0x1E0 DUP5 ADD MSTORE PUSH1 0x8 DUP5 ADD SLOAD PUSH2 0x200 DUP5 ADD MSTORE PUSH1 0x9 DUP5 ADD SLOAD PUSH2 0x220 DUP5 ADD MSTORE PUSH1 0xC DUP5 ADD SLOAD PUSH2 0x280 DUP5 ADD MSTORE PUSH1 0xD DUP5 ADD SLOAD PUSH2 0x2A0 DUP5 ADD MSTORE PUSH1 0xE DUP5 ADD SLOAD PUSH2 0x2C0 DUP5 ADD MSTORE PUSH1 0xF DUP5 ADD SLOAD PUSH2 0x2E0 DUP5 ADD MSTORE PUSH1 0x20 DUP4 PUSH2 0x300 DUP6 PUSH1 0x0 PUSH1 0x8 PUSH2 0x7D0 GAS SUB CALL DUP3 AND SWAP2 POP POP DUP1 PUSH2 0xB70 JUMPI PUSH1 0x40 MLOAD PUSH32 0x8C379A000000000000000000000000000000000000000000000000000000000 DUP2 MSTORE PUSH1 0x4 ADD PUSH2 0xB67 SWAP1 PUSH2 0x12F9 JUMP JUMPDEST PUSH1 0x40 MLOAD DUP1 SWAP2 SUB SWAP1 REVERT JUMPDEST PUSH1 0x1 DUP3 PUSH1 0x0 PUSH1 0x18 DUP2 LT PUSH2 0xB86 JUMPI PUSH2 0xB85 PUSH2 0x1648 JUMP JUMPDEST JUMPDEST PUSH1 0x20 MUL ADD MLOAD EQ SWAP4 POP POP POP POP SWAP3 SWAP2 POP POP JUMP JUMPDEST PUSH2 0xB9F PUSH2 0xD38 JUMP JUMPDEST PUSH1 0x0 PUSH32 0x30644E72E131A029B85045B68181585D97816A916871CA8D3C208C16D87CFD47 SWAP1 POP PUSH1 0x0 DUP4 PUSH1 0x0 ADD MLOAD EQ DUP1 ISZERO PUSH2 0xBDC JUMPI POP PUSH1 0x0 DUP4 PUSH1 0x20 ADD MLOAD EQ JUMPDEST ISZERO PUSH2 0xC00 JUMPI PUSH1 0x40 MLOAD DUP1 PUSH1 0x40 ADD PUSH1 0x40 MSTORE DUP1 PUSH1 0x0 DUP2 MSTORE PUSH1 0x20 ADD PUSH1 0x0 DUP2 MSTORE POP SWAP2 POP POP PUSH2 0xC37 JUMP JUMPDEST PUSH1 0x40 MLOAD DUP1 PUSH1 0x40 ADD PUSH1 0x40 MSTORE DUP1 DUP5 PUSH1 0x0 ADD MLOAD DUP2 MSTORE PUSH1 0x20 ADD DUP3 DUP6 PUSH1 0x20 ADD MLOAD PUSH2 0xC25 SWAP2 SWAP1 PUSH2 0x15B9 JUMP JUMPDEST DUP4 PUSH2 0xC30 SWAP2 SWAP1 PUSH2 0x14C3 JUMP JUMPDEST DUP2 MSTORE POP SWAP2 POP POP JUMPDEST SWAP2 SWAP1 POP JUMP JUMPDEST PUSH2 0xC44 PUSH2 0xD38 JUMP JUMPDEST PUSH2 0xC4C PUSH2 0xD75 JUMP JUMPDEST DUP4 PUSH1 0x0 ADD MLOAD DUP2 PUSH1 0x0 PUSH1 0x4 DUP2 LT PUSH2 0xC65 JUMPI PUSH2 0xC64 PUSH2 0x1648 JUMP JUMPDEST JUMPDEST PUSH1 0x20 MUL ADD DUP2 DUP2 MSTORE POP POP DUP4 PUSH1 0x20 ADD MLOAD DUP2 PUSH1 0x1 PUSH1 0x4 DUP2 LT PUSH2 0xC87 JUMPI PUSH2 0xC86 PUSH2 0x1648 JUMP JUMPDEST JUMPDEST PUSH1 0x20 MUL ADD DUP2 DUP2 MSTORE POP POP DUP3 PUSH1 0x0 ADD MLOAD DUP2 PUSH1 0x2 PUSH1 0x4 DUP2 LT PUSH2 0xCA9 JUMPI PUSH2 0xCA8 PUSH2 0x1648 JUMP JUMPDEST JUMPDEST PUSH1 0x20 MUL ADD DUP2 DUP2 MSTORE POP POP DUP3 PUSH1 0x20 ADD MLOAD DUP2 PUSH1 0x3 PUSH1 0x4 DUP2 LT PUSH2 0xCCB JUMPI PUSH2 0xCCA PUSH2 0x1648 JUMP JUMPDEST JUMPDEST PUSH1 0x20 MUL ADD DUP2 DUP2 MSTORE POP POP PUSH1 0x0 PUSH1 0x40 DUP4 PUSH1 0x80 DUP5 PUSH1 0x0 PUSH1 0x6 PUSH2 0x7D0 GAS SUB CALL SWAP1 POP DUP1 PUSH2 0xD28 JUMPI PUSH1 0x40 MLOAD PUSH32 0x8C379A000000000000000000000000000000000000000000000000000000000 DUP2 MSTORE PUSH1 0x4 ADD PUSH2 0xD1F SWAP1 PUSH2 0x12B9 JUMP JUMPDEST PUSH1 0x40 MLOAD DUP1 SWAP2 SUB SWAP1 REVERT JUMPDEST POP POP SWAP3 SWAP2 POP POP JUMP JUMPDEST PUSH1 0x0 CALLER SWAP1 POP SWAP1 JUMP JUMPDEST PUSH1 0x40 MLOAD DUP1 PUSH1 0x40 ADD PUSH1 0x40 MSTORE DUP1 PUSH1 0x0 DUP2 MSTORE PUSH1 0x20 ADD PUSH1 0x0 DUP2 MSTORE POP SWAP1 JUMP JUMPDEST PUSH1 0x40 MLOAD DUP1 PUSH2 0x300 ADD PUSH1 0x40 MSTORE DUP1 PUSH1 0x18 SWAP1 PUSH1 0x20 DUP3 MUL DUP1 CALLDATASIZE DUP4 CALLDATACOPY DUP1 DUP3 ADD SWAP2 POP POP SWAP1 POP POP SWAP1 JUMP JUMPDEST PUSH1 0x40 MLOAD DUP1 PUSH1 0x80 ADD PUSH1 0x40 MSTORE DUP1 PUSH1 0x4 SWAP1 PUSH1 0x20 DUP3 MUL DUP1 CALLDATASIZE DUP4 CALLDATACOPY DUP1 DUP3 ADD SWAP2 POP POP SWAP1 POP POP SWAP1 JUMP JUMPDEST PUSH1 0x0 PUSH2 0xDAA PUSH2 0xDA5 DUP5 PUSH2 0x1414 JUMP JUMPDEST PUSH2 0x13EF JUMP JUMPDEST SWAP1 POP DUP1 DUP4 DUP3 MSTORE PUSH1 0x20 DUP3 ADD SWAP1 POP DUP3 DUP6 PUSH1 0x20 DUP7 MUL DUP3 ADD GT ISZERO PUSH2 0xDCD JUMPI PUSH2 0xDCC PUSH2 0x16AB JUMP JUMPDEST JUMPDEST PUSH1 0x0 JUMPDEST DUP6 DUP2 LT ISZERO PUSH2 0xDFD JUMPI DUP2 PUSH2 0xDE3 DUP9 DUP3 PUSH2 0xE4A JUMP JUMPDEST DUP5 MSTORE PUSH1 0x20 DUP5 ADD SWAP4 POP PUSH1 0x20 DUP4 ADD SWAP3 POP POP PUSH1 0x1 DUP2 ADD SWAP1 POP PUSH2 0xDD0 JUMP JUMPDEST POP POP POP SWAP4 SWAP3 POP POP POP JUMP JUMPDEST PUSH1 0x0 DUP2 CALLDATALOAD SWAP1 POP PUSH2 0xE16 DUP2 PUSH2 0x18AE JUMP JUMPDEST SWAP3 SWAP2 POP POP JUMP JUMPDEST PUSH1 0x0 DUP3 PUSH1 0x1F DUP4 ADD SLT PUSH2 0xE31 JUMPI PUSH2 0xE30 PUSH2 0x16A6 JUMP JUMPDEST JUMPDEST DUP2 CALLDATALOAD PUSH2 0xE41 DUP5 DUP3 PUSH1 0x20 DUP7 ADD PUSH2 0xD97 JUMP JUMPDEST SWAP2 POP POP SWAP3 SWAP2 POP POP JUMP JUMPDEST PUSH1 0x0 DUP2 CALLDATALOAD SWAP1 POP PUSH2 0xE59 DUP2 PUSH2 0x18C5 JUMP JUMPDEST SWAP3 SWAP2 POP POP JUMP JUMPDEST PUSH1 0x0 PUSH1 0x20 DUP3 DUP5 SUB SLT ISZERO PUSH2 0xE75 JUMPI PUSH2 0xE74 PUSH2 0x16B5 JUMP JUMPDEST JUMPDEST PUSH1 0x0 PUSH2 0xE83 DUP5 DUP3 DUP6 ADD PUSH2 0xE07 JUMP JUMPDEST SWAP2 POP POP SWAP3 SWAP2 POP POP JUMP JUMPDEST PUSH1 0x0 PUSH1 0x20 DUP3 DUP5 SUB SLT ISZERO PUSH2 0xEA2 JUMPI PUSH2 0xEA1 PUSH2 0x16B5 JUMP JUMPDEST JUMPDEST PUSH1 0x0 DUP3 ADD CALLDATALOAD PUSH8 0xFFFFFFFFFFFFFFFF DUP2 GT ISZERO PUSH2 0xEC0 JUMPI PUSH2 0xEBF PUSH2 0x16B0 JUMP JUMPDEST JUMPDEST PUSH2 0xECC DUP5 DUP3 DUP6 ADD PUSH2 0xE1C JUMP JUMPDEST SWAP2 POP POP SWAP3 SWAP2 POP POP JUMP JUMPDEST PUSH1 0x0 PUSH1 0x20 DUP3 DUP5 SUB SLT ISZERO PUSH2 0xEEB JUMPI PUSH2 0xEEA PUSH2 0x16B5 JUMP JUMPDEST JUMPDEST PUSH1 0x0 PUSH2 0xEF9 DUP5 DUP3 DUP6 ADD PUSH2 0xE4A JUMP JUMPDEST SWAP2 POP POP SWAP3 SWAP2 POP POP JUMP JUMPDEST PUSH1 0x0 DUP1 PUSH1 0x40 DUP4 DUP6 SUB SLT ISZERO PUSH2 0xF19 JUMPI PUSH2 0xF18 PUSH2 0x16B5 JUMP JUMPDEST JUMPDEST PUSH1 0x0 PUSH2 0xF27 DUP6 DUP3 DUP7 ADD PUSH2 0xE4A JUMP JUMPDEST SWAP3 POP POP PUSH1 0x20 DUP4 ADD CALLDATALOAD PUSH8 0xFFFFFFFFFFFFFFFF DUP2 GT ISZERO PUSH2 0xF48 JUMPI PUSH2 0xF47 PUSH2 0x16B0 JUMP JUMPDEST JUMPDEST PUSH2 0xF54 DUP6 DUP3 DUP7 ADD PUSH2 0xE1C JUMP JUMPDEST SWAP2 POP POP SWAP3 POP SWAP3 SWAP1 POP JUMP JUMPDEST PUSH1 0x0 PUSH2 0xF6A DUP4 DUP4 PUSH2 0x11A3 JUMP JUMPDEST PUSH1 0x40 DUP4 ADD SWAP1 POP SWAP3 SWAP2 POP POP JUMP JUMPDEST PUSH1 0x0 PUSH2 0xF82 DUP4 DUP4 PUSH2 0x1201 JUMP JUMPDEST PUSH1 0x20 DUP4 ADD SWAP1 POP SWAP3 SWAP2 POP POP JUMP JUMPDEST PUSH2 0xF97 DUP2 PUSH2 0x14F7 JUMP JUMPDEST DUP3 MSTORE POP POP JUMP JUMPDEST PUSH1 0x0 PUSH2 0xFA8 DUP3 PUSH2 0x1460 JUMP JUMPDEST PUSH2 0xFB2 DUP2 DUP6 PUSH2 0x1490 JUMP JUMPDEST SWAP4 POP PUSH2 0xFBD DUP4 PUSH2 0x1440 JUMP JUMPDEST DUP1 PUSH1 0x0 JUMPDEST DUP4 DUP2 LT ISZERO PUSH2 0xFEE JUMPI DUP2 MLOAD PUSH2 0xFD5 DUP9 DUP3 PUSH2 0xF5E JUMP JUMPDEST SWAP8 POP PUSH2 0xFE0 DUP4 PUSH2 0x1476 JUMP JUMPDEST SWAP3 POP POP PUSH1 0x1 DUP2 ADD SWAP1 POP PUSH2 0xFC1 JUMP JUMPDEST POP DUP6 SWAP4 POP POP POP POP SWAP3 SWAP2 POP POP JUMP JUMPDEST PUSH1 0x0 PUSH2 0x1006 DUP3 PUSH2 0x146B JUMP JUMPDEST PUSH2 0x1010 DUP2 DUP6 PUSH2 0x14A1 JUMP JUMPDEST SWAP4 POP PUSH2 0x101B DUP4 PUSH2 0x1450 JUMP JUMPDEST DUP1 PUSH1 0x0 JUMPDEST DUP4 DUP2 LT ISZERO PUSH2 0x104C JUMPI DUP2 MLOAD PUSH2 0x1033 DUP9 DUP3 PUSH2 0xF76 JUMP JUMPDEST SWAP8 POP PUSH2 0x103E DUP4 PUSH2 0x1483 JUMP JUMPDEST SWAP3 POP POP PUSH1 0x1 DUP2 ADD SWAP1 POP PUSH2 0x101F JUMP JUMPDEST POP DUP6 SWAP4 POP POP POP POP SWAP3 SWAP2 POP POP JUMP JUMPDEST PUSH2 0x1062 DUP2 PUSH2 0x1509 JUMP JUMPDEST DUP3 MSTORE POP POP JUMP JUMPDEST PUSH1 0x0 PUSH2 0x1075 PUSH1 0x26 DUP4 PUSH2 0x14B2 JUMP JUMPDEST SWAP2 POP PUSH2 0x1080 DUP3 PUSH2 0x16CB JUMP JUMPDEST PUSH1 0x40 DUP3 ADD SWAP1 POP SWAP2 SWAP1 POP JUMP JUMPDEST PUSH1 0x0 PUSH2 0x1098 PUSH1 0x47 DUP4 PUSH2 0x14B2 JUMP JUMPDEST SWAP2 POP PUSH2 0x10A3 DUP3 PUSH2 0x171A JUMP JUMPDEST PUSH1 0x60 DUP3 ADD SWAP1 POP SWAP2 SWAP1 POP JUMP JUMPDEST PUSH1 0x0 PUSH2 0x10BB PUSH1 0xD DUP4 PUSH2 0x14B2 JUMP JUMPDEST SWAP2 POP PUSH2 0x10C6 DUP3 PUSH2 0x178F JUMP JUMPDEST PUSH1 0x20 DUP3 ADD SWAP1 POP SWAP2 SWAP1 POP JUMP JUMPDEST PUSH1 0x0 PUSH2 0x10DE PUSH1 0x11 DUP4 PUSH2 0x14B2 JUMP JUMPDEST SWAP2 POP PUSH2 0x10E9 DUP3 PUSH2 0x17B8 JUMP JUMPDEST PUSH1 0x20 DUP3 ADD SWAP1 POP SWAP2 SWAP1 POP JUMP JUMPDEST PUSH1 0x0 PUSH2 0x1101 PUSH1 0x20 DUP4 PUSH2 0x14B2 JUMP JUMPDEST SWAP2 POP PUSH2 0x110C DUP3 PUSH2 0x17E1 JUMP JUMPDEST PUSH1 0x20 DUP3 ADD SWAP1 POP SWAP2 SWAP1 POP JUMP JUMPDEST PUSH1 0x0 PUSH2 0x1124 PUSH1 0x11 DUP4 PUSH2 0x14B2 JUMP JUMPDEST SWAP2 POP PUSH2 0x112F DUP3 PUSH2 0x180A JUMP JUMPDEST PUSH1 0x20 DUP3 ADD SWAP1 POP SWAP2 SWAP1 POP JUMP JUMPDEST PUSH1 0x0 PUSH2 0x1147 PUSH1 0x14 DUP4 PUSH2 0x14B2 JUMP JUMPDEST SWAP2 POP PUSH2 0x1152 DUP3 PUSH2 0x1833 JUMP JUMPDEST PUSH1 0x20 DUP3 ADD SWAP1 POP SWAP2 SWAP1 POP JUMP JUMPDEST PUSH1 0x0 PUSH2 0x116A PUSH1 0xB DUP4 PUSH2 0x14B2 JUMP JUMPDEST SWAP2 POP PUSH2 0x1175 DUP3 PUSH2 0x185C JUMP JUMPDEST PUSH1 0x20 DUP3 ADD SWAP1 POP SWAP2 SWAP1 POP JUMP JUMPDEST PUSH1 0x0 PUSH2 0x118D PUSH1 0xD DUP4 PUSH2 0x14B2 JUMP JUMPDEST SWAP2 POP PUSH2 0x1198 DUP3 PUSH2 0x1885 JUMP JUMPDEST PUSH1 0x20 DUP3 ADD SWAP1 POP SWAP2 SWAP1 POP JUMP JUMPDEST PUSH1 0x40 DUP3 ADD PUSH1 0x0 DUP3 ADD MLOAD PUSH2 0x11B9 PUSH1 0x0 DUP6 ADD DUP3 PUSH2 0x1201 JUMP JUMPDEST POP PUSH1 0x20 DUP3 ADD MLOAD PUSH2 0x11CC PUSH1 0x20 DUP6 ADD DUP3 PUSH2 0x1201 JUMP JUMPDEST POP POP POP POP JUMP JUMPDEST PUSH1 0x40 DUP3 ADD PUSH1 0x0 DUP3 ADD MLOAD PUSH2 0x11E8 PUSH1 0x0 DUP6 ADD DUP3 PUSH2 0x1201 JUMP JUMPDEST POP PUSH1 0x20 DUP3 ADD MLOAD PUSH2 0x11FB PUSH1 0x20 DUP6 ADD DUP3 PUSH2 0x1201 JUMP JUMPDEST POP POP POP POP JUMP JUMPDEST PUSH2 0x120A DUP2 PUSH2 0x1535 JUMP JUMPDEST DUP3 MSTORE POP POP JUMP JUMPDEST PUSH2 0x1219 DUP2 PUSH2 0x1535 JUMP JUMPDEST DUP3 MSTORE POP POP JUMP JUMPDEST PUSH1 0x0 PUSH1 0x20 DUP3 ADD SWAP1 POP PUSH2 0x1234 PUSH1 0x0 DUP4 ADD DUP5 PUSH2 0xF8E JUMP JUMPDEST SWAP3 SWAP2 POP POP JUMP JUMPDEST PUSH1 0x0 PUSH1 0x20 DUP3 ADD SWAP1 POP DUP2 DUP2 SUB PUSH1 0x0 DUP4 ADD MSTORE PUSH2 0x1254 DUP2 DUP5 PUSH2 0xF9D JUMP JUMPDEST SWAP1 POP SWAP3 SWAP2 POP POP JUMP JUMPDEST PUSH1 0x0 PUSH1 0x20 DUP3 ADD SWAP1 POP DUP2 DUP2 SUB PUSH1 0x0 DUP4 ADD MSTORE PUSH2 0x1276 DUP2 DUP5 PUSH2 0xFFB JUMP JUMPDEST SWAP1 POP SWAP3 SWAP2 POP POP JUMP JUMPDEST PUSH1 0x0 PUSH1 0x20 DUP3 ADD SWAP1 POP PUSH2 0x1293 PUSH1 0x0 DUP4 ADD DUP5 PUSH2 0x1059 JUMP JUMPDEST SWAP3 SWAP2 POP POP JUMP JUMPDEST PUSH1 0x0 PUSH1 0x20 DUP3 ADD SWAP1 POP DUP2 DUP2 SUB PUSH1 0x0 DUP4 ADD MSTORE PUSH2 0x12B2 DUP2 PUSH2 0x1068 JUMP JUMPDEST SWAP1 POP SWAP2 SWAP1 POP JUMP JUMPDEST PUSH1 0x0 PUSH1 0x20 DUP3 ADD SWAP1 POP DUP2 DUP2 SUB PUSH1 0x0 DUP4 ADD MSTORE PUSH2 0x12D2 DUP2 PUSH2 0x108B JUMP JUMPDEST SWAP1 POP SWAP2 SWAP1 POP JUMP JUMPDEST PUSH1 0x0 PUSH1 0x20 DUP3 ADD SWAP1 POP DUP2 DUP2 SUB PUSH1 0x0 DUP4 ADD MSTORE PUSH2 0x12F2 DUP2 PUSH2 0x10AE JUMP JUMPDEST SWAP1 POP SWAP2 SWAP1 POP JUMP JUMPDEST PUSH1 0x0 PUSH1 0x20 DUP3 ADD SWAP1 POP DUP2 DUP2 SUB PUSH1 0x0 DUP4 ADD MSTORE PUSH2 0x1312 DUP2 PUSH2 0x10D1 JUMP JUMPDEST SWAP1 POP SWAP2 SWAP1 POP JUMP JUMPDEST PUSH1 0x0 PUSH1 0x20 DUP3 ADD SWAP1 POP DUP2 DUP2 SUB PUSH1 0x0 DUP4 ADD MSTORE PUSH2 0x1332 DUP2 PUSH2 0x10F4 JUMP JUMPDEST SWAP1 POP SWAP2 SWAP1 POP JUMP JUMPDEST PUSH1 0x0 PUSH1 0x20 DUP3 ADD SWAP1 POP DUP2 DUP2 SUB PUSH1 0x0 DUP4 ADD MSTORE PUSH2 0x1352 DUP2 PUSH2 0x1117 JUMP JUMPDEST SWAP1 POP SWAP2 SWAP1 POP JUMP JUMPDEST PUSH1 0x0 PUSH1 0x20 DUP3 ADD SWAP1 POP DUP2 DUP2 SUB PUSH1 0x0 DUP4 ADD MSTORE PUSH2 0x1372 DUP2 PUSH2 0x113A JUMP JUMPDEST SWAP1 POP SWAP2 SWAP1 POP JUMP JUMPDEST PUSH1 0x0 PUSH1 0x20 DUP3 ADD SWAP1 POP DUP2 DUP2 SUB PUSH1 0x0 DUP4 ADD MSTORE PUSH2 0x1392 DUP2 PUSH2 0x115D JUMP JUMPDEST SWAP1 POP SWAP2 SWAP1 POP JUMP JUMPDEST PUSH1 0x0 PUSH1 0x20 DUP3 ADD SWAP1 POP DUP2 DUP2 SUB PUSH1 0x0 DUP4 ADD MSTORE PUSH2 0x13B2 DUP2 PUSH2 0x1180 JUMP JUMPDEST SWAP1 POP SWAP2 SWAP1 POP JUMP JUMPDEST PUSH1 0x0 PUSH1 0x40 DUP3 ADD SWAP1 POP PUSH2 0x13CE PUSH1 0x0 DUP4 ADD DUP5 PUSH2 0x11D2 JUMP JUMPDEST SWAP3 SWAP2 POP POP JUMP JUMPDEST PUSH1 0x0 PUSH1 0x20 DUP3 ADD SWAP1 POP PUSH2 0x13E9 PUSH1 0x0 DUP4 ADD DUP5 PUSH2 0x1210 JUMP JUMPDEST SWAP3 SWAP2 POP POP JUMP JUMPDEST PUSH1 0x0 PUSH2 0x13F9 PUSH2 0x140A JUMP JUMPDEST SWAP1 POP PUSH2 0x1405 DUP3 DUP3 PUSH2 0x153F JUMP JUMPDEST SWAP2 SWAP1 POP JUMP JUMPDEST PUSH1 0x0 PUSH1 0x40 MLOAD SWAP1 POP SWAP1 JUMP JUMPDEST PUSH1 0x0 PUSH8 0xFFFFFFFFFFFFFFFF DUP3 GT ISZERO PUSH2 0x142F JUMPI PUSH2 0x142E PUSH2 0x1677 JUMP JUMPDEST JUMPDEST PUSH1 0x20 DUP3 MUL SWAP1 POP PUSH1 0x20 DUP2 ADD SWAP1 POP SWAP2 SWAP1 POP JUMP JUMPDEST PUSH1 0x0 DUP2 SWAP1 POP PUSH1 0x20 DUP3 ADD SWAP1 POP SWAP2 SWAP1 POP JUMP JUMPDEST PUSH1 0x0 DUP2 SWAP1 POP PUSH1 0x20 DUP3 ADD SWAP1 POP SWAP2 SWAP1 POP JUMP JUMPDEST PUSH1 0x0 DUP2 MLOAD SWAP1 POP SWAP2 SWAP1 POP JUMP JUMPDEST PUSH1 0x0 DUP2 MLOAD SWAP1 POP SWAP2 SWAP1 POP JUMP JUMPDEST PUSH1 0x0 PUSH1 0x20 DUP3 ADD SWAP1 POP SWAP2 SWAP1 POP JUMP JUMPDEST PUSH1 0x0 PUSH1 0x20 DUP3 ADD SWAP1 POP SWAP2 SWAP1 POP JUMP JUMPDEST PUSH1 0x0 DUP3 DUP3 MSTORE PUSH1 0x20 DUP3 ADD SWAP1 POP SWAP3 SWAP2 POP POP JUMP JUMPDEST PUSH1 0x0 DUP3 DUP3 MSTORE PUSH1 0x20 DUP3 ADD SWAP1 POP SWAP3 SWAP2 POP POP JUMP JUMPDEST PUSH1 0x0 DUP3 DUP3 MSTORE PUSH1 0x20 DUP3 ADD SWAP1 POP SWAP3 SWAP2 POP POP JUMP JUMPDEST PUSH1 0x0 PUSH2 0x14CE DUP3 PUSH2 0x1535 JUMP JUMPDEST SWAP2 POP PUSH2 0x14D9 DUP4 PUSH2 0x1535 JUMP JUMPDEST SWAP3 POP DUP3 DUP3 LT ISZERO PUSH2 0x14EC JUMPI PUSH2 0x14EB PUSH2 0x15EA JUMP JUMPDEST JUMPDEST DUP3 DUP3 SUB SWAP1 POP SWAP3 SWAP2 POP POP JUMP JUMPDEST PUSH1 0x0 PUSH2 0x1502 DUP3 PUSH2 0x1515 JUMP JUMPDEST SWAP1 POP SWAP2 SWAP1 POP JUMP JUMPDEST PUSH1 0x0 DUP2 ISZERO ISZERO SWAP1 POP SWAP2 SWAP1 POP JUMP JUMPDEST PUSH1 0x0 PUSH20 0xFFFFFFFFFFFFFFFFFFFFFFFFFFFFFFFFFFFFFFFF DUP3 AND SWAP1 POP SWAP2 SWAP1 POP JUMP JUMPDEST PUSH1 0x0 DUP2 SWAP1 POP SWAP2 SWAP1 POP JUMP JUMPDEST PUSH2 0x1548 DUP3 PUSH2 0x16BA JUMP JUMPDEST DUP2 ADD DUP2 DUP2 LT PUSH8 0xFFFFFFFFFFFFFFFF DUP3 GT OR ISZERO PUSH2 0x1567 JUMPI PUSH2 0x1566 PUSH2 0x1677 JUMP JUMPDEST JUMPDEST DUP1 PUSH1 0x40 MSTORE POP POP POP JUMP JUMPDEST PUSH1 0x0 PUSH2 0x157B DUP3 PUSH2 0x1535 JUMP JUMPDEST SWAP2 POP PUSH32 0xFFFFFFFFFFFFFFFFFFFFFFFFFFFFFFFFFFFFFFFFFFFFFFFFFFFFFFFFFFFFFFFF DUP3 EQ ISZERO PUSH2 0x15AE JUMPI PUSH2 0x15AD PUSH2 0x15EA JUMP JUMPDEST JUMPDEST PUSH1 0x1 DUP3 ADD SWAP1 POP SWAP2 SWAP1 POP JUMP JUMPDEST PUSH1 0x0 PUSH2 0x15C4 DUP3 PUSH2 0x1535 JUMP JUMPDEST SWAP2 POP PUSH2 0x15CF DUP4 PUSH2 0x1535 JUMP JUMPDEST SWAP3 POP DUP3 PUSH2 0x15DF JUMPI PUSH2 0x15DE PUSH2 0x1619 JUMP JUMPDEST JUMPDEST DUP3 DUP3 MOD SWAP1 POP SWAP3 SWAP2 POP POP JUMP JUMPDEST PUSH32 0x4E487B7100000000000000000000000000000000000000000000000000000000 PUSH1 0x0 MSTORE PUSH1 0x11 PUSH1 0x4 MSTORE PUSH1 0x24 PUSH1 0x0 REVERT JUMPDEST PUSH32 0x4E487B7100000000000000000000000000000000000000000000000000000000 PUSH1 0x0 MSTORE PUSH1 0x12 PUSH1 0x4 MSTORE PUSH1 0x24 PUSH1 0x0 REVERT JUMPDEST PUSH32 0x4E487B7100000000000000000000000000000000000000000000000000000000 PUSH1 0x0 MSTORE PUSH1 0x32 PUSH1 0x4 MSTORE PUSH1 0x24 PUSH1 0x0 REVERT JUMPDEST PUSH32 0x4E487B7100000000000000000000000000000000000000000000000000000000 PUSH1 0x0 MSTORE PUSH1 0x41 PUSH1 0x4 MSTORE PUSH1 0x24 PUSH1 0x0 REVERT JUMPDEST PUSH1 0x0 DUP1 REVERT JUMPDEST PUSH1 0x0 DUP1 REVERT JUMPDEST PUSH1 0x0 DUP1 REVERT JUMPDEST PUSH1 0x0 DUP1 REVERT JUMPDEST PUSH1 0x0 PUSH1 0x1F NOT PUSH1 0x1F DUP4 ADD AND SWAP1 POP SWAP2 SWAP1 POP JUMP JUMPDEST PUSH32 0x4F776E61626C653A206E6577206F776E657220697320746865207A65726F2061 PUSH1 0x0 DUP3 ADD MSTORE PUSH32 0x6464726573730000000000000000000000000000000000000000000000000000 PUSH1 0x20 DUP3 ADD MSTORE POP JUMP JUMPDEST PUSH32 0x43616C6C20746F2074686520626E32353641646420707265636F6D70696C6564 PUSH1 0x0 DUP3 ADD MSTORE PUSH32 0x206661696C6564202870726F6261626C7920616E206F7574206F662067617320 PUSH1 0x20 DUP3 ADD MSTORE PUSH32 0x6572726F723F2900000000000000000000000000000000000000000000000000 PUSH1 0x40 DUP3 ADD MSTORE POP JUMP JUMPDEST PUSH32 0x496E76616C696420696E64657800000000000000000000000000000000000000 PUSH1 0x0 DUP3 ADD MSTORE POP JUMP JUMPDEST PUSH32 0x626E32353650616972696E67206661696C000000000000000000000000000000 PUSH1 0x0 DUP3 ADD MSTORE POP JUMP JUMPDEST PUSH32 0x4F776E61626C653A2063616C6C6572206973206E6F7420746865206F776E6572 PUSH1 0x0 DUP3 ADD MSTORE POP JUMP JUMPDEST PUSH32 0x496E76616C696420766B206C656E677468000000000000000000000000000000 PUSH1 0x0 DUP3 ADD MSTORE POP JUMP JUMPDEST PUSH32 0x496E76616C69642070726F6F66206C656E677468000000000000000000000000 PUSH1 0x0 DUP3 ADD MSTORE POP JUMP JUMPDEST PUSH32 0x766572696679206661696C000000000000000000000000000000000000000000 PUSH1 0x0 DUP3 ADD MSTORE POP JUMP JUMPDEST PUSH32 0x626E323536416464206661696C00000000000000000000000000000000000000 PUSH1 0x0 DUP3 ADD MSTORE POP JUMP JUMPDEST PUSH2 0x18B7 DUP2 PUSH2 0x14F7 JUMP JUMPDEST DUP2 EQ PUSH2 0x18C2 JUMPI PUSH1 0x0 DUP1 REVERT JUMPDEST POP JUMP JUMPDEST PUSH2 0x18CE DUP2 PUSH2 0x1535 JUMP JUMPDEST DUP2 EQ PUSH2 0x18D9 JUMPI PUSH1 0x0 DUP1 REVERT JUMPDEST POP JUMP INVALID LOG2 PUSH5 0x6970667358 0x22 SLT KECCAK256 0xB3 0xD9 CREATE2 0xC0 PUSH1 0x8F SWAP12 PUSH32 0xE6CFDF6FCDC0FB26DB14B62CD74374DFFD2E226452F9043664736F6C63430008 SMOD STOP CALLER "
				},
				"gasEstimates": {
					"creation": {
						"codeDepositCost": "1283600",
						"executionCost": "infinite",
						"totalCost": "infinite"
					},
					"external": {
						"get_all_commitments()": "infinite",
						"get_commitment_cnt()": "2482",
						"get_sum_of_commitments()": "infinite",
						"get_vk()": "infinite",
						"is_appeared_sum_of_commitments(uint256)": "2822",
						"owner()": "2611",
						"renounceOwnership()": "30465",
						"transferOwnership(address)": "30813",
						"update_commitment(uint256,uint256[])": "infinite",
						"upload_commitment(uint256[])": "infinite"
					}
				},
				"methodIdentifiers": {
					"get_all_commitments()": "068a2253",
					"get_commitment_cnt()": "621a9326",
					"get_sum_of_commitments()": "0651a124",
					"get_vk()": "def596ef",
					"is_appeared_sum_of_commitments(uint256)": "8e0f0c5f",
					"owner()": "8da5cb5b",
					"renounceOwnership()": "715018a6",
					"transferOwnership(address)": "f2fde38b",
					"update_commitment(uint256,uint256[])": "f123b45a",
					"upload_commitment(uint256[])": "f5c13593"
				}
			},
			"storageLayout": {
				"storage": [
					{
						"astId": 7,
						"contract": "contracts/proofOfReserves.sol:ProofOfReservesContractL2",
						"label": "_owner",
						"offset": 0,
						"slot": "0",
						"type": "t_address"
					},
					{
						"astId": 829,
						"contract": "contracts/proofOfReserves.sol:ProofOfReservesContractL2",
						"label": "verifyingKey",
						"offset": 0,
						"slot": "1",
						"type": "t_array(t_uint256)dyn_storage"
					},
					{
						"astId": 833,
						"contract": "contracts/proofOfReserves.sol:ProofOfReservesContractL2",
						"label": "commitArray",
						"offset": 0,
						"slot": "2",
						"type": "t_array(t_struct(G1Point)142_storage)dyn_storage"
					},
					{
						"astId": 841,
						"contract": "contracts/proofOfReserves.sol:ProofOfReservesContractL2",
						"label": "sumOfCommitment",
						"offset": 0,
						"slot": "3",
						"type": "t_struct(G1Point)142_storage"
					},
					{
						"astId": 844,
						"contract": "contracts/proofOfReserves.sol:ProofOfReservesContractL2",
						"label": "commitCnt",
						"offset": 0,
						"slot": "5",
						"type": "t_uint256"
					},
					{
						"astId": 848,
						"contract": "contracts/proofOfReserves.sol:ProofOfReservesContractL2",
						"label": "_sumOfCommitmentList",
						"offset": 0,
						"slot": "6",
						"type": "t_mapping(t_uint256,t_bool)"
					}
				],
				"types": {
					"t_address": {
						"encoding": "inplace",
						"label": "address",
						"numberOfBytes": "20"
					},
					"t_array(t_struct(G1Point)142_storage)dyn_storage": {
						"base": "t_struct(G1Point)142_storage",
						"encoding": "dynamic_array",
						"label": "struct Pairing.G1Point[]",
						"numberOfBytes": "32"
					},
					"t_array(t_uint256)dyn_storage": {
						"base": "t_uint256",
						"encoding": "dynamic_array",
						"label": "uint256[]",
						"numberOfBytes": "32"
					},
					"t_bool": {
						"encoding": "inplace",
						"label": "bool",
						"numberOfBytes": "1"
					},
					"t_mapping(t_uint256,t_bool)": {
						"encoding": "mapping",
						"key": "t_uint256",
						"label": "mapping(uint256 => bool)",
						"numberOfBytes": "32",
						"value": "t_bool"
					},
					"t_struct(G1Point)142_storage": {
						"encoding": "inplace",
						"label": "struct Pairing.G1Point",
						"members": [
							{
								"astId": 139,
								"contract": "contracts/proofOfReserves.sol:ProofOfReservesContractL2",
								"label": "X",
								"offset": 0,
								"slot": "0",
								"type": "t_uint256"
							},
							{
								"astId": 141,
								"contract": "contracts/proofOfReserves.sol:ProofOfReservesContractL2",
								"label": "Y",
								"offset": 0,
								"slot": "1",
								"type": "t_uint256"
							}
						],
						"numberOfBytes": "64"
					},
					"t_uint256": {
						"encoding": "inplace",
						"label": "uint256",
						"numberOfBytes": "32"
					}
				}
			},
			"userdoc": {
				"kind": "user",
				"methods": {},
				"version": 1
			}
		}
	}
}